:100000000C94A1010C94891B0C94B01B0C94C90195
:100010000C94C9010C94C9010C94C9010C94C90138
:100020000C94C9010C94C9010C94C9010C94C90128
:100030000C94C9010C94C9010C94C9010C94C90118
:100040000C94D71B0C94C9010C94E81E0C941A1F35
:100050000C94C9010C94C9010C94C9010C94C901F8
:100060000C94C9010C94C901416E696D6174696F8A
:100070006E2E20667073207265706F727465643DB9
:1000800000416E696D6174696F6E2E2065787465CC
:100090006E743D2000416E696D6174696F6E2E2033
:1000A000706F736974696F6E3D2000416E696D6198
:1000B00074696F6E2E204D6173746572206272696F
:1000C0006768746E6573733D2000416E696D61747D
:1000D000696F6E2E205374617274757020636F6D3A
:1000E000706C6574652E0053746174652E202069F0
:1000F0006E506C616E652D3E69646C652E005374A4
:100100006174652E202069646C652D3E6F75745096
:100110006C616E652E004E6574776F726B2E207366
:10012000657474696E672073797374656D53746157
:1001300074653D00097020323D002D20007C0009CF
:100140007020313D002D20007C00097020303D00E2
:100150002D20007C00096420303D0020313D00202E
:10016000323D004E6574776F726B2E204D534720E1
:1001700066726F6D20004E6574776F726B2E205023
:10018000726F6772616D6D65722074726166666907
:10019000632E004E6574776F726B2E2073746172DC
:1001A00074757020636F6D706C6574652077697409
:1001B00068206E6F6465206E756D6265723D004EDD
:1001C0006574776F726B2E20617070726F78696DD5
:1001D000617465207061636B6574207472616E7305
:1001E0006D697373696F6E2074696D65286D73290D
:1001F0003D004E6574776F726B2E207061636B6586
:10020000742073697A652862697473293D00202817
:100210006279746573293D004E6574776F726B2E39
:10022000206269747261746528626974732F73291E
:100230003D35353535352E00456E74657220746850
:1002400065206E6F6465206E756D62657220666FE5
:10025000722074686973206E6F64653A004E65742D
:10026000776F726B2E204552524F52206E6F206E68
:100270006F6465494420666F756E6420696E204521
:100280004550524F4D21004E6574776F726B2E2092
:100290002077726974696E67206E6F6465494420C7
:1002A000746F20454550524F4D3D004E6574776F39
:1002B000726B2E2072656164206E6F646549442004
:1002C00066726F6D20454550524F4D3D004E65742E
:1002D000776F726B2E20737461727475702E0000CC
:1002E00000000800020100000304070000000000F5
:1002F00000000001020408102040800102040810E0
:10030000200102040810200404040404040404026C
:10031000020202020203030303030300000000239E
:10032000002600290000000000250028002B000006
:10033000000000240027002A0000DB0AF916D31968
:100340004A1F11241FBECFEFD8E0DEBFCDBF13E0A0
:10035000A0E0B1E0E4E1FBE402C005900D92AA3414
:10036000B107D9F726E0AAE4B3E001C01D92A0349A
:10037000B207E1F713E0C2E4D3E004C02297FE0124
:100380000E949822CA33D107C9F70E94F3210C9426
:1003900088250C94000080E090E00895CF93DF93CF
:1003A00000D000D000D0CDB7DEB7AB01DC01ED91BD
:1003B000FC910190F081E02D19821A821B821C822F
:1003C0001D821E829E012F5F3F4FBE016C5F7F4FDB
:1003D000099526960FB6F894DEBF0FBECDBFDF910C
:1003E000CF910895CF93DF9300D000D000D0CDB748
:1003F000DEB7AB01DC01ED91FC910190F081E02DC5
:1004000019821A821B821C821D821E829E012F5F0E
:100410003F4FBE016C5F7F4F099526960FB6F8944B
:10042000DEBF0FBECDBFDF91CF910895FC0184E305
:1004300091E091838083138212828FEF868387837A
:10044000808781878287838781E0848716861586E7
:10045000158214828091910590919205892B21F447
:10046000F0939205E0939105A0918F05B0919005CE
:10047000109721F01596FC93EE931497F093900546
:10048000E0938F050895CF93C62F609393056BEA91
:1004900070E083EA95E00E94CB1F4AE050E06C2FA9
:1004A00083EA95E00E94BB2083EA95E0CF910C940B
:1004B000F71FCF93DF9300D01F92CDB7DEB7FC01BB
:1004C0006083442361F019821A821B82AE014F5F60
:1004D0005F4F6EE670E082E993E00E94F2190F90A0
:1004E0000F900F90DF91CF910895CF93DF93EC01A0
:1004F00080917D03811111C084E693E00E94160271
:1005000082E491E0909365038093640310927403F6
:100510001092730381E080937D0320E030E04EE68B
:1005200050E062E973E084E693E00E949819FC01D0
:100530008FEF868380EB878380EF808780917503C0
:10054000811111C083E593E00E94160280E591E0DD
:1005500090935403809353031092630310926203A9
:1005600081E08093750320E030E04EE650E062E9E0
:1005700073E083E593E00E949819FC018FEF868376
:1005800080EB878380EF80878EE00E94C51C2091DE
:100590000A0130910B01280F391F30930B01209372
:1005A0000A016FEFCE010E94430287E38B838983A8
:1005B0001C821A8241E060E0CE010E9459026AEC7E
:1005C00070E083EA95E00E94CB1F83EA95E0DF911B
:1005D000CF910C94F71F1F93CF93DF93EC01162F4D
:1005E0008981861791F065E970E083EA95E00E94C1
:1005F000CB1F4AE050E0612F83EA95E00E94BB20C8
:1006000083EA95E00E94F71F1983DF91CF911F9134
:1006100008951F93CF93DF93EC01162F8A818617DD
:1006200091F061E870E083EA95E00E94CB1F4AE018
:1006300050E0612F83EA95E00E94BB2083EA95E0B9
:100640000E94F71F1A83DF91CF911F9108954F9257
:100650005F926F927F929F92AF92BF92CF92DF9202
:10066000EF92FF920F931F93CF93DF93CDB7DEB737
:100670002A970FB6F894DEBF0FBECDBF962E80E14D
:10068000888788E0898780918A0381110DC00E9444
:10069000211C60934E0370934F03809350039093FB
:1006A000510381E080938A038DEF9FEB9A838983C6
:1006B0008FEF9FE39C838B8380914D03E8E0F0E014
:1006C000EC0FFD1FE80FF11D40816EE670E082E93E
:1006D00093E00E942F1A80914D0390E0FC01EE0FF1
:1006E000FF1FEC0FFD1F0181128140904E035090BF
:1006F0004F036090500370905103E8E0F0E0EC0F7E
:10070000FD1FE80FF91F80818A870E94211C6B0161
:100710007C0120E03A85A8E1B1E00E947C229B01A7
:10072000AC01C418D508E608F708C701B6010E9455
:100730000322080F191FC8019F73969587959695F8
:1007400087959695879516FF06C02FEF37E0A9018C
:10075000481B590BCA01E92FEE0FEE0FF0E0EF5ED8
:10076000FE4F2081318192818695A901989F400D8D
:10077000511D1124CA0117FF03C09195819591095C
:100780009C01305880E090E0DC0160E04FEF5FEFCB
:10079000249FC001359FD001349F900DA11DB61F2D
:1007A000259F900DA11DB61F1124BD0188279927F3
:1007B0001F921F921F922EE62F93A12CB12C650140
:1007C000EE24EA94FE2C00E010E020E030E0A901E5
:1007D0000E94A921162F0F900F900F900F906D3649
:1007E000D9F480914D0381111DC00E94211CC0903D
:1007F0004E03D0904F03E0905003F090510354EF1C
:10080000C50E51E0D51EE11CF11CC616D706E80640
:10081000F90608F44DC006C0611104C080914D0373
:10082000813069F180914C0391E0980F90934C03D3
:100830008D838FEF8E839F82812F90E0BC01660FA6
:10084000771F680F791F6E567C4FCE0105960E9468
:100850003D1A2A960FB6F894DEBF0FBECDBFDF91CA
:10086000CF911F910F91FF90EF90DF90CF90BF90AD
:10087000AF909F907F906F905F904F9008950E94EF
:10088000211CC0904E03D0904F03E0905003F09095
:10089000510324EFC20E21E0D21EE11CF11CC6164A
:1008A000D706E806F90608F0BDCF10924D0303C045
:1008B00081E080934D030E94211C60934E0370934E
:1008C0004F038093500390935103ACCF5F926F928C
:1008D0007F928F929F92AF92BF92CF92DF92EF92D0
:1008E000FF920F931F93CF93DF9300D01F92CDB74A
:1008F000DEB7862E142F19821A821B82AE014F5F3B
:100900005F4F6EE670E082E993E00E94F2198091F9
:100910004B038F5F80934B03282D31E0230F08F4A6
:100920002FEF282D230F08F42FEF2E3638F421E077
:10093000382D320F08F43FEF932E02C07DE6972E3C
:10094000292D210F08F42FEF292D210F08F42FEF67
:100950002E3630F4292D210F08F42FEF622E02C01D
:100960006DE6662E282D31E0231B08F420E0282DAB
:10097000231B08F420E02E3638F421E0382D321BFA
:1009800008F430E0732E02C05DE6752E272D211B82
:1009900008F420E0272D211B08F420E02E3630F447
:1009A000272D211B08F420E0522E02C04DE6542EC4
:1009B000183328F4612F70E080E090E004C067E312
:1009C00070E080E090E01F921F921F9220E12F9331
:1009D000A12CB12C6501AA9417E3E12EF12C00E0C3
:1009E00010E020E030E0A9010E94A921062F0F901D
:1009F0000F900F900F90152DFF24FA946116A0F020
:100A000080914B038983FA820B83212F30E0B90157
:100A1000660F771F620F731F6E567C4FCE010196D3
:100A20000E943D1A1F5FEACF19821A8210E21B83CF
:100A3000852D90E0BC01660F771F680F791F6E56F9
:100A40007C4FCE0101960E943D1A19821A8200E85D
:100A50000B83872D90E0BC01660F771F680F791F0D
:100A60006E567C4FCE0101960E943D1A19821A8261
:100A70008FEF8B83882D90E0BC01660F771F680F86
:100A8000791F6E567C4FCE0101960E943D1A198245
:100A90001A820B83892D90E0BC01660F771F680FC7
:100AA000791F6E567C4FCE0101960E943D1A198225
:100AB0001A821B83712CB301660F771F660D771D99
:100AC0006E567C4FCE0101960E943D1A0F900F90FA
:100AD0000F90DF91CF911F910F91FF90EF90DF90DA
:100AE000CF90BF90AF909F908F907F906F905F90CE
:100AF0000895CF93DF93FC0183819181981710F4BF
:100B0000815003C0891710F48F5F838384819281A1
:100B1000981710F4815003C0891710F48F5F8483F5
:100B20008081882341F0813051F444816381CF0179
:100B30000E94660404C06FEFCF010E9427036091FA
:100B4000930583E995E00E94D018809152038F5F4E
:100B5000843629F080935203DF91CF91089510924B
:100B60005203C0919405D091950568E670E083EA40
:100B700095E00E94CB1F4AE050E0BE0183EA95E079
:100B80000E94A62083EA95E0DF91CF910C94F71F95
:100B9000DC018D919C91009739F0DC01ED91FC9185
:100BA0000190F081E02D09940895DC018D919C91D4
:100BB000009739F0DC01ED91FC910280F381E02D8A
:100BC00009940895579A569A0F960C94D505DC010E
:100BD0008D919C91009739F0DC01ED91FC91019091
:100BE000F081E02D09940895DC018D919C9100978E
:100BF00039F0DC01ED91FC910280F381E02D099444
:100C00000895549A569A0F960C94F40587FF02C0E3
:100C10005F9A01C05F985E9A5E9886FF02C05F9AF5
:100C200001C05F985E9A5E9885FF02C05F9A01C01E
:100C30005F985E9A5E9884FF02C05F9A01C05F98D9
:100C40005E9A5E9883FF02C05F9A01C05F985E9AC9
:100C50005E9882FF02C05F9A01C05F985E9A5E98BC
:100C600081FF02C05F9A01C05F985E9A5E9880FF24
:100C700002C05F9A01C05F985E9A5E98089580E016
:100C80000E94060680E00E94060680E00E9406069A
:100C900080E00C940606CF93DF9397FD4F96EC010E
:100CA000E5E0D595C795EA95E1F78FEF0E94060636
:100CB00080E00E94060680E00E94060680E00E9416
:100CC0000606219790F7DF91CF91089587FF02C024
:100CD0005C9A01C05C985E9A5E9886FF02C05C9A3E
:100CE00001C05C985E9A5E9885FF02C05C9A01C064
:100CF0005C985E9A5E9884FF02C05C9A01C05C9822
:100D00005E9A5E9883FF02C05C9A01C05C985E9A0E
:100D10005E9882FF02C05C9A01C05C985E9A5E9801
:100D200081FF02C05C9A01C05C985E9A5E9880FF69
:100D300002C05C9A01C05C985E9A5E98089580E05B
:100D40000E94660680E00E94660680E00E946606B9
:100D500080E00C946606CF93DF9397FD4F96EC01ED
:100D6000F5E0D595C795FA95E1F78FEF0E946606F5
:100D700080E00E94660680E00E94660680E00E9495
:100D80006606219790F7DF91CF910895FF920F9318
:100D90001F93CF93DF93EC0180914A038F5F982FCD
:100DA000977090934A0380FD02C080E001C080E804
:100DB00091FD8064947009F08062A0E1FA2EF80E33
:100DC00020E030E000E011E0FE01E20FF31F628559
:100DD000662331F070E0C8010E9427226F5F01C0D6
:100DE00060E067834F2D469F412D11244483662385
:100DF00011F0615067832F5F3F4F2330310521F79A
:100E0000DF91CF911F910F91FF900895FC01613008
:100E100011F40C94C606118610861782168215826C
:100E200014820895AF92BF92CF92DF92EF92FF9219
:100E30000F931F93CF93DF93CDB7DEB72F970FB6E6
:100E4000F894DEBF0FBECDBF6C01CB018A01F90162
:100E5000D6011C966C919A8389835C834B83808135
:100E60008B8781818C8782818D87CE0101960E943C
:100E700006071E86BFE0CB0ED11CC6010E94E70507
:100E80000E949F06E12CF12CE016F1060CF04EC0FA
:100E9000E981FA812281222329F03F81230F08F47E
:100EA0002FEF01C020E03D85239F212D11248FEFDE
:100EB0002F870E9466062F85822F0E946606E98191
:100EC000FA812181222329F03E81230F08F42FEF9C
:100ED00001C020E03C85239F212D1124A22EB12C9E
:100EE000BA2CAA242081222329F03D81230F08F463
:100EF0002FEF01C020E03B85239F212D1124A22A42
:100F00008B2D0E9466068A2D0E94660688859D812B
:100F1000891B8D8389859E81891B8E838A859F810C
:100F2000891B8F838FEFE81AF80AAECFC8010E94A1
:100F3000AB06C6010E94F4052F960FB6F894DEBFEB
:100F40000FBECDBFDF91CF911F910F91FF90EF901A
:100F5000DF90CF90BF90AF900895AF92BF92CF92A5
:100F6000DF92EF92FF920F931F93CF93DF93CDB752
:100F7000DEB72F970FB6F894DEBF0FBECDBF6C0162
:100F8000CB018A01F901D6011C966C919A83898361
:100F90005C834B8380818B8781818C8782818D8765
:100FA000CE0101960E9406071E86BFE0CB0ED11C23
:100FB000C6010E94C8050E943F06E12CF12CE016F4
:100FC000F1060CF04EC0E981FA812281222329F03A
:100FD0003F81230F08F42FEF01C020E03D85239FC0
:100FE000212D11248FEF2F870E9406062F85822F37
:100FF0000E940606E981FA812181222329F03E819F
:10100000230F08F42FEF01C020E03C85239F212D02
:101010001124A22EB12CBA2CAA242081222329F03B
:101020003D81230F08F42FEF01C020E03B85239F73
:10103000212D1124A22A8B2D0E9406068A2D0E94A2
:10104000060688859D81891B8D8389859E81891BE4
:101050008E838A859F81891B8F838FEFE81AF80A18
:10106000AECFC8010E944B06C6010E94D5052F963F
:101070000FB6F894DEBF0FBECDBFDF91CF911F91A9
:101080000F91FF90EF90DF90CF90BF90AF900895B9
:10109000AF92BF92CF92DF92EF92FF920F931F9386
:1010A000CF93DF93CDB7DEB72F970FB6F894DEBF9F
:1010B0000FBECDBF6C01CB018A01F901D6011C9690
:1010C0006C919A8389835C834B8380818B87818138
:1010D0008C8782818D87CE0101960E94060783E06E
:1010E0008E87BFE0CB0ED11CC6010E94C8050E94AE
:1010F0003F06E12CF12CE016F1060CF05BC0E98113
:10110000FA812281222329F03F81230F08F42FEF57
:1011100001C020E03D85239F212D11248FEF2F87D3
:101120000E9406062F85822F0E940606E981FA8119
:101130002181222329F03E81230F08F42FEF01C0E3
:1011400020E03C85239F212D1124A22EB12CBA2C06
:10115000AA242081222329F03D81230F08F42FEFB8
:1011600001C020E03B85239F212D1124A22A8B2D35
:101170000E9406068A2D0E9406068E8529813A81E4
:10118000280F311D3A8329832B813C81215031095D
:101190003C832B8388859D81891B8D8389859E81D6
:1011A000891B8E838A859F81891B8F838FEFE81A25
:1011B000F80AA1CFC8010E944B06C6010E94D505BE
:1011C0002F960FB6F894DEBF0FBECDBFDF91CF9143
:1011D0001F910F91FF90EF90DF90CF90BF90AF9055
:1011E0000895AF92BF92CF92DF92EF92FF920F934A
:1011F0001F93CF93DF93CDB7DEB72F970FB6F89439
:10120000DEBF0FBECDBF6C01CB018A01F901D60153
:101210001C966C919A8389835C834B8380818B8736
:1012200081818C8782818D87CE0101960E9406077D
:1012300083E08E87BFE0CB0ED11CC6010E94E7057C
:101240000E949F06E12CF12CE016F1060CF05BC029
:10125000E981FA812281222329F03F81230F08F4BA
:101260002FEF01C020E03D85239F212D11248FEF1A
:101270002F870E9466062F85822F0E946606E981CD
:10128000FA812181222329F03E81230F08F42FEFD8
:1012900001C020E03C85239F212D1124A22EB12CDA
:1012A000BA2CAA242081222329F03D81230F08F49F
:1012B0002FEF01C020E03B85239F212D1124A22A7E
:1012C0008B2D0E9466068A2D0E9466068E852981D6
:1012D0003A81280F311D3A8329832B813C8121508B
:1012E00031093C832B8388859D81891B8D8389856A
:1012F0009E81891B8E838A859F81891B8F838FEFB7
:10130000E81AF80AA1CFC8010E94AB06C6010E94E4
:10131000F4052F960FB6F894DEBF0FBECDBFDF9158
:10132000CF911F910F91FF90EF90DF90CF90BF90E2
:10133000AF900895AF92BF92CF92DF92EF92FF925B
:101340000F931F938DE595E00E94DA168DE595E0E9
:101350000E94DA168F379D4140F48DE595E00E949A
:10136000DA16BC0180E090E004C06EE77DE180E029
:1013700090E01F921F921F922DE62F93A12CB12C6B
:101380006501E12CF12C87012EE73DE140E050E0C2
:101390000E94A92185E893E00E94EB028DE595E08B
:1013A0000E94D0168DE595E00E94D0160F900F9008
:1013B0000F900F908739994140F48DE595E00E9498
:1013C000D016BC0180E090E004C066E979E180E0DD
:1013D00090E01F921F921F9227E32F93A12CB12C14
:1013E000650116E9E12E19E1F12E00E010E020E0A0
:1013F00030E0A9010E94A92185E893E00E94090339
:101400000F900F900F900F908091EC0481110BC002
:1014100044EF51E060E070E08CED94E00E94ED0A52
:1014200081E08093EC048DE595E00E94E41688232A
:1014300021F08CED94E00E94390B8CED94E00E9439
:10144000F30A811106C08DE595E00E94CC16019744
:10145000F1F067EE70E083EA95E00E94CB1F83EA2B
:1014600095E00E94F71F6BE075E08CEF94E00E941E
:10147000201B40E060E085E893E01F910F91FF9012
:10148000EF90DF90CF90BF90AF900C9459021F91D6
:101490000F91FF90EF90DF90CF90BF90AF900895A5
:1014A0008DE595E00E94CC160197A9F58091F40492
:1014B00081110BC044EF51E060E070E084EE94E0F5
:1014C0000E94ED0A81E08093F4048DE595E00E948E
:1014D000E416811104C084EE94E00E94390B84EE7E
:1014E00094E00E94F30A8823B1F06EEF70E083EA83
:1014F00095E00E94CB1F83EA95E00E94F71F65E00C
:1015000075E08CEF94E00E94201B40E061E085E8EC
:1015100093E00C94590208950F93CF93DF93CDB7C6
:10152000DEB728970FB6F894DEBF0FBECDBF26E01A
:1015300040E052EC61E070E083EA95E00E94861E94
:101540000FE12BE54DE96FEF8DE595E00E9419174E
:1015500048EE53E060E070E0CE0101960E94ED0A93
:10156000CE0101960E94F30A811105C08DE595E038
:101570000E943E16F5CF85E893E00E9475022896FA
:101580000FB6F894DEBF0FBECDBFDF91CF910F91A4
:1015900008958DE595E00E943E16882321F08DE5A3
:1015A00095E00E9462158CEF94E00E944C1B85E848
:1015B00093E00C94790560E57AE08BE095E00E9479
:1015C000F31A6AE979E085E095E00E94F31A6BE08E
:1015D00075E08CEF94E00C94141BFC01448355835C
:1015E0006683778308958F929F92AF92BF92CF9236
:1015F000DF92EF92FF920F931F93CF93DF93EC0153
:101600000E94211C8C809D80AE80BF80811491043B
:10161000A104B10429F4688379838A839B8319C068
:10162000088119812A813B816B017C01C01AD10A92
:10163000E20AF30AC814D904EA04FB0460F0B90111
:10164000A801480D591D6A1D7B1D488359836A8373
:101650007B8381E001C080E0DF91CF911F910F91EA
:10166000FF90EF90DF90CF90BF90AF909F908F90C2
:101670000895CF93DF93EC010E94211C6883798346
:101680008A839B83DF91CF910895089580911105FE
:1016900090911205DC01ED91FC910484F585E02D1B
:1016A0000994CF93DF93EC0161E08A810E94441D8D
:1016B00089858CBD8A858DBD7894DF91CF91089501
:1016C000FC01F8948CB581878DB582878CB5837FBA
:1016D0008CBD8CB58F7D8CBD8CB58C7F8CBD8DB554
:1016E0008E7F8DBD60E082810C94441DF894209122
:1016F0001B05233021F42091170521110FC02091E3
:101700001B05233011F4789407C0DC01ED91FC91A6
:101710000288F389E02D099580E00895DC01ED91C0
:10172000FC910488F589E02D61E0099581E0089538
:101730008EBD00000DB407FEFDCF8EB50895CF938A
:10174000DF931F92CDB7DEB7DC01ED91FC910480F1
:10175000F581E02D698309956981882359F080918D
:101760001905861711F06F3F29F49091150581E056
:10177000911101C080E00F90DF91CF9108952F92D9
:101780003F924F925F927F928F929F92AF92BF92C1
:10179000CF92DF92EF92FF920F931F93CF93DF933D
:1017A000EC01962E5A01722E802E10E0CE2CD12CF8
:1017B000E12CF12CE881F9810190F081E02D01E02C
:1017C000272DA501692DCE0109950E94211C1B0121
:1017D0002C010E94211C62197309840995096C155A
:1017E0007D058E059F0540F4692DCE010E949F0B5B
:1017F000882379F381E004C01F5F8116D8F680E06A
:10180000DF91CF911F910F91FF90EF90DF90CF90DC
:10181000BF90AF909F908F907F905F904F903F9040
:101820002F900895EF92FF921F93CF93DF931F9213
:10183000CDB7DEB77C01DC01ED91FC91008CF18D20
:10184000E02D698309956981862F8F770E94980B17
:1018500080E00E94980B182FD701ED91FC91028C2B
:10186000F38DE02DC7010995812F0F90DF91CF9166
:101870001F91FF90EF9008950F931F93CF93DF93E5
:1018800000D0CDB7DEB78C01DC01ED91FC91008C6E
:10189000F18DE02D4A83698309956981862F8068DF
:1018A0000E94980B4A81842F0E94980BD801ED91D9
:1018B000FC91028CF38DE02DC8010F900F90DF9109
:1018C000CF911F910F9109941F93CF93DF93EC0158
:1018D000162F80911B05681709F461C0623009F466
:1018E00040C070F4662309F444C0613009F057C069
:1018F00061E0CE010E94120C482F437E44603FC03D
:101900006330C1F0643009F04AC061E0CE010E944A
:10191000120C482F437E4C6061E0CE010E943C0CCB
:101920008885882381F1E881F9810688F789E02D8F
:1019300061E014C061E0CE010E94120C482F437E8A
:10194000406161E0CE010E943C0C88858823D9F07B
:10195000E881F9810688F789E02D60E0CE010995DC
:1019600012C061E0CE010E94120C482F437E4860F5
:1019700006C061E0CE010E94120C482F437E61E058
:10198000CE010E943C0C80911B05811106C067E2CC
:10199000CE010E94120C87FFF6CF10931B05DF913A
:1019A000CF911F910895CF93DF93EC01603208F03F
:1019B0006FE16F838885882311F066956F8361E1FD
:1019C000CE010E94120C482F407E8F81482B61E18E
:1019D000CE01DF91CF910C943C0CCF92DF92EF922D
:1019E000FF920F931F93CF93DF93EC01F62ED42E2B
:1019F000C52E122FE881F9810488F589E02D61E078
:101A0000099567E2CE010E94120C87FFFACF40E0F1
:101A100065E2CE010E943C0C1E3308F01DE3E1108C
:101A200004C0002319F000E401C000E8E881F98156
:101A3000008CF18DE02DCE01099580E80E94980B75
:101A400083E0810F0E94980B8F2D0E94980B8D814F
:101A50000E94980B802F0E94980B0D2DED2CFC2CD2
:101A60008E2D801B811730F4F70181917F010E9438
:101A7000980BF6CFE881F981028CF38DE02DCE0131
:101A80000995E881F9810488F589E02D64E0CE01AB
:101A900009950E94211C6B017C018B810E947A1D9B
:101AA000892B81F0E881F9810488F589E02D61E0D6
:101AB000CE01DF91CF911F910F91FF90EF90DF90BA
:101AC000CF9009940E94211C6C197D098E099F09F1
:101AD000683E73408105910528F7DFCFCF93DF93F0
:101AE000EC0110921A051092190510921805109227
:101AF00017051092160510921505109214051092F4
:101B0000130568E20E94120C82FF0AC06DE3CE0149
:101B10000E94120C482F44606DE3CE010E943C0CE1
:101B200040E465E2CE010E943C0CE881F981048822
:101B3000F589E02D63E0CE01DF91CF910994DF922A
:101B4000EF92FF920F931F93CF93DF93EC018B01E2
:101B5000E881F9810488F589E02D61E00995011596
:101B60001105E1F0E881F981008CF18DE02DCE01C5
:101B700009958EEB0E94980B7801D12CF701819189
:101B80007F010E94980BD394F0E1DF12F7CFE88138
:101B9000F981028CF38DE02DCE0109956DE3CE0124
:101BA0000E94120C8E7F91E0012B09F490E0482FE7
:101BB000492B6DE3CE01DF91CF911F910F91FF90E3
:101BC000EF90DF900C943C0C8F929F92AF92BF925B
:101BD000DF92EF92FF920F931F93CF93DF93CDB7D6
:101BE000DEB7AE970FB6F894DEBF0FBECDBF7C0157
:101BF000D42E8EE28E010F5F1F4FD801E82F1D9269
:101C0000EA95E9F791E0998334E03A8342E04B8327
:101C100093E09D834E833F8340E4488735E03987D6
:101C20009A8796E09B8793E39C8737E03D8798E00F
:101C30009F8799E0998B99E19B8B92E49C8B55E26D
:101C40005D8B4E8B46E24F8B388F38E2398F30E117
:101C50003A8F39E23B8F3CED3C8F8D8F88E88E8F39
:101C60008FE28F8F8DE288A380E389A337E33BA3C4
:101C700030E93CA338E33DA39EA39CE39FA39FE8E8
:101C800098A79DE399A792E19AA79FE69BA78CA7A7
:101C90008FEF8DA76F3131F06B3231F0663531F453
:101CA00089ED05C08EE403C08CE601C084EE8E870A
:101CB0006F3141F06B3221F0663521F480E003C0D2
:101CC00080E401C080EC888B2AA361E0D7011296E2
:101CD0008C910E94441D61E0F70182810E940B1DDE
:101CE0000E94EB100E94211C4B015C014AEA6FE24A
:101CF000C7010E943C0C6FE2C7010E94120C8A3A95
:101D000059F00E94211C681979098A099B096233DC
:101D100071058105910550F30E94211C4B015C0166
:101D200045E56FE2C7010E943C0C6FE2C7010E94CB
:101D3000120C853559F00E94211C681979098A090D
:101D40009B09623371058105910550F3B12CF801AF
:101D5000EB0DF11DEB0DF11D60816F3F31F0418105
:101D6000C7010E943C0CB394F2CF60E070E0C70161
:101D70000E949F0DD701ED91FC9111970084F18590
:101D8000E02D18966C91C7010995D701ED91FC9152
:101D90000488F589E02D61E0C70109950E94211CA6
:101DA0004B015C0167E2C7010E94120C87FD0BC06A
:101DB0000E94211C681979098A099B0962337105FF
:101DC0008105910578F30E94211C681979098A0917
:101DD0009B09623371058105910588F443E050E069
:101DE00066E47BE0F70184810E94691BF092120592
:101DF000E0921105D7011596DC9281E001C080E0E8
:101E0000AE960FB6F894DEBF0FBECDBFDF91CF9177
:101E10001F910F91FF90EF90DF90BF90AF909F9038
:101E20008F900895CF93DF93EC0161110DC064E2B0
:101E3000CE010E94120C90E09195819591099595A3
:101E40008795DF91CF91089541E063E20E943C0CB9
:101E500063E2CE010E94120C81FFFACFE8CFCF934C
:101E6000DF93EC0180911B058330A9F48091170565
:101E7000811111C060E0CE010E94120F863A9F4F7F
:101E800054F4E881F9810488F589E02D61E0CE0100
:101E9000099581E001C080E0DF91CF910895FF9224
:101EA0000F931F93CF93DF93EC0180911B05833039
:101EB00001F568E2CE010E94120C82FD28C019C013
:101EC00080911A058D3330F4E0911A05F0E0E45E5C
:101ED000FA4F1082E881F981028CF38DE02DCE015A
:101EE0000995E881F9810488F589E02D63E0CE0148
:101EF000099560E0CE010E94120F90931405809323
:101F00001305DF91CF911F910F91FF900895E88104
:101F1000F9810488F589E02D61E0CE010995E88119
:101F2000F981008CF18DE02DCE01099580E00E94B1
:101F3000980B80E00E94980B8093170580911705FD
:101F40008334D0F4809117058093170580E00E94B8
:101F5000980B809318058E81811109C09091180506
:101F60008D81981721F0809118058F3F39F4809169
:101F70001705833018F017C082E4E6CF10921705DA
:101F8000E881F981028CF38DE02DCE010995E8817D
:101F9000F9810288F389E02DCE01DF91CF911F9165
:101FA0000F91FF90099480911705835080931A0533
:101FB00080E00E94980B8093190580E00E94980BA6
:101FC000982F907890931505982F907490931605FC
:101FD000E881F9810684F785E02D682FCE01099507
:101FE000F12C80911A05F81608F06ACF0F2D10E039
:101FF00080E00E94980BF801E45EFA4F8083F3942E
:10200000F0CF4F925F926F927F929F92AF92BF926A
:10201000EF920F931F93CF93DF93EC01162F5A018A
:10202000922E6DE30E94120C482F44606DE3CE01A6
:102030000E943C0C0E94211C2B013C01CE010E94FD
:102040002F0F8823C1F0E881F9810088F189E02D04
:10205000E12C292DA501612FCE010995DF91CF91AA
:102060001F910F91EF90BF90AF909F907F906F90D6
:102070005F904F9008950E94211C6419750986098C
:102080009709683E734081059105E8F6E881F9817A
:102090000480F581E02DCE010995D0CF4F925F925B
:1020A0006F927F929F92AF92BF92CF92DF92EF9208
:1020B000FF920F93CF93DF93EC015B01942E10926C
:1020C0001605F0901905C0901305D09014056DE326
:1020D0000E94120C482F44606DE3CE010E943C0C1C
:1020E0000E94211C2B013C01CE010E942F0F88234E
:1020F00011F1F0921905E881F9810088F189E02D4C
:10210000EE24E39400E0292DA5016F2DCE01099561
:10211000D0921405C0921305DF91CF910F91FF90DB
:10212000EF90DF90CF90BF90AF909F907F906F9097
:102130005F904F9008950E94211C641975098609CB
:102140009709683E73408105910598F6E881F98109
:102150000480F581E02DCE010995C6CFCF93DF93A2
:10216000EC016887662311F04FE001C04AE163E1AA
:10217000CE010E943C0C8885882341F061E1CE01AC
:102180000E94120C482F4F71406602C04F81406878
:1021900061E1CE01DF91CF910C943C0C1F93CF9362
:1021A000DF93EC01162F662311F04DE501C045E5E4
:1021B0006AE5CE010E943C0C112311F04CE701C0EE
:1021C00040E76CE5CE01DF91CF911F910C943C0C60
:1021D000FC0166830895CF93CFB7F89480915C0596
:1021E000811127C0E1E1F3E08491EDEFF2E09491F9
:1021F000E82FF0E0EE0FFF1FE15DFC4FA591B491D9
:102200008C91892321F461E08AE00E94441D61E001
:102210008AE00E940B1D8CB580618CBD8CB58064FA
:102220008CBD61E08DE00E940B1D61E08BE00E949F
:102230000B1D80915C058F5F80935C05CFBFCF91B4
:102240000895FC0180E58583168260835283418373
:102250000895FC018CB583838DB5848335812681F7
:1022600080915B05882399F09FB7F89480915B0576
:10227000813059F48DB3809359054DB380915A053F
:10228000809584238DBB9FBF02C0909359053CBDB0
:102290002DBD60E080810C94441DCF93DF93EC0151
:1022A00061E088810E94441D80915B05882361F074
:1022B0009FB7F89420915B0580915905213019F45E
:1022C0008DBB9FBF01C08FBF8B818CBD8C818DBDAD
:1022D000DF91CF9108951F93CF93DF93EC010E947C
:1022E000291185E00E94980B80E00E94980B182F1E
:1022F000CE010E944D11812FDF91CF911F91089542
:102300000E946B11817008951F93CF93DF93EC01AE
:10231000162F442339F040E066E00E948411CE017C
:102320000E944D11CE010E9480118111FBCFCE0180
:102330000E942911812FDF91CF911F910C94980B4E
:10234000EF92FF920F931F93CF93DF9300D0CDB7FF
:10235000DEB77C01142F062F41E062E02A83598307
:102360000E948411802F0E94980B5981852F0E9412
:10237000980B812F0E94980B2A81822F0E94980B24
:10238000C7010F900F90DF91CF911F910F91FF9098
:10239000EF900C944D112F923F924F925F926F925B
:1023A0007F928F929F92AF92BF92CF92DF92EF92E5
:1023B000FF920F931F93CF93DF936C012A013B0190
:1023C0005901CA019927C0E0D1E0C81BD90BE12C03
:1023D000F12C0115110579F10C171D0708F4E8011E
:1023E00041E062E0C6010E948411862D0E94980B94
:1023F000852D0E94980B842D0E94980B15012E0CA0
:102400003F1C4101F40181914F010E94980BC401CE
:10241000821993098C179D07A8F3C6010E944D11DC
:102420004C0E5D1E611C711CEC0EFD1E0C1B1D0B69
:10243000C0E0D1E0CECFDF91CF911F910F91FF90FF
:10244000EF90DF90CF90BF90AF909F908F907F9054
:102450006F905F904F903F902F900895EF92FF9272
:102460000F931F93CF93DF931F92CDB7DEB77C01FD
:10247000142F062F41E062E559830E948411802FBA
:102480000E94980B5981852F0E94980B812F0E94E2
:10249000980BC7010F90DF91CF911F910F91FF9083
:1024A000EF900C944D11FC01DB018EE591E09183DE
:1024B000808312968C911297828313968C91139736
:1024C000838314968C911497848315968C91159719
:1024D000858316968C911697868317968C911797FD
:1024E000878318968C911897808719968C911997E5
:1024F00081871A968C9182870895CF92DF92FF92FE
:102500000F931F93CF93DF93CDB7DEB70DB71EB7F1
:10251000262F30E0220F331FA9014F5F5F4FEDB729
:10252000FEB7E41BF50B0FB6F894FEBF0FBEEDBF70
:102530004DB75EB74F5F5F4FDA01F82E6C018C2DFF
:102540008F198617C8F4C601F601708172957F70E5
:1025500070637A3308F0795D7C93FFEFCF1ADF0A5E
:10256000FC0180818F7080638A3308F0895D119649
:102570008C9311971296E3CFFA01E20FF31F1082AA
:10258000BA0183EA95E00E94FB1F0FB6F8941EBFC4
:102590000FBE0DBFDF91CF911F910F91FF90DF9084
:1025A000CF9008952F923F924F925F926F927F92B9
:1025B0008F929F92AF92BF92CF92DF92EF92FF9253
:1025C0000F931F93CF93DF93CDB7DEB76C970FB602
:1025D000F894DEBF0FBECDBF4C016B8FE98AFA8A3B
:1025E0000B8B1C8B2D8B3E8B4F8BAA8E46E060E9AC
:1025F00072E00E944E10CC2031F06EE971E083EA67
:1026000095E00E94FB1F40E050E0BA01CE014196E8
:102610000E942E1207E010E020EB31E040E050E095
:10262000BA01CE0141960E94CB112AE349E050E065
:1026300060E070E0CE0141960E94A0110E94211C32
:102640001B012C015AE0E52EF12CA12CB12C9E018E
:102650002F5F3F4F398F288FC4010E94760B88234C
:1026600001F1809119053B8D83131BC0D0901A0591
:10267000B3E0BD1520F480911C058634F9F061E0CB
:102680008A8D0E940B1D61E08A8D0E94441D61E0CD
:1026900070E080E090E00E94501C60E08A8D0E9413
:1026A000441D0E94211C6219730984099509693B24
:1026B0007B408105910580F280E022C180911D055B
:1026C0008C34E9F680911E058835C9F680911F0586
:1026D0008A3309F0AAC046E04D1508F0A6C084E090
:1026E00090E000E010E0782E2FEF280FFC01E45E70
:1026F000FA4F30813033A0F030813A3388F42081B2
:10270000AAE0A801A49F8001A59F100D11240053E9
:102710001109020F111D01968830910521F707C09C
:1027200030813A33C1F754E0751631F2722ECC2065
:10273000C1F068EB71E083EA95E00E94EE1F4AE089
:1027400050E06D2D83EA95E00E94BB2060EC71E0C3
:1027500083EA95E00E94EE1F6D2D8CE195E00E94CA
:102760007D12E1E0E70DF0E0E45EFA4F80818A330C
:1027700009F0A2CF0E94211C1B012C010A151B0588
:1027800039F0C50101970817190709F04EC029C093
:1027900032E0370D58018FEFA81AB80A3D1508F539
:1027A000E32FF0E0E45EFA4F208137019FEF691AD2
:1027B000790AA70160E070E0CE0141963C8F0E944B
:1027C000A011C3019F773C8D892B41F4A30160E0E8
:1027D00070E0CE0141960E942E123C8D3F5F730146
:1027E000DDCF1F930F93A5ECB1E0BF93AF93398D6D
:1027F0003F93488D4F930E94A122482F0F900F9036
:102800000F900F900F900F90CC2049F0BE016F5F9A
:102810007F4F83EA95E04C8F0E94FB1F4C8DBE01D9
:102820006F5F7F4FC4010E944E1080911F058F3350
:1028300009F025CF54E0D51210C046E060E972E0FF
:10284000C4010E944E10CC2009F419CF6FEC71E046
:1028500083EA95E00E94FB1F12CF87E0D8120FCFCA
:1028600080912005853409F00ACF809121058F34AD
:1028700009F005CF80912205863409F000CF870149
:102880000A5011090130BCE71B0778F0CC2031F069
:102890006DED71E083EA95E00E94FB1F47E06AEF6F
:1028A00071E0C4010E944E1007CF46E060E972E07B
:1028B000C4010E944E10CC2031F060E972E083EA3E
:1028C00095E00E94FB1F212F47E050E060E070E0A0
:1028D000CE0141960E94A01126EF2E0D48E050E057
:1028E00060E070E0CE0141960E94A0112AE349E029
:1028F00050E060E070E0CE0141960E94A01181E0BE
:102900006C960FB6F894DEBF0FBECDBFDF91CF91AE
:102910001F910F91FF90EF90DF90CF90BF90AF90FD
:102920009F908F907F906F905F904F903F902F90EF
:102930000895C82F882331F062ED72E083EA95E0B4
:102940000E94EE1F88E028E130E00FB6F894A895C9
:10295000209360000FBE80936000CC2331F06EE2C4
:1029600083EA95E00E94F01FFACFFFCFAF92BF92AB
:10297000CF92DF92EF92FF920F931F93CF93DF934B
:10298000CDB7DEB762970FB6F894DEBF0FBECDBFEE
:102990000C871D872E873F87488B598B6A8BDE2CCF
:1029A00020911A05243008F45CC020911C052634BF
:1029B00009F057C020911D052C3409F052C0209118
:1029C0001E05283509F04DC020911F052F3309F051
:1029D00048C0B090190520911A052730A1F4209124
:1029E0002005253481F4209121052F3461F42091B4
:1029F0002205263441F400E026E040E952E06B2D48
:102A00000E9401102EC0BC01CE0101960E945312FB
:102A1000AC2CCD2CEC84FD840E851F85288939894A
:102A20004A896B2DCE0101960E94D212882359F05B
:102A3000DD2031F06CED72E083EA95E00E94EE1F3C
:102A40008D2D0E949914DD2061F06DEF72E083EA14
:102A500095E00E94EE1F66E273E083EA95E00E9433
:102A6000FB1F62960FB6F894DEBF0FBECDBFDF919D
:102A7000CF911F910F91FF90EF90DF90CF90BF907B
:102A8000AF900895EF92FF920F931F93CF93DF9330
:102A90001F92CDB7DEB77C01FC0100811181C80116
:102AA00069830E9495246981681719F0C8010E9402
:102AB0009D24C7010F90DF91CF911F910F91FF903F
:102AC000EF900895CF92DF92EF92FF920F931F93B2
:102AD000CF93DF93EC011D8963E671E083EA95E013
:102AE0000E94CB1F4AE050E0612F83EA95E00E94EC
:102AF000BB200C811D81EA80FB80C880D98065E500
:102B000071E083EA95E00E94CB1F4AE050E0B601F5
:102B100083EA95E00E94C2206BE571E083EA95E0CC
:102B20000E94CB1F4AE050E0B70183EA95E00E9483
:102B3000C2206FE571E083EA95E00E94CB1F4AE076
:102B400050E0B80183EA95E00E94C2200C851D8503
:102B5000EE80FF806AE471E083EA95E00E94CB1F7B
:102B60004AE050E0B70183EA95E00E94C22060E5A8
:102B700071E083EA95E00E94CB1F4AE050E0B80183
:102B800083EA95E00E94C22063E571E083EA95E064
:102B90000E94CB1F0E851F85E884F9846FE371E0E6
:102BA00083EA95E00E94CB1F4AE050E0B70183EA38
:102BB00095E00E94C22065E471E083EA95E00E94FE
:102BC000CB1F4AE050E0B80183EA95E00E94C220A2
:102BD00068E471E083EA95E00E94CB1F08891989B7
:102BE0000A84DB85C02D64E371E083EA95E00E94EE
:102BF000CB1F4AE050E0BE0183EA95E00E94C2206C
:102C00006AE371E083EA95E00E94CB1F4AE050E05E
:102C1000B80183EA95E00E94C2206DE371E083EA87
:102C200095E00E94CB1F83EA95E0DF91CF911F9141
:102C30000F91FF90EF90DF90CF900C94F71F0F93C0
:102C40001F93CF93DF938C01EB0166E171E083EA80
:102C500095E00E94CB1F4AE050E0BE0183EA95E078
:102C60000E94A62083EA95E00E94F71FF801D38B0B
:102C7000C28BDF91CF911F910F910895AF92BF92B8
:102C8000CF92EF920F931F93CF93DF93CDB7DEB721
:102C90002B970FB6F894DEBF0FBECDBF5C014696F2
:102CA0000E94760B882309F45FC080911A05823157
:102CB00069F4ECE1F5E0D50101900D928A95E1F718
:102CC00080911905F501858B81E057C09091180519
:102CD000F501848998132CC08EE591E09A8389834D
:102CE000808D8B83818D8C83828D8D83838D8E836C
:102CF000848D8F83858D8887868D8987878D8A8748
:102D000080A18B8789E0C82EE12C00917E0510916F
:102D10007F05209180053091810540918205509179
:102D2000830560918405CE0101960E94B6141CC0F3
:102D300080911A05823029F460911C0570911D055F
:102D400010C0809119058E3F79F466E771E083EA3F
:102D500095E00E94CB1F83EA95E00E94F71F62E096
:102D600070E0C5010E941F16F501828993890397BF
:102D700019F481E00E94991480E02B960FB6F89424
:102D8000DEBF0FBECDBFDF91CF911F910F91EF90AE
:102D9000CF90BF90AF900895FC01828993890895E8
:102DA000FC012489E20FF11DE20FF11D7C97808167
:102DB00091810895FC012489E20FF11DE20FF11DBC
:102DC000B297808191810895FC01808191818F3A31
:102DD000954168F0828193818F3A954140F081E07E
:102DE000248135812F3A354118F080E0089581E043
:102DF000089540E35FEE68E08EE795E00E942111C0
:102E00008EE591E090937405809373058AE080933A
:102E1000750582E0809376051092770581E08093B6
:102E20001B05109279058FE180937A0510927B053E
:102E300008959F92AF92BF92CF92DF92EF92FF924E
:102E40000F931F93CF93DF9300D0CDB7DEB77C01F4
:102E5000162F942EA22E9AE2C92ED12C6DEC72E080
:102E600083EA95E00E94CB1F83EA95E00E94F71F5A
:102E70001F3FC9F48AE290E00E949524B82EF70122
:102E8000848B6BEA72E083EA95E00E94CB1F4AE0F4
:102E900050E06B2D83EA95E00E94BB2083EA95E029
:102EA0000E94F71F1AC067E872E083EA95E00E946B
:102EB000CB1F4AE050E0612F83EA95E00E94BB20DF
:102EC00083EA95E00E94F71FDA82C982612FCE0162
:102ED00001960E944215F701148BF7014489493C81
:102EE00040F16DE572E083EA95E00E94CB1F83EA32
:102EF00095E00E94F71F68E372E083EA95E00E9484
:102F0000CB1F83EA95E00E94F71F83EA95E00E94B9
:102F1000A31D892BD1F341E060E070E083EA95E0E6
:102F20000E943921DA82C982CE0101960E9442159F
:102F300095CF6701F6E1CF0ED11C292D6A2DC60170
:102F40000E94E40D61E0C6010E94AE1061E0C6017E
:102F50000E94E810602FC6010E94D30C8FEF9FEFF4
:102F6000F7019583848393838283918380839387FE
:102F700082879187808797838683918B808B9787C1
:102F80008687958784878CE0858B61E089E00E9445
:102F90000B1D60E089E00E94441D61E070E0C70104
:102FA0000E941F1668E172E083EA95E00E94CB1F41
:102FB00083EA95E00E94F71F62EF71E083EA95E0F3
:102FC0000E94CB1F4AE050E068EE83EA95E00E9441
:102FD000BB206EE072E083EA95E00E94CB1F4AE0DE
:102FE00050E06DE170E083EA95E00E94A62083EA5C
:102FF00095E00E94F71F6FEB71E083EA95E00E9475
:10300000CB1F4AE050E065E070E083EA95E00E9463
:10301000A62083EA95E00E94F71FF701148963E96F
:1030200071E083EA95E00E94CB1F4AE050E0612FF7
:1030300083EA95E00E94BB2083EA95E00E94F71F97
:103040000F900F90DF91CF911F910F91FF90EF9014
:10305000DF90CF90BF90AF909F9008958F929F92F6
:10306000AF92BF92EF92FF920F931F93CF93DF9394
:10307000EC01188219821A824423B9F1E0E0F0E0F1
:103080008B010A5F1F4F7B0189E0E80EF11C842E43
:10309000912CA12CB12CD801AE0FBF1F2C91D701C0
:1030A000AE0FBF1F6C912223E1F06623D1F030E018
:1030B00040E050E02F5F3F4F4F4F5F4F70E080E0A8
:1030C00090E06F5F7F4F8F4F9F4F0E9403229B01C5
:1030D000AC01C501B4010E940322DE01AE0FBF1F87
:1030E0008C933196E330F105B1F6CE01DF91CF91AB
:1030F0001F910F91FF90EF90BF90AF909F908F9096
:103100000895CF92DF92EF92FF92CF93DF93EC017D
:103110008091890590918A059C012F5F3F4F3093E4
:103120008A0520938905861797079CF10E94211C28
:103130009B01AC01E0918905F0918A0588EE93E04E
:10314000E89FB001E99F700DF89F700D112488274A
:1031500077FD8095982FC0908505D0908605E090EA
:103160008705F09088052C193D094E095F090E94DA
:103170003B223A83298310928A05109289050E9486
:10318000211C609385057093860580938705909335
:103190008805DF91CF91FF90EF90DF90CF90089559
:1031A000AF92BF92CF92DF92EF92FF920F931F9355
:1031B000CF93DF9300D01F92CDB7DEB78C01B62E30
:1031C000F80183819481A581B681892B8A2B8B2B71
:1031D000D1F00E942D1CC0908B05D0908C05E09002
:1031E0008D05F0908E056C197D098E099F09D80117
:1031F0001396CD90DD90ED90FC9016976C157D05A3
:103200008E059F05E8F20E942D1C60938B0570933C
:103210008C0580938D0590938E05E0909105F0903C
:103220009205E114F10451F1F701A484D80111963B
:103230008D919C9112978436910508F41486D701DC
:10324000ED91FC91C280D3804B2DB701CE01019648
:103250000E942E18F70145855685628173819E0173
:103260002F5F3F4FC701F6010995D7011C96AC921D
:103270001C971496ED90FC901597D3CF69E170E000
:10328000C8010E9481180F900F900F90DF91CF918D
:103290001F910F91FF90EF90DF90CF90BF90AF9074
:1032A0000895CF92DF92EF92FF920F931F93CF93E7
:1032B000DF93EC014423F1F06115710581F19B016D
:1032C00040E050E060E472E48FE090E00E945D2214
:1032D000CB80DC80ED80FE8089019A010C151D05F4
:1032E0002E053F0510F4970186010B831C832D8367
:1032F0003E8315C06115710571F09B0140E050E0FF
:1033000060E472E48FE090E00E945D222B833C83B6
:103310004D835E8304C01B821C821D821E82DF914E
:10332000CF911F910F91FF90EF90DF90CF90089574
:10333000CF92DF92EF92FF920F931F93CF93DF9381
:10334000EC016B018A017901121613061CF07A0157
:1033500000E010E0E881F9810480F581E02DCE01E4
:103360000995C801880F991F800F911F8C0D9D1D15
:103370009B838A83FE86ED86E881F9810084F1854E
:10338000E02DCE01099541E0BC0183E995E00E9462
:103390005119CE01DF91CF911F910F91FF90EF90C6
:1033A000DF90CF9008958FEF80939305109295054D
:1033B00010929405089511240895CF93DF93EC01A2
:1033C0002881269F212D28832981269F212D29832D
:1033D0002A81269F212D2A830E94DB19CE01DF91AD
:1033E000CF910895FA0120E030E0039626173707C1
:1033F0006CF44081DC0113974C93418111964C93FE
:10340000428111964C932F5F3F4FEFCF0895CF929B
:10341000DF92EF92FF920F931F93CF93DF931F9250
:10342000CDB7DEB77B018C01C12CD12CCE14DF04CB
:1034300061F0642FC80149830E94DD198FEFC81A1B
:10344000D80A0D5F1F4F4981F1CF0F90DF91CF91C7
:103450001F910F91FF90EF90DF90CF9008954095CE
:103460000C94071AFC012081222321F0269F212D94
:1034700009F02F5FFC0120830895FF920F931F93A3
:10348000CF93DF9300D000D0CDB7DEB7FC018B0126
:103490004081F1805281842F8F71880F880F880FAF
:1034A000282F35E5239F212D1124342F3074942F9C
:1034B000907247FD25C031110EC0911106C0822FB8
:1034C00080958B832A8319823FC08BEA8B832B5A8A
:1034D0002A83198239C091110DC0382F4AEA349FCE
:1034E000312D11249BEA931B9B8325552A83198236
:1034F00080E02AC01B8280E0822F80958A8312C0E0
:10350000311112C091110BC01B82282F3AEA239F60
:10351000212D11248BEA821B8A832B5A03C02B8313
:103520001A822095298310C0911106C085E5820F6B
:103530008B831A828BEA06C08BEA820F8B831A82F6
:1035400080E085E5821B89832FEFF21601F16F2D54
:10355000CE0103965C830E94321A6F2DCE01029633
:103560000E94321A6F2DCE0101960E94321A112448
:103570006F2D6095669F612D11248B81860F8B8343
:103580008A81860F8A838981860F89835C815F3F68
:10359000C9F0F12C2F2D552321F0559F212D09F035
:1035A0002F5FF22E622FCE0103960E94321A6F2DEA
:1035B000CE0102960E94321A6F2DCE0101960E9412
:1035C000321A11248B81F80180838A818183898159
:1035D00082830F900F900F900F90DF91CF911F91EA
:1035E0000F91FF900895FC01118210827383628312
:1035F000158214820895DC01ED91FC91309709F059
:1036000009940895DC011296ED91FC91139730977F
:1036100009F009940895DC011496ED91FC91159739
:10362000309709F009940895FC0181E08083748348
:1036300063837283618315821682178210860895D0
:10364000CF93DF93EC017C836B830E94211C6D83FD
:103650007E838F839887CE01DF91CF9108950F935A
:103660001F93CF93DF93EC018B0189819A810E9494
:103670000B1B1C830B831A830983C8010E94FB1A4E
:103680000E94211C6D837E838F839887CE01DF91FA
:10369000CF911F910F910895CF93DF93EC01288173
:1036A00089819A81222321F00E94FB1A18820CC082
:1036B0006B817C818617970719F0CE010E942F1B22
:1036C00089819A810E94021BCE01DF91CF910895DA
:1036D00008958230E8F4E82FF0E0EE0FFF1FE45F7A
:1036E000FE4F71836083813041F0809169008C7F4F
:1036F000842B80936900E89A089580916900440FB3
:10370000551F440F551F837F842B80936900E99ACE
:1037100008951F920F920FB60F9211242F933F938B
:103720004F935F936F937F938F939F93AF93BF93C9
:10373000EF93FF93E0910C01F0910D010995FF913A
:10374000EF91BF91AF919F918F917F916F915F9119
:103750004F913F912F910F900FBE0F901F90189592
:103760001F920F920FB60F9211242F933F934F93F6
:103770005F936F937F938F939F93AF93BF93EF93D9
:10378000FF93E0910E01F0910F010995FF91EF91E8
:10379000BF91AF919F918F917F916F915F914F9169
:1037A0003F912F910F900FBE0F901F9018951F9271
:1037B0000F920FB60F9211242F933F938F939F93E5
:1037C000AF93BF9380919B0590919C05A0919D051F
:1037D000B0919E0530919A0523E0230F2D3720F4F8
:1037E0000196A11DB11D05C026E8230F0296A11D5B
:1037F000B11D20939A0580939B0590939C05A093FF
:103800009D05B0939E0580919F059091A005A09184
:10381000A105B091A2050196A11DB11D80939F0540
:103820009093A005A093A105B093A205BF91AF917D
:103830009F918F913F912F910F900FBE0F901F90EE
:1038400018952FB7F89460919B0570919C05809115
:103850009D0590919E052FBF08953FB7F8948091E4
:103860009F059091A005A091A105B091A20526B554
:10387000A89B05C02F3F19F00196A11DB11D3FBFA8
:103880006627782F892F9A2F620F711D811D911D38
:1038900042E0660F771F881F991F4A95D1F7089558
:1038A0008F929F92AF92BF92CF92DF92EF92FF9250
:1038B0006B017C010E942D1C4B015C01C114D104E1
:1038C000E104F104F1F00E9402220E942D1C68190B
:1038D00079098A099B09683E73408105910570F357
:1038E00021E0C21AD108E108F10888EE880E83E0D1
:1038F000981EA11CB11CC114D104E104F10429F7E4
:10390000DDCFFF90EF90DF90CF90BF90AF909F9072
:103910008F900895789484B5826084BD84B5816069
:1039200084BD85B5826085BD85B5816085BDEEE6C7
:10393000F0E0808181608083E1E8F0E010828081A6
:1039400082608083808181608083E0E8F0E0808114
:1039500081608083E1EBF0E0808184608083E0EB34
:10396000F0E0808181608083EAE7F0E0808184601C
:103970008083808182608083808181608083808178
:10398000806880831092C10008958E3008F08E50B8
:1039900087702091100190E4299F90011124822BBF
:1039A00080937C0080917A00806480937A0080917B
:1039B0007A0086FDFCCF809178002091790090E01C
:1039C000922B0895833081F028F4813099F0823071
:1039D000A1F008958730A9F08830B9F08430D1F48F
:1039E000809180008F7D03C0809180008F778093CD
:1039F0008000089584B58F7702C084B58F7D84BD23
:103A000008958091B0008F7703C08091B0008F7DC2
:103A10008093B0000895CF93DF9390E0FC01ED50C8
:103A2000FD4F2491FC01E95FFC4F8491882349F10B
:103A300090E0880F991FFC01E15DFC4FA591B491C6
:103A40008B5D9C4FFC01C591D4919FB7611108C05B
:103A5000F8948C91209582238C93888182230AC0CC
:103A6000623051F4F8948C91322F309583238C93EB
:103A70008881822B888304C0F8948C91822B8C934C
:103A80009FBFDF91CF9108950F931F93CF93DF9343
:103A90001F92CDB7DEB7282F30E0F901E152FD4F7C
:103AA0008491F901ED50FD4F1491F901E95FFC4F4C
:103AB00004910023C9F0882321F069830E94E21C4D
:103AC0006981E02FF0E0EE0FFF1FEB5DFC4FA59149
:103AD000B4919FB7F8948C91611103C01095812324
:103AE00001C0812B8C939FBF0F90DF91CF911F91CD
:103AF0000F910895CF93DF93282F30E0F901E15221
:103B0000FD4F8491F901ED50FD4FD491F901E95F2A
:103B1000FC4FC491CC2391F081110E94E21CEC2F48
:103B2000F0E0EE0FFF1FE55EFC4FA591B4912C91E4
:103B30002D2381E090E021F480E002C080E090E05D
:103B4000DF91CF910895FC01818D228D90E0805C02
:103B50009F4F821B91098F7399270895FC01918DC6
:103B6000828D981731F0828DE80FF11D858D90E0E0
:103B700008958FEF9FEF0895FC01918D828D981726
:103B800061F0828DDF01A80FB11D5D968C91928D41
:103B90009F5F9F73928F90E008958FEF9FEF08953E
:103BA00080E49FE1892B49F080E090E0892B29F0A7
:103BB0000E94401F81110C9400000895FC01848D27
:103BC000DF01A80FB11DA35ABF4F2C91848D90E047
:103BD00001968F739927848FA689B7892C93A08922
:103BE000B1898C9180648C93938D848D981306C0D9
:103BF0000288F389E02D80818F7D80830895CF93A3
:103C0000DF93EC01888D8823C9F0EA89FB898081E4
:103C100085FD05C0A889B9898C9186FD0FC00FB6B6
:103C200007FCF5CF808185FFF2CFA889B9898C91F7
:103C300085FFEDCFCE010E94DE1DE7CFDF91CF9152
:103C40000895CF92DF92FF920F931F93CF93DF934C
:103C50001F92CDB7DEB76C0181E0D60158968C93E8
:103C600058975B969C915B975C968C915C979813A8
:103C700007C05096ED91FC915197808185FD2EC033
:103C8000F601038D10E00F5F1F4F0F731127F02E09
:103C9000F601848DF81211C00FB607FCF9CFD601DA
:103CA0005096ED91FC915197808185FFF1CFC6012F
:103CB00069830E94DE1D6981EBCF838DE80FF11DC2
:103CC000E35AFF4F6083D6015B960C935B97529645
:103CD000ED91FC915397808180620CC0D60156967D
:103CE000ED91FC91579760835096ED91FC9151971F
:103CF00080818064808381E090E00F90DF91CF919C
:103D00001F910F91FF90DF90CF900895BF92CF92B7
:103D1000DF92EF92FF92CF93DF93EC016A017B0178
:103D2000B22EE889F98982E08083411581EE580737
:103D300061057105A1F060E079E08DE390E0A701F5
:103D400096010E943B2221503109410951095695A3
:103D5000479537952795211580E1380798F0E88930
:103D6000F989108260E874E88EE190E0A70196017D
:103D70000E943B222150310941095109569547952E
:103D800037952795EC85FD853083EE85FF8520836B
:103D9000188EEC89FD89B082EA89FB898081806177
:103DA0008083EA89FB89808188608083EA89FB8936
:103DB000808180688083EA89FB8980818F7D808310
:103DC000DF91CF91FF90EF90DF90CF90BF9008955B
:103DD0001F920F920FB60F9211242F938F939F93E0
:103DE000EF93FF93E091B305F091B4058081E091EA
:103DF000B905F091BA0582FD12C090818091BC0591
:103E00008F5F8F732091BD05821751F0E091BC0543
:103E1000F0E0ED55FA4F958F8093BC0501C080818D
:103E2000FF91EF919F918F912F910F900FBE0F9067
:103E30001F9018951F920F920FB60F9211242F9377
:103E40003F934F935F936F937F938F939F93AF9322
:103E5000BF93EF93FF9383EA95E00E94DE1DFF91ED
:103E6000EF91BF91AF919F918F917F916F915F91F2
:103E70004F913F912F910F900FBE0F901F9018956B
:103E800083EA95E00E94A31D21E0892B09F420E03C
:103E9000822F08951092A6051092A50588EE93E052
:103EA000A0E0B0E08093A7059093A805A093A90592
:103EB000B093AA058FE293E09093A4058093A305A5
:103EC00085EC90E09093B0058093AF0584EC90E092
:103ED0009093B2058093B10580EC90E09093B40587
:103EE0008093B30581EC90E09093B6058093B5057F
:103EF00082EC90E09093B8058093B70586EC90E053
:103F00009093BA058093B9051092BC051092BD0537
:103F10001092BE051092BF050895CF92DF92EF92E6
:103F2000FF920F931F93CF93DF937C016A01EB0104
:103F300000E010E00C151D0571F06991D701ED91BD
:103F4000FC910190F081E02DC7010995892B19F0B2
:103F50000F5F1F4FEFCFC801DF91CF911F910F91DE
:103F6000FF90EF90DF90CF9008956115710581F07B
:103F7000DB010D900020E9F7AD0141505109461BCE
:103F8000570BDC01ED91FC910280F381E02D099447
:103F900080E090E00895EF92FF920F931F93CF93EC
:103FA000DF938C017B01C0E0D0E0F701EC0FFD1F37
:103FB0006491662359F0F801A081B181ED91FC91E3
:103FC000C8010995892B11F02196EFCFCE01DF9121
:103FD000CF911F910F91FF90EF9008950C94B51F12
:103FE000DC01ED91FC910190F081E02D09946BE3EF
:103FF00073E00C94B51F0F931F93CF93DF93EC01E5
:104000000E94B51F8C01CE010E94F71F800F911FE7
:10401000DF91CF911F910F9108958F929F92AF9250
:10402000BF92DF92EF92FF920F931F93CF93DF9394
:10403000CDB7DEB7A1970FB6F894DEBF0FBECDBFE8
:104040007C01F42FD52ECB0119A2223008F42AE0EE
:104050008E010F5D1F4F822E912CA12CB12C6F2F42
:104060007D2DA50194010E943B22F22FD32ECA017F
:10407000015011096A3014F4E0E301C0E7E3E60FF0
:10408000D801EC93232B242B252B49F7B801C7012A
:104090000E94B51FA1960FB6F894DEBF0FBECDBF2C
:1040A000DF91CF911F910F91FF90EF90DF90BF9024
:1040B000AF909F908F900895CF92DF92EF92FF92F2
:1040C0000F931F93CF93DF93EC016A017B012115BE
:1040D000310579F4E881F9810190F081E02D642FB8
:1040E000DF91CF911F910F91FF90EF90DF90CF90D4
:1040F00009942A303105E9F477FF1AC06DE20E9475
:10410000F01F8C0144275527BA014C195D096E092F
:104110007F092AE0CE010E940D20800F911FDF91C0
:10412000CF911F910F91FF90EF90DF90CF90089566
:104130002AE0B701A601CE01DF91CF911F910F9127
:10414000FF90EF90DF90CF900C940D209A01AB017F
:10415000662757FD6095762F0C945C20211531055C
:1041600041F4DC01ED91FC910190F081E02D642F90
:1041700009940C940D209A01462F50E060E070E005
:104180000C94AE209A01AB0160E070E00C94AE207C
:104190000F931F93CF93DF93EC010E94211C68873C
:1041A00079878A879B87E881F9810084F185E02DF2
:1041B000CE01099597FF15C00E94211C088519851D
:1041C0002A853B85601B710B820B930B0C811D8133
:1041D0002E813F81601771078207930720F38FEFCD
:1041E0009FEFDF91CF911F910F910895FF920F9351
:1041F0001F93CF93DF93EC018B01F42ECE010E942D
:10420000C8209C0197FD28C08D32910519F1C097F7
:104210000A9710F1FF2019F02E323105F9F0013024
:104220001105F9F00230110569F42D30310551F016
:1042300034F4295031092230310520F012C02032E7
:10424000310579F4E881F9810680F781E02DCE010E
:104250000995D4CF8DE203C0C90105C08EE290E07C
:1042600002C08FEF9FEFDF91CF911F910F91FF90D1
:104270000895CF92DF92FF920F931F93CF93DF9316
:1042800000D000D0CDB7DEB76C01042F40E00E9413
:10429000F620FC0197FD4BC020E030E0A901F12C95
:1042A000112707FD1095E017F107E9F0ED32F10550
:1042B000C1F0CF01C0970A97B0F4AAE0B0E00E9425
:1042C0008B229B01AC01CF01AA2797FDA095BA2FA5
:1042D000280F391F4A1F5B1F20533109410951091B
:1042E00002C0FF24F394D601ED91FC910680F78182
:1042F000E02DC60129833A834B835C830995C6016F
:104300000E94C820FC01C09729813A814B815C81C1
:104310000A9748F2E017F10731F2FF2061F06627B3
:104320007727CB01621B730B840B950B06C060E0F3
:1043300070E0CB0102C0CA01B9010F900F900F903D
:104340000F90DF91CF911F910F91FF90DF90CF9051
:1043500008954F925F926F927F92AF92BF92CF92E9
:10436000DF92EF92FF920F931F93CF93DF93CDB71E
:10437000DEB729013A01621B730B840B950B298967
:104380003A894B895C892A193B094C095D09298BBB
:104390003A8B4B8B5C8B9B01AC0169897A898B8949
:1043A0009C890E940322E418F50806091709A80150
:1043B00097010E945D222A0D3B1D4C1D5D1DCA0107
:1043C000B901DF91CF911F910F91FF90EF90DF9096
:1043D000CF90BF90AF907F906F905F904F90089577
:1043E0000E949C2208950E948A1C0E94F2210E9431
:1043F0008C0AC0EDDDE10E94C90A2097E1F30E941A
:10440000D01DF9CF0895DB018F939F930E948B22DB
:10441000BF91AF91A29F800D911DA39F900DB29F60
:10442000900D11240895AA1BBB1B51E107C0AA1FC0
:10443000BB1FA617B70710F0A61BB70B881F991F45
:104440005A95A9F780959095BC01CD01089597FBE9
:10445000072E16F4009407D077FD09D00E9413228E
:1044600007FC05D03EF4909581959F4F0895709577
:1044700061957F4F0895A1E21A2EAA1BBB1BFD0177
:104480000DC0AA1FBB1FEE1FFF1FA217B307E40733
:10449000F50720F0A21BB30BE40BF50B661F771F8B
:1044A000881F991F1A9469F760957095809590956B
:1044B0009B01AC01BD01CF010895052E97FB1EF4B1
:1044C00000940E94742257FD07D00E943B2207FCF3
:1044D00003D04EF40C94742250954095309521955C
:1044E0003F4F4F4F5F4F0895909580957095619520
:1044F0007F4F8F4F9F4F0895A29FB001B39FC00180
:10450000A39F700D811D1124911DB29F700D811DFF
:104510001124911D08950E947C22A59F900DB49FA7
:10452000900DA49F800D911D11240895EE0FFF1F83
:104530000590F491E02D099481E090E0F8940C94BA
:104540008825AEE0B0E0E7EAF2E20C945F250D8941
:104550001E8986E08C831A8309838FEF9FE79E83F1
:104560008D83AE01475E5F4F6F89788DCE010196D6
:104570000E94C322EF81F885E00FF11F10822E9672
:10458000E4E00C947B25ACE0B0E0E9ECF2E20C94C2
:1045900051257C016B018A01FC01178216828381FF
:1045A00081FFBDC1CE0101964C01F7019381F60157
:1045B00093FD859193FF81916F01882309F4ABC12D
:1045C000853239F493FD859193FF81916F01853296
:1045D00029F4B70190E00E94C124E7CF512C312C7F
:1045E00020E02032A0F48B3269F030F4803259F0B0
:1045F000833269F420612CC08D3239F0803339F474
:10460000216026C02260246023C0286021C027FDCD
:1046100027C030ED380F3A3078F426FF06C0FAE0B4
:104620005F9E300D1124532E13C08AE0389E300D4A
:104630001124332E20620CC08E3221F426FD6BC172
:10464000206406C08C3611F4206802C0883641F41C
:10465000F60193FD859193FF81916F018111C1CF87
:10466000982F9F7D9554933028F40C5F1F4FFFE3E4
:10467000F9830DC0833631F0833771F0833509F04B
:104680005BC022C0F801808189830E5F1F4F4424E4
:104690004394512C540115C03801F2E06F0E711C87
:1046A000F801A080B18026FF03C0652D70E002C034
:1046B0006FEF7FEFC5012C870E94B6242C01830188
:1046C0002C852F77222E17C03801F2E06F0E711C57
:1046D000F801A080B18026FF03C0652D70E002C004
:1046E0006FEF7FEFC5012C870E94AB242C012C8536
:1046F0002068222E830123FC1BC0832D90E04816E6
:104700005906B0F4B70180E290E00E94C1243A94C7
:10471000F4CFF50127FC859127FE81915F01B70158
:1047200090E00E94C12431103A94F1E04F1A5108F0
:104730004114510471F7E5C0843611F0893639F51A
:10474000F80127FF07C060817181828193810C5F2E
:104750001F4F08C060817181882777FD8095982F51
:104760000E5F1F4F2F76B22E97FF09C09095809550
:10477000709561957F4F8F4F9F4F2068B22E2AE032
:1047800030E0A4010E94F324A82EA81844C0853765
:1047900029F42F7EB22E2AE030E025C0F22FF97FD7
:1047A000BF2E8F36C1F018F4883579F0B4C0803749
:1047B00019F0883721F0AFC02F2F2061B22EB4FE40
:1047C0000DC08B2D8460B82E09C024FF0AC09F2F16
:1047D0009660B92E06C028E030E005C020E130E048
:1047E00002C020E132E0F801B7FE07C060817181AC
:1047F000828193810C5F1F4F06C06081718180E0D0
:1048000090E00E5F1F4FA4010E94F324A82EA81869
:10481000FB2DFF77BF2EB6FE0BC02B2D2E7FA514D0
:1048200050F4B4FE0AC0B2FC08C02B2D2E7E05C089
:104830007A2C2B2D03C07A2C01C0752C24FF0DC0BF
:10484000FE01EA0DF11D8081803311F4297E09C03B
:1048500022FF06C07394739404C0822F867809F0F7
:10486000739423FD13C020FF06C05A2C731418F450
:10487000530C5718732C731468F4B70180E290E05E
:104880002C870E94C12473942C85F5CF731410F4E7
:10489000371801C0312C24FF12C0B70180E390E02B
:1048A0002C870E94C1242C8522FF17C021FF03C042
:1048B00088E590E002C088E790E0B7010CC0822F45
:1048C000867859F021FD02C080E201C08BE227FD0D
:1048D0008DE2B70190E00E94C124A51438F4B7011D
:1048E00080E390E00E94C1245A94F7CFAA94F40187
:1048F000EA0DF11D8081B70190E00E94C124A11052
:10490000F5CF332009F451CEB70180E290E00E9448
:10491000C1243A94F6CFF7018681978102C08FEFC8
:104920009FEF2C96E2E10C946D25F999FECF92BD94
:1049300081BDF89A992780B50895262FF999FECF61
:104940001FBA92BD81BD20BD0FB6F894FA9AF99AAC
:104950000FBE01960895FC01059061507040011052
:10496000D8F7809590958E0F9F1F0895FC01615098
:10497000704001900110D8F7809590958E0F9F1F81
:1049800008950F931F93CF93DF93182F092FEB01F7
:104990008B8181FD03C08FEF9FEF20C082FF10C08D
:1049A0004E815F812C813D81421753077CF4E88161
:1049B000F9819F012F5F3F4F39832883108306C001
:1049C000E885F985812F0995892B29F72E813F816B
:1049D0002F5F3F4F3F832E83812F902FDF91CF9109
:1049E0001F910F910895FA01AA27283051F1203123
:1049F00081F1E8946F936E7F6E5F7F4F8F4F9F4F73
:104A0000AF4FB1E03ED0B4E03CD0670F781F891FB4
:104A10009A1FA11D680F791F8A1F911DA11D6A0F82
:104A2000711D811D911DA11D20D009F468943F9135
:104A30002AE0269F11243019305D3193DEF6CF0134
:104A40000895462F4770405D4193B3E00FD0C9F7FA
:104A5000F6CF462F4F70405D4A3318F0495D31FD67
:104A60004052419302D0A9F7EACFB4E0A6959795BA
:104A7000879577956795BA95C9F700976105710590
:104A800008959B01AC010A2E0694579547953795DA
:104A90002795BA95C9F7620F731F841F951FA01D34
:104AA00008952F923F924F925F926F927F928F92D2
:104AB0009F92AF92BF92CF92DF92EF92FF920F93AD
:104AC0001F93CF93DF93CDB7DEB7CA1BDB0B0FB6B7
:104AD000F894DEBF0FBECDBF09942A883988488874
:104AE0005F846E847D848C849B84AA84B984C8840A
:104AF000DF80EE80FD800C811B81AA81B981CE0F01
:104B0000D11D0FB6F894DEBF0FBECDBFED010895E5
:044B1000F894FFCF47
:104B1400000040068000010000003905681B681B86
:104B24000100003100F9183000FB302C001C47262E
:104B340000825A1F006D6A170041760E00897D04B9
:104B440000000000F021F021F021F021CB01000051
:104B540000001207F1080106F201CB010000000079
:104B6400AD074808E205CE01CB01000000000110AA
:104B7400BF0B760B4E10AE10D30C4F0F450BED0C44
:104B84006E0D640CCE10600B510B464C583F454FD4
:104B94004600464C583F0048616E647368616B651B
:104BA400206661696C00464C583A25753A00464CBB
:104BB400583F4F4B202841434B2073656E742900A6
:104BC400464C58494D473A00726164696F205B0056
:104BD4005D203E2000464C583A25753A4F4B00461E
:104BE4004C583F4F4B20726573656E6400494D47C6
:104BF40020657863656564732033316B2C2072659E
:104C0400667573696E6720697400464C583F4E4F51
:104C14004B0052465458203E2000524641434B20FC
:104C24003E200054696D656F7574207761697469FD
:104C34006E6720666F72207061636B6574204143F8
:104C44004B2C2061626F7274696E6720464C41532D
:104C540048206F7065726174696F6E202E2E2E006D
:104C6400464C583A494E560054696D656F75742028
:104C7400726563656976696E6720464C41534820C6
:104C8400696D6167652066726F6D205345524941B5
:104C94004C2C2061626F7274696E672E2E2E000A8E
:104CA400464C583F4F4B00464C41534820494D47D2
:104CB400205452414E534D495353494F4E2053555E
:104CC400434345535300464C41534820494D4720E4
:104CD4005452414E534D495353494F4E2046414936
:104CE4004C005245424F4F54494E4700464C4153A5
:104CF4004820494D47205452414E534D495353493E
:104D04004F4E2053554343455353210A0054696D74
:104D1400656F75742F4572726F722C2065726173A2
:104D2400696E67207772697474656E20646174615A
:104D3400202E2E2E2000444F4E450000000000215E
:104D44001E8D1FA31DBC1DAE1DFF1D0D0A006E612F
:0A4D54006E00696E66006F7666005F
:00000001FF
