:100000000C94AF010C9460120C9487120C94D701DD
:100010000C94D7010C94D7010C94D7010C94D70100
:100020000C94D7010C94D7010C94D7010C94D701F0
:100030000C94D7010C94D7010C94D7010C94D701E0
:100040000C94AE120C94D7010C94CE150C9400169F
:100050000C94D7010C94D7010C94D7010C94D701C0
:100060000C94D7010C94D7014C6F636174696F6E67
:100070002E202063616C6962726174656420726114
:100080006E67652066696E6465722E004C6F6361F1
:1000900074696F6E2E202063616C6962726174698D
:1000A0006E672072616E67652066696E6465722E88
:1000B0002E2E004C6F636174696F6E2E2064656C28
:1000C000617920666F722063616C69627261746924
:1000D0006F6E004C6F636174696F6E2E20207374B5
:1000E0006F72696E672064697374616E63652069FD
:1000F0006E666F726D6174696F6E20696E206D65DA
:1001000073737361676520696E6465783D004C6F39
:10011000636174696F6E2E20737461727475702ED2
:1001200000524553454E443A200054583A2000525C
:10013000583A20002E004E6574776F726B2E207334
:10014000657474696E672073797374656D53746137
:1001500074653D00097020323D002D20007C0009AF
:100160007020313D002D20007C00097020303D00C2
:100170002D20007C00096420303D0020313D00200E
:10018000323D004E6574776F726B2E204D534720C1
:1001900066726F6D20004E6574776F726B2E205003
:1001A000726F6772616D6D657220747261666669E7
:1001B000632E004E6574776F726B2E2073746172BC
:1001C00074757020636F6D706C65746520776974E9
:1001D00068206E6F6465206E756D6265723D004EBD
:1001E0006574776F726B2E20617070726F78696DB5
:1001F000617465207061636B6574207472616E73E5
:100200006D697373696F6E2074696D65286D7329EC
:100210003D004E6574776F726B2E207061636B6565
:10022000742073697A652862697473293D002028F7
:100230006279746573293D004E6574776F726B2E19
:10024000206269747261746528626974732F7329FE
:100250003D35353535352E00456E74657220746830
:1002600065206E6F6465206E756D62657220666FC5
:10027000722074686973206E6F64653A004E65740D
:10028000776F726B2E204552524F52206E6F206E48
:100290006F6465494420666F756E6420696E204501
:1002A0004550524F4D21004E6574776F726B2E2072
:1002B0002077726974696E67206E6F6465494420A7
:1002C000746F20454550524F4D3D004E6574776F19
:1002D000726B2E2072656164206E6F6465494420E4
:1002E00066726F6D20454550524F4D3D004E65740E
:1002F000776F726B2E20737461727475702E0000AC
:1003000000000800020100000304070000000000D4
:1003100000000001020408102040800102040810BF
:10032000200102040810200404040404040404024C
:10033000020202020203030303030300000000237E
:10034000002600290000000000250028002B0000E6
:10035000000000240027002A00000A113016112492
:100360001FBECFEFD8E0DEBFCDBF12E0A0E0B1E00E
:10037000E6EBF7E302C005900D92AA3FB107D9F76B
:1003800024E0AAEFB2E001C01D92AC34B207E1F75D
:1003900013E0CEE5D3E004C02297FE010E94EE18E0
:1003A000CA35D107C9F70E9490180C94D91B0C9438
:1003B0000000CF92DF92EF92FF920F931F93E82FEE
:1003C000F92F05C0015011092109310961F190810E
:1003D00096239417B9F305C0015011092109310979
:1003E00011F1908196239413F7CFC12CD12CE12CDD
:1003F000F12C0AC08FEFC81AD80AE80AF80A0C15BF
:100400001D052E053F0579F080818623841791F321
:100410006C2D7D2D8E2D9F2D1F910F91FF90EF90B4
:10042000DF90CF90089560E070E080E090E01F9151
:100430000F91FF90EF90DF90CF900895CF93DF93CF
:10044000EC016CE870E08FEA93E00E94B1168FEA4D
:1004500093E00E94DD1660E084E00E94FE1361E0FC
:1004600086E00E94FE1364E670E080E090E00E9467
:10047000271361E084E00E94FE1368EC70E080E0E6
:1004800090E00E94271360E086E00E94FE1362E382
:1004900070E080E090E00E94271368E670E08FEA49
:1004A00093E00E94B1168FEA93E00E94DD1681E08E
:1004B0008983DF91CF910895EF92FF920F931F935D
:1004C000CF93DF9300D000D0CDB7DEB77C018B0196
:1004D000FC018181811103C0C7010E941E0261E0FD
:1004E00086E00E94FE1320E432E44FE050E061E039
:1004F00087E00E945D149B01AC0160E086E02983E7
:100500003A834B835C830E94FE13F701808178015C
:10051000E80EF11CE80EF11CA4E6B0E029813A8156
:100520004B815C810E94E11823E930E040E050E01B
:100530000E94B018F701318320830F900F900F9025
:100540000F90DF91CF911F910F91FF90EF90089541
:100550001F93CF93DF93EC016EE071E08FEA93E09D
:100560000E94B1168FEA93E00E94DD1660E083E0FE
:100570000E94FE1361E083E00E94C51360E087E003
:100580000E94C51360E086E00E94FE1361E086E0F1
:100590000E94C51361E084E00E94FE1361E084E0E4
:1005A0000E94C5138EE793E00E946F0F16EF180F9D
:1005B000188363ED70E08FEA93E00E94B1164AE081
:1005C00050E0612F8FEA93E00E94A1178FEA93E039
:1005D0000E94DD1663EB70E08FEA93E00E94B11693
:1005E0008FEA93E00E94DD16288130E0A8EEB3E0A8
:1005F0000E94D2180E942713CE010E941E0286E993
:1006000099E19F838E839D838C839B838A83DF9173
:10061000CF911F9108958F929F92AF92BF92CF92E8
:10062000DF92EF92FF920F931F93CB01BA01480123
:1006300059019B01AC010E94A0186B017C01A5012E
:100640009401C501B4010E94A018C61AD70AE80A8D
:10065000F90A8CEFC81A85E3D80A8AE9E80A8CEF10
:10066000F80AC701B6012CEF3AE340E050E00E94DF
:10067000B0182F378DE138074105510520F02EE7DE
:100680003DE140E050E0C9011F910F91FF90EF90D4
:10069000DF90CF90BF90AF909F908F9008952F9252
:1006A0003F924F925F926F927F928F929F92AF9202
:1006B000BF92CF92DF92EF92FF920F931F93CF934F
:1006C000DF931C01EB018880998051EB851654E083
:1006D0009506A8F48FEB9EE09F838E8386EE94E1CF
:1006E0009D878C8788E592E0998788879F878E878A
:1006F00026E23BE13B872A87998B888B6CC0CA80B6
:10070000DB8061EBC61664E0D606A8F48FEB9EE0B2
:100710009987888786EE94E19F878E8788E592E0A7
:100720009B878A87998B888B26E23BE13F832E83C8
:100730009D878C8750C04C805D8071EB471674E0BC
:100740005706A8F48FEB9EE09B878A8786EE94E19C
:10075000998B888B88E592E09F838E839D878C8719
:1007600026E23BE1398728879F878E8734C0E12CBA
:10077000F12C612C712C97018601B301A2010E941A
:100780000B039F838E83A12CB12C93018201B501B1
:10079000A401C1010E940B039987888795018401F8
:1007A000B701A601C1010E940B039B878A8740E025
:1007B00026E939E189919991863959E1950730F413
:1007C000B901681B790B7B876A8702C01B861A8672
:1007D0004F5F433079F7DF91CF911F910F91FF90D9
:1007E000EF90DF90CF90BF90AF909F908F907F90D1
:1007F0006F905F904F903F902F9008950F93CF93FD
:10080000DF93CDB7DEB728970FB6F894DEBF0FBEE3
:10081000CDBF26E040E052EC61E070E08FEA93E06B
:100820000E946C150FE12BE54DE96FEF8EE793E029
:100830000E942A1148EE53E060E070E0CE0101967C
:100840000E94FA04CE0101960E940005811105C0A4
:100850008EE793E00E944E10F5CF8EE793E00E9462
:100860006F0F682F8AEF92E00E94A80228960FB6B9
:10087000F894DEBF0FBECDBFDF91CF910F910895E9
:1008800080912A0381110BC048EE53E060E070E0D4
:1008900082E193E00E94FA0481E080932A0382E1DE
:1008A00093E00E940005882331F064E371E08FEA51
:1008B00093E00E94B1168091220381110BC044E69F
:1008C00050E060E070E08AE093E00E94FA0481E08A
:1008D000809322038EE793E00E944E10882371F0EC
:1008E0006FE271E08FEA93E00E94B1168EE793E029
:1008F0000E94720F8AE093E00E9446058EE793E023
:100900000E94DC10882309F44CC061E089E00E9459
:10091000FE1380911A0381110BC040E65AEE60E08D
:1009200070E082E093E00E94FA0481E080931A0371
:1009300082E093E00E9400058823A9F080917E0365
:1009400090917F03863A934671F480918003909151
:100950008103863A934639F4809182039091830310
:10096000863A934659F16EE773E08AEF92E00E946F
:100970005C026EE773E08AEF92E00E944F038EE71D
:1009800093E00E94F2106AE271E08FEA93E00E9425
:10099000B1168EE793E00E94720F60E089E00E943A
:1009A000FE138EE793E00E94EB10882311F18AE09A
:1009B00093E00E940005811106C008958AEF92E03D
:1009C0000E941E02D0CF61E089E00E94FE138EE7F4
:1009D00093E00E94F21061E271E08FEA93E00E94DE
:1009E000B1168EE793E00E94720F60E089E00C94EC
:1009F000FE130895FC01448355836683778308952D
:100A00008F929F92AF92BF92CF92DF92EF92FF921E
:100A10000F931F93CF93DF93EC010E94F8128C8009
:100A20009D80AE80BF8081149104A104B10429F49B
:100A3000688379838A839B8319C0088119812A81FD
:100A40003B816B017C01C01AD10AE20AF30AC81487
:100A5000D904EA04FB0460F0B901A801480D591D4E
:100A60006A1D7B1D488359836A837B8381E001C0B3
:100A700080E0DF91CF911F910F91FF90EF90DF9079
:100A8000CF90BF90AF909F908F900895CF93DF93BA
:100A9000EC010E94F812688379838A839B83DF913B
:100AA000CF91089508958091320390913303DC0132
:100AB000ED91FC910484F585E02D0994CF93DF93AB
:100AC000EC0161E08A810E94FE1389858CBD8A85D4
:100AD0008DBD7894DF91CF910895FC01F8948CB589
:100AE00081878DB582878CB5837F8CBD8CB58F7DDA
:100AF0008CBD8CB58C7F8CBD8DB58E7F8DBD60E03F
:100B000082810C94FE13F89420913C03233021F44D
:100B10002091380321110FC020913C03233011F4A0
:100B2000789407C0DC01ED91FC910288F389E02DF7
:100B3000099580E00895DC01ED91FC910488F58928
:100B4000E02D61E0099581E008958EBD00000DB4AF
:100B500007FEFDCF8EB50895CF93DF931F92CDB7DB
:100B6000DEB7DC01ED91FC910480F581E02D698315
:100B700009956981882359F080913A03861711F00D
:100B80006F3F29F49091360381E0911101C080E01C
:100B90000F90DF91CF9108952F923F924F925F92E5
:100BA0007F928F929F92AF92BF92CF92DF92EF92FD
:100BB000FF920F931F93CF93DF93EC01962E5A0170
:100BC000722E802E10E0CE2CD12CE12CF12CE8815D
:100BD000F9810190F081E02D01E0272DA501692D1B
:100BE000CE0109950E94F8121B012C010E94F812F7
:100BF00062197309840995096C157D058E059F0599
:100C000040F4692DCE010E94AC05882379F381E080
:100C100004C01F5F8116D8F680E0DF91CF911F914D
:100C20000F91FF90EF90DF90CF90BF90AF909F908B
:100C30008F907F905F904F903F902F900895EF920C
:100C4000FF921F93CF93DF931F92CDB7DEB77C0146
:100C5000DC01ED91FC91008CF18DE02D698309950B
:100C60006981862F8F770E94A50580E00E94A505E7
:100C7000182FD701ED91FC91028CF38DE02DC70167
:100C80000995812F0F90DF91CF911F91FF90EF90E9
:100C900008950F931F93CF93DF9300D0CDB7DEB7A6
:100CA0008C01DC01ED91FC91008CF18DE02D4A83EB
:100CB000698309956981862F80680E94A5054A810C
:100CC000842F0E94A505D801ED91FC91028CF38D33
:100CD000E02DC8010F900F90DF91CF911F910F91E0
:100CE00009941F93CF93DF93EC01162F80913C035F
:100CF000681709F461C0623009F440C070F46623DB
:100D000009F444C0613009F057C061E0CE010E948F
:100D10001F06482F437E44603FC06330C1F06430FB
:100D200009F04AC061E0CE010E941F06482F437EB1
:100D30004C6061E0CE010E9449068885882381F1DC
:100D4000E881F9810688F789E02D61E014C061E04F
:100D5000CE010E941F06482F437E406161E0CE0114
:100D60000E94490688858823D9F0E881F9810688A0
:100D7000F789E02D60E0CE01099512C061E0CE0157
:100D80000E941F06482F437E486006C061E0CE01E6
:100D90000E941F06482F437E61E0CE010E94490653
:100DA00080913C03811106C067E2CE010E941F06BC
:100DB00087FFF6CF10933C03DF91CF911F910895E9
:100DC000CF93DF93EC01603208F06FE16F83888589
:100DD000882311F066956F8361E1CE010E941F06A2
:100DE000482F407E8F81482B61E1CE01DF91CF916A
:100DF0000C944906CF92DF92EF92FF920F931F93CC
:100E0000CF93DF93EC01F62ED42EC52E122FE8815E
:100E1000F9810488F589E02D61E0099567E2CE014A
:100E20000E941F0687FFFACF40E065E2CE010E94D4
:100E300049061E3308F01DE3E11004C0002319F039
:100E400000E401C000E8E881F981008CF18DE02D1B
:100E5000CE01099580E80E94A50583E0810F0E94DC
:100E6000A5058F2D0E94A5058D810E94A505802FC7
:100E70000E94A5050D2DED2CFC2C8E2D801B8117BD
:100E800030F4F70181917F010E94A505F6CFE8813A
:100E9000F981028CF38DE02DCE010995E881F9816D
:100EA0000488F589E02D64E0CE0109950E94F812CE
:100EB0006B017C018B810E943414892B81F0E881C5
:100EC000F9810488F589E02D61E0CE01DF91CF91B1
:100ED0001F910F91FF90EF90DF90CF9009940E94A7
:100EE000F8126C197D098E099F09683E73408105CF
:100EF000910528F7DFCFCF93DF93EC0110923B03EE
:100F000010923A031092390310923803109237036B
:100F100010923603109235031092340368E20E9457
:100F20001F0682FF0AC06DE3CE010E941F06482FF4
:100F300044606DE3CE010E94490640E465E2CE01C3
:100F40000E944906E881F9810488F589E02D63E073
:100F5000CE01DF91CF910994DF92EF92FF920F9330
:100F60001F93CF93DF93EC018B01E881F981048813
:100F7000F589E02D61E0099501151105E1F0E881A1
:100F8000F981008CF18DE02DCE0109958EEB0E9448
:100F9000A5057801D12CF70181917F010E94A5055B
:100FA000D394F0E1DF12F7CFE881F981028CF38D61
:100FB000E02DCE0109956DE3CE010E941F068E7FC4
:100FC00091E0012B09F490E0482F492B6DE3CE010D
:100FD000DF91CF911F910F91FF90EF90DF900C94D4
:100FE00049068F929F92AF92BF92DF92EF92FF924B
:100FF0000F931F93CF93DF93CDB7DEB7AE970FB6A6
:10100000F894DEBF0FBECDBF7C01D42E8EE28E01E0
:101010000F5F1F4FD801E82F1D92EA95E9F791E085
:10102000998334E03A8342E04B8393E09D834E837F
:101030003F8340E4488735E039879A8796E09B876D
:1010400093E39C8737E03D8798E09F8799E0998BF1
:1010500099E19B8B92E49C8B55E25D8B4E8B46E233
:101060004F8B388F38E2398F30E13A8F39E23B8F3E
:101070003CED3C8F8D8F88E88E8F8FE28F8F8DE2D5
:1010800088A380E389A337E33BA330E93CA338E39B
:101090003DA39EA39CE39FA39FE898A79DE399A7E8
:1010A00092E19AA79FE69BA78CA78FEF8DA76F3140
:1010B00031F06B3231F0663531F489ED05C08EE4E4
:1010C00003C08CE601C084EE8E876F3141F06B3235
:1010D00021F0663521F480E003C080E401C080EC9B
:1010E000888B2AA361E0D70112968C910E94FE138F
:1010F00061E0F70182810E94C5130E94F80A0E94F4
:10110000F8124B015C014AEA6FE2C7010E944906EE
:101110006FE2C7010E941F068A3A59F00E94F81236
:10112000681979098A099B0962337105810591055E
:1011300050F30E94F8124B015C0145E56FE2C701D4
:101140000E9449066FE2C7010E941F06853559F0CB
:101150000E94F812681979098A099B09623371059E
:101160008105910550F3B12CF801EB0DF11DEB0D4C
:10117000F11D60816F3F31F04181C7010E94490636
:10118000B394F2CF60E070E0C7010E94AC07D701D2
:10119000ED91FC9111970084F185E02D18966C91EA
:1011A000C7010995D701ED91FC910488F589E02DDF
:1011B00061E0C70109950E94F8124B015C0167E2EA
:1011C000C7010E941F0687FD0BC00E94F812681914
:1011D00079098A099B09623371058105910578F3C4
:1011E0000E94F812681979098A099B09623371050E
:1011F0008105910588F443E050E063E575E0F7016F
:1012000084810E944012F0923303E0923203D701AE
:101210001596DC9281E001C080E0AE960FB6F8949E
:10122000DEBF0FBECDBFDF91CF911F910F91FF9019
:10123000EF90DF90BF90AF909F908F900895CF93E5
:10124000DF93EC0161110DC064E2CE010E941F0624
:1012500090E091958195910995958795DF91CF9132
:10126000089541E063E20E94490663E2CE010E94D4
:101270001F0681FFFACFE8CFCF93DF93EC01809177
:101280003C038330A9F480913803811111C060E0E0
:10129000CE010E941F09863A9F4F54F4E881F981DC
:1012A0000488F589E02D61E0CE01099581E001C057
:1012B00080E0DF91CF910895FF920F931F93CF931A
:1012C000DF93EC0180913C03833001F568E2CE01AD
:1012D0000E941F0682FD28C019C080913B038D33F8
:1012E00030F4E0913B03F0E0E35CFC4F1082E881D6
:1012F000F981028CF38DE02DCE010995E881F98109
:101300000488F589E02D63E0CE01099560E0CE0107
:101310000E941F099093350380933403DF91CF918E
:101320001F910F91FF900895E881F9810488F58954
:10133000E02D61E0CE010995E881F981008CF18D05
:10134000E02DCE01099580E00E94A50580E00E9475
:10135000A50580933803809138038334D0F48091BD
:1013600038038093380380E00E94A50580933903F9
:101370008E81811109C0909139038D81981721F0D8
:10138000809139038F3F39F480913803833018F00E
:1013900017C082E4E6CF10923803E881F981028C0D
:1013A000F38DE02DCE010995E881F9810288F3895A
:1013B000E02DCE01DF91CF911F910F91FF90099405
:1013C00080913803835080933B0380E00E94A50501
:1013D00080933A0380E00E94A505982F907890931F
:1013E0003603982F907490933703E881F98106842F
:1013F000F785E02D682FCE010995F12C80913B03F4
:10140000F81608F06ACF0F2D10E080E00E94A505C5
:10141000F801E35CFC4F8083F394F0CF4F925F922E
:101420006F927F929F92AF92BF92EF920F931F9312
:10143000CF93DF93EC01162F5A01922E6DE30E9499
:101440001F06482F44606DE3CE010E9449060E94AA
:10145000F8122B013C01CE010E943C098823C1F007
:10146000E881F9810088F189E02DE12C292DA50181
:10147000612FCE010995DF91CF911F910F91EF90D0
:10148000BF90AF909F907F906F905F904F90089526
:101490000E94F8126419750986099709683E73401D
:1014A00081059105E8F6E881F9810480F581E02D58
:1014B000CE010995D0CF4F925F926F927F929F920B
:1014C000AF92BF92CF92DF92EF92FF920F93CF93A2
:1014D000DF93EC015B01942E10923703F0903A03F6
:1014E000C0903403D09035036DE30E941F06482F4F
:1014F00044606DE3CE010E9449060E94F8122B0160
:101500003C01CE010E943C09882311F1F0923A037C
:10151000E881F9810088F189E02DEE24E39400E070
:10152000292DA5016F2DCE010995D0923503C092CA
:101530003403DF91CF910F91FF90EF90DF90CF9028
:10154000BF90AF909F907F906F905F904F90089565
:101550000E94F8126419750986099709683E73405C
:101560008105910598F6E881F9810480F581E02DE7
:10157000CE010995C6CFCF93DF93EC016887662330
:1015800011F04FE001C04AE163E1CE010E9449063B
:101590008885882341F061E1CE010E941F06482F13
:1015A0004F71406602C04F81406861E1CE01DF911A
:1015B000CF910C9449061F93CF93DF93EC01162F24
:1015C000662311F04DE501C045E56AE5CE010E94B4
:1015D0004906112311F04CE701C040E76CE5CE014C
:1015E000DF91CF911F910C944906FC016683089509
:1015F000CF93CFB7F89480917D03811127C0E1E3A9
:10160000F3E08491EDE1F3E09491E82FF0E0EE0F48
:10161000FF1FE15BFC4FA591B4918C91892321F4CC
:1016200061E08AE00E94FE1361E08AE00E94C51337
:101630008CB580618CBD8CB580648CBD61E08DE023
:101640000E94C51361E08BE00E94C51380917D0369
:101650008F5F80937D03CFBFCF910895FC0180E51C
:10166000858316826083528341830895FC018CB583
:1016700083838DB584833581268180917C03882383
:1016800099F09FB7F89480917C03813059F48DB321
:1016900080937A034DB380917B03809584238DBB27
:1016A0009FBF02C090937A033CBD2DBD60E0808156
:1016B0000C94FE13CF93DF93EC0161E088810E94CC
:1016C000FE1380917C03882361F09FB7F8942091EA
:1016D0007C0380917A03213019F48DBB9FBF01C038
:1016E0008FBF8B818CBD8C818DBDDF91CF91089593
:1016F0001F93CF93DF93EC010E94360B85E00E948D
:10170000A50580E00E94A505182FCE010E945A0B66
:10171000812FDF91CF911F9108950E94780B8170E6
:1017200008951F93CF93DF93EC01162F442339F0D4
:1017300040E066E00E94910BCE010E945A0BCE0160
:101740000E948D0B8111FBCFCE010E94360B812FA1
:10175000DF91CF911F910C94A505EF92FF920F930B
:101760001F93CF93DF9300D0CDB7DEB77C01142F4A
:10177000062F41E062E02A8359830E94910B802F5B
:101780000E94A5055981852F0E94A505812F0E94E1
:10179000A5052A81822F0E94A505C7010F900F90F1
:1017A000DF91CF911F910F91FF90EF900C945A0B06
:1017B0002F923F924F925F926F927F928F929F9261
:1017C000AF92BF92CF92DF92EF92FF920F931F934F
:1017D000CF93DF936C012A013B015901CA0199277C
:1017E000C0E0D1E0C81BD90BE12CF12C011511058B
:1017F00079F10C171D0708F4E80141E062E0C60129
:101800000E94910B862D0E94A505852D0E94A5059D
:10181000842D0E94A50515012E0C3F1C4101F401E9
:1018200081914F010E94A505C401821993098C176B
:101830009D07A8F3C6010E945A0B4C0E5D1E611C49
:10184000711CEC0EFD1E0C1B1D0BC0E0D1E0CECFB9
:10185000DF91CF911F910F91FF90EF90DF90CF908C
:10186000BF90AF909F908F907F906F905F904F90C0
:101870003F902F900895EF92FF920F931F93CF9375
:10188000DF931F92CDB7DEB77C01142F062F41E006
:1018900062E559830E94910B802F0E94A505598112
:1018A000852F0E94A505812F0E94A505C7010F90D5
:1018B000DF91CF911F910F91FF90EF900C945A0BF5
:1018C000FC01DB018EE091E09183808312968C9184
:1018D0001297828313968C911397838314968C911D
:1018E0001497848315968C911597858316968C9101
:1018F0001697868317968C911797878318968C91E5
:101900001897808719968C91199781871A968C91D0
:1019100082870895CF92DF92FF920F931F93CF9308
:10192000DF93CDB7DEB70DB71EB7262F30E0220FFD
:10193000331FA9014F5F5F4FEDB7FEB7E41BF50BF7
:101940000FB6F894FEBF0FBEEDBF4DB75EB74F5F49
:101950005F4FDA01F82E6C018C2D8F198617C8F4B1
:10196000C601F601708172957F7070637A3308F05A
:10197000795D7C93FFEFCF1ADF0AFC0180818F70C5
:1019800080638A3308F0895D11968C9311971296C3
:10199000E3CFFA01E20FF31F1082BA018FEA93E05E
:1019A0000E94E1160FB6F8941EBF0FBE0DBFDF9167
:1019B000CF911F910F91FF90DF90CF9008952F92BC
:1019C0003F924F925F926F927F928F929F92AF92CF
:1019D000BF92CF92DF92EF92FF920F931F93CF931C
:1019E000DF93CDB7DEB76C970FB6F894DEBF0FBEAE
:1019F000CDBF4C016B8FE98AFA8A0B8B1C8B2D8B28
:101A00003E8B4F8BAA8E46E060E472E00E945B0A38
:101A1000CC2031F06EE471E08FEA93E00E94E11691
:101A200040E050E0BA01CE0141960E943B0C07E035
:101A300010E020E631E040E050E0BA01CE014196EE
:101A40000E94D80B2AE349E050E060E070E0CE014C
:101A500041960E94AD0B0E94F8121B012C015AE026
:101A6000E52EF12CA12CB12C9E012F5F3F4F398F19
:101A7000288FC4010E948305882301F180913A03D5
:101A80003B8D83131BC0D0903B03B3E0BD1520F406
:101A900080913D038634F9F061E08A8D0E94C51380
:101AA00061E08A8D0E94FE1361E070E080E090E0CA
:101AB0000E94271360E08A8D0E94FE130E94F81294
:101AC0006219730984099509693B7B408105910579
:101AD00080F280E022C180913E038C34E9F680914F
:101AE0003F038835C9F6809140038A3309F0AAC0C4
:101AF00046E04D1508F0A6C084E090E000E010E05C
:101B0000782E2FEF280FFC01E35CFC4F308130333F
:101B1000A0F030813A3388F42081AAE0A801A49F84
:101B20008001A59F100D112400531109020F111DF2
:101B300001968830910521F707C030813A33C1F70B
:101B400054E0751631F2722ECC20C1F068E671E0D7
:101B50008FEA93E00E94D4164AE050E06D2D8FEAA0
:101B600093E00E94A11760E771E08FEA93E00E9482
:101B7000D4166D2D8DE393E00E948A0CE1E0E70D11
:101B8000F0E0E35CFC4F80818A3309F0A2CF0E9431
:101B9000F8121B012C010A151B0539F0C50101972C
:101BA0000817190709F04EC029C032E0370D580157
:101BB0008FEFA81AB80A3D1508F5E32FF0E0E35CB3
:101BC000FC4F208137019FEF691A790AA70160E075
:101BD00070E0CE0141963C8F0E94AD0BC3019F7710
:101BE0003C8D892B41F4A30160E070E0CE01419669
:101BF0000E943B0C3C8D3F5F7301DDCF1F930F9321
:101C0000A5E7B1E0BF93AF93398D3F93488D4F93D4
:101C10000E94F218482F0F900F900F900F900F9086
:101C20000F90CC2049F0BE016F5F7F4F8FEA93E0A9
:101C30004C8F0E94E1164C8DBE016F5F7F4FC40137
:101C40000E945B0A809140038F3309F025CF54E056
:101C5000D51210C046E060E472E0C4010E945B0A45
:101C6000CC2009F419CF6FE771E08FEA93E00E946E
:101C7000E11612CF87E0D8120FCF8091410385344F
:101C800009F00ACF809142038F3409F005CF80918B
:101C90004303863409F000CF87010A50110901304F
:101CA000BCE71B0778F0CC2031F06DE871E08FEADB
:101CB00093E00E94E11647E06AEA71E0C4010E94E5
:101CC0005B0A07CF46E060E472E0C4010E945B0A51
:101CD000CC2031F060E472E08FEA93E00E94E116DC
:101CE000212F47E050E060E070E0CE0141960E9475
:101CF000AD0B26EF2E0D48E050E060E070E0CE0125
:101D000041960E94AD0B2AE349E050E060E070E0AC
:101D1000CE0141960E94AD0B81E06C960FB6F8940F
:101D2000DEBF0FBECDBFDF91CF911F910F91FF900E
:101D3000EF90DF90CF90BF90AF909F908F907F906B
:101D40006F905F904F903F902F900895C82F8823F9
:101D500031F062E872E08FEA93E00E94D41688E0E6
:101D600028E130E00FB6F894A895209360000FBEEC
:101D700080936000CC2331F06EE28FEA93E00E9402
:101D8000D616FACFFFCFAF92BF92CF92DF92EF92EB
:101D9000FF920F931F93CF93DF93CDB7DEB7629778
:101DA0000FB6F894DEBF0FBECDBF0C871D872E8700
:101DB0003F87488B598B6A8BDE2C20913B03243064
:101DC00008F45CC020913D03263409F057C02091EF
:101DD0003E032C3409F052C020913F03283509F00E
:101DE0004DC0209140032F3309F048C0B0903A0312
:101DF00020913B032730A1F420914103253481F445
:101E0000209142032F3461F420914303263441F49E
:101E100000E026E040E452E06B2D0E940E0A2EC046
:101E2000BC01CE0101960E94600CAC2CCD2CEC8440
:101E3000FD840E851F85288939894A896B2DCE013D
:101E400001960E94DF0C882359F0DD2031F06CE808
:101E500072E08FEA93E00E94D4168D2D0E94A60EA8
:101E6000DD2061F06DEA72E08FEA93E00E94D41603
:101E700066ED72E08FEA93E00E94E11662960FB67B
:101E8000F894DEBF0FBECDBFDF91CF911F910F91B0
:101E9000FF90EF90DF90CF90BF90AF900895EF92BA
:101EA000FF920F931F93CF93DF931F92CDB7DEB7AF
:101EB0007C01FC0100811181C80169830E94E61A3E
:101EC0006981681719F0C8010E94EE1AC7010F90C6
:101ED000DF91CF911F910F91FF90EF900895FC013A
:101EE00084890895CF92DF92EF92FF920F931F9310
:101EF000CF93DF93EC011D8963E871E08FEA93E0F3
:101F00000E94B1164AE050E0612F8FEA93E00E94F0
:101F1000A1170C811D81EA80FB80C880D98065E70C
:101F200071E08FEA93E00E94B1164AE050E0B601FA
:101F30008FEA93E00E94A8176BE771E08FEA93E0C5
:101F40000E94B1164AE050E0B7018FEA93E00E9488
:101F5000A8176FE771E08FEA93E00E94B1164AE09C
:101F600050E0B8018FEA93E00E94A8170C851D8508
:101F7000EE80FF806AE671E08FEA93E00E94B1167E
:101F80004AE050E0B7018FEA93E00E94A81760E7AB
:101F900071E08FEA93E00E94B1164AE050E0B80188
:101FA0008FEA93E00E94A81763E771E08FEA93E05D
:101FB0000E94B1160E851F85E884F9846FE571E0F3
:101FC0008FEA93E00E94B1164AE050E0B7018FEA31
:101FD00093E00E94A81765E671E08FEA93E00E9403
:101FE000B1164AE050E0B8018FEA93E00E94A817CA
:101FF00068E671E08FEA93E00E94B11608891989BA
:102000000A84DB85C02D64E571E08FEA93E00E94CD
:10201000B1164AE050E0BE018FEA93E00E94A81793
:102020006AE571E08FEA93E00E94B1164AE050E061
:10203000B8018FEA93E00E94A8176DE571E08FEA7E
:1020400093E00E94B1168FEA93E0DF91CF911F9148
:102050000F91FF90EF90DF90CF900C94DD160F93CF
:102060001F93CF93DF938C01EB0166E371E08FEA5E
:1020700093E00E94B1164AE050E0BE018FEA93E07F
:102080000E948C178FEA93E00E94DD16F801D38B33
:10209000C28BDF91CF911F910F910895AF92BF92A4
:1020A000CF92EF920F931F93CF93DF93CDB7DEB70D
:1020B0002B970FB6F894DEBF0FBECDBF5C014696DE
:1020C0000E948305882309F45FC080913B0382311D
:1020D00069F4EDE3F3E0D50101900D928A95E1F703
:1020E00080913A03F501858B81E057C090913903C7
:1020F000F501848998132CC08EE091E09A8389833E
:10210000808D8B83818D8C83828D8D83838D8E8357
:10211000848D8F83858D8887868D8987878D8A8733
:1021200080A18B8789E0C82EE12C00919F0310913C
:10213000A0032091A1033091A2034091A3035091E9
:10214000A4036091A503CE0101960E94C30E1CC09A
:1021500080913B03823029F460913D0370913E03EE
:1021600010C080913A038E3F79F466E971E08FEAFE
:1021700093E00E94B1168FEA93E00E94DD1662E0C0
:1021800070E0C5010E942F10F501828993890397A1
:1021900019F481E00E94A60E80E02B960FB6F89409
:1021A000DEBF0FBECDBFDF91CF911F910F91EF909A
:1021B000CF90BF90AF900895FC012589822F90E0C9
:1021C0000C971CF491E0920F01C09AE081E0248901
:1021D000921380E00895FC0181E0258994892913F8
:1021E00080E008950F93CF93DF93EC010E944E108F
:1021F0008A899B89029751F000E022E1AE0160E0FC
:10220000CE0146960E940E0A8C898D8BDF91CF916C
:102210000F91089540E35FEE68E08FE993E00E943C
:102220002E0B8EE091E090939503809394038AE0C7
:102230008093960382E0809397031092980381E045
:1022400080933C0310929A038FE180939B0310923A
:102250009C0308959F92AF92BF92CF92DF92EF922C
:10226000FF920F931F93CF93DF9300D0CDB7DEB7CC
:102270007C01162F942EA22E9AE2C92ED12C6DEE3F
:1022800072E08FEA93E00E94B1168FEA93E00E9419
:10229000DD161F3FC9F48AE290E00E94E61AB82ECC
:1022A000F701848B6BEC72E08FEA93E00E94B11629
:1022B0004AE050E06B2D8FEA93E00E94A1178FEA6D
:1022C00093E00E94DD161AC067EA72E08FEA93E09D
:1022D0000E94B1164AE050E0612F8FEA93E00E941D
:1022E000A1178FEA93E00E94DD16DA82C982612F7E
:1022F000CE0101960E944F0FF701148BF70144891C
:10230000493C40F16DE772E08FEA93E00E94B1161C
:102310008FEA93E00E94DD1668E572E08FEA93E0B1
:102320000E94B1168FEA93E00E94DD168FEA93E0D7
:102330000E948914892BD1F341E060E070E08FEABC
:1023400093E00E941F18DA82C982CE0101960E9492
:102350004F0F95CF6701F6E1CF0ED11C292D6A2DC5
:10236000C6010E94F10761E0C6010E94BB0A61E05C
:10237000C6010E94F50A602FC6010E94E0068FEF99
:102380009FEFF70195838483938382839183808376
:10239000938782879187808797838683918B808BB1
:1023A00097878687958784878CE0858B61E089E0B5
:1023B0000E94C51360E089E00E94FE1361E070E0B6
:1023C000C7010E942F1068E372E08FEA93E00E9439
:1023D000B1168FEA93E00E94DD1662E172E08FEAA7
:1023E00093E00E94B1164AE050E068EE8FEA93E075
:1023F0000E94A1176EE272E08FEA93E00E94B1168C
:102400004AE050E06DE170E08FEA93E00E948C17A3
:102410008FEA93E00E94DD166FED71E08FEA93E0A2
:102420000E94B1164AE050E065E070E08FEA93E068
:102430000E948C178FEA93E00E94DD16F701148941
:1024400063EB71E08FEA93E00E94B1164AE050E03E
:10245000612F8FEA93E00E94A1178FEA93E00E9418
:10246000DD160F900F90DF91CF911F910F91FF908C
:10247000EF90DF90CF90BF90AF909F900895089518
:102480008230E8F4E82FF0E0EE0FFF1FEA5FFE4F26
:1024900071836083813041F0809169008C7F842B4F
:1024A00080936900E89A089580916900440F551F50
:1024B000440F551F837F842B80936900E99A089508
:1024C0001F920F920FB60F9211242F933F934F93A9
:1024D0005F936F937F938F939F93AF93BF93EF938C
:1024E000FF93E0910601F09107010995FF91EF91AB
:1024F000BF91AF919F918F917F916F915F914F911C
:102500003F912F910F900FBE0F901F9018951F9223
:102510000F920FB60F9211242F933F934F935F9317
:102520006F937F938F939F93AF93BF93EF93FF939B
:10253000E0910801F09109010995FF91EF91BF9198
:10254000AF919F918F917F916F915F914F913F914B
:102550002F910F900FBE0F901F9018951F920F9202
:102560000FB60F9211242F933F938F939F93AF93A6
:10257000BF938091A7039091A803A091A903B09164
:10258000AA033091A60323E0230F2D3720F40196F0
:10259000A11DB11D05C026E8230F0296A11DB11D86
:1025A0002093A6038093A7039093A803A093A90365
:1025B000B093AA038091AB039091AC03A091AD03BB
:1025C000B091AE030196A11DB11D8093AB03909312
:1025D000AC03A093AD03B093AE03BF91AF919F91B5
:1025E0008F913F912F910F900FBE0F901F901895D4
:1025F0002FB7F8946091A7037091A8038091A90365
:102600009091AA032FBF08953FB7F8948091AB0330
:102610009091AC03A091AD03B091AE0326B5A89BF9
:1026200005C02F3F19F00196A11DB11D3FBF6627C0
:10263000782F892F9A2F620F711D811D911D42E005
:10264000660F771F881F991F4A95D1F708958F92BB
:102650009F92AF92BF92CF92DF92EF92FF926B0167
:102660007C010E9404134B015C01C114D104E104FC
:10267000F104F1F00E949F180E940413681979096F
:102680008A099B09683E73408105910570F321E03A
:10269000C21AD108E108F10888EE880E83E0981E7E
:1026A000A11CB11CC114D104E104F10429F7DDCF50
:1026B000FF90EF90DF90CF90BF90AF909F908F9062
:1026C0000895789484B5826084BD84B5816084BDAA
:1026D00085B5826085BD85B5816085BDEEE6F0E09B
:1026E000808181608083E1E8F0E0108280818260F7
:1026F0008083808181608083E0E8F0E08081816078
:102700008083E1EBF0E0808184608083E0EBF0E0A7
:10271000808181608083EAE7F0E08081846080834B
:1027200080818260808380818160808380818068F5
:1027300080831092C1000895833081F028F48130A5
:1027400099F08230A1F008958730A9F08830B9F06F
:102750008430D1F4809180008F7D03C0809180000F
:102760008F7780938000089584B58F7702C084B5F9
:102770008F7D84BD08958091B0008F7703C08091D4
:10278000B0008F7D8093B0000895CF93DF9390E0E9
:10279000FC01ED5EFC4F2491FC01E95DFC4F84914E
:1027A000882349F190E0880F991FFC01E15BFC4F01
:1027B000A591B4918B5B9C4FFC01C591D4919FB7BF
:1027C000611108C0F8948C91209582238C938881A4
:1027D00082230AC0623051F4F8948C91322F3095E4
:1027E00083238C938881822B888304C0F8948C91F6
:1027F000822B8C939FBFDF91CF9108950F931F93EE
:10280000CF93DF931F92CDB7DEB7282F30E0F901C9
:10281000E150FD4F8491F901ED5EFC4F1491F901F7
:10282000E95DFC4F04910023C9F0882321F06983FE
:102830000E949C136981E02FF0E0EE0FFF1FEB5B1D
:10284000FC4FA591B4919FB7F8948C91611103C08E
:102850001095812301C0812B8C939FBF0F90DF9136
:10286000CF911F910F910895CF93DF93282F30E0E0
:10287000F901E150FD4F8491F901ED5EFC4FD491D7
:10288000F901E95DFC4FC491CC2391F081110E94C4
:102890009C13EC2FF0E0EE0FFF1FE55CFC4FA591C1
:1028A000B4912C912D2381E090E021F480E002C0CE
:1028B00080E090E0DF91CF9108950F931F93762FE2
:1028C00090E0FC01ED5EFC4F6491FC01E95DFC4F82
:1028D000E4917111762FF0E0EE0FFF1FE55CFC4FE5
:1028E0008591949189019A013F70472F0E94D901E7
:1028F000611571058105910531F06F5F7F4F8F4F35
:102900009F4F9F7003C060E070E0CB011F910F915B
:102910000895FC01818D228D90E0805C9F4F821B89
:1029200091098F7399270895FC01918D828D9817D5
:1029300031F0828DE80FF11D858D90E008958FEFC5
:102940009FEF0895FC01918D828D981761F0828D23
:10295000DF01A80FB11D5D968C91928D9F5F9F73D3
:10296000928F90E008958FEF9FEF089586E296E1B1
:10297000892B49F080E090E0892B29F00E942616EF
:1029800081110C9400000895FC01848DDF01A80FD3
:10299000B11DA35ABF4F2C91848D90E001968F7387
:1029A0009927848FA689B7892C93A089B1898C91A6
:1029B00080648C93938D848D981306C00288F3896C
:1029C000E02D80818F7D80830895CF93DF93EC018C
:1029D000888D8823C9F0EA89FB89808185FD05C03F
:1029E000A889B9898C9186FD0FC00FB607FCF5CF79
:1029F000808185FFF2CFA889B9898C9185FFEDCFC1
:102A0000CE010E94C414E7CFDF91CF910895CF92F9
:102A1000DF92FF920F931F93CF93DF931F92CDB757
:102A2000DEB76C0181E0D60158968C9358975B967F
:102A30009C915B975C968C915C97981307C050961D
:102A4000ED91FC915197808185FD2EC0F601038D9B
:102A500010E00F5F1F4F0F731127F02EF601848DCA
:102A6000F81211C00FB607FCF9CFD6015096ED91C0
:102A7000FC915197808185FFF1CFC60169830E9447
:102A8000C4146981EBCF838DE80FF11DE35AFF4F2A
:102A90006083D6015B960C935B975296ED91FC9107
:102AA0005397808180620CC0D6015696ED91FC91BF
:102AB000579760835096ED91FC9151978081806487
:102AC000808381E090E00F90DF91CF911F910F9173
:102AD000FF90DF90CF900895BF92CF92DF92EF9258
:102AE000FF92CF93DF93EC016A017B01B22EE8895C
:102AF000F98982E08083411581EE580761057105EF
:102B0000A1F060E079E08DE390E0A70196010E94DA
:102B1000B01821503109410951095695479537950B
:102B20002795211580E1380798F0E889F989108206
:102B300060E874E88EE190E0A70196010E94B01869
:102B400021503109410951095695479537952795E7
:102B5000EC85FD853083EE85FF852083188EEC891A
:102B6000FD89B082EA89FB89808180618083EA895E
:102B7000FB89808188608083EA89FB898081806805
:102B80008083EA89FB8980818F7D8083DF91CF916B
:102B9000FF90EF90DF90CF90BF9008951F920F921B
:102BA0000FB60F9211242F938F939F93EF93FF9360
:102BB000E091BF03F091C0038081E091C503F091E3
:102BC000C60382FD12C090818091C8038F5F8F730E
:102BD0002091C903821751F0E091C803F0E0E1555C
:102BE000FC4F958F8093C80301C08081FF91EF91C6
:102BF0009F918F912F910F900FBE0F901F9018955E
:102C00001F920F920FB60F9211242F933F934F9361
:102C10005F936F937F938F939F93AF93BF93EF9344
:102C2000FF938FEA93E00E94C414FF91EF91BF914C
:102C3000AF919F918F917F916F915F914F913F9154
:102C40002F910F900FBE0F901F9018958FEA93E071
:102C50000E94891421E0892B09F420E0822F089535
:102C60001092B2031092B10388EE93E0A0E0B0E0BE
:102C70008093B3039093B403A093B503B093B603CA
:102C80008FED92E09093B0038093AF0385EC90E0DA
:102C90009093BC038093BB0384EC90E09093BE03BD
:102CA0008093BD0380EC90E09093C0038093BF03BA
:102CB00081EC90E09093C2038093C10382EC90E09A
:102CC0009093C4038093C30386EC90E09093C60373
:102CD0008093C5031092C8031092C9031092CA03CF
:102CE0001092CB030895CF92DF92EF92FF920F9351
:102CF0001F93CF93DF937C016A01EB0100E010E0AA
:102D00000C151D0571F06991D701ED91FC910190B1
:102D1000F081E02DC7010995892B19F00F5F1F4F36
:102D2000EFCFC801DF91CF911F910F91FF90EF90EE
:102D3000DF90CF9008956115710581F0DB010D9052
:102D40000020E9F7AD0141505109461B570BDC014A
:102D5000ED91FC910280F381E02D099480E090E0F8
:102D60000895EF92FF920F931F93CF93DF938C01FF
:102D70007B01C0E0D0E0F701EC0FFD1F64916623FA
:102D800059F0F801A081B181ED91FC91C80109953C
:102D9000892B11F02196EFCFCE01DF91CF911F91BA
:102DA0000F91FF90EF9008950C949B16DC01ED912C
:102DB000FC910190F081E02D09946BEE72E00C948F
:102DC0009B160F931F93CF93DF93EC010E949B16EA
:102DD0008C01CE010E94DD16800F911FDF91CF91F3
:102DE0001F910F9108958F929F92AF92BF92DF92A1
:102DF000EF92FF920F931F93CF93DF93CDB7DEB780
:102E0000A1970FB6F894DEBF0FBECDBF7C01F42FA3
:102E1000D52ECB0119A2223008F42AE08E010F5DD5
:102E20001F4F822E912CA12CB12C6F2F7D2DA5012F
:102E300094010E94B018F22FD32ECA01015011093B
:102E40006A3014F4E0E301C0E7E3E60FD801EC9345
:102E5000232B242B252B49F7B801C7010E949B1671
:102E6000A1960FB6F894DEBF0FBECDBFDF91CF9114
:102E70001F910F91FF90EF90DF90BF90AF909F90C8
:102E80008F900895CF92DF92EF92FF920F931F934E
:102E9000CF93DF93EC016A017B012115310579F4B1
:102EA000E881F9810190F081E02D642FDF91CF91CD
:102EB0001F910F91FF90EF90DF90CF9009942A30EF
:102EC0003105E9F477FF1AC06DE20E94D6168C0135
:102ED00044275527BA014C195D096E097F092AE07C
:102EE000CE010E94F316800F911FDF91CF911F91A9
:102EF0000F91FF90EF90DF90CF9008952AE0B701F7
:102F0000A601CE01DF91CF911F910F91FF90EF901D
:102F1000DF90CF900C94F3169A01AB01662757FD12
:102F20006095762F0C9442172115310541F4DC0190
:102F3000ED91FC910190F081E02D642F09940C94A7
:102F4000F3169A01462F50E060E070E00C9494175D
:102F50009A01AB0160E070E00C9494170F931F93FB
:102F6000CF93DF93EC010E94F812688779878A87F4
:102F70009B87E881F9810084F185E02DCE010995D8
:102F800097FF15C00E94F812088519852A853B8590
:102F9000601B710B820B930B0C811D812E813F8175
:102FA000601771078207930720F38FEF9FEFDF9180
:102FB000CF911F910F910895FF920F931F93CF937D
:102FC000DF93EC018B01F42ECE010E94AE179C0121
:102FD00097FD28C08D32910519F1C0970A9710F11D
:102FE000FF2019F02E323105F9F001301105F9F00A
:102FF0000230110569F42D30310551F034F42950B7
:1030000031092230310520F012C02032310579F427
:10301000E881F9810680F781E02DCE010995D4CFB2
:103020008DE203C0C90105C08EE290E002C08FEFBF
:103030009FEFDF91CF911F910F91FF900895CF9255
:10304000DF92FF920F931F93CF93DF9300D000D0B6
:10305000CDB7DEB76C01042F40E00E94DC17FC0105
:1030600097FD4BC020E030E0A901F12C112707FDAE
:103070001095E017F107E9F0ED32F105C1F0CF014D
:10308000C0970A97B0F4AAE0B0E00E94E1189B0153
:10309000AC01CF01AA2797FDA095BA2F280F391FA1
:1030A0004A1F5B1F205331094109510902C0FF2407
:1030B000F394D601ED91FC910680F781E02DC601D5
:1030C00029833A834B835C830995C6010E94AE171E
:1030D000FC01C09729813A814B815C810A9748F2B3
:1030E000E017F10731F2FF2061F066277727CB0167
:1030F000621B730B840B950B06C060E070E0CB0184
:1031000002C0CA01B9010F900F900F900F90DF918C
:10311000CF911F910F91FF90DF90CF900895089568
:103120000E9461130E948F180E94FE03C6EBD4E137
:103130000E9440042097E1F30E94B614F9CF08954D
:10314000DB018F939F930E94E118BF91AF91A29FE3
:10315000800D911DA39F900DB29F900D1124089595
:10316000A1E21A2EAA1BBB1BFD010DC0AA1FBB1F8B
:10317000EE1FFF1FA217B307E407F50720F0A21BFD
:10318000B30BE40BF50B661F771F881F991F1A946A
:1031900069F760957095809590959B01AC01BD0194
:1031A000CF010895A29FB001B39FC001A39F700DEE
:1031B000811D1124911DB29F700D811D1124911D3F
:1031C00008950E94D218A59F900DB49F900DA49FC2
:1031D000800D911D11240895EE0FFF1F0590F491AD
:1031E000E02D0994AEE0B0E0E8EFF8E10C94B01BFC
:1031F0000D891E8986E08C831A8309838FEF9FE7F0
:103200009E838D83AE01475E5F4F6F89788DCE01BF
:1032100001960E941419EF81F885E00FF11F1082CA
:103220002E96E4E00C94CC1BACE0B0E0EAE1F9E1CE
:103230000C94A21B7C016B018A01FC01178216828F
:10324000838181FFBDC1CE0101964C01F7019381BD
:10325000F60193FD859193FF81916F01882309F415
:10326000ABC1853239F493FD859193FF81916F0154
:10327000853229F4B70190E00E94121BE7CF512C50
:10328000312C20E02032A0F48B3269F030F480320F
:1032900059F0833269F420612CC08D3239F08033CB
:1032A00039F4216026C02260246023C0286021C038
:1032B00027FD27C030ED380F3A3078F426FF06C0DE
:1032C000FAE05F9E300D1124532E13C08AE0389E21
:1032D000300D1124332E20620CC08E3221F426FDD5
:1032E0006BC1206406C08C3611F4206802C0883699
:1032F00041F4F60193FD859193FF81916F01811156
:10330000C1CF982F9F7D9554933028F40C5F1F4FA9
:10331000FFE3F9830DC0833631F0833771F08335D5
:1033200009F05BC022C0F801808189830E5F1F4FC6
:1033300044244394512C540115C03801F2E06F0E1F
:10334000711CF801A080B18026FF03C0652D70E0DC
:1033500002C06FEF7FEFC5012C870E94071B2C0175
:1033600083012C852F77222E17C03801F2E06F0ED3
:10337000711CF801A080B18026FF03C0652D70E0AC
:1033800002C06FEF7FEFC5012C870E94FC1A2C0151
:103390002C852068222E830123FC1BC0832D90E006
:1033A00048165906B0F4B70180E290E00E94121B63
:1033B0003A94F4CFF50127FC859127FE81915F01B6
:1033C000B70190E00E94121B31103A94F1E04F1ABD
:1033D00051084114510471F7E5C0843611F0893663
:1033E00039F5F80127FF07C06081718182819381DF
:1033F0000C5F1F4F08C060817181882777FD809521
:10340000982F0E5F1F4F2F76B22E97FF09C0909511
:103410008095709561957F4F8F4F9F4F2068B22E9A
:103420002AE030E0A4010E94441BA82EA81844C042
:10343000853729F42F7EB22E2AE030E025C0F22F06
:10344000F97FBF2E8F36C1F018F4883579F0B4C0FB
:10345000803719F0883721F0AFC02F2F2061B22EAE
:10346000B4FE0DC08B2D8460B82E09C024FF0AC0A5
:103470009F2F9660B92E06C028E030E005C020E1FD
:1034800030E002C020E132E0F801B7FE07C0608101
:103490007181828193810C5F1F4F06C060817181B1
:1034A00080E090E00E5F1F4FA4010E94441BA82EF5
:1034B000A818FB2DFF77BF2EB6FE0BC02B2D2E7F3D
:1034C000A51450F4B4FE0AC0B2FC08C02B2D2E7E09
:1034D00005C07A2C2B2D03C07A2C01C0752C24FF3B
:1034E0000DC0FE01EA0DF11D8081803311F4297EAB
:1034F00009C022FF06C07394739404C0822F86789B
:1035000009F0739423FD13C020FF06C05A2C7314D6
:1035100018F4530C5718732C731468F4B70180E235
:1035200090E02C870E94121B73942C85F5CF7314A6
:1035300010F4371801C0312C24FF12C0B70180E30A
:1035400090E02C870E94121B2C8522FF17C021FFC0
:1035500003C088E590E002C088E790E0B7010CC0A6
:10356000822F867859F021FD02C080E201C08BE2F3
:1035700027FD8DE2B70190E00E94121BA51438F4DC
:10358000B70180E390E00E94121B5A94F7CFAA94EF
:10359000F401EA0DF11D8081B70190E00E94121B39
:1035A000A110F5CF332009F451CEB70180E290E0AD
:1035B0000E94121B3A94F6CFF7018681978102C0D0
:1035C0008FEF9FEF2C96E2E10C94BE1BF999FECF92
:1035D00092BD81BDF89A992780B50895262FF99953
:1035E000FECF1FBA92BD81BD20BD0FB6F894FA9AE6
:1035F000F99A0FBE01960895FC0105906150704044
:103600000110D8F7809590958E0F9F1F0895FC01AB
:103610006150704001900110D8F7809590958E0F01
:103620009F1F08950F931F93CF93DF93182F092F98
:10363000EB018B8181FD03C08FEF9FEF20C082FFE4
:1036400010C04E815F812C813D81421753077CF46D
:10365000E881F9819F012F5F3F4F398328831083D1
:1036600006C0E885F985812F0995892B29F72E81D8
:103670003F812F5F3F4F3F832E83812F902FDF911C
:10368000CF911F910F910895FA01AA27283051F187
:10369000203181F1E8946F936E7F6E5F7F4F8F4F83
:1036A0009F4FAF4FB1E03ED0B4E03CD0670F781FE2
:1036B000891F9A1FA11D680F791F8A1F911DA11DC7
:1036C0006A0F711D811D911DA11D20D009F4689400
:1036D0003F912AE0269F11243019305D3193DEF6A8
:1036E000CF010895462F4770405D4193B3E00FD05E
:1036F000C9F7F6CF462F4F70405D4A3318F0495D49
:1037000031FD4052419302D0A9F7EACFB4E0A6952B
:103710009795879577956795BA95C9F7009761054D
:10372000710508959B01AC010A2E069457954795A3
:1037300037952795BA95C9F7620F731F841F951F98
:10374000A01D08952F923F924F925F926F927F92A9
:103750008F929F92AF92BF92CF92DF92EF92FF92A1
:103760000F931F93CF93DF93CDB7DEB7CA1BDB0B4D
:103770000FB6F894DEBF0FBECDBF09942A883988F2
:1037800048885F846E847D848C849B84AA84B984F9
:10379000C884DF80EE80FD800C811B81AA81B98105
:1037A000CE0FD11D0FB6F894DEBF0FBECDBFED0119
:0637B0000895F894FFCF1C
:1037B60000004C0480003F123F12000000000E0A79
:1037C600CC0583055B0ABB0AE0065C095205FA06CE
:1037D6007B077106DB0A6D055E05464C583F454F73
:1037E6004600464C583F0048616E647368616B65DD
:1037F600206661696C00464C583A25753A00464C7D
:10380600583F4F4B202841434B2073656E74290067
:10381600464C58494D473A00726164696F205B0017
:103826005D203E2000464C583A25753A4F4B0046DF
:103836004C583F4F4B20726573656E6400494D4787
:1038460020657863656564732033316B2C2072655F
:10385600667573696E6720697400464C583F4E4F13
:103866004B0052465458203E2000524641434B20BE
:103876003E200054696D656F7574207761697469BF
:103886006E6720666F72207061636B6574204143BA
:103896004B2C2061626F7274696E6720464C4153EF
:1038A60048206F7065726174696F6E202E2E2E002F
:1038B600464C583A494E560054696D656F757420EA
:1038C600726563656976696E6720464C4153482088
:1038D600696D6167652066726F6D20534552494177
:1038E6004C2C2061626F7274696E672E2E2E000A50
:1038F600464C583F4F4B00464C41534820494D4794
:10390600205452414E534D495353494F4E2053551F
:10391600434345535300464C41534820494D4720A5
:103926005452414E534D495353494F4E20464149F7
:103936004C005245424F4F54494E4700464C415366
:103946004820494D47205452414E534D49535349FF
:103956004F4E2053554343455353210A0054696D36
:10396600656F75742F4572726F722C206572617364
:10397600696E67207772697474656E20646174611C
:10398600202E2E2E2000444F4E450000000000073A
:103996001573168914A2149414E5140D0A006E61A9
:0A39A6006E00696E66006F76660021
:00000001FF
