:100000000C94A1010C94F31B0C94201C0C94C901BA
:100010000C94C9010C94C9010C94C9010C94C90138
:100020000C94C9010C94C9010C94C9010C94C90128
:100030000C94C9010C94C9010C94C9010C94C90118
:100040000C944D1C0C94C9010C944E1F0C94801FF1
:100050000C94C9010C94C9010C94C9010C94C901F8
:100060000C94C9010C94C901416E696D6174696F8A
:100070006E2E20667073207265706F727465643DB9
:1000800000416E696D6174696F6E2E2065787465CC
:100090006E743D2000416E696D6174696F6E2E2033
:1000A000706F736974696F6E3D2000416E696D6198
:1000B00074696F6E2E204D6173746572206272696F
:1000C0006768746E6573733D2000416E696D61747D
:1000D000696F6E2E205374617274757020636F6D3A
:1000E000706C6574652E0053746174652E202069F0
:1000F0006E506C616E652D3E69646C652E005374A4
:100100006174652E202069646C652D3E6F75745096
:100110006C616E652E004E6574776F726B2E207366
:10012000657474696E672073797374656D53746157
:1001300074653D00097020323D002D20007C0009CF
:100140007020313D002D20007C00097020303D00E2
:100150002D20007C00096420303D0020313D00202E
:10016000323D004E6574776F726B2E204D534720E1
:1001700066726F6D20004E6574776F726B2E205023
:10018000726F6772616D6D65722074726166666907
:10019000632E004E6574776F726B2E2073746172DC
:1001A00074757020636F6D706C6574652077697409
:1001B00068206E6F6465206E756D6265723D004EDD
:1001C0006574776F726B2E20617070726F78696DD5
:1001D000617465207061636B6574207472616E7305
:1001E0006D697373696F6E2074696D65286D73290D
:1001F0003D004E6574776F726B2E207061636B6586
:10020000742073697A652862697473293D00202817
:100210006279746573293D004E6574776F726B2E39
:10022000206269747261746528626974732F73291E
:100230003D35353535352E00456E74657220746850
:1002400065206E6F6465206E756D62657220666FE5
:10025000722074686973206E6F64653A004E65742D
:10026000776F726B2E204552524F52206E6F206E68
:100270006F6465494420666F756E6420696E204521
:100280004550524F4D21004E6574776F726B2E2092
:100290002077726974696E67206E6F6465494420C7
:1002A000746F20454550524F4D3D004E6574776F39
:1002B000726B2E2072656164206E6F646549442004
:1002C00066726F6D20454550524F4D3D004E65742E
:1002D000776F726B2E20737461727475702E0000CC
:1002E00000000800020100000304070000000000F5
:1002F00000000001020408102040800102040810E0
:10030000200102040810200404040404040404026C
:10031000020202020203030303030300000000239E
:10032000002600290000000000250028002B000006
:10033000000000240027002A0000490B6717951AC7
:10034000B01F11241FBECFEFD8E0DEBFCDBF13E03A
:10035000A0E0B1E0EAEAFBE402C005900D92A63409
:10036000B107D9F726E0A6E4B3E001C01D92A2349C
:10037000B207E1F713E0C2E4D3E004C02297FE0124
:100380000E94E322CA33D107C9F70E94F41F0C94DC
:10039000D3250C94000080E090E00895CF93DF9384
:1003A00000D000D000D0CDB7DEB7AB01DC01ED91BD
:1003B000FC910190F081E02D19821A821B821C822F
:1003C0001D821E829E012F5F3F4FBE016C5F7F4FDB
:1003D000099526960FB6F894DEBF0FBECDBFDF910C
:1003E000CF910895CF93DF9300D000D000D0CDB748
:1003F000DEB7AB01DC01ED91FC910190F081E02DC5
:1004000019821A821B821C821D821E829E012F5F0E
:100410003F4FBE016C5F7F4F099526960FB6F8944B
:10042000DEBF0FBECDBFDF91CF910895FC0180E309
:1004300091E091838083138212828FEF868387837A
:10044000808781878287838781E0848716861586E7
:100450001582148280918F0590919005892B21F44B
:10046000F0939005E0938F05A0918D05B0918E05D6
:10047000109721F01596FC93EE931497F0938E0548
:10048000E0938D050895CF93C62F609391056BEA95
:1004900070E085EA95E00E9441204AE050E06C2F30
:1004A00085EA95E00E943D2185EA95E0CF910C9484
:1004B0006F20CF93DF9300D01F92CDB7DEB7FC0142
:1004C0006083442361F019821A821B82AE014F5F60
:1004D0005F4F6EE670E08EE893E00E94B0180F90D8
:1004E0000F900F90DF91CF910895CF93DF93EC01A0
:1004F00080917903811111C080E693E00E94160279
:100500008EE391E0909361038093600310927003F7
:1005100010926F0381E08093790320E030E04EE693
:1005200050E06EE873E080E693E00E945A1AFC0106
:100530008FEF868380EB878380EF808780917103C4
:10054000811111C08FE493E00E9416028CE491E0C7
:100550009093500380934F0310925F0310925E03B9
:1005600081E08093710320E030E04EE650E06EE8D9
:1005700073E08FE493E00E945A1AFC018FEF8683A8
:1005800080EB878380EF80878EE00E94291D209179
:100590000A0130910B01280F391F30930B01209372
:1005A0000A016FEFCE010E94430287E38B838983A8
:1005B0001C821A8241E060E0CE010E9459026AEC7E
:1005C00070E085EA95E00E94412085EA95E0DF91A0
:1005D000CF910C946F201F93CF93DF93EC01162FD4
:1005E0008981861791F065E970E085EA95E00E94BF
:1005F00041204AE050E0612F85EA95E00E943D21CC
:1006000085EA95E00E946F201983DF91CF911F91B9
:1006100008951F93CF93DF93EC01162F8A818617DD
:1006200091F061E870E085EA95E00E9441204AE09F
:1006300050E0612F85EA95E00E943D2185EA95E032
:100640000E946F201A83DF91CF911F9108954F92DE
:100650005F926F927F929F92AF92BF92CF92DF9202
:10066000EF92FF920F931F93CF93DF93CDB7DEB737
:100670002A970FB6F894DEBF0FBECDBF962E80E14D
:10068000888788E089878091860381110DC00E9448
:10069000971C60934A0370934B0380934C03909391
:1006A0004D0381E0809386038DEF9FEB9A838983CE
:1006B0008FEF9FE39C838B8380914903E8E0F0E018
:1006C000EC0FFD1FE80FF11D40816EE670E08EE833
:1006D00093E00E94ED188091490390E0FC01EE0F39
:1006E000FF1FEC0FFD1F0181128140904A035090C3
:1006F0004B0360904C0370904D03E8E0F0E0EC0F8A
:10070000FD1FE80FF91F80818A870E94971C6B01EB
:100710007C0120E03A85A8E1B1E00E94C7229B015C
:10072000AC01C418D508E608F708C701B6010E9455
:100730004E22080F191FC8019F73969587959695AD
:1007400087959695879516FF06C02FEF37E0A9018C
:10075000481B590BCA01E92FEE0FEE0FF0E0E35FE3
:10076000FE4F2081318192818695A901989F400D8D
:10077000511D1124CA0117FF03C09195819591095C
:100780009C01305880E090E0DC0160E04FEF5FEFCB
:10079000249FC001359FD001349F900DA11DB61F2D
:1007A000259F900DA11DB61F1124BD0188279927F3
:1007B0001F921F921F922EE62F93A12CB12C650140
:1007C000EE24EA94FE2C00E010E020E030E0A901E5
:1007D0000E940622162F0F900F900F900F906D36EB
:1007E000D9F48091490381111DC00E94971CC090CB
:1007F0004A03D0904B03E0904C03F0904D0354EF2C
:10080000C50E51E0D51EE11CF11CC616D706E80640
:10081000F90608F44DC006C0611104C08091490377
:10082000813069F18091480391E0980F90934803DB
:100830008D838FEF8E839F82812F90E0BC01660FA6
:10084000771F680F791F62577C4FCE0105960E9473
:10085000A81A2A960FB6F894DEBF0FBECDBFDF915F
:10086000CF911F910F91FF90EF90DF90CF90BF90AD
:10087000AF909F907F906F905F904F9008950E94EF
:10088000971CC0904A03D0904B03E0904C03F0902B
:100890004D0324EFC20E21E0D21EE11CF11CC6164E
:1008A000D706E806F90608F0BDCF1092490303C049
:1008B00081E0809349030E94971C60934A037093E0
:1008C0004B0380934C0390934D03ACCF5F926F9298
:1008D0007F928F929F92AF92BF92CF92DF92EF92D0
:1008E000FF920F931F93CF93DF9300D01F92CDB74A
:1008F000DEB7862E142F19821A821B82AE014F5F3B
:100900005F4F6EE670E08EE893E00E94B018809131
:1009100047038F5F80934703282D31E0230F08F4AE
:100920002FEF282D230F08F42FEF2E3638F421E077
:10093000382D320F08F43FEF932E02C07DE6972E3C
:10094000292D210F08F42FEF292D210F08F42FEF67
:100950002E3630F4292D210F08F42FEF622E02C01D
:100960006DE6662E282D31E0231B08F420E0282DAB
:10097000231B08F420E02E3638F421E0382D321BFA
:1009800008F430E0732E02C05DE6752E272D211B82
:1009900008F420E0272D211B08F420E02E3630F447
:1009A000272D211B08F420E0522E02C04DE6542EC4
:1009B000183328F4612F70E080E090E004C067E312
:1009C00070E080E090E01F921F921F9220E12F9331
:1009D000A12CB12C6501AA9417E3E12EF12C00E0C3
:1009E00010E020E030E0A9010E940622062F0F90BF
:1009F0000F900F900F90152DFF24FA946116A0F020
:100A0000809147038983FA820B83212F30E0B9015B
:100A1000660F771F620F731F62577C4FCE010196DE
:100A20000E94A81A1F5FEACF19821A8210E21B8364
:100A3000852D90E0BC01660F771F680F791F625704
:100A40007C4FCE0101960E94A81A19821A8200E8F2
:100A50000B83872D90E0BC01660F771F680F791F0D
:100A600062577C4FCE0101960E94A81A19821A8201
:100A70008FEF8B83882D90E0BC01660F771F680F86
:100A8000791F62577C4FCE0101960E94A81A1982E5
:100A90001A820B83892D90E0BC01660F771F680FC7
:100AA000791F62577C4FCE0101960E94A81A1982C5
:100AB0001A821B83712CB301660F771F660D771D99
:100AC00062577C4FCE0101960E94A81A0F900F909A
:100AD0000F90DF91CF911F910F91FF90EF90DF90DA
:100AE000CF90BF90AF909F908F907F906F905F90CE
:100AF0000895CF93DF93EB014AE06EE670E08EE855
:100B000093E00E94ED18AE016EE670E08EE893E08F
:100B1000DF91CF910C94B0180F931F93CF93DF9375
:100B200000D01F92CDB7DEB7FC0183819181981769
:100B300010F4815003C0891710F48F5F8383848180
:100B40009281981710F4815003C0891710F48F5FB9
:100B500084838081813079F048F0823091F0833055
:100B6000D1F419821A828FEF8B830FC06FEFCF0100
:100B70000E94270310C044816381CF010E94660454
:100B80000AC019828FEF8A831B82BE016F5F7F4F7D
:100B9000CF010E9479056091910581E995E00E945D
:100BA000921980914E038F5F843619F080934E0323
:100BB00017C010924E03009192051091930568E6BC
:100BC00070E085EA95E00E9441204AE050E0B801DB
:100BD00085EA95E00E94282185EA95E00E946F2031
:100BE0000F900F900F90DF91CF911F910F9108956B
:100BF000DC018D919C91009739F0DC01ED91FC9125
:100C00000190F081E02D09940895DC018D919C9173
:100C1000009739F0DC01ED91FC910280F381E02D29
:100C200009940895579A569A0F960C940506DC017C
:100C30008D919C91009739F0DC01ED91FC91019030
:100C4000F081E02D09940895DC018D919C9100972D
:100C500039F0DC01ED91FC910280F381E02D0994E3
:100C60000895549A569A0F960C94240687FF02C052
:100C70005F9A01C05F985E9A5E9886FF02C05F9A95
:100C800001C05F985E9A5E9885FF02C05F9A01C0BE
:100C90005F985E9A5E9884FF02C05F9A01C05F9879
:100CA0005E9A5E9883FF02C05F9A01C05F985E9A69
:100CB0005E9882FF02C05F9A01C05F985E9A5E985C
:100CC00081FF02C05F9A01C05F985E9A5E9880FFC4
:100CD00002C05F9A01C05F985E9A5E98089580E0B6
:100CE0000E94360680E00E94360680E00E943606AA
:100CF00080E00C943606CF93DF9397FD4F96EC017E
:100D0000E5E0D595C795EA95E1F78FEF0E943606A5
:100D100080E00E94360680E00E94360680E00E9455
:100D20003606219790F7DF91CF91089587FF02C093
:100D30005C9A01C05C985E9A5E9886FF02C05C9ADD
:100D400001C05C985E9A5E9885FF02C05C9A01C003
:100D50005C985E9A5E9884FF02C05C9A01C05C98C1
:100D60005E9A5E9883FF02C05C9A01C05C985E9AAE
:100D70005E9882FF02C05C9A01C05C985E9A5E98A1
:100D800081FF02C05C9A01C05C985E9A5E9880FF09
:100D900002C05C9A01C05C985E9A5E98089580E0FB
:100DA0000E94960680E00E94960680E00E949606C9
:100DB00080E00C949606CF93DF9397FD4F96EC015D
:100DC000F5E0D595C795FA95E1F78FEF0E94960665
:100DD00080E00E94960680E00E94960680E00E94D5
:100DE0009606219790F7DF91CF910895FF920F9388
:100DF0001F93CF93DF93EC01809146038F5F982F71
:100E000097709093460380FD02C080E001C080E8A7
:100E100091FD8064947009F08062A0E1FA2EF80ED2
:100E200020E030E000E011E0FE01E20FF31F6285F8
:100E3000662331F070E0C8010E9472226F5F01C02A
:100E400060E067834F2D469F412D11244483662324
:100E500011F0615067832F5F3F4F2330310521F739
:100E6000DF91CF911F910F91FF900895FC016130A8
:100E700011F40C94F60611861086178216821582DC
:100E800014820895AF92BF92CF92DF92EF92FF92B9
:100E90000F931F93CF93DF93CDB7DEB72F970FB686
:100EA000F894DEBF0FBECDBF6C01CB018A01F90102
:100EB000D6011C966C919A8389835C834B838081D5
:100EC0008B8781818C8782818D87CE0101960E94DC
:100ED00036071E86BFE0CB0ED11CC6010E94170646
:100EE0000E94CF06E12CF12CE016F1060CF04EC06A
:100EF000E981FA812281222329F03F81230F08F41E
:100F00002FEF01C020E03D85239F212D11248FEF7D
:100F10002F870E9496062F85822F0E949606E981D0
:100F2000FA812181222329F03E81230F08F42FEF3B
:100F300001C020E03C85239F212D1124A22EB12C3D
:100F4000BA2CAA242081222329F03D81230F08F402
:100F50002FEF01C020E03B85239F212D1124A22AE1
:100F60008B2D0E9496068A2D0E94960688859D816B
:100F7000891B8D8389859E81891B8E838A859F81AC
:100F8000891B8F838FEFE81AF80AAECFC8010E9441
:100F9000DB06C6010E9424062F960FB6F894DEBF2A
:100FA0000FBECDBFDF91CF911F910F91FF90EF90BA
:100FB000DF90CF90BF90AF900895AF92BF92CF9245
:100FC000DF92EF92FF920F931F93CF93DF93CDB7F2
:100FD000DEB72F970FB6F894DEBF0FBECDBF6C0102
:100FE000CB018A01F901D6011C966C919A83898301
:100FF0005C834B8380818B8781818C8782818D8705
:10100000CE0101960E9436071E86BFE0CB0ED11C92
:10101000C6010E94F8050E946F06E12CF12CE01633
:10102000F1060CF04EC0E981FA812281222329F0D9
:101030003F81230F08F42FEF01C020E03D85239F5F
:10104000212D11248FEF2F870E9436062F85822FA6
:101050000E943606E981FA812181222329F03E810E
:10106000230F08F42FEF01C020E03C85239F212DA2
:101070001124A22EB12CBA2CAA242081222329F0DB
:101080003D81230F08F42FEF01C020E03B85239F13
:10109000212D1124A22A8B2D0E9436068A2D0E9412
:1010A000360688859D81891B8D8389859E81891B54
:1010B0008E838A859F81891B8F838FEFE81AF80AB8
:1010C000AECFC8010E947B06C6010E9405062F967E
:1010D0000FB6F894DEBF0FBECDBFDF91CF911F9149
:1010E0000F91FF90EF90DF90CF90BF90AF90089559
:1010F000AF92BF92CF92DF92EF92FF920F931F9326
:10110000CF93DF93CDB7DEB72F970FB6F894DEBF3E
:101110000FBECDBF6C01CB018A01F901D6011C962F
:101120006C919A8389835C834B8380818B878181D7
:101130008C8782818D87CE0101960E94360783E0DD
:101140008E87BFE0CB0ED11CC6010E94F8050E941D
:101150006F06E12CF12CE016F1060CF05BC0E98182
:10116000FA812281222329F03F81230F08F42FEFF7
:1011700001C020E03D85239F212D11248FEF2F8773
:101180000E9436062F85822F0E943606E981FA8159
:101190002181222329F03E81230F08F42FEF01C083
:1011A00020E03C85239F212D1124A22EB12CBA2CA6
:1011B000AA242081222329F03D81230F08F42FEF58
:1011C00001C020E03B85239F212D1124A22A8B2DD5
:1011D0000E9436068A2D0E9436068E8529813A8124
:1011E000280F311D3A8329832B813C8121503109FD
:1011F0003C832B8388859D81891B8D8389859E8176
:10120000891B8E838A859F81891B8F838FEFE81AC4
:10121000F80AA1CFC8010E947B06C6010E940506FC
:101220002F960FB6F894DEBF0FBECDBFDF91CF91E2
:101230001F910F91FF90EF90DF90CF90BF90AF90F4
:101240000895AF92BF92CF92DF92EF92FF920F93E9
:101250001F93CF93DF93CDB7DEB72F970FB6F894D8
:10126000DEBF0FBECDBF6C01CB018A01F901D601F3
:101270001C966C919A8389835C834B8380818B87D6
:1012800081818C8782818D87CE0101960E943607ED
:1012900083E08E87BFE0CB0ED11CC6010E941706EB
:1012A0000E94CF06E12CF12CE016F1060CF05BC099
:1012B000E981FA812281222329F03F81230F08F45A
:1012C0002FEF01C020E03D85239F212D11248FEFBA
:1012D0002F870E9496062F85822F0E949606E9810D
:1012E000FA812181222329F03E81230F08F42FEF78
:1012F00001C020E03C85239F212D1124A22EB12C7A
:10130000BA2CAA242081222329F03D81230F08F43E
:101310002FEF01C020E03B85239F212D1124A22A1D
:101320008B2D0E9496068A2D0E9496068E85298115
:101330003A81280F311D3A8329832B813C8121502A
:1013400031093C832B8388859D81891B8D83898509
:101350009E81891B8E838A859F81891B8F838FEF56
:10136000E81AF80AA1CFC8010E94DB06C6010E9454
:1013700024062F960FB6F894DEBF0FBECDBFDF91C7
:10138000CF911F910F91FF90EF90DF90CF90BF9082
:10139000AF9008958BE595E00E943A170197A9F563
:1013A0008091F00481110BC044EF51E060E070E0E7
:1013B00080EE94E00E945B0B81E08093F0048BE56B
:1013C00095E00E945217811104C080EE94E00E94C3
:1013D000A70B80EE94E00E94610B8823B1F06EEFC2
:1013E00070E085EA95E00E94412085EA95E00E9440
:1013F0006F2063E075E08AEF94E00E948B1B40E071
:1014000061E081E893E00C9459020895AF92BF9295
:10141000CF92DF92EF92FF920F931F938BE595E0AF
:101420000E943A17019709F0A5C08BE595E00E944C
:1014300048178BE595E00E9448178F379D4140F48F
:101440008BE595E00E944817BC0180E090E004C065
:101450006EE77DE180E090E01F921F921F922DE6E3
:101460002F93A12CB12C6501E12CF12C87012EE7E3
:101470003DE140E050E00E94062281E893E00E94B6
:10148000EB028BE595E00E943E178BE595E00E940C
:101490003E170F900F900F900F908739994140F4AD
:1014A0008BE595E00E943E17BC0180E090E004C00F
:1014B00066E979E180E090E01F921F921F9227E396
:1014C0002F93A12CB12C650116E9E12E19E1F12E23
:1014D00000E010E020E030E0A9010E94062281E84F
:1014E00093E00E9409030F900F900F900F9080914E
:1014F000E80481110BC044EF51E060E070E088ED3A
:1015000094E00E945B0B81E08093E8048BE595E01A
:101510000E945217882321F088ED94E00E94A70BC7
:1015200088ED94E00E94610B811106C08BE595E087
:101530000E943A170197F1F067EE70E085EA95E0B6
:101540000E94412085EA95E00E946F2069E075E0E5
:101550008AEF94E00E948B1B40E060E081E893E01A
:101560001F910F91FF90EF90DF90CF90BF90AF90C1
:101570000C9459021F910F91FF90EF90DF90CF9044
:10158000BF90AF9008950F93CF93DF93CDB7DEB7A1
:1015900028970FB6F894DEBF0FBECDBF26E040E01F
:1015A00052EC61E070E085EA95E00E94EC1E0FE1EC
:1015B0002BE54DE96FEF8BE595E00E94871748EE2C
:1015C00053E060E070E0CE0101960E945B0BCE011B
:1015D00001960E94610B811105C08BE595E00E9488
:1015E000AC16F5CF81E893E00E94750228960FB6FD
:1015F000F894DEBF0FBECDBFDF91CF910F9108955C
:101600008BE595E00E94AC16882321F08BE595E0F0
:101610000E94D0158BE595E00E943A172091F804BE
:101620003091F9048217930761F18BE595E00E94F0
:101630003A17892B19F440E062E017C08BE595E07A
:101640000E943A17029719F440E063E00EC08BE560
:1016500095E00E943A17019761F469E075E08AEF1E
:1016600094E00E948B1B40E060E081E893E00E94E0
:1016700059028BE595E00E943A179093F904809304
:10168000F8048AEF94E00E94B71B81E893E00C9481
:101690008C056AEC79E089E095E00E945E1B66E0CB
:1016A0007AE083E095E00E945E1B69E075E08AEFD6
:1016B00094E00C947F1BFC014483558366837783FD
:1016C00008958F929F92AF92BF92CF92DF92EF9246
:1016D000FF920F931F93CF93DF93EC010E94971C0F
:1016E0008C809D80AE80BF8081149104A104B104E0
:1016F00029F4688379838A839B8319C008811981BF
:101700002A813B816B017C01C01AD10AE20AF30AEB
:10171000C814D904EA04FB0460F0B901A801480D1B
:10172000591D6A1D7B1D488359836A837B8381E031
:1017300001C080E0DF91CF911F910F91FF90EF905A
:10174000DF90CF90BF90AF909F908F900895CF93F0
:10175000DF93EC010E94971C688379838A839B83C3
:10176000DF91CF910895089580910F059091100514
:10177000DC01ED91FC910484F585E02D0994CF9373
:10178000DF93EC0161E08A810E94A81D89858CBDF0
:101790008A858DBD7894DF91CF910895FC01F894EE
:1017A0008CB581878DB582878CB5837F8CBD8CB5D8
:1017B0008F7D8CBD8CB58C7F8CBD8DB58E7F8DBDA6
:1017C00060E082810C94A81DF894209119052330C3
:1017D00021F42091150521110FC020911905233006
:1017E00011F4789407C0DC01ED91FC910288F38933
:1017F000E02D099580E00895DC01ED91FC910488CD
:10180000F589E02D61E0099581E008958EBD000025
:101810000DB407FEFDCF8EB50895CF93DF931F92D1
:10182000CDB7DEB7DC01ED91FC910480F581E02DB0
:10183000698309956981882359F080911705861776
:1018400011F06F3F29F49091130581E0911101C0CF
:1018500080E00F90DF91CF9108952F923F924F92A9
:101860005F927F928F929F92AF92BF92CF92DF92C0
:10187000EF92FF920F931F93CF93DF93EC01962E7D
:101880005A01722E802E10E0CE2CD12CE12CF12C9E
:10189000E881F9810190F081E02D01E0272DA5017B
:1018A000692DCE0109950E94971C1B012C010E94F5
:1018B000971C62197309840995096C157D058E05BD
:1018C0009F0540F4692DCE010E940D0C882379F309
:1018D00081E004C01F5F8116D8F680E0DF91CF91D0
:1018E0001F910F91FF90EF90DF90CF90BF90AF903E
:1018F0009F908F907F905F904F903F902F90089592
:10190000EF92FF921F93CF93DF931F92CDB7DEB775
:101910007C01DC01ED91FC91008CF18DE02D69835F
:1019200009956981862F8F770E94060C80E00E94BE
:10193000060C182FD701ED91FC91028CF38DE02D50
:10194000C7010995812F0F90DF91CF911F91FF90D3
:10195000EF9008950F931F93CF93DF9300D0CDB7EF
:10196000DEB78C01DC01ED91FC91008CF18DE02D56
:101970004A83698309956981862F80680E94060CD5
:101980004A81842F0E94060CD801ED91FC91028CB3
:10199000F38DE02DC8010F900F90DF91CF911F9133
:1019A0000F9109941F93CF93DF93EC01162F809131
:1019B0001905681709F461C0623009F440C070F479
:1019C000662309F444C0613009F057C061E0CE01DC
:1019D0000E94800C482F437E44603FC06330C1F0BA
:1019E000643009F04AC061E0CE010E94800C482FAB
:1019F000437E4C6061E0CE010E94AA0C888588235A
:101A000081F1E881F9810688F789E02D61E014C051
:101A100061E0CE010E94800C482F437E406161E06E
:101A2000CE010E94AA0C88858823D9F0E881F9812B
:101A30000688F789E02D60E0CE01099512C061E0CB
:101A4000CE010E94800C482F437E486006C061E0B2
:101A5000CE010E94800C482F437E61E0CE010E949F
:101A6000AA0C80911905811106C067E2CE010E947F
:101A7000800C87FFF6CF10931905DF91CF911F914E
:101A80000895CF93DF93EC01603208F06FE16F832C
:101A90008885882311F066956F8361E1CE010E94ED
:101AA000800C482F407E8F81482B61E1CE01DF9171
:101AB000CF910C94AA0CCF92DF92EF92FF920F93EA
:101AC0001F93CF93DF93EC01F62ED42EC52E122F49
:101AD000E881F9810488F589E02D61E0099567E2E4
:101AE000CE010E94800C87FFFACF40E065E2CE0174
:101AF0000E94AA0C1E3308F01DE3E11004C000236D
:101B000019F000E401C000E8E881F981008CF18D52
:101B1000E02DCE01099580E80E94060C83E0810F3C
:101B20000E94060C8F2D0E94060C8D810E94060CCF
:101B3000802F0E94060C0D2DED2CFC2C8E2D801B71
:101B4000811730F4F70181917F010E94060CF6CFD6
:101B5000E881F981028CF38DE02DCE010995E881B1
:101B6000F9810488F589E02D64E0CE0109950E9491
:101B7000971C6B017C018B810E94DE1D892B81F0FB
:101B8000E881F9810488F589E02D61E0CE01DF91DB
:101B9000CF911F910F91FF90EF90DF90CF9009941C
:101BA0000E94971C6C197D098E099F09683E73403D
:101BB0008105910528F7DFCFCF93DF93EC011092D9
:101BC000180510921705109216051092150510921F
:101BD000140510921305109212051092110568E277
:101BE0000E94800C82FF0AC06DE3CE010E94800C2F
:101BF000482F44606DE3CE010E94AA0C40E465E2E8
:101C0000CE010E94AA0CE881F9810488F589E02DB3
:101C100063E0CE01DF91CF910994DF92EF92FF92C2
:101C20000F931F93CF93DF93EC018B01E881F98130
:101C30000488F589E02D61E0099501151105E1F0B1
:101C4000E881F981008CF18DE02DCE0109958EEBB4
:101C50000E94060C7801D12CF70181917F010E942E
:101C6000060CD394F0E1DF12F7CFE881F981028C02
:101C7000F38DE02DCE0109956DE3CE010E94800C1D
:101C80008E7F91E0012B09F490E0482F492B6DE302
:101C9000CE01DF91CF911F910F91FF90EF90DF90D8
:101CA0000C94AA0C8F929F92AF92BF92DF92EF9208
:101CB000FF920F931F93CF93DF93CDB7DEB7AE970D
:101CC0000FB6F894DEBF0FBECDBF7C01D42E8EE2DE
:101CD0008E010F5F1F4FD801E82F1D92EA95E9F79B
:101CE00091E0998334E03A8342E04B8393E09D8313
:101CF0004E833F8340E4488735E039879A8796E0F2
:101D00009B8793E39C8737E03D8798E09F8799E026
:101D1000998B99E19B8B92E49C8B55E25D8B4E8B6A
:101D200046E24F8B388F38E2398F30E13A8F39E213
:101D30003B8F3CED3C8F8D8F88E88E8F8FE28F8FAD
:101D40008DE288A380E389A337E33BA330E93CA37A
:101D500038E33DA39EA39CE39FA39FE898A79DE340
:101D600099A792E19AA79FE69BA78CA78FEF8DA7D3
:101D70006F3131F06B3231F0663531F489ED05C0E9
:101D80008EE403C08CE601C084EE8E876F3141F093
:101D90006B3221F0663521F480E003C080E401C09D
:101DA00080EC888B2AA361E0D70112968C910E9467
:101DB000A81D61E0F70182810E946F1D0E945911E8
:101DC0000E94971C4B015C014AEA6FE2C7010E9426
:101DD000AA0C6FE2C7010E94800C8A3A59F00E9457
:101DE000971C681979098A099B0962337105810575
:101DF000910550F30E94971C4B015C0145E56FE291
:101E0000C7010E94AA0C6FE2C7010E94800C8535B1
:101E100059F00E94971C681979098A099B09623355
:101E200071058105910550F3B12CF801EB0DF11D01
:101E3000EB0DF11D60816F3F31F04181C7010E94C0
:101E4000AA0CB394F2CF60E070E0C7010E940D0EBF
:101E5000D701ED91FC9111970084F185E02D189642
:101E60006C91C7010995D701ED91FC910488F58922
:101E7000E02D61E0C70109950E94971C4B015C01B0
:101E800067E2C7010E94800C87FD0BC00E94971C6F
:101E9000681979098A099B096233710581059105E1
:101EA00078F30E94971C681979098A099B096233A3
:101EB00071058105910588F443E050E064EB7BE017
:101EC000F70184810E94D31BF0921005E0920F0568
:101ED000D7011596DC9281E001C080E0AE960FB686
:101EE000F894DEBF0FBECDBFDF91CF911F910F9150
:101EF000FF90EF90DF90BF90AF909F908F900895EC
:101F0000CF93DF93EC0161110DC064E2CE010E941A
:101F1000800C90E091958195910995958795DF9139
:101F2000CF91089541E063E20E94AA0C63E2CE01E2
:101F30000E94800C81FFFACFE8CFCF93DF93EC01B2
:101F4000809119058330A9F480911505811111C084
:101F500060E0CE010E94800F863A9F4F54F4E881E2
:101F6000F9810488F589E02D61E0CE01099581E0D1
:101F700001C080E0DF91CF910895FF920F931F93EE
:101F8000CF93DF93EC0180911905833001F568E26E
:101F9000CE010E94800C82FD28C019C080911805D6
:101FA0008D3330F4E0911805F0E0E65EFA4F1082D0
:101FB000E881F981028CF38DE02DCE010995E8814D
:101FC000F9810488F589E02D63E0CE01099560E090
:101FD000CE010E94800F9093120580931105DF912E
:101FE000CF911F910F91FF900895E881F9810488A6
:101FF000F589E02D61E0CE010995E881F981008C39
:10200000F18DE02DCE01099580E00E94060C80E064
:102010000E94060C80931505809115058334D0F439
:10202000809115058093150580E00E94060C809331
:1020300016058E81811109C0909116058D81981722
:1020400021F0809116058F3F39F48091150583307A
:1020500018F017C082E4E6CF10921505E881F981E7
:10206000028CF38DE02DCE010995E881F98102887B
:10207000F389E02DCE01DF91CF911F910F91FF9059
:1020800009948091150583508093180580E00E9483
:10209000060C8093170580E00E94060C982F90781C
:1020A00090931305982F907490931405E881F9810B
:1020B0000684F785E02D682FCE010995F12C8091DB
:1020C0001805F81608F06ACF0F2D10E080E00E9486
:1020D000060CF801E65EFA4F8083F394F0CF4F923E
:1020E0005F926F927F929F92AF92BF92EF920F9307
:1020F0001F93CF93DF93EC01162F5A01922E6DE3BD
:102100000E94800C482F44606DE3CE010E94AA0C0F
:102110000E94971C2B013C01CE010E949D0F882339
:10212000C1F0E881F9810088F189E02DE12C292DA9
:10213000A501612FCE010995DF91CF911F910F91DC
:10214000EF90BF90AF909F907F906F905F904F9077
:1021500008950E94971C6419750986099709683EBD
:10216000734081059105E8F6E881F9810480F581E5
:10217000E02DCE010995D0CF4F925F926F927F9262
:102180009F92AF92BF92CF92DF92EF92FF920F9306
:10219000CF93DF93EC015B01942E10921405F09025
:1021A0001705C0901105D09012056DE30E94800CB8
:1021B000482F44606DE3CE010E94AA0C0E94971C38
:1021C0002B013C01CE010E949D0F882311F1F0925A
:1021D0001705E881F9810088F189E02DEE24E39468
:1021E00000E0292DA5016F2DCE010995D092120591
:1021F000C0921105DF91CF910F91FF90EF90DF908A
:10220000CF90BF90AF909F907F906F905F904F90D6
:1022100008950E94971C6419750986099709683EFC
:1022200073408105910598F6E881F9810480F58174
:10223000E02DCE010995C6CFCF93DF93EC016887DF
:10224000662311F04FE001C04AE163E1CE010E9434
:10225000AA0C8885882341F061E1CE010E94800CA0
:10226000482F4F71406602C04F81406861E1CE0146
:10227000DF91CF910C94AA0C1F93CF93DF93EC01C5
:10228000162F662311F04DE501C045E56AE5CE0144
:102290000E94AA0C112311F04CE701C040E76CE545
:1022A000CE01DF91CF911F910C94AA0CFC016683A3
:1022B0000895CF93CFB7F89480915A05811127C024
:1022C000E1E1F3E08491EDEFF2E09491E82FF0E0AA
:1022D000EE0FFF1FE15DFC4FA591B4918C91892316
:1022E00021F461E08AE00E94A81D61E08AE00E947A
:1022F0006F1D8CB580618CBD8CB580648CBD61E038
:102300008DE00E946F1D61E08BE00E946F1D809147
:102310005A058F5F80935A05CFBFCF910895FC0176
:1023200080E5858316826083528341830895FC0192
:102330008CB583838DB58483358126818091590541
:10234000882399F09FB7F89480915905813059F40A
:102350008DB3809357054DB38091580580958423A4
:102360008DBB9FBF02C0909357053CBD2DBD60E063
:1023700080810C94A81DCF93DF93EC0161E08881EC
:102380000E94A81D80915905882361F09FB7F89499
:102390002091590580915705213019F48DBB9FBFBD
:1023A00001C08FBF8B818CBD8C818DBDDF91CF91A2
:1023B00008951F93CF93DF93EC010E94971185E05E
:1023C0000E94060C80E00E94060C182FCE010E948D
:1023D000BB11812FDF91CF911F9108950E94D911D8
:1023E000817008951F93CF93DF93EC01162F442340
:1023F00039F040E066E00E94F211CE010E94BB116C
:10240000CE010E94EE118111FBCFCE010E949711E7
:10241000812FDF91CF911F910C94060CEF92FF92C8
:102420000F931F93CF93DF9300D0CDB7DEB77C011E
:10243000142F062F41E062E02A8359830E94F21193
:10244000802F0E94060C5981852F0E94060C812F37
:102450000E94060C2A81822F0E94060CC7010F9051
:102460000F90DF91CF911F910F91FF90EF900C94FF
:10247000BB112F923F924F925F926F927F928F92F9
:102480009F92AF92BF92CF92DF92EF92FF920F9303
:102490001F93CF93DF936C012A013B015901CA01BD
:1024A0009927C0E0D1E0C81BD90BE12CF12C011514
:1024B000110579F10C171D0708F4E80141E062E00D
:1024C000C6010E94F211862D0E94060C852D0E94E5
:1024D000060C842D0E94060C15012E0C3F1C410198
:1024E000F40181914F010E94060CC40182199309E5
:1024F0008C179D07A8F3C6010E94BB114C0E5D1EF0
:10250000611C711CEC0EFD1E0C1B1D0BC0E0D1E00C
:10251000CECFDF91CF911F910F91FF90EF90DF9081
:10252000CF90BF90AF909F908F907F906F905F9073
:102530004F903F902F900895EF92FF920F931F932B
:10254000CF93DF931F92CDB7DEB77C01142F062FF8
:1025500041E062E559830E94F211802F0E94060C2F
:102560005981852F0E94060C812F0E94060CC701FD
:102570000F90DF91CF911F910F91FF90EF900C94EE
:10258000BB11FC01DB018AE591E091838083129607
:102590008C911297828313968C9113978383149650
:1025A0008C911497848315968C9115978583169634
:1025B0008C911697868317968C9117978783189618
:1025C0008C911897808719968C91199781871A9604
:1025D0008C9182870895CF92DF92FF920F931F9381
:1025E000CF93DF93CDB7DEB70DB71EB7262F30E000
:1025F000220F331FA9014F5F5F4FEDB7FEB7E41BFA
:10260000F50B0FB6F894FEBF0FBEEDBF4DB75EB72A
:102610004F5F5F4FDA01F82E6C018C2D8F198617F2
:10262000C8F4C601F601708172957F7070637A33C9
:1026300008F0795D7C93FFEFCF1ADF0AFC018081FF
:102640008F7080638A3308F0895D11968C9311979F
:102650001296E3CFFA01E20FF31F1082BA0185EA66
:1026600095E00E9473200FB6F8941EBF0FBE0DBFF9
:10267000DF91CF911F910F91FF90DF90CF90089540
:102680002F923F924F925F926F927F928F929F9282
:10269000AF92BF92CF92DF92EF92FF920F931F9370
:1026A000CF93DF93CDB7DEB76C970FB6F894DEBF4C
:1026B0000FBECDBF4C016B8FE98AFA8A0B8B1C8B46
:1026C0002D8B3E8B4F8BAA8E46E06CE872E00E9409
:1026D000BC10CC2031F06AE971E085EA95E00E94F7
:1026E000732040E050E0BA01CE0141960E949C1256
:1026F00007E010E02CEA31E040E050E0BA01CE0102
:1027000041960E9439122AE349E050E060E070E00F
:10271000CE0141960E940E120E94971C1B012C01B3
:102720005AE0E52EF12CA12CB12C9E012F5F3F4FDA
:10273000398F288FC4010E94E40B882301F1809116
:1027400017053B8D83131BC0D0901805B3E0BD1552
:1027500020F480911A058634F9F061E08A8D0E9498
:102760006F1D61E08A8D0E94A81D61E070E080E02D
:1027700090E00E94C61C60E08A8D0E94A81D0E9405
:10278000971C6219730984099509693B7B4081058F
:10279000910580F280E022C180911B058C34E9F61E
:1027A00080911C058835C9F680911D058A3309F092
:1027B000AAC046E04D1508F0A6C084E090E000E015
:1027C00010E0782E2FEF280FFC01E65EFA4F3081E3
:1027D0003033A0F030813A3388F42081AAE0A80198
:1027E000A49F8001A59F100D112400531109020F11
:1027F000111D01968830910521F707C030813A33C9
:10280000C1F754E0751631F2722ECC20C1F064EBA2
:1028100071E085EA95E00E9466204AE050E06D2D67
:1028200085EA95E00E943D216CEB71E085EA95E038
:102830000E9466206D2D8AE195E00E94EB12E1E096
:10284000E70DF0E0E65EFA4F80818A3309F0A2CF0F
:102850000E94971C1B012C010A151B0539F0C501AC
:1028600001970817190709F04EC029C032E0370D4B
:1028700058018FEFA81AB80A3D1508F5E32FF0E0CC
:10288000E65EFA4F208137019FEF691A790AA701A6
:1028900060E070E0CE0141963C8F0E940E12C301B1
:1028A0009F773C8D892B41F4A30160E070E0CE015D
:1028B00041960E949C123C8D3F5F7301DDCF1F93B8
:1028C0000F93A1ECB1E0BF93AF93398D3F93488D47
:1028D0004F930E94EC22482F0F900F900F900F9073
:1028E0000F900F90CC2049F0BE016F5F7F4F85EABB
:1028F00095E04C8F0E9473204C8DBE016F5F7F4F1F
:10290000C4010E94BC1080911D058F3309F025CFB2
:1029100054E0D51210C046E06CE872E0C4010E9499
:10292000BC10CC2009F419CF6BEC71E085EA95E07E
:102930000E94732012CF87E0D8120FCF80911E051E
:10294000853409F00ACF80911F058F3409F005CF37
:1029500080912005863409F000CF87010A501109C3
:102960000130BCE71B0778F0CC2031F069ED71E055
:1029700085EA95E00E94732047E066EF71E0C401AC
:102980000E94BC1007CF46E06CE872E0C4010E94D0
:10299000BC10CC2031F06CE872E085EA95E00E9432
:1029A0007320212F47E050E060E070E0CE014196B7
:1029B0000E940E1226EF2E0D48E050E060E070E01D
:1029C000CE0141960E940E122AE349E050E060E0F9
:1029D00070E0CE0141960E940E1281E06C960FB617
:1029E000F894DEBF0FBECDBFDF91CF911F910F9145
:1029F000FF90EF90DF90CF90BF90AF909F908F901F
:102A00007F906F905F904F903F902F900895C82FC8
:102A1000882331F06EEC72E085EA95E00E94662032
:102A200088E028E130E00FB6F894A8952093600084
:102A30000FBE80936000CC2331F06EE285EA95E012
:102A40000E946820FACFFFCFAF92BF92CF92DF9261
:102A5000EF92FF920F931F93CF93DF93CDB7DEB723
:102A600062970FB6F894DEBF0FBECDBF0C871D87EF
:102A70002E873F87488B598B6A8BDE2C2091180557
:102A8000243008F45CC020911A05263409F057C0A0
:102A900020911B052C3409F052C020911C052835CB
:102AA00009F04DC020911D052F3309F048C0B090AA
:102AB0001705209118052730A1F420911E05253413
:102AC00081F420911F052F3461F4209120052634D4
:102AD00041F400E026E04CE852E06B2D0E946F10BC
:102AE0002EC0BC01CE0101960E94C112AC2CCD2C8F
:102AF000EC84FD840E851F85288939894A896B2DD0
:102B0000CE0101960E944013882359F0DD2031F058
:102B100068ED72E085EA95E00E9466208D2D0E94A6
:102B20000715DD2061F069EF72E085EA95E00E940B
:102B3000662062E273E085EA95E00E947320629667
:102B40000FB6F894DEBF0FBECDBFDF91CF911F91BE
:102B50000F91FF90EF90DF90CF90BF90AF900895CE
:102B6000EF92FF920F931F93CF93DF931F92CDB7F6
:102B7000DEB77C01FC0100811181C80169830E94DC
:102B8000E0246981681719F0C8010E94E824C70190
:102B90000F90DF91CF911F910F91FF90EF900895CB
:102BA000CF92DF92EF92FF920F931F93CF93DF9319
:102BB000EC011D8963E671E085EA95E00E94412001
:102BC0004AE050E0612F85EA95E00E943D210C81AA
:102BD0001D81EA80FB80C880D98065E571E085EAC7
:102BE00095E00E9441204AE050E0B60185EA95E078
:102BF0000E9444216BE571E085EA95E00E94412046
:102C00004AE050E0B70185EA95E00E9444216FE573
:102C100071E085EA95E00E9441204AE050E0B80169
:102C200085EA95E00E9444210C851D85EE80FF8099
:102C30006AE471E085EA95E00E9441204AE050E0B4
:102C4000B70185EA95E00E94442160E571E085EADC
:102C500095E00E9441204AE050E0B80185EA95E005
:102C60000E94442163E571E085EA95E00E944120DD
:102C70000E851F85E884F9846FE371E085EA95E0AD
:102C80000E9441204AE050E0B70185EA95E00E94A9
:102C9000442165E471E085EA95E00E9441204AE024
:102CA00050E0B80185EA95E00E94442168E471E0B3
:102CB00085EA95E00E944120088919890A84DB850C
:102CC000C02D64E371E085EA95E00E9441204AE06E
:102CD00050E0BE0185EA95E00E9444216AE371E07C
:102CE00085EA95E00E9441204AE050E0B80185EA7B
:102CF00095E00E9444216DE371E085EA95E00E9431
:102D0000412085EA95E0DF91CF911F910F91FF90CF
:102D1000EF90DF90CF900C946F200F931F93CF9381
:102D2000DF938C01EB0166E171E085EA95E00E949A
:102D300041204AE050E0BE0185EA95E00E9428214A
:102D400085EA95E00E946F20F801D38BC28BDF915A
:102D5000CF911F910F910895AF92BF92CF92EF92B2
:102D60000F931F93CF93DF93CDB7DEB72B970FB69B
:102D7000F894DEBF0FBECDBF5C0146960E94E40B07
:102D8000882309F45FC080911805823169F4EAE173
:102D9000F5E0D50101900D928A95E1F78091170534
:102DA000F501858B81E057C090911605F501848966
:102DB00098132CC08AE591E09A838983808D8B8358
:102DC000818D8C83828D8D83838D8E83848D8F8383
:102DD000858D8887868D8987878D8A8780A18B8757
:102DE00089E0C82EE12C00917C0510917D05209191
:102DF0007E0530917F05409180055091810560915D
:102E00008205CE0101960E9424151CC080911805F0
:102E1000823029F460911A0570911B0510C08091D1
:102E200017058E3F79F466E771E085EA95E00E9428
:102E3000412085EA95E00E946F2062E070E0C501C4
:102E40000E948D16F50182899389039719F481E018
:102E50000E94071580E02B960FB6F894DEBF0FBED8
:102E6000CDBFDF91CF911F910F91EF90CF90BF9089
:102E7000AF900895FC01828993890895FC0124890B
:102E8000E20FF11DE20FF11D7C9780819181089581
:102E9000FC012489E20FF11DE20FF11DB297808140
:102EA00091810895FC01808191818F3A954168F06C
:102EB000828193818F3A954140F081E02481358170
:102EC0002F3A354118F080E0089581E0089540E3FD
:102ED0005FEE68E08CE795E00E948F118AE591E053
:102EE00090937205809371058AE08093730582E068
:102EF000809374051092750581E0809319051092F6
:102F000077058FE1809378051092790508959F9257
:102F1000AF92BF92CF92DF92EF92FF920F931F93E7
:102F2000CF93DF9300D0CDB7DEB77C01162F942E60
:102F3000A22E9AE2C92ED12C6DEC72E085EA95E0C2
:102F40000E94412085EA95E00E946F201F3FC9F44E
:102F50008AE290E00E94E024B82EF701848B6BEAAD
:102F600072E085EA95E00E9441204AE050E06B2D36
:102F700085EA95E00E943D2185EA95E00E946F2058
:102F80001AC067E872E085EA95E00E9441204AE0B5
:102F900050E0612F85EA95E00E943D2185EA95E0A9
:102FA0000E946F20DA82C982612FCE0101960E94B1
:102FB000B015F701148BF7014489493C28F16DE500
:102FC00072E085EA95E00E94412085EA95E00E9442
:102FD0006F2068E372E085EA95E00E94412085EA6F
:102FE00095E00E946F2085EA95E00E94091E892BDA
:102FF000D1F385EA95E00E940322DA82C982CE01EC
:1030000001960E94B01598CF6701F6E1CF0ED11C52
:10301000292D6A2DC6010E94520E61E0C6010E9450
:103020001C1161E0C6010E945611602FC6010E946A
:10303000410D8FEF9FEFF701958384839383828304
:103040009183808393878287918780879783868304
:10305000918B808B97878687958784878CE0858B7B
:1030600061E089E00E946F1D60E089E00E94A81D78
:1030700061E070E0C7010E948D1668E172E085EAA8
:1030800095E00E94412085EA95E00E946F2062EF62
:1030900071E085EA95E00E9441204AE050E068EE48
:1030A00085EA95E00E943D216EE072E085EA95E0B8
:1030B0000E9441204AE050E06DE170E085EA95E031
:1030C0000E94282185EA95E00E946F206FEB71E055
:1030D00085EA95E00E9441204AE050E065E070E01A
:1030E00085EA95E00E94282185EA95E00E946F20FC
:1030F000F701148963E971E085EA95E00E944120B7
:103100004AE050E0612F85EA95E00E943D2185EA82
:1031100095E00E946F200F900F90DF91CF911F914B
:103120000F91FF90EF90DF90CF90BF90AF909F9066
:10313000089511240895CF93DF93EC012881269FF1
:10314000212D28832981269F212D29832A81269FAD
:10315000212D2A830E949918CE01DF91CF910895E5
:10316000FA0120E030E00396261737076CF440811F
:10317000DC0113974C93418111964C934281119637
:103180004C932F5F3F4FEFCF0895CF92DF92EF9296
:10319000FF920F931F93CF93DF931F92CDB7DEB7AC
:1031A0007B018C01C12CD12CCE14DF0461F0642F83
:1031B000C80149830E949B188FEFC81AD80A0D5F77
:1031C0001F4F4981F1CF0F90DF91CF911F910F9148
:1031D000FF90EF90DF90CF90089540950C94C51824
:1031E0008F929F92AF92BF92EF92FF920F931F9395
:1031F000CF93DF93EC01188219821A824423B9F12C
:10320000E0E0F0E08B010A5F1F4F7B0189E0E80EF0
:10321000F11C842E912CA12CB12CD801AE0FBF1F14
:103220002C91D701AE0FBF1F6C912223E1F06623D2
:10323000D1F030E040E050E02F5F3F4F4F4F5F4F05
:1032400070E080E090E06F5F7F4F8F4F9F4F0E9454
:103250004E229B01AC01C501B4010E944E22DE0149
:10326000AE0FBF1F8C933196E330F105B1F6CE015E
:10327000DF91CF911F910F91FF90EF90BF90AF9092
:103280009F908F900895CF92DF92EF92FF92CF930D
:10329000DF93EC0180918705909188059C012F5F59
:1032A0003F4F3093880520938705861797079CF139
:1032B0000E94971C9B01AC01E0918705F091880565
:1032C00088EE93E0E89FB001E99F700DF89F700DC4
:1032D0001124882777FD8095982FC0908305D09082
:1032E0008405E0908505F09086052C193D094E096E
:1032F0005F090E9486223A832983109288051092E2
:1033000087050E94971C60938305709384058093C2
:10331000850590938605DF91CF91FF90EF90DF9028
:10332000CF900895AF92BF92CF92DF92EF92FF922B
:103330000F931F93CF93DF9300D01F92CDB7DEB7CB
:103340008C01B62EF80183819481A581B681892BE9
:103350008A2B8B2BD1F00E94A31CC0908905D090A2
:103360008A05E0908B05F0908C056C197D098E091B
:103370009F09D8011396CD90DD90ED90FC901697A3
:103380006C157D058E059F05E8F20E94A31C6093D5
:10339000890570938A0580938B0590938C05E09046
:1033A0008F05F0909005E114F10451F1F701A48428
:1033B000D80111968D919C9112978436910508F44D
:1033C0001486D701ED91FC91C280D3804B2DB701BB
:1033D000CE0101960E94F018F7014585568562815D
:1033E00073819E012F5F3F4FC701F6010995D701F9
:1033F0001C96AC921C971496ED90FC901597D3CF29
:1034000069E170E0C8010E9443190F900F900F907E
:10341000DF91CF911F910F91FF90EF90DF90CF90B0
:10342000BF90AF900895CF92DF92EF92FF920F93EB
:103430001F93CF93DF93EC014423F1F061157105E5
:1034400081F19B0140E050E060E472E48FE090E0A5
:103450000E94A822CB80DC80ED80FE8089019A0149
:103460000C151D052E053F0510F4970186010B83F1
:103470001C832D833E8315C06115710571F09B017E
:1034800040E050E060E472E48FE090E00E94A82207
:103490002B833C834D835E8304C01B821C821D8270
:1034A0001E82DF91CF911F910F91FF90EF90DF90DF
:1034B000CF900895CF92DF92EF92FF920F931F93D8
:1034C000CF93DF93EC016B018A0179011216130689
:1034D0001CF07A0100E010E0E881F9810480F581B8
:1034E000E02DCE010995C801880F991F800F911F0B
:1034F0008C0D9D1D9B838A83FE86ED86E881F98174
:103500000084F185E02DCE01099541E0BC0181E9FF
:1035100095E00E94131ACE01DF91CF911F910F9178
:10352000FF90EF90DF90CF9008958FEF80939105FB
:1035300010929305109292050895FC012081222398
:1035400021F0269F212D09F02F5FFC012083089593
:10355000FF920F931F93CF93DF9300D000D0CDB78E
:10356000DEB7FC018B014081F1805281842F8F7185
:10357000880F880F880F282F35E5239F212D1124D0
:10358000342F3074942F907247FD25C031110EC036
:10359000911106C0822F80958B832A8319823FC0A8
:1035A0008BEA8B832B5A2A83198239C091110DC063
:1035B000382F4AEA349F312D11249BEA931B9B83B9
:1035C00025552A83198280E02AC01B8280E0822F41
:1035D00080958A8312C0311112C091110BC01B82D9
:1035E000282F3AEA239F212D11248BEA821B8A83FC
:1035F0002B5A03C02B831A822095298310C0911166
:1036000006C085E5820F8B831A828BEA06C08BEA9F
:10361000820F8B831A8280E085E5821B89832FEFDE
:10362000F21601F16F2DCE0103965C830E949D1A64
:103630006F2DCE0102960E949D1A6F2DCE0101962C
:103640000E949D1A11246F2D6095669F612D112493
:103650008B81860F8B838A81860F8A838981860F6F
:1036600089835C815F3FC9F0F12C2F2D552321F018
:10367000559F212D09F02F5FF22E622FCE01039668
:103680000E949D1A6F2DCE0102960E949D1A6F2DE9
:10369000CE0101960E949D1A11248B81F80180832E
:1036A0008A818183898182830F900F900F900F9080
:1036B000DF91CF911F910F91FF900895FC0111822E
:1036C000108273836283158214820895DC01ED9168
:1036D000FC91309709F009940895DC011296ED9160
:1036E000FC911397309709F009940895DC01149622
:1036F000ED91FC911597309709F009940895FC011C
:1037000081E0808374836383728361831582168270
:10371000178210860895CF93DF93EC017C836B832F
:103720000E94971C6D837E838F839887CE01DF91E3
:10373000CF9108950F931F93CF93DF93EC018B01EB
:1037400089819A810E94761B1C830B831A830983CB
:10375000C8010E94661B0E94971C6D837E838F8325
:103760009887CE01DF91CF911F910F910895CF934C
:10377000DF93EC01288189819A81222321F00E9424
:10378000661B18820CC06B817C818617970719F025
:10379000CE010E949A1B89819A810E946D1BCE01E5
:1037A000DF91CF9108958230E8F4E82FF0E0EE0F3A
:1037B000FF1FE856FA4F71836083813041F080919A
:1037C00069008C7F842B80936900E89A089580912A
:1037D0006900440F551F440F551F837F842B80932E
:1037E0006900E99A08951F920F920FB60F92112463
:1037F0002F933F934F935F936F937F938F939F93F9
:10380000AF93BF93EF93FF938091980590919905A3
:10381000892B29F0E0919805F09199050995FF9180
:10382000EF91BF91AF919F918F917F916F915F9138
:103830004F913F912F910F900FBE0F901F901895B1
:103840001F920F920FB60F9211242F933F934F9315
:103850005F936F937F938F939F93AF93BF93EF93F8
:10386000FF9380919A0590919B05892B29F0E09117
:103870009A05F0919B050995FF91EF91BF91AF914A
:103880009F918F917F916F915F914F913F912F9178
:103890000F900FBE0F901F9018951F920F920FB6AA
:1038A0000F9211242F933F938F939F93AF93BF93C6
:1038B00080919D0590919E05A0919F05B091A005D6
:1038C00030919C0523E0230F2D3720F40196A11D94
:1038D000B11D05C026E8230F0296A11DB11D20933E
:1038E0009C0580939D0590939E05A0939F05B093A2
:1038F000A0058091A1059091A205A091A305B0918A
:10390000A4050196A11DB11D8093A1059093A20568
:10391000A093A305B093A405BF91AF919F918F9100
:103920003F912F910F900FBE0F901F9018952FB7BA
:10393000F89460919D0570919E0580919F059091EE
:10394000A0052FBF08953FB7F8948091A1059091ED
:10395000A205A091A305B091A40526B5A89B05C01A
:103960002F3F19F00196A11DB11D3FBF6627782F8B
:10397000892F9A2F620F711D811D911D42E0660FE4
:10398000771F881F991F4A95D1F70895CF92DF922C
:10399000EF92FF92CF93DF936B017C010E94A31CF7
:1039A000EB01C114D104E104F10489F00E944D221D
:1039B0000E94A31C6C1B7D0B683E734090F381E05A
:1039C000C81AD108E108F108C851DC4FEACFDF91ED
:1039D000CF91FF90EF90DF90CF900895789484B5C9
:1039E000826084BD84B5816084BD85B5826085BDFB
:1039F00085B5816085BDEEE6F0E0808181608083E1
:103A0000E1E8F0E0108280818260808380818160C3
:103A10008083E0E8F0E0808181608083E1EBF0E08A
:103A2000808184608083E0EBF0E08081816080832E
:103A3000EAE7F0E080818460808380818260808317
:103A40008081816080838081806880831092C10042
:103A500008958E3008F08E50877020910C0190E40C
:103A6000299F90011124822B80937C0080917A0001
:103A7000806480937A0080917A0086FDFCCF8091EB
:103A800078002091790090E0922B0895833081F0A6
:103A900028F4813099F08230A1F008958730A9F0A0
:103AA0008830B9F08430D1F4809180008F7D03C0DC
:103AB000809180008F7780938000089584B58F7700
:103AC00002C084B58F7D84BD08958091B0008F774A
:103AD00003C08091B0008F7D8093B0000895CF9394
:103AE000DF9390E0FC01ED50FD4F2491FC01E95F74
:103AF000FC4F8491882349F190E0880F991FFC01C5
:103B0000E15DFC4FA591B4918B5D9C4FFC01C5918B
:103B1000D4919FB7611108C0F8948C9120958223AD
:103B20008C93888182230AC0623051F4F8948C917E
:103B3000322F309583238C938881822B888304C015
:103B4000F8948C91822B8C939FBFDF91CF91089535
:103B50000F931F93CF93DF931F92CDB7DEB7282F1C
:103B600030E0F901E152FD4F8491F901ED50FD4F34
:103B70001491F901E95FFC4F04910023C9F08823F7
:103B800021F069830E94461D6981E02FF0E0EE0F6D
:103B9000FF1FEB5DFC4FA591B4919FB7F8948C91FA
:103BA000611103C01095812301C0812B8C939FBFAD
:103BB0000F90DF91CF911F910F910895CF93DF93D5
:103BC000282F30E0F901E152FD4F8491F901ED50C9
:103BD000FD4FD491F901E95FFC4FC491CC2391F0E2
:103BE00081110E94461DEC2FF0E0EE0FFF1FE55EF5
:103BF000FC4FA591B4912C912D2381E090E021F40C
:103C000080E002C080E090E0DF91CF9108950E94B3
:103C1000E722FC01818D228D90E0805C9F4F821B0A
:103C200091098F7399270895FC01918D828D9817C2
:103C300031F0828DE80FF11D858D90E008958FEFB2
:103C40009FEF0895FC01918D828D981761F0828D10
:103C5000DF01A80FB11D5D968C91928D9F5F9F73C0
:103C6000928F90E008958FEF9FEF089586EA9FE18D
:103C7000892B49F080E090E0892B29F00E94A61F53
:103C800081110C9400000895FC01848DDF01A80FC0
:103C9000B11DA35ABF4F2C91848D90E001968F7374
:103CA0009927848FA689B7892C93A089B1898C9193
:103CB00080648C93938D848D981306C00288F38959
:103CC000E02D80818F7D80830895CF93DF93EC0179
:103CD000888D8823C9F0EA89FB89808185FD05C02C
:103CE000A889B9898C9186FD0FC00FB607FCF5CF66
:103CF000808185FFF2CFA889B9898C9185FFEDCFAE
:103D0000CE010E94441EE7CFDF91CF910895CF925C
:103D1000DF92FF920F931F93CF93DF931F92CDB744
:103D2000DEB76C0181E0D60158968C9358975B966C
:103D30009C915B975C968C915C97981307C050960A
:103D4000ED91FC915197808185FD2EC0F601038D88
:103D500010E00F5F1F4F0F731127F02EF601848DB7
:103D6000F81211C00FB607FCF9CFD6015096ED91AD
:103D7000FC915197808185FFF1CFC60169830E9434
:103D8000441E6981EBCF838DE80FF11DE35AFF4F8D
:103D90006083D6015B960C935B975296ED91FC91F4
:103DA0005397808180620CC0D6015696ED91FC91AC
:103DB000579760835096ED91FC9151978081806474
:103DC000808381E090E00F90DF91CF911F910F9160
:103DD000FF90DF90CF900895BF92CF92DF92EF9245
:103DE000FF92CF93DF93EC016A017B01B22EE88949
:103DF000F98982E08083411581EE580761057105DC
:103E0000A1F060E079E08DE390E0A70196010E94C7
:103E10008622215031094109510956954795379518
:103E20002795211580E1380798F0E889F9891082F3
:103E300060E874E88EE190E0A70196010E94862276
:103E400021503109410951095695479537952795D4
:103E5000EC85FD853083EE85FF852083188EEC8907
:103E6000FD89B082EA89FB89808180618083EA894B
:103E7000FB89808188608083EA89FB8980818068F2
:103E80008083EA89FB8980818F7D8083DF91CF9158
:103E9000FF90EF90DF90CF90BF9008951F920F9208
:103EA0000FB60F9211242F938F939F93EF93FF934D
:103EB000E091B505F091B6058081E091BB05F091E8
:103EC000BC0582FD12C090818091BE058F5F8F730B
:103ED0002091BF05821751F0E091BE05F0E0EB554F
:103EE000FA4F958F8093BE0501C08081FF91EF91BD
:103EF0009F918F912F910F900FBE0F901F9018954B
:103F00001F920F920FB60F9211242F933F934F934E
:103F10005F936F937F938F939F93AF93BF93EF9331
:103F2000FF9385EA95E00E94441EFF91EF91BF91B7
:103F3000AF919F918F917F916F915F914F913F9141
:103F40002F910F900FBE0F901F90189585EA95E066
:103F50000E94091E21E0892B09F420E0822F089598
:103F60001092A8051092A70588EE93E0A0E0B0E0BB
:103F70008093A9059093AA05A093AB05B093AC05D7
:103F80008BE293E09093A6058093A50585EC90E0E5
:103F90009093B2058093B10584EC90E09093B405C2
:103FA0008093B30580EC90E09093B6058093B505BF
:103FB00081EC90E09093B8058093B70582EC90E097
:103FC0009093BA058093B90586EC90E09093BC0578
:103FD0008093BB051092BE051092BF051092C005DC
:103FE0001092C105089508950E94EE1C0E94F31FCF
:103FF0000E94C30AC6E3DEE10E94000B2097E1F3B2
:104000000E94361EF9CFCF92DF92EF92FF920F936C
:104010001F93CF93DF936C017A01EB01E60EF71E3D
:1040200000E010E0CE15DF0561F06991D601ED9159
:10403000FC910190F081E02DC6010995080F191F30
:10404000F1CFC801DF91CF911F910F91FF90EF90B9
:10405000DF90CF9008956115710581F0DB010D901F
:104060000020E9F7AD0141505109461B570BDC0117
:10407000ED91FC910280F381E02D099480E090E0C5
:104080000895EF92FF920F931F93CF93DF938C01CC
:10409000FB01C0E0D0E064917F018FEFE81AF80ADD
:1040A000662361F0D801ED91FC910190F081E02D43
:1040B000C8010995C80FD91FF701EDCFCE01DF91D7
:1040C000CF911F910F91FF90EF9008950C942B20AA
:1040D000DC01ED91FC910190F081E02D099467E302
:1040E00073E00C942B200F931F93CF93DF93EC017D
:1040F0000E942B208C01CE010E946F20800F911F07
:10410000DF91CF911F910F9108958F929F92AF925F
:10411000BF92CF92DF92EF92FF920F931F93CF93B4
:10412000DF93CDB7DEB7A1970FB6F894DEBF0FBE11
:10413000CDBF7C01C42EE52FCB01D22E19A221E0E8
:104140002D1510F02AE0D22E8E010F5D1F4F8D2C01
:10415000912CA12CB12C6C2D7E2FA50194010E94D5
:1041600086228C2DD29E80191124015011098A308B
:1041700014F4805D01C0895CF8018083211531054C
:104180004105510521F0C22EE32FCA01E4CFB80149
:10419000C7010E942B20A1960FB6F894DEBF0FBE78
:1041A000CDBFDF91CF911F910F91FF90EF90DF90E6
:1041B000CF90BF90AF909F908F900895CF92DF9255
:1041C000EF92FF920F931F93CF93DF93EC016A015D
:1041D0007B012115310579F4E881F9810190F081A5
:1041E000E02D642FDF91CF911F910F91FF90EF9001
:1041F000DF90CF9009942A303105E9F477FF1AC097
:104200006DE20E9468208C0144275527BA014C19A1
:104210005D096E097F092AE0CE010E948520800F8A
:10422000911FDF91CF911F910F91FF90EF90DF9041
:10423000CF9008952AE0B701A601CE01DF91CF917A
:104240001F910F91FF90EF90DF90CF900C948520FD
:104250009A01AB01662757FD6095762F0C94DE20FE
:104260002115310541F4DC01ED91FC910190F081C3
:10427000E02D642F09940C9485209A01462F50E07C
:1042800060E070E00C9430219A01AB0160E070E0D6
:104290000C9430210F931F93CF93DF93EC010E9476
:1042A000971C688779878A879B87E881F9810084D2
:1042B000F185E02DCE01099597FF15C00E94971C4E
:1042C000088519852A853B85601B710B820B930B32
:1042D0000C811D812E813F81601771078207930732
:1042E00020F38FEF9FEFDF91CF911F910F910895F2
:1042F000CF93DF93EC01CE010E944A2197FD11C0BC
:104300008D32910571F09C01205331092A3031051D
:1043100040F0E881F9810680F781E02DCE01099512
:10432000EACFDF91CF910895CF92DF92FF920F9362
:104330001F93CF93DF9300D000D0CDB7DEB76C01D1
:10434000062F0E947821FC0197FD4BC020E030E051
:10435000A901F12C112707FD1095E017F107E9F0ED
:10436000ED32F105C1F0CF01C0970A97B0F4AAE091
:10437000B0E00E94D6229B01AC01CF01AA2797FD95
:10438000A095BA2F280F391F4A1F5B1F20533109F0
:104390004109510902C0FF24F394D601ED91FC912B
:1043A0000680F781E02DC60129833A834B835C8325
:1043B0000995C6010E944A21FC01C09729813A81D2
:1043C0004B815C810A9748F2E017F10731F2FF2038
:1043D00061F066277727CB01621B730B840B950B6B
:1043E00006C060E070E0CB0102C0CA01B9010F90C5
:1043F0000F900F900F90DF91CF911F910F91FF9031
:10440000DF90CF90089561E00C9494214F925F92D9
:104410006F927F92AF92BF92CF92DF92EF92FF9214
:104420000F931F93CF93DF93CDB7DEB729013A01E6
:10443000621B730B840B950B29893A894B895C8924
:104440002A193B094C095D09298B3A8B4B8B5C8BF4
:104450009B01AC0169897A898B899C890E944E22D3
:10446000E418F50806091709A80197010E94A82277
:104470002A0D3B1D4C1D5D1DCA01B901DF91CF9175
:104480001F910F91FF90EF90DF90CF90BF90AF9072
:104490007F906F905F904F9008950895DB018F9308
:1044A0009F930E94D622BF91AF91A29F800D911D34
:1044B000A39F900DB29F900D11240895AA1BBB1BC2
:1044C00051E107C0AA1FBB1FA617B70710F0A61B14
:1044D000B70B881F991F5A95A9F780959095BC0135
:1044E000CD01089597FB072E16F4009407D077FDB1
:1044F00009D00E945E2207FC05D03EF4909581957C
:104500009F4F0895709561957F4F0895A1E21A2EEF
:10451000AA1BBB1BFD010DC0AA1FBB1FEE1FFF1F67
:10452000A217B307E407F50720F0A21BB30BE40BB7
:10453000F50B661F771F881F991F1A9469F76095FE
:104540007095809590959B01AC01BD01CF010895B8
:10455000052E97FB1EF400940E94BF2257FD07D042
:104560000E94862207FC03D04EF40C94BF22509583
:104570004095309521953F4F4F4F5F4F089590954F
:104580008095709561957F4F8F4F9F4F0895A29FA3
:10459000B001B39FC001A39F700D811D1124911D17
:1045A000B29F700D811D1124911D08950E94C72294
:1045B000A59F900DB49F900DA49F800D911D112477
:1045C0000895EE0FFF1F0590F491E02D099481E00E
:1045D00090E0F8940C94D325AEE0B0E0E2EFF2E284
:1045E0000C94AA250D891E8986E08C831A83098381
:1045F0008FEF9FE79E838D83AE01475E5F4F6F898C
:10460000788DCE0101960E940E23EF81F885E00F90
:10461000F11F10822E96E4E00C94C625ACE0B0E0C9
:10462000E4E1F3E20C949C257C016B018A01FC011E
:1046300017821682838181FFBDC1CE0101964C0194
:10464000F7019381F60193FD859193FF81916F01AD
:10465000882309F4ABC1853239F493FD859193FF2A
:1046600081916F01853229F4B70190E00E940C25F9
:10467000E7CF512C312C20E02032A0F48B3269F0AE
:1046800030F4803259F0833269F420612CC08D32CD
:1046900039F0803339F4216026C02260246023C0C1
:1046A000286021C027FD27C030ED380F3A3078F45C
:1046B00026FF06C0FAE05F9E300D1124532E13C072
:1046C0008AE0389E300D1124332E20620CC08E32C9
:1046D00021F426FD6BC1206406C08C3611F42068DD
:1046E00002C0883641F4F60193FD859193FF8191D4
:1046F0006F018111C1CF982F9F7D9554933028F47D
:104700000C5F1F4FFFE3F9830DC0833631F0833711
:1047100071F0833509F05BC022C0F8018081898384
:104720000E5F1F4F44244394512C540115C038018F
:10473000F2E06F0E711CF801A080B18026FF03C06B
:10474000652D70E002C06FEF7FEFC5012C870E94DE
:1047500001252C0183012C852F77222E17C03801CB
:10476000F2E06F0E711CF801A080B18026FF03C03B
:10477000652D70E002C06FEF7FEFC5012C870E94AE
:10478000F6242C012C852068222E830123FC1BC0DB
:10479000832D90E048165906B0F4B70180E290E00E
:1047A0000E940C253A94F4CFF50127FC859127FE51
:1047B00081915F01B70190E00E940C2531103A947D
:1047C000F1E04F1A51084114510471F7E5C08436E5
:1047D00011F0893639F5F80127FF07C06081718132
:1047E000828193810C5F1F4F08C06081718188278F
:1047F00077FD8095982F0E5F1F4F2F76B22E97FF73
:1048000009C090958095709561957F4F8F4F9F4F10
:104810002068B22E2AE030E0A4010E943E25A82E96
:10482000A81844C0853729F42F7EB22E2AE030E044
:1048300025C0F22FF97FBF2E8F36C1F018F48835CE
:1048400079F0B4C0803719F0883721F0AFC02F2F2E
:104850002061B22EB4FE0DC08B2D8460B82E09C02D
:1048600024FF0AC09F2F9660B92E06C028E030E0D2
:1048700005C020E130E002C020E132E0F801B7FEDF
:1048800007C060817181828193810C5F1F4F06C0D8
:104890006081718180E090E00E5F1F4FA4010E9453
:1048A0003E25A82EA818FB2DFF77BF2EB6FE0BC005
:1048B0002B2D2E7FA51450F4B4FE0AC0B2FC08C004
:1048C0002B2D2E7E05C07A2C2B2D03C07A2C01C0F7
:1048D000752C24FF0DC0FE01EA0DF11D808180338F
:1048E00011F4297E09C022FF06C07394739404C09A
:1048F000822F867809F0739423FD13C020FF06C031
:104900005A2C731418F4530C5718732C731468F43E
:10491000B70180E290E02C870E940C2573942C85CF
:10492000F5CF731410F4371801C0312C24FF12C0D6
:10493000B70180E390E02C870E940C252C8522FF94
:1049400017C021FF03C088E590E002C088E790E02F
:10495000B7010CC0822F867859F021FD02C080E299
:1049600001C08BE227FD8DE2B70190E00E940C258B
:10497000A51438F4B70180E390E00E940C255A9406
:10498000F7CFAA94F401EA0DF11D8081B70190E000
:104990000E940C25A110F5CF332009F451CEB701A8
:1049A00080E290E00E940C253A94F6CFF7018681D0
:1049B000978102C08FEF9FEF2C96E2E10C94B8250F
:1049C000F999FECF92BD81BDF89A992780B50895D7
:1049D000262FF999FECF1FBA92BD81BD20BD0FB61B
:1049E000F894FA9AF99A0FBE01960895FC01059081
:1049F000615070400110D8F7809590958E0F9F1FE1
:104A00000895FC016150704001900110D8F7809525
:104A100090958E0F9F1F08950F931F93CF93DF9351
:104A2000182F092FEB018B8181FD03C08FEF9FEFC2
:104A300020C082FF10C04E815F812C813D814217D2
:104A400053077CF4E881F9819F012F5F3F4F398341
:104A50002883108306C0E885F985812F0995892B65
:104A600029F72E813F812F5F3F4F3F832E83812F78
:104A7000902FDF91CF911F910F910895FA01AA27EE
:104A8000283051F1203181F1E8946F936E7F6E5F91
:104A90007F4F8F4F9F4FAF4FB1E03ED0B4E03CD03F
:104AA000670F781F891F9A1FA11D680F791F8A1F22
:104AB000911DA11D6A0F711D811D911DA11D20D089
:104AC00009F468943F912AE0269F11243019305D43
:104AD0003193DEF6CF010895462F4770405D419334
:104AE000B3E00FD0C9F7F6CF462F4F70405D4A3381
:104AF00018F0495D31FD4052419302D0A9F7EACF49
:104B0000B4E0A6959795879577956795BA95C9F777
:104B100000976105710508959B01AC010A2E06946A
:104B20005795479537952795BA95C9F7620F731F23
:104B3000841F951FA01D08952F923F924F925F9260
:104B40006F927F928F929F92AF92BF92CF92DF929D
:104B5000EF92FF920F931F93CF93DF93CDB7DEB702
:104B6000CA1BDB0B0FB6F894DEBF0FBECDBF099496
:104B70002A88398848885F846E847D848C849B84ED
:104B8000AA84B984C884DF80EE80FD800C811B81FB
:104B9000AA81B981CE0FD11D0FB6F894DEBF0FBE2A
:0A4BA000CDBFED010895F894FFCF9A
:104BAA0000004206800001000000390501000031C2
:104BBA0000F9183000FB302C001C472600825A1FCF
:104BCA00006D6A170041760E00897D04000000001E
:104BDA00071E071E071E071ECB0100000000420722
:104BEA0021093106F201CB0100000000DD07780837
:104BFA001206CE01CB01000000006F102D0CE40B51
:104C0A00BC101C11410DBD0FB30B5B0DDC0DD20C9A
:104C1A003C11CE0BBF0B464C583F454F4600464C05
:104C2A00583F0048616E647368616B65206661690C
:104C3A006C00464C583A25753A00464C583F4F4B43
:104C4A00202841434B2073656E742900464C58490D
:104C5A004D473A00726164696F205B005D203E2017
:104C6A0000464C583A25753A4F4B00464C583F4F30
:104C7A004B20726573656E6400494D472065786301
:104C8A00656564732033316B2C20726566757369B0
:104C9A006E6720697400464C583F4E4F4B0052468F
:104CAA005458203E2000524641434B203E20005497
:104CBA00696D656F75742077616974696E672066BE
:104CCA006F72207061636B65742041434B2C2061C5
:104CDA00626F7274696E6720464C415348206F7048
:104CEA0065726174696F6E202E2E2E00464C583AFA
:104CFA00494E560054696D656F7574207265636517
:104D0A006976696E6720464C41534820696D616730
:104D1A00652066726F6D2053455249414C2C2061C3
:104D2A00626F7274696E672E2E2E000A464C583FC7
:104D3A004F4B00464C41534820494D47205452415D
:104D4A004E534D495353494F4E20535543434553B0
:104D5A005300464C41534820494D47205452414E36
:104D6A00534D495353494F4E204641494C005245F1
:104D7A00424F4F54494E4700464C41534820494DF3
:104D8A0047205452414E534D495353494F4E205395
:104D9A00554343455353210A0054696D656F757431
:104DAA002F4572726F722C2065726173696E67206B
:104DBA007772697474656E2064617461202E2E2E78
:104DCA002000444F4E450000000000871E032009C2
:104DDA001E221E141E651E0D0A006E616E00696E8B
:064DEA0066006F76660012
:00000001FF
