:100000000C94B5010C94411C0C94681C0C94DD01FB
:100010000C94DD010C94DD010C94DD010C94DD01E8
:100020000C94DD010C94DD010C94DD010C94DD01D8
:100030000C94DD010C94DD010C94DD010C94DD01C8
:100040000C948F1C0C94DD010C94A01F0C94D21FF7
:100050000C94DD010C94DD010C94DD010C94DD01A8
:100060000C94DD010C94DD01416E696D6174696F62
:100070006E2E20667073207265706F727465643DB9
:1000800000416E696D6174696F6E2E2065787465CC
:100090006E743D2000416E696D6174696F6E2E2033
:1000A000706F736974696F6E3D2000416E696D6198
:1000B00074696F6E2E204D6173746572206272696F
:1000C0006768746E6573733D2000416E696D61747D
:1000D000696F6E2E205374617274757020636F6D3A
:1000E000706C6574652E0053746174652E202069F0
:1000F0006E506C616E652D3E69646C652E005374A4
:100100006174652E202069646C652D3E6F75745096
:100110006C616E652E004E6574776F726B2E207366
:10012000657474696E672073797374656D53746157
:1001300074653D00097020323D002D20007C0009CF
:100140007020313D002D20007C00097020303D00E2
:100150002D20007C00096420303D0020313D00202E
:10016000323D004E6574776F726B2E204D534720E1
:1001700066726F6D20004E6574776F726B2E205023
:10018000726F6772616D6D65722074726166666907
:10019000632E004E6574776F726B2E2073746172DC
:1001A00074757020636F6D706C6574652077697409
:1001B00068206E6F6465206E756D6265723D004EDD
:1001C0006574776F726B2E2077696C6C2072657323
:1001D000656E64207061636B65747320657665720B
:1001E00079286D73293D004E6574776F726B2E20F0
:1001F000617070726F78696D617465207061636B96
:100200006574207472616E736D697373696F6E20AB
:1002100074696D65286D73293D004E6574776F7242
:100220006B2E207061636B65742073697A65286238
:10023000697473293D0020286279746573293D0033
:100240004E6574776F726B2E20626974726174658B
:1002500028626974732F73293D35353535352E0085
:10026000456E74657220746865206E6F6465206EDB
:10027000756D62657220666F722074686973206E96
:100280006F64653A004E6574776F726B2E2045522D
:10029000524F52206E6F206E6F6465494420666F26
:1002A000756E6420696E20454550524F4D21004EB9
:1002B0006574776F726B2E202077726974696E6730
:1002C000206E6F6465494420746F20454550524F3D
:1002D0004D3D004E6574776F726B2E2072656164C0
:1002E000206E6F646549442066726F6D20454550ED
:1002F000524F4D3D004E6574776F726B2E207374B4
:1003000061727475702E0000000008000201000088
:1003100003040700000000000000000102040810B0
:10032000204080010204081020010204081020046B
:10033000040404040404040202020202020303038C
:100340000303030000000023002600290000000032
:1003500000250028002B0000000000240027002AB0
:1003600000005D0B9B178B1A022011241FBECFEFDC
:10037000D8E0DEBFCDBF13E0A0E0B1E0ECE9F2E5EC
:1003800002C005900D92AA34B107D9F726E0AAE47D
:10039000B3E001C01D92A334B207E1F713E0CAE64F
:1003A000D3E004C02297FE010E945C26C236D1072A
:1003B000C9F70E9498230C944C290C94000080E00B
:1003C00090E00895CF93DF9300D000D000D0CDB758
:1003D000DEB7AB01DC01ED91FC910190F081E02DE5
:1003E00019821A821B821C821D821E829E012F5F2F
:1003F0003F4FBE016C5F7F4F099526960FB6F8946C
:10040000DEBF0FBECDBFDF91CF910895CF93DF93B5
:1004100000D000D000D0CDB7DEB7AB01DC01ED914C
:10042000FC910190F081E02D19821A821B821C82BE
:100430001D821E829E012F5F3F4FBE016C5F7F4F6A
:10044000099526960FB6F894DEBF0FBECDBFDF919B
:10045000CF910895FC0184E391E09183808313821E
:1004600012828FEF86838783808781878287838745
:1004700081E0848716861586158214828091940502
:1004800090919505892B21F4F0939505E0939405BF
:10049000A0919205B0919305109721F01596FC93C9
:1004A000EE931497F0939305E09392050895CF93FC
:1004B000C62F609396056BEA70E086EA95E00E948D
:1004C00083204AE050E06C2F86EA95E00E94732179
:1004D00086EA95E0CF910C94AF20CF93DF9300D0C4
:1004E0001F92CDB7DEB7FC016083442361F019820F
:1004F0001A821B82AE014F5F5F4F6EE670E082E9A9
:1005000093E00E94AA1A0F900F900F90DF91CF9165
:100510000895CF93DF93EC0180917D03811111C089
:1005200084E693E00E942A0282E491E090936503BE
:1005300080936403109274031092730381E080939C
:100540007D0320E030E04EE650E062E973E084E6AF
:1005500093E00E94501AFC018FEF868380EB878323
:1005600080EF808780917503811111C083E593E04E
:100570000E942A0280E591E09093540380935303F4
:10058000109263031092620381E08093750320E070
:1005900030E04EE650E062E973E083E593E00E94CC
:1005A000501AFC018FEF868380EB878380EF808772
:1005B0008EE00E947D1D20910A0130910B01280FD1
:1005C000391F30930B0120930A016FEFCE010E9477
:1005D000570287E38B8389831C821A8241E060E0A3
:1005E000CE010E946D026AEC70E086EA95E00E94FE
:1005F000832086EA95E0DF91CF910C94AF201F9382
:10060000CF93DF93EC01162F8981861791F065E96E
:1006100070E086EA95E00E9483204AE050E0612F76
:1006200086EA95E00E94732186EA95E00E94AF2059
:100630001983DF91CF911F9108951F93CF93DF937B
:10064000EC01162F8A81861791F061E870E086EA46
:1006500095E00E9483204AE050E0612F86EA95E011
:100660000E94732186EA95E00E94AF201A83DF91F1
:10067000CF911F9108954F925F926F927F929F92B8
:10068000AF92BF92CF92DF92EF92FF920F931F93A0
:10069000CF93DF93CDB7DEB72A970FB6F894DEBFBE
:1006A0000FBECDBF962E80E1888788E08987809134
:1006B0008A0381110DC00E94D91C60934E03709370
:1006C0004F03809350039093510381E080938A03FA
:1006D0008DEF9FEB9A8389838FEF9FE39C838B83BE
:1006E00080914D03E8E0F0E0EC0FFD1FE80FF11DF5
:1006F00040816EE670E082E993E00E94E71A809103
:100700004D0390E0FC01EE0FFF1FEC0FFD1F018178
:10071000128140904E0350904F03609050037090B0
:100720005103E8E0F0E0EC0FFD1FE80FF91F8081B6
:100730008A870E94D91C6B017C0120E03A85A8E1E0
:10074000B1E00E9440269B01AC01C418D508E60820
:10075000F708C701B6010E94C725080F191FC80175
:100760009F7396958795969587959695879516FF8D
:1007700006C02FEF37E0A901481B590BCA01E92F2A
:10078000EE0FEE0FF0E0EF5EFE4F2081318192819F
:100790008695A901989F400D511D1124CA0117FF8C
:1007A00003C09195819591099C01305880E090E0BB
:1007B000DC0160E04FEF5FEF249FC001359FD00167
:1007C000349F900DA11DB61F259F900DA11DB61F32
:1007D0001124BD01882799271F921F921F922EE690
:1007E0002F93A12CB12C6501EE24EA94FE2C00E09D
:1007F00010E020E030E0A9010E944E23162F0F9058
:100800000F900F900F906D36D9F480914D038111A8
:100810001DC00E94D91CC0904E03D0904F03E090A1
:100820005003F090510354EFC50E51E0D51EE11C6A
:10083000F11CC616D706E806F90608F44DC006C036
:10084000611104C080914D03813069F180914C03A6
:1008500091E0980F90934C038D838FEF8E839F824E
:10086000812F90E0BC01660F771F680F791F6E56CD
:100870007C4FCE0105960E94F51A2A960FB6F89481
:10088000DEBF0FBECDBFDF91CF911F910F91FF90C3
:10089000EF90DF90CF90BF90AF909F907F906F9040
:1008A0005F904F9008950E94D91CC0904E03D09045
:1008B0004F03E0905003F090510324EFC20E21E06B
:1008C000D21EE11CF11CC616D706E806F90608F090
:1008D000BDCF10924D0303C081E080934D030E9471
:1008E000D91C60934E0370934F03809350039093F1
:1008F0005103ACCF5F926F927F928F929F92AF9293
:10090000BF92CF92DF92EF92FF920F931F93CF93FC
:10091000DF9300D01F92CDB7DEB7862E142F198239
:100920001A821B82AE014F5F5F4F6EE670E082E974
:1009300093E00E94AA1A80914B038F5F80934B0330
:10094000282D31E0230F08F42FEF282D230F08F472
:100950002FEF2E3638F421E0382D320F08F43FEF18
:10096000932E02C07DE6972E292D210F08F42FEF3C
:10097000292D210F08F42FEF2E3630F4292D210FC9
:1009800008F42FEF622E02C06DE6662E282D31E0AE
:10099000231B08F420E0282D231B08F420E02E362A
:1009A00038F421E0382D321B08F430E0732E02C0F9
:1009B0005DE6752E272D211B08F420E0272D211B35
:1009C00008F420E02E3630F4272D211B08F420E017
:1009D000522E02C04DE6542E183328F4612F70E0D9
:1009E00080E090E004C067E370E080E090E01F9258
:1009F0001F921F9220E12F93A12CB12C6501AA9484
:100A000017E3E12EF12C00E010E020E030E0A90136
:100A10000E944E23062F0F900F900F900F90152DD0
:100A2000FF24FA946116A0F080914B038983FA8227
:100A30000B83212F30E0B901660F771F620F731F00
:100A40006E567C4FCE0101960E94F51A1F5FEACFC9
:100A500019821A8210E21B83852D90E0BC01660F7B
:100A6000771F680F791F6E567C4FCE0101960E944A
:100A7000F51A19821A8200E80B83872D90E0BC01D9
:100A8000660F771F680F791F6E567C4FCE01019657
:100A90000E94F51A19821A828FEF8B83882D90E0BD
:100AA000BC01660F771F680F791F6E567C4FCE0111
:100AB00001960E94F51A19821A820B83892D90E003
:100AC000BC01660F771F680F791F6E567C4FCE01F1
:100AD00001960E94F51A19821A821B83712CB301A8
:100AE000660F771F660D771D6E567C4FCE010196FF
:100AF0000E94F51A0F900F900F90DF91CF911F91E8
:100B00000F91FF90EF90DF90CF90BF90AF909F90AC
:100B10008F907F906F905F900895CF93DF93EB015C
:100B20004AE06EE670E082E993E00E94E71AAE01C7
:100B30006EE670E082E993E0DF91CF910C94AA1AFF
:100B40000F931F93CF93DF9300D01F92CDB7DEB7E3
:100B5000FC0183819181981710F4815003C089179B
:100B600010F48F5F838384819281981710F48150F1
:100B700003C0891710F48F5F84838081813079F0FE
:100B800048F0823091F08330D1F419821A828FEFCD
:100B90008B830FC06FEFCF010E943B0310C04481D5
:100BA0006381CF010E947A040AC019828FEF8A8381
:100BB0001B82BE016F5F7F4FCF010E948D05609148
:100BC000960586E995E00E948819809152038F5F0F
:100BD000843619F08093520317C01092520300918B
:100BE00097051091980568E670E086EA95E00E9406
:100BF00083204AE050E0B80186EA95E00E945E2139
:100C000086EA95E00E94AF200F900F900F90DF9141
:100C1000CF911F910F910895DC018D919C910097C8
:100C200039F0DC01ED91FC910190F081E02D099407
:100C30000895DC018D919C91009739F0DC01ED91D4
:100C4000FC910280F381E02D09940895579A569AF9
:100C50000F960C941906DC018D919C91009739F048
:100C6000DC01ED91FC910190F081E02D0994089553
:100C7000DC018D919C91009739F0DC01ED91FC91A4
:100C80000280F381E02D09940895549A569A0F96A4
:100C90000C94380687FF02C05F9A01C05F985E9A85
:100CA0005E9886FF02C05F9A01C05F985E9A5E9868
:100CB00085FF02C05F9A01C05F985E9A5E9884FFCC
:100CC00002C05F9A01C05F985E9A5E9883FF02C07F
:100CD0005F9A01C05F985E9A5E9882FF02C05F9A39
:100CE00001C05F985E9A5E9881FF02C05F9A01C062
:100CF0005F985E9A5E9880FF02C05F9A01C05F981D
:100D00005E9A5E98089580E00E944A0680E00E9404
:100D10004A0680E00E944A0680E00C944A06CF937F
:100D2000DF9397FD4F96EC01E5E0D595C795EA95E1
:100D3000E1F78FEF0E944A0680E00E944A0680E0B9
:100D40000E944A0680E00E944A06219790F7DF91B0
:100D5000CF91089587FF02C05C9A01C05C985E9AAB
:100D60005E9886FF02C05C9A01C05C985E9A5E98AD
:100D700085FF02C05C9A01C05C985E9A5E9884FF11
:100D800002C05C9A01C05C985E9A5E9883FF02C0C4
:100D90005C9A01C05C985E9A5E9882FF02C05C9A81
:100DA00001C05C985E9A5E9881FF02C05C9A01C0A7
:100DB0005C985E9A5E9880FF02C05C9A01C05C9865
:100DC0005E9A5E98089580E00E94AA0680E00E94E4
:100DD000AA0680E00E94AA0680E00C94AA06CF939F
:100DE000DF9397FD4F96EC01F5E0D595C795FA9501
:100DF000E1F78FEF0E94AA0680E00E94AA0680E039
:100E00000E94AA0680E00E94AA06219790F7DF912F
:100E1000CF910895FF920F931F93CF93DF93EC012F
:100E200080914A038F5F982F977090934A0380FDBB
:100E300002C080E001C080E891FD8064947009F0F8
:100E40008062A0E1FA2EF80E20E030E000E011E030
:100E5000FE01E20FF31F6285662331F070E0C801E6
:100E60000E94EB256F5F01C060E067834F2D469FB6
:100E7000412D11244483662311F0615067832F5F55
:100E80003F4F2330310521F7DF91CF911F910F9113
:100E9000FF900895FC01613011F40C940A0711864B
:100EA000108617821682158214820895AF92BF921F
:100EB000CF92DF92EF92FF920F931F93CF93DF9326
:100EC000CDB7DEB72F970FB6F894DEBF0FBECDBFFC
:100ED0006C01CB018A01F901D6011C966C919A83B1
:100EE00089835C834B8380818B8781818C8782811E
:100EF0008D87CE0101960E944A071E86BFE0CB0E69
:100F0000D11CC6010E942B060E94E306E12CF12CA5
:100F1000E016F1060CF04EC0E981FA81228122230D
:100F200029F03F81230F08F42FEF01C020E03D8519
:100F3000239F212D11248FEF2F870E94AA062F8532
:100F4000822F0E94AA06E981FA812181222329F0B9
:100F50003E81230F08F42FEF01C020E03C85239F42
:100F6000212D1124A22EB12CBA2CAA2420812223B7
:100F700029F03D81230F08F42FEF01C020E03B85CD
:100F8000239F212D1124A22A8B2D0E94AA068A2D8F
:100F90000E94AA0688859D81891B8D8389859E81F3
:100FA000891B8E838A859F81891B8F838FEFE81A27
:100FB000F80AAECFC8010E94EF06C6010E943806AB
:100FC0002F960FB6F894DEBF0FBECDBFDF91CF9145
:100FD0001F910F91FF90EF90DF90CF90BF90AF9057
:100FE0000895AF92BF92CF92DF92EF92FF920F934C
:100FF0001F93CF93DF93CDB7DEB72F970FB6F8943B
:10100000DEBF0FBECDBF6C01CB018A01F901D60155
:101010001C966C919A8389835C834B8380818B8738
:1010200081818C8782818D87CE0101960E944A073B
:101030001E86BFE0CB0ED11CC6010E940C060E948A
:101040008306E12CF12CE016F1060CF04EC0E9818C
:10105000FA812281222329F03F81230F08F42FEF08
:1010600001C020E03D85239F212D11248FEF2F8784
:101070000E944A062F85822F0E944A06E981FA8142
:101080002181222329F03E81230F08F42FEF01C094
:1010900020E03C85239F212D1124A22EB12CBA2CB7
:1010A000AA242081222329F03D81230F08F42FEF69
:1010B00001C020E03B85239F212D1124A22A8B2DE6
:1010C0000E944A068A2D0E944A0688859D81891BB6
:1010D0008D8389859E81891B8E838A859F81891B4B
:1010E0008F838FEFE81AF80AAECFC8010E948F06EF
:1010F000C6010E9419062F960FB6F894DEBF0FBEE8
:10110000CDBFDF91CF911F910F91FF90EF90DF90B6
:10111000CF90BF90AF900895AF92BF92CF92DF92E1
:10112000EF92FF920F931F93CF93DF93CDB7DEB76C
:101130002F970FB6F894DEBF0FBECDBF6C01CB0169
:101140008A01F901D6011C966C919A8389835C838C
:101150004B8380818B8781818C8782818D87CE01B3
:1011600001960E944A0783E08E87BFE0CB0ED11C18
:10117000C6010E940C060E948306E12CF12CE016A9
:10118000F1060CF05BC0E981FA812281222329F06B
:101190003F81230F08F42FEF01C020E03D85239FFE
:1011A000212D11248FEF2F870E944A062F85822F31
:1011B0000E944A06E981FA812181222329F03E8199
:1011C000230F08F42FEF01C020E03C85239F212D41
:1011D0001124A22EB12CBA2CAA242081222329F07A
:1011E0003D81230F08F42FEF01C020E03B85239FB2
:1011F000212D1124A22A8B2D0E944A068A2D0E949D
:101200004A068E8529813A81280F311D3A83298328
:101210002B813C81215031093C832B8388859D8122
:10122000891B8D8389859E81891B8E838A859F81F9
:10123000891B8F838FEFE81AF80AA1CFC8010E949B
:101240008F06C6010E9419062F960FB6F894DEBFCE
:101250000FBECDBFDF91CF911F910F91FF90EF9007
:10126000DF90CF90BF90AF900895AF92BF92CF9292
:10127000DF92EF92FF920F931F93CF93DF93CDB73F
:10128000DEB72F970FB6F894DEBF0FBECDBF6C014F
:10129000CB018A01F901D6011C966C919A8389834E
:1012A0005C834B8380818B8781818C8782818D8752
:1012B000CE0101960E944A0783E08E87BFE0CB0EE5
:1012C000D11CC6010E942B060E94E306E12CF12CE2
:1012D000E016F1060CF05BC0E981FA81228122233D
:1012E00029F03F81230F08F42FEF01C020E03D8556
:1012F000239F212D11248FEF2F870E94AA062F856F
:10130000822F0E94AA06E981FA812181222329F0F5
:101310003E81230F08F42FEF01C020E03C85239F7E
:10132000212D1124A22EB12CBA2CAA2420812223F3
:1013300029F03D81230F08F42FEF01C020E03B8509
:10134000239F212D1124A22A8B2D0E94AA068A2DCB
:101350000E94AA068E8529813A81280F311D3A8381
:1013600029832B813C81215031093C832B83888543
:101370009D81891B8D8389859E81891B8E838A85AA
:101380009F81891B8F838FEFE81AF80AA1CFC801CC
:101390000E94EF06C6010E9438062F960FB6F894F9
:1013A000DEBF0FBECDBFDF91CF911F910F91FF9098
:1013B000EF90DF90CF90BF90AF9008958FE595E0CC
:1013C0000E946E170197A9F58091F40481110BC05A
:1013D00044EF51E060E070E084EE94E00E946F0B17
:1013E00081E08093F4048FE595E00E9486178111D7
:1013F00004C084EE94E00E94BB0B84EE94E00E9453
:10140000750B8823B1F06EEF70E086EA95E00E94DC
:10141000832086EA95E00E94AF2067E075E08EEFBA
:1014200094E00E94D81B40E061E085E893E00C94D2
:101430006D020895AF92BF92CF92DF92EF92FF922A
:101440000F931F938FE595E00E946E17019709F0A7
:10145000A5C08FE595E00E947C178FE595E00E947E
:101460007C178F379D4140F48FE595E00E947C17F3
:10147000BC0180E090E004C06EE77DE180E090E098
:101480001F921F921F922DE62F93A12CB12C650164
:10149000E12CF12C87012EE73DE140E050E00E9475
:1014A0004E2385E893E00E94FF028FE595E00E94BD
:1014B00072178FE595E00E9472170F900F900F90B2
:1014C0000F908739994140F48FE595E00E9472179B
:1014D000BC0180E090E004C066E979E180E090E042
:1014E0001F921F921F9227E32F93A12CB12C65010D
:1014F00016E9E12E19E1F12E00E010E020E030E0E5
:10150000A9010E944E2385E893E00E941D030F90DD
:101510000F900F900F908091EC0481110BC044EF5D
:1015200051E060E070E08CED94E00E946F0B81E090
:101530008093EC048FE595E00E948617882321F0C4
:101540008CED94E00E94BB0B8CED94E00E94750B37
:10155000811106C08FE595E00E946E170197F1F0AA
:1015600067EE70E086EA95E00E94832086EA95E0C7
:101570000E94AF206DE075E08EEF94E00E94D81BD2
:1015800040E060E085E893E01F910F91FF90EF90BD
:10159000DF90CF90BF90AF900C946D021F910F9190
:1015A000FF90EF90DF90CF90BF90AF9008950F9392
:1015B000CF93DF93CDB7DEB728970FB6F894DEBF91
:1015C0000FBECDBF26E040E052EC61E070E086EA5D
:1015D00095E00E943E1F0FE12BE54DE96FEF8FE58F
:1015E00095E00E94BB1748EE53E060E070E0CE014A
:1015F00001960E946F0BCE0101960E94750B81111E
:1016000005C08FE595E00E94CB16F5CF85E893E005
:101610000E94890228960FB6F894DEBF0FBECDBF98
:10162000DF91CF910F9108958FE595E00E94CB1641
:10163000882321F08FE595E00E94EF158FE595E076
:101640000E946E172091FC043091FD0482179307CD
:1016500061F18FE595E00E946E17892B19F440E047
:1016600062E017C08FE595E00E946E17029719F4AB
:1016700040E063E00EC08FE595E00E946E17019791
:1016800061F46DE075E08EEF94E00E94D81B40E0BD
:1016900060E085E893E00E946D028FE595E00E948E
:1016A0006E179093FD048093FC048EEF94E00E94EB
:1016B000041C85E893E00C94A0056EED79E08DE0C4
:1016C00095E00E94AB1B6AE17AE087E095E00E941A
:1016D000AB1B6DE075E08EEF94E00C94CC1BFC012D
:1016E000448355836683778308958F929F92AF9248
:1016F000BF92CF92DF92EF92FF920F931F93CF93FF
:10170000DF93EC010E94D91C8C809D80AE80BF804D
:1017100081149104A104B10429F4688379838A8334
:101720009B8319C0088119812A813B816B017C014F
:10173000C01AD10AE20AF30AC814D904EA04FB0465
:1017400060F0B901A801480D591D6A1D7B1D488331
:1017500059836A837B8381E001C080E0DF91CF9170
:101760001F910F91FF90EF90DF90CF90BF90AF90BF
:101770009F908F900895CF93DF93EC010E94D91C26
:10178000688379838A839B83DF91CF91089508953D
:101790008091130590911405DC01ED91FC91048476
:1017A000F585E02D0994CF93DF93EC0161E08A8108
:1017B0000E94FC1D89858CBD8A858DBD7894DF9142
:1017C000CF910895FC01F8948CB581878DB58287FF
:1017D0008CB5837F8CBD8CB58F7D8CBD8CB58C7F9B
:1017E0008CBD8DB58E7F8DBD60E082810C94FC1D1B
:1017F000F89420911D05233021F420911905211121
:101800000FC020911D05233011F4789407C0DC012E
:10181000ED91FC910288F389E02D099580E008950F
:10182000DC01ED91FC910488F589E02D61E00995DA
:1018300081E008958EBD00000DB407FEFDCF8EB58A
:101840000895CF93DF931F92CDB7DEB7DC01ED9102
:10185000FC910480F581E02D6983099569818823D5
:1018600059F080911B05861711F06F3F29F4909174
:10187000170581E0911101C080E00F90DF91CF91B9
:1018800008952F923F924F925F927F928F929F92F4
:10189000AF92BF92CF92DF92EF92FF920F931F937E
:1018A000CF93DF93EC01962E5A01722E802E10E01A
:1018B000CE2CD12CE12CF12CE881F9810190F08122
:1018C000E02D01E0272DA501692DCE0109950E948B
:1018D000D91C1B012C010E94D91C621973098409AF
:1018E00095096C157D058E059F0540F4692DCE0187
:1018F0000E94210C882379F381E004C01F5F8116C8
:10190000D8F680E0DF91CF911F910F91FF90EF907B
:10191000DF90CF90BF90AF909F908F907F905F901F
:101920004F903F902F90089580911805882329F0BB
:1019300090911A0581E09F3F09F480E00895EF92AD
:10194000FF921F93CF93DF931F92CDB7DEB77C0139
:10195000DC01ED91FC91008CF18DE02D69830995FE
:101960006981862F8F770E941A0C80E00E941A0CE2
:10197000182FD701ED91FC91028CF38DE02DC7015A
:101980000995812F0F90DF91CF911F91FF90EF90DC
:1019900008950F931F93CF93DF9300D0CDB7DEB799
:1019A0008C01DC01ED91FC91008CF18DE02D4A83DE
:1019B000698309956981862F80680E941A0C4A8183
:1019C000842F0E941A0CD801ED91FC91028CF38DAA
:1019D000E02DC8010F900F90DF91CF911F910F91D3
:1019E00009941F93CF93DF93EC01162F80911D056F
:1019F000681709F461C0623009F440C070F46623CE
:101A000009F444C0613009F057C061E0CE010E9482
:101A10009F0C482F437E44603FC06330C1F0643068
:101A200009F04AC061E0CE010E949F0C482F437E1E
:101A30004C6061E0CE010E94C90C8885882381F149
:101A4000E881F9810688F789E02D61E014C061E042
:101A5000CE010E949F0C482F437E406161E0CE0181
:101A60000E94C90C88858823D9F0E881F98106880D
:101A7000F789E02D60E0CE01099512C061E0CE014A
:101A80000E949F0C482F437E486006C061E0CE0153
:101A90000E949F0C482F437E61E0CE010E94C90C3A
:101AA00080911D05811106C067E2CE010E949F0C46
:101AB00087FFF6CF10931D05DF91CF911F910895F9
:101AC000CF93DF93EC01603208F06FE16F8388857C
:101AD000882311F066956F8361E1CE010E949F0C0F
:101AE000482F407E8F81482B61E1CE01DF91CF915D
:101AF0000C94C90CCF92DF92EF92FF920F931F9339
:101B0000CF93DF93EC01F62ED42EC52E122FE88151
:101B1000F9810488F589E02D61E0099567E2CE013D
:101B20000E949F0C87FFFACF40E065E2CE010E9441
:101B3000C90C1E3308F01DE3E11004C0002319F0A6
:101B400000E401C000E8E881F981008CF18DE02D0E
:101B5000CE01099580E80E941A0C83E0810F0E9453
:101B60001A0C8F2D0E941A0C8D810E941A0C802F46
:101B70000E941A0C0D2DED2CFC2C8E2D801B811734
:101B800030F4F70181917F010E941A0CF6CFE881B1
:101B9000F981028CF38DE02DCE010995E881F98160
:101BA0000488F589E02D64E0CE0109950E94D91CD6
:101BB0006B017C018B810E94321E892B81F0E881B0
:101BC000F9810488F589E02D61E0CE01DF91CF91A4
:101BD0001F910F91FF90EF90DF90CF9009940E949A
:101BE000D91C6C197D098E099F09683E73408105D7
:101BF000910528F7DFCFCF93DF93EC0110921C05FE
:101C000010921B0510921A051092190510921805D2
:101C100010921705109216051092150568E20E94A1
:101C20009F0C82FF0AC06DE3CE010E949F0C482FDB
:101C300044606DE3CE010E94C90C40E465E2CE0130
:101C40000E94C90CE881F9810488F589E02D63E0E0
:101C5000CE01DF91CF910994DF92EF92FF920F9323
:101C60001F93CF93DF93EC018B01E881F981048806
:101C7000F589E02D61E0099501151105E1F0E88194
:101C8000F981008CF18DE02DCE0109958EEB0E943B
:101C90001A0C7801D12CF70181917F010E941A0C56
:101CA000D394F0E1DF12F7CFE881F981028CF38D54
:101CB000E02DCE0109956DE3CE010E949F0C8E7F31
:101CC00091E0012B09F490E0482F492B6DE3CE0100
:101CD000DF91CF911F910F91FF90EF90DF900C94C7
:101CE000C90C8F929F92AF92BF92DF92EF92FF92B8
:101CF0000F931F93CF93DF93CDB7DEB7AE970FB699
:101D0000F894DEBF0FBECDBF7C01D42E8EE28E01D3
:101D10000F5F1F4FD801E82F1D92EA95E9F791E078
:101D2000998334E03A8342E04B8393E09D834E8372
:101D30003F8340E4488735E039879A8796E09B8760
:101D400093E39C8737E03D8798E09F8799E0998BE4
:101D500099E19B8B92E49C8B55E25D8B4E8B46E226
:101D60004F8B388F38E2398F30E13A8F39E23B8F31
:101D70003CED3C8F8D8F88E88E8F8FE28F8F8DE2C8
:101D800088A380E389A337E33BA330E93CA338E38E
:101D90003DA39EA39CE39FA39FE898A79DE399A7DB
:101DA00092E19AA79FE69BA78CA78FEF8DA76F3133
:101DB00031F06B3231F0663531F489ED05C08EE4D7
:101DC00003C08CE601C084EE8E876F3141F06B3228
:101DD00021F0663521F480E003C080E401C080EC8E
:101DE000888B2AA361E0D70112968C910E94FC1D7A
:101DF00061E0F70182810E94C31D0E9478110E9458
:101E0000D91C4B015C014AEA6FE2C7010E94C90C70
:101E10006FE2C7010E949F0C8A3A59F00E94D91CB8
:101E2000681979098A099B09623371058105910551
:101E300050F30E94D91C4B015C0145E56FE2C701DC
:101E40000E94C90C6FE2C7010E949F0C853559F0B2
:101E50000E94D91C681979098A099B0962337105A6
:101E60008105910550F3B12CF801EB0DF11DEB0D3F
:101E7000F11D60816F3F31F04181C7010E94C90CA3
:101E8000B394F2CF60E070E0C7010E942C0ED7013E
:101E9000ED91FC9111970084F185E02D18966C91DD
:101EA000C7010995D701ED91FC910488F589E02DD2
:101EB00061E0C70109950E94D91C4B015C0167E2F2
:101EC000C7010E949F0C87FD0BC00E94D91C681996
:101ED00079098A099B09623371058105910578F3B7
:101EE0000E94D91C681979098A099B096233710516
:101EF0008105910588F443E050E068EC7BE0F70150
:101F000084810E94211CF0921405E0921305D701F0
:101F10001596DC9281E001C080E0AE960FB6F89491
:101F2000DEBF0FBECDBFDF91CF911F910F91FF900C
:101F3000EF90DF90BF90AF909F908F900895CF93D8
:101F4000DF93EC0161110DC064E2CE010E949F0C91
:101F500090E091958195910995958795DF91CF9125
:101F6000089541E063E20E94C90C63E2CE010E9441
:101F70009F0C81FFFACFE8CFCF93DF93EC018091E4
:101F80001D058330A9F480911905811111C060E00D
:101F9000CE010E949F0F863A9F4F54F4E881F98149
:101FA0000488F589E02D61E0CE01099581E001C04A
:101FB00080E0DF91CF910895FF920F931F93CF930D
:101FC000DF93EC0180911D05833001F568E2CE01BD
:101FD0000E949F0C82FD28C019C080911C058D3382
:101FE00030F4E0911C05F0E0E25EFA4F1082E881E7
:101FF000F981028CF38DE02DCE010995E881F981FC
:102000000488F589E02D63E0CE01099560E0CE01FA
:102010000E949F0F9093160580931505DF91CF9135
:102020001F910F91FF900895E881F9810488F58947
:10203000E02D61E0CE010995E881F981008CF18DF8
:10204000E02DCE01099580E00E941A0C80E00E94EC
:102050001A0C80931905809119058334D0F480916E
:1020600019058093190580E00E941A0C80931A05C7
:102070008E81811109C090911A058D81981721F0E8
:1020800080911A058F3F39F480911905833018F03B
:1020900017C082E4E6CF10921905E881F981028C1D
:1020A000F38DE02DCE010995E881F9810288F3894D
:1020B000E02DCE01DF91CF911F910F91FF900994F8
:1020C00080911905835080931C0580E00E941A0CB2
:1020D00080931B0580E00E941A0C982F90789093B3
:1020E0001705982F907490931805E881F98106845C
:1020F000F785E02D682FCE010995F12C80911C0504
:10210000F81608F06ACF0F2D10E080E00E941A0C3C
:10211000F801E25EFA4F8083F394F0CF4F925F9222
:102120006F927F929F92AF92BF92EF920F931F9305
:10213000CF93DF93EC01162F5A01922E6DE30E948C
:102140009F0C482F44606DE3CE010E94C90C0E9491
:10215000D91C2B013C01CE010E94BC0F8823C1F089
:10216000E881F9810088F189E02DE12C292DA50174
:10217000612FCE010995DF91CF911F910F91EF90C3
:10218000BF90AF909F907F906F905F904F90089519
:102190000E94D91C6419750986099709683E734025
:1021A00081059105E8F6E881F9810480F581E02D4B
:1021B000CE010995D0CF4F925F926F927F929F92FE
:1021C000AF92BF92CF92DF92EF92FF920F93CF9395
:1021D000DF93EC015B01942E10921805F0901B0523
:1021E000C0901505D09016056DE30E949F0C482FF6
:1021F00044606DE3CE010E94C90C0E94D91C2B01E2
:102200003C01CE010E94BC0F882311F1F0921B0506
:10221000E881F9810088F189E02DEE24E39400E063
:10222000292DA5016F2DCE010995D0921605C092DA
:102230001505DF91CF910F91FF90EF90DF90CF9038
:10224000BF90AF909F907F906F905F904F90089558
:102250000E94D91C6419750986099709683E734064
:102260008105910598F6E881F9810480F581E02DDA
:10227000CE010995C6CFCF93DF93EC016887662323
:1022800011F04FE001C04AE163E1CE010E94C90CA8
:102290008885882341F061E1CE010E949F0C482F80
:1022A0004F71406602C04F81406861E1CE01DF910D
:1022B000CF910C94C90C1F93CF93DF93EC01162F91
:1022C000662311F04DE501C045E56AE5CE010E94A7
:1022D000C90C112311F04CE701C040E76CE5CE01B9
:1022E000DF91CF911F910C94C90CFC016683089576
:1022F000CF93CFB7F89480915E05811127C0E9E3B1
:10230000F3E08491E5E2F3E09491E82FF0E0EE0F42
:10231000FF1FE95AFC4FA591B4918C91892321F4B8
:1023200061E08AE00E94FC1D61E08AE00E94C31D1A
:102330008CB580618CBD8CB580648CBD61E08DE016
:102340000E94C31D61E08BE00E94C31D80915E0569
:102350008F5F80935E05CFBFCF910895FC0180E52C
:10236000858316826083528341830895FC018CB576
:1023700083838DB584833581268180915D05882393
:1023800099F09FB7F89480915D05813059F48DB331
:1023900080935B054DB380915C05809584238DBB54
:1023A0009FBF02C090935B053CBD2DBD60E0808166
:1023B0000C94FC1DCF93DF93EC0161E088810E94B7
:1023C000FC1D80915D05882361F09FB7F8942091F2
:1023D0005D0580915B05213019F48DBB9FBF01C065
:1023E0008FBF8B818CBD8C818DBDDF91CF91089586
:1023F0001F93CF93DF93EC010E94B61185E00E94FA
:102400001A0C80E00E941A0C182FCE010E94DA11DB
:10241000812FDF91CF911F9108950E94F811817053
:1024200008951F93CF93DF93EC01162F442339F0C7
:1024300040E066E00E941112CE010E94DA11CE0146
:102440000E940D128111FBCFCE010E94B611812F87
:10245000DF91CF911F910C941A0CEF92FF920F9382
:102460001F93CF93DF9300D0CDB7DEB77C01142F3D
:10247000062F41E062E02A8359830E941112802FC7
:102480000E941A0C5981852F0E941A0C812F0E94DC
:102490001A0C2A81822F0E941A0CC7010F900F90EC
:1024A000DF91CF911F910F91FF90EF900C94DA1173
:1024B0002F923F924F925F926F927F928F929F9254
:1024C000AF92BF92CF92DF92EF92FF920F931F9342
:1024D000CF93DF936C012A013B015901CA0199276F
:1024E000C0E0D1E0C81BD90BE12CF12C011511057E
:1024F00079F10C171D0708F4E80141E062E0C6011C
:102500000E941112862D0E941A0C852D0E941A0C11
:10251000842D0E941A0C15012E0C3F1C4101F40160
:1025200081914F010E941A0CC401821993098C17E2
:102530009D07A8F3C6010E94DA114C0E5D1E611CB6
:10254000711CEC0EFD1E0C1B1D0BC0E0D1E0CECFAC
:10255000DF91CF911F910F91FF90EF90DF90CF907F
:10256000BF90AF909F908F907F906F905F904F90B3
:102570003F902F900895EF92FF920F931F93CF9368
:10258000DF931F92CDB7DEB77C01142F062F41E0F9
:1025900062E559830E941112802F0E941A0C598102
:1025A000852F0E941A0C812F0E941A0CC7010F90D0
:1025B000DF91CF911F910F91FF90EF900C94DA1162
:1025C000FC01DB018EE591E09183808312968C9172
:1025D0001297828313968C911397838314968C9110
:1025E0001497848315968C911597858316968C91F4
:1025F0001697868317968C911797878318968C91D8
:102600001897808719968C91199781871A968C91C3
:1026100082870895CF92DF92FF920F931F93CF93FB
:10262000DF93CDB7DEB70DB71EB7262F30E0220FF0
:10263000331FA9014F5F5F4FEDB7FEB7E41BF50BEA
:102640000FB6F894FEBF0FBEEDBF4DB75EB74F5F3C
:102650005F4FDA01F82E6C018C2D8F198617C8F4A4
:10266000C601F601708172957F7070637A3308F04D
:10267000795D7C93FFEFCF1ADF0AFC0180818F70B8
:1026800080638A3308F0895D11968C9311971296B6
:10269000E3CFFA01E20FF31F1082BA0186EA95E058
:1026A0000E94B3200FB6F8941EBF0FBE0DBFDF917E
:1026B000CF911F910F91FF90DF90CF9008952F92AF
:1026C0003F924F925F926F927F928F929F92AF92C2
:1026D000BF92CF92DF92EF92FF920F931F93CF930F
:1026E000DF93CDB7DEB76C970FB6F894DEBF0FBEA1
:1026F000CDBF4C016B8FE98AFA8A0B8B1C8B2D8B1B
:102700003E8B4F8BAA8E46E060E972E00E94DB10A0
:10271000CC2031F06EE971E086EA95E00E94B320AA
:1027200040E050E0BA01CE0141960E94BB1207E0A2
:1027300010E020EB31E040E050E0BA01CE014196DC
:102740000E9458122AE349E050E060E070E0CE01B8
:1027500041960E942D120E94D91C1B012C015AE0A7
:10276000E52EF12CA12CB12C9E012F5F3F4F398F0C
:10277000288FC4010E94F80B882301F180911B056A
:102780003B8D83131BC0D0901C05B3E0BD1520F416
:1027900080911E058634F9F061E08A8D0E94C31D88
:1027A00061E08A8D0E94FC1D61E070E080E090E0B5
:1027B0000E94081D60E08A8D0E94FC1D0E94D91CA9
:1027C0006219730984099509693B7B40810591056C
:1027D00080F280E022C180911F058C34E9F680915F
:1027E00020058835C9F6809121058A3309F0AAC0F1
:1027F00046E04D1508F0A6C084E090E000E010E04F
:10280000782E2FEF280FFC01E25EFA4F3081303333
:10281000A0F030813A3388F42081AAE0A801A49F77
:102820008001A59F100D112400531109020F111DE5
:1028300001968830910521F707C030813A33C1F7FE
:1028400054E0751631F2722ECC20C1F068EB71E0C5
:1028500086EA95E00E94A6204AE050E06D2D86EAC7
:1028600095E00E94732160EC71E086EA95E00E9499
:10287000A6206D2D8EE195E00E940A13E1E0E70DA0
:10288000F0E0E25EFA4F80818A3309F0A2CF0E9425
:10289000D91C1B012C010A151B0539F0C501019734
:1028A0000817190709F04EC029C032E0370D58014A
:1028B0008FEFA81AB80A3D1508F5E32FF0E0E25EA5
:1028C000FA4F208137019FEF691A790AA70160E06A
:1028D00070E0CE0141963C8F0E942D12C3019F777C
:1028E0003C8D892B41F4A30160E070E0CE0141965C
:1028F0000E94BB123C8D3F5F7301DDCF1F930F938E
:10290000A5ECB1E0BF93AF93398D3F93488D4F93C2
:102910000E946526482F0F900F900F900F900F90F8
:102920000F90CC2049F0BE016F5F7F4F86EA95E0A3
:102930004C8F0E94B3204C8DBE016F5F7F4FC4014E
:102940000E94DB10809121058F3309F025CF54E0E0
:10295000D51210C046E060E972E0C4010E94DB10AD
:10296000CC2009F419CF6FEC71E086EA95E00E9463
:10297000B32012CF87E0D8120FCF80912205853483
:1029800009F00ACF809123058F3409F005CF80919B
:102990002405863409F000CF87010A50110901305F
:1029A000BCE71B0778F0CC2031F06DED71E086EAD2
:1029B00095E00E94B32047E06AEF71E0C4010E94F5
:1029C000DB1007CF46E060E972E0C4010E94DB1033
:1029D000CC2031F060E972E086EA95E00E94B320F5
:1029E000212F47E050E060E070E0CE0141960E9468
:1029F0002D1226EF2E0D48E050E060E070E0CE0191
:102A000041960E942D122AE349E050E060E070E018
:102A1000CE0141960E942D1281E06C960FB6F8947B
:102A2000DEBF0FBECDBFDF91CF911F910F91FF9001
:102A3000EF90DF90CF90BF90AF909F908F907F905E
:102A40006F905F904F903F902F900895C82F8823EC
:102A500031F062ED72E086EA95E00E94A62088E0FF
:102A600028E130E00FB6F894A895209360000FBEDF
:102A700080936000CC2331F06EE286EA95E00E94FC
:102A8000A820FACFFFCFAF92BF92CF92DF92EF9202
:102A9000FF920F931F93CF93DF93CDB7DEB762976B
:102AA0000FB6F894DEBF0FBECDBF0C871D872E87F3
:102AB0003F87488B598B6A8BDE2C20911C05243074
:102AC00008F45CC020911E05263409F057C02091FF
:102AD0001F052C3409F052C020912005283509F03B
:102AE0004DC0209121052F3309F048C0B0901B053F
:102AF00020911C052730A1F420912205253481F472
:102B0000209123052F3461F420912405263441F4CB
:102B100000E026E040E952E06B2D0E948E102EC0AE
:102B2000BC01CE0101960E94E012AC2CCD2CEC84AD
:102B3000FD840E851F85288939894A896B2DCE0130
:102B400001960E945F13882359F0DD2031F06CED6F
:102B500072E086EA95E00E94A6208D2D0E9426153F
:102B6000DD2061F06DEF72E086EA95E00E94A6201C
:102B700066E273E086EA95E00E94B32062960FB6A3
:102B8000F894DEBF0FBECDBFDF91CF911F910F91A3
:102B9000FF90EF90DF90CF90BF90AF900895EF92AD
:102BA000FF920F931F93CF93DF931F92CDB7DEB7A2
:102BB0007C01FC0100811181C80169830E945928B0
:102BC0006981681719F0C8010E946128C7010F9038
:102BD000DF91CF911F910F91FF90EF900895CF92C9
:102BE000DF92EF92FF920F931F93CF93DF93EC014D
:102BF0001D8963E671E086EA95E00E9483204AE041
:102C000050E0612F86EA95E00E9473210C811D81BE
:102C1000EA80FB80C880D98065E571E086EA95E0AE
:102C20000E9483204AE050E0B60186EA95E00E94C7
:102C30007A216BE571E086EA95E00E9483204AE004
:102C400050E0B70186EA95E00E947A216FE571E0D5
:102C500086EA95E00E9483204AE050E0B80186EAC7
:102C600095E00E947A210C851D85EE80FF806AE444
:102C700071E086EA95E00E9483204AE050E0B701C7
:102C800086EA95E00E947A2160E571E086EA95E0A7
:102C90000E9483204AE050E0B80186EA95E00E9455
:102CA0007A2163E571E086EA95E00E9483200E8533
:102CB0001F85E884F9846FE371E086EA95E00E945D
:102CC00083204AE050E0B70186EA95E00E947A212D
:102CD00065E471E086EA95E00E9483204AE050E0D6
:102CE000B80186EA95E00E947A2168E471E086EAFC
:102CF00095E00E948320088919890A84DB85C02D0C
:102D000064E371E086EA95E00E9483204AE050E0A7
:102D1000BE0186EA95E00E947A216AE371E086EAC4
:102D200095E00E9483204AE050E0B80186EA95E0F1
:102D30000E947A216DE371E086EA95E00E9483208B
:102D400086EA95E0DF91CF911F910F91FF90EF9070
:102D5000DF90CF900C94AF200F931F93CF93DF930E
:102D60008C01EB0166E171E086EA95E00E94832028
:102D70004AE050E0BE0186EA95E00E945E2186EAC4
:102D800095E00E94AF20F801D38BC28BDF91CF91E9
:102D90001F910F910895AF92BF92CF92EF920F9330
:102DA0001F93CF93DF93CDB7DEB72B970FB6F89471
:102DB000DEBF0FBECDBF5C018C010A5E1F4FC80194
:102DC0000E94F80B882309F46FC080911C058231A2
:102DD000E9F4EEE1F5E0D50101900D928A95E1F775
:102DE00080911B05F501858B90911A0584899813B4
:102DF00065C0C8010E94940C882309F45FC040E0BC
:102E00006DE373E0C8010E94DB1058C090911A0571
:102E1000F501848998132CC08EE591E09A8389830B
:102E2000808D8B83818D8C83828D8D83838D8E832A
:102E3000848D8F83858D8887868D8987878D8A8706
:102E400080A18B8789E0C82EE12C0091810510912B
:102E5000820520918305309184054091850550912C
:102E6000860560918705CE0101960E9443151CC01E
:102E700080911C05823029F460911E0570911F0518
:102E800010C080911B058E3F79F466E771E086EAF9
:102E900095E00E94832086EA95E00E94AF2062E0E0
:102EA00070E0C5010E94AC16F501828993890397F1
:102EB00019F481E00E94261580E001C081E02B9684
:102EC0000FB6F894DEBF0FBECDBFDF91CF911F913B
:102ED0000F91EF90CF90BF90AF900895FC01828941
:102EE00093890895FC012489E20FF11DE20FF11D81
:102EF0007C97808191810895FC012489E20FF11D66
:102F0000E20FF11DB297808191810895FC018081CB
:102F100091818F3A954168F0828193818F3A9541F2
:102F200040F081E0248135812F3A354118F080E06E
:102F3000089581E0089540E35FEE68E081E895E060
:102F40000E94AE118EE591E0909376058093750511
:102F50008AE08093770582E0809378051092790566
:102F600081E080931D0510927B058FE180937C05A5
:102F700010927D0508959F92AF92BF92CF92DF92FB
:102F8000EF92FF920F931F93CF93DF9300D0CDB7B3
:102F9000DEB77C01162F942EA22E9AE2C92ED12CD8
:102FA00065EF72E086EA95E00E94832086EA95E06C
:102FB0000E94AF201F3FC9F48AE290E00E94592886
:102FC000B82EF701848B63ED72E086EA95E00E94EB
:102FD00083204AE050E06B2D86EA95E00E94732141
:102FE00086EA95E00E94AF201AC06FEA72E086EA96
:102FF00095E00E9483204AE050E0612F86EA95E048
:103000000E94732186EA95E00E94AF20DA82C9828D
:10301000612FCE0101960E94CF15F701148BF701A5
:103020004489493C40F165E872E086EA95E00E94F7
:10303000832086EA95E00E94AF2060E672E086EA8F
:1030400095E00E94832086EA95E00E94AF2086EA00
:1030500095E00E945B1E892BD1F341E060E070E0B7
:1030600086EA95E00E94DE22DA82C982CE010196CC
:103070000E94CF1595CF6701F6E1CF0ED11C292D07
:103080006A2DC6010E94710E61E0C6010E943B11CB
:1030900061E0C6010E947511602FC6010E94600D9B
:1030A0008FEF9FEFF70195838483938382839183CE
:1030B0008083938782879187808797838683918B8C
:1030C000808B97878687958784878CE0858B61E0E6
:1030D00089E00E94C31D60E089E00E94FC1D61E060
:1030E00070E0C7010E94AC1660E472E086EA95E0E9
:1030F0000E94832086EA95E00E94AF206AE172E098
:1031000086EA95E00E9483204AE050E068EE86EA75
:1031100095E00E94732166E372E086EA95E00E94E2
:1031200083204AE050E06DE170E086EA95E00E947D
:103130005E2186EA95E00E94AF2067EE71E086EAA4
:1031400095E00E94832022E030E042E252EA65E806
:1031500070E486EA95E00E946B2286EA95E00E9480
:10316000AF208AE0F70181A36FEB71E086EA95E07A
:103170000E9483204AE050E06AE086EA95E00E94DF
:10318000732186EA95E00E94AF20F701148963E974
:1031900071E086EA95E00E9483204AE050E0612FCA
:1031A00086EA95E00E94732186EA95E00E94AF20AE
:1031B0000F900F90DF91CF911F910F91FF90EF90A3
:1031C000DF90CF90BF90AF909F9008958F929F9285
:1031D000AF92BF92EF92FF920F931F93CF93DF9323
:1031E000EC01188219821A824423B9F1E0E0F0E080
:1031F0008B010A5F1F4F7B0189E0E80EF11C842ED2
:10320000912CA12CB12CD801AE0FBF1F2C91D7014E
:10321000AE0FBF1F6C912223E1F06623D1F030E0A6
:1032200040E050E02F5F3F4F4F4F5F4F70E080E036
:1032300090E06F5F7F4F8F4F9F4F0E94C7259B018C
:10324000AC01C501B4010E94C725DE01AE0FBF1F4E
:103250008C933196E330F105B1F6CE01DF91CF9139
:103260001F910F91FF90EF90BF90AF909F908F9024
:103270000895CF92DF92EF92FF92CF93DF93EC010C
:1032800080918C0590918D059C012F5F3F4F30936D
:103290008D0520938C05861797079CF10E94D91CF9
:1032A0009B01AC01E0918C05F0918D0588EE93E0D7
:1032B000E89FB001E99F700DF89F700D11248827D9
:1032C00077FD8095982FC0908805D0908905E09073
:1032D0008A05F0908B052C193D094E095F090E9463
:1032E000FF253A83298310928D0510928C050E9448
:1032F000D91C609388057093890580938A05909303
:103300008B05DF91CF91FF90EF90DF90CF900895E4
:10331000AF92BF92CF92DF92EF92FF920F931F93E3
:10332000CF93DF9300D01F92CDB7DEB78C01B62EBE
:10333000F80183819481A581B681892B8A2B8B2BFF
:10334000D1F00E94E51CC0908E05D0908F05E090D2
:103350009005F09091056C197D098E099F09D8019F
:103360001396CD90DD90ED90FC9016976C157D0531
:103370008E059F05E8F20E94E51C60938E05709310
:103380008F058093900590939105E0909405F090BF
:103390009505E114F10451F1F701A484D8011196C7
:1033A0008D919C9112978436910508F41486D7016B
:1033B000ED91FC91C280D3804B2DB701CE010196D7
:1033C0000E94E618F70145855685628173819E014A
:1033D0002F5F3F4FC701F6010995D7011C96AC92AC
:1033E0001C971496ED90FC901597D3CF69E170E08F
:1033F000C8010E9439190F900F900F90DF91CF9163
:103400001F910F91FF90EF90DF90CF90BF90AF9002
:103410000895CF92DF92EF92FF920F931F93CF9375
:10342000DF93EC014423F1F06115710581F19B01FB
:1034300040E050E060E472E48FE090E00E942126DA
:10344000CB80DC80ED80FE8089019A010C151D0582
:103450002E053F0510F4970186010B831C832D83F5
:103460003E8315C06115710571F09B0140E050E08D
:1034700060E472E48FE090E00E9421262B833C837D
:103480004D835E8304C01B821C821D821E82DF91DD
:10349000CF911F910F91FF90EF90DF90CF90089503
:1034A000CF92DF92EF92FF920F931F93CF93DF9310
:1034B000EC016B018A017901121613061CF07A01E6
:1034C00000E010E0E881F9810480F581E02DCE0173
:1034D0000995C801880F991F800F911F8C0D9D1DA4
:1034E0009B838A83FE86ED86E881F9810084F185DD
:1034F000E02DCE01099541E0BC0186E995E00E94EE
:10350000091ACE01DF91CF911F910F91FF90EF909B
:10351000DF90CF9008958FEF8093960510929805D5
:1035200010929705089511240895CF93DF93EC012D
:103530002881269F212D28832981269F212D2983BB
:103540002A81269F212D2A830E94931ACE01DF9182
:10355000CF910895FA0120E030E00396261737074F
:103560006CF44081DC0113974C93418111964C938C
:10357000428111964C932F5F3F4FEFCF0895CF922A
:10358000DF92EF92FF920F931F93CF93DF931F92DF
:10359000CDB7DEB77B018C01C12CD12CCE14DF045A
:1035A00061F0642FC80149830E94951A8FEFC81AF1
:1035B000D80A0D5F1F4F4981F1CF0F90DF91CF9156
:1035C0001F910F91FF90EF90DF90CF90089540955D
:1035D0000C94BF1AFC012081222321F0269F212D6B
:1035E00009F02F5FFC0120830895FF920F931F9332
:1035F000CF93DF9300D000D0CDB7DEB7FC018B01B5
:103600004081F1805281842F8F71880F880F880F3D
:10361000282F35E5239F212D1124342F3074942F2A
:10362000907247FD25C031110EC0911106C0822F46
:1036300080958B832A8319823FC08BEA8B832B5A18
:103640002A83198239C091110DC0382F4AEA349F5C
:10365000312D11249BEA931B9B8325552A831982C4
:1036600080E02AC01B8280E0822F80958A8312C06E
:10367000311112C091110BC01B82282F3AEA239FEF
:10368000212D11248BEA821B8A832B5A03C02B83A2
:103690001A822095298310C0911106C085E5820FFA
:1036A0008B831A828BEA06C08BEA820F8B831A8285
:1036B00080E085E5821B89832FEFF21601F16F2DE3
:1036C000CE0103965C830E94EA1A6F2DCE0102960A
:1036D0000E94EA1A6F2DCE0101960E94EA1A112467
:1036E0006F2D6095669F612D11248B81860F8B83D2
:1036F0008A81860F8A838981860F89835C815F3FF7
:10370000C9F0F12C2F2D552321F0559F212D09F0C3
:103710002F5FF22E622FCE0103960E94EA1A6F2DC0
:10372000CE0102960E94EA1A6F2DCE0101960E94E8
:10373000EA1A11248B81F80180838A81818389812F
:1037400082830F900F900F900F90DF91CF911F9178
:103750000F91FF900895FC011182108273836283A0
:10376000158214820895DC01ED91FC91309709F0E7
:1037700009940895DC011296ED91FC91139730970E
:1037800009F009940895DC011496ED91FC911597C8
:10379000309709F009940895FC0181E080837483D7
:1037A000638372836183158216821782108608955F
:1037B000CF93DF93EC017C836B830E94D91C6D83D4
:1037C0007E838F839887CE01DF91CF9108950F93E9
:1037D0001F93CF93DF93EC018B0189819A810E9423
:1037E000C31B1C830B831A830983C8010E94B31B6C
:1037F0000E94D91C6D837E838F839887CE01DF91D1
:10380000CF911F910F910895CF93DF93EC01288101
:1038100089819A81222321F00E94B31B18820CC057
:103820006B817C818617970719F0CE010E94E71BF8
:1038300089819A810E94BA1BCE01DF91CF910895B0
:1038400008958230E8F4E82FF0E0EE0FFF1FE45F08
:10385000FE4F71836083813041F0809169008C7FDD
:10386000842B80936900E89A089580916900440F41
:10387000551F440F551F837F842B80936900E99A5D
:1038800008951F920F920FB60F9211242F933F931A
:103890004F935F936F937F938F939F93AF93BF9358
:1038A000EF93FF93E0910C01F0910D010995FF91C9
:1038B000EF91BF91AF919F918F917F916F915F91A8
:1038C0004F913F912F910F900FBE0F901F90189521
:1038D0001F920F920FB60F9211242F933F934F9385
:1038E0005F936F937F938F939F93AF93BF93EF9368
:1038F000FF93E0910E01F0910F010995FF91EF9177
:10390000BF91AF919F918F917F916F915F914F91F7
:103910003F912F910F900FBE0F901F9018951F92FF
:103920000F920FB60F9211242F933F938F939F9373
:10393000AF93BF9380919E0590919F05A091A005A4
:10394000B091A10530919D0523E0230F2D3720F480
:103950000196A11DB11D05C026E8230F0296A11DE9
:10396000B11D20939D0580939E0590939F05A09384
:10397000A005B093A1058091A2059091A305A09107
:10398000A405B091A5050196A11DB11D8093A205C6
:103990009093A305A093A405B093A505BF91AF9103
:1039A0009F918F913F912F910F900FBE0F901F907D
:1039B00018952FB7F89460919E0570919F0580919E
:1039C000A0059091A1052FBF08953FB7F89480916D
:1039D000A2059091A305A091A405B091A50526B5D7
:1039E000A89B05C02F3F19F00196A11DB11D3FBF37
:1039F0006627782F892F9A2F620F711D811D911DC7
:103A000042E0660F771F881F991F4A95D1F70895E6
:103A10008F929F92AF92BF92CF92DF92EF92FF92DE
:103A20006B017C010E94E51C4B015C01C114D104B7
:103A3000E104F104F1F00E94A7230E94E51C68193B
:103A400079098A099B09683E73408105910570F3E5
:103A500021E0C21AD108E108F10888EE880E83E05F
:103A6000981EA11CB11CC114D104E104F10429F772
:103A7000DDCFFF90EF90DF90CF90BF90AF909F9001
:103A80008F900895789484B5826084BD84B58160F8
:103A900084BD85B5826085BD85B5816085BDEEE656
:103AA000F0E0808181608083E1E8F0E01082808135
:103AB00082608083808181608083E0E8F0E08081A3
:103AC00081608083E1EBF0E0808184608083E0EBC3
:103AD000F0E0808181608083EAE7F0E080818460AB
:103AE0008083808182608083808181608083808107
:103AF000806880831092C10008958E3008F08E5047
:103B000087702091100190E4299F90011124822B4D
:103B100080937C0080917A00806480937A00809109
:103B20007A0086FDFCCF809178002091790090E0AA
:103B3000922B0895833081F028F4813099F08230FF
:103B4000A1F008958730A9F08830B9F08430D1F41D
:103B5000809180008F7D03C0809180008F7780935B
:103B60008000089584B58F7702C084B58F7D84BDB1
:103B700008958091B0008F7703C08091B0008F7D51
:103B80008093B0000895CF93DF9390E0FC01E55E51
:103B9000FC4F2491FC01E15DFC4F8491882349F1A5
:103BA00090E0880F991FFC01E95AFC4FA591B49150
:103BB000835B9C4FFC01C591D4919FB7611108C0F4
:103BC000F8948C91209582238C93888182230AC05B
:103BD000623051F4F8948C91322F309583238C937A
:103BE0008881822B888304C0F8948C91822B8C93DB
:103BF0009FBFDF91CF9108950F931F93CF93DF93D2
:103C00001F92CDB7DEB7282F30E0F901E95FFC4FF6
:103C10008491F901E55EFC4F1491F901E15DFC4FDF
:103C200004910023C9F0882321F069830E949A1D22
:103C30006981E02FF0E0EE0FFF1FE35BFC4FA591E1
:103C4000B4919FB7F8948C91611103C010958123B2
:103C500001C0812B8C939FBF0F90DF91CF911F915B
:103C60000F910895CF93DF93282F30E0F901E95F9A
:103C7000FC4F8491F901E55EFC4FD491F901E15DBF
:103C8000FC4FC491CC2391F081110E949A1DEC2F1E
:103C9000F0E0EE0FFF1FED5BFC4FA591B4912C916E
:103CA0002D2381E090E021F480E002C080E090E0EC
:103CB000DF91CF910895FC01818D228D90E0805C91
:103CC0009F4F821B91098F7399270895FC01918D55
:103CD000828D981731F0828DE80FF11D858D90E06F
:103CE00008958FEF9FEF0895FC01918D828D9817B5
:103CF00061F0828DDF01A80FB11D5D968C91928DD0
:103D00009F5F9F73928F90E008958FEF9FEF0895CC
:103D100088EF9FE1892B49F080E090E0892B29F022
:103D20000E94F81F81110C9400000895FC01848DFD
:103D3000DF01A80FB11DA35ABF4F2C91848D90E0D5
:103D400001968F739927848FA689B7892C93A089B0
:103D5000B1898C9180648C93938D848D981306C067
:103D60000288F389E02D80818F7D80830895CF9331
:103D7000DF93EC01888D8823C9F0EA89FB89808173
:103D800085FD05C0A889B9898C9186FD0FC00FB645
:103D900007FCF5CF808185FFF2CFA889B9898C9186
:103DA00085FFEDCFCE010E94961EE7CFDF91CF9128
:103DB0000895CF92DF92FF920F931F93CF93DF93DB
:103DC0001F92CDB7DEB76C0181E0D60158968C9377
:103DD00058975B969C915B975C968C915C97981337
:103DE00007C05096ED91FC915197808185FD2EC0C2
:103DF000F601038D10E00F5F1F4F0F731127F02E98
:103E0000F601848DF81211C00FB607FCF9CFD60168
:103E10005096ED91FC915197808185FFF1CFC601BD
:103E200069830E94961E6981EBCF838DE80FF11D97
:103E3000E35AFF4F6083D6015B960C935B975296D3
:103E4000ED91FC915397808180620CC0D60156960B
:103E5000ED91FC91579760835096ED91FC915197AD
:103E600080818064808381E090E00F90DF91CF912A
:103E70001F910F91FF90DF90CF900895BF92CF9246
:103E8000DF92EF92FF92CF93DF93EC016A017B0107
:103E9000B22EE889F98982E08083411581EE5807C6
:103EA00061057105A1F060E079E08DE390E0A70184
:103EB00096010E94FF25215031094109510956956B
:103EC000479537952795211580E1380798F0E889BF
:103ED000F989108260E874E88EE190E0A70196010C
:103EE0000E94FF25215031094109510956954795F6
:103EF00037952795EC85FD853083EE85FF852083FA
:103F0000188EEC89FD89B082EA89FB898081806105
:103F10008083EA89FB89808188608083EA89FB89C4
:103F2000808180688083EA89FB8980818F7D80839E
:103F3000DF91CF91FF90EF90DF90CF90BF900895E9
:103F40001F920F920FB60F9211242F938F939F936E
:103F5000EF93FF93E091B605F091B7058081E09172
:103F6000BC05F091BD0582FD12C090818091BF0516
:103F70008F5F8F732091C005821751F0E091BF05CC
:103F8000F0E0EA55FA4F958F8093BF0501C080811C
:103F9000FF91EF919F918F912F910F900FBE0F90F6
:103FA0001F9018951F920F920FB60F9211242F9306
:103FB0003F934F935F936F937F938F939F93AF93B1
:103FC000BF93EF93FF9386EA95E00E94961EFF91C0
:103FD000EF91BF91AF919F918F917F916F915F9181
:103FE0004F913F912F910F900FBE0F901F901895FA
:103FF00086EA95E00E945B1E21E0892B09F420E00F
:10400000822F08951092A9051092A80588EE93E0DA
:10401000A0E0B0E08093AA059093AB05A093AC0517
:10402000B093AD058FE293E09093A7058093A6052A
:1040300085EC90E09093B3058093B20584EC90E01A
:104040009093B5058093B40580EC90E09093B7050C
:104050008093B60581EC90E09093B9058093B80504
:1040600082EC90E09093BB058093BA0586EC90E0DB
:104070009093BD058093BC051092BF051092C005BA
:104080001092C1051092C2050895CF92DF92EF926F
:10409000FF920F931F93CF93DF937C016A01EB0193
:1040A00000E010E00C151D0571F06991D701ED914C
:1040B000FC910190F081E02DC7010995892B19F041
:1040C0000F5F1F4FEFCFC801DF91CF911F910F916D
:1040D000FF90EF90DF90CF9008956115710581F00A
:1040E000DB010D900020E9F7AD0141505109461B5D
:1040F000570BDC01ED91FC910280F381E02D0994D6
:1041000080E090E00895EF92FF920F931F93CF937A
:10411000DF938C017B01C0E0D0E0F701EC0FFD1FC5
:104120006491662359F0F801A081B181ED91FC9171
:10413000C8010995892B11F02196EFCFCE01DF91AF
:10414000CF911F910F91FF90EF9008950C946D20E7
:10415000DC01ED91FC910190F081E02D09946BE37D
:1041600073E00C946D200F931F93CF93DF93EC01BA
:104170000E946D208C01CE010E94AF20800F911F04
:10418000DF91CF911F910F9108958F929F92AF92DF
:10419000BF92DF92EF92FF920F931F93CF93DF9323
:1041A000CDB7DEB7A1970FB6F894DEBF0FBECDBF77
:1041B0007C01F42FD52ECB0119A2223008F42AE07D
:1041C0008E010F5D1F4F822E912CA12CB12C6F2FD1
:1041D0007D2DA50194010E94FF25F22FD32ECA0147
:1041E000015011096A3014F4E0E301C0E7E3E60F7F
:1041F000D801EC93232B242B252B49F7B801C701B9
:104200000E946D20A1960FB6F894DEBF0FBECDBF01
:10421000DF91CF911F910F91FF90EF90DF90BF90B2
:10422000AF909F908F900895CF92DF92EF92FF9280
:104230000F931F93CF93DF93EC016A017B0121154C
:10424000310579F4E881F9810190F081E02D642F46
:10425000DF91CF911F910F91FF90EF90DF90CF9062
:1042600009942A303105E9F477FF1AC06DE20E9403
:10427000A8208C0144275527BA014C195D096E0905
:104280007F092AE0CE010E94C520800F911FDF9197
:10429000CF911F910F91FF90EF90DF90CF900895F5
:1042A0002AE0B701A601CE01DF91CF911F910F91B6
:1042B000FF90EF90DF90CF900C94C5209A01AB0156
:1042C000662757FD6095762F0C9414212115310532
:1042D00041F4DC01ED91FC910190F081E02D642F1F
:1042E00009940C94C5209A01462F50E060E070E0DC
:1042F0000C9466219A01AB0160E070E00C94662199
:104300004F925F926F927F928F929F92AF92BF92E5
:10431000CF92DF92EF92FF920F931F93CF93DF9391
:10432000EC016A017B01B22E9A01AB01C701B60113
:104330000E94C325882319F06EE373E027C026018D
:104340003701E89477F82FEF3FEF4FE75FE7C301BE
:10435000B2010E94C32581110DC02FEF3FEF4FE73F
:104360005FE7C301B2010E940D2418161CF462E439
:1043700073E00CC02FEF3FEF4FE75FE4C701B601DA
:104380000E945C251816ACF466E473E0CE01DF9160
:10439000CF911F910F91FF90EF90DF90CF90BF9042
:1043A000AF909F908F907F906F905F904F900C9404
:1043B0006D202FEF3FEF4FE75FECC701B6010E9482
:1043C0000D2487FDE1CF20E030E0A901C701B6014F
:1043D0000E940D2487FF0AC06DE2CE010E94A82032
:1043E0008C01F7FAF094F7F8F09402C000E010E0C6
:1043F000A12C60E070E080E09FE3AB1441F020E08E
:1044000030E040E251E40E941124A394F6CF9B01D6
:10441000AC01C701B6010E94A9236B017C010E9477
:104420007E242B013C010E94AA249B01AC01C70100
:10443000B6010E94A8236B017C012AE0B301A2010E
:10444000CE010E94C520080F191FBB2039F06EE471
:1044500072E0CE010E946D20080F191F7B2C77207F
:1044600041F120E030E040E251E4C701B6010E9492
:1044700060256B017C010E9479244B01AA2497FCE2
:10448000A094BA2C2AE030E0B501A401CE010E942C
:104490001421080F191FC501B4010E94AC249B010F
:1044A000AC01C701B6010E94A8236B017C017A947C
:1044B000D6CFC801DF91CF911F910F91FF90EF9060
:1044C000DF90CF90BF90AF909F908F907F906F9034
:1044D0005F904F9008950C9480210F931F93CF937A
:1044E000DF93EC010E94D91C688779878A879B87B4
:1044F000E881F9810084F185E02DCE01099597FFCF
:1045000015C00E94D91C088519852A853B85601B2A
:10451000710B820B930B0C811D812E813F816017E3
:1045200071078207930720F38FEF9FEFDF91CF9101
:104530001F910F910895FF920F931F93CF93DF93D5
:10454000EC018B01F42ECE010E946D229C0197FD9F
:1045500028C08D32910519F1C0970A9710F1FF20FC
:1045600019F02E323105F9F001301105F9F0023061
:10457000110569F42D30310551F034F42950310919
:104580002230310520F012C02032310579F4E88163
:10459000F9810680F781E02DCE010995D4CF8DE217
:1045A00003C0C90105C08EE290E002C08FEF9FEF0B
:1045B000DF91CF911F910F91FF900895CF92DF92DD
:1045C000FF920F931F93CF93DF9300D000D0CDB70E
:1045D000DEB76C01042F40E00E949B22FC0197FD96
:1045E0004BC020E030E0A901F12C112707FD109508
:1045F000E017F107E9F0ED32F105C1F0CF01C09706
:104600000A97B0F4AAE0B0E00E944F269B01AC01EB
:10461000CF01AA2797FDA095BA2F280F391F4A1F4F
:104620005B1F205331094109510902C0FF24F39453
:10463000D601ED91FC910680F781E02DC60129831A
:104640003A834B835C830995C6010E946D22FC016D
:10465000C09729813A814B815C810A9748F2E01723
:10466000F10731F2FF2061F066277727CB01621B4B
:10467000730B840B950B06C060E070E0CB0102C0A9
:10468000CA01B9010F900F900F900F90DF91CF9159
:104690001F910F91FF90DF90CF9008954F925F92FE
:1046A0006F927F92AF92BF92CF92DF92EF92FF9282
:1046B0000F931F93CF93DF93CDB7DEB729013A0154
:1046C000621B730B840B950B29893A894B895C8992
:1046D0002A193B094C095D09298B3A8B4B8B5C8B62
:1046E0009B01AC0169897A898B899C890E94C725C5
:1046F000E418F50806091709A80197010E94212668
:104700002A0D3B1D4C1D5D1DCA01B901DF91CF91E2
:104710001F910F91FF90EF90DF90CF90BF90AF90DF
:104720007F906F905F904F9008950E94602608954B
:104730000E94421D0E9497230E94D70AC8E8DEE12A
:104740000E94140B2097E1F30E94881EF9CF089570
:104750005058BB27AA270ED075C166D130F06BD157
:1047600020F031F49F3F11F41EF45BC10EF4E0958C
:10477000E7FB51C1E92F77D180F3BA1762077307BE
:104780008407950718F071F49EF58FC10EF4E0953B
:104790000B2EBA2FA02D0B01B90190010C01CA01FB
:1047A000A0011124FF27591B99F0593F50F4503EA6
:1047B00068F11A16F040A22F232F342F4427585F98
:1047C000F3CF469537952795A795F0405395C9F7B0
:1047D0007EF41F16BA0B620B730B840BBAF0915068
:1047E000A1F0FF0FBB1F661F771F881FC2F70EC007
:1047F000BA0F621F731F841F48F4879577956795DA
:10480000B795F7959E3F08F0B3CF9395880F08F0C2
:104810009927EE0F979587950895D9D008F481E0F0
:1048200008950CD00FC107D140F0FED030F021F434
:104830005F3F19F0F0C0511139C1F3C014D198F3A2
:104840009923C9F35523B1F3951B550BBB27AA2711
:1048500062177307840738F09F5F5F4F220F331F83
:10486000441FAA1FA9F333D00E2E3AF0E0E830D04F
:1048700091505040E695001CCAF729D0FE2F27D052
:10488000660F771F881FBB1F261737074807AB0720
:10489000B0E809F0BB0B802DBF01FF2793585F4F95
:1048A0002AF09E3F510568F0B6C000C15F3FECF3AF
:1048B000983EDCF3869577956795B795F7959F5F5A
:1048C000C9F7880F911D9695879597F90895E1E0AE
:1048D000660F771F881FBB1F621773078407BA070D
:1048E00020F0621B730B840BBA0BEE1F88F7E09568
:1048F000089504D06894B111D9C00895BCD088F04F
:104900009F5790F0B92F9927B751A0F0D1F0660FBB
:10491000771F881F991F1AF0BA95C9F712C0B130D6
:1049200081F0C3D0B1E00895C0C0672F782F8827E9
:10493000B85F39F0B93FCCF3869577956795B39515
:10494000D9F73EF490958095709561957F4F8F4F84
:104950009F4F0895E89409C097FB3EF49095809589
:10496000709561957F4F8F4F9F4F9923A9F0F92F35
:1049700096E9BB279395F695879577956795B795B3
:10498000F111F8CFFAF4BB0F11F460FF1BC06F5F99
:104990007F4F8F4F9F4F16C0882311F096E911C0AB
:1049A000772321F09EE8872F762F05C0662371F0CC
:1049B00096E8862F70E060E02AF09A95660F771FE0
:1049C000881FDAF7880F9695879597F90895990FBC
:1049D0000008550FAA0BE0E8FEEF16161706E807C9
:1049E000F907C0F012161306E407F50798F0621BEA
:1049F000730B840B950B39F40A2661F0232B242BBF
:104A0000252B21F408950A2609F4A140A6958FEFDD
:104A1000811D811D089597F99F6780E870E060E02F
:104A200008959FEF80EC089500240A941616170647
:104A300018060906089500240A941216130614068F
:104A400005060895092E0394000C11F4882352F0F2
:104A5000BB0F40F4BF2B11F460FF04C06F5F7F4FAA
:104A60008F4F9F4F089557FD9058440F551F59F091
:104A70005F3F71F04795880F97FB991F61F09F3F4B
:104A800079F087950895121613061406551FF2CF74
:104A90004695F1DF08C0161617061806991FF1CFC4
:104AA00086957105610508940895E894BB276627EB
:104AB0007727CB0197F908958ADF08F48FEF0895DF
:104AC0000BD0C0CFB1DF28F0B6DF18F0952309F086
:104AD000A2CFA7CF1124EACFC6DFA0F3959FD1F3D1
:104AE000950F50E0551F629FF001729FBB27F00D9C
:104AF000B11D639FAA27F00DB11DAA1F649F6627F1
:104B0000B00DA11D661F829F2227B00DA11D621F3F
:104B1000739FB00DA11D621F839FA00D611D221FF9
:104B2000749F3327A00D611D231F849F600D211DDD
:104B3000822F762F6A2F11249F5750408AF0E1F080
:104B400088234AF0EE0FFF1FBB1F661F771F881FC9
:104B500091505040A9F79E3F510570F05CCFA6CF11
:104B60005F3FECF3983EDCF3869577956795B795B4
:104B7000F795E7959F5FC1F7FE2B880F911D9695DE
:104B8000879597F9089523DF880B990B0895DB012A
:104B90008F939F930E944F26BF91AF91A29F800D4C
:104BA000911DA39F900DB29F900D11240895AA1BF3
:104BB000BB1B51E107C0AA1FBB1FA617B70710F008
:104BC000A61BB70B881F991F5A95A9F7809590953A
:104BD000BC01CD01089597FB072E16F4009407D071
:104BE00077FD09D00E94D72507FC05D03EF49095AB
:104BF00081959F4F0895709561957F4F0895A1E22B
:104C00001A2EAA1BBB1BFD010DC0AA1FBB1FEE1F46
:104C1000FF1FA217B307E407F50720F0A21BB30B91
:104C2000E40BF50B661F771F881F991F1A9469F70D
:104C300060957095809590959B01AC01BD01CF0169
:104C40000895052E97FB1EF400940E94382657FD08
:104C500007D00E94FF2507FC03D04EF40C943826A1
:104C600050954095309521953F4F4F4F5F4F089598
:104C700090958095709561957F4F8F4F9F4F0895C8
:104C8000A29FB001B39FC001A39F700D811D11248D
:104C9000911DB29F700D811D1124911D08950E94D8
:104CA0004026A59F900DB49F900DA49F800D911D4F
:104CB00011240895EE0FFF1F0590F491E02D099443
:104CC00081E090E0F8940C944C29AEE0B0E0EBE683
:104CD000F6E20C9423290D891E8986E08C831A83C1
:104CE00009838FEF9FE79E838D83AE01475E5F4F01
:104CF0006F89788DCE0101960E948726EF81F88515
:104D0000E00FF11F10822E96E4E00C943F29ACE0F6
:104D1000B0E0EDE8F6E20C9415297C016B018A0104
:104D2000FC0117821682838181FFBDC1CE010196ED
:104D30004C01F7019381F60193FD859193FF8191D9
:104D40006F01882309F4ABC1853239F493FD859155
:104D500093FF81916F01853229F4B70190E00E94A1
:104D60008528E7CF512C312C20E02032A0F48B3263
:104D700069F030F4803259F0833269F420612CC03C
:104D80008D3239F0803339F4216026C022602460EE
:104D900023C0286021C027FD27C030ED380F3A30EE
:104DA00078F426FF06C0FAE05F9E300D1124532EE2
:104DB00013C08AE0389E300D1124332E20620CC0BF
:104DC0008E3221F426FD6BC1206406C08C3611F4AE
:104DD000206802C0883641F4F60193FD859193FF67
:104DE00081916F018111C1CF982F9F7D9554933090
:104DF00028F40C5F1F4FFFE3F9830DC0833631F0B9
:104E0000833771F0833509F05BC022C0F8018081DF
:104E100089830E5F1F4F44244394512C540115C0C5
:104E20003801F2E06F0E711CF801A080B18026FFFE
:104E300003C0652D70E002C06FEF7FEFC5012C87C6
:104E40000E947A282C0183012C852F77222E17C0EF
:104E50003801F2E06F0E711CF801A080B18026FFCE
:104E600003C0652D70E002C06FEF7FEFC5012C8796
:104E70000E946F282C012C852068222E830123FCA0
:104E80001BC0832D90E048165906B0F4B70180E2AC
:104E900090E00E9485283A94F4CFF50127FC859193
:104EA00027FE81915F01B70190E00E9485283110B3
:104EB0003A94F1E04F1A51084114510471F7E5C0DA
:104EC000843611F0893639F5F80127FF07C0608173
:104ED0007181828193810C5F1F4F08C06081718155
:104EE000882777FD8095982F0E5F1F4F2F76B22E63
:104EF00097FF09C090958095709561957F4F8F4F72
:104F00009F4F2068B22E2AE030E0A4010E94B7280B
:104F1000A82EA81844C0853729F42F7EB22E2AE087
:104F200030E025C0F22FF97FBF2E8F36C1F018F484
:104F3000883579F0B4C0803719F0883721F0AFC0D8
:104F40002F2F2061B22EB4FE0DC08B2D8460B82EA1
:104F500009C024FF0AC09F2F9660B92E06C028E022
:104F600030E005C020E130E002C020E132E0F8018D
:104F7000B7FE07C060817181828193810C5F1F4FF2
:104F800006C06081718180E090E00E5F1F4FA40138
:104F90000E94B728A82EA818FB2DFF77BF2EB6FEBB
:104FA0000BC02B2D2E7FA51450F4B4FE0AC0B2FC0A
:104FB00008C02B2D2E7E05C07A2C2B2D03C07A2CF9
:104FC00001C0752C24FF0DC0FE01EA0DF11D80818A
:104FD000803311F4297E09C022FF06C073947394B4
:104FE00004C0822F867809F0739423FD13C020FF3C
:104FF00006C05A2C731418F4530C5718732C7314DE
:1050000068F4B70180E290E02C870E9485287394B1
:105010002C85F5CF731410F4371801C0312C24FF00
:1050200012C0B70180E390E02C870E9485282C8570
:1050300022FF17C021FF03C088E590E002C088E787
:1050400090E0B7010CC0822F867859F021FD02C094
:1050500080E201C08BE227FD8DE2B70190E00E9463
:105060008528A51438F4B70180E390E00E948528D4
:105070005A94F7CFAA94F401EA0DF11D8081B7018B
:1050800090E00E948528A110F5CF332009F451CE7D
:10509000B70180E290E00E9485283A94F6CFF701AC
:1050A0008681978102C08FEF9FEF2C96E2E10C94EE
:1050B0003129F999FECF92BD81BDF89A992780B523
:1050C0000895262FF999FECF1FBA92BD81BD20BD4C
:1050D0000FB6F894FA9AF99A0FBE01960895FC015A
:1050E0000590615070400110D8F7809590958E0F13
:1050F0009F1F0895FC016150704001900110D8F786
:10510000809590958E0F9F1F08950F931F93CF93B7
:10511000DF93182F092FEB018B8181FD03C08FEFE7
:105120009FEF20C082FF10C04E815F812C813D81A6
:10513000421753077CF4E881F9819F012F5F3F4FAD
:1051400039832883108306C0E885F985812F099566
:10515000892B29F72E813F812F5F3F4F3F832E837D
:10516000812F902FDF91CF911F910F910895FA0118
:10517000AA27283051F1203181F1E8946F936E7F96
:105180006E5F7F4F8F4F9F4FAF4FB1E03ED0B4E087
:105190003CD0670F781F891F9A1FA11D680F791FC8
:1051A0008A1F911DA11D6A0F711D811D911DA11DD9
:1051B00020D009F468943F912AE0269F11243019E9
:1051C000305D3193DEF6CF010895462F4770405D84
:1051D0004193B3E00FD0C9F7F6CF462F4F70405D33
:1051E0004A3318F0495D31FD4052419302D0A9F78E
:1051F000EACFB4E0A6959795879577956795BA9588
:10520000C9F700976105710508959B01AC010A2E4D
:1052100006945795479537952795BA95C9F7620F24
:10522000731F841F951FA01D08952F923F924F92C8
:105230005F926F927F928F929F92AF92BF92CF9226
:10524000DF92EF92FF920F931F93CF93DF93CDB72F
:10525000DEB7CA1BDB0B0FB6F894DEBF0FBECDBFA7
:1052600009942A88398848885F846E847D848C8478
:105270009B84AA84B984C884DF80EE80FD800C8181
:105280001B81AA81B981CE0FD11D0FB6F894DEBF64
:0C5290000FBECDBFED010895F894FFCFD4
:10529C00000043068000010000003905201C201C82
:1052AC000100003100F9183000FB302C001C47269F
:1052BC0000825A1F006D6A170041760E00897D042A
:1052CC00000000009523952395239523DF01000012
:1052DC0000005607350945060602DF0100000000F4
:1052EC00F1078C082606E201DF01000000008E1099
:1052FC00410CF80BDB103B11600DDC0FC70B7A0D6A
:10530C00FB0DF10C5B11E20BD30B464C583F454F98
:10531C004600464C583F0048616E647368616B658B
:10532C00206661696C00464C583A25753A00464C2B
:10533C00583F4F4B202841434B2073656E74290016
:10534C00464C58494D473A00726164696F205B00C6
:10535C005D203E2000464C583A25753A4F4B00468E
:10536C004C583F4F4B20726573656E6400494D4736
:10537C0020657863656564732033316B2C2072650E
:10538C00667573696E6720697400464C583F4E4FC2
:10539C004B0052465458203E2000524641434B206D
:1053AC003E200054696D656F75742077616974696E
:1053BC006E6720666F72207061636B657420414369
:1053CC004B2C2061626F7274696E6720464C41539E
:1053DC0048206F7065726174696F6E202E2E2E00DE
:1053EC00464C583A494E560054696D656F75742099
:1053FC00726563656976696E6720464C4153482037
:10540C00696D6167652066726F6D20534552494125
:10541C004C2C2061626F7274696E672E2E2E000AFE
:10542C00464C583F4F4B00464C41534820494D4742
:10543C00205452414E534D495353494F4E205355CE
:10544C00434345535300464C41534820494D472054
:10545C005452414E534D495353494F4E20464149A6
:10546C004C005245424F4F54494E4700464C415315
:10547C004820494D47205452414E534D49535349AE
:10548C004F4E2053554343455353210A0054696DE5
:10549C00656F75742F4572726F722C206572617313
:1054AC00696E67207772697474656E2064617461CB
:1054BC00202E2E2E2000444F4E450000000000D917
:1054CC001E45205B1E741E661EB71E0D0A006E6103
:0A54DC006E00696E66006F766600D0
:00000001FF
