:100000000C94CF010C944F1D0C947C1D0C94F701A3
:100010000C94F7010C94F7010C94F7010C94F70180
:100020000C94F7010C94F7010C94F7010C94F70170
:100030000C94F7010C94F7010C94F7010C94F70160
:100040000C94A91D0C94F7010C94AA200C94DC20AC
:100050000C94F7010C94F7010C94F7010C94F70140
:100060000C94F7010C94F701416E696D6174696F2E
:100070006E2E20667073207265706F727465643DB9
:10008000002070757368496E74657276616C3D000E
:10009000416E696D6174696F6E2E20667073207297
:1000A00065706F727465643D002070757368496E89
:1000B00074657276616C3D00416E696D6174696F43
:1000C0006E2E20696E74656E736974793D200041EF
:1000D0006E696D6174696F6E2E20706F73697469DB
:1000E0006F6E3D2000416E696D6174696F6E2E20E8
:1000F0004D6173746572206272696768746E6573AE
:10010000733D2000416E696D6174696F6E2E2046EB
:1001100050533D20002E2073686F77207570646106
:1001200074653D00206D732E00416E696D617469C8
:100130006F6E2E205374617274757020636F6D70D2
:100140006C6574652E0053746174652E2020696E91
:10015000506C616E652D3E6F7574506C616E652ECE
:100160000053746174652E20206F7574506C616E3D
:10017000652D3E696E506C616E652E00537461741E
:10018000652E20206F7574506C616E652D3E69641C
:100190006C652E0053746174652E202069646C6553
:1001A0002D3E6F7574506C616E652E0009702032A3
:1001B0003D002D20007C00097020313D002D2000E5
:1001C0007C00097020303D002D20007C0009642057
:1001D000303D0020313D0020323D004E6574776F88
:1001E000726B2E204D53472066726F6D20004E6556
:1001F00074776F726B2E20737461727475702063E4
:100200006F6D706C6574652077697468206E6F64BB
:1002100065206E756D6265723D004E6574776F7214
:100220006B2E20617070726F78696D6174652070DB
:1002300061636B6574207472616E736D6973736949
:100240006F6E2074696D65286D73293D004E65746D
:10025000776F726B2E207061636B65742073697A9F
:10026000652862697473293D00202862797465737A
:10027000293D004E6574776F726B2E20626974722F
:1002800061746528626974732F73293D353535357E
:10029000352E00456E74657220746865206E6F643B
:1002A00065206E756D62657220666F722074686974
:1002B00073206E6F64653A004E6574776F726B2EB3
:1002C000204552524F52206E6F206E6F6465494434
:1002D00020666F756E6420696E20454550524F4D03
:1002E00021004E6574776F726B2E202077726974CF
:1002F000696E67206E6F6465494420746F204545C0
:1003000050524F4D3D004E6574776F726B2E2072C8
:10031000656164206E6F646549442066726F6D206C
:10032000454550524F4D3D004E6574776F726B2EB0
:1003300020737461727475702E0000000008000252
:10034000010000030407000000000000000001029B
:100350000408102040800102040810200102040853
:100360001020040404040404040402020202020231
:1003700003030303030300000000230026002900F9
:1003800000000000250028002B00000000002400D1
:1003900027002A00C409910BC818F11B0C21112455
:1003A0001FBECFEFD8E0DEBFCDBF13E0A0E0B1E0CD
:1003B000E8EEF1E502C005900D92A634B107D9F739
:1003C00026E0A6E4B3E001C01D92A232B207E1F735
:1003D00013E0CEE9D3E004C02297FE010E94F3258A
:1003E000C439D107C9F70E9450210C94F2280C940B
:1003F000000080E090E00895CF93DF9300D000D01C
:1004000000D0CDB7DEB7AB01DC01ED91FC910190DE
:10041000F081E02D19821A821B821C821D821E82AD
:100420009E012F5F3F4FBE016C5F7F4F099526965F
:100430000FB6F894DEBF0FBECDBFDF91CF91089508
:10044000CF93DF9300D000D000D0CDB7DEB7AB01A3
:10045000DC01ED91FC910190F081E02D19821A826E
:100460001B821C821D821E829E012F5F3F4FBE0198
:100470006C5F7F4F099526960FB6F894DEBF0FBECE
:10048000CDBFDF91CF910895FC0189E191E0918387
:100490008083138212828FEF868387838087818790
:1004A0008287838781E08487168615861582148269
:1004B00080916F0590917005892B21F4F093700560
:1004C000E0936F05A0916D05B0916E05109721F036
:1004D0001596FC93EE931497F0936E05E0936D05DB
:1004E00008950F931F93CF93DF93EC01162F072FDF
:1004F0006B8788EE93E00E947D25655071097D87AA
:100500006C87AB01662757FD6095762FCE010E9460
:10051000B90B0C84DD85C02D64E071E085E895E0C1
:100520000E949D214AE050E0612F702F85E895E000
:100530000E94A02265E171E085E895E00E949D217E
:100540004AE050E0BE0185E895E00E94842264E222
:1005500071E085E895E00E949D2185E895E0DF91B6
:10056000CF911F910F910C94CB21CF93C62F609305
:10057000710565EE70E085E895E00E949D214AE0F6
:1005800050E06C2F85E895E00E94992285E895E07F
:10059000CF910C94CB21CF93DF9300D01F92CDB796
:1005A000DEB7FC016087442361F019821A821B8246
:1005B000AE014F5F5F4F6EE670E08BE893E00E9404
:1005C0000C1A0F900F900F90DF91CF910895FF922A
:1005D0000F931F93CF93DF93EC01F62E042F122F6E
:1005E00080917503811111C08CE593E00E94440253
:1005F00087E291E090935D0380935C0310926C031B
:1006000010926B0381E08093750320E030E04EE6AA
:1006100050E06BE873E08CE593E00E94B61BFC01B0
:100620008FEF868380EB878380EF808780916D03D7
:10063000811111C08BE493E00E94440285E391E0B4
:1006400090934C0380934B0310925B0310925A03D8
:1006500081E080936D0320E030E04EE650E06BE8EF
:1006600073E08BE493E00E94B61BFC018FEF86835E
:1006700080EB878380EF80878EE00E94851EE0916B
:100680000A01F0910B01E80FF91FF0930B01E093C1
:100690000A0162E370E0CE010E9471026FEFCE01A9
:1006A0000E94B502F9860A8741E0612FCE010E94BF
:1006B000CB0269E271E085E895E00E949D2185E822
:1006C00095E0DF91CF911F910F91FF900C94CB217A
:1006D0001F93CF93DF93EC01162F8985861791F036
:1006E0006FEC70E085E895E00E949D214AE050E0C3
:1006F000612F85E895E00E94992285E895E00E94A7
:10070000CB211987DF91CF911F9108951F93CF932C
:10071000DF93EC01162F8A85861791F068EB70E065
:1007200085E895E00E949D214AE050E0612F85E830
:1007300095E00E94992285E895E00E94CB211A87D6
:10074000DF91CF911F9108951F93CF93DF9300D036
:100750001F92CDB7DEB7162F4AE06EE670E08BE849
:1007600093E00E94491A0E94F31D9B01AC0160E0D6
:1007700078E38EE090E00E946D25892F96FD8095AC
:10078000E82FEF738F7096FD8F5FE695E695E695FF
:10079000E670F0E0E35FFE4F2181289F202D812D40
:1007A000112422952F708295807F282B8081820FC3
:1007B00097FD81958058282F3EE6239F212D1124F7
:1007C0008091480391E0980F9093480389838FEFBD
:1007D0008A831B83822F90E0BC01660F771F680F0E
:1007E000791F65577C4FCE0101960E94041C0F9023
:1007F0000F900F90DF91CF911F9108955F926F92AC
:100800007F928F929F92AF92BF92CF92DF92EF92A0
:10081000FF920F931F93CF93DF9300D01F92CDB71A
:10082000DEB7862E142F19821A821B82AE014F5F0B
:100830005F4F6EE670E08BE893E00E940C1A8091A7
:1008400047038F5F80934703282D31E0230F08F47F
:100850002FEF282D230F08F42FEF2E3638F421E048
:10086000382D320F08F43FEF932E02C07DE6972E0D
:10087000292D210F08F42FEF292D210F08F42FEF38
:100880002E3630F4292D210F08F42FEF622E02C0EE
:100890006DE6662E282D31E0231B08F420E0282D7C
:1008A000231B08F420E02E3638F421E0382D321BCB
:1008B00008F430E0732E02C05DE6752E272D211B53
:1008C00008F420E0272D211B08F420E02E3630F418
:1008D000272D211B08F420E0522E02C04DE6542E95
:1008E000612F70E0660F771F6E36710514F06DE6AC
:1008F00070E0882777FD8095982F1F921F921F9296
:1009000020E12F93A12CB12C6501AA941DE6E12EC4
:10091000F12C00E010E020E030E0A9010E947423F7
:10092000062F0F900F900F900F90152DFF24FA9423
:100930006116A0F0809147038983FA820B83212FEF
:1009400030E0B901660F771F620F731F65577C4F48
:10095000CE0101960E94041C1F5FEACF19821A8201
:1009600010E21B83852D90E0BC01660F771F680F96
:10097000791F65577C4FCE0101960E94041C198295
:100980001A8200E80B83872D90E0BC01660F771F69
:10099000680F791F65577C4FCE0101960E94041C99
:1009A00019821A828FEF8B83882D90E0BC01660F2D
:1009B000771F680F791F65577C4FCE0101960E9403
:1009C000041C19821A820B83892D90E0BC01660FEA
:1009D000771F680F791F65577C4FCE0101960E94E3
:1009E000041C19821A821B83712CB301660F771FB6
:1009F000660D771D65577C4FCE0101960E94041C41
:100A00000F900F900F90DF91CF911F910F91FF905A
:100A1000EF90DF90CF90BF90AF909F908F907F909E
:100A20006F905F900895AF92BF92CF92DF92EF9256
:100A3000FF920F931F93CF93DF93EC0180914A03B2
:100A400081112EC08885813021F118F1823029F57D
:100A50006A8570E080E090E01F921F921F922AE06A
:100A60002F93E7E3AE2EB12CC12CD12CE12CF12C2D
:100A70008701EA9420E030E0A9010E947423462F08
:100A80006985CE010E94FE030F900F900F900F908A
:100A900004C06A85CE010E94A40381E080934A03CA
:100AA000CE010E94BF0B882309F491C060917105AB
:100AB00081E795E00E94EE1A809149038F5F809351
:100AC0004903843609F074C01092490300917205FD
:100AD00010917305101611060CF06AC08B8590E01A
:100AE0000196801791076CF54C855D854F5F5F4FD0
:100AF0005D874C87662757FD6095762FCE010E9453
:100B0000B90BEC84FD8460E970E085E895E00E9413
:100B10009D214AE050E0B80185E895E00E948422DA
:100B200069EA70E085E895E00E949D214AE050E086
:100B3000B70185E895E00E94842285E895E00E944F
:100B4000CB218B8590E00197081719078CF54C8510
:100B50005D854150510957FF02C040E050E05D877C
:100B60004C87662757FD6095762FCE010E94B90B02
:100B7000EC84FD8468E670E085E895E00E949D21A4
:100B80004AE050E0B80185E895E00E94842261E8DF
:100B900070E085E895E00E949D214AE050E0B701B1
:100BA00085E895E00E94842285E895E00E94CB21AB
:100BB00010924A03CE01DF91CF911F910F91FF90C8
:100BC000EF90DF90CF90BF90AF900C94050CDF9129
:100BD000CF911F910F91FF90EF90DF90CF90BF903A
:100BE000AF900895DC018D919C91009739F0DC0164
:100BF000ED91FC910190F081E02D09940895DC01C4
:100C00008D919C91009739F0DC01ED91FC9102806F
:100C1000F381E02D09940895579A569A0F960C94F3
:100C2000FF05DC018D919C91009739F0DC01ED917D
:100C3000FC910190F081E02D09940895DC018D91E3
:100C40009C91009739F0DC01ED91FC910280F381D9
:100C5000E02D09940895549A569A0F960C941E0606
:100C600087FF02C05F9A01C05F985E9A5E9886FF18
:100C700002C05F9A01C05F985E9A5E9885FF02C0CD
:100C80005F9A01C05F985E9A5E9884FF02C05F9A87
:100C900001C05F985E9A5E9883FF02C05F9A01C0B0
:100CA0005F985E9A5E9882FF02C05F9A01C05F986B
:100CB0005E9A5E9881FF02C05F9A01C05F985E9A5B
:100CC0005E9880FF02C05F9A01C05F985E9A5E984E
:100CD000089580E00E94300680E00E94300680E0A7
:100CE0000E94300680E00C943006CF93DF9397FD8E
:100CF0004F96EC01A5E0D595C795AA95E1F78FEF42
:100D00000E94300680E00E94300680E00E9430069B
:100D100080E00E943006219790F7DF91CF910895EF
:100D200087FF02C05C9A01C05C985E9A5E9886FF5D
:100D300002C05C9A01C05C985E9A5E9885FF02C012
:100D40005C9A01C05C985E9A5E9884FF02C05C9ACF
:100D500001C05C985E9A5E9883FF02C05C9A01C0F5
:100D60005C985E9A5E9882FF02C05C9A01C05C98B3
:100D70005E9A5E9881FF02C05C9A01C05C985E9AA0
:100D80005E9880FF02C05C9A01C05C985E9A5E9893
:100D9000089580E00E94900680E00E94900680E026
:100DA0000E94900680E00C949006CF93DF9397FD0D
:100DB0004F96EC01B5E0D595C795BA95E1F78FEF61
:100DC0000E94900680E00E94900680E00E949006BB
:100DD00080E00E949006219790F7DF91CF910895CF
:100DE000FF920F931F93CF93DF93EC018091460303
:100DF0008F5F982F97709093460380FD02C080E02C
:100E000001C080E891FD8064947009F0806210E177
:100E1000F12EF80E20E030E000E011E0FE01E20FDC
:100E2000F31F6285662331F070E0C8010E949125AE
:100E30006F5F01C060E067834F2D469F412D1124F5
:100E40004483662311F0615067832F5F3F4F233047
:100E5000310521F7DF91CF911F910F91FF900895F8
:100E6000FC01613011F40C94F00611861086178293
:100E70001682158214820895AF92BF92CF92DF92AC
:100E8000EF92FF920F931F93CF93DF93CDB7DEB70F
:100E90002F970FB6F894DEBF0FBECDBF6C01CB010C
:100EA0008A01F901D6011C966C919A8389835C832F
:100EB0004B8380818B8781818C8782818D87CE0156
:100EC00001960E9430071E86BFE0CB0ED11CC601E2
:100ED0000E9411060E94C906E12CF12CE016F106D1
:100EE0000CF04EC0E981FA812281222329F03F8152
:100EF000230F08F42FEF01C020E03D85239F212D13
:100F000011248FEF2F870E9490062F85822F0E9439
:100F10009006E981FA812181222329F03E81230F65
:100F200008F42FEF01C020E03C85239F212D1124E0
:100F3000A22EB12CBA2CAA242081222329F03D8193
:100F4000230F08F42FEF01C020E03B85239F212DC4
:100F50001124A22A8B2D0E9490068A2D0E949006B1
:100F600088859D81891B8D8389859E81891B8E83C0
:100F70008A859F81891B8F838FEFE81AF80AAECF8D
:100F8000C8010E94D506C6010E941E062F960FB604
:100F9000F894DEBF0FBECDBFDF91CF911F910F91AF
:100FA000FF90EF90DF90CF90BF90AF900895AF92F9
:100FB000BF92CF92DF92EF92FF920F931F93CF9346
:100FC000DF93CDB7DEB72F970FB6F894DEBF0FBE15
:100FD000CDBF6C01CB018A01F901D6011C966C9141
:100FE0009A8389835C834B8380818B8781818C8703
:100FF00082818D87CE0101960E9430071E86BFE058
:10100000CB0ED11CC6010E94F2050E946906E12C9C
:10101000F12CE016F1060CF04EC0E981FA81228134
:10102000222329F03F81230F08F42FEF01C020E095
:101030003D85239F212D11248FEF2F870E9430069D
:101040002F85822F0E943006E981FA812181222397
:1010500029F03E81230F08F42FEF01C020E03C85EA
:10106000239F212D1124A22EB12CBA2CAA24208139
:10107000222329F03D81230F08F42FEF01C020E047
:101080003B85239F212D1124A22A8B2D0E943006FF
:101090008A2D0E94300688859D81891B8D838985D4
:1010A0009E81891B8E838A859F81891B8F838FEF09
:1010B000E81AF80AAECFC8010E947506C6010E9460
:1010C000FF052F960FB6F894DEBF0FBECDBFDF91A0
:1010D000CF911F910F91FF90EF90DF90CF90BF9035
:1010E000AF900895AF92BF92CF92DF92EF92FF92AE
:1010F0000F931F93CF93DF93CDB7DEB72F970FB624
:10110000F894DEBF0FBECDBF6C01CB018A01F9019F
:10111000D6011C966C919A8389835C834B83808172
:101120008B8781818C8782818D87CE0101960E9479
:10113000300783E08E87BFE0CB0ED11CC6010E9432
:1011400011060E94C906E12CF12CE016F1060CF004
:101150005BC0E981FA812281222329F03F81230F9C
:1011600008F42FEF01C020E03D85239F212D11249D
:101170008FEF2F870E9490062F85822F0E94900666
:10118000E981FA812181222329F03E81230F08F48D
:101190002FEF01C020E03C85239F212D1124A22E9A
:1011A000B12CBA2CAA242081222329F03D81230FBF
:1011B00008F42FEF01C020E03B85239F212D11244F
:1011C000A22A8B2D0E9490068A2D0E9490068E8561
:1011D00029813A81280F311D3A8329832B813C8153
:1011E000215031093C832B8388859D81891B8D8308
:1011F00089859E81891B8E838A859F81891B8F8328
:101200008FEFE81AF80AA1CFC8010E94D506C601DF
:101210000E941E062F960FB6F894DEBF0FBECDBFFC
:10122000DF91CF911F910F91FF90EF90DF90CF90C2
:10123000BF90AF900895AF92BF92CF92DF92EF929E
:10124000FF920F931F93CF93DF93CDB7DEB72F9706
:101250000FB6F894DEBF0FBECDBF6C01CB018A0183
:10126000F901D6011C966C919A8389835C834B8328
:1012700080818B8781818C8782818D87CE010196C9
:101280000E94300783E08E87BFE0CB0ED11CC601E1
:101290000E94F2050E946906E12CF12CE016F1068D
:1012A0000CF05BC0E981FA812281222329F03F8181
:1012B000230F08F42FEF01C020E03D85239F212D4F
:1012C00011248FEF2F870E9430062F85822F0E94D6
:1012D0003006E981FA812181222329F03E81230F02
:1012E00008F42FEF01C020E03C85239F212D11241D
:1012F000A22EB12CBA2CAA242081222329F03D81D0
:10130000230F08F42FEF01C020E03B85239F212D00
:101310001124A22A8B2D0E9430068A2D0E943006AD
:101320008E8529813A81280F311D3A8329832B81AB
:101330003C81215031093C832B8388859D81891B09
:101340008D8389859E81891B8E838A859F81891BD8
:101350008F838FEFE81AF80AA1CFC8010E947506A3
:10136000C6010E94FF052F960FB6F894DEBF0FBE90
:10137000CDBFDF91CF911F910F91FF90EF90DF9044
:10138000CF90BF90AF9008958DE793E00C94A90B98
:10139000AF92BF92CF92DF92EF92FF920F931F9383
:1013A0008CE395E00E946018873A9346C8F08CE37E
:1013B00095E00E946018BC0180E090E00E945424F7
:1013C00020E03EE04FE856E40E94062518166CF037
:1013D0008CE395E00E946018BC0180E090E009C0B9
:1013E00067EA73E680E090E004C067E877E480E0B5
:1013F00090E01F921F921F922FEF2F9320E4A22EB6
:10140000B12CC12CD12C17E8E12E17E4F12E00E00D
:1014100010E027EA33E640E050E00E9474238DE7B5
:1014200093E00E9486038CE395E00E947E180F9063
:101430000F900F900F9081111AC08CE395E00E94DD
:10144000A3176CE771E085E895E00E949D2185E88F
:1014500095E00E94CB216AEE74E085ED94E00E9455
:10146000E71C40E060E08DE793E00E94CB028CE354
:1014700095E00E949318882311F18CE395E00E9477
:10148000A31761E671E085E895E00E949D2185E85B
:1014900095E00E94CB216EED74E085ED94E00E9412
:1014A000E71C41E062E08DE793E01F910F91FF9010
:1014B000EF90DF90CF90BF90AF900C94CB021F9134
:1014C0000F91FF90EF90DF90CF90BF90AF90089575
:1014D000AF92BF92CF92DF92EF92FF920F931F9342
:1014E0008CE395E00E9474188CE395E00E947418D8
:1014F000BC0180E090E00E94542420E030E041EE06
:1015000055E40E940625181644F08CE395E00E94ED
:101510007418BC0180E090E004C060E27CE180E0EF
:1015200090E01F921F921F922DE62F93A12CB12CB9
:10153000650110E2E12E1CE1F12E00E010E020E058
:1015400030E0A9010E9474238DE793E00E946803B4
:101550008CE395E00E946A188CE395E00E946A187B
:10156000BC0180E090E00E9454240F900F900F90F7
:101570000F9020E030E041EE55E40E940625181659
:1015800044F08CE395E00E946A18BC0180E090E092
:1015900004C060E27CE180E090E01F921F921F9205
:1015A0002DE62F93A12CB12C650110E2E12E1CE158
:1015B000F12E00E010E020E030E0A9010E94742349
:1015C0008DE793E00E9486038CE395E00E949318D8
:1015D0000F900F900F900F90811122C08CE395E037
:1015E0000E94A31766E471E085E895E00E949D21C2
:1015F00085E895E00E94CB2164EE74E085ED94E0EF
:101600000E94E71C41E061E08DE793E01F910F919C
:10161000FF90EF90DF90CF90BF90AF900C94CB02F3
:101620001F910F91FF90EF90DF90CF90BF90AF9000
:10163000089560E48DE793E00E9486038CE395E0D3
:101640000E947E188823D1F08CE395E00E94A317B6
:1016500064E971E085E895E00E949D2185E895E0C8
:101660000E94CB2164EE74E085ED94E00E94E71CBB
:1016700040E061E08DE793E00C94CB0208950F9376
:10168000CF93DF93CDB7DEB728970FB6F894DEBFC0
:101690000FBECDBF26E040E052EC61E070E085E88F
:1016A00095E00E9448200FE12BE54DE96FEF8CE3B8
:1016B00095E00E94E81848EE53E060E070E0CE014B
:1016C00001960E94B30BCE0101960E94BF0B8111BF
:1016D00005C08CE395E00E944317F5CF20E040E081
:1016E00067E38DE793E00E94E70228960FB6F8942F
:1016F000DEBF0FBECDBFDF91CF910F9108958CE378
:1017000095E00E944317882321F08CE395E00E9426
:10171000A31785ED94E00E94131D8DE793E00C94D0
:10172000130569E17BE08AEE94E00E94BA1C68EC44
:1017300079E084EE94E00E94BA1C68E67AE08EEDCF
:1017400094E00E94BA1C6AEE74E085ED94E00C947B
:10175000DB1C48EE53E060E070E0FC0144835583FD
:10176000668377830895FC0144835583668377837A
:101770000895FC01448355836683778308958F928F
:101780009F92AF92BF92CF92DF92EF92FF920F9310
:101790001F93CF93DF93EC010E94F31D8C809D80FB
:1017A000AE80BF8081149104A104B10429F4688340
:1017B00079838A839B8319C0088119812A813B819F
:1017C0006B017C01C01AD10AE20AF30AC814D904D9
:1017D000EA04FB0460F0B901A801480D591D6A1D17
:1017E0007B1D488359836A837B8381E001C080E04D
:1017F000DF91CF911F910F91FF90EF90DF90CF90ED
:10180000BF90AF909F908F900895CF93DF93EC019E
:101810000E94F31D688379838A839B83DF91CF9134
:10182000089508958091F0049091F104DC01ED9108
:10183000FC910484F585E02D0994CF93DF93EC01AE
:1018400061E08A810E94041F89858CBD8A858DBDD7
:101850007894DF91CF910895FC01F8948CB581873D
:101860008DB582878CB5837F8CBD8CB58F7D8CBD0B
:101870008CB58C7F8CBD8DB58E7F8DBD60E08281F7
:101880000C94041FF8942091FA04233021F4209141
:10189000F60421110FC02091FA04233011F478943A
:1018A00007C0DC01ED91FC910288F389E02D0995D8
:1018B00080E00895DC01ED91FC910488F589E02D2C
:1018C00061E0099581E008958EBD00000DB407FE2A
:1018D000FDCF8EB50895CF93DF931F92CDB7DEB7BE
:1018E000DC01ED91FC910480F581E02D698309957F
:1018F0006981882359F08091F804861711F06F3FB1
:1019000029F49091F40481E0911101C080E00F90DE
:10191000DF91CF9108952F923F924F925F927F92E5
:101920008F929F92AF92BF92CF92DF92EF92FF92EF
:101930000F931F93CF93DF93EC01962E5A01722ED3
:10194000802E10E0CE2CD12CE12CF12CE881F981F5
:101950000190F081E02D01E0272DA501692DCE0138
:1019600009950E94F31D1B012C010E94F31D6219B1
:101970007309840995096C157D058E059F0540F452
:10198000692DCE010E946B0C882379F381E004C09D
:101990001F5F8116D8F680E0DF91CF911F910F91E4
:1019A000FF90EF90DF90CF90BF90AF909F908F907F
:1019B0007F905F904F903F902F900895EF92FF920D
:1019C0001F93CF93DF931F92CDB7DEB77C01DC016D
:1019D000ED91FC91008CF18DE02D69830995698171
:1019E000862F8F770E94640C80E00E94640C182F71
:1019F000D701ED91FC91028CF38DE02DC701099583
:101A0000812F0F90DF91CF911F91FF90EF9008955C
:101A10000F931F93CF93DF93EC0167E00E94DE0CDE
:101A2000082F68E0CE010E94DE0C182F69E0CE017D
:101A30000E94DE0C402F50E060E070E0BA015527B4
:101A40004427480F511D611D711D812F90E0982F73
:101A50008827480F591F611D711DCB01BA010E94D3
:101A6000542420E034E244E752E40E940A250E9414
:101A70002824DF91CF911F910F9108950F931F9309
:101A8000CF93DF9300D0CDB7DEB78C01DC01ED91B1
:101A9000FC91008CF18DE02D4A8369830995698161
:101AA000862F80680E94640C4A81842F0E94640CF7
:101AB000D801ED91FC91028CF38DE02DC8010F90BF
:101AC0000F90DF91CF911F910F910994CF92DF92E8
:101AD000EF92FF921F93CF93DF93EC016A017B019A
:101AE0001091FA04143039F4E881F9810488F589F9
:101AF000E02D63E00995C701B6010E94542420E05F
:101B000034E244E752E40E94C0230E9428246B017F
:101B10007C01AC016627772767E0CE010E943E0D6D
:101B200077276F2D5E2D4D2D68E0CE010E943E0D72
:101B30004C2D69E0CE010E943E0D133041F4E88146
:101B4000F9810488F589E02D62E0CE010995E881EC
:101B5000F9810488F589E02D612FCE01DF91CF91C5
:101B60001F91FF90EF90DF90CF9009941F93CF9338
:101B7000DF93EC01162F8091FA04681709F461C015
:101B8000623009F440C070F4662309F444C0613047
:101B900009F057C061E0CE010E94DE0C482F437E61
:101BA00044603FC06330C1F0643009F04AC061E076
:101BB000CE010E94DE0C482F437E4C6061E0CE01D6
:101BC0000E943E0D8885882381F1E881F98106888D
:101BD000F789E02D61E014C061E0CE010E94DE0CC7
:101BE000482F437E406161E0CE010E943E0D888512
:101BF0008823D9F0E881F9810688F789E02D60E033
:101C0000CE01099512C061E0CE010E94DE0C482F82
:101C1000437E486006C061E0CE010E94DE0C482F82
:101C2000437E61E0CE010E943E0D8091FA04811155
:101C300006C067E2CE010E94DE0C87FFF6CF10934C
:101C4000FA04DF91CF911F910895CF93DF93EC01B8
:101C5000603208F06FE16F838885882311F0669504
:101C60006F8361E1CE010E94DE0C482F407E8F81A0
:101C7000482B61E1CE01DF91CF910C943E0DCF92C4
:101C8000DF92EF92FF920F931F93CF93DF93EC01BC
:101C9000F62ED42EC52E122FE881F9810488F589FD
:101CA000E02D61E0099567E2CE010E94DE0C87FF1E
:101CB000FACF40E065E2CE010E943E0D1E3308F0EF
:101CC0001DE3E11004C0002319F000E401C000E8A6
:101CD000E881F981008CF18DE02DCE01099580E835
:101CE0000E94640C83E0810F0E94640C8F2D0E947F
:101CF000640C8D810E94640C802F0E94640C0D2D59
:101D0000ED2CFC2C8E2D801B811730F4F701819176
:101D10007F010E94640CF6CFE881F981028CF38D7B
:101D2000E02DCE010995E881F9810488F589E02D3F
:101D300064E0CE0109950E94F31D6B017C018B814B
:101D40000E943A1F892B81F0E881F9810488F58986
:101D5000E02D61E0CE01DF91CF911F910F91FF90B7
:101D6000EF90DF90CF9009940E94F31D6C197D09CC
:101D70008E099F09683E73408105910528F7DFCFE2
:101D8000CF93DF93EC011092F9041092F8041092B3
:101D9000F7041092F6041092F5041092F4041092D5
:101DA000F3041092F20468E20E94DE0C82FF0AC083
:101DB0006DE3CE010E94DE0C482F44606DE3CE013E
:101DC0000E943E0D40E465E2CE010E943E0DE88196
:101DD000F9810488F589E02D63E0CE01DF91CF9190
:101DE0000994DF92EF92FF920F931F93CF93DF93AB
:101DF000EC018B01E881F9810488F589E02D61E02F
:101E0000099501151105E1F0E881F981008CF18D4A
:101E1000E02DCE0109958EEB0E94640C7801D12C47
:101E2000F70181917F010E94640CD394F0E1DF12ED
:101E3000F7CFE881F981028CF38DE02DCE01099571
:101E40006DE3CE010E94DE0C8E7F91E0012B09F440
:101E500090E0482F492B6DE3CE01DF91CF911F9188
:101E60000F91FF90EF90DF900C943E0D8F929F9218
:101E7000AF92BF92DF92EF92FF920F931F93CF9397
:101E8000DF93CDB7DEB7AE970FB6F894DEBF0FBEC7
:101E9000CDBF7C01D42E8EE28E010F5F1F4FD80183
:101EA000E82F1D92EA95E9F791E0998334E03A83AF
:101EB00042E04B8393E09D834E833F8340E4488719
:101EC00035E039879A8796E09B8793E39C8737E0D4
:101ED0003D8798E09F8799E0998B99E19B8B92E4ED
:101EE0009C8B55E25D8B4E8B46E24F8B388F38E2F0
:101EF000398F30E13A8F39E23B8F3CED3C8F8D8F4B
:101F000088E88E8F8FE28F8F8DE288A380E389A38C
:101F100037E33BA330E93CA338E33DA39EA39CE316
:101F20009FA39FE898A79DE399A792E19AA79FE6B0
:101F30009BA78CA78FEF8DA76F3131F06B3231F0FB
:101F4000663531F489ED05C08EE403C08CE601C02E
:101F500084EE8E876F3141F06B3221F0663521F4CB
:101F600080E003C080E401C080EC888B2AA361E09C
:101F7000D70112968C910E94041F61E0F7018281C3
:101F80000E94CB1E0E943D120E94F31D4B015C017A
:101F90004AEA6FE2C7010E943E0D6FE2C7010E944C
:101FA000DE0C8A3A59F00E94F31D681979098A09F2
:101FB0009B09623371058105910550F30E94F31D61
:101FC0004B015C0145E56FE2C7010E943E0D6FE2E7
:101FD000C7010E94DE0C853559F00E94F31D681977
:101FE00079098A099B09623371058105910550F3CE
:101FF000B12CF801EB0DF11DEB0DF11D60816F3F70
:1020000031F04181C7010E943E0DB394F2CF60E0F0
:1020100070E0C7010E94F10ED701ED91FC9111977C
:102020000084F185E02D18966C91C7010995D701C0
:10203000ED91FC910488F589E02D61E0C7010995D7
:102040000E94F31D4B015C0167E2C7010E94DE0C98
:1020500087FD0BC00E94F31D681979098A099B0945
:10206000623371058105910578F30E94F31D6819AB
:1020700079098A099B09623371058105910588F404
:1020800043E050E062E17CE0F70184810E942F1D73
:10209000F092F104E092F004D7011596DC9281E011
:1020A00001C080E0AE960FB6F894DEBF0FBECDBF84
:1020B000DF91CF911F910F91FF90EF90DF90BF9034
:1020C000AF909F908F900895CF93DF93EC016111B3
:1020D0000DC064E2CE010E94DE0C90E091958195E6
:1020E000910995958795DF91CF91089541E063E23D
:1020F0000E943E0D63E2CE010E94DE0C81FFFACF0A
:10210000E8CFCF93DF93EC018091FA048330A9F4F8
:102110008091F604811111C060E0CE010E9464102C
:10212000863A9F4F54F4E881F9810488F589E02DBF
:1021300061E0CE01099581E001C080E0DF91CF919F
:102140000895FF920F931F93CF93DF93EC0180913B
:10215000FA04833001F568E2CE010E94DE0C82FDB4
:1021600028C019C08091F9048D3330F4E091F9044E
:10217000F0E0E550FB4F1082E881F981028CF38D8D
:10218000E02DCE010995E881F9810488F589E02DDB
:1021900063E0CE01099560E0CE010E946410909347
:1021A000F3048093F204DF91CF911F910F91FF9080
:1021B0000895E881F9810488F589E02D61E0CE0178
:1021C0000995E881F981008CF18DE02DCE0109950A
:1021D00080E00E94640C80E00E94640C8093F6040E
:1021E0008091F6048334D0F48091F6048093F60451
:1021F00080E00E94640C8093F7048E81811109C0F5
:102200009091F7048D81981721F08091F7048F3F0A
:1022100039F48091F604833018F017C082E4E6CFD9
:102220001092F604E881F981028CF38DE02DCE0145
:102230000995E881F9810288F389E02DCE01DF91CB
:10224000CF911F910F91FF9009948091F6048350D4
:102250008093F90480E00E94640C8093F80480E08D
:102260000E94640C982F90789093F404982F9074A7
:102270009093F504E881F9810684F785E02D682FB5
:10228000CE010995F12C8091F904F81608F06ACF77
:102290000F2D10E080E00E94640CF801E550FB4F28
:1022A0008083F394F0CF4F925F926F927F929F92D0
:1022B000AF92BF92EF920F931F93CF93DF93EC01F6
:1022C000162F5A01922E6DE30E94DE0C482F4460B7
:1022D0006DE3CE010E943E0D0E94F31D2B013C01D7
:1022E000CE010E9481108823C1F0E881F981008825
:1022F000F189E02DE12C292DA501612FCE01099551
:10230000DF91CF911F910F91EF90BF90AF909F9071
:102310007F906F905F904F9008950E94F31D641915
:10232000750986099709683E734081059105E8F6AD
:10233000E881F9810480F581E02DCE010995D0CFA7
:102340004F925F926F927F929F92AF92BF92CF9285
:10235000DF92EF92FF920F93CF93DF93EC015B013B
:10236000942E1092F504F090F804C090F204D090EE
:10237000F3046DE30E94DE0C482F44606DE3CE0150
:102380000E943E0D0E94F31D2B013C01CE010E94D4
:102390008110882311F1F092F804E881F981008816
:1023A000F189E02DEE24E39400E0292DA5016F2DA5
:1023B000CE010995D092F304C092F204DF91CF913F
:1023C0000F91FF90EF90DF90CF90BF90AF909F90D4
:1023D0007F906F905F904F9008950E94F31D641955
:1023E000750986099709683E73408105910598F63D
:1023F000E881F9810480F581E02DCE010995C6CFF1
:10240000CF93DF93EC016887662311F04FE001C0A2
:102410004AE163E1CE010E943E0D8885882341F0A8
:1024200061E1CE010E94DE0C482F4F71406602C070
:102430004F81406861E1CE01DF91CF910C943E0D58
:102440001F93CF93DF93EC01162F662311F04DE518
:1024500001C045E56AE5CE010E943E0D112311F051
:102460004CE701C040E76CE5CE01DF91CF911F91B1
:102470000C943E0DFC0166830895CF93CFB7F8947A
:1024800080913B05811127C0ECE6F3E08491E8E5FB
:10249000F3E09491E82FF0E0EE0FFF1FE657FC4FBA
:1024A000A591B4918C91892321F461E08AE00E9486
:1024B000041F61E08AE00E94CB1E8CB580618CBD58
:1024C0008CB580648CBD61E08DE00E94CB1E61E024
:1024D0008BE00E94CB1E80913B058F5F80933B0574
:1024E000CFBFCF910895FC0180E58583168260837C
:1024F000528341830895FC018CB583838DB5848319
:102500003581268180913A05882399F09FB7F89408
:1025100080913A05813059F48DB3809338054DB3DD
:1025200080913905809584238DBB9FBF02C0909315
:1025300038053CBD2DBD60E080810C94041FCF9315
:10254000DF93EC0161E088810E94041F80913A05CD
:10255000882361F09FB7F89420913A05809138055F
:10256000213019F48DBB9FBF01C08FBF8B818CBD03
:102570008C818DBDDF91CF9108951F93CF93DF9311
:10258000EC010E947B1285E00E94640C80E00E94B6
:10259000640C182FCE010E949F12812FDF91CF91E2
:1025A0001F9108950E94BD12817008951F93CF93CB
:1025B000DF93EC01162F442339F040E066E00E94DF
:1025C000D612CE010E949F12CE010E94D21281111A
:1025D000FBCFCE010E947B12812FDF91CF911F9103
:1025E0000C94640CEF92FF920F931F93CF93DF93A1
:1025F00000D0CDB7DEB77C01142F062F41E062E09A
:102600002A8359830E94D612802F0E94640C59811C
:10261000852F0E94640C812F0E94640C2A81822FD6
:102620000E94640CC7010F900F90DF91CF911F9112
:102630000F91FF90EF900C949F122F923F924F9228
:102640005F926F927F928F929F92AF92BF92CF9242
:10265000DF92EF92FF920F931F93CF93DF936C0162
:102660002A013B015901CA019927C0E0D1E0C81BEA
:10267000D90BE12CF12C0115110579F10C171D076F
:1026800008F4E80141E062E0C6010E94D612862DFE
:102690000E94640C852D0E94640C842D0E94640CA1
:1026A00015012E0C3F1C4101F40181914F010E9444
:1026B000640CC401821993098C179D07A8F3C60105
:1026C0000E949F124C0E5D1E611C711CEC0EFD1EC3
:1026D0000C1B1D0BC0E0D1E0CECFDF91CF911F913D
:1026E0000F91FF90EF90DF90CF90BF90AF909F90B1
:1026F0008F907F906F905F904F903F902F900895B4
:10270000EF92FF920F931F93CF93DF931F92CDB75A
:10271000DEB77C01142F062F41E062E559830E9449
:10272000D612802F0E94640C5981852F0E94640C60
:10273000812F0E94640CC7010F90DF91CF911F91F0
:102740000F91FF90EF900C949F12FC01DB0183E44A
:1027500091E09183808312968C91129782831396D5
:102760008C911397838314968C9114978483159678
:102770008C911597858316968C911697868317965C
:102780008C911797878318968C9118978087199644
:102790008C91199781871A968C9182870895CF9290
:1027A000DF92FF920F931F93CF93DF93CDB7DEB7E6
:1027B0000DB71EB7262F30E0220F331FA9014F5F40
:1027C0005F4FEDB7FEB7E41BF50B0FB6F894FEBFF5
:1027D0000FBEEDBF4DB75EB74F5F5F4FDA01F82E0A
:1027E0006C018C2D8F198617C8F4C601F601708113
:1027F00072957F7070637A3308F0795D7C93FFEF98
:10280000CF1ADF0AFC0180818F7080638A3308F061
:10281000895D11968C9311971296E3CFFA01E20F1E
:10282000F31F1082BA0185E895E00E94CF210FB610
:10283000F8941EBF0FBE0DBFDF91CF911F910F9176
:10284000FF90DF90CF9008952F923F924F925F922A
:102850006F927F928F929F92AF92BF92CF92DF92B0
:10286000EF92FF920F931F93CF93DF93CDB7DEB715
:102870006C970FB6F894DEBF0FBECDBF4C016B8FC7
:10288000E98AFA8A0B8B1C8B2D8B3E8B4F8B2C2C61
:10289000AA8E40E050E0BA01CE0141960E9480131A
:1028A00007E010E023E831E040E050E0BA01CE015B
:1028B00041960E941D132AE349E050E060E070E079
:1028C000CE0141960E94F2120E94F31D2B013C01A1
:1028D0005AE0E52EF12CC12CD12CAE014F5F5F4F99
:1028E000598F488FC4010E94420C882301F18091C6
:1028F000F8045B8D85131BC03090F904B3E0B31569
:1029000020F48091FB048634F9F061E08A8D0E9406
:10291000CB1E61E08A8D0E94041F61E070E080E0C0
:1029200090E00E94221E60E08A8D0E94041F0E9497
:10293000F31D6419750986099709693B7B40810578
:10294000910580F280E027C18091FC048C34E9F687
:102950008091FD048835C9F68091FE048A3309F020
:10296000A6C066E0631508F0A2C084E090E000E035
:1029700010E0282FBB24BA94B80EFC01E550FB4FA1
:102980003081303308F4BEC030813A3308F0BAC029
:1029900030816AE0A801649F8001659F100D1124B9
:1029A00000531109030F111D01968830910509F795
:1029B000B22E2220C1F06BE871E085E895E00E941C
:1029C000C2214AE050E0632D85E895E00E949922FB
:1029D00063E971E085E895E00E94C221632D8BEFE9
:1029E00094E00E94CF13E1E0EB0DF0E0E550FB4FE7
:1029F00080818A3309F0A6CF0E94F31D2B013C0190
:102A00000C151D0539F0C60101970817190709F0C3
:102A10004EC029C032E03B0D68018FEFC81AD80ABA
:102A2000331508F5E32FF0E0E550FB4F2081570107
:102A30009FEFA91AB90AA70160E070E0CE014196A4
:102A40003C8F0E94F212C5019F773C8D892B41F487
:102A5000A50160E070E0CE0141960E9480133C8D9C
:102A60003F5F7501DDCF1F930F93A8E9B1E0BF93DE
:102A7000AF93498D4F93588D5F930E940B26482F3B
:102A80000F900F900F900F900F900F90222049F011
:102A9000BE016F5F7F4F85E895E04C8F0E94CF218C
:102AA0004C8DBE016F5F7F4FC4010E94A0118091C9
:102AB000FE048F3309F029CF64E0361210C046E0DF
:102AC0006CE872E0C4010E94A011222009F41DCF1D
:102AD00062EA71E085E895E00E94CF2116CF87E099
:102AE000381213CF8091FF04853409F00ECF809106
:102AF00000058F3409F009CF80910105863409F073
:102B000004CF08C030813A3309F04ECF243009F0A9
:102B100050CF18CF87010A50110901308CE71807F0
:102B200078F0222031F060EB71E085E895E00E94BA
:102B3000CF2147E06DEC71E0C4010E94A01102CFEB
:102B400046E06CE872E0C4010E94A011222031F03E
:102B50006CE872E085E895E00E94CF21212F47E0E4
:102B600050E060E070E0CE0141960E94F21226EF44
:102B70002E0D48E050E060E070E0CE0141960E94EA
:102B8000F2122AE349E050E060E070E0CE014196A5
:102B90000E94F21281E06C960FB6F894DEBF0FBE71
:102BA000CDBFDF91CF911F910F91FF90EF90DF90FC
:102BB000CF90BF90AF909F908F907F906F905F90DD
:102BC0004F903F902F9008958F929F92AF92BF9217
:102BD000CF92DF92EF92FF920F931F93CF93DF93E9
:102BE000CDB7DEB762970FB6F894DEBF0FBECDBF8C
:102BF0004C01B62EEC86FD860E871F87288B398BFD
:102C00004A8BDC2C46E06CE872E00E94A011CC20DC
:102C1000D9F065ED71E085E895E00E94CF2169EE7D
:102C200071E085E895E00E94C221C4010E94080D70
:102C3000AB01BC01405C5D4B604F7F4F2AE030E050
:102C400085E895E00E94A622C4010E94080DAB0110
:102C5000BC01405C5D4B604F7F4FC4010E94660D1C
:102C6000B401CE0101960E94A513CD2CEC84FD8405
:102C70000E851F85288939894A896B2DCE010196D9
:102C80000E942414B82EDD20A9F067EE71E085E8DB
:102C900095E00E94C221C4010E94080DAB01BC0155
:102CA000405452446F4071092AE030E085E895E0D5
:102CB0000E94A622C4010E94080DAB01BC01405431
:102CC00052446F407109C4010E94660D8B2D6296BB
:102CD0000FB6F894DEBF0FBECDBFDF91CF911F912D
:102CE0000F91FF90EF90DF90CF90BF90AF909F90AB
:102CF0008F900895C82F882331F06EEC72E085E83C
:102D000095E00E94C22188E028E130E00FB6F894F7
:102D1000A895209360000FBE80936000CC2331F013
:102D20006EE285E895E00E94C421FACFFFCFAF9212
:102D3000BF92CF92DF92EF92FF920F931F93CF93A8
:102D4000DF93CDB7DEB762970FB6F894DEBF0FBE44
:102D5000CDBF0C871D872E873F87488B598B6A8B89
:102D6000DE2C2091F904243008F45CC02091FB048F
:102D7000263409F057C02091FC042C3409F052C0CD
:102D80002091FD04283509F04DC02091FE042F3319
:102D900009F048C0B090F8042091F9042730A1F45C
:102DA0002091FF04253481F4209100052F3461F433
:102DB00020910105263441F400E026E04CE852E081
:102DC0006B2D0E9453112EC0BC01CE0101960E94B2
:102DD000A513AC2CCD2CEC84FD840E851F85288991
:102DE00039894A896B2DCE0101960E94E41588230A
:102DF00059F0DD2031F068ED72E085E895E00E9441
:102E0000C2218D2D0E947A16DD2061F069EF72E0FB
:102E100085E895E00E94C22162E273E085E895E0D2
:102E20000E94CF2162960FB6F894DEBF0FBECDBFD1
:102E3000DF91CF911F910F91FF90EF90DF90CF9096
:102E4000BF90AF900895EF92FF920F931F93CF938F
:102E5000DF931F92CDB7DEB77C01FC0100811181A9
:102E6000C80169830E94FF276981681719F0C801AA
:102E70000E940728C7010F90DF91CF911F910F91FA
:102E8000FF90EF900895CF92EF920F931F93CF93FF
:102E9000DF93CDB7DEB72B970FB6F894DEBF0FBE2A
:102EA000CDBF8C0145960E94420C8823F1F18091A0
:102EB000F904823169F4EBEFF4E0D80101900D924E
:102EC0008A95E1F78091F804F801848B81E02EC0A7
:102ED00083E491E09A838983F80187898B83808DCD
:102EE0008C83818D8D83828D8E83838D8F83848D62
:102EF0008887858D8987868D8A87878D8B8789E0EE
:102F0000C82EEE24E39400915C0510915D0520919C
:102F10005E0530915F0540916005509161056091BB
:102F20006205CE0101960E94971680E02B960FB69F
:102F3000F894DEBF0FBECDBFDF91CF911F910F91EF
:102F4000EF90CF900895CF92DF92EF92FF920F9380
:102F50001F93CF93DF93EC011C896BED71E085E843
:102F600095E00E949D214AE050E0612F85E895E0C0
:102F70000E9499220C811D81EA80FB80C880D98043
:102F80006DEC71E085E895E00E949D214AE050E0FB
:102F9000B60185E895E00E94A02263ED71E085E826
:102FA00095E00E949D214AE050E0B70185E895E058
:102FB0000E94A02267ED71E085E895E00E949D21C6
:102FC0004AE050E0B80185E895E00E94A0220C8517
:102FD0001D85EE80FF8062EC71E085E895E00E943F
:102FE0009D214AE050E0B70185E895E00E94A022CB
:102FF00068EC71E085E895E00E949D214AE050E090
:10300000B80185E895E00E94A0226BEC71E085E8AC
:1030100095E00E949D210E851F85E884F98467EB69
:1030200071E085E895E00E949D214AE050E0B701FB
:1030300085E895E00E94A0226DEB71E085E895E0BF
:103040000E949D214AE050E0B80185E895E00E9489
:10305000A02260EC71E085E895E00E949D2108893E
:1030600019890A84DB85C02D6CEA71E085E895E05A
:103070000E949D214AE050E0BE0185E895E00E9453
:10308000A02262EB71E085E895E00E949D214AE074
:1030900050E0B80185E895E00E94A02265EB71E060
:1030A00085E895E00E949D2185E895E0DF91CF912C
:1030B0001F910F91FF90EF90DF90CF900C94CB2158
:1030C000FC012389E20FF11DE20FF11DB897808109
:1030D00091810895FC012389E20FF11DE20FF11D9A
:1030E0007C97808191810895FC012389E20FF11D75
:1030F000E20FF11DB297808191810895FC018081DA
:103100009181873A934668F082819381873A93460A
:1031100040F081E024813581273A334618F080E081
:10312000089581E00895CF93DF93EC016881798160
:1031300080E090E00E94542420E030E041EE55E42D
:103140000E94BC23181604F16A817B8180E090E024
:103150000E94542420E030E041EE55E40E94BC235C
:10316000181694F06C817D8180E090E00E945424D8
:10317000C1E020E030E041EE55E40E94BC23181687
:103180000CF4C0E08C2F01C080E0DF91CF91089556
:1031900040E35FEE68E08CE595E00E94731283E403
:1031A00091E090935205809351058AE080935305F6
:1031B00082E0809354051092550581E08093FA04D3
:1031C000109257058FE18093580510925905089584
:1031D0009F92AF92BF92CF92DF92EF92FF920F93A6
:1031E0001F93CF93DF9300D0CDB7DEB77C01162FAE
:1031F000942EA22E9AE2C92ED12C68E273E085E8C3
:1032000095E00E949D2185E895E00E94CB211F3F1B
:10321000C9F48AE290E00E94FF27B82EF701838B61
:1032200066E073E085E895E00E949D214AE050E069
:103230006B2D85E895E00E94992285E895E00E9433
:10324000CB211AC062EE72E085E895E00E949D21D4
:103250004AE050E0612F85E895E00E94992285E8D8
:1032600095E00E94CB21DA82C982612FCE010196BE
:103270000E942317F701138BF7014389493C28F17A
:1032800068EB72E085E895E00E949D2185E895E075
:103290000E94CB2163E972E085E895E00E949D21C0
:1032A00085E895E00E94CB2185E895E00E94651FA6
:1032B000892BD1F385E895E00E947123DA82C982D7
:1032C000CE0101960E94231798CF6701F5E1CF0E3A
:1032D000D11C292D6A2DC6010E94360F61E0C6015E
:1032E0000E94001261E0C6010E943A12602FC601DE
:1032F0000E94250E8FEF9FEFF701958384839383C0
:103300008283918380839387828791878087978345
:103310008683918B808B97878687958784878CE0BF
:10332000848B61E089E00E94CB1E60E089E00E940E
:10333000041F63E772E085E895E00E949D2185E81F
:1033400095E00E94CB216DE472E085E895E00E9453
:103350009D214AE050E068EE85E895E00E949922C0
:1033600069E672E085E895E00E949D214AE050E020
:103370006DE170E085E895E00E94842285E895E0A3
:103380000E94CB216AE172E085E895E00E949D21D0
:103390004AE050E065E070E085E895E00E94842214
:1033A00085E895E00E94CB21F70113896EEE71E06C
:1033B00085E895E00E949D214AE050E0612F85E874
:1033C00095E00E94992285E895E00E94CB210F901C
:1033D0000F90DF91CF911F910F91FF90EF90DF90B1
:1033E000CF90BF90AF909F90089511240895CF93F0
:1033F000DF93EC012881269F212D28832981269F98
:10340000212D29832A81269F212D2A830E94F519A7
:10341000CE01DF91CF910895FA0120E030E00396CC
:10342000261737076CF44081DC0113974C934181D8
:1034300011964C93428111964C932F5F3F4FEFCFE3
:103440000895CF92DF92EF92FF920F931F93CF9345
:10345000DF931F92CDB7DEB77B018C01C12CD12C3D
:10346000CE14DF0461F0642FC80149830E94F7196C
:103470008FEFC81AD80A0D5F1F4F4981F1CF0F9007
:10348000DF91CF911F910F91FF90EF90DF90CF9040
:10349000089540950C94211A8F929F92AF92BF92FB
:1034A000EF92FF920F931F93CF93DF93EC0118825B
:1034B00019821A824423B9F1E0E0F0E08B010A5F3F
:1034C0001F4F7B0189E0E80EF11C842E912CA12C6A
:1034D000B12CD801AE0FBF1F2C91D701AE0FBF1F6B
:1034E0006C912223E1F06623D1F030E040E050E01F
:1034F0002F5F3F4F4F4F5F4F70E080E090E06F5F76
:103500007F4F8F4F9F4F0E946D259B01AC01C501DE
:10351000B4010E946D25DE01AE0FBF1F8C93319662
:10352000E330F105B1F6CE01DF91CF911F910F91FC
:10353000FF90EF90BF90AF909F908F900895CF92A3
:10354000DF92EF92FF92CF93DF93EC0180916705BA
:10355000909168059C012F5F3F4F30936805209341
:103560006705861797079CF10E94F31D9B01AC012C
:10357000E0916705F091680588EE93E0E89FB0015F
:10358000E99F700DF89F700D1124882777FD8095B5
:10359000982FC0906305D0906405E0906505F09089
:1035A00066052C193D094E095F090E94A5253A833D
:1035B000298310926805109267050E94F31D60939D
:1035C0006305709364058093650590936605DF91AC
:1035D000CF91FF90EF90DF90CF900895AF92BF9280
:1035E000CF92DF92EF92FF920F931F93CF93DF93CF
:1035F00000D01F92CDB7DEB78C01B62EF8018381C3
:103600009481A581B681892B8A2B8B2BD1F00E94C6
:10361000FF1DC0906905D0906A05E0906B05F090A1
:103620006C056C197D098E099F09D8011396CD9000
:10363000DD90ED90FC9016976C157D058E059F052D
:10364000E8F20E94FF1D6093690570936A058093FC
:103650006B0590936C05E0906F05F0907005E11498
:10366000F10451F1F701A484D80111968D919C9138
:1036700012978436910508F41486D701ED91FC91D8
:10368000C280D3804B2DB701CE0101960E944C1A07
:10369000F70145855685628173819E012F5F3F4FFB
:1036A000C701F6010995D7011C96AC921C97149698
:1036B000ED90FC901597D3CF69E170E0C8010E94AE
:1036C0009F1A0F900F900F90DF91CF911F910F9144
:1036D000FF90EF90DF90CF90BF90AF900895CF9282
:1036E000DF92EF92FF920F931F93CF93DF93EC0142
:1036F0004423F1F06115710581F19B0140E050E038
:1037000060E472E48FE090E00E94C725CB80DC800B
:10371000ED80FE8089019A010C151D052E053F05DF
:1037200010F4970186010B831C832D833E8315C003
:103730006115710571F09B0140E050E060E472E4B6
:103740008FE090E00E94C7252B833C834D835E83EE
:1037500004C01B821C821D821E82DF91CF911F91AB
:103760000F91FF90EF90DF90CF900895CF92DF926E
:10377000EF92FF920F931F93CF93DF93EC016B01B6
:103780008A017901121613061CF07A0100E010E09C
:10379000E881F9810480F581E02DCE010995C80109
:1037A000880F991F800F911F8C0D9D1D9B838A830D
:1037B000FE86ED86E881F9810084F185E02DCE0159
:1037C000099541E0BC0181E795E00E946F1BCE01A5
:1037D000DF91CF911F910F91FF90EF90DF90CF90ED
:1037E00008958FEF80937105109273051092720502
:1037F0000895FC012081222321F0269F212D09F02C
:103800002F5FFC0120830895FF920F931F93CF93A6
:10381000DF9300D000D0CDB7DEB7FC018B01408133
:10382000F1805281842F8F71880F880F880F282F85
:1038300035E5239F212D1124342F3074942F90725D
:1038400047FD25C031110EC0911106C0822F809511
:103850008B832A8319823FC08BEA8B832B5A2A835E
:10386000198239C091110DC0382F4AEA349F312D89
:1038700011249BEA931B9B8325552A83198280E0A0
:103880002AC01B8280E0822F80958A8312C031116A
:1038900012C091110BC01B82282F3AEA239F212DC1
:1038A00011248BEA821B8A832B5A03C02B831A8232
:1038B0002095298310C0911106C085E5820F8B8366
:1038C0001A828BEA06C08BEA820F8B831A8280E011
:1038D00085E5821B89832FEFF21601F16F2DCE0152
:1038E00003965C830E94F91B6F2DCE0102960E9405
:1038F000F91B6F2DCE0101960E94F91B11246F2D2B
:103900006095669F612D11248B81860F8B838A8140
:10391000860F8A838981860F89835C815F3FC9F026
:10392000F12C2F2D552321F0559F212D09F02F5FCC
:10393000F22E622FCE0103960E94F91B6F2DCE014D
:1039400002960E94F91B6F2DCE0101960E94F91B71
:1039500011248B81F80180838A818183898182830C
:103960000F900F900F900F90DF91CF911F910F91BB
:10397000FF900895FC011182108273836283158287
:1039800014820895DC01ED91FC91309709F00994BF
:103990000895DC011296ED91FC911397309709F090
:1039A00009940895DC011496ED91FC9115973097D8
:1039B00009F009940895FC0181E080837483638396
:1039C0007283618315821682178210860895CF93C1
:1039D000DF93EC017C836B830E94F31D6D837E83F8
:1039E0008F839887CE01DF91CF9108950F931F9316
:1039F000CF93DF93EC018B0189819A810E94D21CC5
:103A00001C830B831A830983C8010E94C21C0E9475
:103A1000F31D6D837E838F839887CE01DF91CF91D5
:103A20001F910F910895CF93DF93EC012881898135
:103A30009A81222321F00E94C21C18820CC06B8143
:103A40007C818617970719F0CE010E94F61C8981A8
:103A50009A810E94C91CCE01DF91CF9108958230D6
:103A6000E8F4E82FF0E0EE0FFF1FE858FA4F7183FB
:103A70006083813041F0809169008C7F842B80933A
:103A80006900E89A089580916900440F551F440F1A
:103A9000551F837F842B80936900E99A08951F92B4
:103AA0000F920FB60F9211242F933F934F935F9372
:103AB0006F937F938F939F93AF93BF93EF93FF93F6
:103AC0008091780590917905892B29F0E09178050E
:103AD000F09179050995FF91EF91BF91AF919F9179
:103AE0008F917F916F915F914F913F912F910F90A7
:103AF0000FBE0F901F9018951F920F920FB60F9246
:103B000011242F933F934F935F936F937F938F93E2
:103B10009F93AF93BF93EF93FF9380917A0590911A
:103B20007B05892B29F0E0917A05F0917B050995B9
:103B3000FF91EF91BF91AF919F918F917F916F9185
:103B40005F914F913F912F910F900FBE0F901F905B
:103B500018951F920F920FB60F9211242F933F9337
:103B60008F939F93AF93BF9380917D0590917E0536
:103B7000A0917F05B091800530917C0523E0230F53
:103B80002D3720F40196A11DB11D05C026E8230F95
:103B90000296A11DB11D20937C0580937D05909315
:103BA0007E05A0937F05B09380058091810590915B
:103BB0008205A0918305B09184050196A11DB11DD8
:103BC0008093810590938205A0938305B09384052B
:103BD000BF91AF919F918F913F912F910F900FBE09
:103BE0000F901F9018952FB7F89460917D057091F4
:103BF0007E0580917F05909180052FBF08953FB786
:103C0000F8948091810590918205A0918305B091EF
:103C1000840526B5A89B05C02F3F19F00196A11D6C
:103C2000B11D3FBF6627782F892F9A2F620F711D14
:103C3000811D911D42E0660F771F881F991F4A95CD
:103C4000D1F70895CF92DF92EF92FF92CF93DF9357
:103C50006B017C010E94FF1DEB01C114D104E10442
:103C6000F10489F00E94BB230E94FF1D6C1B7D0B99
:103C7000683E734090F381E0C81AD108E108F1086A
:103C8000C851DC4FEACFDF91CF91FF90EF90DF90EA
:103C9000CF900895789484B5826084BD84B58160A6
:103CA00084BD85B5826085BD85B5816085BDEEE644
:103CB000F0E0808181608083E1E8F0E01082808123
:103CC00082608083808181608083E0E8F0E0808191
:103CD00081608083E1EBF0E0808184608083E0EBB1
:103CE000F0E0808181608083EAE7F0E08081846099
:103CF00080838081826080838081816080838081F5
:103D0000806880831092C10008958E3008F08E5034
:103D1000877020910C0190E4299F90011124822B3F
:103D200080937C0080917A00806480937A008091F7
:103D30007A0086FDFCCF809178002091790090E098
:103D4000922B0895833081F028F4813099F08230ED
:103D5000A1F008958730A9F08830B9F08430D1F40B
:103D6000809180008F7D03C0809180008F77809349
:103D70008000089584B58F7702C084B58F7D84BD9F
:103D800008958091B0008F7703C08091B0008F7D3F
:103D90008093B0000895CF93DF9390E0FC01E25B45
:103DA000FC4F2491FC01EE59FC4F8491882349F18A
:103DB00090E0880F991FFC01E657FC4FA591B49144
:103DC00080589C4FFC01C591D4919FB7611108C0E8
:103DD000F8948C91209582238C93888182230AC049
:103DE000623051F4F8948C91322F309583238C9368
:103DF0008881822B888304C0F8948C91822B8C93C9
:103E00009FBFDF91CF9108950F931F93CF93DF93BF
:103E10001F92CDB7DEB7282F30E0F901E65CFC4FEA
:103E20008491F901E25BFC4F1491F901EE59FC4FCA
:103E300004910023C9F0882321F069830E94A21E07
:103E40006981E02FF0E0EE0FFF1FE058FC4FA591D5
:103E5000B4919FB7F8948C91611103C010958123A0
:103E600001C0812B8C939FBF0F90DF91CF911F9149
:103E70000F910895CF93DF93282F30E0F901E65C8E
:103E8000FC4F8491F901E25BFC4FD491F901EE59AA
:103E9000FC4FC491CC2391F081110E94A21EEC2F03
:103EA000F0E0EE0FFF1FEA58FC4FA591B4912C9162
:103EB0002D2381E090E021F480E002C080E090E0DA
:103EC000DF91CF9108950E940626FC01818D228DFD
:103ED00090E0805C9F4F821B91098F739927089512
:103EE000FC01918D828D981731F0828DE80FF11DC4
:103EF000858D90E008958FEF9FEF0895FC01918DDF
:103F0000828D981761F0828DDF01A80FB11D5D963B
:103F10008C91928D9F5F9F73928F90E008958FEFA9
:103F20009FEF089582E091E2892B49F080E090E0D4
:103F3000892B29F00E94022181110C940000089520
:103F4000FC01848DDF01A80FB11DA35ABF4F2C9136
:103F5000848D90E001968F739927848FA689B78905
:103F60002C93A089B1898C9180648C93938D848DDE
:103F7000981306C00288F389E02D80818F7D8083AD
:103F80000895CF93DF93EC01888D8823C9F0EA89E7
:103F9000FB89808185FD05C0A889B9898C9186FD42
:103FA0000FC00FB607FCF5CF808185FFF2CFA8893F
:103FB000B9898C9185FFEDCFCE010E94A01FE7CF7C
:103FC000DF91CF910895CF92DF92FF920F931F93CD
:103FD000CF93DF931F92CDB7DEB76C0181E0D6019E
:103FE00058968C9358975B969C915B975C968C91B6
:103FF0005C97981307C05096ED91FC915197808182
:1040000085FD2EC0F601038D10E00F5F1F4F0F736B
:104010001127F02EF601848DF81211C00FB607FC9F
:10402000F9CFD6015096ED91FC915197808185FF93
:10403000F1CFC60169830E94A01F6981EBCF838DF8
:10404000E80FF11DE35AFF4F6083D6015B960C9396
:104050005B975296ED91FC915397808180620CC0E2
:10406000D6015696ED91FC91579760835096ED914D
:10407000FC91519780818064808381E090E00F9073
:10408000DF91CF911F910F91FF90DF90CF90089516
:10409000BF92CF92DF92EF92FF92CF93DF93EC012A
:1040A0006A017B01B22EE889F98982E0808341159B
:1040B00081EE580761057105A1F060E079E08DE3BC
:1040C00090E0A70196010E94A525215031094109E0
:1040D00051095695479537952795211580E1380761
:1040E00098F0E889F989108260E874E88EE190E040
:1040F000A70196010E94A5252150310941095109C6
:104100005695479537952795EC85FD853083EE8547
:10411000FF852083188EEC89FD89B082EA89FB89AE
:10412000808180618083EA89FB89808188608083C7
:10413000EA89FB89808180688083EA89FB898081A4
:104140008F7D8083DF91CF91FF90EF90DF90CF90B4
:10415000BF9008951F920F920FB60F9211242F93C4
:104160008F939F93EF93FF93E0919505F0919605C0
:104170008081E0919B05F0919C0582FD12C09081A9
:1041800080919E058F5F8F7320919F05821751F05C
:10419000E0919E05F0E0EB57FA4F958F80939E05D6
:1041A00001C08081FF91EF919F918F912F910F908E
:1041B0000FBE0F901F9018951F920F920FB60F927F
:1041C00011242F933F934F935F936F937F938F931C
:1041D0009F93AF93BF93EF93FF9385E895E00E9481
:1041E000A01FFF91EF91BF91AF919F918F917F9110
:1041F0006F915F914F913F912F910F900FBE0F9054
:104200001F90189585E895E00E94651F21E0892B95
:1042100009F420E0822F08951092880510928705F6
:1042200088EE93E0A0E0B0E08093890590938A0542
:10423000A0938B05B0938C058BE293E09093860559
:104240008093850585EC90E090939205809391058D
:1042500084EC90E0909394058093930580EC90E03B
:10426000909396058093950581EC90E09093980546
:104270008093970582EC90E090939A05809399053E
:1042800086EC90E090939C0580939B0510929E0590
:1042900010929F051092A0051092A105089508950F
:1042A0000E944A1E0E944F210E943F0BC2E9DFE19B
:1042B0000E947F0B2097E1F30E94921FF9CFCF92CB
:1042C000DF92EF92FF920F931F93CF93DF936C01D6
:1042D0007A01EB01E60EF71E00E010E0CE15DF05D7
:1042E00061F06991D601ED91FC910190F081E02D92
:1042F000C6010995080F191FF1CFC801DF91CF91B1
:104300001F910F91FF90EF90DF90CF90089561156E
:10431000710581F0DB010D900020E9F7AD014150FE
:104320005109461B570BDC01ED91FC910280F38192
:10433000E02D099480E090E00895EF92FF920F93B2
:104340001F93CF93DF938C01FB01C0E0D0E0649119
:104350007F018FEFE81AF80A662361F0D801ED912A
:10436000FC910190F081E02DC8010995C80FD91F7B
:10437000F701EDCFCE01DF91CF911F910F91FF900B
:10438000EF9008950C948721DC01ED91FC91019050
:10439000F081E02D099467E373E00C9487210F937B
:1043A0001F93CF93DF93EC010E9487218C01CE01F4
:1043B0000E94CB21800F911FDF91CF911F910F9110
:1043C00008958F929F92AF92BF92CF92DF92EF9219
:1043D000FF920F931F93CF93DF93CDB7DEB7A197D3
:1043E0000FB6F894DEBF0FBECDBF7C01C42EE52F03
:1043F000CB01D22E19A221E02D1510F02AE0D22EE9
:104400008E010F5D1F4F8D2C912CA12CB12C6C2D8A
:104410007E2FA50194010E94A5258C2DD29E801986
:104420001124015011098A3014F4805D01C0895CA7
:10443000F8018083211531054105510521F0C22E77
:10444000E32FCA01E4CFB801C7010E948721A196DA
:104450000FB6F894DEBF0FBECDBFDF91CF911F9195
:104460000F91FF90EF90DF90CF90BF90AF909F9013
:104470008F900895CF92DF92EF92FF920F931F9348
:10448000CF93DF93EC016A017B012115310579F4AB
:10449000E881F9810190F081E02D642FDF91CF91C7
:1044A0001F910F91FF90EF90DF90CF9009942A30E9
:1044B0003105E9F477FF1AC06DE20E94C4218C0136
:1044C00044275527BA014C195D096E097F092AE076
:1044D000CE010E94E121800F911FDF91CF911F91AA
:1044E0000F91FF90EF90DF90CF9008952AE0B701F1
:1044F000A601CE01DF91CF911F910F91FF90EF9018
:10450000DF90CF900C94E1219A01AB01662757FD13
:104510006095762F0C943A222115310541F4DC0187
:10452000ED91FC910190F081E02D642F09940C94A1
:10453000E1219A01462F50E060E070E00C948C225B
:104540009A01AB0160E070E00C948C220F931F93F2
:10455000CF93DF93EC010E948C228C01CE010E944C
:10456000CB21800F911FDF91CF911F910F91089563
:104570000F931F93CF93DF93EC010E94F31D688785
:1045800079878A879B87E881F9810084F185E02D0E
:10459000CE01099597FF15C00E94F31D0885198566
:1045A0002A853B85601B710B820B930B0C811D814F
:1045B0002E813F81601771078207930720F38FEFE9
:1045C0009FEFDF91CF911F910F910895CF93DF93CC
:1045D000EC01CE010E94B82297FD11C08D329105E9
:1045E00071F09C01205331092A30310540F0E881F7
:1045F000F9810680F781E02DCE010995EACFDF91A0
:10460000CF910895CF92DF92FF920F931F93CF9394
:10461000DF9300D000D0CDB7DEB76C01062F0E942B
:10462000E622FC0197FD4BC020E030E0A901F12C0F
:10463000112707FD1095E017F107E9F0ED32F105BC
:10464000C1F0CF01C0970A97B0F4AAE0B0E00E9491
:10465000E6259B01AC01CF01AA2797FDA095BA2FB3
:10466000280F391F4A1F5B1F205331094109510987
:1046700002C0FF24F394D601ED91FC910680F781EE
:10468000E02DC60129833A834B835C830995C601DB
:104690000E94B822FC01C09729813A814B815C813C
:1046A0000A9748F2E017F10731F2FF2061F0662720
:1046B0007727CB01621B730B840B950B06C060E060
:1046C00070E0CB0102C0CA01B9010F900F900F90AA
:1046D0000F90DF91CF911F910F91FF90DF90CF90BE
:1046E000089561E00C9402234F925F926F927F9243
:1046F000AF92BF92CF92DF92EF92FF920F931F93F0
:10470000CF93DF93CDB7DEB729013A01621B730B5C
:10471000840B950B29893A894B895C892A193B09B5
:104720004C095D09298B3A8B4B8B5C8B9B01AC014F
:1047300069897A898B899C890E946D25E418F5081E
:1047400006091709A80197010E94C7252A0D3B1DDC
:104750004C1D5D1DCA01B901DF91CF911F910F91D1
:10476000FF90EF90DF90CF90BF90AF907F906F90D1
:104770005F904F9008950895D4D008F481E0089593
:104780000CD00AC102D140F0F9D030F021F45F3FE3
:1047900019F0EBC0511134C1EEC00FD198F3992339
:1047A000C9F35523B1F3951B550BBB27AA276217F5
:1047B0007307840738F09F5F5F4F220F331F441F3A
:1047C000AA1FA9F333D00E2E3AF0E0E830D0915072
:1047D0005040E695001CCAF729D0FE2F27D0660F5F
:1047E000771F881FBB1F261737074807AB07B0E89E
:1047F00009F0BB0B802DBF01FF2793585F4F2AF0B4
:104800009E3F510568F0B1C0FBC05F3FECF3983E9E
:10481000DCF3869577956795B795F7959F5FC9F710
:10482000880F911D9695879597F90895E1E0660F99
:10483000771F881FBB1F621773078407BA0720F012
:10484000621B730B840BBA0BEE1F88F7E09508957B
:10485000BCD088F09F5790F0B92F9927B751A0F09E
:10486000D1F0660F771F881F991F1AF0BA95C9F704
:1048700012C0B13081F0C3D0B1E00895C0C0672F3D
:10488000782F8827B85F39F0B93FCCF386957795B4
:104890006795B395D9F73EF490958095709561959D
:1048A0007F4F8F4F9F4F0895E89409C097FB3EF4C8
:1048B00090958095709561957F4F8F4F9F4F99236D
:1048C000A9F0F92F96E9BB279395F69587957795EB
:1048D0006795B795F111F8CFFAF4BB0F11F460FFAB
:1048E0001BC06F5F7F4F8F4F9F4F16C0882311F003
:1048F00096E911C0772321F09EE8872F762F05C017
:10490000662371F096E8862F70E060E02AF09A95B1
:10491000660F771F881FDAF7880F9695879597F9A6
:104920000895990F0008550FAA0BE0E8FEEF161640
:104930001706E807F907C0F012161306E407F50793
:1049400098F0621B730B840B950B39F40A2661F007
:10495000232B242B252B21F408950A2609F4A140AA
:10496000A6958FEF811D811D089597F99F6780E8B7
:1049700070E060E008959FEF80EC089500240A94B1
:104980001616170618060906089500240A9412162A
:104990001306140605060895092E0394000C11F45D
:1049A000882352F0BB0F40F4BF2B11F460FF04C00A
:1049B0006F5F7F4F8F4F9F4F089557FD9058440F63
:1049C000551F59F05F3F71F04795880F97FB991F6E
:1049D00061F09F3F79F0879508951216130614062B
:1049E000551FF2CF4695F1DF08C0161617061806B8
:1049F000991FF1CF86957105610508940895E89493
:104A0000BB2766277727CB0197F908958ADF08F43B
:104A10008FEF08950BD0C0CFB1DF28F0B6DF18F0CC
:104A2000952309F0A2CFA7CF1124EACFC6DFA0F3C8
:104A3000959FD1F3950F50E0551F629FF001729F33
:104A4000BB27F00DB11D639FAA27F00DB11DAA1F52
:104A5000649F6627B00DA11D661F829F2227B00D9F
:104A6000A11D621F739FB00DA11D621F839FA00D2A
:104A7000611D221F749F3327A00D611D231F849F7A
:104A8000600D211D822F762F6A2F11249F575040D1
:104A90008AF0E1F088234AF0EE0FFF1FBB1F661F6C
:104AA000771F881F91505040A9F79E3F510570F025
:104AB0005CCFA6CF5F3FECF3983EDCF3869577950D
:104AC0006795B795F795E7959F5FC1F7FE2B880F20
:104AD000911D9695879597F90895DB018F939F9384
:104AE0000E94E625BF91AF91A29F800D911DA39FCB
:104AF000900DB29F900D11240895AA1BBB1B51E18C
:104B000007C0AA1FBB1FA617B70710F0A61BB70B3D
:104B1000881F991F5A95A9F780959095BC01CD01E2
:104B2000089597FB072E16F4009407D077FD09D05F
:104B30000E947D2507FC05D03EF4909581959F4FFE
:104B40000895709561957F4F0895A1E21A2EAA1BD2
:104B5000BB1BFD010DC0AA1FBB1FEE1FFF1FA2172D
:104B6000B307E407F50720F0A21BB30BE40BF50B2A
:104B7000661F771F881F991F1A9469F760957095B3
:104B8000809590959B01AC01BD01CF010895052E44
:104B900097FB1EF400940E94DE2557FD07D00E946B
:104BA000A52507FC03D04EF40C94DE2550954095C6
:104BB000309521953F4F4F4F5F4F089590958095C9
:104BC000709561957F4F8F4F9F4F08950E94F725F5
:104BD000A59F900DB49F900DA49F800D911D112451
:104BE0000895EE0FFF1F0590F491E02D0994A29F08
:104BF000B001B39FC001A39F700D811D1124911DB1
:104C0000B29F700D811D1124911D089581E090E0E7
:104C1000F8940C94F228AEE0B0E0E1E1F6E20C94F6
:104C2000C9280D891E8986E08C831A8309838FEF3A
:104C30009FE79E838D83AE01475E5F4F6F89788DBE
:104C4000CE0101960E942D26EF81F885E00FF11F1D
:104C500010822E96E4E00C94E528ACE0B0E0E3E3AB
:104C6000F6E20C94BB287C016B018A01FC011782DF
:104C70001682838181FFBDC1CE0101964C01F701EF
:104C80009381F60193FD859193FF81916F018823B4
:104C900009F4ABC1853239F493FD859193FF81917D
:104CA0006F01853229F4B70190E00E942B28E7CFED
:104CB000512C312C20E02032A0F48B3269F030F4FA
:104CC000803259F0833269F420612CC08D3239F082
:104CD000803339F4216026C02260246023C028601C
:104CE00021C027FD27C030ED380F3A3078F426FF79
:104CF00006C0FAE05F9E300D1124532E13C08AE0E7
:104D0000389E300D1124332E20620CC08E3221F4D7
:104D100026FD6BC1206406C08C3611F4206802C0E9
:104D2000883641F4F60193FD859193FF81916F01DF
:104D30008111C1CF982F9F7D9554933028F40C5F3B
:104D40001F4FFFE3F9830DC0833631F0833771F0D5
:104D5000833509F05BC022C0F801808189830E5F32
:104D60001F4F44244394512C540115C03801F2E0E4
:104D70006F0E711CF801A080B18026FF03C0652D65
:104D800070E002C06FEF7FEFC5012C870E942028E2
:104D90002C0183012C852F77222E17C03801F2E0D9
:104DA0006F0E711CF801A080B18026FF03C0652D35
:104DB00070E002C06FEF7FEFC5012C870E941528BD
:104DC0002C012C852068222E830123FC1BC0832DFF
:104DD00090E048165906B0F4B70180E290E00E94D6
:104DE0002B283A94F4CFF50127FC859127FE819179
:104DF0005F01B70190E00E942B2831103A94F1E056
:104E00004F1A51084114510471F7E5C0843611F06E
:104E1000893639F5F80127FF07C0608171818281E9
:104E200093810C5F1F4F08C060817181882777FDD7
:104E30008095982F0E5F1F4F2F76B22E97FF09C0D7
:104E400090958095709561957F4F8F4F9F4F20680B
:104E5000B22E2AE030E0A4010E945D28A82EA818F6
:104E600044C0853729F42F7EB22E2AE030E025C0D9
:104E7000F22FF97FBF2E8F36C1F018F4883579F004
:104E8000B4C0803719F0883721F0AFC02F2F2061D0
:104E9000B22EB4FE0DC08B2D8460B82E09C024FF45
:104EA0000AC09F2F9660B92E06C028E030E005C0EA
:104EB00020E130E002C020E132E0F801B7FE07C097
:104EC00060817181828193810C5F1F4F06C0608178
:104ED000718180E090E00E5F1F4FA4010E945D2869
:104EE000A82EA818FB2DFF77BF2EB6FE0BC02B2DCA
:104EF0002E7FA51450F4B4FE0AC0B2FC08C02B2DBE
:104F00002E7E05C07A2C2B2D03C07A2C01C0752C67
:104F100024FF0DC0FE01EA0DF11D8081803311F4E4
:104F2000297E09C022FF06C07394739404C0822FA7
:104F3000867809F0739423FD13C020FF06C05A2C15
:104F4000731418F4530C5718732C731468F4B701C6
:104F500080E290E02C870E942B2873942C85F5CF5B
:104F6000731410F4371801C0312C24FF12C0B7019C
:104F700080E390E02C870E942B282C8522FF17C00D
:104F800021FF03C088E590E002C088E790E0B70108
:104F90000CC0822F867859F021FD02C080E201C04A
:104FA0008BE227FD8DE2B70190E00E942B28A5142B
:104FB00038F4B70180E390E00E942B285A94F7CF91
:104FC000AA94F401EA0DF11D8081B70190E00E94DE
:104FD0002B28A110F5CF332009F451CEB70180E280
:104FE00090E00E942B283A94F6CFF70186819781B2
:104FF00002C08FEF9FEF2C96E2E10C94D728F9992D
:10500000FECF92BD81BDF89A992780B50895262FCD
:10501000F999FECF1FBA92BD81BD20BD0FB6F8949D
:10502000FA9AF99A0FBE01960895FC010590615015
:1050300070400110D8F7809590958E0F9F1F0895AE
:10504000FC016150704001900110D8F78095909557
:105050008E0F9F1F08950F931F93CF93DF93182FE9
:10506000092FEB018B8181FD03C08FEF9FEF20C0E3
:1050700082FF10C04E815F812C813D814217530712
:105080007CF4E881F9819F012F5F3F4F39832883AA
:10509000108306C0E885F985812F0995892B29F7AA
:1050A0002E813F812F5F3F4F3F832E83812F902F93
:1050B000DF91CF911F910F910895FA01AA2728300F
:1050C00051F1203181F1E8946F936E7F6E5F7F4FD5
:1050D0008F4F9F4FAF4FB1E03ED0B4E03CD0670F51
:1050E000781F891F9A1FA11D680F791F8A1F911DA4
:1050F000A11D6A0F711D811D911DA11D20D009F4F4
:1051000068943F912AE0269F11243019305D319335
:10511000DEF6CF010895462F4770405D4193B3E01E
:105120000FD0C9F7F6CF462F4F70405D4A3318F0C5
:10513000495D31FD4052419302D0A9F7EACFB4E076
:10514000A6959795879577956795BA95C9F700972E
:105150006105710508959B01AC010A2E06945795CF
:10516000479537952795BA95C9F7620F731F841F26
:10517000951FA01D08952F923F924F925F926F92BC
:105180007F928F929F92AF92BF92CF92DF92EF92D7
:10519000FF920F931F93CF93DF93CDB7DEB7CA1B58
:1051A000DB0B0FB6F894DEBF0FBECDBF09942A8883
:1051B000398848885F846E847D848C849B84AA842B
:1051C000B984C884DF80EE80FD800C811B81AA81B8
:1051D000B981CE0FD11D0FB6F894DEBF0FBECDBF83
:0851E000ED010895F894FFCFE2
:1051E800000022068000010000003905010031316D
:1051F800295A1B750A00000000631F631F631F63A1
:105208001FF901000000003C0772082B062002F974
:105218000100000000D7071B090C06FC01F901007A
:1052280000000053118B0C420CA0110012250EA196
:1052380010110C3F0EC00EB60D20122C0C1D0C4682
:105248004C583F454F4600464C583F0048616E64F5
:105258007368616B65206661696C00464C583A2535
:10526800753A00464C58494D473A00726164696F77
:10527800205B005D203E2000464C583A25753A4F89
:105288004B00464C583F4F4B20726573656E640067
:10529800494D4720657863656564732033316B2C0D
:1052A800207265667573696E6720697400464C588C
:1052B8003F4E4F4B00464C583F4F4B202841434BE5
:1052C8002073656E742900554E5368696674696E5B
:1052D80067206368616E6E656C20746F20005246AB
:1052E8005458203E2000524641434B203E20005453
:1052F800696D656F75742077616974696E6720667A
:105308006F72207061636B65742041434B2C206180
:10531800626F7274696E6720464C415348206F7003
:1053280065726174696F6E202E2E2E00464C583AB5
:10533800494E560054696D656F75742072656365D2
:105348006976696E6720464C41534820696D6167EC
:10535800652066726F6D2053455249414C2C20617F
:10536800626F7274696E672E2E2E000A464C583F83
:105378004F4B00464C41534820494D472054524119
:105388004E534D495353494F4E205355434345536C
:105398005300464C41534820494D47205452414EF2
:1053A800534D495353494F4E204641494C005245AD
:1053B800424F4F54494E4700464C41534820494DAF
:1053C80047205452414E534D495353494F4E205351
:1053D800554343455353210A0054696D656F7574ED
:1053E8002F4572726F722C2065726173696E672027
:1053F8007772697474656E2064617461202E2E2E34
:105408002000444F4E450000000000E31F5F216567
:105418001F7E1F701FC11F0D0A006E616E00696E2E
:0654280066006F766600CD
:00000001FF
