:100000000C9466010C94A21F0C94C91F0C948E01D1
:100010000C948E010C948E010C948E010C948E0124
:100020000C948E010C948E010C948E010C948E0114
:100030000C948E010C948E010C948E010C948E0104
:100040000C94F01F0C948E010C9401230C94332318
:100050000C948E010C948E010C948E010C948E01E4
:100060000C948E010C948E01416E696D6174696F00
:100070006E2E20667073207265706F727465643DB9
:1000800000416E696D6174696F6E2E2065787465CC
:100090006E743D2000416E696D6174696F6E2E2033
:1000A000706F736974696F6E3D2000416E696D6198
:1000B00074696F6E2E204D6173746572206272696F
:1000C0006768746E6573733D2000416E696D61747D
:1000D000696F6E2E205374617274757020636F6D3A
:1000E000706C6574652E0053746174652E202069F0
:1000F0006E506C616E652D3E69646C652E005374A4
:100100006174652E202069646C652D3E696E506CAB
:10011000616E652E004E6574776F726B2E20507283
:100120006F6772616D6D6572207472616666696376
:100130002E004E6574776F726B2E20526570726F51
:100140006772616D6D696E67206D65737361676558
:100150003F004E6574776F726B2E207374617274FA
:10016000757020636F6D706C657465207769746855
:10017000206D794E6F646549443D00206D79496E6C
:100180006465783D00456E74657220746865206E04
:100190006F6465206E756D62657220666F72207483
:1001A000686973206E6F64653A004E6574776F728C
:1001B0006B2E204552524F52206E6F206E6F646539
:1001C000494420666F756E6420696E204545505223
:1001D0004F4D21004E6574776F726B2E2020777221
:1001E0006974696E67206E6F6465494420746F207E
:1001F000454550524F4D3D004E6574776F726B2EE2
:100200002072656164206E6F646549442066726F78
:100210006D20454550524F4D3D004E6574776F72CD
:100220006B2E20737461727475702E004C6F636155
:1002300074696F6E2E207374617274757020636FB1
:100240006D706C6574652E000964323D000964317F
:100250003D000964303D004C6F636174696F6E2E20
:1002600020737461727475702E0000000008000223
:10027000010000030407000000000000000001026C
:100280000408102040800102040810200102040824
:100290001020040404040404040402020202020202
:1002A00003030303030300000000230026002900CA
:1002B00000000000250028002B00000000002400A2
:1002C00027002A00EC0C0319C41B632311241FBE52
:1002D000CFEFD8E0DEBFCDBF13E0A0E0B1E0EEE5A8
:1002E000F3E502C005900D92A435B107D9F726E0D9
:1002F000A4E5B3E001C01D92A936B207E1F712E010
:10030000CCECD2E004C02297FE010E94BD26C43C82
:10031000D107C9F70E940C260C94AD290C9400005B
:1003200080E090E00895CF93DF9300D000D000D01C
:10033000CDB7DEB7AB01DC01ED91FC910190F0810E
:10034000E02D19821A821B821C821D821E829E0150
:100350002F5F3F4FBE016C5F7F4F099526960FB60A
:10036000F894DEBF0FBECDBFDF91CF910895CF933C
:10037000DF9300D000D000D0CDB7DEB7AB01DC01F9
:10038000ED91FC910190F081E02D19821A821B827F
:100390001C821D821E829E012F5F3F4FBE016C5F3B
:1003A0007F4F099526960FB6F894DEBF0FBECDBFDE
:1003B000DF91CF910895FC018DE391E091838083DB
:1003C000138212828FEF868387838087818782875B
:1003D000838781E084871686158615821482809132
:1003E000770590917805892B21F4F0937805E093B7
:1003F0007705A0917505B0917605109721F01596B7
:10040000FC93EE931497F0937605E09375050895A9
:10041000CF93C62F6093790580915E03861799F07C
:100420006BEA70E08CEC95E00E94E4234AE050E037
:100430006C2F8CEC95E00E94D4248CEC95E00E940B
:100440001024C0935E03CF910895CF93DF9300D023
:100450001F92CDB7DEB7FC016083442361F019829F
:100460001A821B82AE014F5F5F4F6EE670E08EE92D
:1004700093E00E9422190F900F900F90DF91CF917F
:100480000895CF93DF93EC0180918903811111C00E
:1004900080E793E00E94DB018BE491E0909371038D
:1004A000809370031092800310927F0381E0809309
:1004B000890320E030E04EE650E06EE973E080E72B
:1004C00093E00E94C818FC018FEF868380EB87833E
:1004D00080EF808780918103811111C08FE593E0C7
:1004E0000E94DB0189E591E09093600380935F03B4
:1004F00010926F0310926E0381E08093810320E0DD
:1005000030E04EE650E06EE973E08FE593E00E9444
:10051000C818FC018FEF868380EB878380EF80878C
:100520008EE00E94DE202091130130911401280FEB
:10053000391F30931401209313016FEFCE010E94F5
:10054000080287E38B8389831C821A8241E060E082
:10055000CE010E9425026AEC70E08CEC95E00E94CE
:10056000E4238CEC95E0DF91CF910C9410241F9341
:10057000CF93DF93EC01162F8981861791F065E9FF
:1005800070E08CEC95E00E94E4234AE050E0612F9B
:100590008CEC95E00E94D4248CEC95E00E94102411
:1005A0001983DF91CF911F9108951F93CF93DF930C
:1005B000EC01162F8A81861791F061E870E08CECCF
:1005C00095E00E94E4234AE050E0612F8CEC95E036
:1005D0000E94D4248CEC95E00E9410241A83DF91B1
:1005E000CF911F9108954F925F926F927F929F9249
:1005F000AF92BF92CF92DF92EF92FF920F931F9331
:10060000CF93DF93CDB7DEB72A970FB6F894DEBF4E
:100610000FBECDBF962E80E1888788E089878091C4
:10062000960381110DC00E943A2060935803709385
:10063000590380935A0390935B0381E08093960360
:100640008DEF9FEB9A8389838FEF9FE39C838B834E
:1006500080915703E8E0F0E0EC0FFD1FE80FF11D7B
:1006600040816EE670E08EE993E00E945F19809110
:10067000570390E0FC01EE0FFF1FEC0FFD1F0181FF
:100680001281409058035090590360905A03709023
:100690005B03E8E0F0E0EC0FFD1FE80FF91F80813D
:1006A0008A870E943A206B017C0120E03A85A8E10C
:1006B000B1E00E94A1269B01AC01C418D508E60850
:1006C000F708C701B6010E941C26080F191FC801B0
:1006D0009F7396958795969587959695879516FF1E
:1006E00006C02FEF37E0A901481B590BCA01E92FBB
:1006F000EE0FEE0FF0E0E65EFE4F20813181928139
:100700008695A901989F400D511D1124CA0117FF1C
:1007100003C09195819591099C01305880E090E04B
:10072000DC0160E04FEF5FEF249FC001359FD001F7
:10073000349F900DA11DB61F259F900DA11DB61FC2
:100740001124BD01882799271F921F921F922EE620
:100750002F93A12CB12C6501EE24EA94FE2C00E02D
:1007600010E020E030E0A9010E94C225162F0F9072
:100770000F900F900F906D36D9F48091570381112F
:100780001DC00E943A20C0905803D0905903E090B9
:100790005A03F0905B0354EFC50E51E0D51EE11CE7
:1007A000F11CC616D706E806F90608F44DC006C0C7
:1007B000611104C080915703813069F18091560323
:1007C00091E0980F909356038D838FEF8E839F82D5
:1007D000812F90E0BC01660F771F680F791F62566A
:1007E0007C4FCE0105960E946D192A960FB6F8949B
:1007F000DEBF0FBECDBFDF91CF911F910F91FF9054
:10080000EF90DF90CF90BF90AF909F907F906F90D0
:100810005F904F9008950E943A20C0905803D09066
:100820005903E0905A03F0905B0324EFC20E21E0DD
:10083000D21EE11CF11CC616D706E806F90608F020
:10084000BDCF1092570303C081E0809357030E94ED
:100850003A20609358037093590380935A039093FE
:100860005B03ACCFCF93DF93EB014AE06EE670E021
:100870008EE993E00E945F19AE016EE670E08EE9AA
:1008800093E0DF91CF910C9422192F923F924F92D7
:100890005F926F927F928F929F92AF92BF92CF9210
:1008A000DF92EF92FF920F931F93CF93DF93CDB719
:1008B000DEB727970FB6F894DEBF0FBECDBF2C0171
:1008C0006B01DA015901F80126173707C0F42081BE
:1008D000918182813C91308311963C9111973183B3
:1008E00012963C91129732832C9311969C931197F8
:1008F00012968C9312978D2D6501A62EB82E92819B
:10090000992319F08181811102C08C918083129604
:100910002C9012978081222029F011962C9111970A
:10092000211101C08C9311962C91119730E0018117
:1009300010E0021B130B1695102F00271795079533
:10094000312CE92FF0E0E219F309F695FE2FEE279E
:10095000F795E7954C91841B52E0E516F10451F4AC
:10096000682F772767FD7095E72EEE1CEE24EE1CAE
:10097000F12C07C093E0E916F10419F487FF08C0D1
:1009800002C0EF2829F450E8859FC001112408C057
:10099000819550E8859FC001112491958195910919
:1009A000D501AC19BD0919F07A2E6B2E03C077243E
:1009B0007394612C672D762D0E944C267B01C80113
:1009C000672D762D0E944C264B01CF01672D762D89
:1009D0000E944C263B01EE0CFF1C880C991C660CF7
:1009E000771C50E0542F4427322F2227322C222408
:1009F0008601000F111F0C0D1D1D040D151D412C2E
:100A0000512CAC14BD04F8F059833A833B82B201F7
:100A1000600F711FCE0101962E833F834C835D834F
:100A20000E946D194C815D814E0D5F1D2E813F81AD
:100A3000280D391D260C371C8FEFC81AD80A93E0F1
:100A4000490E511CDECF27960FB6F894DEBF0FBEBD
:100A5000CDBFDF91CF911F910F91FF90EF90DF906D
:100A6000CF90BF90AF909F908F907F906F905F904E
:100A70004F903F902F9008952F923F924F925F9208
:100A80006F927F928F929F92AF92BF92CF92DF929E
:100A9000EF92FF920F931F93CF93DF93CDB7DEB703
:100AA00027970FB6F894DEBF0FBECDBF2C01762E70
:100AB000142F262F31E0230F08F42FEF262F230FBA
:100AC00008F42FEF2E3638F421E0372D320F08F4DA
:100AD0003FEF632E02C07DE6672E262D210F08F41E
:100AE0002FEF262D210F08F42FEF2E3630F4262D70
:100AF000210F08F42FEF2F8302C03DE63F83272DFF
:100B000031E0231B08F420E0272D231B08F420E00C
:100B10002E3638F421E0372D321B08F430E0232E36
:100B200002C06DE6262E222D211B08F420E0222D86
:100B3000211B08F420E02E3630F4222D211B08F46E
:100B400020E0822E02C05DE6852E4AE06EE670E06F
:100B50008EE993E00E945F19809155038F5F809327
:100B60005503183328F4612F70E080E090E004C052
:100B700067E370E080E090E01F921F921F921F9247
:100B8000A12CB12C6501AA9417E3E12EF12C00E011
:100B900010E020E030E0A9010E94C22520E03FEFF4
:100BA000662329F0639F212D112431112F5F622FBD
:100BB000C2010E940802D0905503A0E8CA2ECD0CB5
:100BC000C98233243A943A823B82DC823D823E825F
:100BD000912CA22CB12CB2E0EB2EF12C8E010F5FE8
:100BE0001F4F9401AE014C5F5F4FB5018EE993E05A
:100BF0000E944504C9823A823B82DC823D823E8269
:100C00003F81432E512CC62CD12C9201AE014C5F5A
:100C10005F4FB6018EE993E00E9445048091550331
:100C200089833A8210E21B83B401660F771F680D37
:100C3000791D62567C4FCE0101960E946D198091FC
:100C4000550389833A8200E80B83B501660F771F4D
:100C50006A0D7B1D62567C4FCE0101960E946D1974
:100C60008091550389833A823B82872D90E0BC01B5
:100C7000660F771F680F791F62567C4FCE01019671
:100C80000E946D198091550389833A820B83B601C6
:100C9000660F771F6C0D7D1D62567C4FCE0101964D
:100CA0000E946D198091550389833A821B83B2019A
:100CB000660F771F640D751D62567C4FCE0101963D
:100CC0000E946D190F900F900F900F9027960FB6FE
:100CD000F894DEBF0FBECDBFDF91CF911F910F9172
:100CE000FF90EF90DF90CF90BF90AF909F908F904C
:100CF0007F906F905F904F903F902F9008950F934B
:100D00001F93CF93DF9300D01F92CDB7DEB7FC01C6
:100D100023819181921768F48FEF820F30E0291BB5
:100D2000310937FF02C02F5F3F4F35952795821B52
:100D30000DC0291760F431E0320F892F90E0821B3B
:100D4000910997FD019695958795830F838324815B
:100D50009281921768F48FEF820F30E0291B3109DE
:100D600037FF02C02F5F3F4F35952795821B0DC07F
:100D7000291760F431E0320F892F90E0821B91092E
:100D800097FD019695958795830F848380818130A7
:100D900079F048F0823091F08330D1F419821A82D0
:100DA0008FEF8B830FC06FEFCF010E94F30210C053
:100DB00044816381CF010E943C050AC019828FEFF4
:100DC0008A831B82BE016F5F7F4FCF010E94320476
:100DD0006091790589E795E00E94001880915C0395
:100DE00090915D030196883E23E0920729F090934D
:100DF0005D0380935C0319C010925D0310925C0345
:100E000000917A0510917B0568E670E08CEC95E026
:100E10000E94E4234AE050E0B8018CEC95E00E9487
:100E2000BF248CEC95E00E9410240F900F900F903F
:100E3000DF91CF911F910F910895DC018D919C91CD
:100E4000009739F0DC01ED91FC910190F081E02DEB
:100E500009940895DC018D919C91009739F0DC0193
:100E6000ED91FC910280F381E02D09940895579A49
:100E7000569A0F960C942A07DC018D919C9100974D
:100E800039F0DC01ED91FC910190F081E02D0994A5
:100E90000895DC018D919C91009739F0DC01ED9172
:100EA000FC910280F381E02D09940895549A569A9A
:100EB0000F960C94490787FF02C05F9A01C05F98A4
:100EC0005E9A5E9886FF02C05F9A01C05F985E9A44
:100ED0005E9885FF02C05F9A01C05F985E9A5E9837
:100EE00084FF02C05F9A01C05F985E9A5E9883FF9C
:100EF00002C05F9A01C05F985E9A5E9882FF02C04E
:100F00005F9A01C05F985E9A5E9881FF02C05F9A07
:100F100001C05F985E9A5E9880FF02C05F9A01C030
:100F20005F985E9A5E98089580E00E945B0780E07B
:100F30000E945B0780E00E945B0780E00C945B07E7
:100F4000CF93DF9397FD4F96EC0185E0D595C7953C
:100F50008A95E1F78FEF0E945B0780E00E945B07B4
:100F600080E00E945B0780E00E945B07219790F77A
:100F7000DF91CF91089587FF02C05C9A01C05C9811
:100F80005E9A5E9886FF02C05C9A01C05C985E9A89
:100F90005E9885FF02C05C9A01C05C985E9A5E987C
:100FA00084FF02C05C9A01C05C985E9A5E9883FFE1
:100FB00002C05C9A01C05C985E9A5E9882FF02C093
:100FC0005C9A01C05C985E9A5E9881FF02C05C9A50
:100FD00001C05C985E9A5E9880FF02C05C9A01C076
:100FE0005C985E9A5E98089580E00E94BB0780E05E
:100FF0000E94BB0780E00E94BB0780E00C94BB0707
:10100000CF93DF9397FD4F96EC0195E0D595C7956B
:101010009A95E1F78FEF0E94BB0780E00E94BB0723
:1010200080E00E94BB0780E00E94BB07219790F7F9
:10103000DF91CF910895FF920F931F93CF93DF938A
:10104000EC01809154038F5F982F97709093540315
:1010500080FD02C080E001C080E891FD8064947052
:1010600009F0806220E1F22EF80E20E030E000E08E
:1010700011E0FE01E20FF31F6285662331F070E09C
:10108000C8010E944C266F5F01C060E067834F2D4E
:10109000469F412D11244483662311F061506783DC
:1010A0002F5F3F4F2330310521F7DF91CF911F9103
:1010B0000F91FF900895FC01613011F40C941B080E
:1010C0001186108617821682158214820895AF92B7
:1010D000BF92CF92DF92EF92FF920F931F93CF9325
:1010E000DF93CDB7DEB72F970FB6F894DEBF0FBEF4
:1010F000CDBF6C01CB018A01F901D6011C966C9120
:101100009A8389835C834B8380818B8781818C87E1
:1011100082818D87CE0101960E945B081E86BFE00A
:10112000CB0ED11CC6010E943C070E94F407E12CA3
:10113000F12CE016F1060CF04EC0E981FA81228113
:10114000222329F03F81230F08F42FEF01C020E074
:101150003D85239F212D11248FEF2F870E94BB07F0
:101160002F85822F0E94BB07E981FA8121812223EA
:1011700029F03E81230F08F42FEF01C020E03C85C9
:10118000239F212D1124A22EB12CBA2CAA24208118
:10119000222329F03D81230F08F42FEF01C020E026
:1011A0003B85239F212D1124A22A8B2D0E94BB0752
:1011B0008A2D0E94BB0788859D81891B8D83898527
:1011C0009E81891B8E838A859F81891B8F838FEFE8
:1011D000E81AF80AAECFC8010E940008C6010E94B2
:1011E00049072F960FB6F894DEBF0FBECDBFDF9133
:1011F000CF911F910F91FF90EF90DF90CF90BF9014
:10120000AF900895AF92BF92CF92DF92EF92FF928C
:101210000F931F93CF93DF93CDB7DEB72F970FB602
:10122000F894DEBF0FBECDBF6C01CB018A01F9017E
:10123000D6011C966C919A8389835C834B83808151
:101240008B8781818C8782818D87CE0101960E9458
:101250005B081E86BFE0CB0ED11CC6010E941D0795
:101260000E949407E12CF12CE016F1060CF04EC020
:10127000E981FA812281222329F03F81230F08F49A
:101280002FEF01C020E03D85239F212D11248FEFFA
:101290002F870E945B072F85822F0E945B07E981C1
:1012A000FA812181222329F03E81230F08F42FEFB8
:1012B00001C020E03C85239F212D1124A22EB12CBA
:1012C000BA2CAA242081222329F03D81230F08F47F
:1012D0002FEF01C020E03B85239F212D1124A22A5E
:1012E0008B2D0E945B078A2D0E945B0788859D815C
:1012F000891B8D8389859E81891B8E838A859F8129
:10130000891B8F838FEFE81AF80AAECFC8010E94BD
:10131000A007C6010E942A072F960FB6F894DEBFD9
:101320000FBECDBFDF91CF911F910F91FF90EF9036
:10133000DF90CF90BF90AF900895AF92BF92CF92C1
:10134000DF92EF92FF920F931F93CF93DF93CDB76E
:10135000DEB72F970FB6F894DEBF0FBECDBF6C017E
:10136000CB018A01F901D6011C966C919A8389837D
:101370005C834B8380818B8781818C8782818D8781
:10138000CE0101960E945B0883E08E87BFE0CB0E02
:10139000D11CC6010E941D070E949407E12CF12C6C
:1013A000E016F1060CF05BC0E981FA81228122236C
:1013B00029F03F81230F08F42FEF01C020E03D8585
:1013C000239F212D11248FEF2F870E945B072F85EC
:1013D000822F0E945B07E981FA812181222329F073
:1013E0003E81230F08F42FEF01C020E03C85239FAE
:1013F000212D1124A22EB12CBA2CAA242081222323
:1014000029F03D81230F08F42FEF01C020E03B8538
:10141000239F212D1124A22A8B2D0E945B078A2D48
:101420000E945B078E8529813A81280F311D3A83FE
:1014300029832B813C81215031093C832B83888572
:101440009D81891B8D8389859E81891B8E838A85D9
:101450009F81891B8F838FEFE81AF80AA1CFC801FB
:101460000E94A007C6010E942A072F960FB6F89483
:10147000DEBF0FBECDBFDF91CF911F910F91FF90C7
:10148000EF90DF90CF90BF90AF900895AF92BF9252
:10149000CF92DF92EF92FF920F931F93CF93DF9340
:1014A000CDB7DEB72F970FB6F894DEBF0FBECDBF16
:1014B0006C01CB018A01F901D6011C966C919A83CB
:1014C00089835C834B8380818B8781818C87828138
:1014D0008D87CE0101960E945B0883E08E87BFE076
:1014E000CB0ED11CC6010E943C070E94F407E12CE0
:1014F000F12CE016F1060CF05BC0E981FA81228143
:10150000222329F03F81230F08F42FEF01C020E0B0
:101510003D85239F212D11248FEF2F870E94BB072C
:101520002F85822F0E94BB07E981FA812181222326
:1015300029F03E81230F08F42FEF01C020E03C8505
:10154000239F212D1124A22EB12CBA2CAA24208154
:10155000222329F03D81230F08F42FEF01C020E062
:101560003B85239F212D1124A22A8B2D0E94BB078E
:101570008A2D0E94BB078E8529813A81280F311D53
:101580003A8329832B813C81215031093C832B8371
:1015900088859D81891B8D8389859E81891B8E838A
:1015A0008A859F81891B8F838FEFE81AF80AA1CF64
:1015B000C8010E940008C6010E9449072F960FB675
:1015C000F894DEBF0FBECDBFDF91CF911F910F9179
:1015D000FF90EF90DF90CF90BF90AF9008950F9362
:1015E000CF93DF93CDB7DEB728970FB6F894DEBF61
:1015F0000FBECDBF26E040E052EC61E070E08CEC25
:1016000095E00E949F220FE12BE54DE96FEF80E806
:1016100095E00E94E41B48EE53E060E070E0CE01EC
:1016200001960E94FE0CCE0101960E94040D8111CC
:1016300005C080E895E00E94B81AF5CF6AE875E029
:1016400083EA95E00E94C21C81E993E00E94410276
:1016500028960FB6F894DEBF0FBECDBFDF91CF91B5
:101660000F91089580918A0590918B058237924061
:1016700088F080918C0590918D058237924050F0D2
:1016800081E020918E0530918F052237324018F08D
:1016900080E0089581E00895809188059091890502
:1016A0000197C1F58091000581110BC044EF51E015
:1016B00060E070E080EF94E00E94FE0C81E0809397
:1016C00000050E94320B811104C080EF94E00E945B
:1016D0004A0D80EF94E00E94040D8823D9F06EEF4C
:1016E00070E08CEC95E00E94E4238CEC95E00E9485
:1016F000102463E175E08AE095E00E94501A6FEFD4
:1017000081E993E00E94080240E061E081E993E012
:101710000C9425020895AF92BF92CF92DF92EF9280
:10172000FF920F931F9380918805909189050197EF
:1017300009F09BC060910B0170910C0180910D012B
:1017400090910E01643F22E072078105910520F01F
:1017500063EF72E080E090E01F921F921F922DE6EF
:101760002F93A12CB12C650113EFE12E12E0F12E85
:1017700000E010E020E030E0A9010E94C22581E9EC
:1017800093E00E94B70260910F0170911001809167
:10179000110190911201643F22E0720781059105C9
:1017A00020F063EF72E080E090E01F921F921F92A2
:1017B00027E32F93A12CB12C650113EFE12E12E04A
:1017C000F12E00E010E020E030E0A9010E94C225E7
:1017D00081E993E00E94D5028DB79EB708960FB6B7
:1017E000F8949EBF0FBE8DBF8091F80481110BC08D
:1017F00044EF51E060E070E088EE94E00E94FE0C5F
:1018000081E08093F8040E94320B882321F088EE57
:1018100094E00E944A0D88EE94E00E94040D81112C
:1018200006C080918805909189050197F1F067EED7
:1018300070E08CEC95E00E94E4238CEC95E00E9433
:10184000102469E175E08AE095E00E94501A40E0BA
:1018500060E081E993E01F910F91FF90EF90DF909E
:10186000CF90BF90AF900C9425021F910F91FF90E5
:10187000EF90DF90CF90BF90AF9008958F929F929E
:10188000AF92BF92CF92DF92EF92FF92CF93DF930E
:1018900080E895E00E94B81A882309F45FC080E8C8
:1018A00095E00E94961B83EA95E00E94241FC09059
:1018B0000A018C2C912C81E0881A9108AA2497FCAB
:1018C000A094BA2CC0918105D0E0D12CE12CF12C50
:1018D00060910B0170910C0180910D0190910E01AE
:1018E000A50194010E941C26FE01EE0FFF1FE15589
:1018F000FA4F20813181620F731F811D911DA70155
:1019000096010E94602620930B0130930C014093B6
:101910000D0150930E0160910F01709110018091A3
:10192000110190911201A50194010E941C26FE0153
:10193000EE0FFF1FEB54FA4F20813181620F731FAE
:10194000811D911DA70196010E94602620930F0121
:10195000309310014093110150931201809188053A
:101960009091890520910805309109058217930708
:1019700009F1009719F440E062E010C0823091054F
:1019800019F440E063E00AC0019761F469E175E091
:101990008AE095E00E94501A40E060E081E993E01F
:1019A0000E942502809188059091890590930905F0
:1019B000809308058AE095E00E947C1A81E993E013
:1019C000DF91CF91FF90EF90DF90CF90BF90AF90DD
:1019D0009F908F900C947F066CE47BE089E195E00A
:1019E0000E94231A6BE87BE083E195E00E94231AB2
:1019F00069E175E08AE095E00C94441AFC014483A7
:101A000055836683778308958F929F92AF92BF929A
:101A1000CF92DF92EF92FF920F931F93CF93DF93BA
:101A2000EC010E943A208C809D80AE80BF808114A2
:101A30009104A104B10429F4688379838A839B8388
:101A400019C0088119812A813B816B017C01C01A70
:101A5000D10AE20AF30AC814D904EA04FB0460F0CC
:101A6000B901A801480D591D6A1D7B1D4883598382
:101A70006A837B8381E001C080E0DF91CF911F9179
:101A80000F91FF90EF90DF90CF90BF90AF909F901D
:101A90008F900895CF93DF93EC010E943A206883E2
:101AA00079838A839B83DF91CF91089508958091F4
:101AB0001F0590912005DC01ED91FC910484F585D2
:101AC000E02D0994CF93DF93EC0161E08A810E94BD
:101AD0005D2189858CBD8A858DBD7894DF91CF91FC
:101AE0000895FC01F8948CB581878DB582878CB5FB
:101AF000837F8CBD8CB58F7D8CBD8CB58C7F8CBD70
:101B00008DB58E7F8DBD60E082810C945D21F8944F
:101B100020912905233021F42091250521110FC0A2
:101B200020912905233011F4789407C0DC01ED9150
:101B3000FC910288F389E02D099580E00895DC018D
:101B4000ED91FC910488F589E02D61E0099581E033
:101B500008958EBD00000DB407FEFDCF8EB508952B
:101B6000CF93DF931F92CDB7DEB7DC01ED91FC91EF
:101B70000480F581E02D698309956981882359F0F6
:101B800080912705861711F06F3F29F49091230566
:101B900081E0911101C080E00F90DF91CF91089515
:101BA0002F923F924F925F927F928F929F92AF922D
:101BB000BF92CF92DF92EF92FF920F931F93CF933A
:101BC000DF93EC01962E5A01722E802E10E0CE2C5F
:101BD000D12CE12CF12CE881F9810190F081E02DEC
:101BE00001E0272DA501692DCE0109950E943A201B
:101BF0001B012C010E943A2062197309840995097E
:101C00006C157D058E059F0540F4692DCE010E945F
:101C1000B00D882379F381E004C01F5F8116D8F6E8
:101C200080E0DF91CF911F910F91FF90EF90DF90B7
:101C3000CF90BF90AF909F908F907F905F904F908C
:101C40003F902F90089580912405882329F090914A
:101C5000260581E09F3F09F480E00895EF92FF920E
:101C60001F93CF93DF931F92CDB7DEB77C01DC01CA
:101C7000ED91FC91008CF18DE02D698309956981CE
:101C8000862F8F770E94A90D80E00E94A90D182F42
:101C9000D701ED91FC91028CF38DE02DC7010995E0
:101CA000812F0F90DF91CF911F91FF90EF900895BA
:101CB0000F931F93CF93DF9300D0CDB7DEB78C0186
:101CC000DC01ED91FC91008CF18DE02D4A8369835C
:101CD00009956981862F80680E94A90D4A81842F09
:101CE0000E94A90DD801ED91FC91028CF38DE02D9D
:101CF000C8010F900F90DF91CF911F910F91099420
:101D00001F93CF93DF93EC01162F8091290568175D
:101D100009F461C0623009F440C070F4662309F42C
:101D200044C0613009F057C061E0CE010E942E0E20
:101D3000482F437E44603FC06330C1F0643009F0F7
:101D40004AC061E0CE010E942E0E482F437E4C60B7
:101D500061E0CE010E94580E8885882381F1E881D8
:101D6000F9810688F789E02D61E014C061E0CE01B9
:101D70000E942E0E482F437E406161E0CE010E94FA
:101D8000580E88858823D9F0E881F9810688F7897B
:101D9000E02D60E0CE01099512C061E0CE010E9405
:101DA0002E0E482F437E486006C061E0CE010E949F
:101DB0002E0E482F437E61E0CE010E94580E809186
:101DC0002905811106C067E2CE010E942E0E87FF11
:101DD000F6CF10932905DF91CF911F910895CF93EE
:101DE000DF93EC01603208F06FE16F838885882310
:101DF00011F066956F8361E1CE010E942E0E482F8F
:101E0000407E8F81482B61E1CE01DF91CF910C9410
:101E1000580ECF92DF92EF92FF920F931F93CF93C2
:101E2000DF93EC01F62ED42EC52E122FE881F98116
:101E30000488F589E02D61E0099567E2CE010E94F2
:101E40002E0E87FFFACF40E065E2CE010E94580EC9
:101E50001E3308F01DE3E11004C0002319F000E474
:101E600001C000E8E881F981008CF18DE02DCE0100
:101E7000099580E80E94A90D83E0810F0E94A90DB9
:101E80008F2D0E94A90D8D810E94A90D802F0E9487
:101E9000A90D0D2DED2CFC2C8E2D801B811730F4FF
:101EA000F70181917F010E94A90DF6CFE881F981A8
:101EB000028CF38DE02DCE010995E881F98104882B
:101EC000F589E02D64E0CE0109950E943A206B016E
:101ED0007C018B810E949321892B81F0E881F9811B
:101EE0000488F589E02D61E0CE01DF91CF911F914B
:101EF0000F91FF90EF90DF90CF9009940E943A20CD
:101F00006C197D098E099F09683E73408105910512
:101F100028F7DFCFCF93DF93EC01109228051092C2
:101F2000270510922605109225051092240510927F
:101F30002305109222051092210568E20E942E0EC0
:101F400082FF0AC06DE3CE010E942E0E482F44602E
:101F50006DE3CE010E94580E40E465E2CE010E947E
:101F6000580EE881F9810488F589E02D63E0CE01FF
:101F7000DF91CF910994DF92EF92FF920F931F931D
:101F8000CF93DF93EC018B01E881F9810488F58917
:101F9000E02D61E0099501151105E1F0E881F98175
:101FA000008CF18DE02DCE0109958EEB0E94A90DDC
:101FB0007801D12CF70181917F010E94A90DD39462
:101FC000F0E1DF12F7CFE881F981028CF38DE02D8B
:101FD000CE0109956DE3CE010E942E0E8E7F91E019
:101FE000012B09F490E0482F492B6DE3CE01DF91DE
:101FF000CF911F910F91FF90EF90DF900C94580EAE
:102000008F929F92AF92BF92DF92EF92FF920F93C7
:102010001F93CF93DF93CDB7DEB7AE970FB6F8948B
:10202000DEBF0FBECDBF7C01D42E8EE28E010F5FCE
:102030001F4FD801E82F1D92EA95E9F791E09983A7
:1020400034E03A8342E04B8393E09D834E833F83A9
:1020500040E4488735E039879A8796E09B8793E389
:102060009C8737E03D8798E09F8799E0998B99E1BD
:102070009B8B92E49C8B55E25D8B4E8B46E24F8BA3
:10208000388F38E2398F30E13A8F39E23B8F3CEDBF
:102090003C8F8D8F88E88E8F8FE28F8F8DE288A3A3
:1020A00080E389A337E33BA330E93CA338E33DA3B6
:1020B0009EA39CE39FA39FE898A79DE399A792E125
:1020C0009AA79FE69BA78CA78FEF8DA76F3131F062
:1020D0006B3231F0663531F489ED05C08EE403C012
:1020E0008CE601C084EE8E876F3141F06B3221F0B7
:1020F000663521F480E003C080E401C080EC888B69
:102100002AA361E0D70112968C910E945D2161E0C3
:10211000F70182810E9424210E9407130E943A2025
:102120004B015C014AEA6FE2C7010E94580E6FE260
:10213000C7010E942E0E8A3A59F00E943A2068196F
:1021400079098A099B09623371058105910550F36C
:102150000E943A204B015C0145E56FE2C7010E94F5
:10216000580E6FE2C7010E942E0E853559F00E946D
:102170003A20681979098A099B096233710581053A
:10218000910550F3B12CF801EB0DF11DEB0DF11D94
:1021900060816F3F31F04181C7010E94580EB394B6
:1021A000F2CF60E070E0C7010E94BB0FD701ED9154
:1021B000FC9111970084F185E02D18966C91C70170
:1021C0000995D701ED91FC910488F589E02D61E036
:1021D000C70109950E943A204B015C0167E2C701E3
:1021E0000E942E0E87FD0BC00E943A2068197909C3
:1021F0008A099B09623371058105910578F30E9474
:102200003A20681979098A099B09623371058105A9
:10221000910588F443E050E067E57DE0F7018481B3
:102220000E94821FF0922005E0921F05D7011596AB
:10223000DC9281E001C080E0AE960FB6F894DEBF7C
:102240000FBECDBFDF91CF911F910F91FF90EF9007
:10225000DF90BF90AF909F908F900895CF93DF93C2
:10226000EC0161110DC064E2CE010E942E0E90E0DF
:1022700091958195910995958795DF91CF910895D5
:1022800041E063E20E94580E63E2CE010E942E0EEE
:1022900081FFFACFE8CFCF93DF93EC01809129053E
:1022A0008330A9F480912505811111C060E0CE0131
:1022B0000E942E11863A9F4F54F4E881F9810488D8
:1022C000F589E02D61E0CE01099581E001C080E053
:1022D000DF91CF910895FF920F931F93CF93DF93D8
:1022E000EC0180912905833001F568E2CE010E945E
:1022F0002E0E82FD28C019C0809128058D3330F440
:10230000E0912805F0E0E65DFA4F1082E881F9815E
:10231000028CF38DE02DCE010995E881F9810488C6
:10232000F589E02D63E0CE01099560E0CE010E94C1
:102330002E119093220580932105DF91CF911F915B
:102340000F91FF900895E881F9810488F589E02DC7
:1023500061E0CE010995E881F981008CF18DE02DD5
:10236000CE01099580E00E94A90D80E00E94A90D90
:1023700080932505809125058334D0F4809125052F
:102380008093250580E00E94A90D809326058E810B
:10239000811109C0909126058D81981721F08091B7
:1023A00026058F3F39F480912505833018F017C03A
:1023B00082E4E6CF10922505E881F981028CF38D45
:1023C000E02DCE010995E881F9810288F389E02D9D
:1023D000CE01DF91CF911F910F91FF9009948091D1
:1023E000250583508093280580E00E94A90D8093E5
:1023F000270580E00E94A90D982F907890932305DF
:10240000982F907490932405E881F9810684F785CC
:10241000E02D682FCE010995F12C80912805F81642
:1024200008F06ACF0F2D10E080E00E94A90DF8019E
:10243000E65DFA4F8083F394F0CF4F925F926F92F4
:102440007F929F92AF92BF92EF920F931F93CF9381
:10245000DF93EC01162F5A01922E6DE30E942E0E8F
:10246000482F44606DE3CE010E94580E0E943A202E
:102470002B013C01CE010E944B118823C1F0E88161
:10248000F9810088F189E02DE12C292DA501612F2A
:10249000CE010995DF91CF911F910F91EF90BF90E1
:1024A000AF909F907F906F905F904F9008950E94A3
:1024B0003A206419750986099709683E73408105B9
:1024C0009105E8F6E881F9810480F581E02DCE01DF
:1024D0000995D0CF4F925F926F927F929F92AF9269
:1024E000BF92CF92DF92EF92FF920F93CF93DF9341
:1024F000EC015B01942E10922405F0902705C0900A
:102500002105D09022056DE30E942E0E482F4460D5
:102510006DE3CE010E94580E0E943A202B013C012F
:10252000CE010E944B11882311F1F0922705E8811A
:10253000F9810088F189E02DEE24E39400E0292D53
:10254000A5016F2DCE010995D0922205C0922105DB
:10255000DF91CF910F91FF90EF90DF90CF90BF90E0
:10256000AF909F907F906F905F904F9008950E94E2
:102570003A206419750986099709683E73408105F8
:10258000910598F6E881F9810480F581E02DCE016E
:102590000995C6CFCF93DF93EC016887662311F0CE
:1025A0004FE001C04AE163E1CE010E94580E8885E8
:1025B000882341F061E1CE010E942E0E482F4F7119
:1025C000406602C04F81406861E1CE01DF91CF914A
:1025D0000C94580E1F93CF93DF93EC01162F6623B4
:1025E00011F04DE501C045E56AE5CE010E94580EA7
:1025F000112311F04CE701C040E76CE5CE01DF91FB
:10260000CF911F910C94580EFC0166830895CF93CF
:10261000CFB7F89480916A05811127C0ECE9F2E008
:102620008491E8E8F2E09491E82FF0E0EE0FFF1FCC
:10263000E654FD4FA591B4918C91892321F461E07A
:102640008AE00E945D2161E08AE00E9424218CB52D
:1026500080618CBD8CB580648CBD61E08DE00E9492
:10266000242161E08BE00E94242180916A058F5F24
:1026700080936A05CFBFCF910895FC0180E58583E3
:1026800016826083528341830895FC018CB5838355
:102690008DB584833581268180916905882399F0E1
:1026A0009FB7F89480916905813059F48DB3809378
:1026B00067054DB380916805809584238DBB9FBFCE
:1026C00002C0909367053CBD2DBD60E080810C94F5
:1026D0005D21CF93DF93EC0161E088810E945D2151
:1026E00080916905882361F09FB7F894209169056E
:1026F00080916705213019F48DBB9FBF01C08FBF4A
:102700008B818CBD8C818DBDDF91CF9108951F93FE
:10271000CF93DF93EC010E94451385E00E94A90D41
:1027200080E00E94A90D182FCE010E946913812F0D
:10273000DF91CF911F9108950E94871381700895B2
:102740001F93CF93DF93EC01162F442339F040E021
:1027500066E00E94A013CE010E946913CE010E9480
:102760009C138111FBCFCE010E944513812FDF9175
:10277000CF911F910C94A90DEF92FF920F931F938D
:10278000CF93DF9300D0CDB7DEB77C01142F062F97
:1027900041E062E02A8359830E94A013802F0E94A7
:1027A000A90D5981852F0E94A90D812F0E94A90D85
:1027B0002A81822F0E94A90DC7010F900F90DF91EF
:1027C000CF911F910F91FF90EF900C9469132F926E
:1027D0003F924F925F926F927F928F929F92AF92B1
:1027E000BF92CF92DF92EF92FF920F931F93CF93FE
:1027F000DF936C012A013B015901CA019927C0E00E
:10280000D1E0C81BD90BE12CF12C0115110579F190
:102810000C171D0708F4E80141E062E0C6010E94C0
:10282000A013862D0E94A90D852D0E94A90D842D2F
:102830000E94A90D15012E0C3F1C4101F40181914C
:102840004F010E94A90DC401821993098C179D079D
:10285000A8F3C6010E9469134C0E5D1E611C711C19
:10286000EC0EFD1E0C1B1D0BC0E0D1E0CECFDF91A6
:10287000CF911F910F91FF90EF90DF90CF90BF907D
:10288000AF909F908F907F906F905F904F903F9010
:102890002F900895EF92FF920F931F93CF93DF93A2
:1028A0001F92CDB7DEB77C01142F062F41E062E501
:1028B00059830E94A013802F0E94A90D5981852F52
:1028C0000E94A90D812F0E94A90DC7010F90DF91D1
:1028D000CF911F910F91FF90EF900C946913FC0121
:1028E000DB0187E691E09183808312968C911297A9
:1028F000828313968C911397838314968C911497EB
:10290000848315968C911597858316968C911697CE
:10291000868317968C911797878318968C911897B2
:10292000808719968C91199781871A968C91828746
:102930000895CF92DF92FF920F931F93CF93DF936F
:10294000CDB7DEB70DB71EB7262F30E0220F331FED
:10295000A9014F5F5F4FEDB7FEB7E41BF50B0FB654
:10296000F894FEBF0FBEEDBF4DB75EB74F5F5F4F30
:10297000DA01F82E6C018C2D8F198617C8F4C60168
:10298000F601708172957F7070637A3308F0795D1B
:102990007C93FFEFCF1ADF0AFC0180818F70806388
:1029A0008A3308F0895D11968C9311971296E3CFC4
:1029B000FA01E20FF31F1082BA018CEC95E00E943D
:1029C00014240FB6F8941EBF0FBE0DBFDF91CF9138
:1029D0001F910F91FF90DF90CF9008952F923F921B
:1029E0004F925F926F927F928F929F92AF92BF921F
:1029F000CF92DF92EF92FF920F931F93CF93DF93CB
:102A0000CDB7DEB76C970FB6F894DEBF0FBECDBF63
:102A10004C016B8FE98AFA8A0B8B1C8B2D8B3E8BBA
:102A20004F8BAA8E46E069E972E00E946A12CC20C0
:102A300031F067EA71E08CEC95E00E94142440E0EC
:102A400050E0BA01CE0141960E944A1407E010E01E
:102A500029EB31E040E050E0BA01CE0141960E94FE
:102A6000E7132AE349E050E060E070E0CE014196D0
:102A70000E94BC130E943A201B012C015AE0E52E53
:102A8000F12CA12CB12C9E012F5F3F4F398F288F45
:102A9000C4010E94870D882301F1809127053B8D99
:102AA00083131BC0D0902805B3E0BD1520F480919E
:102AB0002A058634F9F061E08A8D0E94242161E0C4
:102AC0008A8D0E945D2161E070E080E090E00E94CC
:102AD000692060E08A8D0E945D210E943A2062197F
:102AE000730984099509693B7B408105910580F252
:102AF00080E022C180912B058C34E9F680912C0571
:102B00008835C9F680912D058A3309F0AAC046E0C0
:102B10004D1508F0A6C084E090E000E010E0782EAB
:102B20002FEF280FFC01E65DFA4F30813033A0F023
:102B300030813A3388F42081AAE0A801A49F800163
:102B4000A59F100D112400531109020F111D0196AC
:102B50008830910521F707C030813A33C1F754E03E
:102B6000751631F2722ECC20C1F061EC71E08CEC64
:102B700095E00E9407244AE050E06D2D8CEC95E032
:102B80000E94D42469EC71E08CEC95E00E9407244B
:102B90006D2D8AE295E00E949914E1E0E70DF0E0E6
:102BA000E65DFA4F80818A3309F0A2CF0E943A2075
:102BB0001B012C010A151B0539F0C50101970817E7
:102BC000190709F04EC029C032E0370D58018FEFC8
:102BD000A81AB80A3D1508F5E32FF0E0E65DFA4FB4
:102BE000208137019FEF691A790AA70160E070E040
:102BF000CE0141963C8F0E94BC13C3019F773C8D50
:102C0000892B41F4A30160E070E0CE0141960E945F
:102C10004A143C8D3F5F7301DDCF1F930F93AEECE1
:102C2000B1E0BF93AF93398D3F93488D4F930E948E
:102C3000C626482F0F900F900F900F900F900F9077
:102C4000CC2049F0BE016F5F7F4F8CEC95E04C8F3C
:102C50000E9414244C8DBE016F5F7F4FC4010E94FF
:102C60006A1280912D058F3309F025CF54E0D512DB
:102C700010C046E069E972E0C4010E946A12CC20EB
:102C800009F419CF68ED71E08CEC95E00E941424F2
:102C900012CF87E0D8120FCF80912E05853409F02E
:102CA0000ACF80912F058F3409F005CF8091300530
:102CB000863409F000CF87010A5011090130BCE7C2
:102CC0001B0778F0CC2031F066EE71E08CEC95E0DB
:102CD0000E94142447E063E072E0C4010E946A127B
:102CE00007CF46E069E972E0C4010E946A12CC2075
:102CF00031F069E972E08CEC95E00E941424212FF8
:102D000047E050E060E070E0CE0141960E94BC13C5
:102D100026EF2E0D48E050E060E070E0CE014196D5
:102D20000E94BC132AE349E050E060E070E0CE016D
:102D300041960E94BC1381E06C960FB6F894DEBFFA
:102D40000FBECDBFDF91CF911F910F91FF90EF90FC
:102D5000DF90CF90BF90AF909F908F907F906F90BB
:102D60005F904F903F902F900895C82F882331F0A7
:102D70006BED72E08CEC95E00E94072488E028E17E
:102D800030E00FB6F894A895209360000FBE8093B2
:102D90006000CC2331F06EE28CEC95E00E940924B7
:102DA000FACFFFCFAF92BF92CF92DF92EF92FF9216
:102DB0000F931F93CF93DF93CDB7DEB762970FB614
:102DC000F894DEBF0FBECDBF0C871D872E873F87CF
:102DD000488B598B6A8BDE2C20912805243008F40F
:102DE0005CC020912A05263409F057C020912B059C
:102DF0002C3409F052C020912C05283509F04DC023
:102E000020912D052F3309F048C0B090270520915F
:102E100028052730A1F420912E05253481F4209136
:102E20002F052F3461F420913005263441F400E061
:102E300026E049E952E06B2D0E941D122EC0BC0114
:102E4000CE0101960E946F14AC2CCD2CEC84FD8435
:102E50000E851F85288939894A896B2DCE010196F7
:102E60000E94EE14882359F0DD2031F065EE72E007
:102E70008CEC95E00E9407248D2D0E94B516DD2074
:102E800061F066E073E08CEC95E00E9407246FE24D
:102E900073E08CEC95E00E94142462960FB6F894CF
:102EA000DEBF0FBECDBFDF91CF911F910F91FF907D
:102EB000EF90DF90CF90BF90AF9008958F929F9248
:102EC000AF92BF92EF92FF920F931F93CF93DF9336
:102ED000EC01188219821A824423B9F1E0E0F0E093
:102EE0008B010A5F1F4F7B0189E0E80EF11C842EE5
:102EF000912CA12CB12CD801AE0FBF1F2C91D70162
:102F0000AE0FBF1F6C912223E1F06623D1F030E0B9
:102F100040E050E02F5F3F4F4F4F5F4F70E080E049
:102F200090E06F5F7F4F8F4F9F4F0E941C269B0149
:102F3000AC01C501B4010E941C26DE01AE0FBF1F0B
:102F40008C933196E330F105B1F6CE01DF91CF914C
:102F50001F910F91FF90EF90BF90AF909F908F9037
:102F60000895CF92DF92EF92FF92CF93DF93EC011F
:102F700080916F05909170059C012F5F3F4F3093BA
:102F8000700520936F05861797079CF10E943A20E1
:102F90009B01AC01E0916F05F091700588EE93E024
:102FA000E89FB001E99F700DF89F700D11248827EC
:102FB00077FD8095982FC0906B05D0906C05E090C0
:102FC0006D05F0906E052C193D094E095F090E94B0
:102FD00060263A8329831092700510926F050E9433
:102FE0003A2060936B0570936C0580936D05909308
:102FF0006E05DF91CF91FF90EF90DF90CF90089515
:10300000AF92BF92CF92DF92EF92FF920F931F93F6
:10301000CF93DF9300D01F92CDB7DEB78C01B62ED1
:10302000F80183819481A581B681892B8A2B8B2B12
:10303000D1F00E944620C0907105D0907205E090BA
:103040007305F09074056C197D098E099F09D801EC
:103050001396CD90DD90ED90FC9016976C157D0544
:103060008E059F05E8F20E944620609371057093DB
:1030700072058093730590937405E0907705F09046
:103080007805E114F10451F1F701A484D8011196F7
:103090008D919C9112978436910508F41486D7017E
:1030A000ED91FC91C280D3804B2DB701CE010196EA
:1030B0000E945E17F70145855685628173819E01E6
:1030C0002F5F3F4FC701F6010995D7011C96AC92BF
:1030D0001C971496ED90FC901597D3CF69E170E0A2
:1030E000C8010E94B1170F900F900F90DF91CF9100
:1030F0001F910F91FF90EF90DF90CF90BF90AF9016
:103100000895CF92DF92EF92FF920F931F93CF9388
:10311000DF93EC014423F1F06115710581F19B010E
:1031200040E050E060E472E48FE090E00E9482268C
:10313000CB80DC80ED80FE8089019A010C151D0595
:103140002E053F0510F4970186010B831C832D8308
:103150003E8315C06115710571F09B0140E050E0A0
:1031600060E472E48FE090E00E9482262B833C832F
:103170004D835E8304C01B821C821D821E82DF91F0
:10318000CF911F910F91FF90EF90DF90CF90089516
:10319000CF92DF92EF92FF920F931F93CF93DF9323
:1031A000EC016B018A017901121613061CF07A01F9
:1031B00000E010E0E881F9810480F581E02DCE0186
:1031C0000995C801880F991F800F911F8C0D9D1DB7
:1031D0009B838A83FE86ED86E881F9810084F185F0
:1031E000E02DCE01099541E0BC0189E795E00E9400
:1031F0008118CE01DF91CF911F910F91FF90EF9039
:10320000DF90CF9008958FEF8093790510927B0522
:1032100010927A05089511240895CF93DF93EC015D
:103220002881269F212D28832981269F212D2983CE
:103230002A81269F212D2A830E940B19CE01DF911E
:10324000CF910895FA0120E030E003962617370762
:103250006CF44081DC0113974C93418111964C939F
:10326000428111964C932F5F3F4FEFCF0895CF923D
:10327000DF92EF92FF920F931F93CF93DF931F92F2
:10328000CDB7DEB77B018C01C12CD12CCE14DF046D
:1032900061F0642FC80149830E940D198FEFC81A8D
:1032A000D80A0D5F1F4F4981F1CF0F90DF91CF9169
:1032B0001F910F91FF90EF90DF90CF900895409570
:1032C0000C943719FC012081222321F0269F212D07
:1032D00009F02F5FFC0120830895FF920F931F9345
:1032E000CF93DF9300D000D0CDB7DEB7FC018B01C8
:1032F0004081F1805281842F8F71880F880F880F51
:10330000282F35E5239F212D1124342F3074942F3D
:10331000907247FD25C031110EC0911106C0822F59
:1033200080958B832A8319823FC08BEA8B832B5A2B
:103330002A83198239C091110DC0382F4AEA349F6F
:10334000312D11249BEA931B9B8325552A831982D7
:1033500080E02AC01B8280E0822F80958A8312C081
:10336000311112C091110BC01B82282F3AEA239F02
:10337000212D11248BEA821B8A832B5A03C02B83B5
:103380001A822095298310C0911106C085E5820F0D
:103390008B831A828BEA06C08BEA820F8B831A8298
:1033A00080E085E5821B89832FEFF21601F16F2DF6
:1033B000CE0103965C830E9462196F2DCE010296A6
:1033C0000E9462196F2DCE0101960E94621911248C
:1033D0006F2D6095669F612D11248B81860F8B83E5
:1033E0008A81860F8A838981860F89835C815F3F0A
:1033F000C9F0F12C2F2D552321F0559F212D09F0D7
:103400002F5FF22E622FCE0103960E9462196F2D5C
:10341000CE0102960E9462196F2DCE0101960E9484
:10342000621911248B81F80180838A8181838981CB
:1034300082830F900F900F900F90DF91CF911F918B
:103440000F91FF900895FC011182108273836283B3
:10345000158214820895DC01ED91FC91309709F0FA
:1034600009940895DC011296ED91FC911397309721
:1034700009F009940895DC011496ED91FC911597DB
:10348000309709F009940895FC0181E080837483EA
:103490006383728361831582168217821086089572
:1034A000CF93DF93EC017C836B830E943A206D8382
:1034B0007E838F839887CE01DF91CF9108950F93FC
:1034C0001F93CF93DF93EC018B0189819A810E9436
:1034D0003B1A1C830B831A830983C8010E942B1A91
:1034E0000E943A206D837E838F839887CE01DF917F
:1034F000CF911F910F910895CF93DF93EC01288115
:1035000089819A81222321F00E942B1A18820CC0F3
:103510006B817C818617970719F0CE010E945F1A94
:1035200089819A810E94321ACE01DF91CF9108954C
:10353000EF92FF920F931F93CF93DF931F92CDB71C
:10354000DEB77C01FC0100811181C80169830E9402
:10355000BA286981681719F0C8010E94C228C701FA
:103560000F90DF91CF911F910F91FF90EF900895F1
:103570008F929F92AF92BF92CF92EF920F931F9331
:10358000CF93DF93CDB7DEB72B970FB6F894DEBF9E
:103590000FBECDBF5C014C0181E1880E911CC401BE
:1035A0000E94870D882309F4AFC0809127058E3FC4
:1035B00039F490912605F5018081981709F464C0CB
:1035C00080912805843019F580912A0590912B056A
:1035D000A0912C05B0912D05F50184839583A683D8
:1035E000B7838091260583839091270592839081EC
:1035F000891381C0C4010E94230E882309F47BC073
:1036000040E066E473E0C4010E946A1274C08091D5
:1036100028058230F9F480912A0590912B05F50157
:1036200091878087809126058383909127059283D7
:103630009081891305C0C4010E94230E81115DC0D1
:10364000F50180859185039709F055C081E00E94BE
:10365000B51651C0809127058E3F09F055C0809165
:1036600028058D3008F450C065E171E08CEC95E0E0
:103670000E94E4238CEC95E00E94102482E090E00C
:10368000F5019187808740C062E371E08CEC95E0A2
:103690000E94E4238CEC95E00E94102487E691E0E0
:1036A0009A838983F50183898B8384898C838589B7
:1036B0008D8386898E8387898F83808D8887818D8E
:1036C0008987828D8A87838D8B8789E0C82EE12C3C
:1036D00000919C0510919D0520919E0530919F05BC
:1036E0004091A0055091A1056091A205CE010196DF
:1036F0000E94D21665CF81E008C040E066E473E026
:10370000C4010E946A129CCF80E02B960FB6F894F9
:10371000DEBF0FBECDBFDF91CF911F910F91EF9014
:10372000CF90BF90AF909F908F9008950F931F936D
:10373000FC014481558166817781842F8370808B61
:103740008A019B0192E036952795179507959A95E2
:10375000D1F71370138702878A019B01ACE036957D
:10376000279517950795AA95D1F7137015870487A4
:10377000B6E17695679557954795BA95D1F75787EE
:1037800046871F910F91089540E35FEE68E08CE952
:1037900095E00E943D1387E691E090939205809317
:1037A00091058AE08093930582E0809394051092BE
:1037B000950581E080932905109297058FE180930C
:1037C00098051092990508959F92AF92BF92CF925B
:1037D000DF92EF92FF920F931F93CF93DF9300D06E
:1037E000CDB7DEB77C01162F942EA22E9AE2C92EF9
:1037F000D12C6AE172E08CEC95E00E94E4238CEC21
:1038000095E00E9410241F3FC9F48AE290E00E94D4
:10381000BA28B82EF701808368EF71E08CEC95E050
:103820000E94E4234AE050E06B2D8CEC95E00E946E
:10383000D4248CEC95E00E9410241AC064ED71E051
:103840008CEC95E00E94E4234AE050E0612F8CEC80
:1038500095E00E94D4248CEC95E00E941024DA823A
:10386000C982612FCE0101960E94981AF701108338
:10387000F70140814F3F41F56AEA71E08CEC95E039
:103880000E94E4238CEC95E00E94102465E871E02E
:103890008CEC95E00E94E4238CEC95E00E941024CF
:1038A0008CEC95E00E94BC21892BD1F341E060E0D3
:1038B00070E08CEC95E00E945225DA82C982CE013C
:1038C00001960E94981A95CF6701F1E1CF0ED11CA5
:1038D000292D6A2DC6010E94001061E0C6010E94D8
:1038E000CA1261E0C6010E940413602FC6010E9443
:1038F000EF0E8FEF93E0F701978786879587848790
:103900009387828780816AE00E942C26918361E000
:1039100089E00E94242160E089E00E945D2181E02D
:1039200090E0F701918780871181008162E571E065
:103930008CEC95E00E94E4234AE050E0602F8CEC90
:1039400095E00E94D4246BE771E08CEC95E00E9436
:10395000E4234AE050E0612F8CEC95E00E94D424EF
:103960008CEC95E00E9410240F900F90DF91CF9186
:103970001F910F91FF90EF90DF90CF90BF90AF908D
:103980009F9008950F931F93CF93DF93EC018B01CA
:1039900067E572E08CEC95E00E94E4231F8F0E8FA8
:1039A000F8010081118162E572E08CEC95E00E94E3
:1039B000E4234AE050E0B8018CEC95E00E94DB245F
:1039C000EE8DFF8D028113816DE472E08CEC95E049
:1039D0000E94E4234AE050E0B8018CEC95E00E949C
:1039E000DB24EE8DFF8DC481D58168E472E08CEC20
:1039F00095E00E94E4234AE050E0BE018CEC95E0A3
:103A00000E94DB248CEC95E00E9410246CE272E0B2
:103A10008CEC95E00E94E4238CEC95E0DF91CF9153
:103A20001F910F910C941024CF92DF92EF92FF928E
:103A30000F931F93CF93DF93FC018EE8C82E82E093
:103A4000D82E93E0E92EF12CC681D78120853185CF
:103A5000A6014C1B5D0B421B530B02851385CA014B
:103A6000801B910B79F1BC016E5F7F4F6530710552
:103A7000C8F4C217D30740F4C017D10728F4C80F01
:103A8000D91FD783C6831EC02C173D0740F42017CB
:103A9000310728F4280F391F3187208713C0538737
:103AA000428710C0B7010E944C26C60FD71FD7838C
:103AB000C683260F371F31872087060F171F1387EE
:103AC0000287C2CFDF91CF911F910F91FF90EF90AE
:103AD000DF90CF900895CF92DF92EF92FF920F93F5
:103AE0001F9300E010E020E030E440175107620728
:103AF000730740F4A2E03695279517950795AA9588
:103B0000D1F7F3CF80E090E0DC010115110521052C
:103B1000310509F168017901C80ED91EEA1EFB1EA4
:103B20004C155D056E057F0550F04C195D096E0959
:103B30007F09D701C601800F911FA21FB31FB69541
:103B4000A79597958795F2E0369527951795079550
:103B5000FA95D1F7DACF84179507A607B70718F4B7
:103B60000196A11DB11D1F910F91FF90EF90DF9065
:103B7000CF900895CF92DF92EF92FF92CF93DF9391
:103B8000D82FC92FE82FF92FE60FF11DE60FF11DF1
:103B900084859585A081B181468157818A179B07CD
:103BA00028F09C012A1B3B0BD90103C0A81BB90BB1
:103BB0009D010E94A1266B017C019A01DA010E94FD
:103BC000A126C60ED71EE81EF91EB701A6018D2F2D
:103BD0009C2FDF91CF91FF90EF90DF90CF900C94CE
:103BE0006B1D262F862F6AE00E942C26822F891BB0
:103BF000292F30E0280F311D223031051CF481E0DF
:103C0000890F089580E00895CF92DF92EF92FF929E
:103C1000CF93DF93EC01F62E0E94F11D2E8D9F8D28
:103C2000E22FF92FE80FF11DE80FF11DA081B181FE
:103C3000FE01EF0DF11DEF0DF11D46815781A41717
:103C4000B507C0F09D010E94A1266B017C019A017D
:103C5000DA010E94A126C61AD70AE80AF90AB701B2
:103C6000A601CE01DF91CF91FF90EF90DF90CF9032
:103C70000C946B1D80E090E0DF91CF91FF90EF906E
:103C8000DF90CF900895262F862F6AE00E942C2681
:103C9000822F891B292F30E0280F311D232B19F08B
:103CA0008FEF890F089582E00895EF92FF920F93AE
:103CB0001F93CF93DF93EC01E62E0E8D1F8D0E9494
:103CC000F11DF82E6E2DCE010E94431ED801AF0DBE
:103CD000B11DAF0DB11DF801E80FF11DE80FF11D89
:103CE0008D919C9120813181820F931F8D509D4F2A
:103CF00096958795DF91CF911F910F91FF90EF904F
:103D00000895AF92BF92CF92DF92EF92FF920F93FE
:103D10001F93CF93DF93EC01F62EDE8CEF8C0E9485
:103D2000F11DED2DFE2DE80FF11DE80FF11D0081B5
:103D300011816F2DCE010E94431EED2DFE2DE80F47
:103D4000F11DE80FF11DA080B180C501800F911F0A
:103D5000833F9240D0F16F2DCE010E94551E6C0121
:103D6000E12CF12CA7019601201B310B41095109CF
:103D7000C701B6010E941C26AB01BC01CE010E9406
:103D80006B1D8C01A70196012A193B0941095109B4
:103D9000C701B601635F7240810991090E941C2628
:103DA000AB01BC01CE010E946B1D9801DC010E9499
:103DB000A126660F771F881F991F23EF32E040E08E
:103DC00050E00E946026C90102C080E090E0DF91CF
:103DD000CF911F910F91FF90EF90DF90CF90BF9008
:103DE000AF900895FF920F931F93CF93DF938C01B1
:103DF000F62E0E94431EF801E80FF11DE80FF11D99
:103E0000C681D7816F2DC8010E94F11D482F9E01E8
:103E1000A3EFB2E00E94A126F801E40FF11DE40F28
:103E2000F11D0680F781E02D9E0140E050E02E0F4D
:103E30003F1F411D511D0E946026C901DF91CF9196
:103E40001F910F91FF900895CF92DF92EF92FF9212
:103E50001F93CF93DF937C01C82FDF2D10E0612FDC
:103E6000C7010E94811E9F838E831F5F229613309D
:103E7000B1F7C7010E94141DCE2DDF2D10E0612F78
:103E8000C7010E94041E899399931F5F1330B9F7ED
:103E9000CE2DDF2D10E0612FC7010E94F21E9D87FD
:103EA0008C871F5F22961330B1F7CE2DDF2D10E0E7
:103EB000612FC7010E94BA1D9B8B8A8B1F5F2296C0
:103EC0001330B1F7E70183EFC82E82E0D82EE12C42
:103ED000F12C2E813F81AFEFBFEF0E94A126A701F9
:103EE00096010E946026398F288F11502296111159
:103EF000F0CFDF91CF911F91FF90EF90DF90CF90A7
:103F0000089508958230E8F4E82FF0E0EE0FFF1FE7
:103F1000EB5EFE4F71836083813041F080916900D8
:103F20008C7F842B80936900E89A089580916900C2
:103F3000440F551F440F551F837F842B80936900C6
:103F4000E99A08951F920F920FB60F9211242F93A2
:103F50003F934F935F936F937F938F939F93AF9311
:103F6000BF93EF93FF93E0911501F091160109952E
:103F7000FF91EF91BF91AF919F918F917F916F9141
:103F80005F914F913F912F910F900FBE0F901F9017
:103F900018951F920F920FB60F9211242F933F93F3
:103FA0004F935F936F937F938F939F93AF93BF9341
:103FB000EF93FF93E0911701F09118010995FF919C
:103FC000EF91BF91AF919F918F917F916F915F9191
:103FD0004F913F912F910F900FBE0F901F9018950A
:103FE0001F920F920FB60F9211242F933F938F932E
:103FF0009F93AF93BF938091C4059091C505A09105
:10400000C605B091C7053091C30523E0230F2D37B6
:1040100020F40196A11DB11D05C026E8230F0296CC
:10402000A11DB11D2093C3058093C4059093C505C0
:10403000A093C605B093C7058091C8059091C905A6
:10404000A091CA05B091CB050196A11DB11D809329
:10405000C8059093C905A093CA05B093CB05BF913D
:10406000AF919F918F913F912F910F900FBE0F9025
:104070001F9018952FB7F8946091C4057091C505ED
:104080008091C6059091C7052FBF08953FB7F8945A
:104090008091C8059091C905A091CA05B091CB0542
:1040A00026B5A89B05C02F3F19F00196A11DB11D93
:1040B0003FBF6627782F892F9A2F620F711D811DB0
:1040C000911D42E0660F771F881F991F4A95D1F70F
:1040D00008958F929F92AF92BF92CF92DF92EF920C
:1040E000FF926B017C010E9446204B015C01C114D0
:1040F000D104E104F104F1F00E941B260E94462045
:10410000681979098A099B09683E73408105910500
:1041100070F321E0C21AD108E108F10888EE880E98
:1041200083E0981EA11CB11CC114D104E104F10468
:1041300029F7DDCFFF90EF90DF90CF90BF90AF9049
:104140009F908F900895789484B5826084BD84B5E3
:10415000816084BD85B5826085BD85B5816085BD82
:10416000EEE6F0E0808181608083E1E8F0E010829B
:10417000808182608083808181608083E0E8F0E0DC
:10418000808181608083E1EBF0E0808184608083C6
:10419000E0EBF0E0808181608083EAE7F0E08081FD
:1041A000846080838081826080838081816080835D
:1041B0008081806880831092C10008958E3008F05D
:1041C0008E5087702091190190E4299F900111244D
:1041D000822B80937C0080917A00806480937A00A7
:1041E00080917A0086FDFCCF809178002091790043
:1041F00090E0922B0895833081F028F4813099F07B
:104200008230A1F008958730A9F08830B9F0843069
:10421000D1F4809180008F7D03C0809180008F77E2
:1042200080938000089584B58F7702C084B58F7D18
:1042300084BD08958091B0008F7703C08091B00055
:104240008F7D8093B0000895CF93DF9390E0FC01C1
:10425000E258FD4F2491FC01EE56FD4F84918823D6
:1042600049F190E0880F991FFC01E654FD4FA5919C
:10427000B49180559D4FFC01C591D4919FB76111B8
:1042800008C0F8948C91209582238C938881822396
:104290000AC0623051F4F8948C91322F3095832308
:1042A0008C938881822B888304C0F8948C91822B14
:1042B0008C939FBFDF91CF9108950F931F93CF935E
:1042C000DF931F92CDB7DEB7282F30E0F901E65912
:1042D000FD4F8491F901E258FD4F1491F901EE561A
:1042E000FD4F04910023C9F0882321F069830E94C7
:1042F000FB206981E02FF0E0EE0FFF1FE055FD4F3E
:10430000A591B4919FB7F8948C91611103C0109559
:10431000812301C0812B8C939FBF0F90DF91CF91A0
:104320001F910F910895CF93DF93282F30E0F9016B
:10433000E659FD4F8491F901E258FD4FD491F901FE
:10434000EE56FD4FC491CC2391F081110E94FB20C9
:10435000EC2FF0E0EE0FFF1FEA55FD4FA591B49151
:104360002C912D2381E090E021F480E002C080E0D8
:1043700090E0DF91CF910895FC01818D228D90E036
:10438000805C9F4F821B91098F7399270895FC01D0
:10439000918D828D981731F0828DE80FF11D858DFA
:1043A00090E008958FEF9FEF0895FC01918D828D2D
:1043B000981761F0828DDF01A80FB11D5D968C9179
:1043C000928D9F5F9F73928F90E008958FEF9FEF84
:1043D000089589E593E2892B49F080E090E0892BEC
:1043E00029F00E94592381110C9400000895FC01CA
:1043F000848DDF01A80FB11DA35ABF4F2C91848D6E
:1044000090E001968F739927848FA689B7892C93A2
:10441000A089B1898C9180648C93938D848D98133D
:1044200006C00288F389E02D80818F7D8083089506
:10443000CF93DF93EC01888D8823C9F0EA89FB894B
:10444000808185FD05C0A889B9898C9186FD0FC042
:104450000FB607FCF5CF808185FFF2CFA889B98917
:104460008C9185FFEDCFCE010E94F721E7CFDF9140
:10447000CF910895CF92DF92FF920F931F93CF9326
:10448000DF931F92CDB7DEB76C0181E0D60158965D
:104490008C9358975B969C915B975C968C915C97FC
:1044A000981307C05096ED91FC915197808185FD3E
:1044B0002EC0F601038D10E00F5F1F4F0F73112701
:1044C000F02EF601848DF81211C00FB607FCF9CF5B
:1044D000D6015096ED91FC915197808185FFF1CFE7
:1044E000C60169830E94F7216981EBCF838DE80FB4
:1044F000F11DE35AFF4F6083D6015B960C935B97E7
:104500005296ED91FC915397808180620CC0D60148
:104510005696ED91FC91579760835096ED91FC91E2
:10452000519780818064808381E090E00F90DF91DB
:10453000CF911F910F91FF90DF90CF900895BF9280
:10454000CF92DF92EF92FF92CF93DF93EC016A015B
:104550007B01B22EE889F98982E08083411581EEE2
:10456000580761057105A1F060E079E08DE390E006
:10457000A70196010E946026215031094109510985
:104580005695479537952795211580E1380798F07E
:10459000E889F989108260E874E88EE190E0A7016B
:1045A00096010E9460262150310941095109569512
:1045B000479537952795EC85FD853083EE85FF85FA
:1045C0002083188EEC89FD89B082EA89FB8980817D
:1045D00080618083EA89FB89808188608083EA89A1
:1045E000FB89808180688083EA89FB8980818F7D57
:1045F0008083DF91CF91FF90EF90DF90CF90BF90BD
:1046000008951F920F920FB60F9211242F938F933C
:104610009F93EF93FF93E091DC05F091DD0580819E
:10462000E091E205F091E30582FD12C09081809156
:10463000E5058F5F8F732091E605821751F0E091B9
:10464000E505F0E0E453FA4F958F8093E50501C04E
:104650008081FF91EF919F918F912F910F900FBECD
:104660000F901F9018951F920F920FB60F92112462
:104670002F933F934F935F936F937F938F939F936A
:10468000AF93BF93EF93FF938CEC95E00E94F721DB
:10469000FF91EF91BF91AF919F918F917F916F911A
:1046A0005F914F913F912F910F900FBE0F901F90F0
:1046B00018958CEC95E00E94BC2121E0892B09F42F
:1046C00020E0822F08951092CF051092CE0588EE3B
:1046D00093E0A0E0B0E08093D0059093D105A09343
:1046E000D205B093D30588E393E09093CD058093F2
:1046F000CC0585EC90E09093D9058093D80584ECA7
:1047000090E09093DB058093DA0580EC90E0909345
:10471000DD058093DC0581EC90E09093DF058093CC
:10472000DE0582EC90E09093E1058093E00586EC55
:1047300090E09093E3058093E2051092E5051092D6
:10474000E6051092E7051092E8050895CF92DF92F2
:10475000EF92FF920F931F93CF93DF937C016A0137
:10476000EB0100E010E00C151D0571F06991D70117
:10477000ED91FC910190F081E02DC7010995892B05
:1047800019F00F5F1F4FEFCFC801DF91CF911F913D
:104790000F91FF90EF90DF90CF9008956115710514
:1047A00081F0DB010D900020E9F7AD014150510986
:1047B000461B570BDC01ED91FC910280F381E02D4B
:1047C000099480E090E00895EF92FF920F931F9379
:1047D000CF93DF938C017B01C0E0D0E0F701EC0FB9
:1047E000FD1F6491662359F0F801A081B181ED911C
:1047F000FC91C8010995892B11F02196EFCFCE01CC
:10480000DF91CF911F910F91FF90EF9008950C943D
:10481000CE23DC01ED91FC910190F081E02D099413
:1048200064E473E00C94CE230F931F93CF93DF9334
:10483000EC010E94CE238C01CE010E941024800F37
:10484000911FDF91CF911F910F9108958F929F92A9
:10485000AF92BF92DF92EF92FF920F931F93CF938D
:10486000DF93CDB7DEB7A1970FB6F894DEBF0FBECA
:10487000CDBF7C01F42FD52ECB0119A2223008F434
:104880002AE08E010F5D1F4F822E912CA12CB12C9E
:104890006F2F7D2DA50194010E946026F22FD32E4B
:1048A000CA01015011096A3014F4E0E301C0E7E3E2
:1048B000E60FD801EC93232B242B252B49F7B801C5
:1048C000C7010E94CE23A1960FB6F894DEBF0FBE9B
:1048D000CDBFDF91CF911F910F91FF90EF90DF90AF
:1048E000BF90AF909F908F900895CF92DF92EF92FC
:1048F000FF920F931F93CF93DF93EC016A017B012B
:104900002115310579F4E881F9810190F081E02DDC
:10491000642FDF91CF911F910F91FF90EF90DF9067
:10492000CF9009942A303105E9F477FF1AC06DE27F
:104930000E9409248C0144275527BA014C195D09AE
:104940006E097F092AE0CE010E942624800F911F64
:10495000DF91CF911F910F91FF90EF90DF90CF905B
:1049600008952AE0B701A601CE01DF91CF911F91F2
:104970000F91FF90EF90DF90CF900C9426249A0136
:10498000AB01662757FD6095762F0C947524211591
:10499000310541F4DC01ED91FC910190F081E02DB5
:1049A000642F09940C9426249A01462F50E060E06D
:1049B00070E00C94C7249A01AB0160E070E00C94A5
:1049C000C7240F931F93CF93DF93EC010E943A20EB
:1049D000688779878A879B87E881F9810084F185D8
:1049E000E02DCE01099597FF15C00E943A20088559
:1049F00019852A853B85601B710B820B930B0C81FB
:104A00001D812E813F81601771078207930720F374
:104A10008FEF9FEFDF91CF911F910F910895FF923C
:104A20000F931F93CF93DF93EC018B01F42ECE01F4
:104A30000E94E1249C0197FD28C08D32910519F157
:104A4000C0970A9710F1FF2019F02E323105F9F0C6
:104A500001301105F9F00230110569F42D303105EE
:104A600051F034F4295031092230310520F012C0C0
:104A70002032310579F4E881F9810680F781E02D53
:104A8000CE010995D4CF8DE203C0C90105C08EE2E5
:104A900090E002C08FEF9FEFDF91CF911F910F91B8
:104AA000FF900895CF92DF92FF920F931F93CF93C1
:104AB000DF9300D000D0CDB7DEB76C01042F40E00B
:104AC0000E940F25FC0197FD4BC020E030E0A901BA
:104AD000F12C112707FD1095E017F107E9F0ED32F1
:104AE000F105C1F0CF01C0970A97B0F4AAE0B0E099
:104AF0000E94B0269B01AC01CF01AA2797FDA0958B
:104B0000BA2F280F391F4A1F5B1F20533109410953
:104B1000510902C0FF24F394D601ED91FC91068067
:104B2000F781E02DC60129833A834B835C83099585
:104B3000C6010E94E124FC01C09729813A814B8182
:104B40005C810A9748F2E017F10731F2FF2061F02B
:104B500066277727CB01621B730B840B950B06C06E
:104B600060E070E0CB0102C0CA01B9010F900F9064
:104B70000F900F90DF91CF911F910F91FF90DF90D9
:104B8000CF9008954F925F926F927F92AF92BF92B3
:104B9000CF92DF92EF92FF920F931F93CF93DF9309
:104BA000CDB7DEB729013A01621B730B840B950B5D
:104BB00029893A894B895C892A193B094C095D0985
:104BC000298B3A8B4B8B5C8B9B01AC0169897A8971
:104BD0008B899C890E941C26E418F5080609170990
:104BE000A80197010E9482262A0D3B1D4C1D5D1DC8
:104BF000CA01B901DF91CF911F910F91FF90EF9002
:104C0000DF90CF90BF90AF907F906F905F904F906C
:104C100008950E94C12608950E94A3200E940B2699
:104C20000E94EF0AC9EED1E20E943E0C2097E1F308
:104C30000E94E921F9CF0895DB018F939F930E9491
:104C4000B026BF91AF91A29F800D911DA39F900DA3
:104C5000B29F900D11240895991B79E004C0991F0B
:104C6000961708F0961B881F7A95C9F780950895C6
:104C7000AA1BBB1B51E107C0AA1FBB1FA617B70782
:104C800010F0A61BB70B881F991F5A95A9F780959E
:104C90009095BC01CD01089597FB072E16F4009462
:104CA00007D077FD09D00E94382607FC05D03EF4D6
:104CB000909581959F4F0895709561957F4F0895C8
:104CC000A1E21A2EAA1BBB1BFD010DC0AA1FBB1F10
:104CD000EE1FFF1FA217B307E407F50720F0A21B82
:104CE000B30BE40BF50B661F771F881F991F1A94EF
:104CF00069F760957095809590959B01AC01BD0119
:104D0000CF010895052E97FB1EF400940E9499266A
:104D100057FD07D00E94602607FC03D04EF40C9488
:104D2000992650954095309521953F4F4F4F5F4FB5
:104D3000089590958095709561957F4F8F4F9F4F07
:104D40000895A29FB001B39FC001A39F700D811D64
:104D50001124911DB29F700D811D1124911D089584
:104D60000E94A126A59F900DB49F900DA49F800D39
:104D7000911D11240895EE0FFF1F0590F491E02D71
:104D8000099481E090E0F8940C94AD29AEE0B0E095
:104D9000ECECF6E20C9484290D891E8986E08C8364
:104DA0001A8309838FEF9FE79E838D83AE01475E51
:104DB0005F4F6F89788DCE0101960E94E826EF81C2
:104DC000F885E00FF11F10822E96E4E00C94A029E4
:104DD000ACE0B0E0EEEEF6E20C9476297C016B01DB
:104DE0008A01FC0117821682838181FFBDC1CE0139
:104DF00001964C01F7019381F60193FD859193FF94
:104E000081916F01882309F4ABC1853239F493FD98
:104E1000859193FF81916F01853229F4B70190E06C
:104E20000E94E628E7CF512C312C20E02032A0F45C
:104E30008B3269F030F4803259F0833269F42061AA
:104E40002CC08D3239F0803339F4216026C02260C5
:104E5000246023C0286021C027FD27C030ED380F13
:104E60003A3078F426FF06C0FAE05F9E300D112438
:104E7000532E13C08AE0389E300D1124332E206249
:104E80000CC08E3221F426FD6BC1206406C08C3626
:104E900011F4206802C0883641F4F60193FD859133
:104EA00093FF81916F018111C1CF982F9F7D955400
:104EB000933028F40C5F1F4FFFE3F9830DC0833656
:104EC00031F0833771F0833509F05BC022C0F801FF
:104ED000808189830E5F1F4F44244394512C5401D9
:104EE00015C03801F2E06F0E711CF801A080B1808E
:104EF00026FF03C0652D70E002C06FEF7FEFC50194
:104F00002C870E94DB282C0183012C852F77222EF1
:104F100017C03801F2E06F0E711CF801A080B1805B
:104F200026FF03C0652D70E002C06FEF7FEFC50163
:104F30002C870E94D0282C012C852068222E8301EA
:104F400023FC1BC0832D90E048165906B0F4B7012E
:104F500080E290E00E94E6283A94F4CFF50127FC25
:104F6000859127FE81915F01B70190E00E94E628BC
:104F700031103A94F1E04F1A51084114510471F77D
:104F8000E5C0843611F0893639F5F80127FF07C0EE
:104F900060817181828193810C5F1F4F08C06081A5
:104FA0007181882777FD8095982F0E5F1F4F2F7690
:104FB000B22E97FF09C090958095709561957F4FAF
:104FC0008F4F9F4F2068B22E2AE030E0A4010E944C
:104FD0001829A82EA81844C0853729F42F7EB22E90
:104FE0002AE030E025C0F22FF97FBF2E8F36C1F0C6
:104FF00018F4883579F0B4C0803719F0883721F07B
:10500000AFC02F2F2061B22EB4FE0DC08B2D846057
:10501000B82E09C024FF0AC09F2F9660B92E06C083
:1050200028E030E005C020E130E002C020E132E0BD
:10503000F801B7FE07C060817181828193810C5FA6
:105040001F4F06C06081718180E090E00E5F1F4FAE
:10505000A4010E941829A82EA818FB2DFF77BF2EA7
:10506000B6FE0BC02B2D2E7FA51450F4B4FE0AC043
:10507000B2FC08C02B2D2E7E05C07A2C2B2D03C030
:105080007A2C01C0752C24FF0DC0FE01EA0DF11D24
:105090008081803311F4297E09C022FF06C07394F9
:1050A000739404C0822F867809F0739423FD13C093
:1050B00020FF06C05A2C731418F4530C5718732C85
:1050C000731468F4B70180E290E02C870E94E62810
:1050D00073942C85F5CF731410F4371801C0312C5C
:1050E00024FF12C0B70180E390E02C870E94E628DD
:1050F0002C8522FF17C021FF03C088E590E002C085
:1051000088E790E0B7010CC0822F867859F021FD26
:1051100002C080E201C08BE227FD8DE2B70190E082
:105120000E94E628A51438F4B70180E390E00E94BD
:10513000E6285A94F7CFAA94F401EA0DF11D808174
:10514000B70190E00E94E628A110F5CF332009F4C2
:1051500051CEB70180E290E00E94E6283A94F6CF63
:10516000F7018681978102C08FEF9FEF2C96E2E1D5
:105170000C949229F999FECF92BD81BDF89A992796
:1051800080B50895262FF999FECF1FBA92BD81BD33
:1051900020BD0FB6F894FA9AF99A0FBE01960895B9
:1051A000FC010590615070400110D8F780959095F2
:1051B0008E0F9F1F0895FC016150704001900110F7
:1051C000D8F7809590958E0F9F1F08950F931F938A
:1051D000CF93DF93182F092FEB018B8181FD03C043
:1051E0008FEF9FEF20C082FF10C04E815F812C8126
:1051F0003D81421753077CF4E881F9819F012F5FBD
:105200003F4F39832883108306C0E885F985812FB5
:105210000995892B29F72E813F812F5F3F4F3F83CF
:105220002E83812F902FDF91CF911F910F910895A1
:10523000FA01AA27283051F1203181F1E8946F93C7
:105240006E7F6E5F7F4F8F4F9F4FAF4FB1E03ED06D
:10525000B4E03CD0670F781F891F9A1FA11D680F0B
:10526000791F8A1F911DA11D6A0F711D811D911D3E
:10527000A11D20D009F468943F912AE0269F1124B3
:105280003019305D3193DEF6CF010895462F477017
:10529000405D4193B3E00FD0C9F7F6CF462F4F7072
:1052A000405D4A3318F0495D31FD4052419302D0D0
:1052B000A9F7EACFB4E0A695979587957795679576
:1052C000BA95C9F700976105710508959B01AC0176
:1052D0000A2E06945795479537952795BA95C9F79D
:1052E000620F731F841F951FA01D08952F923F9278
:1052F0004F925F926F927F928F929F92AF92BF92E6
:10530000CF92DF92EF92FF920F931F93CF93DF9391
:10531000CDB7DEB7CA1BDB0B0FB6F894DEBF0FBEEE
:10532000CDBF09942A88398848885F846E847D843B
:105330008C849B84AA84B984C884DF80EE80FD803D
:105340000C811B81AA81B981CE0FD11D0FB6F894B3
:0E535000DEBF0FBECDBFED010895F894FFCF74
:10535E0000006906800001000000038E0200008E2E
:10536E000200003905811F811F0100003100F9186C
:10537E003000FB302C001C472600825A1F006D6A3D
:10538E00170041760E00897D0400000000092609F1
:10539E0026092609269001000000006708460A56D5
:1053AE0007B70190010000000002099D093707931D
:1053BE00019001000000001D12D00D870D6A12CA67
:1053CE0012EF0E6B11560D090F8A0F800EEA127135
:1053DE000D620D464C583F454F4600464C583F0017
:1053EE0048616E647368616B65206661696C004626
:1053FE004C583A25753A00464C583F4F4B202841A1
:10540E00434B2073656E742900464C58494D473AFC
:10541E0000726164696F205B005D203E2000464C87
:10542E00583A25753A4F4B00464C583F4F4B207219
:10543E006573656E6400494D4720657863656564E4
:10544E00732033316B2C207265667573696E67201D
:10545E00697400464C583F4E4F4B005246545820EC
:10546E003E2000524641434B203E200054696D655C
:10547E006F75742077616974696E6720666F72202C
:10548E007061636B65742041434B2C2061626F72B7
:10549E0074696E6720464C415348206F7065726187
:1054AE0074696F6E202E2E2E00464C583A494E5679
:1054BE000054696D656F75742072656365697669F0
:1054CE006E6720464C41534820696D6167652066C2
:1054DE00726F6D2053455249414C2C2061626F72A0
:1054EE0074696E672E2E2E000A464C583F4F4B00A5
:1054FE00464C41534820494D47205452414E534D3E
:10550E00495353494F4E2053554343455353004639
:10551E004C41534820494D47205452414E534D491A
:10552E005353494F4E204641494C005245424F4F2E
:10553E0054494E4700464C41534820494D4720544C
:10554E0052414E534D495353494F4E2053554343A9
:10555E00455353210A0054696D656F75742F45725A
:10556E00726F722C2065726173696E672077726933
:10557E007474656E2064617461202E2E2E2000449A
:10558E004F4E4500000000003A22A623BC21D52133
:10559E00C72118220D0A006E616E00696E66006FDB
:0455AE00766600001D
:00000001FF
