:100000000C94BA010C94ED130C9414140C94E201AA
:100010000C94E2010C94E2010C94E2010C94E201D4
:100020000C94E2010C94E2010C94E2010C94E201C4
:100030000C94E2010C94E2010C94E2010C94E201B4
:100040000C943B140C94E2010C945B170C948D17E8
:100050000C94E2010C94E2010C94E2010C94E20194
:100060000C94E2010C94E201524543563A200053AD
:100070007461727475702E2064656C61792061669C
:100080007465722063616C6962726174696F6E205D
:10009000286D73293D00537461727475702E20644D
:1000A000656C6179206265666F72652063616C6959
:1000B00062726174696F6E20286D73293D00546906
:1000C0006D657220656C6170736564202875732995
:1000D0003D006D7954696D6520287573293D0020B8
:1000E00076732E20726573656E642074696D652861
:1000F0007573293D002A2A524553454E44494E47BF
:100100002A2A090053454E443A200073657420643E
:10011000697374616E63653D2000426F6F74737420
:1001200072617020726573706F6E736962696C6959
:1001300074793F2000537461727475702E20206DA5
:10014000794E6F646549443D000972656376467275
:100150006F6D3D0009207472616E73546F3D00092C
:1001600073746174653D00096D73673D0009733DEB
:10017000002D3E004E6574776F726B2E20004E6529
:1001800074776F726B2E2050726F6772616D6D6540
:100190007220747261666669632E004E6574776FB3
:1001A000726B2E20526570726F6772616D6D696E31
:1001B00067206D6573736167653F004E6574776F87
:1001C000726B2E207374617274757020636F6D7022
:1001D0006C6574652077697468206D794E6F64650D
:1001E00049443D00206D79496E6465783D00456E57
:1001F00074657220746865206E6F6465206E756D1D
:1002000062657220666F722074686973206E6F6415
:10021000653A004E6574776F726B2E204552524FCF
:1002200052206E6F206E6F6465494420666F756E54
:100230006420696E20454550524F4D21004E657433
:10024000776F726B2E202077726974696E67206EEB
:100250006F6465494420746F20454550524F4D3DB1
:10026000004E6574776F726B2E2072656164206E2C
:100270006F646549442066726F6D20454550524F4A
:100280004D3D004E6574776F726B2E2073746172F2
:100290007475702E004C6F636174696F6E2E202030
:1002A00063616C696272617465642072616E676516
:1002B0002066696E6465722E0044697374616E63B2
:1002C000652E202063616C6962726174696E6720BB
:1002D00072616E67652066696E6465722E2E2E00EF
:1002E00044697374616E63652E2020737461727447
:1002F000757020636F6D706C6574652E0044697352
:1003000074616E63652E2020737461727475702E33
:100310002E2E2E000000000800020100000304073A
:1003200000000000000000000102040810204080CE
:10033000010204081020010204081020040404042F
:10034000040404040202020202020303030303037F
:100350000000000023002600290000000000250006
:1003600028002B0000000000240027002A001605AA
:100370003612BD1711241FBECFEFD8E0DEBFCDBFB0
:1003800013E0A0E0B1E0E8ECFAE302C005900D92C2
:10039000A230B107D9F724E0A2E0B3E001C01D927A
:1003A000A036B207E1F713E0C4E7D3E004C0229718
:1003B000FE010E94681ACE36D107C9F70E941D1AA5
:1003C0000C94621D0C940000CF92DF92EF92FF928A
:1003D0000F931F93E82FF92F05C001501109210930
:1003E000310961F1908196239417B9F305C001504A
:1003F00011092109310911F1908196239413F7CF46
:10040000C12CD12CE12CF12C0AC08FEFC81AD80ACC
:10041000E80AF80A0C151D052E053F0579F08081C4
:100420008623841791F36C2D7D2D8E2D9F2D1F918A
:100430000F91FF90EF90DF90CF90089560E070E013
:1004400080E090E01F910F91FF90EF90DF90CF90B0
:1004500008951F93CF93DF936091960386E993E00D
:100460000E945C10809314036091960386E993E0E8
:100470000E946810C82F80931303D0911403109129
:10048000960365E371E083EC93E00E943E184AE036
:1004900050E0612F83EC93E00E942E1969E471E033
:1004A00083EC93E00E943E184AE050E06D2F83EC0D
:1004B00093E00E942E1964E571E083EC93E00E94C2
:1004C0003E184AE050E06C2F83EC93E00E942E1916
:1004D00083EC93E00E946A18C1E0809196038A3011
:1004E00009F0C0E06AE171E083EC93E00E943E18FD
:1004F0006C2F70E04AE050E083EC93E00E94191901
:1005000083EC93E00E946A18CC2319F062E373E055
:1005100002C068E373E08DE193E0DF91CF911F911A
:100520000C94F40F9091980380911403981306C0D3
:1005300062E373E08DE193E00C94F40F0895CF93A0
:10054000DF93CDB7DEB728970FB6F894DEBF0FBEA6
:10055000CDBF80919E0390919F03029731F06EE38F
:1005600073E08DE193E00E94F40F44EF51E060E00E
:1005700070E0CE0101960E946105CE0101960E94B5
:100580006D05882359F06091060389E00E948B1560
:100590008091060391E089278093060328960FB681
:1005A000F894DEBF0FBECDBFDF91CF91089580914B
:1005B0009E0390919F03029719F464E473E016C0C0
:1005C0006091130386E993E00E94151264E071E0E4
:1005D00083EC93E00E943E1886E993E00E9452115A
:1005E00085E193E00E94B30566E273E08DE193E05C
:1005F0000C94F40F8F929F92AF92BF92CF92DF92A2
:10060000EF92FF928091070381110DC00E94911417
:100610006093020370930303809304039093050394
:1006200081E0809307030E9491144B015C0180914B
:10063000020390910303A0910403B0910503750197
:100640006401C81AD90AEA0AFB0A6EEB70E083EC6F
:1006500093E00E943E182AE030E0B701A60183EC47
:1006600093E00E94211983EC93E00E946A18809223
:10067000020390920303A0920403B0920503C70102
:10068000B601FF90EF90DF90CF90BF90AF909F901A
:100690008F900895CF92DF92EF92FF9261E089E010
:1006A0000E948B1520910F0330911003409111038C
:1006B00050911203A9E0B0E00E945B1A6B017C012B
:1006C0000E94FA026C0D7D1D8E1D9F1D2AE030E0F8
:1006D00040E050E00E94391A20930F03309310033A
:1006E000409311035093120389EB93E00E949A13F5
:1006F0007C0186E993E00E94AE11E0919703F0E05F
:10070000EE0FFF1FE056FC4FF182E0826BE071E0DC
:1007100083EC93E00E943E184AE050E0B70183EC7E
:1007200093E00E94351983EC93E00E946A1882E0FE
:100730008093A60386E993E00E94DC116CE273E0EB
:100740008DE193E0FF90EF90DF90CF900C94F40F49
:100750008F929F92AF92BF92CF92DF92EF92FF92D1
:100760009091980380911303981329C060E089E069
:100770000E948B15209106013091070140910801DC
:1007800050910901A9E0B0E00E945B1A6B017C0165
:100790000E94FA026C0D7D1D8E1D9F1D2AE030E027
:1007A00040E050E00E94391A20930601309307017F
:1007B000409308015093090168E373E045C085E167
:1007C00093E00E946D05882309F44AC065EF70E04C
:1007D00083EC93E00E943E1820910A0130910B01B6
:1007E00040910C0150910D01A8EEB3E00E945B1AFC
:1007F0006B017C018090060190900701A090080198
:10080000B090090162ED70E083EC93E00E943E1825
:100810002AE030E0B501A40183EC93E00E942119A5
:100820006FED70E083EC93E00E943E182AE030E028
:10083000B701A60183EC93E00E94211983EC93E0B9
:100840000E946A186CE273E08DE193E0FF90EF90F4
:10085000DF90CF90BF90AF909F908F900C94F40F4B
:10086000FF90EF90DF90CF90BF90AF909F908F90D0
:1008700008958F929F92AF92BF92CF92DF92EF92A4
:10088000FF920F93CF93DF93CDB7DEB728970FB6C4
:10089000F894DEBF0FBECDBF26E040E052EC61E031
:1008A00070E083EC93E00E94F9160FE12BE54DE92F
:1008B0006FEF86E993E00E94561289EB93E00E9465
:1008C00034132091970330E040E050E02F5F3F4F1A
:1008D0004F4F5F4FA8EEB3E00E945B1A4B015C01E3
:1008E00066E970E083EC93E00E943E182AE030E075
:1008F000B501A40183EC93E00E94211983EC93E0FD
:100900000E946A18B501A401CE0101960E946105FA
:10091000CE0101960E94B305CE0101960E946D059D
:10092000811105C086E993E00E947410F5CF61E063
:1009300089E00E948B1589EB93E00E94641360E0CC
:1009400089E00E948B1590EAC92E9FE0D92EE12CF8
:10095000F12CC818D908EA08FB086FE670E083ECB0
:1009600093E00E943E182AE030E0B701A60183EC34
:1009700093E00E94211983EC93E00E946A18B7016A
:10098000A601CE0101960E946705CE0101960E9444
:10099000B305CE0101960E946D05811105C086E95F
:1009A00093E00E947410F5CF28960FB6F894DEBF3E
:1009B0000FBECDBFDF91CF910F91FF90EF90DF90F1
:1009C000CF90BF90AF909F908F900895CF9386E97E
:1009D00093E00E947410C82F20919E0330919F03D2
:1009E0002230310531F464E473E08DE193E00E943C
:1009F000F40F20919E0330919F03232B31F421E0CB
:100A000030E030939F0320939E03CC2351F068E69F
:100A100070E083EC93E00E943E1886E993E00E9428
:100A200052118DE193E0CF910C9420106FE972E0A8
:100A300084E493E00E94C70F69E272E08EE393E0E2
:100A40000E94C70F62E972E088E393E00E94C70F3B
:100A50006AE473E082E393E00E94C70F67ED72E0FF
:100A60008CE293E00E94C70F68EA73E086E293E0AD
:100A70000E94C70F6EE373E08DE193E00E94E80FE0
:100A800040910A0150910B0160910C0170910D0190
:100A900085E193E00E946105809106019091070134
:100AA000A0910801B0910901880F991FAA1FBB1FCF
:100AB00080930F0390931003A0931103B09312033C
:100AC0000895FC0144835583668377830895FC0170
:100AD000448355836683778308958F929F92AF9264
:100AE000BF92CF92DF92EF92FF920F931F93CF931B
:100AF000DF93EC010E9485148C809D80AE80BF80C6
:100B000081149104A104B10429F4688379838A8350
:100B10009B8319C0088119812A813B816B017C016B
:100B2000C01AD10AE20AF30AC814D904EA04FB0481
:100B300060F0B901A801480D591D6A1D7B1D48834D
:100B400059836A837B8381E001C080E0DF91CF918C
:100B50001F910F91FF90EF90DF90CF90BF90AF90DB
:100B60009F908F900895CF93DF93EC010E9485149E
:100B7000688379838A839B83DF91CF910895089559
:100B800080914A0390914B03DC01ED91FC91048428
:100B9000F585E02D0994CF93DF93EC0161E08A8124
:100BA0000E948B1589858CBD8A858DBD7894DF91D7
:100BB000CF910895FC01F8948CB581878DB582871B
:100BC0008CB5837F8CBD8CB58F7D8CBD8CB58C7FB7
:100BD0008CBD8DB58E7F8DBD60E082810C948B15B0
:100BE000F89420915403233021F4209150032111D3
:100BF0000FC020915403233011F4789407C0DC0116
:100C0000ED91FC910288F389E02D099580E008952B
:100C1000DC01ED91FC910488F589E02D61E00995F6
:100C200081E008958EBD00000DB407FEFDCF8EB5A6
:100C30000895CF93DF931F92CDB7DEB7DC01ED911E
:100C4000FC910480F581E02D6983099569818823F1
:100C500059F080915203861711F06F3F29F490915B
:100C60004E0381E0911101C080E00F90DF91CF91A0
:100C700008952F923F924F925F927F928F929F9210
:100C8000AF92BF92CF92DF92EF92FF920F931F939A
:100C9000CF93DF93EC01962E5A01722E802E10E036
:100CA000CE2CD12CE12CF12CE881F9810190F0813E
:100CB000E02D01E0272DA501692DCE0109950E94A7
:100CC00085141B012C010E94851462197309840983
:100CD00095096C157D058E059F0540F4692DCE01A3
:100CE0000E941906882379F381E004C01F5F8116F2
:100CF000D8F680E0DF91CF911F910F91FF90EF9098
:100D0000DF90CF90BF90AF909F908F907F905F903B
:100D10004F903F902F90089580914F03882329F0A2
:100D20009091510381E09F3F09F480E00895EF9294
:100D3000FF921F93CF93DF931F92CDB7DEB77C0155
:100D4000DC01ED91FC91008CF18DE02D698309951A
:100D50006981862F8F770E94120680E00E9412061A
:100D6000182FD701ED91FC91028CF38DE02DC70176
:100D70000995812F0F90DF91CF911F91FF90EF90F8
:100D800008950F931F93CF93DF9300D0CDB7DEB7B5
:100D90008C01DC01ED91FC91008CF18DE02D4A83FA
:100DA000698309956981862F80680E9412064A81AD
:100DB000842F0E941206D801ED91FC91028CF38DD4
:100DC000E02DC8010F900F90DF91CF911F910F91EF
:100DD00009941F93CF93DF93EC01162F8091540356
:100DE000681709F461C0623009F440C070F46623EA
:100DF00009F444C0613009F057C061E0CE010E949F
:100E00009706482F437E44603FC06330C1F0643092
:100E100009F04AC061E0CE010E949706482F437E48
:100E20004C6061E0CE010E94C1068885882381F173
:100E3000E881F9810688F789E02D61E014C061E05E
:100E4000CE010E949706482F437E406161E0CE01AB
:100E50000E94C10688858823D9F0E881F981068837
:100E6000F789E02D60E0CE01099512C061E0CE0166
:100E70000E949706482F437E486006C061E0CE017D
:100E80000E949706482F437E61E0CE010E94C10672
:100E900080915403811106C067E2CE010E9497063B
:100EA00087FFF6CF10935403DF91CF911F910895E0
:100EB000CF93DF93EC01603208F06FE16F83888598
:100EC000882311F066956F8361E1CE010E94970639
:100ED000482F407E8F81482B61E1CE01DF91CF9179
:100EE0000C94C106CF92DF92EF92FF920F931F9363
:100EF000CF93DF93EC01F62ED42EC52E122FE8816E
:100F0000F9810488F589E02D61E0099567E2CE0159
:100F10000E94970687FFFACF40E065E2CE010E946B
:100F2000C1061E3308F01DE3E11004C0002319F0D0
:100F300000E401C000E8E881F981008CF18DE02D2A
:100F4000CE01099580E80E94120683E0810F0E947D
:100F500012068F2D0E9412068D810E941206802F8C
:100F60000E9412060D2DED2CFC2C8E2D801B81175E
:100F700030F4F70181917F010E941206F6CFE881DB
:100F8000F981028CF38DE02DCE010995E881F9817C
:100F90000488F589E02D64E0CE0109950E9485144E
:100FA0006B017C018B810E94C115892B81F0E88146
:100FB000F9810488F589E02D61E0CE01DF91CF91C0
:100FC0001F910F91FF90EF90DF90CF9009940E94B6
:100FD00085146C197D098E099F09683E734081054F
:100FE000910528F7DFCFCF93DF93EC0110925303E5
:100FF00010925203109251031092500310924F031B
:1010000010924E0310924D0310924C0368E20E941E
:10101000970682FF0AC06DE3CE010E949706482F13
:1010200044606DE3CE010E94C10640E465E2CE015A
:101030000E94C106E881F9810488F589E02D63E00A
:10104000CE01DF91CF910994DF92EF92FF920F933F
:101050001F93CF93DF93EC018B01E881F981048822
:10106000F589E02D61E0099501151105E1F0E881B0
:10107000F981008CF18DE02DCE0109958EEB0E9457
:1010800012067801D12CF70181917F010E9412068E
:10109000D394F0E1DF12F7CFE881F981028CF38D70
:1010A000E02DCE0109956DE3CE010E9497068E7F5B
:1010B00091E0012B09F490E0482F492B6DE3CE011C
:1010C000DF91CF911F910F91FF90EF90DF900C94E3
:1010D000C1068F929F92AF92BF92DF92EF92FF92E2
:1010E0000F931F93CF93DF93CDB7DEB7AE970FB6B5
:1010F000F894DEBF0FBECDBF7C01D42E8EE28E01F0
:101100000F5F1F4FD801E82F1D92EA95E9F791E094
:10111000998334E03A8342E04B8393E09D834E838E
:101120003F8340E4488735E039879A8796E09B877C
:1011300093E39C8737E03D8798E09F8799E0998B00
:1011400099E19B8B92E49C8B55E25D8B4E8B46E242
:101150004F8B388F38E2398F30E13A8F39E23B8F4D
:101160003CED3C8F8D8F88E88E8F8FE28F8F8DE2E4
:1011700088A380E389A337E33BA330E93CA338E3AA
:101180003DA39EA39CE39FA39FE898A79DE399A7F7
:1011900092E19AA79FE69BA78CA78FEF8DA76F314F
:1011A00031F06B3231F0663531F489ED05C08EE4F3
:1011B00003C08CE601C084EE8E876F3141F06B3244
:1011C00021F0663521F480E003C080E401C080ECAA
:1011D000888B2AA361E0D70112968C910E948B150F
:1011E00061E0F70182810E9452150E94700B0E94FB
:1011F00085144B015C014AEA6FE2C7010E94C106F7
:101200006FE2C7010E9497068A3A59F00E9485143E
:10121000681979098A099B0962337105810591056D
:1012200050F30E9485144B015C0145E56FE2C70154
:101230000E94C1066FE2C7010E949706853559F0EA
:101240000E948514681979098A099B09623371051E
:101250008105910550F3B12CF801EB0DF11DEB0D5B
:10126000F11D60816F3F31F04181C7010E94C106CD
:10127000B394F2CF60E070E0C7010E942408D70168
:10128000ED91FC9111970084F185E02D18966C91F9
:10129000C7010995D701ED91FC910488F589E02DEE
:1012A00061E0C70109950E9485144B015C0167E26A
:1012B000C7010E94970687FD0BC00E94851468191C
:1012C00079098A099B09623371058105910578F3D3
:1012D0000E948514681979098A099B09623371058E
:1012E0008105910588F443E050E060EC75E0F7017A
:1012F00084810E94CD13F0924B03E0924A03D70100
:101300001596DC9281E001C080E0AE960FB6F894AD
:10131000DEBF0FBECDBFDF91CF911F910F91FF9028
:10132000EF90DF90BF90AF909F908F900895CF93F4
:10133000DF93EC0161110DC064E2CE010E949706BB
:1013400090E091958195910995958795DF91CF9141
:10135000089541E063E20E94C10663E2CE010E946B
:10136000970681FFFACFE8CFCF93DF93EC0180910E
:1013700054038330A9F480915003811111C060E0BF
:10138000CE010E949709863A9F4F54F4E881F98173
:101390000488F589E02D61E0CE01099581E001C066
:1013A00080E0DF91CF910895FF920F931F93CF9329
:1013B000DF93EC0180915403833001F568E2CE01A4
:1013C0000E94970682FD28C019C0809153038D3377
:1013D00030F4E0915303F0E0EB5AFC4F1082E881C7
:1013E000F981028CF38DE02DCE010995E881F98118
:1013F0000488F589E02D63E0CE01099560E0CE0117
:101400000E94970990934D0380934C03DF91CF91F5
:101410001F910F91FF900895E881F9810488F58963
:10142000E02D61E0CE010995E881F981008CF18D14
:10143000E02DCE01099580E00E94120680E00E9416
:10144000120680935003809150038334D0F480912E
:1014500050038093500380E00E9412068093510352
:101460008E81811109C0909151038D81981721F0CF
:10147000809151038F3F39F480915003833018F0ED
:1014800017C082E4E6CF10925003E881F981028C04
:10149000F38DE02DCE010995E881F9810288F38969
:1014A000E02DCE01DF91CF911F910F91FF90099414
:1014B0008091500383508093530380E00E94120672
:1014C0008093520380E00E941206982F90789093A8
:1014D0004E03982F907490934F03E881F98106840E
:1014E000F785E02D682FCE010995F12C80915303EB
:1014F000F81608F06ACF0F2D10E080E00E94120667
:10150000F801EB5AFC4F8083F394F0CF4F925F9237
:101510006F927F929F92AF92BF92EF920F931F9321
:10152000CF93DF93EC01162F5A01922E6DE30E94A8
:101530009706482F44606DE3CE010E94C1060E94C9
:1015400085142B013C01CE010E94B4098823C1F00F
:10155000E881F9810088F189E02DE12C292DA50190
:10156000612FCE010995DF91CF911F910F91EF90DF
:10157000BF90AF909F907F906F905F904F90089535
:101580000E9485146419750986099709683E73409D
:1015900081059105E8F6E881F9810480F581E02D67
:1015A000CE010995D0CF4F925F926F927F929F921A
:1015B000AF92BF92CF92DF92EF92FF920F93CF93B1
:1015C000DF93EC015B01942E10924F03F0905203D5
:1015D000C0904C03D0904D036DE30E949706482FB6
:1015E00044606DE3CE010E94C1060E9485142B0168
:1015F0003C01CE010E94B409882311F1F0925203FC
:10160000E881F9810088F189E02DEE24E39400E07F
:10161000292DA5016F2DCE010995D0924D03C092C1
:101620004C03DF91CF910F91FF90EF90DF90CF901F
:10163000BF90AF909F907F906F905F904F90089574
:101640000E9485146419750986099709683E7340DC
:101650008105910598F6E881F9810480F581E02DF6
:10166000CE010995C6CFCF93DF93EC01688766233F
:1016700011F04FE001C04AE163E1CE010E94C106D2
:101680008885882341F061E1CE010E949706482FAA
:101690004F71406602C04F81406861E1CE01DF9129
:1016A000CF910C94C1061F93CF93DF93EC01162FBB
:1016B000662311F04DE501C045E56AE5CE010E94C3
:1016C000C106112311F04CE701C040E76CE5CE01E3
:1016D000DF91CF911F910C94C106FC0166830895A0
:1016E000CF93CFB7F89480919503811127C0E6E49A
:1016F000F3E08491E2E3F3E09491E82FF0E0EE0F61
:10170000FF1FEC59FC4FA591B4918C91892321F4D2
:1017100061E08AE00E948B1561E08AE00E94521528
:101720008CB580618CBD8CB580648CBD61E08DE032
:101730000E94521561E08BE00E9452158091950342
:101740008F5F80939503CFBFCF910895FC0180E513
:10175000858316826083528341830895FC018CB592
:1017600083838DB58483358126818091940388237A
:1017700099F09FB7F89480919403813059F48DB318
:10178000809392034DB380919303809584238DBB06
:101790009FBF02C0909392033CBD2DBD60E080814D
:1017A0000C948B15CF93DF93EC0161E088810E944C
:1017B0008B1580919403882361F09FB7F894209152
:1017C000940380919203213019F48DBB9FBF01C017
:1017D0008FBF8B818CBD8C818DBDDF91CF910895A2
:1017E0001F93CF93DF93EC010E94AE0B85E00E9424
:1017F000120680E00E941206182FCE010E94D20B22
:10180000812FDF91CF911F9108950E94F00B81707D
:1018100008951F93CF93DF93EC01162F442339F0E3
:1018200040E066E00E94090CCE010E94D20BCE017E
:101830000E94050C8111FBCFCE010E94AE0B812FBF
:10184000DF91CF911F910C941206EF92FF920F93AC
:101850001F93CF93DF9300D0CDB7DEB77C01142F59
:10186000062F41E062E02A8359830E94090C802FF1
:101870000E9412065981852F0E941206812F0E9414
:1018800012062A81822F0E941206C7010F900F9024
:10189000DF91CF911F910F91FF90EF900C94D20B9D
:1018A0002F923F924F925F926F927F928F929F9270
:1018B000AF92BF92CF92DF92EF92FF920F931F935E
:1018C000CF93DF936C012A013B015901CA0199278B
:1018D000C0E0D1E0C81BD90BE12CF12C011511059A
:1018E00079F10C171D0708F4E80141E062E0C60138
:1018F0000E94090C862D0E941206852D0E94120658
:10190000842D0E94120615012E0C3F1C4101F4018A
:1019100081914F010E941206C401821993098C170C
:101920009D07A8F3C6010E94D20B4C0E5D1E611CE0
:10193000711CEC0EFD1E0C1B1D0BC0E0D1E0CECFC8
:10194000DF91CF911F910F91FF90EF90DF90CF909B
:10195000BF90AF909F908F907F906F905F904F90CF
:101960003F902F900895EF92FF920F931F93CF9384
:10197000DF931F92CDB7DEB77C01142F062F41E015
:1019800062E559830E94090C802F0E94120659813A
:10199000852F0E941206812F0E941206C7010F9008
:1019A000DF91CF911F910F91FF90EF900C94D20B8C
:1019B000FC01DB0186E191E09183808312968C919A
:1019C0001297828313968C911397838314968C912C
:1019D0001497848315968C911597858316968C9110
:1019E0001697868317968C911797878318968C91F4
:1019F0001897808719968C91199781871A968C91E0
:101A000082870895CF92DF92FF920F931F93CF9317
:101A1000DF93CDB7DEB70DB71EB7262F30E0220F0C
:101A2000331FA9014F5F5F4FEDB7FEB7E41BF50B06
:101A30000FB6F894FEBF0FBEEDBF4DB75EB74F5F58
:101A40005F4FDA01F82E6C018C2D8F198617C8F4C0
:101A5000C601F601708172957F7070637A3308F069
:101A6000795D7C93FFEFCF1ADF0AFC0180818F70D4
:101A700080638A3308F0895D11968C9311971296D2
:101A8000E3CFFA01E20FF31F1082BA0183EC93E077
:101A90000E946E180FB6F8941EBF0FBE0DBFDF91E7
:101AA000CF911F910F91FF90DF90CF9008952F92CB
:101AB0003F924F925F926F927F928F929F92AF92DE
:101AC000BF92CF92DF92EF92FF920F931F93CF932B
:101AD000DF93CDB7DEB76C970FB6F894DEBF0FBEBD
:101AE000CDBF4C016B8FE98AFA8A0B8B1C8B2D8B37
:101AF0003E8B4F8BAA8E46E068E472E00E94D30AC8
:101B0000CC2031F066E571E083EC93E00E946E1822
:101B100040E050E0BA01CE0141960E94B30C07E0CC
:101B200010E028E631E040E050E0BA01CE014196F5
:101B30000E94500C2AE349E050E060E070E0CE01E2
:101B400041960E94250C0E9485141B012C015AE02D
:101B5000E52EF12CA12CB12C9E012F5F3F4F398F28
:101B6000288FC4010E94F005882301F1809152035F
:101B70003B8D83131BC0D0905303B3E0BD1520F4FD
:101B8000809155038634F9F061E08A8D0E945215E8
:101B900061E08A8D0E948B1561E070E080E090E04A
:101BA0000E94B41460E08A8D0E948B150E948514F7
:101BB0006219730984099509693B7B408105910588
:101BC00080F280E022C1809156038C34E9F6809146
:101BD00057038835C9F6809158038A3309F0AAC0A3
:101BE00046E04D1508F0A6C084E090E000E010E06B
:101BF000782E2FEF280FFC01EB5AFC4F3081303349
:101C0000A0F030813A3388F42081AAE0A801A49F93
:101C10008001A59F100D112400531109020F111D01
:101C200001968830910521F707C030813A33C1F71A
:101C300054E0751631F2722ECC20C1F060E771E0ED
:101C400083EC93E00E9461184AE050E06D2D83EC34
:101C500093E00E942E1968E771E083EC93E00E9404
:101C600061186D2D85E593E00E94020DE1E0E70D1E
:101C7000F0E0EB5AFC4F80818A3309F0A2CF0E943A
:101C800085141B012C010A151B0539F0C5010197AC
:101C90000817190709F04EC029C032E0370D580166
:101CA0008FEFA81AB80A3D1508F5E32FF0E0EB5ABC
:101CB000FC4F208137019FEF691A790AA70160E084
:101CC00070E0CE0141963C8F0E94250CC3019F77A6
:101CD0003C8D892B41F4A30160E070E0CE01419678
:101CE0000E94B30C3C8D3F5F7301DDCF1F930F93B8
:101CF000ADE7B1E0BF93AF93398D3F93488D4F93DC
:101D00000E947B1A482F0F900F900F900F900F900A
:101D10000F90CC2049F0BE016F5F7F4F83EC93E0C2
:101D20004C8F0E946E184C8DBE016F5F7F4FC401B7
:101D30000E94D30A809158038F3309F025CF54E0D5
:101D4000D51210C046E068E472E0C4010E94D30AD4
:101D5000CC2009F419CF67E871E083EC93E00E948E
:101D60006E1812CF87E0D8120FCF809159038534B7
:101D700009F00ACF80915A038F3409F005CF809182
:101D80005B03863409F000CF87010A501109013046
:101D9000BCE71B0778F0CC2031F065E971E083ECFB
:101DA00093E00E946E1847E062EB71E0C4010E946C
:101DB000D30A07CF46E068E472E0C4010E94D30A68
:101DC000CC2031F068E472E083EC93E00E946E185E
:101DD000212F47E050E060E070E0CE0141960E9484
:101DE000250C26EF2E0D48E050E060E070E0CE01BB
:101DF00041960E94250C2AE349E050E060E070E043
:101E0000CE0141960E94250C81E06C960FB6F894A5
:101E1000DEBF0FBECDBFDF91CF911F910F91FF901D
:101E2000EF90DF90CF90BF90AF909F908F907F907A
:101E30006F905F904F903F902F900895C82F882308
:101E400031F06AE872E083EC93E00E94611888E068
:101E500028E130E00FB6F894A895209360000FBEFB
:101E600080936000CC2331F06EE283EC93E00E941B
:101E70006318FACFFFCFAF92BF92CF92DF92EF926B
:101E8000FF920F931F93CF93DF93CDB7DEB7629787
:101E90000FB6F894DEBF0FBECDBF0C871D872E870F
:101EA0003F87488B598B6A8BDE2C2091530324305B
:101EB00008F45CC020915503263409F057C02091E6
:101EC00056032C3409F052C020915703283509F0ED
:101ED0004DC0209158032F3309F048C0B0905203F1
:101EE000209153032730A1F420915903253481F424
:101EF00020915A032F3461F420915B03263441F47E
:101F000000E026E048E452E06B2D0E94860A2EC0D5
:101F1000BC01CE0101960E94D80CAC2CCD2CEC84D7
:101F2000FD840E851F85288939894A896B2DCE014C
:101F300001960E94570D882359F0DD2031F064E9A5
:101F400072E083EC93E00E9461188D2D0E941E0FB9
:101F5000DD2061F065EB72E083EC93E00E94611894
:101F60006EED72E083EC93E00E946E1862960FB6FD
:101F7000F894DEBF0FBECDBFDF91CF911F910F91BF
:101F8000FF90EF90DF90CF90BF90AF900895FC014D
:101F90001182108273836283158214820895DC019A
:101FA000ED91FC91309709F009940895DC011296A7
:101FB000ED91FC911397309709F009940895DC0195
:101FC0001496ED91FC911597309709F009940895B6
:101FD000FC0181E080837483638372836183158253
:101FE0001682178210860895CF93DF93EC017C83CD
:101FF0006B830E9485146D837E838F839887CE01C7
:10200000DF91CF9108950F931F93CF93DF93EC014E
:102010008B0189819A810E94DF0F1C830B831A83B5
:102020000983C8010E94CF0F0E9485146D837E83AF
:102030008F839887CE01DF91CF911F910F910895E3
:10204000CF93DF93EC01288189819A81222321F0AB
:102050000E94CF0F18820CC06B817C818617970776
:1020600019F0CE010E94031089819A810E94D60F37
:10207000CE01DF91CF910895EF92FF920F931F93BE
:10208000CF93DF931F92CDB7DEB77C01FC010081B7
:102090001181C80169830E946F1C6981681719F05A
:1020A000C8010E94771CC7010F90DF91CF911F914B
:1020B0000F91FF90EF900895262F862F6AE00E94DF
:1020C0002D1A923011F48EEF01C081E0820F089535
:1020D000262F862F6AE00E942D1A911102C082E0FD
:1020E00001C08FEF820F08958F929F92AF92BF929F
:1020F000CF92EF920F931F93CF93DF93CDB7DEB7BD
:102100002B970FB6F894DEBF0FBECDBF5C014C011C
:1021100081E1880E911CC4010E94F005882309F416
:10212000AFC0809152038E3F39F490915103F50175
:102130008081981709F464C080915303843019F5A5
:102140008091550390915603A0915703B091580385
:10215000F50184839583A683B7838091510383839C
:102160009091520392839081891381C0C4010E948F
:102170008C06882309F47BC040E065EF72E0C4015F
:102180000E94D30A74C0809153038230F9F4809185
:10219000550390915603F5019187808780915103F3
:1021A00083839091520392839081891305C0C40167
:1021B0000E948C0681115DC0F50180859185039791
:1021C00009F055C081E00E941E0F51C0809152035A
:1021D0008E3F09F055C0809153038D3008F450C0F4
:1021E0006EE771E083EC93E00E943E1883EC93E08D
:1021F0000E946A1882E090E0F5019187808740C0D4
:102200006BE971E083EC93E00E943E1883EC93E06D
:102210000E946A1886E191E09A838983F501838997
:102220008B8384898C8385898D8386898E83878936
:102230008F83808D8887818D8987828D8A87838D22
:102240008B8789E0C82EE12C0091B2031091B30373
:102250002091B4033091B5034091B6035091B70378
:102260006091B803CE0101960E943B0F65CF81E0DB
:1022700008C040E065EF72E0C4010E94D30A9CCF21
:1022800080E02B960FB6F894DEBF0FBECDBFDF9176
:10229000CF911F910F91EF90CF90BF90AF909F90F3
:1022A0008F900895CF92DF92EF92FF92CF93DF93BA
:1022B000EC0164E771E083EC93E00E943E18FB8040
:1022C0004AE050E06A8183EC93E00E942E1961E7B6
:1022D00071E083EC93E00E943E184AE050E06F2DDD
:1022E00083EC93E00E942E19F8886DE671E083EC90
:1022F00093E00E943E184AE050E06F2D83EC93E09B
:102300000E942E19CC80DD80EE80FF8067E671E0B0
:1023100083EC93E00E943E1822E030E0B701A60172
:1023200083EC93E00E94CF180884D985C02D6FE517
:1023300071E083EC93E00E943E184AE050E0BE0159
:1023400083EC93E00E94191983EC93E0DF91CF9125
:10235000FF90EF90DF90CF900C946A180F931F932B
:10236000FC014481558166817781842F8370808B45
:102370008A019B0192E036952795179507959A95C6
:10238000D1F71370138702878A019B01ACE0369561
:10239000279517950795AA95D1F713701587048788
:1023A000B6E17695679557954795BA95D1F75787D2
:1023B00046871F910F9108950F931F93FC01468547
:1023C0005785537060E070E01AE0440F551F661F98
:1023D000771F1A95D1F704851585137020E030E03A
:1023E000402B512B622B732B0AE0440F551F661FA5
:1023F000771F0A95D1F702851385137020E030E02E
:10240000402B512B622B732B82E0440F551F661F0C
:10241000771F8A95D1F780898370482B4483558331
:10242000668377831F910F910895EF92FF920F9328
:10243000CF93DF931F92CDB7DEB77C0169830E94F3
:1024400074106981F701638380818283A7014C5FE7
:102450005F4F00E024E0C70141960E94860A0F907A
:10246000DF91CF910F91FF90EF90089540E35FEEE1
:1024700068E082EB93E00E94A60B86E191E09093E6
:10248000A8038093A7038AE08093A90382E0809346
:10249000AA031092AB0381E0809354031092AD0322
:1024A0008FE18093AE031092AF0308959F92AF9295
:1024B000BF92CF92DF92EF92FF920F931F93CF9331
:1024C000DF9300D0CDB7DEB77C01162F942EA22E5D
:1024D0009AE2C92ED12C63E872E083EC93E00E946B
:1024E0003E1883EC93E00E946A181F3FC9F48AE209
:1024F00090E00E946F1CB82EF701808361E672E0C5
:1025000083EC93E00E943E184AE050E06B2D83EC90
:1025100093E00E942E1983EC93E00E946A181AC07F
:102520006DE372E083EC93E00E943E184AE050E0D5
:10253000612F83EC93E00E942E1983EC93E00E94BC
:102540006A18DA82C982612FCE0101960E943C107E
:10255000F7011083F70140814F3F41F563E172E0DD
:1025600083EC93E00E943E1883EC93E00E946A188B
:102570006EEE71E083EC93E00E943E1883EC93E0F2
:102580000E946A1883EC93E00E941616892BD1F3FF
:1025900041E060E070E083EC93E00E94AC19DA82E5
:1025A000C982CE0101960E943C1095CF6701F1E1EE
:1025B000CF0ED11C292D6A2DC6010E94690861E049
:1025C000C6010E94330B61E0C6010E946D0B602FB3
:1025D000C6010E9458078FEF93E0F701978786871F
:1025E000958784879387828780816AE00E942D1A6D
:1025F000918361E089E00E94521560E089E00E94C9
:102600008B1581E090E0F70191878087118100812F
:102610006BEB71E083EC93E00E943E184AE050E0DF
:10262000602F83EC93E00E942E1964EE71E083EC3E
:1026300093E00E943E184AE050E0612F83EC93E063
:102640000E942E1983EC93E00E946A180F900F905D
:10265000DF91CF911F910F91FF90EF90DF90CF907E
:10266000BF90AF909F9008956DEF72E083EC93E080
:102670000E943E1883EC93E00E946A1860E087E0B5
:102680000E94521560E086E00E948B1561E086E0B2
:102690000E94521561E084E00E948B1561E084E0A5
:1026A0000E94521560E083E00E948B1561E083E098
:1026B0000E94521560EE72E083EC93E00E943E1897
:1026C00083EC93E00C946A1869EB72E083EC93E07E
:1026D0000E943E1883EC93E00E946A1860E084E058
:1026E0000E948B1568EE73E080E090E00E94B414C5
:1026F00061E084E00E948B1561E086E00E948B150A
:102700006EE571E080E090E00E94B41460E086E045
:102710000E948B1562E370E080E090E00E94B414A8
:1027200065E972E083EC93E00E943E1883EC93E04D
:102730000C946A18CF93DF9300D000D0CDB7DEB7EA
:1027400061E086E00E948B1520E432E44FE050E027
:1027500061E087E00E94EA159B01AC0160E086E041
:1027600029833A834B835C830E948B15AAE0B0E0F7
:1027700029813A814B815C810E945B1A23E930E018
:1027800040E050E00E94391AC9010F900F900F905D
:102790000F90DF91CF91089508958230E8F4E82FEB
:1027A000F0E0EE0FFF1FE25FFE4F71836083813028
:1027B00041F0809169008C7F842B80936900E89AB6
:1027C000089580916900440F551F440F551F837F62
:1027D000842B80936900E99A08951F920F920FB697
:1027E0000F9211242F933F934F935F936F937F9397
:1027F0008F939F93AF93BF93EF93FF93E0910E015D
:10280000F0910F010995FF91EF91BF91AF919F91C9
:102810008F917F916F915F914F913F912F910F9089
:102820000FBE0F901F9018951F920F920FB60F9228
:1028300011242F933F934F935F936F937F938F93C5
:102840009F93AF93BF93EF93FF93E0911001F091AB
:1028500011010995FF91EF91BF91AF919F918F91D8
:102860007F916F915F914F913F912F910F900FBE8C
:102870000F901F9018951F920F920FB60F92112470
:102880002F933F938F939F93AF93BF938091BB03FD
:102890009091BC03A091BD03B091BE033091BA03E7
:1028A00023E0230F2D3720F40196A11DB11D05C093
:1028B00026E8230F0296A11DB11D2093BA03809331
:1028C000BB039093BC03A093BD03B093BE03809160
:1028D000BF039091C003A091C103B091C2030196C0
:1028E000A11DB11D8093BF039093C003A093C103AA
:1028F000B093C203BF91AF919F918F913F912F9160
:102900000F900FBE0F901F9018952FB7F8946091FD
:10291000BB037091BC038091BD039091BE032FBF98
:1029200008953FB7F8948091BF039091C003A091A0
:10293000C103B091C20326B5A89B05C02F3F19F073
:102940000196A11DB11D3FBF6627782F892F9A2FB1
:10295000620F711D811D911D42E0660F771F881F58
:10296000991F4A95D1F708958F929F92AF92BF9287
:10297000CF92DF92EF92FF926B017C010E94911443
:102980004B015C01C114D104E104F104F1F00E9497
:102990002C1A0E949114681979098A099B09683ECA
:1029A00073408105910570F321E0C21AD108E10856
:1029B000F10888EE880E83E0981EA11CB11CC1149A
:1029C000D104E104F10429F7DDCFFF90EF90DF900F
:1029D000CF90BF90AF909F908F900895789484B5DA
:1029E000826084BD84B5816084BD85B5826085BD0B
:1029F00085B5816085BDEEE6F0E0808181608083F1
:102A0000E1E8F0E0108280818260808380818160D3
:102A10008083E0E8F0E0808181608083E1EBF0E09A
:102A2000808184608083E0EBF0E08081816080833E
:102A3000EAE7F0E080818460808380818260808327
:102A40008081816080838081806880831092C10052
:102A50000895833081F028F4813099F08230A1F01C
:102A600008958730A9F08830B9F08430D1F480918E
:102A700080008F7D03C0809180008F7780938000DD
:102A8000089584B58F7702C084B58F7D84BD089585
:102A90008091B0008F7703C08091B0008F7D8093CC
:102AA000B0000895CF93DF9390E0FC01E85DFC4F08
:102AB0002491FC01E45CFC4F8491882349F190E06F
:102AC000880F991FFC01EC59FC4FA591B491865ACF
:102AD0009C4FFC01C591D4919FB7611108C0F89437
:102AE0008C91209582238C93888182230AC0623046
:102AF00051F4F8948C91322F309583238C938881F4
:102B0000822B888304C0F8948C91822B8C939FBF76
:102B1000DF91CF9108950F931F93CF93DF931F926F
:102B2000CDB7DEB7282F30E0F901EC5EFC4F849181
:102B3000F901E85DFC4F1491F901E45CFC4F04914C
:102B40000023C9F0882321F069830E942915698137
:102B5000E02FF0E0EE0FFF1FE65AFC4FA591B49175
:102B60009FB7F8948C91611103C01095812301C027
:102B7000812B8C939FBF0F90DF91CF911F910F916D
:102B80000895CF93DF93282F30E0F901EC5EFC4FDE
:102B90008491F901E85DFC4FD491F901E45CFC4FAC
:102BA000C491CC2391F081110E942915EC2FF0E003
:102BB000EE0FFF1FE05BFC4FA591B4912C912D23EC
:102BC00081E090E021F480E002C080E090E0DF91BD
:102BD000CF9108950F931F93762F90E0FC01E85D4D
:102BE000FC4F6491FC01E45CFC4FE4917111762F81
:102BF000F0E0EE0FFF1FE05BFC4F8591949189019F
:102C00009A013F70472F0E94E4016115710581050B
:102C1000910531F06F5F7F4F8F4F9F4F9F7003C0C3
:102C200060E070E0CB011F910F910895FC01818D50
:102C3000228D90E0805C9F4F821B91098F739927B2
:102C40000895FC01918D828D981731F0828DE80FE7
:102C5000F11D858D90E008958FEF9FEF0895FC01A1
:102C6000918D828D981761F0828DDF01A80FB11DC3
:102C70005D968C91928D9F5F9F73928F90E00895E7
:102C80008FEF9FEF089583EB97E1892B49F080E068
:102C900090E0892B29F00E94B31781110C94000059
:102CA0000895FC01848DDF01A80FB11DA35ABF4F09
:102CB0002C91848D90E001968F739927848FA6893B
:102CC000B7892C93A089B1898C9180648C93938D62
:102CD000848D981306C00288F389E02D80818F7D52
:102CE00080830895CF93DF93EC01888D8823C9F00A
:102CF000EA89FB89808185FD05C0A889B9898C9105
:102D000086FD0FC00FB607FCF5CF808185FFF2CF9F
:102D1000A889B9898C9185FFEDCFCE010E9451160B
:102D2000E7CFDF91CF910895CF92DF92FF920F937B
:102D30001F93CF93DF931F92CDB7DEB76C0181E075
:102D4000D60158968C9358975B969C915B975C96AE
:102D50008C915C97981307C05096ED91FC91519718
:102D6000808185FD2EC0F601038D10E00F5F1F4F9F
:102D70000F731127F02EF601848DF81211C00FB6D3
:102D800007FCF9CFD6015096ED91FC9151978081C7
:102D900085FFF1CFC60169830E9451166981EBCF8F
:102DA000838DE80FF11DE35AFF4F6083D6015B96D8
:102DB0000C935B975296ED91FC91539780818062C2
:102DC0000CC0D6015696ED91FC91579760835096B2
:102DD000ED91FC91519780818064808381E090E047
:102DE0000F90DF91CF911F910F91FF90DF90CF90C7
:102DF0000895BF92CF92DF92EF92FF92CF93DF932D
:102E0000EC016A017B01B22EE889F98982E08083B6
:102E1000411581EE580761057105A1F060E079E088
:102E20008DE390E0A70196010E94391A21503109E3
:102E3000410951095695479537952795211580E108
:102E4000380798F0E889F989108260E874E88EE123
:102E500090E0A70196010E94391A215031094109D9
:102E600051095695479537952795EC85FD85308313
:102E7000EE85FF852083188EEC89FD89B082EA8972
:102E8000FB89808180618083EA89FB8980818860F9
:102E90008083EA89FB89808180688083EA89FB8955
:102EA00080818F7D8083DF91CF91FF90EF90DF90C5
:102EB000CF90BF9008951F920F920FB60F921124DA
:102EC0002F938F939F93EF93FF93E091D303F09110
:102ED000D4038081E091D903F091DA0382FD12C01E
:102EE00090818091DC038F5F8F732091DD038217C7
:102EF00051F0E091DC03F0E0ED53FC4F958F8093AF
:102F0000DC0301C08081FF91EF919F918F912F9100
:102F10000F900FBE0F901F9018951F920F920FB633
:102F20000F9211242F933F934F935F936F937F934F
:102F30008F939F93AF93BF93EF93FF9383EC93E0B3
:102F40000E945116FF91EF91BF91AF919F918F9188
:102F50007F916F915F914F913F912F910F900FBE95
:102F60000F901F90189583EC93E00E94161621E0B5
:102F7000892B09F420E0822F08951092C603109245
:102F8000C50388EE93E0A0E0B0E08093C703909380
:102F9000C803A093C903B093CA0387EE92E090934D
:102FA000C4038093C30385EC90E09093D003809397
:102FB000CF0384EC90E09093D2038093D10380EC14
:102FC00090E09093D4038093D30381EC90E09093AE
:102FD000D6038093D50382EC90E09093D80380933E
:102FE000D70386EC90E09093DA038093D903109294
:102FF000DC031092DD031092DE031092DF030895CC
:10300000CF92DF92EF92FF920F931F93CF93DF93B4
:103010007C016A01EB0100E010E00C151D0571F068
:103020006991D701ED91FC910190F081E02DC701EC
:103030000995892B19F00F5F1F4FEFCFC801DF9162
:10304000CF911F910F91FF90EF90DF90CF90089557
:103050006115710581F0DB010D900020E9F7AD01EC
:1030600041505109461B570BDC01ED91FC91028048
:10307000F381E02D099480E090E00895EF92FF92B3
:103080000F931F93CF93DF938C017B01C0E0D0E0BF
:10309000F701EC0FFD1F6491662359F0F801A08140
:1030A000B181ED91FC91C8010995892B11F0219610
:1030B000EFCFCE01DF91CF911F910F91FF90EF9055
:1030C00008950C942818DC01ED91FC910190F08199
:1030D000E02D099463EF72E00C9428180F931F936E
:1030E000CF93DF93EC010E9428188C01CE010E943F
:1030F0006A18800F911FDF91CF911F910F91089552
:103100008F929F92AF92BF92DF92EF92FF920F93B6
:103110001F93CF93DF93CDB7DEB7A1970FB6F89487
:10312000DEBF0FBECDBF7C01F42FD52ECB0119A27F
:10313000223008F42AE08E010F5D1F4F822E912C61
:10314000A12CB12C6F2F7D2DA50194010E94391A5D
:10315000F22FD32ECA01015011096A3014F4E0E3B2
:1031600001C0E7E3E60FD801EC93232B242B252B9A
:1031700049F7B801C7010E942818A1960FB6F89424
:10318000DEBF0FBECDBFDF91CF911F910F91FF909A
:10319000EF90DF90BF90AF909F908F900895CF9267
:1031A000DF92EF92FF920F931F93CF93DF93EC0187
:1031B0006A017B012115310579F4E881F9810190DB
:1031C000F081E02D642FDF91CF911F910F91FF903F
:1031D000EF90DF90CF9009942A303105E9F477FF22
:1031E0001AC06DE20E9463188C0144275527BA016A
:1031F0004C195D096E097F092AE0CE010E948018F2
:10320000800F911FDF91CF911F910F91FF90EF9051
:10321000DF90CF9008952AE0B701A601CE01DF919B
:10322000CF911F910F91FF90EF90DF90CF900C9472
:1032300080189A01AB01662757FD6095762F0C9494
:10324000CF182115310541F4DC01ED91FC9101907D
:10325000F081E02D642F09940C9480189A01462F78
:1032600050E060E070E00C9421199A01AB0160E03D
:1032700070E00C9421190F931F93CF93DF93EC010F
:103280000E948514688779878A879B87E881F981FE
:103290000084F185E02DCE01099597FF15C00E94AD
:1032A0008514088519852A853B85601B710B820B67
:1032B000930B0C811D812E813F816017710782075E
:1032C000930720F38FEF9FEFDF91CF911F910F9125
:1032D0000895FF920F931F93CF93DF93EC018B011F
:1032E000F42ECE010E943B199C0197FD28C08D321F
:1032F000910519F1C0970A9710F1FF2019F02E32AD
:103300003105F9F001301105F9F00230110569F4C9
:103310002D30310551F034F4295031092230310576
:1033200020F012C02032310579F4E881F98106805D
:10333000F781E02DCE010995D4CF8DE203C0C901FC
:1033400005C08EE290E002C08FEF9FEFDF91CF913A
:103350001F910F91FF900895CF92DF92FF920F93EC
:103360001F93CF93DF9300D000D0CDB7DEB76C01B1
:10337000042F40E00E946919FC0197FD4BC020E03A
:1033800030E0A901F12C112707FD1095E017F10796
:10339000E9F0ED32F105C1F0CF01C0970A97B0F422
:1033A000AAE0B0E00E945B1A9B01AC01CF01AA2702
:1033B00097FDA095BA2F280F391F4A1F5B1F205376
:1033C00031094109510902C0FF24F394D601ED915E
:1033D000FC910680F781E02DC60129833A834B8357
:1033E0005C830995C6010E943B19FC01C0972981A5
:1033F0003A814B815C810A9748F2E017F10731F27C
:10340000FF2061F066277727CB01621B730B840BCB
:10341000950B06C060E070E0CB0102C0CA01B901A3
:103420000F900F900F900F90DF91CF911F910F9100
:10343000FF90DF90CF90089508950E94EE140E94AF
:103440001C1A0E943904C3E4D6E10E94E6042097C6
:10345000E1F30E944316F9CF0895991B79E004C067
:10346000991F961708F0961B881F7A95C9F78095C3
:103470000895A1E21A2EAA1BBB1BFD010DC0AA1FB5
:10348000BB1FEE1FFF1FA217B307E407F50720F0CD
:10349000A21BB30BE40BF50B661F771F881F991F48
:1034A0001A9469F760957095809590959B01AC0191
:1034B000BD01CF0108950E946C1AA59F900DB49F85
:1034C000900DA49F800D911D11240895EE0FFF1FF4
:1034D0000590F491E02D0994A29FB001B39FC00123
:1034E000A39F700D811D1124911DB29F700D811D30
:1034F0001124911D0895AEE0B0E0E1E8FAE10C94EA
:10350000391D0D891E8986E08C831A8309838FEF0C
:103510009FE79E838D83AE01475E5F4F6F89788DF5
:10352000CE0101960E949D1AEF81F885E00FF11FF0
:1035300010822E96E4E00C94551DACE0B0E0E3EA76
:10354000FAE10C942B1D7C016B018A01FC011782AE
:103550001682838181FFBDC1CE0101964C01F70126
:103560009381F60193FD859193FF81916F018823EB
:1035700009F4ABC1853239F493FD859193FF8191B4
:103580006F01853229F4B70190E00E949B1CE7CFC0
:10359000512C312C20E02032A0F48B3269F030F431
:1035A000803259F0833269F420612CC08D3239F0B9
:1035B000803339F4216026C02260246023C0286053
:1035C00021C027FD27C030ED380F3A3078F426FFB0
:1035D00006C0FAE05F9E300D1124532E13C08AE01E
:1035E000389E300D1124332E20620CC08E3221F40F
:1035F00026FD6BC1206406C08C3611F4206802C021
:10360000883641F4F60193FD859193FF81916F0116
:103610008111C1CF982F9F7D9554933028F40C5F72
:103620001F4FFFE3F9830DC0833631F0833771F00C
:10363000833509F05BC022C0F801808189830E5F69
:103640001F4F44244394512C540115C03801F2E01B
:103650006F0E711CF801A080B18026FF03C0652D9C
:1036600070E002C06FEF7FEFC5012C870E94901CB5
:103670002C0183012C852F77222E17C03801F2E010
:103680006F0E711CF801A080B18026FF03C0652D6C
:1036900070E002C06FEF7FEFC5012C870E94851C90
:1036A0002C012C852068222E830123FC1BC0832D36
:1036B00090E048165906B0F4B70180E290E00E940D
:1036C0009B1C3A94F4CFF50127FC859127FE81914C
:1036D0005F01B70190E00E949B1C31103A94F1E029
:1036E0004F1A51084114510471F7E5C0843611F0A6
:1036F000893639F5F80127FF07C060817181828121
:1037000093810C5F1F4F08C060817181882777FD0E
:103710008095982F0E5F1F4F2F76B22E97FF09C00E
:1037200090958095709561957F4F8F4F9F4F206842
:10373000B22E2AE030E0A4010E94CD1CA82EA818C9
:1037400044C0853729F42F7EB22E2AE030E025C010
:10375000F22FF97FBF2E8F36C1F018F4883579F03B
:10376000B4C0803719F0883721F0AFC02F2F206107
:10377000B22EB4FE0DC08B2D8460B82E09C024FF7C
:103780000AC09F2F9660B92E06C028E030E005C021
:1037900020E130E002C020E132E0F801B7FE07C0CE
:1037A00060817181828193810C5F1F4F06C06081AF
:1037B000718180E090E00E5F1F4FA4010E94CD1C3C
:1037C000A82EA818FB2DFF77BF2EB6FE0BC02B2D01
:1037D0002E7FA51450F4B4FE0AC0B2FC08C02B2DF5
:1037E0002E7E05C07A2C2B2D03C07A2C01C0752C9F
:1037F00024FF0DC0FE01EA0DF11D8081803311F41C
:10380000297E09C022FF06C07394739404C0822FDE
:10381000867809F0739423FD13C020FF06C05A2C4C
:10382000731418F4530C5718732C731468F4B701FD
:1038300080E290E02C870E949B1C73942C85F5CF2E
:10384000731410F4371801C0312C24FF12C0B701D3
:1038500080E390E02C870E949B1C2C8522FF17C0E0
:1038600021FF03C088E590E002C088E790E0B7013F
:103870000CC0822F867859F021FD02C080E201C081
:103880008BE227FD8DE2B70190E00E949B1CA514FE
:1038900038F4B70180E390E00E949B1C5A94F7CF64
:1038A000AA94F401EA0DF11D8081B70190E00E9415
:1038B0009B1CA110F5CF332009F451CEB70180E253
:1038C00090E00E949B1C3A94F6CFF7018681978185
:1038D00002C08FEF9FEF2C96E2E10C94471DF999FF
:1038E000FECF92BD81BDF89A992780B50895262F05
:1038F000F999FECF1FBA92BD81BD20BD0FB6F894D5
:10390000FA9AF99A0FBE01960895FC01059061504C
:1039100070400110D8F7809590958E0F9F1F0895E5
:10392000FC016150704001900110D8F7809590958E
:103930008E0F9F1F08950F931F93CF93DF93182F20
:10394000092FEB018B8181FD03C08FEF9FEF20C01A
:1039500082FF10C04E815F812C813D814217530749
:103960007CF4E881F9819F012F5F3F4F39832883E1
:10397000108306C0E885F985812F0995892B29F7E1
:103980002E813F812F5F3F4F3F832E83812F902FCA
:10399000DF91CF911F910F910895FA01AA27283046
:1039A00051F1203181F1E8946F936E7F6E5F7F4F0C
:1039B0008F4F9F4FAF4FB1E03ED0B4E03CD0670F88
:1039C000781F891F9A1FA11D680F791F8A1F911DDB
:1039D000A11D6A0F711D811D911DA11D20D009F42B
:1039E00068943F912AE0269F11243019305D31936D
:1039F000DEF6CF010895462F4770405D4193B3E056
:103A00000FD0C9F7F6CF462F4F70405D4A3318F0FC
:103A1000495D31FD4052419302D0A9F7EACFB4E0AD
:103A2000A6959795879577956795BA95C9F7009765
:103A30006105710508959B01AC010A2E0694579506
:103A4000479537952795BA95C9F7620F731F841F5D
:103A5000951FA01D08952F923F924F925F926F92F3
:103A60007F928F929F92AF92BF92CF92DF92EF920E
:103A7000FF920F931F93CF93DF93CDB7DEB7CA1B8F
:103A8000DB0B0FB6F894DEBF0FBECDBF09942A88BA
:103A9000398848885F846E847D848C849B84AA8462
:103AA000B984C884DF80EE80FD800C811B81AA81EF
:103AB000B981CE0FD11D0FB6F894DEBF0FBECDBFBA
:083AC000ED010895F894FFCF19
:103AC800000060048000983A00001E000000CC133B
:103AD800CC1300000000860A3906F005D30A330B20
:103AE8005807D409BF057207F307E906530BDA052F
:103AF800CB05464C583F454F4600464C583F00487A
:103B0800616E647368616B65206661696C00464C20
:103B1800583A25753A00464C583F4F4B20284143A8
:103B28004B2073656E742900464C58494D473A003E
:103B3800726164696F205B005D203E2000464C582E
:103B48003A25753A4F4B00464C583F4F4B2072650B
:103B580073656E6400494D472065786365656473D5
:103B68002033316B2C207265667573696E67206926
:103B78007400464C583F4E4F4B0052465458203E16
:103B88002000524641434B203E200054696D656F2A
:103B980075742077616974696E6720666F7220702A
:103BA80061636B65742041434B2C2061626F7274B2
:103BB800696E6720464C415348206F706572617486
:103BC800696F6E202E2E2E00464C583A494E5600EC
:103BD80054696D656F757420726563656976696E81
:103BE8006720464C41534820696D616765206672BD
:103BF8006F6D2053455249414C2C2061626F72749D
:103C0800696E672E2E2E000A464C583F4F4B0046D1
:103C18004C41534820494D47205452414E534D4939
:103C28005353494F4E205355434345535300464C35
:103C380041534820494D47205452414E534D495312
:103C480053494F4E204641494C005245424F4F542C
:103C5800494E4700464C41534820494D472054524D
:103C6800414E534D495353494F4E205355434345B5
:103C78005353210A0054696D656F75742F4572722C
:103C88006F722C2065726173696E67207772697430
:103C980074656E2064617461202E2E2E2000444FBE
:103CA8004E4500000000009416001816162F162125
:103CB8001672160D0A006E616E00696E66006F76E8
:023CC800660094
:00000001FF
