:100000000C945A010C945C1B0C94831B0C9482017D
:100010000C9482010C9482010C9482010C94820154
:100020000C9482010C9482010C9482010C94820144
:100030000C9482010C9482010C9482010C94820134
:100040000C94AA1B0C9482010C94BB1E0C94ED1E04
:100050000C9482010C9482010C9482010C94820114
:100060000C9482010C948201416E696D6174696F18
:100070006E2E20667073207265706F727465643DB9
:1000800000416E696D6174696F6E2E2065787465CC
:100090006E743D2000416E696D6174696F6E2E2033
:1000A000706F736974696F6E3D2000416E696D6198
:1000B00074696F6E2E204D6173746572206272696F
:1000C0006768746E6573733D2000416E696D61747D
:1000D000696F6E2E205374617274757020636F6D3A
:1000E000706C6574652E0053746174652E202069F0
:1000F0006E506C616E652D3E69646C652E005374A4
:100100006174652E202069646C652D3E6F75745096
:100110006C616E652E0052583A2000097374617448
:10012000653D00096D73673D0009733D002D3E007C
:100130004E6574776F726B2E20004E6574776F7208
:100140006B2E2050726F6772616D6D6572207472D4
:1001500061666669632E004E6574776F726B2E2040
:10016000526570726F6772616D6D696E67206D6543
:1001700073736167653F004E6574776F726B2E20F5
:100180007374617274757020636F6D706C657465E3
:100190002077697468206D794E6F646549443D002D
:1001A000206D79496E6465783D00456E74657220F6
:1001B000746865206E6F6465206E756D626572206F
:1001C000666F722074686973206E6F64653A004EC2
:1001D0006574776F726B2E204552524F52206E6FAE
:1001E000206E6F6465494420666F756E6420696E89
:1001F00020454550524F4D21004E6574776F726B0C
:100200002E202077726974696E67206E6F6465496D
:100210004420746F20454550524F4D3D004E65744B
:10022000776F726B2E2072656164206E6F64654912
:10023000442066726F6D20454550524F4D3D004E33
:100240006574776F726B2E20737461727475702E83
:100250000000000008000201000003040700000085
:100260000000000000010204081020408001020488
:1002700008102001020408102004040404040404EB
:10028000040202020202020303030303030000004C
:100290000023002600290000000000250028002B74
:1002A0000000000000240027002A0000090B20178E
:1002B0003D1A1D1F11241FBECFEFD8E0DEBFCDBFFA
:1002C00013E0A0E0B1E0E6ECFAE402C005900D9284
:1002D000AA34B107D9F726E0AAE4B3E001C01D9221
:1002E000AD35B207E1F712E0C4EBD2E004C02297CB
:1002F000FE010E947122CC3AD107C9F70E94C021A9
:100300000C9461250C94000080E090E00895CF9358
:10031000DF9300D000D000D0CDB7DEB7AB01DC0159
:10032000ED91FC910190F081E02D19821A821B82DF
:100330001C821D821E829E012F5F3F4FBE016C5F9B
:100340007F4F099526960FB6F894DEBF0FBECDBF3E
:10035000DF91CF910895CF93DF9300D000D000D0EC
:10036000CDB7DEB7AB01DC01ED91FC910190F081DE
:10037000E02D19821A821B821C821D821E829E0120
:100380002F5F3F4FBE016C5F7F4F099526960FB6DA
:10039000F894DEBF0FBECDBFDF91CF910895FC0171
:1003A00084E391E091838083138212828FEF8683AE
:1003B0008783808781878287838781E08487168609
:1003C00015861582148280916B0590916C05892B9E
:1003D00021F4F0936C05E0936B05A0916905B09151
:1003E0006A05109721F01596FC93EE931497F093FD
:1003F0006A05E09369050895CF93C62F60936D0554
:100400006BEA70E080EC95E00E949E1F4AE050E0AD
:100410006C2F80EC95E00E948E2080EC95E0CF91CF
:100420000C94CA1FCF93DF9300D01F92CDB7DEB7D5
:10043000FC016083442361F019821A821B82AE01A1
:100440004F5F5F4F6EE670E082E993E00E943F17D6
:100450000F900F900F90DF91CF910895CF93DF937E
:10046000EC0180917D03811111C084E693E00E942C
:10047000CF0182E491E0909365038093640310922E
:1004800074031092730381E080937D0320E030E0D9
:100490004EE650E062E973E084E693E00E94E516E0
:1004A000FC018FEF868380EB878380EF80878091CC
:1004B0007503811111C083E593E00E94CF0180E5AF
:1004C00091E090935403809353031092630310922E
:1004D000620381E08093750320E030E04EE650E057
:1004E00062E973E083E593E00E94E516FC018FEF7B
:1004F000868380EB878380EF80878EE00E94981C44
:1005000020910A0130910B01280F391F30930B0104
:1005100020930A016FEFCE010E94FC0187E38B83D9
:1005200089831C821A8241E060E0CE010E9412029F
:100530006AEC70E080EC95E00E949E1F80EC95E0F4
:10054000DF91CF910C94CA1F1F93CF93DF93EC01DF
:10055000162F8981861791F065E970E080EC95E0AF
:100560000E949E1F4AE050E0612F80EC95E00E94BF
:100570008E2080EC95E00E94CA1F1983DF91CF91F5
:100580001F9108951F93CF93DF93EC01162F8A815B
:10059000861791F061E870E080EC95E00E949E1F64
:1005A0004AE050E0612F80EC95E00E948E2080ECC4
:1005B00095E00E94CA1F1A83DF91CF911F91089581
:1005C0004F925F926F927F929F92AF92BF92CF9223
:1005D000DF92EF92FF920F931F93CF93DF93CDB7EC
:1005E000DEB72A970FB6F894DEBF0FBECDBF962EAA
:1005F00080E1888788E0898780918A0381110DC016
:100600000E94F41B60934E0370934F03809350033A
:100610009093510381E080938A038DEF9FEB9A833F
:1006200089838FEF9FE39C838B8380914D03E8E068
:10063000F0E0EC0FFD1FE80FF11D40816EE670E069
:1006400082E993E00E947C1780914D0390E0FC01C9
:10065000EE0FFF1FEC0FFD1F0181128140904E0332
:1006600050904F036090500370905103E8E0F0E029
:10067000EC0FFD1FE80FF91F80818A870E94F41B91
:100680006B017C0120E03A85A8E1B1E00E9455228F
:100690009B01AC01C418D508E608F708C701B601EC
:1006A0000E94D021080F191FC8019F739695879546
:1006B000969587959695879516FF06C02FEF37E09C
:1006C000A901481B590BCA01E92FEE0FEE0FF0E00C
:1006D000EF5EFE4F2081318192818695A901989F1E
:1006E000400D511D1124CA0117FF03C0919581953A
:1006F00091099C01305880E090E0DC0160E04FEF10
:100700005FEF249FC001359FD001349F900DA11D44
:10071000B61F259F900DA11DB61F1124BD0188276E
:1007200099271F921F921F922EE62F93A12CB12C76
:100730006501EE24EA94FE2C00E010E020E030E0B9
:10074000A9010E947621162F0F900F900F900F9005
:100750006D36D9F480914D0381111DC00E94F41BA8
:10076000C0904E03D0904F03E0905003F09051039F
:1007700054EFC50E51E0D51EE11CF11CC616D7067C
:10078000E806F90608F44DC006C0611104C0809166
:100790004D03813069F180914C0391E0980F909363
:1007A0004C038D838FEF8E839F82812F90E0BC015D
:1007B000660F771F680F791F6E567C4FCE01059626
:1007C0000E948A172A960FB6F894DEBF0FBECDBFDF
:1007D000DF91CF911F910F91FF90EF90DF90CF901D
:1007E000BF90AF909F907F906F905F904F900895D3
:1007F0000E94F41BC0904E03D0904F03E090500332
:10080000F090510324EFC20E21E0D21EE11CF11C36
:10081000C616D706E806F90608F0BDCF10924D03BC
:1008200003C081E080934D030E94F41B60934E034C
:1008300070934F038093500390935103ACCF5F921A
:100840006F927F928F929F92AF92BF92CF92DF92E0
:10085000EF92FF920F931F93CF93DF9300D01F92DD
:10086000CDB7DEB7862E142F19821A821B82AE01F5
:100870004F5F5F4F6EE670E082E993E00E943F17A2
:1008800080914B038F5F80934B03282D31E0230F22
:1008900008F42FEF282D230F08F42FEF2E3638F40D
:1008A00021E0382D320F08F43FEF932E02C07DE691
:1008B000972E292D210F08F42FEF292D210F08F451
:1008C0002FEF2E3630F4292D210F08F42FEF622E52
:1008D00002C06DE6662E282D31E0231B08F420E0CF
:1008E000282D231B08F420E02E3638F421E0382D83
:1008F000321B08F430E0732E02C05DE6752E272D02
:10090000211B08F420E0272D211B08F420E02E36BF
:1009100030F4272D211B08F420E0522E02C04DE6B2
:10092000542E183328F4612F70E080E090E004C06A
:1009300067E370E080E090E01F921F921F9220E139
:100940002F93A12CB12C6501AA9417E3E12EF12C71
:1009500000E010E020E030E0A9010E947621062F9F
:100960000F900F900F900F90152DFF24FA946116A1
:10097000A0F080914B038983FA820B83212F30E012
:10098000B901660F771F620F731F6E567C4FCE0141
:1009900001960E948A171F5FEACF19821A8210E21D
:1009A0001B83852D90E0BC01660F771F680F791FB0
:1009B0006E567C4FCE0101960E948A1719821A82C8
:1009C00000E80B83872D90E0BC01660F771F680F4E
:1009D000791F6E567C4FCE0101960E948A171982AC
:1009E0001A828FEF8B83882D90E0BC01660F771FF2
:1009F000680F791F6E567C4FCE0101960E948A17B0
:100A000019821A820B83892D90E0BC01660F771F33
:100A1000680F791F6E567C4FCE0101960E948A178F
:100A200019821A821B83712CB301660F771F660D22
:100A3000771D6E567C4FCE0101960E948A170F904B
:100A40000F900F90DF91CF911F910F91FF90EF903A
:100A5000DF90CF90BF90AF909F908F907F906F90DE
:100A60005F900895CF93DF93EB014AE06EE670E06C
:100A700082E993E00E947C17AE016EE670E082E9A5
:100A800093E0DF91CF910C943F170F931F93CF9377
:100A9000DF9300D01F92CDB7DEB7FC018381918137
:100AA000981710F4815003C0891710F48F5F838367
:100AB00084819281981710F4815003C0891710F433
:100AC0008F5F84838081813079F048F0823091F0AB
:100AD0008330D1F419821A828FEF8B830FC06FEFAE
:100AE000CF010E94E00210C044816381CF010E94C7
:100AF0001F040AC019828FEF8A831B82BE016F5FB9
:100B00007F4FCF010E94320560916D058DE695E023
:100B10000E941D16809152038F5F843619F08093D6
:100B2000520317C01092520300916E0510916F0589
:100B300068E670E080EC95E00E949E1F4AE050E07D
:100B4000B80180EC95E00E94792080EC95E00E944D
:100B5000CA1F0F900F900F90DF91CF911F910F91AF
:100B60000895DC018D919C91009739F0DC01ED91A5
:100B7000FC910190F081E02D09940895DC018D91A4
:100B80009C91009739F0DC01ED91FC910280F3819A
:100B9000E02D09940895579A569A0F960C94BE0525
:100BA000DC018D919C91009739F0DC01ED91FC9175
:100BB0000190F081E02D09940895DC018D919C91C4
:100BC000009739F0DC01ED91FC910280F381E02D7A
:100BD00009940895549A569A0F960C94DD0587FF50
:100BE00002C05F9A01C05F985E9A5E9886FF02C05D
:100BF0005F9A01C05F985E9A5E9885FF02C05F9A17
:100C000001C05F985E9A5E9884FF02C05F9A01C03F
:100C10005F985E9A5E9883FF02C05F9A01C05F98FA
:100C20005E9A5E9882FF02C05F9A01C05F985E9AEA
:100C30005E9881FF02C05F9A01C05F985E9A5E98DD
:100C400080FF02C05F9A01C05F985E9A5E98089527
:100C500080E00E94EF0580E00E94EF0580E00E94A6
:100C6000EF0580E00C94EF05CF93DF9397FD4F964F
:100C7000EC01E5E0D595C795EA95E1F78FEF0E9485
:100C8000EF0580E00E94EF0580E00E94EF0580E024
:100C90000E94EF05219790F7DF91CF91089587FF8C
:100CA00002C05C9A01C05C985E9A5E9886FF02C0A2
:100CB0005C9A01C05C985E9A5E9885FF02C05C9A5F
:100CC00001C05C985E9A5E9884FF02C05C9A01C085
:100CD0005C985E9A5E9883FF02C05C9A01C05C9843
:100CE0005E9A5E9882FF02C05C9A01C05C985E9A30
:100CF0005E9881FF02C05C9A01C05C985E9A5E9823
:100D000080FF02C05C9A01C05C985E9A5E9808956C
:100D100080E00E944F0680E00E944F0680E00E9423
:100D20004F0680E00C944F06CF93DF9397FD4F96CC
:100D3000EC01F5E0D595C795FA95E1F78FEF0E94A4
:100D40004F0680E00E944F0680E00E944F0680E040
:100D50000E944F06219790F7DF91CF910895FF925F
:100D60000F931F93CF93DF93EC0180914A038F5F22
:100D7000982F977090934A0380FD02C080E001C0D5
:100D800080E891FD8064947009F08062A0E1FA2E01
:100D9000F80E20E030E000E011E0FE01E20FF31F6A
:100DA0006285662331F070E0C8010E9400226F5F07
:100DB00001C060E067834F2D469F412D112444837D
:100DC000662311F0615067832F5F3F4F2330310559
:100DD00021F7DF91CF911F910F91FF900895FC01B2
:100DE000613011F40C94AF061186108617821682BA
:100DF000158214820895AF92BF92CF92DF92EF9244
:100E0000FF920F931F93CF93DF93CDB7DEB72F974A
:100E10000FB6F894DEBF0FBECDBF6C01CB018A01C7
:100E2000F901D6011C966C919A8389835C834B836C
:100E300080818B8781818C8782818D87CE0101960D
:100E40000E94EF061E86BFE0CB0ED11CC6010E9499
:100E5000D0050E948806E12CF12CE016F1060CF07A
:100E60004EC0E981FA812281222329F03F81230F9C
:100E700008F42FEF01C020E03D85239F212D112490
:100E80008FEF2F870E944F062F85822F0E944F06DB
:100E9000E981FA812181222329F03E81230F08F480
:100EA0002FEF01C020E03C85239F212D1124A22E8D
:100EB000B12CBA2CAA242081222329F03D81230FB2
:100EC00008F42FEF01C020E03B85239F212D112442
:100ED000A22A8B2D0E944F068A2D0E944F068885DC
:100EE0009D81891B8D8389859E81891B8E838A853F
:100EF0009F81891B8F838FEFE81AF80AAECFC80154
:100F00000E949406C6010E94DD052F960FB6F89444
:100F1000DEBF0FBECDBFDF91CF911F910F91FF902C
:100F2000EF90DF90CF90BF90AF900895AF92BF92B7
:100F3000CF92DF92EF92FF920F931F93CF93DF93A5
:100F4000CDB7DEB72F970FB6F894DEBF0FBECDBF7B
:100F50006C01CB018A01F901D6011C966C919A8330
:100F600089835C834B8380818B8781818C8782819D
:100F70008D87CE0101960E94EF061E86BFE0CB0E44
:100F8000D11CC6010E94B1050E942806E12CF12C5B
:100F9000E016F1060CF04EC0E981FA81228122238D
:100FA00029F03F81230F08F42FEF01C020E03D8599
:100FB000239F212D11248FEF2F870E94EF052F856E
:100FC000822F0E94EF05E981FA812181222329F0F5
:100FD0003E81230F08F42FEF01C020E03C85239FC2
:100FE000212D1124A22EB12CBA2CAA242081222337
:100FF00029F03D81230F08F42FEF01C020E03B854D
:10100000239F212D1124A22A8B2D0E94EF058A2DCA
:101010000E94EF0588859D81891B8D8389859E812E
:10102000891B8E838A859F81891B8F838FEFE81AA6
:10103000F80AAECFC8010E943406C6010E94BE0560
:101040002F960FB6F894DEBF0FBECDBFDF91CF91C4
:101050001F910F91FF90EF90DF90CF90BF90AF90D6
:101060000895AF92BF92CF92DF92EF92FF920F93CB
:101070001F93CF93DF93CDB7DEB72F970FB6F894BA
:10108000DEBF0FBECDBF6C01CB018A01F901D601D5
:101090001C966C919A8389835C834B8380818B87B8
:1010A00081818C8782818D87CE0101960E94EF0617
:1010B00083E08E87BFE0CB0ED11CC6010E94B10534
:1010C0000E942806E12CF12CE016F1060CF05BC022
:1010D000E981FA812281222329F03F81230F08F43C
:1010E0002FEF01C020E03D85239F212D11248FEF9C
:1010F0002F870E94EF052F85822F0E94EF05E9813F
:10110000FA812181222329F03E81230F08F42FEF59
:1011100001C020E03C85239F212D1124A22EB12C5B
:10112000BA2CAA242081222329F03D81230F08F420
:101130002FEF01C020E03B85239F212D1124A22AFF
:101140008B2D0E94EF058A2D0E94EF058E85298147
:101150003A81280F311D3A8329832B813C8121500C
:1011600031093C832B8388859D81891B8D838985EB
:101170009E81891B8E838A859F81891B8F838FEF38
:10118000E81AF80AA1CFC8010E943406C6010E94DD
:10119000BE052F960FB6F894DEBF0FBECDBFDF9110
:1011A000CF911F910F91FF90EF90DF90CF90BF9064
:1011B000AF900895AF92BF92CF92DF92EF92FF92DD
:1011C0000F931F93CF93DF93CDB7DEB72F970FB653
:1011D000F894DEBF0FBECDBF6C01CB018A01F901CF
:1011E000D6011C966C919A8389835C834B838081A2
:1011F0008B8781818C8782818D87CE0101960E94A9
:10120000EF0683E08E87BFE0CB0ED11CC6010E94A3
:10121000D0050E948806E12CF12CE016F1060CF0B6
:101220005BC0E981FA812281222329F03F81230FCB
:1012300008F42FEF01C020E03D85239F212D1124CC
:101240008FEF2F870E944F062F85822F0E944F0617
:10125000E981FA812181222329F03E81230F08F4BC
:101260002FEF01C020E03C85239F212D1124A22EC9
:10127000B12CBA2CAA242081222329F03D81230FEE
:1012800008F42FEF01C020E03B85239F212D11247E
:10129000A22A8B2D0E944F068A2D0E944F068E8512
:1012A00029813A81280F311D3A8329832B813C8182
:1012B000215031093C832B8388859D81891B8D8337
:1012C00089859E81891B8E838A859F81891B8F8357
:1012D0008FEFE81AF80AA1CFC8010E949406C60150
:1012E0000E94DD052F960FB6F894DEBF0FBECDBF6E
:1012F000DF91CF911F910F91FF90EF90DF90CF90F2
:10130000BF90AF90089580917C0590917D050197E5
:1013100079F58091F40481110BC044EF51E060E055
:1013200070E084EE94E00E941B0B81E08093F40453
:1013300084EE94E00E94670B84EE94E00E94210BFF
:101340008823B1F06EEF70E080EC95E00E949E1F64
:1013500080EC95E00E94CA1F67E075E08EEF94E094
:101360000E946D1840E061E085E893E00C94120261
:1013700008950F93CF93DF93CDB7DEB728970FB6BD
:10138000F894DEBF0FBECDBF26E040E052EC61E036
:1013900070E080EC95E00E94591E0FE12BE54DE9CD
:1013A0006FEF84E795E00E945D1A48EE53E060E03D
:1013B00070E0CE0101960E941B0BCE0101960E94A7
:1013C000210B811105C084E795E00E94D518F5CF67
:1013D00085E893E00E942E0228960FB6F894DEBFAF
:1013E0000FBECDBFDF91CF910F91089580917E0503
:1013F00090917F058D35924088F080918005909185
:1014000081058D35924050F081E020918205309128
:1014100083052D35324018F080E0089581E008956D
:10142000AF92BF92CF92DF92EF92FF920F931F93F2
:1014300080917C0590917D05019709F099C0E0911C
:101440007505F0E0EE0FFF1FED55FA4F60817181D9
:10145000643F82E0780710F063EF72E080E090E094
:101460001F921F921F922DE62F93A12CB12C650184
:1014700013EFE12E12E0F12E00E010E020E030E06A
:10148000A9010E94762185E893E00E94A402E091E0
:101490007505F0E0EE0FFF1FE755FA4F608171818F
:1014A0006F3892E0790710F06EE872E080E090E02B
:1014B0001F921F921F9227E32F93A12CB12C65013D
:1014C0001EE8E12E12E0F12E00E010E020E030E016
:1014D000A9010E94762185E893E00E94C2028DB79F
:1014E0009EB708960FB6F8949EBF0FBE8DBF809131
:1014F000EC0481110BC044EF51E060E070E08CED32
:1015000094E00E941B0B81E08093EC040E94F6099A
:10151000882321F08CED94E00E94670B8CED94E021
:101520000E94210B811106C080917C0590917D0560
:101530000197F1F067EE70E080EC95E00E949E1F4D
:1015400080EC95E00E94CA1F6DE075E08EEF94E09C
:101550000E946D1840E060E085E893E01F910F91D4
:10156000FF90EF90DF90CF90BF90AF900C9412025D
:101570001F910F91FF90EF90DF90CF90BF90AF90B1
:10158000089584E795E00E94D518882371F066E1FC
:1015900071E080EC95E00E949E1F84E795E00E9438
:1015A000B31984E795E00E940F1A80917C05909111
:1015B0007D052091FC043091FD048217930709F109
:1015C000009719F440E062E010C08230910519F4F0
:1015D00040E063E00AC0019761F46DE075E08EEFD2
:1015E00094E00E946D1840E060E085E893E00E947E
:1015F000120280917C0590917D059093FD0480936B
:10160000FC048EEF94E00E94991885E893E00C9416
:10161000450563E879E08DE095E00E94401860E1BF
:101620007AE087E095E00E9440186DE075E08EEF6B
:1016300094E00C946118FC0144835583668377839E
:1016400008958F929F92AF92BF92CF92DF92EF92C6
:10165000FF920F931F93CF93DF93EC010E94F41B33
:101660008C809D80AE80BF8081149104A104B10460
:1016700029F4688379838A839B8319C0088119813F
:101680002A813B816B017C01C01AD10AE20AF30A6C
:10169000C814D904EA04FB0460F0B901A801480D9C
:1016A000591D6A1D7B1D488359836A837B8381E0B2
:1016B00001C080E0DF91CF911F910F91FF90EF90DB
:1016C000DF90CF90BF90AF909F908F900895CF9371
:1016D000DF93EC010E94F41B688379838A839B83E8
:1016E000DF91CF910895089580911305909114058D
:1016F000DC01ED91FC910484F585E02D0994CF93F4
:10170000DF93EC0161E08A810E94171D89858CBD01
:101710008A858DBD7894DF91CF910895FC01F8946E
:101720008CB581878DB582878CB5837F8CBD8CB558
:101730008F7D8CBD8CB58C7F8CBD8DB58E7F8DBD26
:1017400060E082810C94171DF89420911D052330D0
:1017500021F42091190521110FC020911D0523307E
:1017600011F4789407C0DC01ED91FC910288F389B3
:10177000E02D099580E00895DC01ED91FC9104884D
:10178000F589E02D61E0099581E008958EBD0000A6
:101790000DB407FEFDCF8EB50895CF93DF931F9252
:1017A000CDB7DEB7DC01ED91FC910480F581E02D31
:1017B000698309956981882359F080911B058617F3
:1017C00011F06F3F29F49091170581E0911101C04C
:1017D00080E00F90DF91CF9108952F923F924F922A
:1017E0005F927F928F929F92AF92BF92CF92DF9241
:1017F000EF92FF920F931F93CF93DF93EC01962EFE
:101800005A01722E802E10E0CE2CD12CE12CF12C1E
:10181000E881F9810190F081E02D01E0272DA501FB
:10182000692DCE0109950E94F41B1B012C010E9419
:10183000F41B62197309840995096C157D058E05E1
:101840009F0540F4692DCE010E94CD0B882379F3CA
:1018500081E004C01F5F8116D8F680E0DF91CF9150
:101860001F910F91FF90EF90DF90CF90BF90AF90BE
:101870009F908F907F905F904F903F902F90089512
:1018800080911805882329F090911A0581E09F3FE7
:1018900009F480E00895EF92FF921F93CF93DF93B6
:1018A0001F92CDB7DEB77C01DC01ED91FC91008C7D
:1018B000F18DE02D698309956981862F8F770E94CC
:1018C000C60B80E00E94C60B182FD701ED91FC914A
:1018D000028CF38DE02DC7010995812F0F90DF91C8
:1018E000CF911F91FF90EF9008950F931F93CF9387
:1018F000DF9300D0CDB7DEB78C01DC01ED91FC9118
:10190000008CF18DE02D4A83698309956981862FCA
:1019100080680E94C60B4A81842F0E94C60BD801A2
:10192000ED91FC91028CF38DE02DC8010F900F908A
:10193000DF91CF911F910F9109941F93CF93DF9364
:10194000EC01162F80911D05681709F461C0623003
:1019500009F440C070F4662309F444C0613009F012
:1019600057C061E0CE010E944B0C482F437E44607B
:101970003FC06330C1F0643009F04AC061E0CE017D
:101980000E944B0C482F437E4C6061E0CE010E94C8
:10199000750C8885882381F1E881F9810688F789AB
:1019A000E02D61E014C061E0CE010E944B0C482F95
:1019B000437E406161E0CE010E94750C88858823DA
:1019C000D9F0E881F9810688F789E02D60E0CE0141
:1019D000099512C061E0CE010E944B0C482F437E56
:1019E000486006C061E0CE010E944B0C482F437E48
:1019F00061E0CE010E94750C80911D05811106C029
:101A000067E2CE010E944B0C87FFF6CF10931D05B5
:101A1000DF91CF911F910895CF93DF93EC01603256
:101A200008F06FE16F838885882311F066956F83D6
:101A300061E1CE010E944B0C482F407E8F81482BE4
:101A400061E1CE01DF91CF910C94750CCF92DF92C2
:101A5000EF92FF920F931F93CF93DF93EC01F62E3B
:101A6000D42EC52E122FE881F9810488F589E02D46
:101A700061E0099567E2CE010E944B0C87FFFACF27
:101A800040E065E2CE010E94750C1E3308F01DE3B4
:101A9000E11004C0002319F000E401C000E8E8816F
:101AA000F981008CF18DE02DCE01099580E80E942E
:101AB000C60B83E0810F0E94C60B8F2D0E94C60BC0
:101AC0008D810E94C60B802F0E94C60B0D2DED2C20
:101AD000FC2C8E2D801B811730F4F70181917F0142
:101AE0000E94C60BF6CFE881F981028CF38DE02DC0
:101AF000CE010995E881F9810488F589E02D64E03B
:101B0000CE0109950E94F41B6B017C018B810E9420
:101B10004D1D892B81F0E881F9810488F589E02D3C
:101B200061E0CE01DF91CF911F910F91FF90EF9077
:101B3000DF90CF9009940E94F41B6C197D098E09E7
:101B40009F09683E73408105910528F7DFCFCF9349
:101B5000DF93EC0110921C0510921B0510921A05E0
:101B6000109219051092180510921705109216057B
:101B70001092150568E20E944B0C82FF0AC06DE3CB
:101B8000CE010E944B0C482F44606DE3CE010E94B1
:101B9000750C40E465E2CE010E94750CE881F98184
:101BA0000488F589E02D63E0CE01DF91CF9109949F
:101BB000DF92EF92FF920F931F93CF93DF93EC018D
:101BC0008B01E881F9810488F589E02D61E00995B0
:101BD00001151105E1F0E881F981008CF18DE02D0E
:101BE000CE0109958EEB0E94C60B7801D12CF7012E
:101BF00081917F010E94C60BD394F0E1DF12F7CFF1
:101C0000E881F981028CF38DE02DCE0109956DE319
:101C1000CE010E944B0C8E7F91E0012B09F490E0E5
:101C2000482F492B6DE3CE01DF91CF911F910F918A
:101C3000FF90EF90DF900C94750C8F929F92AF9273
:101C4000BF92DF92EF92FF920F931F93CF93DF9398
:101C5000CDB7DEB7AE970FB6F894DEBF0FBECDBFDF
:101C60007C01D42E8EE28E010F5F1F4FD801E82F2A
:101C70001D92EA95E9F791E0998334E03A8342E0D6
:101C80004B8393E09D834E833F8340E4488735E058
:101C900039879A8796E09B8793E39C8737E03D8757
:101CA00098E09F8799E0998B99E19B8B92E49C8BBC
:101CB00055E25D8B4E8B46E24F8B388F38E2398F81
:101CC00030E13A8F39E23B8F3CED3C8F8D8F88E8D5
:101CD0008E8F8FE28F8F8DE288A380E389A337E315
:101CE0003BA330E93CA338E33DA39EA39CE39FA321
:101CF0009FE898A79DE399A792E19AA79FE69BA7E3
:101D00008CA78FEF8DA76F3131F06B3231F06635D4
:101D100031F489ED05C08EE403C08CE601C084EE89
:101D20008E876F3141F06B3221F0663521F480E00F
:101D300003C080E401C080EC888B2AA361E0D70156
:101D400012968C910E94171D61E0F70182810E941A
:101D5000DE1C0E9424110E94F41B4B015C014AEA24
:101D60006FE2C7010E94750C6FE2C7010E944B0C25
:101D70008A3A59F00E94F41B681979098A099B096B
:101D8000623371058105910550F30E94F41B4B01EC
:101D90005C0145E56FE2C7010E94750C6FE2C70167
:101DA0000E944B0C853559F00E94F41B6819790983
:101DB0008A099B09623371058105910550F3B12CA5
:101DC000F801EB0DF11DEB0DF11D60816F3F31F05E
:101DD0004181C7010E94750CB394F2CF60E070E0BE
:101DE000C7010E94D80DD701ED91FC911197008495
:101DF000F185E02D18966C91C7010995D701ED91F9
:101E0000FC910488F589E02D61E0C70109950E94E5
:101E1000F41B4B015C0167E2C7010E944B0C87FD7C
:101E20000BC00E94F41B681979098A099B09623367
:101E300071058105910578F30E94F41B68197909F1
:101E40008A099B09623371058105910588F443E095
:101E500050E064E77BE0F70184810E943C1BF09234
:101E60001405E0921305D7011596DC9281E001C0BC
:101E700080E0AE960FB6F894DEBF0FBECDBFDF9107
:101E8000CF911F910F91FF90EF90DF90BF90AF9097
:101E90009F908F900895CF93DF93EC0161110DC057
:101EA00064E2CE010E944B0C90E0919581959109DE
:101EB00095958795DF91CF91089541E063E20E9467
:101EC000750C63E2CE010E944B0C81FFFACFE8CF84
:101ED000CF93DF93EC0180911D058330A9F48091AD
:101EE0001905811111C060E0CE010E944B0F863AA6
:101EF0009F4F54F4E881F9810488F589E02D61E071
:101F0000CE01099581E001C080E0DF91CF91089575
:101F1000FF920F931F93CF93DF93EC0180911D05E8
:101F2000833001F568E2CE010E944B0C82FD28C08F
:101F300019C080911C058D3330F4E0911C05F0E050
:101F4000E25EFA4F1082E881F981028CF38DE02D78
:101F5000CE010995E881F9810488F589E02D63E0D7
:101F6000CE01099560E0CE010E944B0F90931605BB
:101F700080931505DF91CF911F910F91FF900895E8
:101F8000E881F9810488F589E02D61E0CE010995A9
:101F9000E881F981008CF18DE02DCE01099580E07A
:101FA0000E94C60B80E00E94C60B809319058091A9
:101FB00019058334D0F4809119058093190580E0C8
:101FC0000E94C60B80931A058E81811109C09091E1
:101FD0001A058D81981721F080911A058F3F39F4E9
:101FE00080911905833018F017C082E4E6CF109273
:101FF0001905E881F981028CF38DE02DCE01099558
:10200000E881F9810288F389E02DCE01DF91CF913B
:102010001F910F91FF90099480911905835080932F
:102020001C0580E00E94C60B80931B0580E00E9487
:10203000C60B982F907890931705982F90749093D3
:102040001805E881F9810684F785E02D682FCE0117
:102050000995F12C80911C05F81608F06ACF0F2D18
:1020600010E080E00E94C60BF801E25EFA4F808328
:10207000F394F0CF4F925F926F927F929F92AF92C4
:10208000BF92EF920F931F93CF93DF93EC01162F24
:102090005A01922E6DE30E944B0C482F44606DE371
:1020A000CE010E94750C0E94F41B2B013C01CE0155
:1020B0000E94680F8823C1F0E881F9810088F189C6
:1020C000E02DE12C292DA501612FCE010995DF918D
:1020D000CF911F910F91EF90BF90AF909F907F9005
:1020E0006F905F904F9008950E94F41B64197509DA
:1020F00086099709683E734081059105E8F6E881F5
:10210000F9810480F581E02DCE010995D0CF4F9261
:102110005F926F927F929F92AF92BF92CF92DF9227
:10212000EF92FF920F93CF93DF93EC015B01942E1C
:1021300010921805F0901B05C0901505D09016055B
:102140006DE30E944B0C482F44606DE3CE010E946A
:10215000750C0E94F41B2B013C01CE010E94680FFC
:10216000882311F1F0921B05E881F9810088F1893B
:10217000E02DEE24E39400E0292DA5016F2DCE0182
:102180000995D0921605C0921505DF91CF910F9158
:10219000FF90EF90DF90CF90BF90AF909F907F9097
:1021A0006F905F904F9008950E94F41B6419750919
:1021B00086099709683E73408105910598F6E88184
:1021C000F9810480F581E02DCE010995C6CFCF932A
:1021D000DF93EC016887662311F04FE001C04AE10C
:1021E00063E1CE010E94750C8885882341F061E18E
:1021F000CE010E944B0C482F4F71406602C04F81A8
:10220000406861E1CE01DF91CF910C94750C1F9372
:10221000CF93DF93EC01162F662311F04DE501C03B
:1022200045E56AE5CE010E94750C112311F04CE7DB
:1022300001C040E76CE5CE01DF91CF911F910C9476
:10224000750CFC0166830895CF93CFB7F894809105
:102250005E05811127C0E3E8F2E08491EFE6F2E049
:102260009491E82FF0E0EE0FFF1FEF55FD4FA59181
:10227000B4918C91892321F461E08AE00E94171DBA
:1022800061E08AE00E94DE1C8CB580618CBD8CB55B
:1022900080648CBD61E08DE00E94DE1C61E08BE01B
:1022A0000E94DE1C80915E058F5F80935E05CFBF2C
:1022B000CF910895FC0180E5858316826083528367
:1022C00041830895FC018CB583838DB5848335816A
:1022D000268180915D05882399F09FB7F8948091BD
:1022E0005D05813059F48DB380935B054DB38091CA
:1022F0005C05809584238DBB9FBF02C090935B05D6
:102300003CBD2DBD60E080810C94171DCF93DF9301
:10231000EC0161E088810E94171D80915D05882392
:1023200061F09FB7F89420915D0580915B052130A5
:1023300019F48DBB9FBF01C08FBF8B818CBD8C8179
:102340008DBDDF91CF9108951F93CF93DF93EC0163
:102350000E94621185E00E94C60B80E00E94C60BBD
:10236000182FCE010E948611812FDF91CF911F91EE
:1023700008950E94A411817008951F93CF93DF9355
:10238000EC01162F442339F040E066E00E94BD11B5
:10239000CE010E948611CE010E94B9118111FBCF9E
:1023A000CE010E946211812FDF91CF911F910C9479
:1023B000C60BEF92FF920F931F93CF93DF9300D042
:1023C000CDB7DEB77C01142F062F41E062E02A83EF
:1023D00059830E94BD11802F0E94C60B5981852F01
:1023E0000E94C60B812F0E94C60B2A81822F0E9459
:1023F000C60BC7010F900F90DF91CF911F910F91E6
:10240000FF90EF900C9486112F923F924F925F9223
:102410006F927F928F929F92AF92BF92CF92DF92F4
:10242000EF92FF920F931F93CF93DF936C012A01DA
:102430003B015901CA019927C0E0D1E0C81BD90B63
:10244000E12CF12C0115110579F10C171D0708F489
:10245000E80141E062E0C6010E94BD11862D0E94A4
:10246000C60B852D0E94C60B842D0E94C60B15013C
:102470002E0C3F1C4101F40181914F010E94C60BBB
:10248000C401821993098C179D07A8F3C6010E9405
:1024900086114C0E5D1E611C711CEC0EFD1E0C1B8A
:1024A0001D0BC0E0D1E0CECFDF91CF911F910F91F6
:1024B000FF90EF90DF90CF90BF90AF909F908F9064
:1024C0007F906F905F904F903F902F900895EF9284
:1024D000FF920F931F93CF93DF931F92CDB7DEB779
:1024E0007C01142F062F41E062E559830E94BD1143
:1024F000802F0E94C60B5981852F0E94C60B812F09
:102500000E94C60BC7010F90DF91CF911F910F91D1
:10251000FF90EF900C948611FC01DB018EE591E0B9
:102520009183808312968C911297828313968C915B
:102530001397838314968C911497848315968C91AA
:102540001597858316968C911697868317968C918E
:102550001797878318968C911897808719968C9176
:10256000199781871A968C9182870895CF92DF926E
:10257000FF920F931F93CF93DF93CDB7DEB70DB7C5
:102580001EB7262F30E0220F331FA9014F5F5F4F88
:10259000EDB7FEB7E41BF50B0FB6F894FEBF0FBE08
:1025A000EDBF4DB75EB74F5F5F4FDA01F82E6C019C
:1025B0008C2D8F198617C8F4C601F60170817295AB
:1025C0007F7070637A3308F0795D7C93FFEFCF1AE8
:1025D000DF0AFC0180818F7080638A3308F0895D97
:1025E00011968C9311971296E3CFFA01E20FF31F25
:1025F0001082BA0180EC95E00E94CE1F0FB6F894CD
:102600001EBF0FBE0DBFDF91CF911F910F91FF90A5
:10261000DF90CF9008952F923F924F925F926F92EA
:102620007F928F929F92AF92BF92CF92DF92EF9262
:10263000FF920F931F93CF93DF93CDB7DEB76C97C5
:102640000FB6F894DEBF0FBECDBF4C016B8FE98A89
:10265000FA8A0B8B1C8B2D8B3E8B4F8BAA8E46E000
:1026600060E972E00E948710CC2031F06EE971E0E1
:1026700080EC95E00E94CE1F40E050E0BA01CE0110
:1026800041960E94671207E010E020EB31E040E045
:1026900050E0BA01CE0141960E9404122AE349E0BB
:1026A00050E060E070E0CE0141960E94D9110E9496
:1026B000F41B1B012C015AE0E52EF12CA12CB12CAE
:1026C0009E012F5F3F4F398F288FC4010E94A40BBA
:1026D000882301F180911B053B8D83131BC0D09093
:1026E0001C05B3E0BD1520F480911E058634F9F079
:1026F00061E08A8D0E94DE1C61E08A8D0E94171DB8
:1027000061E070E080E090E00E94231C60E08A8D30
:102710000E94171D0E94F41B621973098409950910
:10272000693B7B408105910580F280E022C1809168
:102730001F058C34E9F6809120058835C9F6809113
:1027400021058A3309F0AAC046E04D1508F0A6C05D
:1027500084E090E000E010E0782E2FEF280FFC01DD
:10276000E25EFA4F30813033A0F030813A3388F4A2
:102770002081AAE0A801A49F8001A59F100D11242B
:1027800000531109020F111D01968830910521F7A0
:1027900007C030813A33C1F754E0751631F2722E1A
:1027A000CC20C1F068EB71E080EC95E00E94C11F85
:1027B0004AE050E06D2D80EC95E00E948E2060ECA8
:1027C00071E080EC95E00E94C11F6D2D8EE195E0D7
:1027D0000E94B612E1E0E70DF0E0E25EFA4F808180
:1027E0008A3309F0A2CF0E94F41B1B012C010A15A9
:1027F0001B0539F0C50101970817190709F04EC0EC
:1028000029C032E0370D58018FEFA81AB80A3D15DC
:1028100008F5E32FF0E0E25EFA4F208137019FEFE9
:10282000691A790AA70160E070E0CE0141963C8FF9
:102830000E94D911C3019F773C8D892B41F4A301DC
:1028400060E070E0CE0141960E9467123C8D3F5FD0
:102850007301DDCF1F930F93A5ECB1E0BF93AF934E
:10286000398D3F93488D4F930E947A22482F0F90C5
:102870000F900F900F900F900F90CC2049F0BE0159
:102880006F5F7F4F80EC95E04C8F0E94CE1F4C8D88
:10289000BE016F5F7F4FC4010E94871080912105A8
:1028A0008F3309F025CF54E0D51210C046E060E91F
:1028B00072E0C4010E948710CC2009F419CF6FEC9C
:1028C00071E080EC95E00E94CE1F12CF87E0D81215
:1028D0000FCF80912205853409F00ACF809123051E
:1028E0008F3409F005CF80912405863409F000CF9C
:1028F00087010A5011090130BCE71B0778F0CC2092
:1029000031F06DED71E080EC95E00E94CE1F47E064
:102910006AEF71E0C4010E94871007CF46E060E9CA
:1029200072E0C4010E948710CC2031F060E972E0AF
:1029300080EC95E00E94CE1F212F47E050E060E040
:1029400070E0CE0141960E94D91126EF2E0D48E08D
:1029500050E060E070E0CE0141960E94D9112AE378
:1029600049E050E060E070E0CE0141960E94D9114C
:1029700081E06C960FB6F894DEBF0FBECDBFDF913D
:10298000CF911F910F91FF90EF90DF90CF90BF906C
:10299000AF909F908F907F906F905F904F903F90FF
:1029A0002F900895C82F882331F062ED72E080ECFB
:1029B00095E00E94C11F88E028E130E00FB6F8944E
:1029C000A895209360000FBE80936000CC2331F067
:1029D0006EE280EC95E00E94C31FFACFFFCFAF926A
:1029E000BF92CF92DF92EF92FF920F931F93CF93FC
:1029F000DF93CDB7DEB762970FB6F894DEBF0FBE98
:102A0000CDBF0C871D872E873F87488B598B6A8BDC
:102A1000DE2C20911C05243008F45CC020911E059A
:102A2000263409F057C020911F052C3409F052C0FC
:102A300020912005283509F04DC0209121052F3324
:102A400009F048C0B0901B0520911C052730A1F467
:102A500020912205253481F4209123052F3461F43F
:102A600020912405263441F400E026E040E952E0BC
:102A70006B2D0E943A102EC0BC01CE0101960E941F
:102A80008C12AC2CCD2CEC84FD840E851F852889FE
:102A900039894A896B2DCE0101960E940B13882338
:102AA00059F0DD2031F06CED72E080EC95E00E9491
:102AB000C11F8D2D0E94D214DD2061F06DEF72E0F8
:102AC00080EC95E00E94C11F66E273E080EC95E027
:102AD0000E94CE1F62960FB6F894DEBF0FBECDBF28
:102AE000DF91CF911F910F91FF90EF90DF90CF90EA
:102AF000BF90AF9008958F929F92AF92BF92EF9246
:102B0000FF920F931F93CF93DF93EC0118821982EA
:102B10001A824423B9F1E0E0F0E08B010A5F1F4F15
:102B20007B0189E0E80EF11C842E912CA12CB12CA4
:102B3000D801AE0FBF1F2C91D701AE0FBF1F6C91F4
:102B40002223E1F06623D1F030E040E050E02F5F37
:102B50003F4F4F4F5F4F70E080E090E06F5F7F4FDF
:102B60008F4F9F4F0E94D0219B01AC01C501B40142
:102B70000E94D021DE01AE0FBF1F8C933196E3304F
:102B8000F105B1F6CE01DF91CF911F910F91FF902A
:102B9000EF90BF90AF909F908F900895CF92DF926B
:102BA000EF92FF92CF93DF93EC01809163059091B8
:102BB00064059C012F5F3F4F3093640520936305AC
:102BC000861797079CF10E94F41B9B01AC01E091D2
:102BD0006305F091640588EE93E0E89FB001E99FFA
:102BE000700DF89F700D1124882777FD8095982F20
:102BF000C0905F05D0906005E0906105F09062059F
:102C00002C193D094E095F090E9414223A83298339
:102C100010926405109263050E94F41B60935F0597
:102C2000709360058093610590936205DF91CF9169
:102C3000FF90EF90DF90CF900895AF92BF92CF9228
:102C4000DF92EF92FF920F931F93CF93DF9300D009
:102C50001F92CDB7DEB78C01B62EF8018381948127
:102C6000A581B681892B8A2B8B2BD1F00E94001C69
:102C7000C0906505D0906605E0906705F090680506
:102C80006C197D098E099F09D8011396CD90DD90AE
:102C9000ED90FC9016976C157D058E059F05E8F26A
:102CA0000E94001C6093650570936605809367051C
:102CB00090936805E0906B05F0906C05E114F104C9
:102CC00051F1F701A484D80111968D919C9112972E
:102CD0008436910508F41486D701ED91FC91C280E9
:102CE000D3804B2DB701CE0101960E947B15F701D1
:102CF00045855685628173819E012F5F3F4FC701D5
:102D0000F6010995D7011C96AC921C971496ED908C
:102D1000FC901597D3CF69E170E0C8010E94CE15F1
:102D20000F900F900F90DF91CF911F910F91FF9017
:102D3000EF90DF90CF90BF90AF900895CF92DF9249
:102D4000EF92FF920F931F93CF93DF93EC014423F5
:102D5000F1F06115710581F19B0140E050E060E404
:102D600072E48FE090E00E943622CB80DC80ED8020
:102D7000FE8089019A010C151D052E053F0510F4F2
:102D8000970186010B831C832D833E8315C061153B
:102D9000710571F09B0140E050E060E472E48FE067
:102DA00090E00E9436222B833C834D835E8304C0D7
:102DB0001B821C821D821E82DF91CF911F910F9179
:102DC000FF90EF90DF90CF900895CF92DF92EF9237
:102DD000FF920F931F93CF93DF93EC016B018A0156
:102DE0007901121613061CF07A0100E010E0E88168
:102DF000F9810480F581E02DCE010995C801880F85
:102E0000991F800F911F8C0D9D1D9B838A83FE86C9
:102E1000ED86E881F9810084F185E02DCE010995E8
:102E200041E0BC018DE695E00E949E16CE01DF9147
:102E3000CF911F910F91FF90EF90DF90CF90089569
:102E40008FEF80936D0510926F0510926E050895B7
:102E500011240895CF93DF93EC012881269F212D23
:102E600028832981269F212D29832A81269F212D90
:102E70002A830E942817CE01DF91CF910895FA018D
:102E800020E030E00396261737076CF44081DC0120
:102E900013974C93418111964C93428111964C9318
:102EA0002F5F3F4FEFCF0895CF92DF92EF92FF92C7
:102EB0000F931F93CF93DF931F92CDB7DEB77B01A4
:102EC0008C01C12CD12CCE14DF0461F0642FC80119
:102ED00049830E942A178FEFC81AD80A0D5F1F4F27
:102EE0004981F1CF0F90DF91CF911F910F91FF900A
:102EF000EF90DF90CF90089540950C945417FC010B
:102F00002081222321F0269F212D09F02F5FFC0133
:102F100020830895FF920F931F93CF93DF9300D0E8
:102F200000D0CDB7DEB7FC018B014081F18052812A
:102F3000842F8F71880F880F880F282F35E5239FE6
:102F4000212D1124342F3074942F907247FD25C009
:102F500031110EC0911106C0822F80958B832A8378
:102F600019823FC08BEA8B832B5A2A83198239C07E
:102F700091110DC0382F4AEA349F312D11249BEA5C
:102F8000931B9B8325552A83198280E02AC01B82CC
:102F900080E0822F80958A8312C0311112C0911176
:102FA0000BC01B82282F3AEA239F212D11248BEA84
:102FB000821B8A832B5A03C02B831A822095298374
:102FC00010C0911106C085E5820F8B831A828BEAAF
:102FD00006C08BEA820F8B831A8280E085E5821B14
:102FE00089832FEFF21601F16F2DCE0103965C83DA
:102FF0000E947F176F2DCE0102960E947F176F2DC2
:10300000CE0101960E947F1711246F2D6095669F57
:10301000612D11248B81860F8B838A81860F8A8391
:103020008981860F89835C815F3FC9F0F12C2F2D48
:10303000552321F0559F212D09F02F5FF22E622F8D
:10304000CE0103960E947F176F2DCE0102960E943B
:103050007F176F2DCE0101960E947F1711248B815F
:10306000F80180838A818183898182830F900F9008
:103070000F900F90DF91CF911F910F91FF900895C6
:10308000FC01118210827383628315821482089579
:10309000DC01ED91FC91309709F009940895DC0171
:1030A0001296ED91FC911397309709F009940895C9
:1030B000DC011496ED91FC911597309709F0099475
:1030C0000895FC0181E0808374836383728361834C
:1030D00015821682178210860895CF93DF93EC0134
:1030E0007C836B830E94F41B6D837E838F83988720
:1030F000CE01DF91CF9108950F931F93CF93DF936C
:10310000EC018B0189819A810E9458181C830B83E2
:103110001A830983C8010E9448180E94F41B6D831A
:103120007E838F839887CE01DF91CF911F910F917E
:103130000895CF93DF93EC01288189819A8122231E
:1031400021F00E94481818820CC06B817C81861780
:10315000970719F0CE010E947C1889819A810E94FC
:103160004F18CE01DF91CF910895EF92FF920F9308
:103170001F93CF93DF931F92CDB7DEB77C01FC0185
:1031800000811181C80169830E946E2469816817DA
:1031900019F0C8010E947624C7010F90DF91CF91EA
:1031A0001F910F91FF90EF9008958F929F92AF9291
:1031B000BF92CF92EF920F931F93CF93DF93CDB730
:1031C000DEB72B970FB6F894DEBF0FBECDBF5C0104
:1031D0004C0181E1880E911CC4010E94A40B88233C
:1031E00009F4AFC080911B058E3F39F490911A0508
:1031F000F5018081981709F464C080911C05843022
:1032000019F580911E0590911F05A0912005B091A0
:103210002105F50184839583A683B78380911A05E0
:10322000838390911B0592839081891381C0C4018F
:103230000E94400C882309F47BC040E06DE373E0FA
:10324000C4010E94871074C080911C058230F9F47B
:1032500080911E0590911F05F501918780878091CF
:103260001A05838390911B0592839081891305C071
:10327000C4010E94400C81115DC0F50180859185DB
:10328000039709F055C081E00E94D21451C080918B
:103290001B058E3F09F055C080911C058F3108F445
:1032A00050C06AE371E080EC95E00E949E1F80ECC4
:1032B00095E00E94CA1F82E090E0F5019187808727
:1032C00040C067E571E080EC95E00E949E1F80ECB5
:1032D00095E00E94CA1F8EE591E09A838983F501EB
:1032E00083898B8384898C8385898D8386898E836A
:1032F00087898F83808D8887818D8987828D8A8752
:10330000838D8B8789E0C82EE12C00919005109168
:10331000910520919205309193054091940550912B
:10332000950560919605CE0101960E94EF1465CF38
:1033300081E008C040E06DE373E0C4010E948710A3
:103340009CCF80E02B960FB6F894DEBF0FBECDBFAA
:10335000DF91CF911F910F91EF90CF90BF90AF90E1
:103360009F908F900895CF92DF92EF92FF92CF932C
:10337000DF93EC0160E371E080EC95E00E949E1F1A
:10338000FB804AE050E06A8180EC95E00E948E204C
:103390006DE271E080EC95E00E949E1F4AE050E0F3
:1033A0006F2D80EC95E00E948E20F88869E271E034
:1033B00080EC95E00E949E1F4AE050E06F2D80EC6B
:1033C00095E00E948E20CC80DD80EE80FF8063E25D
:1033D00071E080EC95E00E949E1F22E030E0B70192
:1033E000A60180EC95E00E942F200884D985C02D8D
:1033F0006BE171E080EC95E00E949E1F4AE050E096
:10340000BE0180EC95E00E94792080EC95E0DF9190
:10341000CF91FF90EF90DF90CF900C94CA1F0F9345
:103420001F93FC014481558166817781842F8370CD
:10343000808B8A019B0192E0369527951795079519
:103440009A95D1F71370138702878A019B01ACE02C
:103450003695279517950795AA95D1F71370158777
:103460000487B6E17695679557954795BA95D1F754
:10347000578746871F910F91089540E35FEE68E0FC
:1034800080E995E00E945A118EE591E090938605BF
:10349000809385058AE08093870582E08093880584
:1034A0001092890581E080931D0510928B058FE1B4
:1034B00080938C0510928D0508959F92AF92BF92D4
:1034C000CF92DF92EF92FF920F931F93CF93DF93F0
:1034D00000D0CDB7DEB77C01162F942EA22E3AE293
:1034E000C32ED12C6FE372E080EC95E00E949E1F0A
:1034F00080EC95E00E94CA1F1F3FC9F48AE290E069
:103500000E946E24B82EF70180836DE172E080EC9A
:1035100095E00E949E1F4AE050E06B2D80EC95E004
:103520000E948E2080EC95E00E94CA1F1AC069EFAD
:1035300071E080EC95E00E949E1F4AE050E0612F10
:1035400080EC95E00E948E2080EC95E00E94CA1FDE
:10355000DA82C982612FCE0101960E94B518F70167
:103560001083F70140814F3F41F56FEC71E080EC33
:1035700095E00E949E1F80EC95E00E94CA1F6AEAB7
:1035800071E080EC95E00E949E1F80EC95E00E9427
:10359000CA1F80EC95E00E94761D892BD1F341E093
:1035A00060E070E080EC95E00E940621DA82C9823A
:1035B000CE0101960E94B51895CF6701F1E1CF0EBB
:1035C000D11C292D6A2DC6010E941D0E61E0C60185
:1035D0000E94E71061E0C6010E942111602FC60120
:1035E0000E940C0D84EF91E0F701978786879587FD
:1035F00084879387828780816AE00E94E02191839B
:1036000061E089E00E94DE1C60E089E00E94171DF5
:1036100081E090E0F701918780871181008167E761
:1036200071E080EC95E00E949E1F4AE050E0602F20
:1036300080EC95E00E948E2060EA71E080EC95E0DD
:103640000E949E1F4AE050E0612F80EC95E00E94AE
:103650008E2080EC95E00E94CA1F0F900F90DF91A2
:10366000CF911F910F91FF90EF90DF90CF90BF907F
:10367000AF909F90089508958230E8F4E82FF0E02D
:10368000EE0FFF1FE45FFE4F71836083813041F0D6
:10369000809169008C7F842B80936900E89A08955B
:1036A00080916900440F551F440F551F837F842B61
:1036B00080936900E99A08951F920F920FB60F92B6
:1036C00011242F933F934F935F936F937F938F9327
:1036D0009F93AF93BF93EF93FF93E0910C01F09111
:1036E0000D010995FF91EF91BF91AF919F918F913E
:1036F0007F916F915F914F913F912F910F900FBEEE
:103700000F901F9018951F920F920FB60F921124D1
:103710002F933F934F935F936F937F938F939F93D9
:10372000AF93BF93EF93FF93E0910E01F0910F01E0
:103730000995FF91EF91BF91AF919F918F917F91EB
:103740006F915F914F913F912F910F900FBE0F900E
:103750001F9018951F920F920FB60F9211242F935E
:103760003F938F939F93AF93BF938091B8059091B0
:10377000B905A091BA05B091BB053091B70523E01A
:10378000230F2D3720F40196A11DB11D05C026E899
:10379000230F0296A11DB11D2093B7058093B80594
:1037A0009093B905A093BA05B093BB058091BC0571
:1037B0009091BD05A091BE05B091BF050196A11DD8
:1037C000B11D8093BC059093BD05A093BE05B09339
:1037D000BF05BF91AF919F918F913F912F910F9016
:1037E0000FBE0F901F9018952FB7F8946091B805F1
:1037F0007091B9058091BA059091BB052FBF0895CE
:103800003FB7F8948091BC059091BD05A091BE058D
:10381000B091BF0526B5A89B05C02F3F19F00196B2
:10382000A11DB11D3FBF6627782F892F9A2F620FE8
:10383000711D811D911D42E0660F771F881F991F22
:103840004A95D1F708958F929F92AF92BF92CF92EF
:10385000DF92EF92FF926B017C010E94001C4B01F2
:103860005C01C114D104E104F104F1F00E94CF2104
:103870000E94001C681979098A099B09683E7340F7
:103880008105910570F321E0C21AD108E108F10821
:1038900088EE880E83E0981EA11CB11CC114D104CF
:1038A000E104F10429F7DDCFFF90EF90DF90CF9096
:1038B000BF90AF909F908F900895789484B5826068
:1038C00084BD84B5816084BD85B5826085BD85B5C4
:1038D000816085BDEEE6F0E0808181608083E1E873
:1038E000F0E01082808182608083808181608083AB
:1038F000E0E8F0E0808181608083E1EBF0E08081AE
:1039000084608083E0EBF0E0808181608083EAE77F
:10391000F0E0808184608083808182608083808108
:10392000816080838081806880831092C1000895C7
:103930008E3008F08E5087702091100190E4299FFE
:1039400090011124822B80937C0080917A00806406
:1039500080937A0080917A0086FDFCCF8091780078
:103960002091790090E0922B0895833081F028F423
:10397000813099F08230A1F008958730A9F0883025
:10398000B9F08430D1F4809180008F7D03C08091A4
:1039900080008F7780938000089584B58F7702C070
:1039A00084B58F7D84BD08958091B0008F7703C06A
:1039B0008091B0008F7D8093B0000895CF93DF9306
:1039C00090E0FC01EB59FD4F2491FC01E758FD4FBD
:1039D0008491882349F190E0880F991FFC01EF55ED
:1039E000FD4FA591B49189569D4FFC01C591D4918D
:1039F0009FB7611108C0F8948C91209582238C9315
:103A0000888182230AC0623051F4F8948C91322F5D
:103A1000309583238C938881822B888304C0F8940B
:103A20008C91822B8C939FBFDF91CF9108950F9340
:103A30001F93CF93DF931F92CDB7DEB7282F30E0CF
:103A4000F901EF5AFD4F8491F901EB59FD4F1491A3
:103A5000F901E758FD4F04910023C9F0882321F0B4
:103A600069830E94B51C6981E02FF0E0EE0FFF1F13
:103A7000E956FD4FA591B4919FB7F8948C916111CF
:103A800003C01095812301C0812B8C939FBF0F90A1
:103A9000DF91CF911F910F910895CF93DF93282F3E
:103AA00030E0F901EF5AFD4F8491F901EB59FD4FD8
:103AB000D491F901E758FD4FC491CC2391F08111C5
:103AC0000E94B51CEC2FF0E0EE0FFF1FE357FD4FF7
:103AD000A591B4912C912D2381E090E021F480E018
:103AE00002C080E090E0DF91CF910895FC01818DCC
:103AF000228D90E0805C9F4F821B91098F739927E4
:103B00000895FC01918D828D981731F0828DE80F18
:103B1000F11D858D90E008958FEF9FEF0895FC01D2
:103B2000918D828D981761F0828DDF01A80FB11DF4
:103B30005D968C91928D9F5F9F73928F90E0089518
:103B40008FEF9FEF089583E19FE1892B49F080E09B
:103B500090E0892B29F00E94131F81110C94000022
:103B60000895FC01848DDF01A80FB11DA35ABF4F3A
:103B70002C91848D90E001968F739927848FA6896C
:103B8000B7892C93A089B1898C9180648C93938D93
:103B9000848D981306C00288F389E02D80818F7D83
:103BA00080830895CF93DF93EC01888D8823C9F03B
:103BB000EA89FB89808185FD05C0A889B9898C9136
:103BC00086FD0FC00FB607FCF5CF808185FFF2CFD1
:103BD000A889B9898C9185FFEDCFCE010E94B11DD6
:103BE000E7CFDF91CF910895CF92DF92FF920F93AD
:103BF0001F93CF93DF931F92CDB7DEB76C0181E0A7
:103C0000D60158968C9358975B969C915B975C96DF
:103C10008C915C97981307C05096ED91FC91519749
:103C2000808185FD2EC0F601038D10E00F5F1F4FD0
:103C30000F731127F02EF601848DF81211C00FB604
:103C400007FCF9CFD6015096ED91FC9151978081F8
:103C500085FFF1CFC60169830E94B11D6981EBCF59
:103C6000838DE80FF11DE35AFF4F6083D6015B9609
:103C70000C935B975296ED91FC91539780818062F3
:103C80000CC0D6015696ED91FC91579760835096E3
:103C9000ED91FC91519780818064808381E090E078
:103CA0000F90DF91CF911F910F91FF90DF90CF90F8
:103CB0000895BF92CF92DF92EF92FF92CF93DF935E
:103CC000EC016A017B01B22EE889F98982E08083E8
:103CD000411581EE580761057105A1F060E079E0BA
:103CE0008DE390E0A70196010E9414222150310932
:103CF000410951095695479537952795211580E13A
:103D0000380798F0E889F989108260E874E88EE154
:103D100090E0A70196010E94142221503109410927
:103D200051095695479537952795EC85FD85308344
:103D3000EE85FF852083188EEC89FD89B082EA89A3
:103D4000FB89808180618083EA89FB89808188602A
:103D50008083EA89FB89808180688083EA89FB8986
:103D600080818F7D8083DF91CF91FF90EF90DF90F6
:103D7000CF90BF9008951F920F920FB60F9211240B
:103D80002F938F939F93EF93FF93E091D005F09142
:103D9000D1058081E091D605F091D70582FD12C052
:103DA00090818091D9058F5F8F732091DA058217FA
:103DB00051F0E091D905F0E0E054FA4F958F8093EF
:103DC000D90501C08081FF91EF919F918F912F9133
:103DD0000F900FBE0F901F9018951F920F920FB665
:103DE0000F9211242F933F934F935F936F937F9381
:103DF0008F939F93AF93BF93EF93FF9380EC95E0E6
:103E00000E94B11DFF91EF91BF91AF919F918F9152
:103E10007F916F915F914F913F912F910F900FBEC6
:103E20000F901F90189580EC95E00E94761D21E080
:103E3000892B09F420E0822F08951092C305109277
:103E4000C20588EE93E0A0E0B0E08093C4059093B3
:103E5000C505A093C605B093C7058FE293E0909384
:103E6000C1058093C00585EC90E09093CD058093CB
:103E7000CC0584EC90E09093CF058093CE0580EC48
:103E800090E09093D1058093D00581EC90E09093E1
:103E9000D3058093D20582EC90E09093D505809372
:103EA000D40586EC90E09093D7058093D6051092C8
:103EB000D9051092DA051092DB051092DC05089501
:103EC000CF92DF92EF92FF920F931F93CF93DF93E6
:103ED0007C016A01EB0100E010E00C151D0571F09A
:103EE0006991D701ED91FC910190F081E02DC7011E
:103EF0000995892B19F00F5F1F4FEFCFC801DF9194
:103F0000CF911F910F91FF90EF90DF90CF90089588
:103F10006115710581F0DB010D900020E9F7AD011D
:103F200041505109461B570BDC01ED91FC91028079
:103F3000F381E02D099480E090E00895EF92FF92E4
:103F40000F931F93CF93DF938C017B01C0E0D0E0F0
:103F5000F701EC0FFD1F6491662359F0F801A08171
:103F6000B181ED91FC91C8010995892B11F0219641
:103F7000EFCFCE01DF91CF911F910F91FF90EF9086
:103F800008950C94881FDC01ED91FC910190F08163
:103F9000E02D09946BE373E00C94881F0F931F933B
:103FA000CF93DF93EC010E94881F8C01CE010E9409
:103FB000CA1F800F911FDF91CF911F910F9108951C
:103FC0008F929F92AF92BF92DF92EF92FF920F93E8
:103FD0001F93CF93DF93CDB7DEB7A1970FB6F894B9
:103FE000DEBF0FBECDBF7C01F42FD52ECB0119A2B1
:103FF000223008F42AE08E010F5D1F4F822E912C93
:10400000A12CB12C6F2F7D2DA50194010E941422AB
:10401000F22FD32ECA01015011096A3014F4E0E3E3
:1040200001C0E7E3E60FD801EC93232B242B252BCB
:1040300049F7B801C7010E94881FA1960FB6F894EE
:10404000DEBF0FBECDBFDF91CF911F910F91FF90CB
:10405000EF90DF90BF90AF909F908F900895CF9298
:10406000DF92EF92FF920F931F93CF93DF93EC01B8
:104070006A017B012115310579F4E881F98101900C
:10408000F081E02D642FDF91CF911F910F91FF9070
:10409000EF90DF90CF9009942A303105E9F477FF53
:1040A0001AC06DE20E94C31F8C0144275527BA0134
:1040B0004C195D096E097F092AE0CE010E94E01FBC
:1040C000800F911FDF91CF911F910F91FF90EF9083
:1040D000DF90CF9008952AE0B701A601CE01DF91CD
:1040E000CF911F910F91FF90EF90DF90CF900C94A4
:1040F000E01F9A01AB01662757FD6095762F0C945F
:104100002F202115310541F4DC01ED91FC91019046
:10411000F081E02D642F09940C94E01F9A01462F42
:1041200050E060E070E00C9481200F931F93CF93D8
:10413000DF93EC010E94F41B688779878A879B874D
:10414000E881F9810084F185E02DCE01099597FF82
:1041500015C00E94F41B088519852A853B85601BC4
:10416000710B820B930B0C811D812E813F81601797
:1041700071078207930720F38FEF9FEFDF91CF91B5
:104180001F910F910895FF920F931F93CF93DF9389
:10419000EC018B01F42ECE010E9495209C0197FD2D
:1041A00028C08D32910519F1C0970A9710F1FF20B0
:1041B00019F02E323105F9F001301105F9F0023015
:1041C000110569F42D30310551F034F429503109CD
:1041D0002230310520F012C02032310579F4E88117
:1041E000F9810680F781E02DCE010995D4CF8DE2CB
:1041F00003C0C90105C08EE290E002C08FEF9FEFBF
:10420000DF91CF911F910F91FF900895CF92DF9290
:10421000FF920F931F93CF93DF9300D000D0CDB7C1
:10422000DEB76C01042F40E00E94C320FC0197FD23
:104230004BC020E030E0A901F12C112707FD1095BB
:10424000E017F107E9F0ED32F105C1F0CF01C097B9
:104250000A97B0F4AAE0B0E00E9464229B01AC018E
:10426000CF01AA2797FDA095BA2F280F391F4A1F03
:104270005B1F205331094109510902C0FF24F39407
:10428000D601ED91FC910680F781E02DC6012983CE
:104290003A834B835C830995C6010E949520FC01FB
:1042A000C09729813A814B815C810A9748F2E017D7
:1042B000F10731F2FF2061F066277727CB01621BFF
:1042C000730B840B950B06C060E070E0CB0102C05D
:1042D000CA01B9010F900F900F900F90DF91CF910D
:1042E0001F910F91FF90DF90CF9008954F925F92B2
:1042F0006F927F92AF92BF92CF92DF92EF92FF9236
:104300000F931F93CF93DF93CDB7DEB729013A0107
:10431000621B730B840B950B29893A894B895C8945
:104320002A193B094C095D09298B3A8B4B8B5C8B15
:104330009B01AC0169897A898B899C890E94D02173
:10434000E418F50806091709A80197010E9436220A
:104350002A0D3B1D4C1D5D1DCA01B901DF91CF9196
:104360001F910F91FF90EF90DF90CF90BF90AF9093
:104370007F906F905F904F9008950E9475220895EE
:104380000E945D1C0E94BF210E94B909C3EADDE1C1
:104390000E94C10A2097E1F30E94A31DF9CF08955E
:1043A000DB018F939F930E946422BF91AF91A29FE4
:1043B000800D911DA39F900DB29F900D1124089523
:1043C000991B79E004C0991F961708F0961B881F67
:1043D0007A95C9F780950895AA1BBB1B51E107C0C8
:1043E000AA1FBB1FA617B70710F0A61BB70B881F85
:1043F000991F5A95A9F780959095BC01CD01089514
:1044000097FB072E16F4009407D077FD09D00E9481
:10441000EC2107FC05D03EF4909581959F4F0895BF
:10442000709561957F4F0895A1E21A2EAA1BBB1BC0
:10443000FD010DC0AA1FBB1FEE1FFF1FA217B30770
:10444000E407F50720F0A21BB30BE40BF50B661F86
:10445000771F881F991F1A9469F76095709580954A
:1044600090959B01AC01BD01CF010895052E97FBEE
:104470001EF400940E944D2257FD07D00E94142282
:1044800007FC03D04EF40C944D2250954095309586
:1044900021953F4F4F4F5F4F0895909580957095B0
:1044A00061957F4F8F4F9F4F0895A29FB001B39F9B
:1044B000C001A39F700D811D1124911DB29F700D2D
:1044C000811D1124911D08950E945522A59F900DD4
:1044D000B49F900DA49F800D911D11240895EE0F9F
:1044E000FF1F0590F491E02D099481E090E0F8948D
:1044F0000C946125AEE0B0E0E0E8F2E20C943825DF
:104500000D891E8986E08C831A8309838FEF9FE7CC
:104510009E838D83AE01475E5F4F6F89788DCE019C
:1045200001960E949C22EF81F885E00FF11F108216
:104530002E96E4E00C945425ACE0B0E0E2EAF2E21E
:104540000C942A257C016B018A01FC0117821682DA
:10455000838181FFBDC1CE0101964C01F70193819A
:10456000F60193FD859193FF81916F01882309F4F2
:10457000ABC1853239F493FD859193FF81916F0131
:10458000853229F4B70190E00E949A24E7CF512C9C
:10459000312C20E02032A0F48B3269F030F48032EC
:1045A00059F0833269F420612CC08D3239F08033A8
:1045B00039F4216026C02260246023C0286021C015
:1045C00027FD27C030ED380F3A3078F426FF06C0BB
:1045D000FAE05F9E300D1124532E13C08AE0389EFE
:1045E000300D1124332E20620CC08E3221F426FDB2
:1045F0006BC1206406C08C3611F4206802C0883676
:1046000041F4F60193FD859193FF81916F01811132
:10461000C1CF982F9F7D9554933028F40C5F1F4F86
:10462000FFE3F9830DC0833631F0833771F08335B2
:1046300009F05BC022C0F801808189830E5F1F4FA3
:1046400044244394512C540115C03801F2E06F0EFC
:10465000711CF801A080B18026FF03C0652D70E0B9
:1046600002C06FEF7FEFC5012C870E948F242C01C1
:1046700083012C852F77222E17C03801F2E06F0EB0
:10468000711CF801A080B18026FF03C0652D70E089
:1046900002C06FEF7FEFC5012C870E9484242C019C
:1046A0002C852068222E830123FC1BC0832D90E0E3
:1046B00048165906B0F4B70180E290E00E949A24AF
:1046C0003A94F4CFF50127FC859127FE81915F0193
:1046D000B70190E00E949A2431103A94F1E04F1A09
:1046E00051084114510471F7E5C0843611F0893640
:1046F00039F5F80127FF07C06081718182819381BC
:104700000C5F1F4F08C060817181882777FD8095FD
:10471000982F0E5F1F4F2F76B22E97FF09C09095EE
:104720008095709561957F4F8F4F9F4F2068B22E77
:104730002AE030E0A4010E94CC24A82EA81844C08E
:10474000853729F42F7EB22E2AE030E025C0F22FE3
:10475000F97FBF2E8F36C1F018F4883579F0B4C0D8
:10476000803719F0883721F0AFC02F2F2061B22E8B
:10477000B4FE0DC08B2D8460B82E09C024FF0AC082
:104780009F2F9660B92E06C028E030E005C020E1DA
:1047900030E002C020E132E0F801B7FE07C06081DE
:1047A0007181828193810C5F1F4F06C0608171818E
:1047B00080E090E00E5F1F4FA4010E94CC24A82E41
:1047C000A818FB2DFF77BF2EB6FE0BC02B2D2E7F1A
:1047D000A51450F4B4FE0AC0B2FC08C02B2D2E7EE6
:1047E00005C07A2C2B2D03C07A2C01C0752C24FF18
:1047F0000DC0FE01EA0DF11D8081803311F4297E88
:1048000009C022FF06C07394739404C0822F867877
:1048100009F0739423FD13C020FF06C05A2C7314B3
:1048200018F4530C5718732C731468F4B70180E212
:1048300090E02C870E949A2473942C85F5CF7314F2
:1048400010F4371801C0312C24FF12C0B70180E3E7
:1048500090E02C870E949A242C8522FF17C021FF0C
:1048600003C088E590E002C088E790E0B7010CC083
:10487000822F867859F021FD02C080E201C08BE2D0
:1048800027FD8DE2B70190E00E949A24A51438F428
:10489000B70180E390E00E949A245A94F7CFAA943B
:1048A000F401EA0DF11D8081B70190E00E949A2485
:1048B000A110F5CF332009F451CEB70180E290E08A
:1048C0000E949A243A94F6CFF7018681978102C01C
:1048D0008FEF9FEF2C96E2E10C944625F999FECFDD
:1048E00092BD81BDF89A992780B50895262FF99930
:1048F000FECF1FBA92BD81BD20BD0FB6F894FA9AC3
:10490000F99A0FBE01960895FC0105906150704020
:104910000110D8F7809590958E0F9F1F0895FC0188
:104920006150704001900110D8F7809590958E0FDE
:104930009F1F08950F931F93CF93DF93182F092F75
:10494000EB018B8181FD03C08FEF9FEF20C082FFC1
:1049500010C04E815F812C813D81421753077CF44A
:10496000E881F9819F012F5F3F4F398328831083AE
:1049700006C0E885F985812F0995892B29F72E81B5
:104980003F812F5F3F4F3F832E83812F902FDF91F9
:10499000CF911F910F910895FA01AA27283051F164
:1049A000203181F1E8946F936E7F6E5F7F4F8F4F60
:1049B0009F4FAF4FB1E03ED0B4E03CD0670F781FBF
:1049C000891F9A1FA11D680F791F8A1F911DA11DA4
:1049D0006A0F711D811D911DA11D20D009F46894DD
:1049E0003F912AE0269F11243019305D3193DEF685
:1049F000CF010895462F4770405D4193B3E00FD03B
:104A0000C9F7F6CF462F4F70405D4A3318F0495D25
:104A100031FD4052419302D0A9F7EACFB4E0A69508
:104A20009795879577956795BA95C9F7009761052A
:104A3000710508959B01AC010A2E06945795479580
:104A400037952795BA95C9F7620F731F841F951F75
:104A5000A01D08952F923F924F925F926F927F9286
:104A60008F929F92AF92BF92CF92DF92EF92FF927E
:104A70000F931F93CF93DF93CDB7DEB7CA1BDB0B2A
:104A80000FB6F894DEBF0FBECDBF09942A883988CF
:104A900048885F846E847D848C849B84AA84B984D6
:104AA000C884DF80EE80FD800C811B81AA81B981E2
:104AB000CE0FD11D0FB6F894DEBF0FBECDBFED01F6
:064AC0000895F894FFCFF9
:104AC60000005D0680000100000039053B1B3B1B12
:104AD6000100003100F9183000FB302C001C47267D
:104AE60000825A1F006D6A170041760E00897D0408
:104AF60000000000BD21BD21BD21BD2184010000B3
:104B06000000FB06DA08EA05AB018401000000009C
:104B160096073108CB0587018401000000003A1092
:104B2600ED0BA40B8710E7100C0D880F730B260DE9
:104B3600A70D9D0C07118E0B7F0B464C583F454F1A
:104B46004600464C583F0048616E647368616B6569
:104B5600206661696C00464C583A25753A00464C09
:104B6600583F4F4B202841434B2073656E742900F4
:104B7600464C58494D473A00726164696F205B00A4
:104B86005D203E2000464C583A25753A4F4B00466C
:104B96004C583F4F4B20726573656E6400494D4714
:104BA60020657863656564732033316B2C207265EC
:104BB600667573696E6720697400464C583F4E4FA0
:104BC6004B0052465458203E2000524641434B204B
:104BD6003E200054696D656F75742077616974694C
:104BE6006E6720666F72207061636B657420414347
:104BF6004B2C2061626F7274696E6720464C41537C
:104C060048206F7065726174696F6E202E2E2E00BB
:104C1600464C583A494E560054696D656F75742076
:104C2600726563656976696E6720464C4153482014
:104C3600696D6167652066726F6D20534552494103
:104C46004C2C2061626F7274696E672E2E2E000ADC
:104C5600464C583F4F4B00464C41534820494D4720
:104C6600205452414E534D495353494F4E205355AC
:104C7600434345535300464C41534820494D472032
:104C86005452414E534D495353494F4E2046414984
:104C96004C005245424F4F54494E4700464C4153F3
:104CA6004820494D47205452414E534D495353498C
:104CB6004F4E2053554343455353210A0054696DC3
:104CC600656F75742F4572726F722C2065726173F1
:104CD600696E67207772697474656E2064617461A9
:104CE600202E2E2E2000444F4E450000000000F4DA
:104CF6001D601F761D8F1D811DD21D0D0A006E6160
:0A4D06006E00696E66006F766600AD
:00000001FF
