:100000000C94AE010C9425130C944C130C94D60153
:100010000C94D6010C94D6010C94D6010C94D60104
:100020000C94D6010C94D6010C94D6010C94D601F4
:100030000C94D6010C94D6010C94D6010C94D601E4
:100040000C9473130C94D6010C9493160C94C5164F
:100050000C94D6010C94D6010C94D6010C94D601C4
:100060000C94D6010C94D6013D3D3D0073656E6441
:1000700054696D6520287573293D0073656E736F33
:100080007254696D6520287573293D006F74686529
:100090007254696D6520287573293D003D3D3D20F2
:1000A00054696D6572733A0054583A200041434BCD
:1000B000642E0053656E64696E672E2E2E00456EA9
:1000C000636F64652044697374616E6365733A0994
:1000D00000090009005570646174652044697374F7
:1000E000616E6365733A0900090009004465636F36
:1000F00064652044697374616E6365733A0900092D
:1001000000090052583A2000426F6F747374726194
:100110007020726573706F6E736962696C6974794F
:100120003F2000537461727475702E20206D794EDB
:100130006F646549443D00097265637646726F6D70
:100140003D0009207472616E73546F3D0009737431
:100150006174653D00096D73673D0009733D002DB5
:100160003E004E6574776F726B2E20004E6574777B
:100170006F726B2E2050726F6772616D6D657220A9
:10018000747261666669632E004E6574776F726B78
:100190002E20526570726F6772616D6D696E672097
:1001A0006D6573736167653F004E6574776F726B41
:1001B0002E207374617274757020636F6D706C653E
:1001C00074652077697468206D794E6F6465494461
:1001D0003D00206D79496E6465783D00456E74651B
:1001E0007220746865206E6F6465206E756D62653F
:1001F0007220666F722074686973206E6F64653A4E
:10020000004E6574776F726B2E204552524F52200C
:100210006E6F206E6F6465494420666F756E642052
:10022000696E20454550524F4D21004E6574776FE1
:10023000726B2E202077726974696E67206E6F640E
:1002400065494420746F20454550524F4D3D004E46
:100250006574776F726B2E2072656164206E6F64B7
:100260006549442066726F6D20454550524F4D3DA3
:10027000004E6574776F726B2E20737461727475A3
:10028000702E004C6F636174696F6E2E2020636165
:100290006C696272617465642072616E6765206664
:1002A000696E6465722E004C6F636174696F6E2EA7
:1002B000202063616C6962726174696E672072618B
:1002C0006E67652066696E6465722E2E2E00446925
:1002D0007374616E63652E2073746172747570201F
:1002E000636F6D706C6574652E0044697374616E24
:1002F00063652E20737461727475702E00000000A7
:1003000008000201000003040700000000000000D4
:10031000000102040810204080010204081020019E
:100320000204081020040404040404040402020269
:10033000020202030303030303000000002300265C
:1003400000290000000000250028002B000000000C
:1003500000240027002A00005B11F51611241FBE9F
:10036000CFEFD8E0DEBFCDBF12E0A0E0B1E0E8E320
:10037000F9E302C005900D92AA3FB107D9F724E036
:10038000AAEFB2E001C01D92AC32B207E1F713E070
:10039000CCE5D3E004C02297FE010E94A019C83525
:1003A000D107C9F70E9455190C949A1C0C940000AF
:1003B000CF92DF92EF92FF920F931F93E82FF92FC6
:1003C00005C0015011092109310961F1908196237D
:1003D0009417B9F305C0015011092109310911F130
:1003E000908196239413F7CFC12CD12CE12CF12CC2
:1003F0000AC08FEFC81AD80AE80AF80A0C151D05BA
:100400002E053F0579F080818623841791F36C2DAA
:100410007D2D8E2D9F2D1F910F91FF90EF90DF90DE
:10042000CF90089560E070E080E090E01F910F9120
:10043000FF90EF90DF90CF900895FF920F931F935E
:10044000CF93DF93CDB7DEB728970FB6F894DEBF12
:100450000FBECDBF26E040E052EC61E070E08FE8D7
:1004600093E00E9431160FE12BE54DE96FEF82E634
:1004700093E00E947B116091620382E693E00E9408
:10048000760F809315036091620382E693E00E94E9
:10049000820F182F8093140300911503F0906203CC
:1004A00063E271E08FE893E00E9476174AE050E043
:1004B0006F2D8FE893E00E94661867E371E08FE884
:1004C00093E00E9476174AE050E0602F8FE893E0B7
:1004D0000E94661862E471E08FE893E00E9476174C
:1004E0004AE050E0612F8FE893E00E9466188FE8A1
:1004F00093E00E94A217809162038A3019F481E090
:10050000809313031091130368E071E08FE893E088
:100510000E947617612F70E04AE050E08FE893E088
:100520000E9451188FE893E00E94A21748EE53E012
:1005300060E070E0CE0101960E940205CE010196B6
:100540000E940805811105C082E693E00E948E0F8B
:10055000F5CF85E893E00E94591228960FB6F894DB
:10056000DEBF0FBECDBFDF91CF911F910F91FF90E6
:100570000895CF92DF92EF92FF920F931F93809195
:100580000B0381110DC00E94C91360930703709380
:1005900008038093090390930A0381E080930B037F
:1005A0000E94C9138B019C014091070350910803DD
:1005B0006091090370910A0368017901C41AD50A90
:1005C000E60AF70AC701B601009307031093080370
:1005D0002093090330930A031F910F91FF90EF902E
:1005E000DF90CF9008958F929F92AF92BF92CF925B
:1005F000DF92EF92FF920F931F93CF93DF9382E6E8
:1006000093E00E948E0FC82F882351F063E071E0C1
:100610008FE893E00E94761782E693E00E946C10C8
:1006200020916A0330916B032230310509F4D9C15E
:10063000CC2309F4D6C190916403809115039813DB
:10064000D0C161E089E00E94C3142091030330917E
:1006500004034091050350910603A9E0B0E00E9415
:1006600093196B017C010E94B9026C0D7D1D8E1DDA
:100670009F1D2AE0822E912CA12CB12CA501940162
:100680000E947119209303033093040340930503E0
:100690005093060385E893E00E94CC12EC0182E6B9
:1006A00093E00E94C8100091700310917103E090D4
:1006B0006E03F0906F03C0906C03D0906D036CEEEE
:1006C00070E08FE893E00E9476174AE050E0B601B0
:1006D0008FE893E00E946D186FEF70E08FE893E071
:1006E0000E9476174AE050E0B7018FE893E00E943D
:1006F0006D1861E071E08FE893E00E9476174AE0A0
:1007000050E0B8018FE893E00E946D188FE893E005
:100710000E94A217E0916303F0E0EE0FFF1FE4597F
:10072000FC4FD183C083C0917003D09171030091BD
:100730006E0310916F03E0906C03F0906D0365ED14
:1007400070E08FE893E00E9476174AE050E0B7012E
:100750008FE893E00E946D1868EE70E08FE893E0F8
:100760000E9476174AE050E0B8018FE893E00E94BB
:100770006D186AEE70E08FE893E00E9476174AE009
:1007800050E0BE018FE893E00E946D188FE893E07F
:100790000E94A21782E693E00E94F610C0917003B7
:1007A000D091710300916E0310916F03E0906C0380
:1007B000F0906D036EEB70E08FE893E00E94761787
:1007C0004AE050E0B7018FE893E00E946D1861EDB8
:1007D00070E08FE893E00E9476174AE050E0B8019D
:1007E0008FE893E00E946D1863ED70E08FE893E06E
:1007F0000E9476174AE050E0BE018FE893E00E9425
:100800006D188FE893E00E94A2172091FF023091AB
:1008100000034091010350910203A9E0B0E00E945F
:1008200093196B017C010E94B9026C0D7D1D8E1D18
:100830009F1DA50194010E9471192093FF0230931E
:100840000003409301035093020363EB70E08FE8D1
:1008500093E00E9476178FE893E00E94A2176091C0
:10086000140382E693E00E942F11811106C080914B
:100870006A0390916B03029741F76DEA70E08FE88D
:1008800093E00E9476178FE893E00E94A2172091D0
:10089000FB023091FC024091FD025091FE02A9E062
:1008A000B0E00E9493196B017C010E94B9026C0DAB
:1008B0007D1D8E1D9F1D2AE030E040E050E00E942B
:1008C00071192093FB023093FC024093FD02509378
:1008D000FE0268EA70E08FE893E00E94761782E6F5
:1008E00093E00E946C108091FA028F5F8A3018F4B6
:1008F0008093FA0264C01092FA026CE970E08FE80B
:1009000093E00E9476178FE893E00E94A217C090B0
:100910000303D0900403E0900503F09006036CE815
:1009200070E08FE893E00E9476172AE030E0B7018C
:10093000A6018FE893E00E9459188FE893E00E9487
:10094000A217C090FF02D0900003E0900103F09046
:1009500002036BE770E08FE893E00E9476172AE0CD
:1009600030E0B701A6018FE893E00E9459188FE8A4
:1009700093E00E94A217C090FB02D090FC02E0908E
:10098000FD02F090FE026CE670E08FE893E00E94BA
:1009900076172AE030E0B701A6018FE893E00E94C5
:1009A00059188FE893E00E94A21768E670E08FE87C
:1009B00093E00E9476178FE893E00E94A2171092AE
:1009C000130360E089E0DF91CF911F910F91FF90B9
:1009D000EF90DF90CF90BF90AF909F908F900C944E
:1009E000C3148091130381112CCEDF91CF911F91FD
:1009F0000F91FF90EF90DF90CF90BF90AF909F90BE
:100A00008F900895FC01448355836683778308950E
:100A10008F929F92AF92BF92CF92DF92EF92FF920E
:100A20000F931F93CF93DF93EC010E94BD138C8033
:100A30009D80AE80BF8081149104A104B10429F48B
:100A4000688379838A839B8319C0088119812A81ED
:100A50003B816B017C01C01AD10AE20AF30AC81477
:100A6000D904EA04FB0460F0B901A801480D591D3E
:100A70006A1D7B1D488359836A837B8381E001C0A3
:100A800080E0DF91CF911F910F91FF90EF90DF9069
:100A9000CF90BF90AF909F908F90089508958091D0
:100AA000160390911703DC01ED91FC910484F58508
:100AB000E02D0994CF93DF93EC0161E08A810E94DD
:100AC000C31489858CBD8A858DBD7894DF91CF91C3
:100AD0000895FC01F8948CB581878DB582878CB51B
:100AE000837F8CBD8CB58F7D8CBD8CB58C7F8CBD90
:100AF0008DB58E7F8DBD60E082810C94C314F89417
:100B000020912003233021F420911C0321110FC0D8
:100B100020912003233011F4789407C0DC01ED917B
:100B2000FC910288F389E02D099580E00895DC01AD
:100B3000ED91FC910488F589E02D61E0099581E053
:100B400008958EBD00000DB407FEFDCF8EB508954B
:100B5000CF93DF931F92CDB7DEB7DC01ED91FC910F
:100B60000480F581E02D698309956981882359F016
:100B700080911E03861711F06F3F29F490911A039C
:100B800081E0911101C080E00F90DF91CF91089535
:100B90002F923F924F925F927F928F929F92AF924D
:100BA000BF92CF92DF92EF92FF920F931F93CF935A
:100BB000DF93EC01962E5A01722E802E10E0CE2C7F
:100BC000D12CE12CF12CE881F9810190F081E02D0C
:100BD00001E0272DA501692DCE0109950E94BD13C5
:100BE0001B012C010E94BD13621973098409950928
:100BF0006C157D058E059F0540F4692DCE010E9480
:100C0000A805882379F381E004C01F5F8116D8F618
:100C100080E0DF91CF911F910F91FF90EF90DF90D7
:100C2000CF90BF90AF909F908F907F905F904F90AC
:100C30003F902F90089580911B03882329F0909175
:100C40001D0381E09F3F09F480E00895EF92FF9239
:100C50001F93CF93DF931F92CDB7DEB77C01DC01EA
:100C6000ED91FC91008CF18DE02D698309956981EE
:100C7000862F8F770E94A10580E00E94A105182F82
:100C8000D701ED91FC91028CF38DE02DC701099500
:100C9000812F0F90DF91CF911F91FF90EF900895DA
:100CA0000F931F93CF93DF9300D0CDB7DEB78C01A6
:100CB000DC01ED91FC91008CF18DE02D4A8369837C
:100CC00009956981862F80680E94A1054A81842F39
:100CD0000E94A105D801ED91FC91028CF38DE02DCD
:100CE000C8010F900F90DF91CF911F910F91099440
:100CF0001F93CF93DF93EC01162F80912003681789
:100D000009F461C0623009F440C070F4662309F44C
:100D100044C0613009F057C061E0CE010E94260650
:100D2000482F437E44603FC06330C1F0643009F017
:100D30004AC061E0CE010E942606482F437E4C60E7
:100D400061E0CE010E9450068885882381F1E88108
:100D5000F9810688F789E02D61E014C061E0CE01D9
:100D60000E942606482F437E406161E0CE010E942A
:100D7000500688858823D9F0E881F9810688F789AB
:100D8000E02D60E0CE01099512C061E0CE010E9425
:100D90002606482F437E486006C061E0CE010E94CF
:100DA0002606482F437E61E0CE010E9450068091C6
:100DB0002003811106C067E2CE010E94260687FF4C
:100DC000F6CF10932003DF91CF911F910895CF9319
:100DD000DF93EC01603208F06FE16F838885882330
:100DE00011F066956F8361E1CE010E942606482FBF
:100DF000407E8F81482B61E1CE01DF91CF910C9431
:100E00005006CF92DF92EF92FF920F931F93CF93F2
:100E1000DF93EC01F62ED42EC52E122FE881F98136
:100E20000488F589E02D61E0099567E2CE010E9412
:100E3000260687FFFACF40E065E2CE010E94500609
:100E40001E3308F01DE3E11004C0002319F000E494
:100E500001C000E8E881F981008CF18DE02DCE0120
:100E6000099580E80E94A10583E0810F0E94A105F9
:100E70008F2D0E94A1058D810E94A105802F0E94C7
:100E8000A1050D2DED2CFC2C8E2D801B811730F42F
:100E9000F70181917F010E94A105F6CFE881F981D8
:100EA000028CF38DE02DCE010995E881F98104884B
:100EB000F589E02D64E0CE0109950E94BD136B0118
:100EC0007C018B810E94F914892B81F0E881F981E2
:100ED0000488F589E02D61E0CE01DF91CF911F916B
:100EE0000F91FF90EF90DF90CF9009940E94BD1377
:100EF0006C197D098E099F09683E73408105910533
:100F000028F7DFCFCF93DF93EC0110921F031092ED
:100F10001E0310921D0310921C0310921B031092CB
:100F20001A03109219031092180368E20E94260611
:100F300082FF0AC06DE3CE010E942606482F44605E
:100F40006DE3CE010E94500640E465E2CE010E94AE
:100F50005006E881F9810488F589E02D63E0CE012F
:100F6000DF91CF910994DF92EF92FF920F931F933D
:100F7000CF93DF93EC018B01E881F9810488F58937
:100F8000E02D61E0099501151105E1F0E881F98195
:100F9000008CF18DE02DCE0109958EEB0E94A1050C
:100FA0007801D12CF70181917F010E94A105D39492
:100FB000F0E1DF12F7CFE881F981028CF38DE02DAB
:100FC000CE0109956DE3CE010E9426068E7F91E049
:100FD000012B09F490E0482F492B6DE3CE01DF91FE
:100FE000CF911F910F91FF90EF90DF900C945006DE
:100FF0008F929F92AF92BF92DF92EF92FF920F93E8
:101000001F93CF93DF93CDB7DEB7AE970FB6F894AB
:10101000DEBF0FBECDBF7C01D42E8EE28E010F5FEE
:101020001F4FD801E82F1D92EA95E9F791E09983C7
:1010300034E03A8342E04B8393E09D834E833F83C9
:1010400040E4488735E039879A8796E09B8793E3A9
:101050009C8737E03D8798E09F8799E0998B99E1DD
:101060009B8B92E49C8B55E25D8B4E8B46E24F8BC3
:10107000388F38E2398F30E13A8F39E23B8F3CEDDF
:101080003C8F8D8F88E88E8F8FE28F8F8DE288A3C3
:1010900080E389A337E33BA330E93CA338E33DA3D6
:1010A0009EA39CE39FA39FE898A79DE399A792E145
:1010B0009AA79FE69BA78CA78FEF8DA76F3131F082
:1010C0006B3231F0663531F489ED05C08EE403C032
:1010D0008CE601C084EE8E876F3141F06B3221F0D7
:1010E000663521F480E003C080E401C080EC888B89
:1010F0002AA361E0D70112968C910E94C31461E08B
:10110000F70182810E948A140E94FF0A0E94BD1387
:101110004B015C014AEA6FE2C7010E9450066FE290
:10112000C7010E9426068A3A59F00E94BD13681929
:1011300079098A099B09623371058105910550F38C
:101140000E94BD134B015C0145E56FE2C7010E949F
:1011500050066FE2C7010E942606853559F00E94AD
:10116000BD13681979098A099B09623371058105E4
:10117000910550F3B12CF801EB0DF11DEB0DF11DB4
:1011800060816F3F31F04181C7010E945006B394E6
:10119000F2CF60E070E0C7010E94B307D701ED9184
:1011A000FC9111970084F185E02D18966C91C70190
:1011B0000995D701ED91FC910488F589E02D61E056
:1011C000C70109950E94BD134B015C0167E2C7018D
:1011D0000E94260687FD0BC00E94BD13681979097D
:1011E0008A099B09623371058105910578F30E9494
:1011F000BD13681979098A099B0962337105810554
:10120000910588F443E050E06FE475E0F7018481D4
:101210000E940513F0921703E0921603D70115966A
:10122000DC9281E001C080E0AE960FB6F894DEBF9C
:101230000FBECDBFDF91CF911F910F91FF90EF9027
:10124000DF90BF90AF909F908F900895CF93DF93E2
:10125000EC0161110DC064E2CE010E94260690E00F
:1012600091958195910995958795DF91CF910895F5
:1012700041E063E20E94500663E2CE010E9426062E
:1012800081FFFACFE8CFCF93DF93EC018091200369
:101290008330A9F480911C03811111C060E0CE015C
:1012A0000E942609863A9F4F54F4E881F981048808
:1012B000F589E02D61E0CE01099581E001C080E073
:1012C000DF91CF910895FF920F931F93CF93DF93F8
:1012D000EC0180912003833001F568E2CE010E9489
:1012E000260682FD28C019C080911F038D3330F47B
:1012F000E0911F03F0E0EF5DFC4F1082E881F9817F
:10130000028CF38DE02DCE010995E881F9810488E6
:10131000F589E02D63E0CE01099560E0CE010E94E1
:1013200026099093190380931803DF91CF911F91A1
:101330000F91FF900895E881F9810488F589E02DE7
:1013400061E0CE010995E881F981008CF18DE02DF5
:10135000CE01099580E00E94A10580E00E94A105D0
:1013600080931C0380911C038334D0F480911C0370
:1013700080931C0380E00E94A10580931D038E8151
:10138000811109C090911D038D81981721F08091E2
:101390001D038F3F39F480911C03833018F017C070
:1013A00082E4E6CF10921C03E881F981028CF38D70
:1013B000E02DCE010995E881F9810288F389E02DBD
:1013C000CE01DF91CF911F910F91FF9009948091F1
:1013D0001C03835080931F0380E00E94A10580932B
:1013E0001E0380E00E94A105982F907890931A0325
:1013F000982F907490931B03E881F9810684F785F8
:10140000E02D682FCE010995F12C80911F03F8166D
:1014100008F06ACF0F2D10E080E00E94A105F801CE
:10142000EF5DFC4F8083F394F0CF4F925F926F9209
:101430007F929F92AF92BF92EF920F931F93CF93A1
:10144000DF93EC01162F5A01922E6DE30E942606BF
:10145000482F44606DE3CE010E9450060E94BD13E8
:101460002B013C01CE010E9443098823C1F0E88191
:10147000F9810088F189E02DE12C292DA501612F4A
:10148000CE010995DF91CF911F910F91EF90BF9001
:10149000AF909F907F906F905F904F9008950E94C3
:1014A000BD136419750986099709683E7340810563
:1014B0009105E8F6E881F9810480F581E02DCE01FF
:1014C0000995D0CF4F925F926F927F929F92AF9289
:1014D000BF92CF92DF92EF92FF920F93CF93DF9361
:1014E000EC015B01942E10921B03F0901E03C09040
:1014F0001803D09019036DE30E942606482F44601C
:101500006DE3CE010E9450060E94BD132B013C01E9
:10151000CE010E944309882311F1F0921E03E88155
:10152000F9810088F189E02DEE24E39400E0292D73
:10153000A5016F2DCE010995D0921903C092180311
:10154000DF91CF910F91FF90EF90DF90CF90BF9000
:10155000AF909F907F906F905F904F9008950E9402
:10156000BD136419750986099709683E73408105A2
:10157000910598F6E881F9810480F581E02DCE018E
:101580000995C6CFCF93DF93EC016887662311F0EE
:101590004FE001C04AE163E1CE010E945006888518
:1015A000882341F061E1CE010E942606482F4F7149
:1015B000406602C04F81406861E1CE01DF91CF916A
:1015C0000C9450061F93CF93DF93EC01162F6623E4
:1015D00011F04DE501C045E56AE5CE010E945006D7
:1015E000112311F04CE701C040E76CE5CE01DF911B
:1015F000CF911F910C945006FC0166830895CF9300
:10160000CFB7F89480916103811127C0EFE2F3E036
:101610008491EBE1F3E09491E82FF0E0EE0FFF1FEF
:10162000E35BFC4FA591B4918C91892321F461E097
:101630008AE00E94C31461E08AE00E948A148CB59B
:1016400080618CBD8CB580648CBD61E08DE00E94B2
:101650008A1461E08BE00E948A14809161038F5F9D
:1016600080936103CFBFCF910895FC0180E585830E
:1016700016826083528341830895FC018CB5838375
:101680008DB584833581268180916003882399F00C
:101690009FB7F89480916003813059F48DB38093A3
:1016A0005E034DB380915F03809584238DBB9FBF04
:1016B00002C090935E033CBD2DBD60E080810C9420
:1016C000C314CF93DF93EC0161E088810E94C314BF
:1016D00080916003882361F09FB7F89420916003A4
:1016E00080915E03213019F48DBB9FBF01C08FBF75
:1016F0008B818CBD8C818DBDDF91CF9108951F931F
:10170000CF93DF93EC010E943D0B85E00E94A10581
:1017100080E00E94A105182FCE010E94610B812F4D
:10172000DF91CF911F9108950E947F0B81700895E2
:101730001F93CF93DF93EC01162F442339F040E041
:1017400066E00E94980BCE010E94610BCE010E94C0
:10175000940B8111FBCFCE010E943D0B812FDF91B5
:10176000CF911F910C94A105EF92FF920F931F93BD
:10177000CF93DF9300D0CDB7DEB77C01142F062FB7
:1017800041E062E02A8359830E94980B802F0E94D7
:10179000A1055981852F0E94A105812F0E94A105D5
:1017A0002A81822F0E94A105C7010F900F90DF911F
:1017B000CF911F910F91FF90EF900C94610B2F929E
:1017C0003F924F925F926F927F928F929F92AF92D1
:1017D000BF92CF92DF92EF92FF920F931F93CF931E
:1017E000DF936C012A013B015901CA019927C0E02E
:1017F000D1E0C81BD90BE12CF12C0115110579F1B1
:101800000C171D0708F4E80141E062E0C6010E94E0
:10181000980B862D0E94A105852D0E94A105842D7F
:101820000E94A10515012E0C3F1C4101F40181917C
:101830004F010E94A105C401821993098C179D07CD
:10184000A8F3C6010E94610B4C0E5D1E611C711C49
:10185000EC0EFD1E0C1B1D0BC0E0D1E0CECFDF91C6
:10186000CF911F910F91FF90EF90DF90CF90BF909D
:10187000AF909F908F907F906F905F904F903F9030
:101880002F900895EF92FF920F931F93CF93DF93C2
:101890001F92CDB7DEB77C01142F062F41E062E521
:1018A00059830E94980B802F0E94A1055981852F92
:1018B0000E94A105812F0E94A105C7010F90DF9111
:1018C000CF911F910F91FF90EF900C94610BFC0151
:1018D000DB018EE091E09183808312968C911297C8
:1018E000828313968C911397838314968C9114970B
:1018F000848315968C911597858316968C911697EF
:10190000868317968C911797878318968C911897D2
:10191000808719968C91199781871A968C91828766
:101920000895CF92DF92FF920F931F93CF93DF938F
:10193000CDB7DEB70DB71EB7262F30E0220F331F0D
:10194000A9014F5F5F4FEDB7FEB7E41BF50B0FB674
:10195000F894FEBF0FBEEDBF4DB75EB74F5F5F4F50
:10196000DA01F82E6C018C2D8F198617C8F4C60188
:10197000F601708172957F7070637A3308F0795D3B
:101980007C93FFEFCF1ADF0AFC0180818F708063A8
:101990008A3308F0895D11968C9311971296E3CFE4
:1019A000FA01E20FF31F1082BA018FE893E00E9460
:1019B000A6170FB6F8941EBF0FBE0DBFDF91CF91D3
:1019C0001F910F91FF90DF90CF9008952F923F923B
:1019D0004F925F926F927F928F929F92AF92BF923F
:1019E000CF92DF92EF92FF920F931F93CF93DF93EB
:1019F000CDB7DEB76C970FB6F894DEBF0FBECDBF84
:101A00004C016B8FE98AFA8A0B8B1C8B2D8B3E8BDA
:101A10004F8BAA8E46E060E472E00E94620ACC20FE
:101A200031F06EE471E08FE893E00E94A61740E089
:101A300050E0BA01CE0141960E94420C07E010E04E
:101A400020E631E040E050E0BA01CE0141960E942C
:101A5000DF0B2AE349E050E060E070E0CE01419600
:101A60000E94B40B0E94BD131B012C015AE0E52E0D
:101A7000F12CA12CB12C9E012F5F3F4F398F288F65
:101A8000C4010E947F05882301F180911E033B8DD4
:101A900083131BC0D0901F03B3E0BD1520F48091C9
:101AA00021038634F9F061E08A8D0E948A1461E096
:101AB0008A8D0E94C31461E070E080E090E00E9493
:101AC000EC1360E08A8D0E94C3140E94BD1362195A
:101AD000730984099509693B7B408105910580F272
:101AE00080E022C1809122038C34E9F680912303A7
:101AF0008835C9F6809124038A3309F0AAC046E0EC
:101B00004D1508F0A6C084E090E000E010E0782ECB
:101B10002FEF280FFC01EF5DFC4F30813033A0F038
:101B200030813A3388F42081AAE0A801A49F800183
:101B3000A59F100D112400531109020F111D0196CC
:101B40008830910521F707C030813A33C1F754E05E
:101B5000751631F2722ECC20C1F068E671E08FE884
:101B600093E00E9499174AE050E06D2D8FE893E0D2
:101B70000E94661860E771E08FE893E00E94991771
:101B80006D2D81E293E00E94910CE1E0E70DF0E021
:101B9000EF5DFC4F80818A3309F0A2CF0E94BD1314
:101BA0001B012C010A151B0539F0C5010197081707
:101BB000190709F04EC029C032E0370D58018FEFE8
:101BC000A81AB80A3D1508F5E32FF0E0EF5DFC4FC9
:101BD000208137019FEF691A790AA70160E070E060
:101BE000CE0141963C8F0E94B40BC3019F773C8D80
:101BF000892B41F4A30160E070E0CE0141960E9480
:101C0000420C3C8D3F5F7301DDCF1F930F93A5E71F
:101C1000B1E0BF93AF93398D3F93488D4F930E94AE
:101C2000B319482F0F900F900F900F900F900F90B7
:101C3000CC2049F0BE016F5F7F4F8FE893E04C8F5F
:101C40000E94A6174C8DBE016F5F7F4FC4010E949A
:101C5000620A809124038F3309F025CF54E0D51216
:101C600010C046E060E472E0C4010E94620ACC2029
:101C700009F419CF6FE771E08FE893E00E94A6178F
:101C800012CF87E0D8120FCF80912503853409F059
:101C90000ACF809126038F3409F005CF8091270366
:101CA000863409F000CF87010A5011090130BCE7E2
:101CB0001B0778F0CC2031F06DE871E08FE893E0FD
:101CC0000E94A61747E06AEA71E0C4010E94620A16
:101CD00007CF46E060E472E0C4010E94620ACC20B3
:101CE00031F060E472E08FE893E00E94A617212FA4
:101CF00047E050E060E070E0CE0141960E94B40BF6
:101D000026EF2E0D48E050E060E070E0CE014196F5
:101D10000E94B40B2AE349E050E060E070E0CE019D
:101D200041960E94B40B81E06C960FB6F894DEBF2A
:101D30000FBECDBFDF91CF911F910F91FF90EF901C
:101D4000DF90CF90BF90AF909F908F907F906F90DB
:101D50005F904F903F902F900895C82F882331F0C7
:101D600062E872E08FE893E00E94991788E028E12A
:101D700030E00FB6F894A895209360000FBE8093D2
:101D80006000CC2331F06EE28FE893E00E949B1755
:101D9000FACFFFCFAF92BF92CF92DF92EF92FF9236
:101DA0000F931F93CF93DF93CDB7DEB762970FB634
:101DB000F894DEBF0FBECDBF0C871D872E873F87EF
:101DC000488B598B6A8BDE2C20911F03243008F43A
:101DD0005CC020912103263409F057C020912203D2
:101DE0002C3409F052C020912303283509F04DC04E
:101DF000209124032F3309F048C0B0901E03209196
:101E00001F032730A1F420912503253481F420916C
:101E100026032F3461F420912703263441F400E097
:101E200026E040E452E06B2D0E94150A2EC0BC0152
:101E3000CE0101960E94670CAC2CCD2CEC84FD8465
:101E40000E851F85288939894A896B2DCE01019617
:101E50000E94E60C882359F0DD2031F06CE872E036
:101E60008FE893E00E9499178D2D0E94AD0EDD2022
:101E700061F06DEA72E08FE893E00E94991766EDD9
:101E800072E08FE893E00E94A61762960FB6F8946E
:101E9000DEBF0FBECDBFDF91CF911F910F91FF909D
:101EA000EF90DF90CF90BF90AF900895EF92FF92A8
:101EB0000F931F93CF93DF931F92CDB7DEB77C01B3
:101EC000FC0100811181C80169830E94A71B6981FF
:101ED000681719F0C8010E94AF1BC7010F90DF916E
:101EE000CF911F910F91FF90EF900895262F862F8D
:101EF0006AE00E946519923011F48EEF01C081E012
:101F0000820F0895262F862F6AE00E94651991118D
:101F100002C082E001C08FEF820F08958F929F92DE
:101F2000AF92BF92CF92EF920F931F93CF93DF9315
:101F3000CDB7DEB72B970FB6F894DEBF0FBECDBF7F
:101F40005C014C0181E1880E911CC4010E947F0557
:101F5000882309F4AFC080911E038E3F39F490911D
:101F60001D03F5018081981709F464C080911F0357
:101F7000843019F58091210390912203A0912303CD
:101F8000B0912403F50184839583A683B783809160
:101F90001D03838390911E0392839081891381C0D6
:101FA000C4010E941B06882309F47BC040E06DEE4B
:101FB00072E0C4010E94620A74C080911F038230E3
:101FC000F9F48091210390912203F5019187808794
:101FD00080911D03838390911E03928390818913C6
:101FE00005C0C4010E941B0681115DC0F5018085FA
:101FF0009185039709F055C081E00E94AD0E51C054
:1020000080911E038E3F09F055C080911F038F31D0
:1020100008F450C06CE671E08FE893E00E947617F8
:102020008FE893E00E94A21782E090E0F50191878B
:10203000808740C069E871E08FE893E00E947617DE
:102040008FE893E00E94A2178EE091E09A83898343
:10205000F50183898B8384898C8385898D83868927
:102060008E8387898F83808D8887818D8987828DF4
:102070008A87838D8B8789E0C82EE12C00917E03AF
:1020800010917F032091800330918103409182035E
:102090005091830360918403CE0101960E94CA0E81
:1020A00065CF81E008C040E06DEE72E0C4010E949F
:1020B000620A9CCF80E02B960FB6F894DEBF0FBE6D
:1020C000CDBFDF91CF911F910F91EF90CF90BF9037
:1020D000AF909F908F900895CF92DF92EF92FF92F2
:1020E000CF93DF93EC0162E671E08FE893E00E940A
:1020F0007617FB804AE050E06A818FE893E00E9407
:1021000066186FE571E08FE893E00E9476174AE069
:1021100050E06F2D8FE893E00E946618F8886BE519
:1021200071E08FE893E00E9476174AE050E06F2D4F
:102130008FE893E00E946618CC80DD80EE80FF80FF
:1021400065E571E08FE893E00E94761722E030E0C9
:10215000B701A6018FE893E00E9407180884D9858B
:10216000C02D6DE471E08FE893E00E9476174AE09D
:1021700050E0BE018FE893E00E9451188FE893E091
:10218000DF91CF91FF90EF90DF90CF900C94A2174A
:102190000F931F93FC014481558166817781842FC1
:1021A0008370808B8A019B0192E036952795179565
:1021B00007959A95D1F71370138702878A019B01BF
:1021C000ACE03695279517950795AA95D1F713702A
:1021D00015870487B6E17695679557954795BA9523
:1021E000D1F7578746871F910F9108950F931F933B
:1021F000FC0146855785537060E070E00AE0440FAB
:10220000551F661F771F0A95D1F704851585137032
:1022100020E030E0402B512B622B732B8AE0440FDF
:10222000551F661F771F8A95D1F702851385137096
:1022300020E030E0402B512B622B732B92E0440FB7
:10224000551F661F771F9A95D1F780898370482B99
:1022500044835583668377831F910F910895EF928E
:102260000F931F93CF93DF931F92CDB7DEB78C01EF
:1022700069830E948E0F6981F80163838081828364
:10228000A8014C5F5F4FC8014196662339F02AE0F0
:10229000E22E03E024E00E94C80506C000E024E02E
:1022A00060E00E94150A81E00F90DF91CF911F91AD
:1022B0000F91EF90089540E35FEE68E08EE793E0C2
:1022C0000E94350B8EE091E090937403809373032A
:1022D0008AE08093750382E08093760310927703FF
:1022E00081E080932003109279038FE180937A0339
:1022F00010927B0308959F92AF92BF92CF92DF928C
:10230000EF92FF920F931F93CF93DF9300D0CDB73F
:10231000DEB77C01162F942EA22E3AE2C32ED12CCA
:1023200061E772E08FE893E00E9476178FE893E010
:102330000E94A2171F3FC9F48AE290E00E94A71BE7
:10234000B82EF70180836FE472E08FE893E00E947B
:1023500076174AE050E06B2D8FE893E00E946618F4
:102360008FE893E00E94A2171AC06BE272E08FE838
:1023700093E00E9476174AE050E0612F8FE893E0E7
:102380000E9466188FE893E00E94A217DA82C98241
:10239000612FCE0101960E94560FF7011083F701BD
:1023A00040814F3F41F561E072E08FE893E00E9489
:1023B00076178FE893E00E94A2176CED71E08FE82A
:1023C00093E00E9476178FE893E00E94A2178FE8AF
:1023D00093E00E944E15892BD1F341E060E070E05C
:1023E0008FE893E00E94E418DA82C982CE01019658
:1023F0000E94560F95CF6701F1E1CF0ED11C292D18
:102400006A2DC6010E94F80761E0C6010E94C20A57
:1024100061E0C6010E94FC0A602FC6010E94E70627
:1024200084EF91E0F7019787868795878487938764
:10243000828780816AE00E946519918361E089E06A
:102440000E948A1460E089E00E94C31481E090E059
:10245000F701918780871181008169EA71E08FE837
:1024600093E00E9476174AE050E0602F8FE893E0F7
:102470000E94661862ED71E08FE893E00E94761783
:102480004AE050E0612F8FE893E00E9466188FE8E1
:1024900093E00E94A2170F900F90DF91CF911F91B0
:1024A0000F91FF90EF90DF90CF90BF90AF909F90F3
:1024B0000895CF93DF93EC016AEE72E08FE893E02A
:1024C0000E9476178FE893E00E94A21760E083E0F5
:1024D0000E94C31461E083E00E948A1460E087E0F8
:1024E0000E948A1460E086E00E94C31461E086E0E6
:1024F0000E948A1461E084E00E94C31461E084E0D9
:102500000E948A1418826EEC72E08FE893E00E94B9
:1025100076178FE893E0DF91CF910C94A217CF93B9
:10252000DF93EC0167EA72E08FE893E00E94761790
:102530008FE893E00E94A21760E084E00E94C31439
:1025400061E086E00E94C3146AEF70E080E090E0F2
:102550000E94EC1361E084E00E94C3146AEF70E013
:1025600080E090E00E94EC1360E086E00E94C314DB
:1025700062E370E080E090E00E94EC1381E08883E9
:1025800063E872E08FE893E00E9476178FE893E0AB
:10259000DF91CF910C94A217CF93DF9300D000D09E
:1025A000CDB7DEB7FC012081211102C00E948F123D
:1025B00061E086E00E94C31420E432E44FE050E082
:1025C00061E087E00E9422159B01AC0160E086E09B
:1025D00029833A834B835C830E94C314AAE0B0E052
:1025E00029813A814B815C810E94931923E930E073
:1025F00040E050E00E947119C9010F900F900F90B8
:102600000F90DF91CF91089508958230E8F4E82F7C
:10261000F0E0EE0FFF1FEA5FFE4F718360838130B1
:1026200041F0809169008C7F842B80936900E89A47
:10263000089580916900440F551F440F551F837FF3
:10264000842B80936900E99A08951F920F920FB628
:102650000F9211242F933F934F935F936F937F9328
:102660008F939F93AF93BF93EF93FF93E0910601F6
:10267000F09107010995FF91EF91BF91AF919F9163
:102680008F917F916F915F914F913F912F910F901B
:102690000FBE0F901F9018951F920F920FB60F92BA
:1026A00011242F933F934F935F936F937F938F9357
:1026B0009F93AF93BF93EF93FF93E0910801F09145
:1026C00009010995FF91EF91BF91AF919F918F9172
:1026D0007F916F915F914F913F912F910F900FBE1E
:1026E0000F901F9018951F920F920FB60F92112402
:1026F0002F933F938F939F93AF93BF9380918703C3
:1027000090918803A0918903B0918A033091860348
:1027100023E0230F2D3720F40196A11DB11D05C024
:1027200026E8230F0296A11DB11D209386038093F6
:10273000870390938803A0938903B0938A038091C1
:102740008B0390918C03A0918D03B0918E03019621
:10275000A11DB11D80938B0390938C03A0938D03D7
:10276000B0938E03BF91AF919F918F913F912F9125
:102770000F900FBE0F901F9018952FB7F89460918F
:102780008703709188038091890390918A032FBFFA
:1027900008953FB7F89480918B0390918C03A0919A
:1027A0008D03B0918E0326B5A89B05C02F3F19F06D
:1027B0000196A11DB11D3FBF6627782F892F9A2F43
:1027C000620F711D811D911D42E0660F771F881FEA
:1027D000991F4A95D1F708958F929F92AF92BF9219
:1027E000CF92DF92EF92FF926B017C010E94C9139E
:1027F0004B015C01C114D104E104F104F1F00E9429
:1028000064190E94C913681979098A099B09683EED
:1028100073408105910570F321E0C21AD108E108E7
:10282000F10888EE880E83E0981EA11CB11CC1142B
:10283000D104E104F10429F7DDCFFF90EF90DF90A0
:10284000CF90BF90AF909F908F900895789484B56B
:10285000826084BD84B5816084BD85B5826085BD9C
:1028600085B5816085BDEEE6F0E080818160808382
:10287000E1E8F0E010828081826080838081816065
:102880008083E0E8F0E0808181608083E1EBF0E02C
:10289000808184608083E0EBF0E0808181608083D0
:1028A000EAE7F0E0808184608083808182608083B9
:1028B0008081816080838081806880831092C100E4
:1028C0000895833081F028F4813099F08230A1F0AE
:1028D00008958730A9F08830B9F08430D1F4809120
:1028E00080008F7D03C0809180008F77809380006F
:1028F000089584B58F7702C084B58F7D84BD089517
:102900008091B0008F7703C08091B0008F7D80935D
:10291000B0000895CF93DF9390E0FC01EF5EFC4F91
:102920002491FC01EB5DFC4F8491882349F190E0F8
:10293000880F991FFC01E35BFC4FA591B4918D5B5F
:102940009C4FFC01C591D4919FB7611108C0F894C8
:102950008C91209582238C93888182230AC06230D7
:1029600051F4F8948C91322F309583238C93888185
:10297000822B888304C0F8948C91822B8C939FBF08
:10298000DF91CF9108950F931F93CF93DF931F9201
:10299000CDB7DEB7282F30E0F901E350FD4F849129
:1029A000F901EF5EFC4F1491F901EB5DFC4F0491CE
:1029B0000023C9F0882321F069830E946114698192
:1029C000E02FF0E0EE0FFF1FED5BFC4FA591B491FF
:1029D0009FB7F8948C91611103C01095812301C0B9
:1029E000812B8C939FBF0F90DF91CF911F910F91FF
:1029F0000895CF93DF93282F30E0F901E350FD4F86
:102A00008491F901EF5EFC4FD491F901EB5DFC4F2D
:102A1000C491CC2391F081110E946114EC2FF0E05D
:102A2000EE0FFF1FE75CFC4FA591B4912C912D2375
:102A300081E090E021F480E002C080E090E0DF914E
:102A4000CF9108950F931F93762F90E0FC01EF5ED6
:102A5000FC4F6491FC01EB5DFC4FE4917111762F0A
:102A6000F0E0EE0FFF1FE75CFC4F85919491890128
:102A70009A013F70472F0E94D801611571058105A9
:102A8000910531F06F5F7F4F8F4F9F4F9F7003C055
:102A900060E070E0CB011F910F910895FC01818DE2
:102AA000228D90E0805C9F4F821B91098F73992744
:102AB0000895FC01918D828D981731F0828DE80F79
:102AC000F11D858D90E008958FEF9FEF0895FC0133
:102AD000918D828D981761F0828DDF01A80FB11D55
:102AE0005D968C91928D9F5F9F73928F90E0089579
:102AF0008FEF9FEF08958BEE96E1892B49F080E0F0
:102B000090E0892B29F00E94EB1681110C940000B3
:102B10000895FC01848DDF01A80FB11DA35ABF4F9A
:102B20002C91848D90E001968F739927848FA689CC
:102B3000B7892C93A089B1898C9180648C93938DF3
:102B4000848D981306C00288F389E02D80818F7DE3
:102B500080830895CF93DF93EC01888D8823C9F09B
:102B6000EA89FB89808185FD05C0A889B9898C9196
:102B700086FD0FC00FB607FCF5CF808185FFF2CF31
:102B8000A889B9898C9185FFEDCFCE010E94891566
:102B9000E7CFDF91CF910895CF92DF92FF920F930D
:102BA0001F93CF93DF931F92CDB7DEB76C0181E007
:102BB000D60158968C9358975B969C915B975C9640
:102BC0008C915C97981307C05096ED91FC915197AA
:102BD000808185FD2EC0F601038D10E00F5F1F4F31
:102BE0000F731127F02EF601848DF81211C00FB665
:102BF00007FCF9CFD6015096ED91FC915197808159
:102C000085FFF1CFC60169830E9489156981EBCFE9
:102C1000838DE80FF11DE35AFF4F6083D6015B9669
:102C20000C935B975296ED91FC9153978081806253
:102C30000CC0D6015696ED91FC9157976083509643
:102C4000ED91FC91519780818064808381E090E0D8
:102C50000F90DF91CF911F910F91FF90DF90CF9058
:102C60000895BF92CF92DF92EF92FF92CF93DF93BE
:102C7000EC016A017B01B22EE889F98982E0808348
:102C8000411581EE580761057105A1F060E079E01A
:102C90008DE390E0A70196010E947119215031093E
:102CA000410951095695479537952795211580E19A
:102CB000380798F0E889F989108260E874E88EE1B5
:102CC00090E0A70196010E94711921503109410934
:102CD00051095695479537952795EC85FD853083A5
:102CE000EE85FF852083188EEC89FD89B082EA8904
:102CF000FB89808180618083EA89FB89808188608B
:102D00008083EA89FB89808180688083EA89FB89E6
:102D100080818F7D8083DF91CF91FF90EF90DF9056
:102D2000CF90BF9008951F920F920FB60F9211246B
:102D30002F938F939F93EF93FF93E0919F03F091D5
:102D4000A0038081E091A503F091A60382FD12C04B
:102D500090818091A8038F5F8F732091A9038217C0
:102D600051F0E091A803F0E0E157FC4F958F80937C
:102D7000A80301C08081FF91EF919F918F912F91C6
:102D80000F900FBE0F901F9018951F920F920FB6C5
:102D90000F9211242F933F934F935F936F937F93E1
:102DA0008F939F93AF93BF93EF93FF938FE893E03D
:102DB0000E948915FF91EF91BF91AF919F918F91E3
:102DC0007F916F915F914F913F912F910F900FBE27
:102DD0000F901F9018958FE893E00E944E1521E008
:102DE000892B09F420E0822F08951092920310920B
:102DF000910388EE93E0A0E0B0E08093930390937A
:102E00009403A0939503B09396038FED92E0909373
:102E1000900380938F0385EC90E090939C038093C4
:102E20009B0384EC90E090939E0380939D0380EC41
:102E300090E09093A00380939F0381EC90E09093A7
:102E4000A2038093A10382EC90E09093A40380936B
:102E5000A30386EC90E09093A6038093A5031092C1
:102E6000A8031092A9031092AA031092AB0308952D
:102E7000CF92DF92EF92FF920F931F93CF93DF9346
:102E80007C016A01EB0100E010E00C151D0571F0FA
:102E90006991D701ED91FC910190F081E02DC7017E
:102EA0000995892B19F00F5F1F4FEFCFC801DF91F4
:102EB000CF911F910F91FF90EF90DF90CF900895E9
:102EC0006115710581F0DB010D900020E9F7AD017E
:102ED00041505109461B570BDC01ED91FC910280DA
:102EE000F381E02D099480E090E00895EF92FF9245
:102EF0000F931F93CF93DF938C017B01C0E0D0E051
:102F0000F701EC0FFD1F6491662359F0F801A081D1
:102F1000B181ED91FC91C8010995892B11F02196A1
:102F2000EFCFCE01DF91CF911F910F91FF90EF90E6
:102F300008950C946017DC01ED91FC910190F081F3
:102F4000E02D09946BEE72E00C9460170F931F93C1
:102F5000CF93DF93EC010E9460178C01CE010E9499
:102F6000A217800F911FDF91CF911F910F910895AC
:102F70008F929F92AF92BF92DF92EF92FF920F9348
:102F80001F93CF93DF93CDB7DEB7A1970FB6F89419
:102F9000DEBF0FBECDBF7C01F42FD52ECB0119A211
:102FA000223008F42AE08E010F5D1F4F822E912CF3
:102FB000A12CB12C6F2F7D2DA50194010E947119B8
:102FC000F22FD32ECA01015011096A3014F4E0E344
:102FD00001C0E7E3E60FD801EC93232B242B252B2C
:102FE00049F7B801C7010E946017A1960FB6F8947F
:102FF000DEBF0FBECDBFDF91CF911F910F91FF902C
:10300000EF90DF90BF90AF909F908F900895CF92F8
:10301000DF92EF92FF920F931F93CF93DF93EC0118
:103020006A017B012115310579F4E881F98101906C
:10303000F081E02D642FDF91CF911F910F91FF90D0
:10304000EF90DF90CF9009942A303105E9F477FFB3
:103050001AC06DE20E949B178C0144275527BA01C4
:103060004C195D096E097F092AE0CE010E94B8174C
:10307000800F911FDF91CF911F910F91FF90EF90E3
:10308000DF90CF9008952AE0B701A601CE01DF912D
:10309000CF911F910F91FF90EF90DF90CF900C9404
:1030A000B8179A01AB01662757FD6095762F0C94EF
:1030B00007182115310541F4DC01ED91FC910190D7
:1030C000F081E02D642F09940C94B8179A01462FD3
:1030D00050E060E070E00C9459189A01AB0160E098
:1030E00070E00C9459180F931F93CF93DF93EC016A
:1030F0000E94BD13688779878A879B87E881F98159
:103100000084F185E02DCE01099597FF15C00E943E
:10311000BD13088519852A853B85601B710B820BC1
:10312000930B0C811D812E813F81601771078207EF
:10313000930720F38FEF9FEFDF91CF911F910F91B6
:103140000895FF920F931F93CF93DF93EC018B01B0
:10315000F42ECE010E9473189C0197FD28C08D3279
:10316000910519F1C0970A9710F1FF2019F02E323E
:103170003105F9F001301105F9F00230110569F45B
:103180002D30310551F034F4295031092230310508
:1031900020F012C02032310579F4E881F9810680EF
:1031A000F781E02DCE010995D4CF8DE203C0C9018E
:1031B00005C08EE290E002C08FEF9FEFDF91CF91CC
:1031C0001F910F91FF900895CF92DF92FF920F937E
:1031D0001F93CF93DF9300D000D0CDB7DEB76C0143
:1031E000042F40E00E94A118FC0197FD4BC020E095
:1031F00030E0A901F12C112707FD1095E017F10728
:10320000E9F0ED32F105C1F0CF01C0970A97B0F4B3
:10321000AAE0B0E00E9493199B01AC01CF01AA275C
:1032200097FDA095BA2F280F391F4A1F5B1F205307
:1032300031094109510902C0FF24F394D601ED91EF
:10324000FC910680F781E02DC60129833A834B83E8
:103250005C830995C6010E947318FC01C0972981FF
:103260003A814B815C810A9748F2E017F10731F20D
:10327000FF2061F066277727CB01621B730B840B5D
:10328000950B06C060E070E0CB0102C0CA01B90135
:103290000F900F900F900F90DF91CF911F910F9192
:1032A000FF90DF90CF90089508950E9426140E9409
:1032B00054190E941D02CBE7D5E10E94F30220972A
:1032C000E1F30E947B15F9CF0895991B79E004C0C2
:1032D000991F961708F0961B881F7A95C9F7809555
:1032E0000895A1E21A2EAA1BBB1BFD010DC0AA1F47
:1032F000BB1FEE1FFF1FA217B307E407F50720F05F
:10330000A21BB30BE40BF50B661F771F881F991FD9
:103310001A9469F760957095809590959B01AC0122
:10332000BD01CF0108950E94A419A59F900DB49FDF
:10333000900DA49F800D911D11240895EE0FFF1F85
:103340000590F491E02D0994A29FB001B39FC001B4
:10335000A39F700D811D1124911DB29F700D811DC1
:103360001124911D0895AEE0B0E0E9EBF9E10C9471
:10337000711C0D891E8986E08C831A8309838FEF67
:103380009FE79E838D83AE01475E5F4F6F89788D87
:10339000CE0101960E94D519EF81F885E00FF11F4B
:1033A00010822E96E4E00C948D1CACE0B0E0EBEDC6
:1033B000F9E10C94631C7C016B018A01FC0117820A
:1033C0001682838181FFBDC1CE0101964C01F701B8
:1033D0009381F60193FD859193FF81916F0188237D
:1033E00009F4ABC1853239F493FD859193FF819146
:1033F0006F01853229F4B70190E00E94D31BE7CF1B
:10340000512C312C20E02032A0F48B3269F030F4C2
:10341000803259F0833269F420612CC08D3239F04A
:10342000803339F4216026C02260246023C02860E4
:1034300021C027FD27C030ED380F3A3078F426FF41
:1034400006C0FAE05F9E300D1124532E13C08AE0AF
:10345000389E300D1124332E20620CC08E3221F4A0
:1034600026FD6BC1206406C08C3611F4206802C0B2
:10347000883641F4F60193FD859193FF81916F01A8
:103480008111C1CF982F9F7D9554933028F40C5F04
:103490001F4FFFE3F9830DC0833631F0833771F09E
:1034A000833509F05BC022C0F801808189830E5FFB
:1034B0001F4F44244394512C540115C03801F2E0AD
:1034C0006F0E711CF801A080B18026FF03C0652D2E
:1034D00070E002C06FEF7FEFC5012C870E94C81B10
:1034E0002C0183012C852F77222E17C03801F2E0A2
:1034F0006F0E711CF801A080B18026FF03C0652DFE
:1035000070E002C06FEF7FEFC5012C870E94BD1BEA
:103510002C012C852068222E830123FC1BC0832DC7
:1035200090E048165906B0F4B70180E290E00E949E
:10353000D31B3A94F4CFF50127FC859127FE8191A6
:103540005F01B70190E00E94D31B31103A94F1E083
:103550004F1A51084114510471F7E5C0843611F037
:10356000893639F5F80127FF07C0608171818281B2
:1035700093810C5F1F4F08C060817181882777FDA0
:103580008095982F0E5F1F4F2F76B22E97FF09C0A0
:1035900090958095709561957F4F8F4F9F4F2068D4
:1035A000B22E2AE030E0A4010E94051CA82EA81823
:1035B00044C0853729F42F7EB22E2AE030E025C0A2
:1035C000F22FF97FBF2E8F36C1F018F4883579F0CD
:1035D000B4C0803719F0883721F0AFC02F2F206199
:1035E000B22EB4FE0DC08B2D8460B82E09C024FF0E
:1035F0000AC09F2F9660B92E06C028E030E005C0B3
:1036000020E130E002C020E132E0F801B7FE07C05F
:1036100060817181828193810C5F1F4F06C0608140
:10362000718180E090E00E5F1F4FA4010E94051C95
:10363000A82EA818FB2DFF77BF2EB6FE0BC02B2D92
:103640002E7FA51450F4B4FE0AC0B2FC08C02B2D86
:103650002E7E05C07A2C2B2D03C07A2C01C0752C30
:1036600024FF0DC0FE01EA0DF11D8081803311F4AD
:10367000297E09C022FF06C07394739404C0822F70
:10368000867809F0739423FD13C020FF06C05A2CDE
:10369000731418F4530C5718732C731468F4B7018F
:1036A00080E290E02C870E94D31B73942C85F5CF89
:1036B000731410F4371801C0312C24FF12C0B70165
:1036C00080E390E02C870E94D31B2C8522FF17C03B
:1036D00021FF03C088E590E002C088E790E0B701D1
:1036E0000CC0822F867859F021FD02C080E201C013
:1036F0008BE227FD8DE2B70190E00E94D31BA51459
:1037000038F4B70180E390E00E94D31B5A94F7CFBE
:10371000AA94F401EA0DF11D8081B70190E00E94A6
:10372000D31BA110F5CF332009F451CEB70180E2AD
:1037300090E00E94D31B3A94F6CFF70186819781DF
:1037400002C08FEF9FEF2C96E2E10C947F1CF99959
:10375000FECF92BD81BDF89A992780B50895262F96
:10376000F999FECF1FBA92BD81BD20BD0FB6F89466
:10377000FA9AF99A0FBE01960895FC0105906150DE
:1037800070400110D8F7809590958E0F9F1F089577
:10379000FC016150704001900110D8F78095909520
:1037A0008E0F9F1F08950F931F93CF93DF93182FB2
:1037B000092FEB018B8181FD03C08FEF9FEF20C0AC
:1037C00082FF10C04E815F812C813D8142175307DB
:1037D0007CF4E881F9819F012F5F3F4F3983288373
:1037E000108306C0E885F985812F0995892B29F773
:1037F0002E813F812F5F3F4F3F832E83812F902F5C
:10380000DF91CF911F910F910895FA01AA272830D7
:1038100051F1203181F1E8946F936E7F6E5F7F4F9D
:103820008F4F9F4FAF4FB1E03ED0B4E03CD0670F19
:10383000781F891F9A1FA11D680F791F8A1F911D6C
:10384000A11D6A0F711D811D911DA11D20D009F4BC
:1038500068943F912AE0269F11243019305D3193FE
:10386000DEF6CF010895462F4770405D4193B3E0E7
:103870000FD0C9F7F6CF462F4F70405D4A3318F08E
:10388000495D31FD4052419302D0A9F7EACFB4E03F
:10389000A6959795879577956795BA95C9F70097F7
:1038A0006105710508959B01AC010A2E0694579598
:1038B000479537952795BA95C9F7620F731F841FEF
:1038C000951FA01D08952F923F924F925F926F9285
:1038D0007F928F929F92AF92BF92CF92DF92EF92A0
:1038E000FF920F931F93CF93DF93CDB7DEB7CA1B21
:1038F000DB0B0FB6F894DEBF0FBECDBF09942A884C
:10390000398848885F846E847D848C849B84AA84F3
:10391000B984C884DF80EE80FD800C811B81AA8180
:10392000B981CE0FD11D0FB6F894DEBF0FBECDBF4B
:08393000ED010895F894FFCFAA
:1039380000002C0480000413041300000000150A82
:10394800C8057F05620AC20AE70663094E05010732
:1039580082077806E20A69055A05464C583F454FE2
:103968004600464C583F0048616E647368616B6559
:10397800206661696C00464C583A25753A00464CF9
:10398800583F4F4B202841434B2073656E742900E4
:10399800464C58494D473A00726164696F205B0094
:1039A8005D203E2000464C583A25753A4F4B00465C
:1039B8004C583F4F4B20726573656E6400494D4704
:1039C80020657863656564732033316B2C207265DC
:1039D800667573696E6720697400464C583F4E4F90
:1039E8004B0052465458203E2000524641434B203B
:1039F8003E200054696D656F75742077616974693C
:103A08006E6720666F72207061636B657420414336
:103A18004B2C2061626F7274696E6720464C41536B
:103A280048206F7065726174696F6E202E2E2E00AB
:103A3800464C583A494E560054696D656F75742066
:103A4800726563656976696E6720464C4153482004
:103A5800696D6167652066726F6D205345524941F3
:103A68004C2C2061626F7274696E672E2E2E000ACC
:103A7800464C583F4F4B00464C41534820494D4710
:103A8800205452414E534D495353494F4E2053559C
:103A9800434345535300464C41534820494D472022
:103AA8005452414E534D495353494F4E2046414974
:103AB8004C005245424F4F54494E4700464C4153E3
:103AC8004820494D47205452414E534D495353497C
:103AD8004F4E2053554343455353210A0054696DB3
:103AE800656F75742F4572726F722C2065726173E1
:103AF800696E67207772697474656E206461746199
:103B0800202E2E2E2000444F4E450000000000CCF1
:103B18001538174E1567155915AA150D0A006E6147
:0A3B28006E00696E66006F7666009D
:00000001FF
