:100000000C945B010C948B1D0C94B21D0C94830119
:100010000C9483010C9483010C9483010C94830150
:100020000C9483010C9483010C9483010C94830140
:100030000C9483010C9483010C9483010C94830130
:100040000C94D91D0C9483010C94EA200C941C216F
:100050000C9483010C9483010C9483010C94830110
:100060000C9483010C948301416E696D6174696F16
:100070006E2E20667073207265706F727465643DB9
:1000800000416E696D6174696F6E2E2065787465CC
:100090006E743D2000416E696D6174696F6E2E2033
:1000A000706F736974696F6E3D2000416E696D6198
:1000B00074696F6E2E204D6173746572206272696F
:1000C0006768746E6573733D2000416E696D61747D
:1000D000696F6E2E205374617274757020636F6D3A
:1000E000706C6574652E0053746174652E202069F0
:1000F000646C652D3E696E506C616E652E004E65B8
:1001000074776F726B2E2050726F6772616D6D65C0
:100110007220747261666669632E004E6574776F33
:10012000726B2E20526570726F6772616D6D696EB1
:1001300067206D6573736167653F004E6574776F07
:10014000726B2E207374617274757020636F6D70A2
:100150006C6574652077697468206D794E6F64658D
:1001600049443D00206D79496E6465783D00456ED7
:1001700074657220746865206E6F6465206E756D9D
:1001800062657220666F722074686973206E6F6496
:10019000653A004E6574776F726B2E204552524F50
:1001A00052206E6F206E6F6465494420666F756ED5
:1001B0006420696E20454550524F4D21004E6574B4
:1001C000776F726B2E202077726974696E67206E6C
:1001D0006F6465494420746F20454550524F4D3D32
:1001E000004E6574776F726B2E2072656164206EAD
:1001F0006F646549442066726F6D20454550524FCB
:100200004D3D004E6574776F726B2E207374617272
:100210007475702E004C6F636174696F6E2E20735D
:1002200074617274757020636F6D706C6574652E87
:10023000000964323D000964313D000964303D002D
:100240004C6F636174696F6E2E2073746172747584
:10025000702E0000000008000201000003040700E7
:10026000000000000000000102040810204080018E
:1002700002040810200102040810200404040404ED
:100280000404040202020202020303030303030044
:10029000000000230026002900000000002500289F
:1002A000002B0000000000240027002A0000D50ACF
:1002B000EC16AD194C2111241FBECFEFD8E0DEBFE4
:1002C000CDBF13E0A0E0B1E0E0E3FFE402C00590A1
:1002D0000D92AA34B107D9F726E0AAE4B3E001C031
:1002E0001D92AD34B207E1F712E0C6EBD2E004C0D4
:1002F0002297FE010E94A624CE3AD107C9F70E9498
:10030000F5230C9496270C94000080E090E008956B
:10031000CF93DF9300D000D000D0CDB7DEB7AB01D4
:10032000DC01ED91FC910190F081E02D19821A829F
:100330001B821C821D821E829E012F5F3F4FBE01C9
:100340006C5F7F4F099526960FB6F894DEBF0FBEFF
:10035000CDBFDF91CF910895CF93DF9300D000D030
:1003600000D0CDB7DEB7AB01DC01ED91FC9101907F
:10037000F081E02D19821A821B821C821D821E824E
:100380009E012F5F3F4FBE016C5F7F4F0995269600
:100390000FB6F894DEBF0FBECDBFDF91CF910895A9
:1003A000FC0184E391E091838083138212828FEFBA
:1003B00086838783808781878287838781E084879C
:1003C000168615861582148280915B0590915C05D6
:1003D000892B21F4F0935C05E0935B05A09159050E
:1003E000B0915A05109721F01596FC93EE9314974F
:1003F000F0935A05E09359050895CF93C62F609363
:100400005D056BEA70E080EB95E00E94CD214AE04B
:1004100050E06C2F80EB95E00E94BD2280EB95E0D0
:10042000CF910C94F921CF93DF9300D01F92CDB7D9
:10043000DEB7FC016083442361F019821A821B82BB
:10044000AE014F5F5F4F6EE670E082E993E00E947D
:100450000B170F900F900F90DF91CF910895CF93CE
:10046000DF93EC0180917D03811111C084E693E05C
:100470000E94D00182E491E090936503809364032D
:10048000109274031092730381E080937D0320E047
:1004900030E04EE650E062E973E084E693E00E94CB
:1004A000B116FC018FEF868380EB878380EF808716
:1004B00080917503811111C083E593E00E94D00102
:1004C00080E591E09093540380935303109263036B
:1004D0001092620381E08093750320E030E04EE6E5
:1004E00050E062E973E083E593E00E94B116FC01FD
:1004F0008FEF868380EB878380EF80878EE00E947A
:10050000C71E20910A0130910B01280F391F30932B
:100510000B0120930A016FEFCE010E94FD0187E3DA
:100520008B8389831C821A8241E060E0CE010E94A5
:1005300013026AEC70E080EB95E00E94CD2180EB25
:1005400095E0DF91CF910C94F9211F93CF93DF9326
:10055000EC01162F8981861791F065E970E080EB38
:1005600095E00E94CD214AE050E0612F80EB95E0BC
:100570000E94BD2280EB95E00E94F9211983DF9152
:10058000CF911F9108951F93CF93DF93EC01162F06
:100590008A81861791F061E870E080EB95E00E9417
:1005A000CD214AE050E0612F80EB95E00E94BD2212
:1005B00080EB95E00E94F9211A83DF91CF911F9182
:1005C00008954F925F926F927F929F92AF92BF92E7
:1005D000CF92DF92EF92FF920F931F93CF93DF930F
:1005E000CDB7DEB72A970FB6F894DEBF0FBECDBFEA
:1005F000962E80E1888788E0898780918A0381111F
:100600000DC00E94231E60934E0370934F0380938E
:1006100050039093510381E080938A038DEF9FEB09
:100620009A8389838FEF9FE39C838B8380914D0313
:10063000E8E0F0E0EC0FFD1FE80FF11D40816EE6F1
:1006400070E082E993E00E94481780914D0390E0AA
:10065000FC01EE0FFF1FEC0FFD1F01811281409086
:100660004E0350904F036090500370905103E8E0A8
:10067000F0E0EC0FFD1FE80FF91F80818A870E94D0
:10068000231E6B017C0120E03A85A8E1B1E00E94C5
:100690008A249B01AC01C418D508E608F708C701F5
:1006A000B6010E940524080F191FC8019F73969573
:1006B0008795969587959695879516FF06C02FEF97
:1006C00037E0A901481B590BCA01E92FEE0FEE0FC5
:1006D000F0E0EF5EFE4F2081318192818695A90185
:1006E000989F400D511D1124CA0117FF03C0919519
:1006F000819591099C01305880E090E0DC0160E038
:100700004FEF5FEF249FC001359FD001349F900DC4
:10071000A11DB61F259F900DA11DB61F1124BD015F
:10072000882799271F921F921F922EE62F93A12CA4
:10073000B12C6501EE24EA94FE2C00E010E020E0EC
:1007400030E0A9010E94AB23162F0F900F900F905D
:100750000F906D36D9F480914D0381111DC00E9418
:10076000231EC0904E03D0904F03E0905003F090B2
:10077000510354EFC50E51E0D51EE11CF11CC61605
:10078000D706E806F90608F44DC006C0611104C09A
:1007900080914D03813069F180914C0391E0980F75
:1007A00090934C038D838FEF8E839F82812F90E0F7
:1007B000BC01660F771F680F791F6E567C4FCE0104
:1007C00005960E9456172A960FB6F894DEBF0FBE04
:1007D000CDBFDF91CF911F910F91FF90EF90DF90F0
:1007E000CF90BF90AF909F907F906F905F904F9011
:1007F00008950E94231EC0904E03D0904F03E090B6
:100800005003F090510324EFC20E21E0D21EE11CF0
:10081000F11CC616D706E806F90608F0BDCF1092FF
:100820004D0303C081E080934D030E94231E60931B
:100830004E0370934F038093500390935103ACCFBA
:100840005F926F927F928F929F92AF92BF92CF9260
:10085000DF92EF92FF920F931F93CF93DF9300D01D
:100860001F92CDB7DEB7862E142F19821A821B82F3
:10087000AE014F5F5F4F6EE670E082E993E00E9449
:100880000B1780914B038F5F80934B03282D31E032
:10089000230F08F42FEF282D230F08F42FEF2E3607
:1008A00038F421E0382D320F08F43FEF932E02C0C8
:1008B0007DE6972E292D210F08F42FEF292D210FEA
:1008C00008F42FEF2E3630F4292D210F08F42FEFE6
:1008D000622E02C06DE6662E282D31E0231B08F43F
:1008E00020E0282D231B08F420E02E3638F421E0E8
:1008F000382D321B08F430E0732E02C05DE6752EF1
:10090000272D211B08F420E0272D211B08F420E0CF
:100910002E3630F4272D211B08F420E0522E02C081
:100920004DE6542E183328F4612F70E080E090E0FB
:1009300004C067E370E080E090E01F921F921F9276
:1009400020E12F93A12CB12C6501AA9417E3E12E8D
:10095000F12C00E010E020E030E0A9010E94AB2380
:10096000062F0F900F900F900F90152DFF24FA94E3
:100970006116A0F080914B038983FA820B83212FAB
:1009800030E0B901660F771F620F731F6E567C4F00
:10099000CE0101960E9456171F5FEACF19821A8274
:1009A00010E21B83852D90E0BC01660F771F680F56
:1009B000791F6E567C4FCE0101960E945617198200
:1009C0001A8200E80B83872D90E0BC01660F771F29
:1009D000680F791F6E567C4FCE0101960E94561704
:1009E00019821A828FEF8B83882D90E0BC01660FED
:1009F000771F680F791F6E567C4FCE0101960E94BB
:100A0000561719821A820B83892D90E0BC01660F5C
:100A1000771F680F791F6E567C4FCE0101960E949A
:100A2000561719821A821B83712CB301660F771F28
:100A3000660D771D6E567C4FCE0101960E945617AB
:100A40000F900F900F90DF91CF911F910F91FF901A
:100A5000EF90DF90CF90BF90AF909F908F907F905E
:100A60006F905F900895CF93DF93EB014AE06EE6BD
:100A700070E082E993E00E944817AE016EE670E0F4
:100A800082E993E0DF91CF910C940B170F931F93A2
:100A9000CF93DF9300D01F92CDB7DEB7FC018381E7
:100AA0009181981710F4815003C0891710F48F5F5B
:100AB000838384819281981710F4815003C0891731
:100AC00010F48F5F84838081813079F048F0823028
:100AD00091F08330D1F419821A828FEF8B830FC08B
:100AE0006FEFCF010E94E10210C044816381CF010A
:100AF0000E9420040AC019828FEF8A831B82BE01E4
:100B00006F5F7F4FCF010E94330560915D058DE5DA
:100B100095E00E94E915809152038F5F843619F0A9
:100B20008093520317C01092520300915E051091FA
:100B30005F0568E670E080EB95E00E94CD214AE019
:100B400050E0B80180EB95E00E94A82280EB95E090
:100B50000E94F9210F900F900F90DF91CF911F917C
:100B60000F910895DC018D919C91009739F0DC0183
:100B7000ED91FC910190F081E02D09940895DC0144
:100B80008D919C91009739F0DC01ED91FC910280F0
:100B9000F381E02D09940895579A569A0F960C9474
:100BA000BF05DC018D919C91009739F0DC01ED913E
:100BB000FC910190F081E02D09940895DC018D9164
:100BC0009C91009739F0DC01ED91FC910280F3815A
:100BD000E02D09940895549A569A0F960C94DE05C8
:100BE00087FF02C05F9A01C05F985E9A5E9886FF99
:100BF00002C05F9A01C05F985E9A5E9885FF02C04E
:100C00005F9A01C05F985E9A5E9884FF02C05F9A07
:100C100001C05F985E9A5E9883FF02C05F9A01C030
:100C20005F985E9A5E9882FF02C05F9A01C05F98EB
:100C30005E9A5E9881FF02C05F9A01C05F985E9ADB
:100C40005E9880FF02C05F9A01C05F985E9A5E98CE
:100C5000089580E00E94F00580E00E94F00580E0A9
:100C60000E94F00580E00C94F005CF93DF9397FD90
:100C70004F96EC01E5E0D595C795EA95E1F78FEF42
:100C80000E94F00580E00E94F00580E00E94F005DF
:100C900080E00E94F005219790F7DF91CF910895B1
:100CA00087FF02C05C9A01C05C985E9A5E9886FFDE
:100CB00002C05C9A01C05C985E9A5E9885FF02C093
:100CC0005C9A01C05C985E9A5E9884FF02C05C9A50
:100CD00001C05C985E9A5E9883FF02C05C9A01C076
:100CE0005C985E9A5E9882FF02C05C9A01C05C9834
:100CF0005E9A5E9881FF02C05C9A01C05C985E9A21
:100D00005E9880FF02C05C9A01C05C985E9A5E9813
:100D1000089580E00E94500680E00E94500680E026
:100D20000E94500680E00C945006CF93DF9397FD0D
:100D30004F96EC01F5E0D595C795FA95E1F78FEF61
:100D40000E94500680E00E94500680E00E945006FB
:100D500080E00E945006219790F7DF91CF9108958F
:100D6000FF920F931F93CF93DF93EC0180914A037F
:100D70008F5F982F977090934A0380FD02C080E0A8
:100D800001C080E891FD8064947009F08062A0E168
:100D9000FA2EF80E20E030E000E011E0FE01E20F54
:100DA000F31F6285662331F070E0C8010E9435248C
:100DB0006F5F01C060E067834F2D469F412D112476
:100DC0004483662311F0615067832F5F3F4F2330C8
:100DD000310521F7DF91CF911F910F91FF90089579
:100DE000FC01613011F40C94B00611861086178254
:100DF0001682158214820895AF92BF92CF92DF922D
:100E0000EF92FF920F931F93CF93DF93CDB7DEB78F
:100E10002F970FB6F894DEBF0FBECDBF6C01CB018C
:100E20008A01F901D6011C966C919A8389835C83AF
:100E30004B8380818B8781818C8782818D87CE01D6
:100E400001960E94F0061E86BFE0CB0ED11CC601A3
:100E50000E94D1050E948906E12CF12CE016F106D2
:100E60000CF04EC0E981FA812281222329F03F81D2
:100E7000230F08F42FEF01C020E03D85239F212D93
:100E800011248FEF2F870E9450062F85822F0E94FA
:100E90005006E981FA812181222329F03E81230F26
:100EA00008F42FEF01C020E03C85239F212D112461
:100EB000A22EB12CBA2CAA242081222329F03D8114
:100EC000230F08F42FEF01C020E03B85239F212D45
:100ED0001124A22A8B2D0E9450068A2D0E945006B2
:100EE00088859D81891B8D8389859E81891B8E8341
:100EF0008A859F81891B8F838FEFE81AF80AAECF0E
:100F0000C8010E949506C6010E94DE052F960FB605
:100F1000F894DEBF0FBECDBFDF91CF911F910F912F
:100F2000FF90EF90DF90CF90BF90AF900895AF9279
:100F3000BF92CF92DF92EF92FF920F931F93CF93C6
:100F4000DF93CDB7DEB72F970FB6F894DEBF0FBE95
:100F5000CDBF6C01CB018A01F901D6011C966C91C1
:100F60009A8389835C834B8380818B8781818C8783
:100F700082818D87CE0101960E94F0061E86BFE019
:100F8000CB0ED11CC6010E94B2050E942906E12C9D
:100F9000F12CE016F1060CF04EC0E981FA812281B5
:100FA000222329F03F81230F08F42FEF01C020E016
:100FB0003D85239F212D11248FEF2F870E94F0055F
:100FC0002F85822F0E94F005E981FA812181222359
:100FD00029F03E81230F08F42FEF01C020E03C856B
:100FE000239F212D1124A22EB12CBA2CAA242081BA
:100FF000222329F03D81230F08F42FEF01C020E0C8
:101000003B85239F212D1124A22A8B2D0E94F005C0
:101010008A2D0E94F00588859D81891B8D83898595
:101020009E81891B8E838A859F81891B8F838FEF89
:10103000E81AF80AAECFC8010E943506C6010E9420
:10104000BF052F960FB6F894DEBF0FBECDBFDF9160
:10105000CF911F910F91FF90EF90DF90CF90BF90B5
:10106000AF900895AF92BF92CF92DF92EF92FF922E
:101070000F931F93CF93DF93CDB7DEB72F970FB6A4
:10108000F894DEBF0FBECDBF6C01CB018A01F90120
:10109000D6011C966C919A8389835C834B838081F3
:1010A0008B8781818C8782818D87CE0101960E94FA
:1010B000F00683E08E87BFE0CB0ED11CC6010E94F4
:1010C000B2050E942906E12CF12CE016F1060CF085
:1010D0005BC0E981FA812281222329F03F81230F1D
:1010E00008F42FEF01C020E03D85239F212D11241E
:1010F0008FEF2F870E94F0052F85822F0E94F00529
:10110000E981FA812181222329F03E81230F08F40D
:101110002FEF01C020E03C85239F212D1124A22E1A
:10112000B12CBA2CAA242081222329F03D81230F3F
:1011300008F42FEF01C020E03B85239F212D1124CF
:10114000A22A8B2D0E94F0058A2D0E94F0058E8523
:1011500029813A81280F311D3A8329832B813C81D3
:10116000215031093C832B8388859D81891B8D8388
:1011700089859E81891B8E838A859F81891B8F83A8
:101180008FEFE81AF80AA1CFC8010E943506C60100
:101190000E94BF052F960FB6F894DEBF0FBECDBFDD
:1011A000DF91CF911F910F91FF90EF90DF90CF9043
:1011B000BF90AF900895AF92BF92CF92DF92EF921F
:1011C000FF920F931F93CF93DF93CDB7DEB72F9787
:1011D0000FB6F894DEBF0FBECDBF6C01CB018A0104
:1011E000F901D6011C966C919A8389835C834B83A9
:1011F00080818B8781818C8782818D87CE0101964A
:101200000E94F00683E08E87BFE0CB0ED11CC601A2
:101210000E94D1050E948906E12CF12CE016F1060E
:101220000CF05BC0E981FA812281222329F03F8101
:10123000230F08F42FEF01C020E03D85239F212DCF
:1012400011248FEF2F870E9450062F85822F0E9436
:101250005006E981FA812181222329F03E81230F62
:1012600008F42FEF01C020E03C85239F212D11249D
:10127000A22EB12CBA2CAA242081222329F03D8150
:10128000230F08F42FEF01C020E03B85239F212D81
:101290001124A22A8B2D0E9450068A2D0E945006EE
:1012A0008E8529813A81280F311D3A8329832B812C
:1012B0003C81215031093C832B8388859D81891B8A
:1012C0008D8389859E81891B8E838A859F81891B59
:1012D0008F838FEFE81AF80AA1CFC8010E94950604
:1012E000C6010E94DE052F960FB6F894DEBF0FBE32
:1012F000CDBFDF91CF911F910F91FF90EF90DF90C5
:10130000CF90BF90AF900895AF92BF92CF92DF92EF
:10131000EF92FF920F931F9380916C0590916D0552
:10132000019709F060C0E0916505F0E0EE0FFF1F46
:10133000ED56FA4F60817181643F82E0780710F0CA
:1013400063EF72E080E090E01F921F921F922DE603
:101350002F93A12CB12C650113EFE12E12E0F12E99
:1013600000E010E020E030E0A9010E94AB2385E816
:1013700093E00E94A502E0916505F0E0EE0FFF1FEB
:10138000E756FA4F60817181643F92E0790710F06F
:1013900063EF72E080E090E01F921F921F9227E3BC
:1013A0002F93A12CB12C650113EFE12E12E0F12E49
:1013B00000E010E020E030E0A9010E94AB238DB7EF
:1013C0009EB708960FB6F8949EBF0FBE8DBF85E8F6
:1013D00093E01F910F91FF90EF90DF90CF90BF901F
:1013E000AF900C94C3021F910F91FF90EF90DF908C
:1013F000CF90BF90AF9008950F93CF93DF93CDB769
:10140000DEB728970FB6F894DEBF0FBECDBF26E03B
:1014100040E052EC61E070E080EB95E00E948820B3
:101420000FE12BE54DE96FEF84E695E00E94CD19C1
:1014300048EE53E060E070E0CE0101960E94E70ABA
:10144000CE0101960E94ED0A811105C084E695E067
:101450000E94A118F5CF6EE675E087E895E00E943E
:10146000AB1A85E893E00E942F0228960FB6F894F5
:10147000DEBF0FBECDBFDF91CF910F910895809158
:101480006E0590916F058237924088F080917005CB
:10149000909171058237924050F081E02091720561
:1014A000309173052237324018F080E0089581E0D2
:1014B000089580916C0590916D05019799F5809143
:1014C000E40481110BC044EF51E060E070E08CED6A
:1014D00094E00E94E70A81E08093E4040E943F0ABE
:1014E000811104C08CED94E00E94330B8CED94E0EC
:1014F0000E94ED0A8823B1F067EE70E080EB95E082
:101500000E94CD2180EB95E00E94F92167EF74E005
:101510008EEE94E00E94391840E061E085E893E0A7
:101520000C941302089584E695E00E94A118882384
:1015300041F084E695E00E947F1987E895E00E94DB
:101540000D1D80916C0590916D052091EC043091FA
:10155000ED048217930709F1009719F440E062E067
:1015600010C08230910519F440E063E00AC0019791
:1015700061F46DEF74E08EEE94E00E94391840E063
:1015800060E085E893E00E94130280916C059091E1
:101590006D059093ED048093EC048EEE94E00E9430
:1015A000651885E893E00C94460569E57AE08DEFCF
:1015B00094E00E940C1864E879E087EF94E00E94C0
:1015C0000C186DEF74E08EEE94E00C942D18FC0175
:1015D000448355836683778308958F929F92AF9259
:1015E000BF92CF92DF92EF92FF920F931F93CF9310
:1015F000DF93EC010E94231E8C809D80AE80BF8013
:1016000081149104A104B10429F4688379838A8345
:101610009B8319C0088119812A813B816B017C0160
:10162000C01AD10AE20AF30AC814D904EA04FB0476
:1016300060F0B901A801480D591D6A1D7B1D488342
:1016400059836A837B8381E001C080E0DF91CF9181
:101650001F910F91FF90EF90DF90CF90BF90AF90D0
:101660009F908F900895CF93DF93EC010E94231EEB
:10167000688379838A839B83DF91CF91089508954E
:101680008091030590910405DC01ED91FC910484A7
:10169000F585E02D0994CF93DF93EC0161E08A8119
:1016A0000E94461F89858CBD8A858DBD7894DF9107
:1016B000CF910895FC01F8948CB581878DB5828710
:1016C0008CB5837F8CBD8CB58F7D8CBD8CB58C7FAC
:1016D0008CBD8DB58E7F8DBD60E082810C94461FE0
:1016E000F89420910D05233021F420910905211152
:1016F0000FC020910D05233011F4789407C0DC0150
:10170000ED91FC910288F389E02D099580E0089520
:10171000DC01ED91FC910488F589E02D61E00995EB
:1017200081E008958EBD00000DB407FEFDCF8EB59B
:101730000895CF93DF931F92CDB7DEB7DC01ED9113
:10174000FC910480F581E02D6983099569818823E6
:1017500059F080910B05861711F06F3F29F4909195
:10176000070581E0911101C080E00F90DF91CF91DA
:1017700008952F923F924F925F927F928F929F9205
:10178000AF92BF92CF92DF92EF92FF920F931F938F
:10179000CF93DF93EC01962E5A01722E802E10E02B
:1017A000CE2CD12CE12CF12CE881F9810190F08133
:1017B000E02D01E0272DA501692DCE0109950E949C
:1017C000231E1B012C010E94231E62197309840928
:1017D00095096C157D058E059F0540F4692DCE0198
:1017E0000E94990B882379F381E004C01F5F811662
:1017F000D8F680E0DF91CF911F910F91FF90EF908D
:10180000DF90CF90BF90AF909F908F907F905F9030
:101810004F903F902F90089580910805882329F0DC
:1018200090910A0581E09F3F09F480E00895EF92CE
:10183000FF921F93CF93DF931F92CDB7DEB77C014A
:10184000DC01ED91FC91008CF18DE02D698309950F
:101850006981862F8F770E94920B80E00E94920B05
:10186000182FD701ED91FC91028CF38DE02DC7016B
:101870000995812F0F90DF91CF911F91FF90EF90ED
:1018800008950F931F93CF93DF9300D0CDB7DEB7AA
:101890008C01DC01ED91FC91008CF18DE02D4A83EF
:1018A000698309956981862F80680E94920B4A811D
:1018B000842F0E94920BD801ED91FC91028CF38D44
:1018C000E02DC8010F900F90DF91CF911F910F91E4
:1018D00009941F93CF93DF93EC01162F80910D0590
:1018E000681709F461C0623009F440C070F46623DF
:1018F00009F444C0613009F057C061E0CE010E9494
:10190000170C482F437E44603FC06330C1F0643001
:1019100009F04AC061E0CE010E94170C482F437EB7
:101920004C6061E0CE010E94410C8885882381F1E2
:10193000E881F9810688F789E02D61E014C061E053
:10194000CE010E94170C482F437E406161E0CE011A
:101950000E94410C88858823D9F0E881F9810688A6
:10196000F789E02D60E0CE01099512C061E0CE015B
:101970000E94170C482F437E486006C061E0CE01EC
:101980000E94170C482F437E61E0CE010E94410C5B
:1019900080910D05811106C067E2CE010E94170CEF
:1019A00087FFF6CF10930D05DF91CF911F9108951A
:1019B000CF93DF93EC01603208F06FE16F8388858D
:1019C000882311F066956F8361E1CE010E94170CA8
:1019D000482F407E8F81482B61E1CE01DF91CF916E
:1019E0000C94410CCF92DF92EF92FF920F931F93D2
:1019F000CF93DF93EC01F62ED42EC52E122FE88163
:101A0000F9810488F589E02D61E0099567E2CE014E
:101A10000E94170C87FFFACF40E065E2CE010E94DA
:101A2000410C1E3308F01DE3E11004C0002319F03F
:101A300000E401C000E8E881F981008CF18DE02D1F
:101A4000CE01099580E80E94920B83E0810F0E94ED
:101A5000920B8F2D0E94920B8D810E94920B802FF2
:101A60000E94920B0D2DED2CFC2C8E2D801B8117CE
:101A700030F4F70181917F010E94920BF6CFE8814B
:101A8000F981028CF38DE02DCE010995E881F98171
:101A90000488F589E02D64E0CE0109950E94231E9B
:101AA0006B017C018B810E947C1F892B81F0E88176
:101AB000F9810488F589E02D61E0CE01DF91CF91B5
:101AC0001F910F91FF90EF90DF90CF9009940E94AB
:101AD000231E6C197D098E099F09683E734081059C
:101AE000910528F7DFCFCF93DF93EC0110920C051F
:101AF00010920B0510920A05109209051092080524
:101B000010920705109206051092050568E20E94E2
:101B1000170C82FF0AC06DE3CE010E94170C482FFC
:101B200044606DE3CE010E94410C40E465E2CE01C9
:101B30000E94410CE881F9810488F589E02D63E079
:101B4000CE01DF91CF910994DF92EF92FF920F9334
:101B50001F93CF93DF93EC018B01E881F981048817
:101B6000F589E02D61E0099501151105E1F0E881A5
:101B7000F981008CF18DE02DCE0109958EEB0E944C
:101B8000920B7801D12CF70181917F010E94920B79
:101B9000D394F0E1DF12F7CFE881F981028CF38D65
:101BA000E02DCE0109956DE3CE010E94170C8E7FCA
:101BB00091E0012B09F490E0482F492B6DE3CE0111
:101BC000DF91CF911F910F91FF90EF90DF900C94D8
:101BD000410C8F929F92AF92BF92DF92EF92FF9251
:101BE0000F931F93CF93DF93CDB7DEB7AE970FB6AA
:101BF000F894DEBF0FBECDBF7C01D42E8EE28E01E5
:101C00000F5F1F4FD801E82F1D92EA95E9F791E089
:101C1000998334E03A8342E04B8393E09D834E8383
:101C20003F8340E4488735E039879A8796E09B8771
:101C300093E39C8737E03D8798E09F8799E0998BF5
:101C400099E19B8B92E49C8B55E25D8B4E8B46E237
:101C50004F8B388F38E2398F30E13A8F39E23B8F42
:101C60003CED3C8F8D8F88E88E8F8FE28F8F8DE2D9
:101C700088A380E389A337E33BA330E93CA338E39F
:101C80003DA39EA39CE39FA39FE898A79DE399A7EC
:101C900092E19AA79FE69BA78CA78FEF8DA76F3144
:101CA00031F06B3231F0663531F489ED05C08EE4E8
:101CB00003C08CE601C084EE8E876F3141F06B3239
:101CC00021F0663521F480E003C080E401C080EC9F
:101CD000888B2AA361E0D70112968C910E94461F3F
:101CE00061E0F70182810E940D1F0E94F0100E94A6
:101CF000231E4B015C014AEA6FE2C7010E94410CBE
:101D00006FE2C7010E94170C8A3A59F00E94231E05
:101D1000681979098A099B09623371058105910562
:101D200050F30E94231E4B015C0145E56FE2C701A1
:101D30000E94410C6FE2C7010E94170C853559F0D3
:101D40000E94231E681979098A099B09623371056B
:101D50008105910550F3B12CF801EB0DF11DEB0D50
:101D6000F11D60816F3F31F04181C7010E94410C3C
:101D7000B394F2CF60E070E0C7010E94A40DD701D8
:101D8000ED91FC9111970084F185E02D18966C91EE
:101D9000C7010995D701ED91FC910488F589E02DE3
:101DA00061E0C70109950E94231E4B015C0167E2B7
:101DB000C7010E94170C87FD0BC00E94231E6819E3
:101DC00079098A099B09623371058105910578F3C8
:101DD0000E94231E681979098A099B0962337105DB
:101DE0008105910588F443E050E060E47BE0F70171
:101DF00084810E946B1DF0920405E0920305D701D7
:101E00001596DC9281E001C080E0AE960FB6F894A2
:101E1000DEBF0FBECDBFDF91CF911F910F91FF901D
:101E2000EF90DF90BF90AF909F908F900895CF93E9
:101E3000DF93EC0161110DC064E2CE010E94170C2A
:101E400090E091958195910995958795DF91CF9136
:101E5000089541E063E20E94410C63E2CE010E94DA
:101E6000170C81FFFACFE8CFCF93DF93EC0180917D
:101E70000D058330A9F480910905811111C060E03E
:101E8000CE010E94170F863A9F4F54F4E881F981E2
:101E90000488F589E02D61E0CE01099581E001C05B
:101EA00080E0DF91CF910895FF920F931F93CF931E
:101EB000DF93EC0180910D05833001F568E2CE01DE
:101EC0000E94170C82FD28C019C080910C058D332B
:101ED00030F4E0910C05F0E0E25FFA4F1082E88107
:101EE000F981028CF38DE02DCE010995E881F9810D
:101EF0000488F589E02D63E0CE01099560E0CE010C
:101F00000E94170F9093060580930505DF91CF91EE
:101F10001F910F91FF900895E881F9810488F58958
:101F2000E02D61E0CE010995E881F981008CF18D09
:101F3000E02DCE01099580E00E94920B80E00E9486
:101F4000920B80930905809109058334D0F4809128
:101F500009058093090580E00E94920B80930A0591
:101F60008E81811109C090910A058D81981721F009
:101F700080910A058F3F39F480910905833018F06C
:101F800017C082E4E6CF10920905E881F981028C3E
:101F9000F38DE02DCE010995E881F9810288F3895E
:101FA000E02DCE01DF91CF911F910F91FF90099409
:101FB00080910905835080930C0580E00E94920B6C
:101FC00080930B0580E00E94920B982F907890935D
:101FD0000705982F907490930805E881F98106848D
:101FE000F785E02D682FCE010995F12C80910C0525
:101FF000F81608F06ACF0F2D10E080E00E94920BD7
:10200000F801E25FFA4F8083F394F0CF4F925F9232
:102010006F927F929F92AF92BF92EF920F931F9316
:10202000CF93DF93EC01162F5A01922E6DE30E949D
:10203000170C482F44606DE3CE010E94410C0E94B2
:10204000231E2B013C01CE010E94340F8823C1F0D6
:10205000E881F9810088F189E02DE12C292DA50185
:10206000612FCE010995DF91CF911F910F91EF90D4
:10207000BF90AF909F907F906F905F904F9008952A
:102080000E94231E6419750986099709683E7340EA
:1020900081059105E8F6E881F9810480F581E02D5C
:1020A000CE010995D0CF4F925F926F927F929F920F
:1020B000AF92BF92CF92DF92EF92FF920F93CF93A6
:1020C000DF93EC015B01942E10920805F0900B0554
:1020D000C0900505D09006056DE30E94170C482FAF
:1020E00044606DE3CE010E94410C0E94231E2B012F
:1020F0003C01CE010E94340F882311F1F0920B05B0
:10210000E881F9810088F189E02DEE24E39400E074
:10211000292DA5016F2DCE010995D0920605C092FB
:102120000505DF91CF910F91FF90EF90DF90CF9059
:10213000BF90AF909F907F906F905F904F90089569
:102140000E94231E6419750986099709683E734029
:102150008105910598F6E881F9810480F581E02DEB
:10216000CE010995C6CFCF93DF93EC016887662334
:1021700011F04FE001C04AE163E1CE010E94410C41
:102180008885882341F061E1CE010E94170C482F19
:102190004F71406602C04F81406861E1CE01DF911E
:1021A000CF910C94410C1F93CF93DF93EC01162F2A
:1021B000662311F04DE501C045E56AE5CE010E94B8
:1021C000410C112311F04CE701C040E76CE5CE0152
:1021D000DF91CF911F910C94410CFC01668308950F
:1021E000CF93CFB7F89480914E05811127C0E5E8D1
:1021F000F2E08491E1E7F2E09491E82FF0E0EE0F55
:10220000FF1FED55FD4FA591B4918C91892321F4C9
:1022100061E08AE00E94461F61E08AE00E940D1F93
:102220008CB580618CBD8CB580648CBD61E08DE027
:102230000E940D1F61E08BE00E940D1F80914E05F2
:102240008F5F80934E05CFBFCF910895FC0180E54D
:10225000858316826083528341830895FC018CB587
:1022600083838DB584833581268180914D058823B4
:1022700099F09FB7F89480914D05813059F48DB352
:1022800080934B054DB380914C05809584238DBB85
:102290009FBF02C090934B053CBD2DBD60E0808187
:1022A0000C94461FCF93DF93EC0161E088810E947C
:1022B000461F80914D05882361F09FB7F8942091C7
:1022C0004D0580914B05213019F48DBB9FBF01C096
:1022D0008FBF8B818CBD8C818DBDDF91CF91089597
:1022E0001F93CF93DF93EC010E942E1185E00E9493
:1022F000920B80E00E94920B182FCE010E94521187
:10230000812FDF91CF911F9108950E9470118170EC
:1023100008951F93CF93DF93EC01162F442339F0D8
:1023200040E066E00E948911CE010E945211CE0168
:102330000E9485118111FBCFCE010E942E11812FA9
:10234000DF91CF911F910C94920BEF92FF920F931C
:102350001F93CF93DF9300D0CDB7DEB77C01142F4E
:10236000062F41E062E02A8359830E948911802F61
:102370000E94920B5981852F0E94920B812F0E94FF
:10238000920B2A81822F0E94920BC7010F900F900F
:10239000DF91CF911F910F91FF90EF900C9452110C
:1023A0002F923F924F925F926F927F928F929F9265
:1023B000AF92BF92CF92DF92EF92FF920F931F9353
:1023C000CF93DF936C012A013B015901CA01992780
:1023D000C0E0D1E0C81BD90BE12CF12C011511058F
:1023E00079F10C171D0708F4E80141E062E0C6012D
:1023F0000E948911862D0E94920B852D0E94920BBE
:10240000842D0E94920B15012E0C3F1C4101F401FA
:1024100081914F010E94920BC401821993098C177C
:102420009D07A8F3C6010E9452114C0E5D1E611C4F
:10243000711CEC0EFD1E0C1B1D0BC0E0D1E0CECFBD
:10244000DF91CF911F910F91FF90EF90DF90CF9090
:10245000BF90AF909F908F907F906F905F904F90C4
:102460003F902F900895EF92FF920F931F93CF9379
:10247000DF931F92CDB7DEB77C01142F062F41E00A
:1024800062E559830E948911802F0E94920B598125
:10249000852F0E94920B812F0E94920BC7010F90F3
:1024A000DF91CF911F910F91FF90EF900C945211FB
:1024B000FC01DB018EE591E09183808312968C9183
:1024C0001297828313968C911397838314968C9121
:1024D0001497848315968C911597858316968C9105
:1024E0001697868317968C911797878318968C91E9
:1024F0001897808719968C91199781871A968C91D5
:1025000082870895CF92DF92FF920F931F93CF930C
:10251000DF93CDB7DEB70DB71EB7262F30E0220F01
:10252000331FA9014F5F5F4FEDB7FEB7E41BF50BFB
:102530000FB6F894FEBF0FBEEDBF4DB75EB74F5F4D
:102540005F4FDA01F82E6C018C2D8F198617C8F4B5
:10255000C601F601708172957F7070637A3308F05E
:10256000795D7C93FFEFCF1ADF0AFC0180818F70C9
:1025700080638A3308F0895D11968C9311971296C7
:10258000E3CFFA01E20FF31F1082BA0180EB95E06E
:102590000E94FD210FB6F8941EBF0FBE0DBFDF9144
:1025A000CF911F910F91FF90DF90CF9008952F92C0
:1025B0003F924F925F926F927F928F929F92AF92D3
:1025C000BF92CF92DF92EF92FF920F931F93CF9320
:1025D000DF93CDB7DEB76C970FB6F894DEBF0FBEB2
:1025E000CDBF4C016B8FE98AFA8A0B8B1C8B2D8B2C
:1025F0003E8B4F8BAA8E46E060E972E00E9453103A
:10260000CC2031F06EE971E080EB95E00E94FD2175
:1026100040E050E0BA01CE0141960E94331207E03B
:1026200010E020EB31E040E050E0BA01CE014196ED
:102630000E94D0112AE349E050E060E070E0CE0152
:1026400041960E94A5110E94231E1B012C015AE0F5
:10265000E52EF12CA12CB12C9E012F5F3F4F398F1D
:10266000288FC4010E94700B882301F180910B0513
:102670003B8D83131BC0D0900C05B3E0BD1520F437
:1026800080910E058634F9F061E08A8D0E940D1F5D
:1026900061E08A8D0E94461F61E070E080E090E07A
:1026A0000E94521E60E08A8D0E94461F0E94231ED7
:1026B0006219730984099509693B7B40810591057D
:1026C00080F280E022C180910F058C34E9F6809180
:1026D00010058835C9F6809111058A3309F0AAC022
:1026E00046E04D1508F0A6C084E090E000E010E060
:1026F000782E2FEF280FFC01E25FFA4F3081303344
:10270000A0F030813A3388F42081AAE0A801A49F88
:102710008001A59F100D112400531109020F111DF6
:1027200001968830910521F707C030813A33C1F70F
:1027300054E0751631F2722ECC20C1F068EB71E0D6
:1027400080EB95E00E94F0214AE050E06D2D80EB97
:1027500095E00E94BD2260EC71E080EB95E00E9464
:10276000F0216D2D8EE095E00E948212E1E0E70DF0
:10277000F0E0E25FFA4F80818A3309F0A2CF0E9435
:10278000231E1B012C010A151B0539F0C5010197F9
:102790000817190709F04EC029C032E0370D58015B
:1027A0008FEFA81AB80A3D1508F5E32FF0E0E25FB5
:1027B000FA4F208137019FEF691A790AA70160E07B
:1027C00070E0CE0141963C8F0E94A511C3019F7716
:1027D0003C8D892B41F4A30160E070E0CE0141966D
:1027E0000E9433123C8D3F5F7301DDCF1F930F9327
:1027F000A5ECB1E0BF93AF93398D3F93488D4F93D4
:102800000E94AF24482F0F900F900F900F900F90C1
:102810000F90CC2049F0BE016F5F7F4F80EB95E0B9
:102820004C8F0E94FD214C8DBE016F5F7F4FC40114
:102830000E945310809111058F3309F025CF54E089
:10284000D51210C046E060E972E0C4010E94531046
:10285000CC2009F419CF6FEC71E080EB95E00E9479
:10286000FD2112CF87E0D8120FCF80911205853459
:1028700009F00ACF809113058F3409F005CF8091BC
:102880001405863409F000CF87010A501109013080
:10289000BCE71B0778F0CC2031F06DED71E080EBE8
:1028A00095E00E94FD2147E06AEF71E0C4010E94BB
:1028B000531007CF46E060E972E0C4010E94531054
:1028C000CC2031F060E972E080EB95E00E94FD21C0
:1028D000212F47E050E060E070E0CE0141960E9479
:1028E000A51126EF2E0D48E050E060E070E0CE012B
:1028F00041960E94A5112AE349E050E060E070E0B3
:10290000CE0141960E94A51181E06C960FB6F89415
:10291000DEBF0FBECDBFDF91CF911F910F91FF9012
:10292000EF90DF90CF90BF90AF909F908F907F906F
:102930006F905F904F903F902F900895C82F8823FD
:1029400031F062ED72E080EB95E00E94F02188E0CA
:1029500028E130E00FB6F894A895209360000FBEF0
:1029600080936000CC2331F06EE280EB95E00E9412
:10297000F221FACFFFCFAF92BF92CF92DF92EF92C8
:10298000FF920F931F93CF93DF93CDB7DEB762977C
:102990000FB6F894DEBF0FBECDBF0C871D872E8704
:1029A0003F87488B598B6A8BDE2C20910C05243095
:1029B00008F45CC020910E05263409F057C0209120
:1029C0000F052C3409F052C020911005283509F06C
:1029D0004DC0209111052F3309F048C0B0900B0570
:1029E00020910C052730A1F420911205253481F4A3
:1029F000209113052F3461F420911405263441F4FD
:102A000000E026E040E952E06B2D0E9406102EC047
:102A1000BC01CE0101960E945812AC2CCD2CEC8446
:102A2000FD840E851F85288939894A896B2DCE0141
:102A300001960E94D712882359F0DD2031F06CED09
:102A400072E080EB95E00E94F0218D2D0E949E1493
:102A5000DD2061F06DEF72E080EB95E00E94F021E7
:102A600066E273E080EB95E00E94FD2162960FB66E
:102A7000F894DEBF0FBECDBFDF91CF911F910F91B4
:102A8000FF90EF90DF90CF90BF90AF9008958F921E
:102A90009F92AF92BF92EF92FF920F931F93CF93AB
:102AA000DF93EC01188219821A824423B9F1E0E025
:102AB000F0E08B010A5F1F4F7B0189E0E80EF11CFB
:102AC000842E912CA12CB12CD801AE0FBF1F2C91BC
:102AD000D701AE0FBF1F6C912223E1F06623D1F026
:102AE00030E040E050E02F5F3F4F4F4F5F4F70E0CE
:102AF00080E090E06F5F7F4F8F4F9F4F0E940524D3
:102B00009B01AC01C501B4010E940524DE01AE0F9A
:102B1000BF1F8C933196E330F105B1F6CE01DF9102
:102B2000CF911F910F91FF90EF90BF90AF909F902A
:102B30008F900895CF92DF92EF92FF92CF93DF9321
:102B4000EC0180915305909154059C012F5F3F4FFC
:102B50003093540520935305861797079CF10E94E4
:102B6000231E9B01AC01E0915305F091540588EEC2
:102B700093E0E89FB001E99F700DF89F700D11245C
:102B8000882777FD8095982FC0904F05D0905005ED
:102B9000E0905105F09052052C193D094E095F094E
:102BA0000E9449243A8329831092540510925305B8
:102BB0000E94231E60934F0570935005809351052A
:102BC00090935205DF91CF91FF90EF90DF90CF90DF
:102BD0000895AF92BF92CF92DF92EF92FF920F9340
:102BE0001F93CF93DF9300D01F92CDB7DEB78C0138
:102BF000B62EF80183819481A581B681892B8A2B19
:102C00008B2BD1F00E942F1EC0905505D0905605F9
:102C1000E0905705F09058056C197D098E099F09C1
:102C2000D8011396CD90DD90ED90FC9016976C1521
:102C30007D058E059F05E8F20E942F1E60935505C5
:102C4000709356058093570590935805E0905B0567
:102C5000F0905C05E114F10451F1F701A484D8016E
:102C600011968D919C9112978436910508F41486E3
:102C7000D701ED91FC91C280D3804B2DB701CE01DD
:102C800001960E944715F70145855685628173813B
:102C90009E012F5F3F4FC701F6010995D7011C9692
:102CA000AC921C971496ED90FC901597D3CF69E1E8
:102CB00070E0C8010E949A150F900F900F90DF915D
:102CC000CF911F910F91FF90EF90DF90CF90BF9029
:102CD000AF900895CF92DF92EF92FF920F931F93E0
:102CE000CF93DF93EC014423F1F06115710581F17D
:102CF0009B0140E050E060E472E48FE090E00E94CD
:102D00006B24CB80DC80ED80FE8089019A010C155C
:102D10001D052E053F0510F4970186010B831C83CA
:102D20002D833E8315C06115710571F09B0140E054
:102D300050E060E472E48FE090E00E946B242B830B
:102D40003C834D835E8304C01B821C821D821E82D5
:102D5000DF91CF911F910F91FF90EF90DF90CF9077
:102D60000895CF92DF92EF92FF920F931F93CF932C
:102D7000DF93EC016B018A017901121613061CF036
:102D80007A0100E010E0E881F9810480F581E02D0E
:102D9000CE010995C801880F991F800F911F8C0DD6
:102DA0009D1D9B838A83FE86ED86E881F9810084E0
:102DB000F185E02DCE01099541E0BC018DE595E05E
:102DC0000E946A16CE01DF91CF911F910F91FF9063
:102DD000EF90DF90CF9008958FEF80935D05109274
:102DE0005F0510925E05089511240895CF93DF9337
:102DF000EC012881269F212D28832981269F212DC2
:102E000029832A81269F212D2A830E94F416CE0130
:102E1000DF91CF910895FA0120E030E00396261764
:102E200037076CF44081DC0113974C934181119674
:102E30004C93428111964C932F5F3F4FEFCF0895F3
:102E4000CF92DF92EF92FF920F931F93CF93DF9376
:102E50001F92CDB7DEB77B018C01C12CD12CCE14D3
:102E6000DF0461F0642FC80149830E94F6168FEFDA
:102E7000C81AD80A0D5F1F4F4981F1CF0F90DF911B
:102E8000CF911F910F91FF90EF90DF90CF90089519
:102E900040950C942017FC012081222321F0269FCD
:102EA000212D09F02F5FFC0120830895FF920F93DD
:102EB0001F93CF93DF9300D000D0CDB7DEB7FC01D6
:102EC0008B014081F1805281842F8F71880F880F90
:102ED000880F282F35E5239F212D1124342F30749E
:102EE000942F907247FD25C031110EC0911106C07C
:102EF000822F80958B832A8319823FC08BEA8B8334
:102F00002B5A2A83198239C091110DC0382F4AEAF1
:102F1000349F312D11249BEA931B9B8325552A83D3
:102F2000198280E02AC01B8280E0822F80958A83EC
:102F300012C0311112C091110BC01B82282F3AEA26
:102F4000239F212D11248BEA821B8A832B5A03C0D5
:102F50002B831A822095298310C0911106C085E524
:102F6000820F8B831A828BEA06C08BEA820F8B83D7
:102F70001A8280E085E5821B89832FEFF21601F12A
:102F80006F2DCE0103965C830E944B176F2DCE01EF
:102F900002960E944B176F2DCE0101960E944B178F
:102FA00011246F2D6095669F612D11248B81860FF2
:102FB0008B838A81860F8A838981860F89835C81CE
:102FC0005F3FC9F0F12C2F2D552321F0559F212D66
:102FD00009F02F5FF22E622FCE0103960E944B174D
:102FE0006F2DCE0102960E944B176F2DCE010196D8
:102FF0000E944B1711248B81F80180838A81818381
:10300000898182830F900F900F900F90DF91CF9165
:103010001F910F91FF900895FC011182108273831C
:103020006283158214820895DC01ED91FC91309742
:1030300009F009940895DC011296ED91FC91139723
:10304000309709F009940895DC011496ED91FC91F4
:103050001597309709F009940895FC0181E0808369
:10306000748363837283618315821682178210864C
:103070000895CF93DF93EC017C836B830E94231E22
:103080006D837E838F839887CE01DF91CF910895E2
:103090000F931F93CF93DF93EC018B0189819A816A
:1030A0000E9424181C830B831A830983C8010E9481
:1030B00014180E94231E6D837E838F839887CE0110
:1030C000DF91CF911F910F910895CF93DF93EC0182
:1030D000288189819A81222321F00E941418188264
:1030E0000CC06B817C818617970719F0CE010E9476
:1030F000481889819A810E941B18CE01DF91CF91D7
:103100000895EF92FF920F931F93CF93DF931F9237
:10311000CDB7DEB77C01FC0100811181C801698354
:103120000E94A3266981681719F0C8010E94AB2686
:10313000C7010F90DF91CF911F910F91FF90EF90FA
:1031400008958F929F92AF92BF92CF92EF920F937A
:103150001F93CF93DF93CDB7DEB72B970FB6F894BD
:10316000DEBF0FBECDBF5C014C0181E1880E911C1A
:10317000C4010E94700B882309F4AFC080910B0535
:103180008E3F39F490910A05F5018081981709F472
:1031900064C080910C05843019F580910E059091E2
:1031A0000F05A0911005B0911105F5018483958359
:1031B000A683B78380910A05838390910B05928340
:1031C0009081891381C0C4010E940C0C882309F4EA
:1031D0007BC040E06DE373E0C4010E94531074C0F3
:1031E00080910C058230F9F480910E0590910F05C5
:1031F000F5019187808780910A05838390910B0563
:1032000092839081891305C0C4010E940C0C811126
:103210005DC0F50180859185039709F055C081E077
:103220000E949E1451C080910B058E3F09F055C03D
:1032300080910C058D3008F450C06EEF70E080EB8B
:1032400095E00E94CD2180EB95E00E94F92182E07B
:1032500090E0F5019187808740C06BE171E080EBE1
:1032600095E00E94CD2180EB95E00E94F9218EE54A
:1032700091E09A838983F50183898B8384898C8388
:1032800085898D8386898E8387898F83808D8887C2
:10329000818D8987828D8A87838D8B8789E0C82E6F
:1032A000E12C0091800510918105209182053091DB
:1032B0008305409184055091850560918605CE0176
:1032C00001960E94BB1465CF81E008C040E06DE329
:1032D00073E0C4010E9453109CCF80E02B960FB680
:1032E000F894DEBF0FBECDBFDF91CF911F910F913C
:1032F000EF90CF90BF90AF909F908F9008950F93D5
:103300001F93FC014481558166817781842F8370EE
:10331000808B8A019B0192E036952795179507953A
:103320009A95D1F71370138702878A019B01ACE04D
:103330003695279517950795AA95D1F71370158798
:103340000487B6E17695679557954795BA95D1F775
:10335000578746871F910F91089540E35FEE68E01D
:1033600080E895E00E9426118EE591E09093760525
:10337000809375058AE08093770582E080937805D5
:103380001092790581E080930D0510927B058FE105
:1033900080937C0510927D0508959F92AF92BF9215
:1033A000CF92DF92EF92FF920F931F93CF93DF9311
:1033B00000D0CDB7DEB77C01162F942EA22E9AE254
:1033C000C92ED12C63E072E080EB95E00E94CD2104
:1033D00080EB95E00E94F9211F3FC9F48AE290E05A
:1033E0000E94A326B82EF701808361EE71E080EB86
:1033F00095E00E94CD214AE050E06B2D80EB95E0F6
:103400000E94BD2280EB95E00E94F9211AC06DEB6D
:1034100071E080EB95E00E94CD214AE050E0612F01
:1034200080EB95E00E94BD2280EB95E00E94F9219F
:10343000DA82C982612FCE0101960E948118F701BC
:103440001083F70140814F3F41F563E971E080EB64
:1034500095E00E94CD2180EB95E00E94F9216EE677
:1034600071E080EB95E00E94CD2180EB95E00E9419
:10347000F92180EB95E00E94A51F892BD1F341E053
:1034800060E070E080EB95E00E943B23DA82C98225
:10349000CE0101960E94811895CF6701F1E1CF0E10
:1034A000D11C292D6A2DC6010E94E90D61E0C601DB
:1034B0000E94B31061E0C6010E94ED10602FC601AA
:1034C0000E94D80C8FEF93E0F70197878687958746
:1034D00084879387828780816AE00E941524918384
:1034E00061E089E00E940D1F60E089E00E94461FB4
:1034F00081E090E0F70191878087118100816BE383
:1035000071E080EB95E00E94CD214AE050E0602F11
:1035100080EB95E00E94BD2264E671E080EB95E0CF
:103520000E94CD214AE050E0612F80EB95E00E949F
:10353000BD2280EB95E00E94F9210F900F90DF9162
:10354000CF911F910F91FF90EF90DF90CF90BF90A0
:10355000AF909F9008950F931F93CF93DF93EC014B
:103560008B0160E472E080EB95E00E94CD211F8F1B
:103570000E8FF801008111816BE372E080EB95E022
:103580000E94CD214AE050E0B80180EB95E00E9416
:10359000C422EE8DFF8D0281138166E372E080EB21
:1035A00095E00E94CD214AE050E0B80180EB95E023
:1035B0000E94C422EE8DFF8DC481D58161E372E04B
:1035C00080EB95E00E94CD214AE050E0BE0180EB07
:1035D00095E00E94C42280EB95E00E94F92165E10C
:1035E00072E080EB95E00E94CD2180EB95E0DF91C9
:1035F000CF911F910F910C94F921CF92DF92EF920E
:10360000FF920F931F93CF93DF93FC018EE8C82E98
:1036100082E0D82E93E0E92EF12CC681D781208557
:103620003185A6014C1B5D0B421B530B0285138594
:10363000CA01801B910B79F1BC016E5F7F4F653031
:103640007105C8F4C217D30740F4C017D10728F496
:10365000C80FD91FD783C6831EC02C173D0740F45F
:103660002017310728F4280F391F3187208713C00E
:103670005387428710C0B7010E943524C60FD71F59
:10368000D783C683260F371F31872087060F171F62
:1036900013870287C2CFDF91CF911F910F91FF90C7
:1036A000EF90DF90CF900895CF92DF92EF92FF924C
:1036B0000F931F9300E010E020E030E44017510723
:1036C0006207730740F4A2E0369527951795079592
:1036D000AA95D1F7F3CF80E090E0DC010115110548
:1036E0002105310509F168017901C80ED91EEA1ECC
:1036F000FB1E4C155D056E057F0550F04C195D09EC
:103700006E097F09D701C601800F911FA21FB31F49
:10371000B695A79597958795F2E0369527951795D5
:103720000795FA95D1F7DACF84179507A607B7075B
:1037300018F40196A11DB11D1F910F91FF90EF90FC
:10374000DF90CF900895CF92DF92EF92FF92CF93C8
:10375000DF93D82FC92FE82FF92FE60FF11DE60FC1
:10376000F11D84859585A081B181468157818A1795
:103770009B0728F09C012A1B3B0BD90103C0A81B07
:10378000B90B9D010E948A246B017C019A01DA0128
:103790000E948A24C60ED71EE81EF91EB701A60194
:1037A0008D2F9C2FDF91CF91FF90EF90DF90CF90E6
:1037B0000C94541B262F862F6AE00E941524822F1A
:1037C000891B292F30E0280F311D223031051CF4D0
:1037D00081E0890F089580E00895CF92DF92EF9203
:1037E000FF92CF93DF93EC01F62E0E94DA1B2E8D11
:1037F0009F8DE22FF92FE80FF11DE80FF11DA08139
:10380000B181FE01EF0DF11DEF0DF11D46815781D4
:10381000A417B507C0F09D010E948A246B017C01AA
:103820009A01DA010E948A24C61AD70AE80AF90A1C
:10383000B701A601CE01DF91CF91FF90EF90DF900D
:10384000CF900C94541B80E090E0DF91CF91FF90DB
:10385000EF90DF90CF900895262F862F6AE00E9488
:103860001524822F891B292F30E0280F311D232B8F
:1038700019F08FEF890F089582E00895EF92FF927B
:103880000F931F93CF93DF93EC01E62E0E8D1F8DC8
:103890000E94DA1BF82E6E2DCE010E942C1CD8013E
:1038A000AF0DB11DAF0DB11DF801E80FF11DE80F0F
:1038B000F11D8D919C9120813181820F931F8D503C
:1038C0009D4F96958795DF91CF911F910F91FF9016
:1038D000EF900895AF92BF92CF92DF92EF92FF9256
:1038E0000F931F93CF93DF93EC01F62EDE8CEF8CBA
:1038F0000E94DA1BED2DFE2DE80FF11DE80FF11DE2
:10390000008111816F2DCE010E942C1CED2DFE2D0A
:10391000E80FF11DE80FF11DA080B180C501800FF7
:10392000911F833F9240D0F16F2DCE010E943E1C2B
:103930006C01E12CF12CA7019601201B310B4109F0
:103940005109C701B6010E940524AB01BC01CE019B
:103950000E94541B8C01A70196012A193B094109B9
:103960005109C701B601635F7240810991090E9444
:103970000524AB01BC01CE010E94541B9801DC015F
:103980000E948A24660F771F881F991F23EF32E059
:1039900040E050E00E944924C90102C080E090E06C
:1039A000DF91CF911F910F91FF90EF90DF90CF901B
:1039B000BF90AF900895FF920F931F93CF93DF9323
:1039C0008C01F62E0E942C1CF801E80FF11DE80F67
:1039D000F11DC681D7816F2DC8010E94DA1B482FC7
:1039E0009E01A3EFB2E00E948A24F801E40FF11DCA
:1039F000E40FF11D0680F781E02D9E0140E050E0CC
:103A00002E0F3F1F411D511D0E944924C901DF9106
:103A1000CF911F910F91FF900895CF92DF92EF9277
:103A2000FF921F93CF93DF937C01C82FDF2D10E00F
:103A3000612FC7010E946A1C9F838E831F5F22969D
:103A40001330B1F7C7010E94FD1ACE2DDF2D10E013
:103A5000612FC7010E94ED1B899399931F5F13305B
:103A6000B9F7CE2DDF2D10E0612FC7010E94DB1CBE
:103A70009D878C871F5F22961330B1F7CE2DDF2DE7
:103A800010E0612FC7010E94A31B9B8B8A8B1F5FD5
:103A900022961330B1F7E70183EFC82E82E0D82ECB
:103AA000E12CF12C2E813F81AFEFBFEF0E948A24E1
:103AB000A70196010E944924398F288F1150229620
:103AC0001111F0CFDF91CF911F91FF90EF90DF9018
:103AD000CF90089508958230E8F4E82FF0E0EE0FDB
:103AE000FF1FE45FFE4F71836083813041F080915E
:103AF00069008C7F842B80936900E89A08958091F7
:103B00006900440F551F440F551F837F842B8093FA
:103B10006900E99A08951F920F920FB60F9211242F
:103B20002F933F934F935F936F937F938F939F93C5
:103B3000AF93BF93EF93FF93E0910C01F0910D01D0
:103B40000995FF91EF91BF91AF919F918F917F91D7
:103B50006F915F914F913F912F910F900FBE0F90FA
:103B60001F9018951F920F920FB60F9211242F934A
:103B70003F934F935F936F937F938F939F93AF93F5
:103B8000BF93EF93FF93E0910E01F0910F01099520
:103B9000FF91EF91BF91AF919F918F917F916F9125
:103BA0005F914F913F912F910F900FBE0F901F90FB
:103BB00018951F920F920FB60F9211242F933F93D7
:103BC0008F939F93AF93BF938091A8059091A90580
:103BD000A091AA05B091AB053091A70523E0230F72
:103BE0002D3720F40196A11DB11D05C026E8230F35
:103BF0000296A11DB11D2093A7058093A80590935F
:103C0000A905A093AA05B093AB058091AC0590914E
:103C1000AD05A091AE05B091AF050196A11DB11DF6
:103C20008093AC059093AD05A093AE05B093AF051E
:103C3000BF91AF919F918F913F912F910F900FBEA8
:103C40000F901F9018952FB7F8946091A805709168
:103C5000A9058091AA059091AB052FBF08953FB7A4
:103C6000F8948091AC059091AD05A091AE05B0910E
:103C7000AF0526B5A89B05C02F3F19F00196A11DE1
:103C8000B11D3FBF6627782F892F9A2F620F711DB4
:103C9000811D911D42E0660F771F881F991F4A956D
:103CA000D1F708958F929F92AF92BF92CF92DF92F9
:103CB000EF92FF926B017C010E942F1E4B015C0171
:103CC000C114D104E104F104F1F00E9404240E9423
:103CD0002F1E681979098A099B09683E734081057E
:103CE000910570F321E0C21AD108E108F10888EECD
:103CF000880E83E0981EA11CB11CC114D104E104FC
:103D0000F10429F7DDCFFF90EF90DF90CF90BF90C7
:103D1000AF909F908F900895789484B5826084BD11
:103D200084B5816084BD85B5826085BD85B58160BF
:103D300085BDEEE6F0E0808181608083E1E8F0E01F
:103D40001082808182608083808181608083E0E84E
:103D5000F0E0808181608083E1EBF0E0808184602D
:103D60008083E0EBF0E0808181608083EAE7F0E02F
:103D70008081846080838081826080838081816093
:103D800080838081806880831092C10008958E3086
:103D900008F08E5087702091100190E4299F9001C7
:103DA0001124822B80937C0080917A008064809320
:103DB0007A0080917A0086FDFCCF80917800209176
:103DC000790090E0922B0895833081F028F48130BF
:103DD00099F08230A1F008958730A9F08830B9F0C9
:103DE0008430D1F4809180008F7D03C08091800069
:103DF0008F7780938000089584B58F7702C084B553
:103E00008F7D84BD08958091B0008F7703C080912D
:103E1000B0008F7D8093B0000895CF93DF9390E042
:103E2000FC01E959FD4F2491FC01E558FD4F8491B7
:103E3000882349F190E0880F991FFC01ED55FD4F53
:103E4000A591B49187569D4FFC01C591D4919FB720
:103E5000611108C0F8948C91209582238C938881FD
:103E600082230AC0623051F4F8948C91322F30953D
:103E700083238C938881822B888304C0F8948C914F
:103E8000822B8C939FBFDF91CF9108950F931F9347
:103E9000CF93DF931F92CDB7DEB7282F30E0F90123
:103EA000ED5AFD4F8491F901E959FD4F1491F90143
:103EB000E558FD4F04910023C9F0882321F0698360
:103EC0000E94E41E6981E02FF0E0EE0FFF1FE7562D
:103ED000FD4FA591B4919FB7F8948C91611103C0E7
:103EE0001095812301C0812B8C939FBF0F90DF9190
:103EF000CF911F910F910895CF93DF93282F30E03A
:103F0000F901ED5AFD4F8491F901E959FD4FD49122
:103F1000F901E558FD4FC491CC2391F081110E9425
:103F2000E41EEC2FF0E0EE0FFF1FE157FD4FA591CF
:103F3000B4912C912D2381E090E021F480E002C027
:103F400080E090E0DF91CF910895FC01818D228D7A
:103F500090E0805C9F4F821B91098F739927089591
:103F6000FC01918D828D981731F0828DE80FF11D43
:103F7000858D90E008958FEF9FEF0895FC01918D5E
:103F8000828D981761F0828DDF01A80FB11D5D96BB
:103F90008C91928D9F5F9F73928F90E008958FEF29
:103FA0009FEF089582E491E2892B49F080E090E050
:103FB000892B29F00E94422181110C940000089560
:103FC000FC01848DDF01A80FB11DA35ABF4F2C91B6
:103FD000848D90E001968F739927848FA689B78985
:103FE0002C93A089B1898C9180648C93938D848D5E
:103FF000981306C00288F389E02D80818F7D80832D
:104000000895CF93DF93EC01888D8823C9F0EA8966
:10401000FB89808185FD05C0A889B9898C9186FDC1
:104020000FC00FB607FCF5CF808185FFF2CFA889BE
:10403000B9898C9185FFEDCFCE010E94E01FE7CFBB
:10404000DF91CF910895CF92DF92FF920F931F934C
:10405000CF93DF931F92CDB7DEB76C0181E0D6011D
:1040600058968C9358975B969C915B975C968C9135
:104070005C97981307C05096ED91FC915197808101
:1040800085FD2EC0F601038D10E00F5F1F4F0F73EB
:104090001127F02EF601848DF81211C00FB607FC1F
:1040A000F9CFD6015096ED91FC915197808185FF13
:1040B000F1CFC60169830E94E01F6981EBCF838D38
:1040C000E80FF11DE35AFF4F6083D6015B960C9316
:1040D0005B975296ED91FC915397808180620CC062
:1040E000D6015696ED91FC91579760835096ED91CD
:1040F000FC91519780818064808381E090E00F90F3
:10410000DF91CF911F910F91FF90DF90CF90089595
:10411000BF92CF92DF92EF92FF92CF93DF93EC01A9
:104120006A017B01B22EE889F98982E0808341151A
:1041300081EE580761057105A1F060E079E08DE33B
:1041400090E0A70196010E944924215031094109BC
:1041500051095695479537952795211580E13807E0
:1041600098F0E889F989108260E874E88EE190E0BF
:10417000A70196010E9449242150310941095109A2
:104180005695479537952795EC85FD853083EE85C7
:10419000FF852083188EEC89FD89B082EA89FB892E
:1041A000808180618083EA89FB8980818860808347
:1041B000EA89FB89808180688083EA89FB89808124
:1041C0008F7D8083DF91CF91FF90EF90DF90CF9034
:1041D000BF9008951F920F920FB60F9211242F9344
:1041E0008F939F93EF93FF93E091C005F091C105EA
:1041F0008081E091C605F091C70582FD12C09081D3
:104200008091C9058F5F8F732091CA05821751F085
:10421000E091C905F0E0E055FA4F958F8093C9050C
:1042200001C08081FF91EF919F918F912F910F900D
:104230000FBE0F901F9018951F920F920FB60F92FE
:1042400011242F933F934F935F936F937F938F939B
:104250009F93AF93BF93EF93FF9380EB95E00E9402
:10426000E01FFF91EF91BF91AF919F918F917F914F
:104270006F915F914F913F912F910F900FBE0F90D3
:104280001F90189580EB95E00E94A51F21E0892BD7
:1042900009F420E0822F08951092B3051092B20520
:1042A00088EE93E0A0E0B0E08093B4059093B5056C
:1042B000A093B605B093B7058FE293E09093B10554
:1042C0008093B00585EC90E09093BD058093BC058C
:1042D00084EC90E09093BF058093BE0580EC90E065
:1042E0009093C1058093C00581EC90E09093C30545
:1042F0008093C20582EC90E09093C5058093C4053D
:1043000086EC90E09093C7058093C6051092C9058E
:104310001092CA051092CB051092CC050895CF9249
:10432000DF92EF92FF920F931F93CF93DF937C0165
:104330006A01EB0100E010E00C151D0571F06991B8
:10434000D701ED91FC910190F081E02DC701099515
:10435000892B19F00F5F1F4FEFCFC801DF91CF916D
:104360001F910F91FF90EF90DF90CF90089561150E
:10437000710581F0DB010D900020E9F7AD0141509E
:104380005109461B570BDC01ED91FC910280F38132
:10439000E02D099480E090E00895EF92FF920F9352
:1043A0001F93CF93DF938C017B01C0E0D0E0F70136
:1043B000EC0FFD1F6491662359F0F801A081B181D3
:1043C000ED91FC91C8010995892B11F02196EFCF51
:1043D000CE01DF91CF911F910F91FF90EF90089543
:1043E0000C94B721DC01ED91FC910190F081E02D5E
:1043F00009946BE373E00C94B7210F931F93CF9351
:10440000DF93EC010E94B7218C01CE010E94F921BB
:10441000800F911FDF91CF911F910F9108958F927F
:104420009F92AF92BF92DF92EF92FF920F931F93F2
:10443000CF93DF93CDB7DEB7A1970FB6F894DEBF69
:104440000FBECDBF7C01F42FD52ECB0119A2223097
:1044500008F42AE08E010F5D1F4F822E912CA12CB3
:10446000B12C6F2F7D2DA50194010E944924F22FBC
:10447000D32ECA01015011096A3014F4E0E301C0DF
:10448000E7E3E60FD801EC93232B242B252B49F7E8
:10449000B801C7010E94B721A1960FB6F894DEBFFC
:1044A0000FBECDBFDF91CF911F910F91FF90EF9085
:1044B000DF90BF90AF909F908F900895CF92DF9242
:1044C000EF92FF920F931F93CF93DF93EC016A015A
:1044D0007B012115310579F4E881F9810190F081A2
:1044E000E02D642FDF91CF911F910F91FF90EF90FE
:1044F000DF90CF9009942A303105E9F477FF1AC094
:104500006DE20E94F2218C0144275527BA014C1913
:104510005D096E097F092AE0CE010E940F22800FFB
:10452000911FDF91CF911F910F91FF90EF90DF903E
:10453000CF9008952AE0B701A601CE01DF91CF9177
:104540001F910F91FF90EF90DF90CF900C940F226E
:104550009A01AB01662757FD6095762F0C945E2279
:104560002115310541F4DC01ED91FC910190F081C0
:10457000E02D642F09940C940F229A01462F50E0ED
:1045800060E070E00C94B0229A01AB0160E070E052
:104590000C94B0220F931F93CF93DF93EC010E94F2
:1045A000231E688779878A879B87E881F981008441
:1045B000F185E02DCE01099597FF15C00E94231EBD
:1045C000088519852A853B85601B710B820B930B2F
:1045D0000C811D812E813F8160177107820793072F
:1045E00020F38FEF9FEFDF91CF911F910F910895EF
:1045F000FF920F931F93CF93DF93EC018B01F42E67
:10460000CE010E94CA229C0197FD28C08D329105DF
:1046100019F1C0970A9710F1FF2019F02E323105D9
:10462000F9F001301105F9F00230110569F42D306F
:10463000310551F034F4295031092230310520F090
:1046400012C02032310579F4E881F9810680F781C2
:10465000E02DCE010995D4CF8DE203C0C90105C07C
:104660008EE290E002C08FEF9FEFDF91CF911F911C
:104670000F91FF900895CF92DF92FF920F931F93B7
:10468000CF93DF9300D000D0CDB7DEB76C01042FFD
:1046900040E00E94F822FC0197FD4BC020E030E092
:1046A000A901F12C112707FD1095E017F107E9F09A
:1046B000ED32F105C1F0CF01C0970A97B0F4AAE03E
:1046C000B0E00E9499249B01AC01CF01AA2797FD7D
:1046D000A095BA2F280F391F4A1F5B1F205331099D
:1046E0004109510902C0FF24F394D601ED91FC91D8
:1046F0000680F781E02DC60129833A834B835C83D2
:104700000995C6010E94CA22FC01C09729813A81FD
:104710004B815C810A9748F2E017F10731F2FF20E4
:1047200061F066277727CB01621B730B840B950B17
:1047300006C060E070E0CB0102C0CA01B9010F9071
:104740000F900F900F90DF91CF911F910F91FF90DD
:10475000DF90CF9008954F925F926F927F92AF92C9
:10476000BF92CF92DF92EF92FF920F931F93CF935E
:10477000DF93CDB7DEB729013A01621B730B840BBF
:10478000950B29893A894B895C892A193B094C097F
:104790005D09298B3A8B4B8B5C8B9B01AC01698942
:1047A0007A898B899C890E940524E418F5080609FA
:1047B0001709A80197010E946B242A0D3B1D4C1D6F
:1047C0005D1DCA01B901DF91CF911F910F91FF903B
:1047D000EF90DF90CF90BF90AF907F906F905F9001
:1047E0004F9008950E94AA2408950E948C1E0E9452
:1047F000F4230E94FC09C2EDDFE10E94930A209796
:10480000E1F30E94D21FF9CF0895DB018F939F93AC
:104810000E949924BF91AF91A29F800D911DA39FEB
:10482000900DB29F900D11240895991B79E004C05A
:10483000991F961708F0961B881F7A95C9F78095DF
:104840000895AA1BBB1B51E107C0AA1FBB1FA617D7
:10485000B70710F0A61BB70B881F991F5A95A9F729
:1048600080959095BC01CD01089597FB072E16F415
:10487000009407D077FD09D00E94212407FC05D0C1
:104880003EF4909581959F4F0895709561957F4F67
:104890000895A1E21A2EAA1BBB1BFD010DC0AA1F81
:1048A000BB1FEE1FFF1FA217B307E407F50720F099
:1048B000A21BB30BE40BF50B661F771F881F991F14
:1048C0001A9469F760957095809590959B01AC015D
:1048D000BD01CF010895052E97FB1EF400940E94A0
:1048E000822457FD07D00E94492407FC03D04EF4D0
:1048F0000C94822450954095309521953F4F4F4F11
:104900005F4F089590958095709561957F4F8F4F7B
:104910009F4F0895A29FB001B39FC001A39F700D48
:10492000811D1124911DB29F700D811D1124911DB7
:1049300008950E948A24A59F900DB49F900DA49F76
:10494000800D911D11240895EE0FFF1F0590F49125
:10495000E02D099481E090E0F8940C949627AEE065
:10496000B0E0E5EBF4E20C946D270D891E8986E03A
:104970008C831A8309838FEF9FE79E838D83AE011B
:10498000475E5F4F6F89788DCE0101960E94D124DA
:10499000EF81F885E00FF11F10822E96E4E00C9471
:1049A0008927ACE0B0E0E7EDF4E20C945F277C01EE
:1049B0006B018A01FC0117821682838181FFBDC1D0
:1049C000CE0101964C01F7019381F60193FD85918B
:1049D00093FF81916F01882309F4ABC1853239F4CB
:1049E00093FD859193FF81916F01853229F4B70181
:1049F00090E00E94CF26E7CF512C312C20E02032CE
:104A0000A0F48B3269F030F4803259F0833269F4CB
:104A100020612CC08D3239F0803339F4216026C0FA
:104A20002260246023C0286021C027FD27C030ED0C
:104A3000380F3A3078F426FF06C0FAE05F9E300D5A
:104A40001124532E13C08AE0389E300D1124332ECA
:104A500020620CC08E3221F426FD6BC1206406C09A
:104A60008C3611F4206802C0883641F4F60193FDBB
:104A7000859193FF81916F018111C1CF982F9F7D07
:104A80009554933028F40C5F1F4FFFE3F9830DC05A
:104A9000833631F0833771F0833509F05BC022C073
:104AA000F801808189830E5F1F4F44244394512C69
:104AB000540115C03801F2E06F0E711CF801A0809E
:104AC000B18026FF03C0652D70E002C06FEF7FEF5D
:104AD000C5012C870E94C4262C0183012C852F77C9
:104AE000222E17C03801F2E06F0E711CF801A08071
:104AF000B18026FF03C0652D70E002C06FEF7FEF2D
:104B0000C5012C870E94B9262C012C852068222EF5
:104B1000830123FC1BC0832D90E048165906B0F496
:104B2000B70180E290E00E94CF263A94F4CFF501DD
:104B300027FC859127FE81915F01B70190E00E94DB
:104B4000CF2631103A94F1E04F1A51084114510424
:104B500071F7E5C0843611F0893639F5F80127FF81
:104B600007C060817181828193810C5F1F4F08C0F3
:104B700060817181882777FD8095982F0E5F1F4F88
:104B80002F76B22E97FF09C090958095709561950C
:104B90007F4F8F4F9F4F2068B22E2AE030E0A40154
:104BA0000E940127A82EA81844C0853729F42F7E1B
:104BB000B22E2AE030E025C0F22FF97FBF2E8F36CB
:104BC000C1F018F4883579F0B4C0803719F088370F
:104BD00021F0AFC02F2F2061B22EB4FE0DC08B2D5F
:104BE0008460B82E09C024FF0AC09F2F9660B92E9A
:104BF00006C028E030E005C020E130E002C020E13E
:104C000032E0F801B7FE07C0608171818281938133
:104C10000C5F1F4F06C06081718180E090E00E5FE5
:104C20001F4FA4010E940127A82EA818FB2DFF7773
:104C3000BF2EB6FE0BC02B2D2E7FA51450F4B4FE54
:104C40000AC0B2FC08C02B2D2E7E05C07A2C2B2D5D
:104C500003C07A2C01C0752C24FF0DC0FE01EA0DA3
:104C6000F11D8081803311F4297E09C022FF06C026
:104C70007394739404C0822F867809F0739423FD93
:104C800013C020FF06C05A2C731418F4530C571885
:104C9000732C731468F4B70180E290E02C870E94B3
:104CA000CF2673942C85F5CF731410F4371801C0F8
:104CB000312C24FF12C0B70180E390E02C870E94C2
:104CC000CF262C8522FF17C021FF03C088E590E086
:104CD00002C088E790E0B7010CC0822F867859F0B7
:104CE00021FD02C080E201C08BE227FD8DE2B70109
:104CF00090E00E94CF26A51438F4B70180E390E03D
:104D00000E94CF265A94F7CFAA94F401EA0DF11D20
:104D10008081B70190E00E94CF26A110F5CF33200B
:104D200009F451CEB70180E290E00E94CF263A9478
:104D3000F6CFF7018681978102C08FEF9FEF2C9607
:104D4000E2E10C947B27F999FECF92BD81BDF89AE0
:104D5000992780B50895262FF999FECF1FBA92BDE5
:104D600081BD20BD0FB6F894FA9AF99A0FBE01964C
:104D70000895FC010590615070400110D8F78095AE
:104D800090958E0F9F1F0895FC0161507040019017
:104D90000110D8F7809590958E0F9F1F08950F935F
:104DA0001F93CF93DF93182F092FEB018B8181FD88
:104DB00003C08FEF9FEF20C082FF10C04E815F8144
:104DC0002C813D81421753077CF4E881F9819F01D2
:104DD0002F5F3F4F39832883108306C0E885F9850C
:104DE000812F0995892B29F72E813F812F5F3F4F16
:104DF0003F832E83812F902FDF91CF911F910F91B1
:104E00000895FA01AA27283051F1203181F1E89460
:104E10006F936E7F6E5F7F4F8F4F9F4FAF4FB1E0AD
:104E20003ED0B4E03CD0670F781F891F9A1FA11DA8
:104E3000680F791F8A1F911DA11D6A0F711D811DA9
:104E4000911DA11D20D009F468943F912AE0269F6E
:104E500011243019305D3193DEF6CF010895462FCD
:104E60004770405D4193B3E00FD0C9F7F6CF462FAE
:104E70004F70405D4A3318F0495D31FD4052419317
:104E800002D0A9F7EACFB4E0A695979587957795D4
:104E90006795BA95C9F700976105710508959B015B
:104EA000AC010A2E06945795479537952795BA95E4
:104EB000C9F7620F731F841F951FA01D08952F92BD
:104EC0003F924F925F926F927F928F929F92AF929A
:104ED000BF92CF92DF92EF92FF920F931F93CF93E7
:104EE000DF93CDB7DEB7CA1BDB0B0FB6F894DEBF7E
:104EF0000FBECDBF09942A88398848885F846E84A4
:104F00007D848C849B84AA84B984C884DF80EE80ED
:104F1000FD800C811B81AA81B981CE0FD11D0FB6F6
:104F2000F894DEBF0FBECDBFED010895F894FFCF1A
:104F300000004D0680000100000039056A1D6A1D51
:104F40000100003100F9183000FB302C001C47260E
:104F500000825A1F006D6A170041760E00897D0499
:104F600000000000F223F223F223F2238501000067
:104F70000000FC06DB08EB05AC0185010000000029
:104F800097073208CC058801850100000000061053
:104F9000B90B700B5310B310D80C540F3F0BF20C1D
:104FA000730D690CD3105A0B4B0B464C583F454FB1
:104FB0004600464C583F0048616E647368616B65FB
:104FC000206661696C00464C583A25753A00464C9B
:104FD000583F4F4B202841434B2073656E74290086
:104FE000464C58494D473A00726164696F205B0036
:104FF0005D203E2000464C583A25753A4F4B0046FE
:105000004C583F4F4B20726573656E6400494D47A5
:1050100020657863656564732033316B2C2072657D
:10502000667573696E6720697400464C583F4E4F31
:105030004B0052465458203E2000524641434B20DC
:105040003E200054696D656F7574207761697469DD
:105050006E6720666F72207061636B6574204143D8
:105060004B2C2061626F7274696E6720464C41530D
:1050700048206F7065726174696F6E202E2E2E004D
:10508000464C583A494E560054696D656F75742008
:10509000726563656976696E6720464C41534820A6
:1050A000696D6167652066726F6D20534552494195
:1050B0004C2C2061626F7274696E672E2E2E000A6E
:1050C000464C583F4F4B00464C41534820494D47B2
:1050D000205452414E534D495353494F4E2053553E
:1050E000434345535300464C41534820494D4720C4
:1050F0005452414E534D495353494F4E2046414916
:105100004C005245424F4F54494E4700464C415384
:105110004820494D47205452414E534D495353491D
:105120004F4E2053554343455353210A0054696D54
:10513000656F75742F4572726F722C206572617382
:10514000696E67207772697474656E20646174613A
:10515000202E2E2E2000444F4E450000000000233C
:10516000208F21A51FBE1FB01F01200D0A006E61F8
:0A5170006E00696E66006F7666003F
:00000001FF
