:100000000C94F6010C9450140C9477140C941E026A
:100010000C941E020C941E020C941E020C941E02E0
:100020000C941E020C941E020C941E020C941E02D0
:100030000C941E020C941E020C941E020C941E02C0
:100040000C949E140C941E020C94BE170C94F01782
:100050000C941E020C941E020C941E020C941E02A0
:100060000C941E020C941E024C6F636174696F6ED7
:100070002E202063616C6962726174656420726114
:100080006E67652066696E6465722E004C6F6361F1
:1000900074696F6E2E202063616C6962726174698D
:1000A0006E672072616E67652066696E6465722E88
:1000B0002E2E004C6F636174696F6E2E2064656C28
:1000C000617920666F722063616C69627261746924
:1000D0006F6E004C6F636174696F6E2E20207374B5
:1000E0006F72696E672064697374616E63652069FD
:1000F0006E666F726D6174696F6E20696E206D65DA
:1001000073737361676520696E6465783D004C6F39
:10011000636174696F6E2E20737461727475702ED2
:10012000003D3D3D0053554D202873656E736F7241
:100130002B6C6F632B322A73656E642920287573CC
:10014000293D0073656E6454696D652028757329B7
:100150003D006C6F636174696F6E54696D65202832
:100160007573293D0073656E736F7254696D6520F8
:10017000287573293D006F7468657254696D652038
:10018000287573293D003D3D3D2054696D657273AE
:100190003A0054583A200052583A20004E6574777D
:1001A0006F726B2E2073657474696E672073797338
:1001B00074656D53746174653D00097020323D00B3
:1001C0002D20007C00097020313D002D20007C0096
:1001D000097020303D002D20007C00096420303D56
:1001E0000020313D0020323D004E6574776F726B08
:1001F0002E204D53472066726F6D20004E65747738
:100200006F726B2E2050726F6772616D6D65722018
:10021000747261666669632E004E6574776F726BE7
:100220002E207374617274757020636F6D706C65CD
:1002300074652077697468206E6F6465206E756DD3
:100240006265723D004E6574776F726B2E20776920
:100250006C6C20726573656E64207061636B65748D
:1002600073206576657279286D73293D004E65743B
:10027000776F726B2E20617070726F78696D617428
:1002800065207061636B6574207472616E736D6953
:100290007373696F6E2074696D65286D73293D00F5
:1002A0004E6574776F726B2E207061636B6574207E
:1002B00073697A652862697473293D002028627920
:1002C000746573293D004E6574776F726B2E2062E2
:1002D00069747261746528626974732F73293D357E
:1002E000353535352E00456E74657220746865208D
:1002F0006E6F6465206E756D62657220666F722028
:1003000074686973206E6F64653A004E6574776F28
:10031000726B2E204552524F52206E6F206E6F64CA
:1003200065494420666F756E6420696E20454550AE
:10033000524F4D21004E6574776F726B2E202077DF
:10034000726974696E67206E6F6465494420746FCA
:1003500020454550524F4D3D004E6574776F726B8E
:100360002E2072656164206E6F6465494420667258
:100370006F6D20454550524F4D3D004E6574776F6F
:10038000726B2E20737461727475702E0000000001
:100390000800020100000304070000000000000044
:1003A000000102040810204080010204081020010E
:1003B00002040810200404040404040404020202D9
:1003C00002020203030303030300000000230026CC
:1003D00000290000000000250028002B000000007C
:1003E00000240027002A0000E412201811241FBE58
:1003F000CFEFD8E0DEBFCDBF12E0A0E0B1E0EEEA83
:10040000F1E402C005900D92AA3FB107D9F724E0AC
:10041000AAEFB2E001C01D92A335B207E1F713E0E5
:10042000CCEED3E004C02297FE010E94EA1DC83E34
:10043000D107C9F70E946D1B0C94D5200C940000C5
:10044000CF92DF92EF92FF920F931F93E82FF92F35
:1004500005C0015011092109310961F190819623EC
:100460009417B9F305C0015011092109310911F19F
:10047000908196239413F7CFC12CD12CE12CF12C31
:100480000AC08FEFC81AD80AE80AF80A0C151D0529
:100490002E053F0579F080818623841791F36C2D1A
:1004A0007D2D8E2D9F2D1F910F91FF90EF90DF904E
:1004B000CF90089560E070E080E090E01F910F9190
:1004C000FF90EF90DF90CF900895CF93DF93EC01F2
:1004D0006CE870E086EB93E00E94A11886EB93E055
:1004E0000E94CD1860E084E00E94EE1561E086E095
:1004F0000E94EE1564E670E080E090E00E9417151F
:1005000061E084E00E94EE1568EC70E080E090E02D
:100510000E94171560E086E00E94EE1562E370E02D
:1005200080E090E00E94171568E670E086EB93E0AB
:100530000E94A11886EB93E00E94CD1881E0898388
:10054000DF91CF910895EF92FF920F931F93CF9376
:10055000DF9300D000D0CDB7DEB77C018B01FC016A
:100560008181811103C0C7010E94650261E086E0BC
:100570000E94EE1520E432E44FE050E061E087E0B5
:100580000E944D169B01AC0160E086E029833A830E
:100590004B835C830E94EE15F70180817801E80EA1
:1005A000F11CE80EF11CA4E6B0E029813A814B81F0
:1005B0005C810E94DD1D23E930E040E050E00E94B4
:1005C000AC1DF701318320830F900F900F900F9097
:1005D000DF91CF911F910F91FF90EF9008951F939E
:1005E000CF93DF93EC016EE071E086EB93E00E9425
:1005F000A11886EB93E00E94CD1860E083E00E9492
:10060000EE1561E083E00E94B51560E087E00E948E
:10061000B51560E086E00E94EE1561E086E00E947C
:10062000B51561E084E00E94EE1561E084E00E946F
:10063000B5158CE793E00E94141116EF180F18837C
:1006400063ED70E086EB93E00E94A1184AE050E071
:10065000612F86EB93E00E94911986EB93E00E9454
:10066000CD1863EB70E086EB93E00E94A11886EB57
:1006700093E00E94CD18288130E0A8EEB3E00E94FC
:10068000CE1D0E941715CE010E94650286E999E1F0
:100690009F838E839D838C839B838A83DF91CF91FD
:1006A0001F9108958F929F92AF92BF92CF92DF9247
:1006B000EF92FF920F931F93CB01BA0148015901AA
:1006C0009B01AC010E949C1D6B017C01A501940162
:1006D000C501B4010E949C1DC61AD70AE80AF90A8E
:1006E0008CEFC81A85E3D80A8AE9E80A8CEFF80A81
:1006F000C701B6012CEF3AE340E050E00E94AC1D88
:100700002F378DE138074105510520F02EE73DE1F7
:1007100040E050E0C9011F910F91FF90EF90DF90F2
:10072000CF90BF90AF909F908F9008952F923F925F
:100730004F925F926F927F928F929F92AF92BF92F1
:10074000CF92DF92EF92FF920F931F93CF93DF939D
:100750001C01EB018880998051EB851654E09506C9
:10076000A8F48FEB9EE09F838E8386EE94E19D87B5
:100770008C8788E592E0998788879F878E8726E215
:100780003BE13B872A87998B888B6CC0CA80DB80D2
:1007900061EBC61664E0D606A8F48FEB9EE099875D
:1007A000888786EE94E19F878E8788E592E09B8715
:1007B0008A87998B888B26E23BE13F832E839D8736
:1007C0008C8750C04C805D8071EB471674E05706F3
:1007D000A8F48FEB9EE09B878A8786EE94E1998B45
:1007E000888B88E592E09F838E839D878C8726E2A5
:1007F0003BE1398728879F878E8734C0E12CF12C15
:10080000612C712C97018601B301A2010E94520351
:100810009F838E83A12CB12C93018201B501A40189
:10082000C1010E9452039987888795018401B7010D
:10083000A601C1010E9452039B878A8740E026E9F6
:1008400039E189919991863959E1950730F4B901D7
:10085000681B790B7B876A8702C01B861A864F5FED
:10086000433079F7DF91CF911F910F91FF90EF9077
:10087000DF90CF90BF90AF909F908F907F906F90C0
:100880005F904F903F902F9008950F93CF93DF93F9
:10089000CDB7DEB728970FB6F894DEBF0FBECDBF39
:1008A00026E040E052EC61E070E086EB93E00E94CD
:1008B0005C170FE12BE54DE96FEF8CE793E00E94A9
:1008C000041348EE53E060E070E0CE0101960E9410
:1008D0009406CE0101960E949A06811105C08CE70C
:1008E00093E00E94F311F5CF8CE793E00E9414117E
:1008F000682F8AEF92E00E94EF0228960FB6F894D4
:10090000DEBF0FBECDBFDF91CF910F910895CF9283
:10091000DF92EF92FF920F931F9380912703811133
:100920000DC00E94F41460931B0370931C0380930A
:100930001D0390931E0381E0809327030E94F4140B
:100940008B019C0140911B0350911C0360911D037E
:1009500070911E0368017901C41AD50AE60AF70AE4
:10096000C701B60100931B0310931C0320931D03C2
:1009700030931E031F910F91FF90EF90DF90CF9067
:1009800008958F929F92AF92BF92CF92DF92EF9293
:10099000FF928CE793E00E94F311882351F067E9FE
:1009A00071E086EB93E00E94A1188CE793E00E942F
:1009B00017118CE793E00E949A12882309F4ABC1C7
:1009C00061E089E00E94EE1580911F0381110BC048
:1009D00040E65AEE60E070E083E193E00E94940606
:1009E00081E080931F0380917C0390917D038E3A78
:1009F000954170F080917E0390917F038E3A9541EE
:100A000038F080918003909181038E3A954120F4D3
:100A100083E193E00E94E00683E193E00E949A065E
:100A200081116EC18CE793E00E949612892B09F424
:100A300067C120910F033091100340911103509131
:100A40001203A9E0B0E00E94DD1D6B017C010E9451
:100A500087046C0D7D1D8E1D9F1D3AE0C32ED12C89
:100A6000E12CF12CA70196010E94AC1D20930F03ED
:100A70003093100340931103509312036CE773E01B
:100A80008AEF92E00E94A30220910B0330910C03A5
:100A900040910D0350910E03A9E0B0E00E94DD1DCE
:100AA0004B015C010E948704680D791D8A1D9B1D06
:100AB000A70196010E94AC1D20930B0330930C03F9
:100AC00040930D0350930E036CE773E08AEF92E0BE
:100AD0000E94960320910703309108034091090377
:100AE00050910A03A9E0B0E00E94DD1D4B015C01BA
:100AF0000E948704680D791D8A1D9B1DA701960120
:100B00000E94AC1D20930703309308034093090310
:100B100050930A038CE793E00E94A91220910303EB
:100B2000309104034091050350910603A9E0B0E021
:100B30000E94DD1D4B015C010E948704680D791D38
:100B40008A1D9B1DA70196010E94AC1D20930303E3
:100B500030930403409305035093060362E971E068
:100B600086EB93E00E94A1188CE793E00E94171196
:100B700060E089E00E94EE15809102038F5F809310
:100B800002038A3008F4C7C01092020366E871E0DD
:100B900086EB93E00E94A11886EB93E00E94CD18AB
:100BA000C0900F03D0901003E0901103F090120357
:100BB00066E771E086EB93E00E94A1182AE030E03E
:100BC000B701A60186EB93E00E94841986EB93E0BF
:100BD0000E94CD18C0900B03D0900C03E0900D0341
:100BE000F0900E0365E671E086EB93E00E94A11899
:100BF0002AE030E0B701A60186EB93E00E94841959
:100C000086EB93E00E94CD18C0900703D0900803B4
:100C1000E0900903F0900A0362E571E086EB93E04F
:100C20000E94A1182AE030E0B701A60186EB93E00C
:100C30000E94841986EB93E00E94CD18C0900303B4
:100C4000D0900403E0900503F090060363E471E0A4
:100C500086EB93E00E94A1182AE030E0B701A601DC
:100C600086EB93E00E94841986EB93E00E94CD18F6
:100C7000C0900703D0900803E0900903F0900A03A6
:100C800080910B0390910C03A0910D03B0910E0382
:100C9000C80ED91EEA1EFB1E809103039091040327
:100CA000A0910503B0910603880F991FAA1FBB1FCF
:100CB000C80ED91EEA1EFB1E65E271E086EB93E0CA
:100CC0000E94A1182AE030E0B701A60186EB93E06C
:100CD0000E94841986EB93E00E94CD1861E271E0D6
:100CE00086EB93E00E94A11886EB93E0FF90EF90D3
:100CF000DF90CF90BF90AF909F908F900C94CD18C5
:100D00008AEF92E00E94650261E070E08CE793E078
:100D10000E94D4118ECEFF90EF90DF90CF90BF90C5
:100D2000AF909F908F900895FC0144835583668314
:100D3000778308958F929F92AF92BF92CF92DF9266
:100D4000EF92FF920F931F93CF93DF93EC010E94DA
:100D5000E8148C809D80AE80BF8081149104A10432
:100D6000B10429F4688379838A839B8319C008813D
:100D700019812A813B816B017C01C01AD10AE20AE8
:100D8000F30AC814D904EA04FB0460F0B901A8010D
:100D9000480D591D6A1D7B1D488359836A837B83D7
:100DA00081E001C080E0DF91CF911F910F91FF9012
:100DB000EF90DF90CF90BF90AF909F908F9008956D
:100DC000CF93DF93EC010E94E814688379838A83D0
:100DD0009B83DF91CF910895089580912F03909187
:100DE0003003DC01ED91FC910484F585E02D09943C
:100DF000CF93DF93EC0161E08A810E94EE15898533
:100E00008CBD8A858DBD7894DF91CF910895FC01CA
:100E1000F8948CB581878DB582878CB5837F8CBD26
:100E20008CB58F7D8CBD8CB58C7F8CBD8DB58E7F48
:100E30008DBD60E082810C94EE15F8942091390309
:100E4000233021F42091350321110FC02091390363
:100E5000233011F4789407C0DC01ED91FC910288F5
:100E6000F389E02D099580E00895DC01ED91FC9176
:100E70000488F589E02D61E0099581E008958EBD33
:100E800000000DB407FEFDCF8EB50895CF93DF931C
:100E90001F92CDB7DEB7DC01ED91FC910480F581A6
:100EA000E02D698309956981882359F08091370382
:100EB000861711F06F3F29F49091330381E091116F
:100EC00001C080E00F90DF91CF9108952F923F9263
:100ED0004F925F927F928F929F92AF92BF92CF92EA
:100EE000DF92EF92FF920F931F93CF93DF93EC016A
:100EF000962E5A01722E802E10E0CE2CD12CE12C91
:100F0000F12CE881F9810190F081E02D01E0272D9D
:100F1000A501692DCE0109950E94E8141B012C0141
:100F20000E94E81462197309840995096C157D05FE
:100F30008E059F0540F4692DCE010E944607882347
:100F400079F381E004C01F5F8116D8F680E0DF915D
:100F5000CF911F910F91FF90EF90DF90CF90BF90B6
:100F6000AF909F908F907F905F904F903F902F9089
:100F7000089580913403882329F09091360381E00D
:100F80009F3F09F480E00895EF92FF921F93CF9363
:100F9000DF931F92CDB7DEB77C01DC01ED91FC91B0
:100FA000008CF18DE02D698309956981862F8F77FB
:100FB0000E943F0780E00E943F07182FD701ED9164
:100FC000FC91028CF38DE02DC7010995812F0F90C4
:100FD000DF91CF911F91FF90EF9008950F931F9392
:100FE000CF93DF9300D0CDB7DEB78C01DC01ED915C
:100FF000FC91008CF18DE02D4A836983099569810C
:10100000862F80680E943F074A81842F0E943F07F5
:10101000D801ED91FC91028CF38DE02DC8010F9069
:101020000F90DF91CF911F910F9109941F93CF9350
:10103000DF93EC01162F80913903681709F461C022
:10104000623009F440C070F4662309F444C0613092
:1010500009F057C061E0CE010E94C407482F437ECB
:1010600044603FC06330C1F0643009F04AC061E0C1
:10107000CE010E94C407482F437E4C6061E0CE0140
:101080000E94EE078885882381F1E881F98106882E
:10109000F789E02D61E014C061E0CE010E94C40731
:1010A000482F437E406161E0CE010E94EE078885B3
:1010B0008823D9F0E881F9810688F789E02D60E07E
:1010C000CE01099512C061E0CE010E94C407482FED
:1010D000437E486006C061E0CE010E94C407482FED
:1010E000437E61E0CE010E94EE07809139038111B9
:1010F00006C067E2CE010E94C40787FFF6CF1093B7
:101100003903DF91CF911F910895CF93DF93EC01C5
:10111000603208F06FE16F838885882311F066954F
:101120006F8361E1CE010E94C407482F407E8F810A
:10113000482B61E1CE01DF91CF910C94EE07CF9265
:10114000DF92EF92FF920F931F93CF93DF93EC0107
:10115000F62ED42EC52E122FE881F9810488F58948
:10116000E02D61E0099567E2CE010E94C40787FF88
:10117000FACF40E065E2CE010E94EE071E3308F090
:101180001DE3E11004C0002319F000E401C000E8F1
:10119000E881F981008CF18DE02DCE01099580E880
:1011A0000E943F0783E0810F0E943F078F2D0E941E
:1011B0003F078D810E943F07802F0E943F070D2D22
:1011C000ED2CFC2C8E2D801B811730F4F7018191C2
:1011D0007F010E943F07F6CFE881F981028CF38DF1
:1011E000E02DCE010995E881F9810488F589E02D8B
:1011F00064E0CE0109950E94E8146B017C018B81AB
:101200000E942416892B81F0E881F9810488F589F0
:10121000E02D61E0CE01DF91CF911F910F91FF9002
:10122000EF90DF90CF9009940E94E8146C197D092B
:101230008E099F09683E73408105910528F7DFCF2D
:10124000CF93DF93EC011092380310923703109282
:101250003603109235031092340310923303109228
:1012600032031092310368E20E94C40782FF0AC071
:101270006DE3CE010E94C407482F44606DE3CE01A8
:101280000E94EE0740E465E2CE010E94EE07E8818D
:10129000F9810488F589E02D63E0CE01DF91CF91DB
:1012A0000994DF92EF92FF920F931F93CF93DF93F6
:1012B000EC018B01E881F9810488F589E02D61E07A
:1012C000099501151105E1F0E881F981008CF18D96
:1012D000E02DCE0109958EEB0E943F077801D12CBD
:1012E000F70181917F010E943F07D394F0E1DF1263
:1012F000F7CFE881F981028CF38DE02DCE010995BD
:101300006DE3CE010E94C4078E7F91E0012B09F4AA
:1013100090E0482F492B6DE3CE01DF91CF911F91D3
:101320000F91FF90EF90DF900C94EE078F929F92B9
:10133000AF92BF92DF92EF92FF920F931F93CF93E2
:10134000DF93CDB7DEB7AE970FB6F894DEBF0FBE12
:10135000CDBF7C01D42E8EE28E010F5F1F4FD801CE
:10136000E82F1D92EA95E9F791E0998334E03A83FA
:1013700042E04B8393E09D834E833F8340E4488764
:1013800035E039879A8796E09B8793E39C8737E01F
:101390003D8798E09F8799E0998B99E19B8B92E438
:1013A0009C8B55E25D8B4E8B46E24F8B388F38E23B
:1013B000398F30E13A8F39E23B8F3CED3C8F8D8F96
:1013C00088E88E8F8FE28F8F8DE288A380E389A3D8
:1013D00037E33BA330E93CA338E33DA39EA39CE362
:1013E0009FA39FE898A79DE399A792E19AA79FE6FC
:1013F0009BA78CA78FEF8DA76F3131F06B3231F047
:10140000663531F489ED05C08EE403C08CE601C079
:1014100084EE8E876F3141F06B3221F0663521F416
:1014200080E003C080E401C080EC888B2AA361E0E7
:10143000D70112968C910E94EE1561E0F70182812E
:101440000E94B5150E949D0C0E94E8144B015C019E
:101450004AEA6FE2C7010E94EE076FE2C7010E94ED
:10146000C4078A3A59F00E94E814681979098A0970
:101470009B09623371058105910550F30E94E814C0
:101480004B015C0145E56FE2C7010E94EE076FE288
:10149000C7010E94C407853559F00E94E8146819F5
:1014A00079098A099B09623371058105910550F319
:1014B000B12CF801EB0DF11DEB0DF11D60816F3FBB
:1014C00031F04181C7010E94EE07B394F2CF60E092
:1014D00070E0C7010E945109D701ED91FC9111976D
:1014E0000084F185E02D18966C91C7010995D7010C
:1014F000ED91FC910488F589E02D61E0C701099523
:101500000E94E8144B015C0167E2C7010E94C40716
:1015100087FD0BC00E94E814681979098A099B09A4
:10152000623371058105910578F30E94E81468190A
:1015300079098A099B09623371058105910588F44F
:1015400043E050E06DEE76E0F70184810E943014B4
:10155000F0923003E0922F03D7011596DC9281E0E0
:1015600001C080E0AE960FB6F894DEBF0FBECDBFCF
:10157000DF91CF911F910F91FF90EF90DF90BF907F
:10158000AF909F908F900895CF93DF93EC016111FE
:101590000DC064E2CE010E94C40790E09195819550
:1015A000910995958795DF91CF91089541E063E288
:1015B0000E94EE0763E2CE010E94C40781FFFACFCA
:1015C000E8CFCF93DF93EC01809139038330A9F406
:1015D00080913503811111C060E0CE010E94C40AE0
:1015E000863A9F4F54F4E881F9810488F589E02D0B
:1015F00061E0CE01099581E001C080E0DF91CF91EB
:101600000895FF920F931F93CF93DF93EC01809186
:101610003903833001F568E2CE010E94C40782FDE0
:1016200028C019C0809138038D3330F4E09138031D
:10163000F0E0E65CFC4F1082E881F981028CF38DCA
:10164000E02DCE010995E881F9810488F589E02D26
:1016500063E0CE01099560E0CE010E94C40A909338
:10166000320380933103DF91CF911F910F91FF904F
:101670000895E881F9810488F589E02D61E0CE01C3
:101680000995E881F981008CF18DE02DCE01099555
:1016900080E00E943F0780E00E943F07809335036F
:1016A000809135038334D0F48091350380933503E2
:1016B00080E00E943F07809336038E81811109C02C
:1016C000909136038D81981721F0809136038F3FDA
:1016D00039F480913503833018F017C082E4E6CFE7
:1016E00010923503E881F981028CF38DE02DCE0153
:1016F0000995E881F9810288F389E02DCE01DF9117
:10170000CF911F910F91FF900994809135038350E1
:101710008093380380E00E943F078093370380E086
:101720000E943F07982F907890933303982F9074DE
:1017300090933403E881F9810684F785E02D682FC2
:10174000CE010995F12C80913803F81608F06ACF84
:101750000F2D10E080E00E943F07F801E65CFC4F8F
:101760008083F394F0CF4F925F926F927F929F921B
:10177000AF92BF92EF920F931F93CF93DF93EC0141
:10178000162F5A01922E6DE30E94C407482F446021
:101790006DE3CE010E94EE070E94E8142B013C018C
:1017A000CE010E94E10A8823C1F0E881F981008816
:1017B000F189E02DE12C292DA501612FCE0109959C
:1017C000DF91CF911F910F91EF90BF90AF909F90BD
:1017D0007F906F905F904F9008950E94E814641975
:1017E000750986099709683E734081059105E8F6F9
:1017F000E881F9810480F581E02DCE010995D0CFF3
:101800004F925F926F927F929F92AF92BF92CF92D0
:10181000DF92EF92FF920F93CF93DF93EC015B0186
:10182000942E10923403F0903703C0903103D0907F
:1018300032036DE30E94C407482F44606DE3CE017C
:101840000E94EE070E94E8142B013C01CE010E9489
:10185000E10A882311F1F0923703E881F9810088C9
:10186000F189E02DEE24E39400E0292DA5016F2DF0
:10187000CE010995D0923203C0923103DF91CF910E
:101880000F91FF90EF90DF90CF90BF90AF909F901F
:101890007F906F905F904F9008950E94E8146419B4
:1018A000750986099709683E73408105910598F688
:1018B000E881F9810480F581E02DCE010995C6CF3C
:1018C000CF93DF93EC016887662311F04FE001C0EE
:1018D0004AE163E1CE010E94EE078885882341F04A
:1018E00061E1CE010E94C407482F4F71406602C0DB
:1018F0004F81406861E1CE01DF91CF910C94EE07FA
:101900001F93CF93DF93EC01162F662311F04DE563
:1019100001C045E56AE5CE010E94EE07112311F0F2
:101920004CE701C040E76CE5CE01DF91CF911F91FC
:101930000C94EE07FC0166830895CF93CFB7F8941B
:1019400080917A03811127C0EFEBF3E08491EBEAF9
:10195000F3E09491E82FF0E0EE0FFF1FE352FC4F0D
:10196000A591B4918C91892321F461E08AE00E94D1
:10197000EE1561E08AE00E94B5158CB580618CBDE2
:101980008CB580648CBD61E08DE00E94B51561E08E
:101990008BE00E94B51580917A038F5F80937A0364
:1019A000CFBFCF910895FC0180E5858316826083C7
:1019B000528341830895FC018CB583838DB5848364
:1019C0003581268180917903882399F09FB7F89417
:1019D00080917903813059F48DB3809377034DB3AF
:1019E00080917803809584238DBB9FBF02C0909324
:1019F00077033CBD2DBD60E080810C94EE15CF9344
:101A0000DF93EC0161E088810E94EE1580917903FB
:101A1000882361F09FB7F894209179038091770330
:101A2000213019F48DBB9FBF01C08FBF8B818CBD4E
:101A30008C818DBDDF91CF9108951F93CF93DF935C
:101A4000EC010E94DB0C85E00E943F0780E00E94D1
:101A50003F07182FCE010E94FF0C812FDF91CF91FD
:101A60001F9108950E941D0D817008951F93CF93BB
:101A7000DF93EC01162F442339F040E066E00E942A
:101A8000360DCE010E94FF0CCE010E94320D811155
:101A9000FBCFCE010E94DB0C812FDF91CF911F91F4
:101AA0000C943F07EF92FF920F931F93CF93DF9316
:101AB00000D0CDB7DEB77C01142F062F41E062E0E5
:101AC0002A8359830E94360D802F0E943F07598137
:101AD000852F0E943F07812F0E943F072A81822F76
:101AE0000E943F07C7010F900F90DF91CF911F9188
:101AF0000F91FF90EF900C94FF0C2F923F924F921A
:101B00005F926F927F928F929F92AF92BF92CF928D
:101B1000DF92EF92FF920F931F93CF93DF936C01AD
:101B20002A013B015901CA019927C0E0D1E0C81B35
:101B3000D90BE12CF12C0115110579F10C171D07BA
:101B400008F4E80141E062E0C6010E94360D862DEE
:101B50000E943F07852D0E943F07842D0E943F076A
:101B600015012E0C3F1C4101F40181914F010E948F
:101B70003F07C401821993098C179D07A8F3C6017A
:101B80000E94FF0C4C0E5D1E611C711CEC0EFD1EB4
:101B90000C1B1D0BC0E0D1E0CECFDF91CF911F9188
:101BA0000F91FF90EF90DF90CF90BF90AF909F90FC
:101BB0008F907F906F905F904F903F902F900895FF
:101BC000EF92FF920F931F93CF93DF931F92CDB7A6
:101BD000DEB77C01142F062F41E062E559830E9495
:101BE000360D802F0E943F075981852F0E943F07A5
:101BF000812F0E943F07C7010F90DF91CF911F9166
:101C00000F91FF90EF900C94FF0CFC01DB018EE034
:101C100091E09183808312968C9112978283139620
:101C20008C911397838314968C91149784831596C3
:101C30008C911597858316968C91169786831796A7
:101C40008C911797878318968C911897808719968F
:101C50008C91199781871A968C9182870895CF92DB
:101C6000DF92FF920F931F93CF93DF93CDB7DEB731
:101C70000DB71EB7262F30E0220F331FA9014F5F8B
:101C80005F4FEDB7FEB7E41BF50B0FB6F894FEBF40
:101C90000FBEEDBF4DB75EB74F5F5F4FDA01F82E55
:101CA0006C018C2D8F198617C8F4C601F60170815E
:101CB00072957F7070637A3308F0795D7C93FFEFE3
:101CC000CF1ADF0AFC0180818F7080638A3308F0AD
:101CD000895D11968C9311971296E3CFFA01E20F6A
:101CE000F31F1082BA0186EB93E00E94D1180FB661
:101CF000F8941EBF0FBE0DBFDF91CF911F910F91C2
:101D0000FF90DF90CF9008952F923F924F925F9275
:101D10006F927F928F929F92AF92BF92CF92DF92FB
:101D2000EF92FF920F931F93CF93DF93CDB7DEB760
:101D30006C970FB6F894DEBF0FBECDBF4C016B8F12
:101D4000E98AFA8A0B8B1C8B2D8B3E8B4F8BAA8ECC
:101D500046E060E472E00E94000CCC2031F06EE4BA
:101D600071E086EB93E00E94D11840E050E0BA01A8
:101D7000CE0141960E94E00D07E010E020E631E040
:101D800040E050E0BA01CE0141960E947D0D2AE369
:101D900049E050E060E070E0CE0141960E94520DB3
:101DA0000E94E8141B012C015AE0E52EF12CA12C15
:101DB000B12C9E012F5F3F4F398F288FC4010E94A5
:101DC0001D07882301F1809137033B8D83131BC0CE
:101DD000D0903803B3E0BD1520F480913A038634E7
:101DE000F9F061E08A8D0E94B51561E08A8D0E944C
:101DF000EE1561E070E080E090E00E94171560E071
:101E00008A8D0E94EE150E94E814621973098409F4
:101E10009509693B7B408105910580F280E022C1F4
:101E200080913B038C34E9F680913C038835C9F6F8
:101E300080913D038A3309F0AAC046E04D1508F0B1
:101E4000A6C084E090E000E010E0782E2FEF280F8D
:101E5000FC01E65CFC4F30813033A0F030813A3336
:101E600088F42081AAE0A801A49F8001A59F100DFD
:101E7000112400531109020F111D0196883091059C
:101E800021F707C030813A33C1F754E0751631F2BB
:101E9000722ECC20C1F068E671E086EB93E00E94E0
:101EA000C4184AE050E06D2D86EB93E00E94911932
:101EB00060E771E086EB93E00E94C4186D2D8AE321
:101EC00093E00E942F0EE1E0E70DF0E0E65CFC4FAE
:101ED00080818A3309F0A2CF0E94E8141B012C01F3
:101EE0000A151B0539F0C50101970817190709F0F4
:101EF0004EC029C032E0370D58018FEFA81AB80A3A
:101F00003D1508F5E32FF0E0E65CFC4F208137013A
:101F10009FEF691A790AA70160E070E0CE0141964F
:101F20003C8F0E94520DC3019F773C8D892B41F459
:101F3000A30160E070E0CE0141960E94E00D3C8D6F
:101F40003F5F7301DDCF1F930F93A5E7B1E0BF9310
:101F5000AF93398D3F93488D4F930E94EE1D482FCC
:101F60000F900F900F900F900F900F90CC2049F092
:101F7000BE016F5F7F4F86EB93E04C8F0E94D118BC
:101F80004C8DBE016F5F7F4FC4010E94000C809199
:101F90003D038F3309F025CF54E0D51210C046E041
:101FA00060E472E0C4010E94000CCC2009F419CF57
:101FB0006FE771E086EB93E00E94D11812CF87E0C3
:101FC000D8120FCF80913E03853409F00ACF80915B
:101FD0003F038F3409F005CF80914003863409F028
:101FE00000CF87010A5011090130BCE71B0778F0C8
:101FF000CC2031F06DE871E086EB93E00E94D118BF
:1020000047E06AEA71E0C4010E94000C07CF46E095
:1020100060E472E0C4010E94000CCC2031F060E466
:1020200072E086EB93E00E94D118212F47E050E048
:1020300060E070E0CE0141960E94520D26EF2E0D19
:1020400048E050E060E070E0CE0141960E94520D01
:102050002AE349E050E060E070E0CE0141960E9442
:10206000520D81E06C960FB6F894DEBF0FBECDBF67
:10207000DF91CF911F910F91FF90EF90DF90CF9064
:10208000BF90AF909F908F907F906F905F904F9098
:102090003F902F900895C82F882331F062E872E0B6
:1020A00086EB93E00E94C41888E028E130E00FB688
:1020B000F894A895209360000FBE80936000CC2315
:1020C00031F06EE286EB93E00E94C618FACFFFCFA4
:1020D000AF92BF92CF92DF92EF92FF920F931F9336
:1020E000CF93DF93CDB7DEB762970FB6F894DEBF1C
:1020F0000FBECDBF0C871D872E873F87488B598B1E
:102100006A8BDE2C20913803243008F45CC02091C7
:102110003A03263409F057C020913B032C3409F0D0
:1021200052C020913C03283509F04DC020913D0359
:102130002F3309F048C0B09037032091380327307F
:10214000A1F420913E03253481F420913F032F34E4
:1021500061F420914003263441F400E026E040E49D
:1021600052E06B2D0E94B30B2EC0BC01CE01019634
:102170000E94050EAC2CCD2CEC84FD840E851F85B1
:10218000288939894A896B2DCE0101960E94840ED7
:10219000882359F0DD2031F06CE872E086EB93E0A3
:1021A0000E94C4188D2D0E944B10DD2061F06DEA55
:1021B00072E086EB93E00E94C41866ED72E086EB55
:1021C00093E00E94D11862960FB6F894DEBF0FBE5E
:1021D000CDBFDF91CF911F910F91FF90EF90DF90D6
:1021E000CF90BF90AF900895EF92FF920F931F93FF
:1021F000CF93DF931F92CDB7DEB77C01FC01008146
:102200001181C80169830E94E21F6981681719F072
:10221000C8010E94EA1FC7010F90DF91CF911F9163
:102220000F91FF90EF900895FC0184890895CF925B
:10223000DF92EF92FF920F931F93CF93DF93EC0106
:102240001D8969EE71E086EB93E00E94A1184AE0D7
:1022500050E0612F86EB93E00E9491190C811D8163
:10226000EA80FB80C880D9806BED71E086EB93E05B
:102270000E94A1184AE050E0B60186EB93E00E946C
:10228000981961EE71E086EB93E00E94A1184AE094
:1022900050E0B70186EB93E00E94981965EE71E07B
:1022A00086EB93E00E94A1184AE050E0B80186EB6B
:1022B00093E00E9498190C851D85EE80FF8060EDEB
:1022C00071E086EB93E00E94A1184AE050E0B7016C
:1022D00086EB93E00E94981966ED71E086EB93E03F
:1022E0000E94A1184AE050E0B80186EB93E00E94FA
:1022F000981969ED71E086EB93E00E94A1180E85B4
:102300001F85E884F98465EC71E086EB93E00E9418
:10231000A1184AE050E0B70186EB93E00E949819BB
:102320006BEC71E086EB93E00E94A1184AE050E06C
:10233000B80186EB93E00E9498196EEC71E086EB91
:1023400093E00E94A118088919890A84DB85C02DB1
:102350006AEB71E086EB93E00E94A1184AE050E03E
:10236000BE0186EB93E00E94981960EC71E086EB69
:1023700093E00E94A1184AE050E0B80186EB93E098
:102380000E94981963EC71E086EB93E00E94A1181B
:1023900086EB93E0DF91CF911F910F91FF90EF902B
:1023A000DF90CF900C94CD180F931F93CF93DF93B2
:1023B0008C01EB016CE971E086EB93E00E94A118BF
:1023C0004AE050E0BE0186EB93E00E947C1986EB68
:1023D00093E00E94CD18F801D38BC28BDF91CF918F
:1023E0001F910F910895AF92BF92CF92EF920F93EA
:1023F0001F93CF93DF93CDB7DEB72B970FB6F8942B
:10240000DEBF0FBECDBF5C018C010A5E1F4FC8014D
:102410000E941D07882309F46FC080913803823120
:10242000E9F4EAE3F3E0D50101900D928A95E1F732
:1024300080913703F501858B909136038489981339
:1024400065C0C8010E94B907882309F45FC040E055
:102450006DEE72E0C8010E94000C58C090913603E6
:10246000F501848998132CC08EE091E09A838983CA
:10247000808D8B83818D8C83828D8D83838D8E83E4
:10248000848D8F83858D8887868D8987878D8A87C0
:1024900080A18B8789E0C82EE12C0091A6031091C2
:1024A000A7032091A8033091A9034091AA0350915A
:1024B000AB036091AC03CE0101960E9468101CC072
:1024C00080913803823029F460913A0370913B0384
:1024D00010C0809137038E3F79F46CEF71E086EB8A
:1024E00093E00E94A11886EB93E00E94CD1862E071
:1024F00070E0C5010E94D411F50182899389039788
:1025000019F481E00E944B1080E001C081E02B961D
:102510000FB6F894DEBF0FBECDBFDF91CF911F91F4
:102520000F91EF90CF90BF90AF900895FC018289FA
:1025300093890895FC012589822F90E00C971CF463
:1025400091E0920F01C09AE081E02489921380E02B
:102550000895CF92DF92EF920F93CF93DF93EC0128
:102560000E94F3118A899B89029739F180919E0319
:1025700081110EC02C89822F90E00C971CF481E011
:10258000820F01C08AE080937B0381E080939E03E9
:102590006E0186E1C80ED11CE9A003E022E1AE0184
:1025A00060917B03C6010E946607811104C0CE01C1
:1025B0000E94F311F1CF8C898D8BDF91CF910F9118
:1025C000EF90DF90CF90089540E35FEE68E086EAF9
:1025D00093E00E94D30C8EE091E09093930380935C
:1025E00092038AE08093940382E080939503109293
:1025F000960381E080933903109298038FE18093D2
:10260000990310929A0308959F92AF92BF92CF922E
:10261000DF92EF92FF920F931F93CF93DF9300D03F
:10262000CDB7DEB77C01162F942EA22E9AE2C92ECA
:10263000D12C6BE773E086EB93E00E94A11886EB48
:1026400093E00E94CD181F3FC9F48AE290E00E94F7
:10265000E21FB82EF701848B69E573E086EB93E007
:102660000E94A1184AE050E06B2D86EB93E00E9497
:10267000911986EB93E00E94CD181AC065E373E0D0
:1026800086EB93E00E94A1184AE050E0612F86EBB0
:1026900093E00E94911986EB93E00E94CD18DA82B4
:1026A000C982612FCE0101960E94F410F701148BAC
:1026B000F7014489493C40F16BE073E086EB93E01D
:1026C0000E94A11886EB93E00E94CD1866EE72E09E
:1026D00086EB93E00E94A11886EB93E00E94CD1850
:1026E00086EB93E00E947916892BD1F341E060E0FC
:1026F00070E086EB93E00E94FC1ADA82C982CE0178
:1027000001960E94F41095CF6701F6E1CF0ED11C1F
:10271000292D6A2DC6010E94960961E0C6010E941A
:10272000600C61E0C6010E949A0C602FC6010E94F5
:1027300085088FEF9FEFF7019583848393838283CE
:10274000918380839387828791878087978386830D
:10275000918B808B97878687958784878CE0858B84
:1027600061E089E00E94B51560E089E00E94EE1505
:1027700061E070E0C7010E94D41166EC72E086EB64
:1027800093E00E94A11886EB93E00E94CD1860EAC6
:1027900072E086EB93E00E94A1184AE050E068EEF8
:1027A00086EB93E00E9491196CEB72E086EB93E06C
:1027B0000E94A1184AE050E06DE170E086EB93E0E2
:1027C0000E947C1986EB93E00E94CD186DE672E0C2
:1027D00086EB93E00E94A11822E030E042E252EA48
:1027E00065E870E486EB93E00E94891A86EB93E03B
:1027F0000E94CD188AE0F70181A365E472E086EBC0
:1028000093E00E94A1184AE050E06AE086EB93E072
:102810000E94911986EB93E00E94CD18F70114896C
:1028200069E172E086EB93E00E94A1184AE050E073
:10283000612F86EB93E00E94911986EB93E00E9452
:10284000CD180F900F90DF91CF911F910F91FF90B6
:10285000EF90DF90CF90BF90AF909F900895089534
:102860008230E8F4E82FF0E0EE0FFF1FEA5FFE4F42
:1028700071836083813041F0809169008C7F842B6B
:1028800080936900E89A089580916900440F551F6C
:10289000440F551F837F842B80936900E99A089524
:1028A0001F920F920FB60F9211242F933F934F93C5
:1028B0005F936F937F938F939F93AF93BF93EF93A8
:1028C000FF93E0910601F09107010995FF91EF91C7
:1028D000BF91AF919F918F917F916F915F914F9138
:1028E0003F912F910F900FBE0F901F9018951F9240
:1028F0000F920FB60F9211242F933F934F935F9334
:102900006F937F938F939F93AF93BF93EF93FF93B7
:10291000E0910801F09109010995FF91EF91BF91B4
:10292000AF919F918F917F916F915F914F913F9167
:102930002F910F900FBE0F901F9018951F920F921E
:102940000FB60F9211242F933F938F939F93AF93C2
:10295000BF938091AE039091AF03A091B003B0916B
:10296000B1033091AD0323E0230F2D3720F40196FE
:10297000A11DB11D05C026E8230F0296A11DB11DA2
:102980002093AD038093AE039093AF03A093B00365
:10299000B093B1038091B2039091B303A091B403BB
:1029A000B091B5030196A11DB11D8093B203909320
:1029B000B303A093B403B093B503BF91AF919F91BC
:1029C0008F913F912F910F900FBE0F901F901895F0
:1029D0002FB7F8946091AE037091AF038091B0036C
:1029E0009091B1032FBF08953FB7F8948091B2033F
:1029F0009091B303A091B403B091B50326B5A89B01
:102A000005C02F3F19F00196A11DB11D3FBF6627DC
:102A1000782F892F9A2F620F711D811D911D42E021
:102A2000660F771F881F991F4A95D1F708958F92D7
:102A30009F92AF92BF92CF92DF92EF92FF926B0183
:102A40007C010E94F4144B015C01C114D104E10427
:102A5000F104F1F00E947C1B0E94F41468197909BA
:102A60008A099B09683E73408105910570F321E056
:102A7000C21AD108E108F10888EE880E83E0981E9A
:102A8000A11CB11CC114D104E104F10429F7DDCF6C
:102A9000FF90EF90DF90CF90BF90AF909F908F907E
:102AA0000895789484B5826084BD84B5816084BDC6
:102AB00085B5826085BD85B5816085BDEEE6F0E0B7
:102AC000808181608083E1E8F0E010828081826013
:102AD0008083808181608083E0E8F0E08081816094
:102AE0008083E1EBF0E0808184608083E0EBF0E0C4
:102AF000808181608083EAE7F0E080818460808368
:102B00008081826080838081816080838081806811
:102B100080831092C1000895833081F028F48130C1
:102B200099F08230A1F008958730A9F08830B9F08B
:102B30008430D1F4809180008F7D03C0809180002B
:102B40008F7780938000089584B58F7702C084B515
:102B50008F7D84BD08958091B0008F7703C08091F0
:102B6000B0008F7D8093B0000895CF93DF9390E005
:102B7000FC01EF55FC4F2491FC01EB54FC4F849178
:102B8000882349F190E0880F991FFC01E352FC4F24
:102B9000A591B4918D529C4FFC01C591D4919FB7E2
:102BA000611108C0F8948C91209582238C938881C0
:102BB00082230AC0623051F4F8948C91322F309500
:102BC00083238C938881822B888304C0F8948C9112
:102BD000822B8C939FBFDF91CF9108950F931F930A
:102BE000CF93DF931F92CDB7DEB7282F30E0F901E6
:102BF000E357FC4F8491F901EF55FC4F1491F90113
:102C0000EB54FC4F04910023C9F0882321F0698321
:102C10000E948C156981E02FF0E0EE0FFF1FED524E
:102C2000FC4FA591B4919FB7F8948C91611103C0AA
:102C30001095812301C0812B8C939FBF0F90DF9152
:102C4000CF911F910F910895CF93DF93282F30E0FC
:102C5000F901E357FC4F8491F901EF55FC4FD491F2
:102C6000F901EB54FC4FC491CC2391F081110E94E7
:102C70008C15EC2FF0E0EE0FFF1FE753FC4FA591F2
:102C8000B4912C912D2381E090E021F480E002C0EA
:102C900080E090E0DF91CF9108950F931F93762FFE
:102CA00090E0FC01EF55FC4F6491FC01EB54FC4FAC
:102CB000E4917111762FF0E0EE0FFF1FE753FC4F08
:102CC0008591949189019A013F70472F0E942002BB
:102CD000611571058105910531F06F5F7F4F8F4F51
:102CE0009F4F9F7003C060E070E0CB011F910F9178
:102CF0000895FC01818D228D90E0805C9F4F821BA6
:102D000091098F7399270895FC01918D828D9817F1
:102D100031F0828DE80FF11D858D90E008958FEFE1
:102D20009FEF0895FC01918D828D981761F0828D3F
:102D3000DF01A80FB11D5D968C91928D9F5F9F73EF
:102D4000928F90E008958FEF9FEF089586E198E1CC
:102D5000892B49F080E090E0892B29F00E94161819
:102D600081110C9400000895FC01848DDF01A80FEF
:102D7000B11DA35ABF4F2C91848D90E001968F73A3
:102D80009927848FA689B7892C93A089B1898C91C2
:102D900080648C93938D848D981306C00288F38988
:102DA000E02D80818F7D80830895CF93DF93EC01A8
:102DB000888D8823C9F0EA89FB89808185FD05C05B
:102DC000A889B9898C9186FD0FC00FB607FCF5CF95
:102DD000808185FFF2CFA889B9898C9185FFEDCFDD
:102DE000CE010E94B416E7CFDF91CF910895CF9224
:102DF000DF92FF920F931F93CF93DF931F92CDB774
:102E0000DEB76C0181E0D60158968C9358975B969B
:102E10009C915B975C968C915C97981307C0509639
:102E2000ED91FC915197808185FD2EC0F601038DB7
:102E300010E00F5F1F4F0F731127F02EF601848DE6
:102E4000F81211C00FB607FCF9CFD6015096ED91DC
:102E5000FC915197808185FFF1CFC60169830E9463
:102E6000B4166981EBCF838DE80FF11DE35AFF4F54
:102E70006083D6015B960C935B975296ED91FC9123
:102E80005397808180620CC0D6015696ED91FC91DB
:102E9000579760835096ED91FC91519780818064A3
:102EA000808381E090E00F90DF91CF911F910F918F
:102EB000FF90DF90CF900895BF92CF92DF92EF9274
:102EC000FF92CF93DF93EC016A017B01B22EE88978
:102ED000F98982E08083411581EE5807610571050B
:102EE000A1F060E079E08DE390E0A70196010E94F7
:102EF000AC1D215031094109510956954795379527
:102F00002795211580E1380798F0E889F989108222
:102F100060E874E88EE190E0A70196010E94AC1D84
:102F20002150310941095109569547953795279503
:102F3000EC85FD853083EE85FF852083188EEC8936
:102F4000FD89B082EA89FB89808180618083EA897A
:102F5000FB89808188608083EA89FB898081806821
:102F60008083EA89FB8980818F7D8083DF91CF9187
:102F7000FF90EF90DF90CF90BF9008951F920F9237
:102F80000FB60F9211242F938F939F93EF93FF937C
:102F9000E091C603F091C7038081E091CC03F091EA
:102FA000CD0382FD12C090818091CF038F5F8F731C
:102FB0002091D003821751F0E091CF03F0E0EA5462
:102FC000FC4F958F8093CF0301C08081FF91EF91DB
:102FD0009F918F912F910F900FBE0F901F9018957A
:102FE0001F920F920FB60F9211242F933F934F937E
:102FF0005F936F937F938F939F93AF93BF93EF9361
:10300000FF9386EB93E00E94B416FF91EF91BF917E
:10301000AF919F918F917F916F915F914F913F9170
:103020002F910F900FBE0F901F90189586EB93E095
:103030000E94791621E0892B09F420E0822F08955F
:103040001092B9031092B80388EE93E0A0E0B0E0CC
:103050008093BA039093BB03A093BC03B093BD03CA
:103060008FED92E09093B7038093B60385EC90E0E8
:103070009093C3038093C20384EC90E09093C503C4
:103080008093C40380EC90E09093C7038093C603C1
:1030900081EC90E09093C9038093C80382EC90E0A8
:1030A0009093CB038093CA0386EC90E09093CD037A
:1030B0008093CC031092CF031092D0031092D103CF
:1030C0001092D2030895CF92DF92EF92FF920F9366
:1030D0001F93CF93DF937C016A01EB0100E010E0C6
:1030E0000C151D0571F06991D701ED91FC910190CE
:1030F000F081E02DC7010995892B19F00F5F1F4F53
:10310000EFCFC801DF91CF911F910F91FF90EF900A
:10311000DF90CF9008956115710581F0DB010D906E
:103120000020E9F7AD0141505109461B570BDC0166
:10313000ED91FC910280F381E02D099480E090E014
:103140000895EF92FF920F931F93CF93DF938C011B
:103150007B01C0E0D0E0F701EC0FFD1F6491662316
:1031600059F0F801A081B181ED91FC91C801099558
:10317000892B11F02196EFCFCE01DF91CF911F91D6
:103180000F91FF90EF9008950C948B18DC01ED9156
:10319000FC910190F081E02D09946BEE72E00C94AB
:1031A0008B180F931F93CF93DF93EC010E948B1822
:1031B0008C01CE010E94CD18800F911FDF91CF911D
:1031C0001F910F9108958F929F92AF92BF92DF92BD
:1031D000EF92FF920F931F93CF93DF93CDB7DEB79C
:1031E000A1970FB6F894DEBF0FBECDBF7C01F42FC0
:1031F000D52ECB0119A2223008F42AE08E010F5DF2
:103200001F4F822E912CA12CB12C6F2F7D2DA5014B
:1032100094010E94AC1DF22FD32ECA010150110956
:103220006A3014F4E0E301C0E7E3E60FD801EC9361
:10323000232B242B252B49F7B801C7010E948B189B
:10324000A1960FB6F894DEBF0FBECDBFDF91CF9130
:103250001F910F91FF90EF90DF90BF90AF909F90E4
:103260008F900895CF92DF92EF92FF920F931F936A
:10327000CF93DF93EC016A017B012115310579F4CD
:10328000E881F9810190F081E02D642FDF91CF91E9
:103290001F910F91FF90EF90DF90CF9009942A300B
:1032A0003105E9F477FF1AC06DE20E94C6188C015F
:1032B00044275527BA014C195D096E097F092AE098
:1032C000CE010E94E318800F911FDF91CF911F91D3
:1032D0000F91FF90EF90DF90CF9008952AE0B70113
:1032E000A601CE01DF91CF911F910F91FF90EF903A
:1032F000DF90CF900C94E3189A01AB01662757FD3D
:103300006095762F0C9432192115310541F4DC01BA
:10331000ED91FC910190F081E02D642F09940C94C3
:10332000E3189A01462F50E060E070E00C94841995
:103330009A01AB0160E070E00C9484194F925F92A7
:103340006F927F928F929F92AF92BF92CF92DF92B5
:10335000EF92FF920F931F93CF93DF93EC016A01DB
:103360007B01B22E9A01AB01C701B6010E94981DE4
:10337000882319F06EEE72E027C026013701E89429
:1033800077F82FEF3FEF4FE75FE7C301B2010E94ED
:10339000981D81110DC02FEF3FEF4FE75FE7C3018D
:1033A000B2010E94E21B18161CF462EF72E00CC01E
:1033B0002FEF3FEF4FE75FE4C701B6010E94311DD9
:1033C0001816ACF466EF72E0CE01DF91CF911F9139
:1033D0000F91FF90EF90DF90CF90BF90AF909F90B4
:1033E0008F907F906F905F904F900C948B182FEF81
:1033F0003FEF4FE75FECC701B6010E94E21B87FD7C
:10340000E1CF20E030E0A901C701B6010E94E21B34
:1034100087FF0AC06DE2CE010E94C6188C01F7FA40
:10342000F094F7F8F09402C000E010E0A12C60E006
:1034300070E080E09FE3AB1441F020E030E040E238
:1034400051E40E94E61BA394F6CF9B01AC01C70197
:10345000B6010E947E1B6B017C010E94531C2B0154
:103460003C010E947F1C9B01AC01C701B6010E9478
:103470007D1B6B017C012AE0B301A201CE010E94F9
:10348000E318080F191FBB2039F06EEF71E0CE0171
:103490000E948B18080F191F7B2C772041F120E028
:1034A00030E040E251E4C701B6010E94351D6B01D6
:1034B0007C010E944E1C4B01AA2497FCA094BA2CBC
:1034C0002AE030E0B501A401CE010E943219080FB4
:1034D000191FC501B4010E94811C9B01AC01C701E9
:1034E000B6010E947D1B6B017C017A94D6CFC80186
:1034F000DF91CF911F910F91FF90EF90DF90CF90D0
:10350000BF90AF909F908F907F906F905F904F9003
:1035100008950C949E190F931F93CF93DF93EC01A2
:103520000E94E814688779878A879B87E881F981F8
:103530000084F185E02DCE01099597FF15C00E940A
:10354000E814088519852A853B85601B710B820B61
:10355000930B0C811D812E813F81601771078207BB
:10356000930720F38FEF9FEFDF91CF911F910F9182
:103570000895FF920F931F93CF93DF93EC018B017C
:10358000F42ECE010E948B1A9C0197FD28C08D322B
:10359000910519F1C0970A9710F1FF2019F02E320A
:1035A0003105F9F001301105F9F00230110569F427
:1035B0002D30310551F034F42950310922303105D4
:1035C00020F012C02032310579F4E881F9810680BB
:1035D000F781E02DCE010995D4CF8DE203C0C9015A
:1035E00005C08EE290E002C08FEF9FEFDF91CF9198
:1035F0001F910F91FF900895CF92DF92FF920F934A
:103600001F93CF93DF9300D000D0CDB7DEB76C010E
:10361000042F40E00E94B91AFC0197FD4BC020E046
:1036200030E0A901F12C112707FD1095E017F107F3
:10363000E9F0ED32F105C1F0CF01C0970A97B0F47F
:10364000AAE0B0E00E94DD1D9B01AC01CF01AA27DA
:1036500097FDA095BA2F280F391F4A1F5B1F2053D3
:1036600031094109510902C0FF24F394D601ED91BB
:10367000FC910680F781E02DC60129833A834B83B4
:103680005C830995C6010E948B1AFC01C0972981B1
:103690003A814B815C810A9748F2E017F10731F2D9
:1036A000FF2061F066277727CB01621B730B840B29
:1036B000950B06C060E070E0CB0102C0CA01B90101
:1036C0000F900F900F900F90DF91CF911F910F915E
:1036D000FF90DF90CF90089508950E9451150E94A9
:1036E0006C1B0E944504C6EAD6E10E94C1042097E3
:1036F000E1F30E94A616F9CF08955058BB27AA27D8
:103700000ED075C166D130F06BD120F031F49F3FFF
:1037100011F41EF45BC10EF4E095E7FB51C1E92FF3
:1037200077D180F3BA17620773078407950718F0FB
:1037300071F49EF58FC10EF4E0950B2EBA2FA02DDB
:103740000B01B90190010C01CA01A0011124FF274E
:10375000591B99F0593F50F4503E68F11A16F04049
:10376000A22F232F342F4427585FF3CF4695379548
:103770002795A795F0405395C9F77EF41F16BA0B0D
:10378000620B730B840BBAF09150A1F0FF0FBB1FBB
:10379000661F771F881FC2F70EC0BA0F621F731F04
:1037A000841F48F4879577956795B795F7959E3F61
:1037B00008F0B3CF9395880F08F09927EE0F9795EF
:1037C00087950895D9D008F481E008950CD00FC1F1
:1037D00007D140F0FED030F021F45F3F19F0F0C087
:1037E000511139C1F3C014D198F39923C9F355236A
:1037F000B1F3951B550BBB27AA27621773078407E4
:1038000038F09F5F5F4F220F331F441FAA1FA9F399
:1038100033D00E2E3AF0E0E830D091505040E6958B
:10382000001CCAF729D0FE2F27D0660F771F881FEC
:10383000BB1F261737074807AB07B0E809F0BB0BDB
:10384000802DBF01FF2793585F4F2AF09E3F5105FF
:1038500068F0B6C000C15F3FECF3983EDCF386959C
:1038600077956795B795F7959F5FC9F7880F911D75
:103870009695879597F90895E1E0660F771F881F61
:10388000BB1F621773078407BA0720F0621B730B14
:10389000840BBA0BEE1F88F7E095089504D0689466
:1038A000B111D9C00895BCD088F09F5790F0B92FBE
:1038B0009927B751A0F0D1F0660F771F881F991F85
:1038C0001AF0BA95C9F712C0B13081F0C3D0B1E097
:1038D0000895C0C0672F782F8827B85F39F0B93FA7
:1038E000CCF3869577956795B395D9F73EF4909587
:1038F0008095709561957F4F8F4F9F4F0895E89405
:1039000009C097FB3EF490958095709561957F4F27
:103910008F4F9F4F9923A9F0F92F96E9BB279395D5
:10392000F695879577956795B795F111F8CFFAF4E5
:10393000BB0F11F460FF1BC06F5F7F4F8F4F9F4F16
:1039400016C0882311F096E911C0772321F09EE874
:10395000872F762F05C0662371F096E8862F70E0DA
:1039600060E02AF09A95660F771F881FDAF7880FB4
:103970009695879597F90895990F0008550FAA0B0A
:10398000E0E8FEEF16161706E807F907C0F0121672
:103990001306E407F50798F0621B730B840B950B75
:1039A00039F40A2661F0232B242B252B21F40895CA
:1039B0000A2609F4A140A6958FEF811D811D089567
:1039C00097F99F6780E870E060E008959FEF80ECD2
:1039D000089500240A941616170618060906089575
:1039E00000240A9412161306140605060895092EDB
:1039F0000394000C11F4882352F0BB0F40F4BF2B4A
:103A000011F460FF04C06F5F7F4F8F4F9F4F089589
:103A100057FD9058440F551F59F05F3F71F047957F
:103A2000880F97FB991F61F09F3F79F08795089564
:103A3000121613061406551FF2CF4695F1DF08C083
:103A4000161617061806991FF1CF869571056105A0
:103A500008940895E894BB2766277727CB0197F948
:103A600008958ADF08F48FEF08950BD0C0CFB1DF3F
:103A700028F0B6DF18F0952309F0A2CFA7CF1124C4
:103A8000EACFC6DFA0F3959FD1F3950F50E0551F05
:103A9000629FF001729FBB27F00DB11D639FAA27A3
:103AA000F00DB11DAA1F649F6627B00DA11D661FF2
:103AB000829F2227B00DA11D621F739FB00DA11D13
:103AC000621F839FA00D611D221F749F3327A00DCD
:103AD000611D231F849F600D211D822F762F6A2F69
:103AE00011249F5750408AF0E1F088234AF0EE0FEE
:103AF000FF1FBB1F661F771F881F91505040A9F7FB
:103B00009E3F510570F05CCFA6CF5F3FECF3983E2F
:103B1000DCF3869577956795B795F795E7959F5F61
:103B2000C1F7FE2B880F911D9695879597F90895FB
:103B300023DF880B990B0895DB018F939F930E94DD
:103B4000DD1DBF91AF91A29F800D911DA39F900D90
:103B5000B29F900D11240895A1E21A2EAA1BBB1B3F
:103B6000FD010DC0AA1FBB1FEE1FFF1FA217B30749
:103B7000E407F50720F0A21BB30BE40BF50B661F5F
:103B8000771F881F991F1A9469F760957095809523
:103B900090959B01AC01BD01CF010895A29FB0019A
:103BA000B39FC001A39F700D811D1124911DB29F71
:103BB000700D811D1124911D08950E94CE1DA59F99
:103BC000900DB49F900DA49F800D911D1124089518
:103BD000EE0FFF1F0590F491E02D0994AEE0B0E0E8
:103BE000E4EFFDE10C94AC200D891E8986E08C8306
:103BF0001A8309838FEF9FE79E838D83AE01475E13
:103C00005F4F6F89788DCE0101960E94101EEF8163
:103C1000F885E00FF11F10822E96E4E00C94C82086
:103C2000ACE0B0E0E6E1FEE10C949E207C016B018B
:103C30008A01FC0117821682838181FFBDC1CE01FA
:103C400001964C01F7019381F60193FD859193FF55
:103C500081916F01882309F4ABC1853239F493FD5A
:103C6000859193FF81916F01853229F4B70190E02E
:103C70000E940E20E7CF512C312C20E02032A0F4FE
:103C80008B3269F030F4803259F0833269F420616C
:103C90002CC08D3239F0803339F4216026C0226087
:103CA000246023C0286021C027FD27C030ED380FD5
:103CB0003A3078F426FF06C0FAE05F9E300D1124FA
:103CC000532E13C08AE0389E300D1124332E20620B
:103CD0000CC08E3221F426FD6BC1206406C08C36E8
:103CE00011F4206802C0883641F4F60193FD8591F5
:103CF00093FF81916F018111C1CF982F9F7D9554C2
:103D0000933028F40C5F1F4FFFE3F9830DC0833617
:103D100031F0833771F0833509F05BC022C0F801C0
:103D2000808189830E5F1F4F44244394512C54019A
:103D300015C03801F2E06F0E711CF801A080B1804F
:103D400026FF03C0652D70E002C06FEF7FEFC50155
:103D50002C870E9403202C0183012C852F77222E93
:103D600017C03801F2E06F0E711CF801A080B1801D
:103D700026FF03C0652D70E002C06FEF7FEFC50125
:103D80002C870E94F81F2C012C852068222E83018D
:103D900023FC1BC0832D90E048165906B0F4B701F0
:103DA00080E290E00E940E203A94F4CFF50127FCC7
:103DB000859127FE81915F01B70190E00E940E205E
:103DC00031103A94F1E04F1A51084114510471F73F
:103DD000E5C0843611F0893639F5F80127FF07C0B0
:103DE00060817181828193810C5F1F4F08C0608167
:103DF0007181882777FD8095982F0E5F1F4F2F7652
:103E0000B22E97FF09C090958095709561957F4F70
:103E10008F4F9F4F2068B22E2AE030E0A4010E940D
:103E20004020A82EA81844C0853729F42F7EB22E32
:103E30002AE030E025C0F22FF97FBF2E8F36C1F087
:103E400018F4883579F0B4C0803719F0883721F03C
:103E5000AFC02F2F2061B22EB4FE0DC08B2D846019
:103E6000B82E09C024FF0AC09F2F9660B92E06C045
:103E700028E030E005C020E130E002C020E132E07F
:103E8000F801B7FE07C060817181828193810C5F68
:103E90001F4F06C06081718180E090E00E5F1F4F70
:103EA000A4010E944020A82EA818FB2DFF77BF2E4A
:103EB000B6FE0BC02B2D2E7FA51450F4B4FE0AC005
:103EC000B2FC08C02B2D2E7E05C07A2C2B2D03C0F2
:103ED0007A2C01C0752C24FF0DC0FE01EA0DF11DE6
:103EE0008081803311F4297E09C022FF06C07394BB
:103EF000739404C0822F867809F0739423FD13C055
:103F000020FF06C05A2C731418F4530C5718732C46
:103F1000731468F4B70180E290E02C870E940E20B1
:103F200073942C85F5CF731410F4371801C0312C1D
:103F300024FF12C0B70180E390E02C870E940E207E
:103F40002C8522FF17C021FF03C088E590E002C046
:103F500088E790E0B7010CC0822F867859F021FDE8
:103F600002C080E201C08BE227FD8DE2B70190E044
:103F70000E940E20A51438F4B70180E390E00E945F
:103F80000E205A94F7CFAA94F401EA0DF11D808116
:103F9000B70190E00E940E20A110F5CF332009F464
:103FA00051CEB70180E290E00E940E203A94F6CF05
:103FB000F7018681978102C08FEF9FEF2C96E2E197
:103FC0000C94BA20F999FECF92BD81BDF89A992739
:103FD00080B50895262FF999FECF1FBA92BD81BDF5
:103FE00020BD0FB6F894FA9AF99A0FBE019608957B
:103FF000FC010590615070400110D8F780959095B4
:104000008E0F9F1F0895FC016150704001900110B8
:10401000D8F7809590958E0F9F1F08950F931F934B
:10402000CF93DF93182F092FEB018B8181FD03C004
:104030008FEF9FEF20C082FF10C04E815F812C81E7
:104040003D81421753077CF4E881F9819F012F5F7E
:104050003F4F39832883108306C0E885F985812F77
:104060000995892B29F72E813F812F5F3F4F3F8391
:104070002E83812F902FDF91CF911F910F91089563
:10408000FA01AA27283051F1203181F1E8946F9389
:104090006E7F6E5F7F4F8F4F9F4FAF4FB1E03ED02F
:1040A000B4E03CD0670F781F891F9A1FA11D680FCD
:1040B000791F8A1F911DA11D6A0F711D811D911D00
:1040C000A11D20D009F468943F912AE0269F112475
:1040D0003019305D3193DEF6CF010895462F4770D9
:1040E000405D4193B3E00FD0C9F7F6CF462F4F7034
:1040F000405D4A3318F0495D31FD4052419302D092
:10410000A9F7EACFB4E0A695979587957795679537
:10411000BA95C9F700976105710508959B01AC0137
:104120000A2E06945795479537952795BA95C9F75E
:10413000620F731F841F951FA01D08952F923F9239
:104140004F925F926F927F928F929F92AF92BF92A7
:10415000CF92DF92EF92FF920F931F93CF93DF9353
:10416000CDB7DEB7CA1BDB0B0FB6F894DEBF0FBEB0
:10417000CDBF09942A88398848885F846E847D84FD
:104180008C849B84AA84B984C884DF80EE80FD80FF
:104190000C811B81AA81B981CE0FD11D0FB6F89475
:0E41A000DEBF0FBECDBFED010895F894FFCF36
:1041AE000000530480002F142F1400000000B30BE6
:1041BE0066071D07000C600C8508010BEC069F08B6
:1041CE0020091608800C0707F806464C583F454F45
:1041DE004600464C583F0048616E647368616B65DB
:1041EE00206661696C00464C583A25753A00464C7B
:1041FE00583F4F4B202841434B2073656E74290066
:10420E00464C58494D473A00726164696F205B0015
:10421E005D203E2000464C583A25753A4F4B0046DD
:10422E004C583F4F4B20726573656E6400494D4785
:10423E0020657863656564732033316B2C2072655D
:10424E00667573696E6720697400464C583F4E4F11
:10425E004B0052465458203E2000524641434B20BC
:10426E003E200054696D656F7574207761697469BD
:10427E006E6720666F72207061636B6574204143B8
:10428E004B2C2061626F7274696E6720464C4153ED
:10429E0048206F7065726174696F6E202E2E2E002D
:1042AE00464C583A494E560054696D656F757420E8
:1042BE00726563656976696E6720464C4153482086
:1042CE00696D6167652066726F6D20534552494175
:1042DE004C2C2061626F7274696E672E2E2E000A4E
:1042EE00464C583F4F4B00464C41534820494D4792
:1042FE00205452414E534D495353494F4E2053551E
:10430E00434345535300464C41534820494D4720A3
:10431E005452414E534D495353494F4E20464149F5
:10432E004C005245424F4F54494E4700464C415364
:10433E004820494D47205452414E534D49535349FD
:10434E004F4E2053554343455353210A0054696D34
:10435E00656F75742F4572726F722C206572617362
:10436E00696E67207772697474656E20646174611A
:10437E00202E2E2E2000444F4E450000000000F748
:10438E00166318791692168416D5160D0A006E61EC
:0A439E006E00696E66006F7666001F
:00000001FF
