:100000000C94AD010C9488130C94AF130C94D5018F
:100010000C94D5010C94D5010C94D5010C94D50108
:100020000C94D5010C94D5010C94D5010C94D501F8
:100030000C94D5010C94D5010C94D5010C94D501E8
:100040000C94D6130C94D5010C94F6160C94281726
:100050000C94D5010C94D5010C94D5010C94D501C8
:100060000C94D5010C94D501524543563A20002AF0
:100070002A524553454E44494E472A2A09004861B1
:100080006E646F66662074696D65287573293D001E
:100090000961766572616765287573293D0053456E
:1000A0004E443A2000537461727475702E2020649F
:1000B000656C61792061667465722063616C696248
:1000C000726174696F6E20286D73293D00537461ED
:1000D000727475702E202064656C6179206265668B
:1000E0006F72652063616C6962726174696F6E2002
:1000F000286D73293D00537461727475702E202031
:10010000626F6F74737472617020726573706F6E5A
:10011000736962696C6974793F2000537461727409
:1001200075702E20206D794E6F646549443D00093D
:100130007265637646726F6D3D0009207472616E60
:1001400073546F3D000973746174653D00096D73EC
:10015000673D0009733D002D3E004E6574776F7258
:100160006B2E20004E6574776F726B2E2050726F6D
:100170006772616D6D657220747261666669632E67
:10018000004E6574776F726B2E20526570726F67C8
:1001900072616D6D696E67206D6573736167653F30
:1001A000004E6574776F726B2E2073746172747574
:1001B0007020636F6D706C6574652077697468205A
:1001C0006D794E6F646549443D00206D79496E64D8
:1001D00065783D00456E74657220746865206E6FA9
:1001E0006465206E756D62657220666F722074683A
:1001F0006973206E6F64653A004E6574776F726B39
:100200002E204552524F52206E6F206E6F6465490A
:100210004420666F756E6420696E20454550524FCC
:100220004D21004E6574776F726B2E2020777269B6
:1002300074696E67206E6F6465494420746F204551
:100240004550524F4D3D004E6574776F726B2E20B6
:1002500072656164206E6F646549442066726F6DDB
:1002600020454550524F4D3D004E6574776F726B7F
:100270002E20737461727475702E004469737461FA
:100280006E63652E202063616C69627261746564BF
:100290002072616E67652066696E6465722E004427
:1002A000697374616E63652E202063616C6962728C
:1002B0006174696E672072616E67652066696E643D
:1002C00065722E2E2E0044697374616E63652E2054
:1002D000207374617274757020636F6D706C6574D7
:1002E000652E0044697374616E63652E20207374FB
:1002F00061727475702E2E2E2E0000000008000210
:1003000001000003040700000000000000000102DB
:100310000408102040800102040810200102040893
:100320001020040404040404040402020202020271
:100330000303030303030000000023002600290039
:1003400000000000250028002B0000000000240011
:1003500027002A00C604D111581711241FBECFEF61
:10036000D8E0DEBFCDBF13E0A0E0B1E0E2EFF9E3FB
:1003700002C005900D92A230B107D9F724E0A2E0A7
:10038000B3E001C01D92AC36B207E1F713E0CAE555
:10039000D3E004C02297FE010E940C1AC435D10795
:1003A000C9F70E94B2190C94F71C0C940000CF926C
:1003B000DF92EF92FF920F931F93E82FF92F05C062
:1003C000015011092109310961F190819623941797
:1003D000B9F305C0015011092109310911F19081CA
:1003E00096239413F7CFC12CD12CE12CF12C0AC009
:1003F0008FEFC81AD80AE80AF80A0C151D052E0551
:100400003F0579F080818623841791F36C2D7D2D33
:100410008E2D9F2D1F910F91FF90EF90DF90CF9029
:10042000089560E070E080E090E01F910F91FF90F0
:10043000EF90DF90CF9008958F929F92AF92BF92EE
:10044000CF92DF92EF92FF921F93CF93DF93CDB7BE
:10045000DEB728970FB6F894DEBF0FBECDBF609110
:10046000A20382EA93E00E94F70F80932003609139
:10047000A20382EA93E00E940310182F80931F03C7
:10048000F0902003E090A2036BE171E08FEC93E029
:100490000E94D9174AE050E06E2D8FEC93E00E9445
:1004A000C9186FE271E08FEC93E00E94D9174AE01F
:1004B00050E06F2D8FEC93E00E94C9186AE371E061
:1004C0008FEC93E00E94D9174AE050E0612F8FEC47
:1004D00093E00E94C9188FEC93E00E94051811E088
:1004E0008091A2038A3009F010E066EF70E08FEC93
:1004F00093E00E94D917612F70E04AE050E08FEC42
:1005000093E00E94B4188FEC93E00E9405182091AC
:10051000A30330E0A8EEB3E00E94F0194B015C01A8
:100520006B017C0184EFC80E81E0D81EE11CF11C38
:100530006DEC70E08FEC93E00E94D9172AE030E078
:10054000B701A6018FEC93E00E94BC188FEC93E0FA
:100550000E940518B701A601CE0101960E94FC0475
:10056000CE0101960E944E05CE0101960E9408051B
:10057000811105C082EA93E00E940F10F5CF61E07F
:1005800089E00E94261585EC93E00E94FF1260E04E
:1005900089E00E94261588EBC82E8BE0D82EE12C2E
:1005A000F12CC818D908EA08FB0865EA70E08FEC5E
:1005B00093E00E94D9172AE030E0B701A6018FEC42
:1005C00093E00E94BC188FEC93E00E940518B701DD
:1005D000A601CE0101960E940205CE0101960E945D
:1005E0004E05CE0101960E940805811105C082EAE0
:1005F00093E00E940F10F5CF81E090E09093AB0361
:100600008093AA03112319F06EE373E002C064E43F
:1006100073E089E293E00E948F0F28960FB6F8945A
:10062000DEBF0FBECDBFDF91CF911F91FF90EF9046
:10063000DF90CF90BF90AF909F908F900895CF9311
:10064000DF9361E089E00E94261585EC93E00E942B
:100650003513EC0182EA93E00E944911E091A30373
:10066000F0E0EE0FFF1FE455FC4FD183C08382E022
:100670008093B20382EA93E00E94771168E373E00B
:1006800089E293E0DF91CF910C948F0F9091A403B6
:1006900080912003981306C06EE373E089E293E033
:1006A0000C948F0F08958091AA039091AB03029749
:1006B00031F06AE473E089E293E00E948F0F809149
:1006C000170381110BC044EF51E060E070E087E058
:1006D00093E00E94FC0481E08093170387E093E09D
:1006E0000E940805882349F06091060381E068278D
:1006F0006093060389E00C9426150895CF92DF924B
:10070000EF92FF920F931F9380910F0381110DC001
:100710000E942C14609302037093030380930403DC
:100720009093050381E080930F030E942C148B01AA
:100730009C01409102035091030360910403709166
:10074000050368017901C41AD50AE60AF70AC70148
:10075000B601009302031093030320930403309324
:1007600005031F910F91FF90EF90DF90CF900895B8
:100770008091AA039091AB03029719F460E573E0AE
:1007800018C060911F0382EA93E00E94B0116EE9E5
:1007900070E08FEC93E00E94D91782EA93E00E9408
:1007A000ED1081E293E00E944E050E947E0362E319
:1007B00073E089E293E00C948F0F8F929F92AF9237
:1007C000BF92CF92DF92EF92FF929091A40380911B
:1007D0001F0398134BC060E089E00E9426150E9419
:1007E0007E034B015C01209106013091070140918D
:1007F000080150910901A9E0B0E00E94FF19680DBD
:10080000791D8A1D9B1D2AE030E040E050E00E94E7
:10081000CE1969017A0120930601309307014093B4
:100820000801509309016EE770E08FEC93E00E949D
:10083000D9172AE030E0B501A4018FEC93E00E94C3
:10084000BC1860E970E08FEC93E00E94D9172AE0B1
:1008500030E0B701A6018FEC93E00E94BC188FEC4A
:1008600093E00E94051864E473E00EC081E293E017
:100870000E9408058823A1F06FE670E08FEC93E0FA
:100880000E94D91768E373E089E293E0FF90EF904C
:10089000DF90CF90BF90AF909F908F900C948F0F70
:1008A000FF90EF90DF90CF90BF90AF909F908F9090
:1008B00008950F93CF93DF93CDB7DEB728970FB688
:1008C000F894DEBF0FBECDBF26E040E052EC61E001
:1008D00070E08FEC93E00E9494160FE12BE54DE958
:1008E0006FEF82EA93E00E94F11148EE53E060E07E
:1008F00070E0CE0101960E94FC04CE0101960E9498
:100900000805811105C082EA93E00E940F10F5CF1F
:1009100085EC93E00E94CF1228960FB6F894DEBFC4
:100920000FBECDBFDF91CF910F910895CF9382EA93
:1009300093E00E940F10C82F2091AA033091AB03BF
:100940002230310531F460E573E089E293E00E94E2
:100950008F0F2091AA033091AB03232B31F46AE46B
:1009600073E089E293E00E948F0FCC2351F068E698
:1009700070E08FEC93E00E94D91782EA93E00E9426
:10098000ED1089E293E0CF910C94BB0F63E573E027
:1009900080E593E00E94620F6CE172E08AE493E0EC
:1009A0000E94620F66E473E084E493E00E94620FA9
:1009B0006FE173E08EE393E00E94620F68EB73E0F7
:1009C00088E393E00E94620F6DED73E082E393E0B1
:1009D0000E94620F6AE473E089E293E00E94830F51
:1009E00040910A0150910B0160910C0170910D0131
:1009F00081E293E00C94FC04FC01448355836683FC
:100A000077830895FC014483558366837783089533
:100A10008F929F92AF92BF92CF92DF92EF92FF920E
:100A20000F931F93CF93DF93EC010E9420148C80CF
:100A30009D80AE80BF8081149104A104B10429F48B
:100A4000688379838A839B8319C0088119812A81ED
:100A50003B816B017C01C01AD10AE20AF30AC81477
:100A6000D904EA04FB0460F0B901A801480D591D3E
:100A70006A1D7B1D488359836A837B8381E001C0A3
:100A800080E0DF91CF911F910F91FF90EF90DF9069
:100A9000CF90BF90AF909F908F900895CF93DF93AA
:100AA000EC010E942014688379838A839B83DF9101
:100AB000CF91089508958091560390915703DC01DA
:100AC000ED91FC910484F585E02D0994CF93DF939B
:100AD000EC0161E08A810E94261589858CBD8A859A
:100AE0008DBD7894DF91CF910895FC01F8948CB579
:100AF00081878DB582878CB5837F8CBD8CB58F7DCA
:100B00008CBD8CB58C7F8CBD8DB58E7F8DBD60E02E
:100B100082810C942615F89420916003233021F4EF
:100B200020915C0321110FC020916003233011F448
:100B3000789407C0DC01ED91FC910288F389E02DE7
:100B4000099580E00895DC01ED91FC910488F58918
:100B5000E02D61E0099581E008958EBD00000DB49F
:100B600007FEFDCF8EB50895CF93DF931F92CDB7CB
:100B7000DEB7DC01ED91FC910480F581E02D698305
:100B800009956981882359F080915E03861711F0D9
:100B90006F3F29F490915A0381E0911101C080E0E8
:100BA0000F90DF91CF9108952F923F924F925F92D5
:100BB0007F928F929F92AF92BF92CF92DF92EF92ED
:100BC000FF920F931F93CF93DF93EC01962E5A0160
:100BD000722E802E10E0CE2CD12CE12CF12CE8814D
:100BE000F9810190F081E02D01E0272DA501692D0B
:100BF000CE0109950E9420141B012C010E94201493
:100C000062197309840995096C157D058E059F0588
:100C100040F4692DCE010E94B405882379F381E068
:100C200004C01F5F8116D8F680E0DF91CF911F913D
:100C30000F91FF90EF90DF90CF90BF90AF909F907B
:100C40008F907F905F904F903F902F90089580916C
:100C50005B03882329F090915D0381E09F3F09F4B5
:100C600080E00895EF92FF921F93CF93DF931F923E
:100C7000CDB7DEB77C01DC01ED91FC91008CF18DEC
:100C8000E02D698309956981862F8F770E94AD05D4
:100C900080E00E94AD05182FD701ED91FC91028CE8
:100CA000F38DE02DC7010995812F0F90DF91CF9132
:100CB0001F91FF90EF9008950F931F93CF93DF93B1
:100CC00000D0CDB7DEB78C01DC01ED91FC91008C3A
:100CD000F18DE02D4A83698309956981862F8068AB
:100CE0000E94AD054A81842F0E94AD05D801ED9187
:100CF000FC91028CF38DE02DC8010F900F90DF91D5
:100D0000CF911F910F9109941F93CF93DF93EC0123
:100D1000162F80916003681709F461C0623009F4EE
:100D200040C070F4662309F444C0613009F057C034
:100D300061E0CE010E943206482F437E44603FC0EE
:100D40006330C1F0643009F04AC061E0CE010E9416
:100D50003206482F437E4C6061E0CE010E945C0663
:100D60008885882381F1E881F9810688F789E02D5B
:100D700061E014C061E0CE010E943206482F437E3C
:100D8000406161E0CE010E945C0688858823D9F02D
:100D9000E881F9810688F789E02D60E0CE010995A8
:100DA00012C061E0CE010E943206482F437E4860A7
:100DB00006C061E0CE010E943206482F437E61E00A
:100DC000CE010E945C0680916003811106C067E23B
:100DD000CE010E94320687FFF6CF10936003DF91A9
:100DE000CF911F910895CF93DF93EC01603208F00B
:100DF0006FE16F838885882311F066956F8361E1C9
:100E0000CE010E943206482F407E8F81482B61E13F
:100E1000CE01DF91CF910C945C06CF92DF92EF92DE
:100E2000FF920F931F93CF93DF93EC01F62ED42EF6
:100E3000C52E122FE881F9810488F589E02D61E043
:100E4000099567E2CE010E94320687FFFACF40E0A3
:100E500065E2CE010E945C061E3308F01DE3E1103E
:100E600004C0002319F000E401C000E8E881F98122
:100E7000008CF18DE02DCE01099580E80E94AD0532
:100E800083E0810F0E94AD058F2D0E94AD058D81FD
:100E90000E94AD05802F0E94AD050D2DED2CFC2C80
:100EA0008E2D801B811730F4F70181917F010E9404
:100EB000AD05F6CFE881F981028CF38DE02DCE01EE
:100EC0000995E881F9810488F589E02D64E0CE0177
:100ED00009950E9420146B017C018B810E945C1596
:100EE000892B81F0E881F9810488F589E02D61E0A2
:100EF000CE01DF91CF911F910F91FF90EF90DF9086
:100F0000CF9009940E9420146C197D098E099F09C5
:100F1000683E73408105910528F7DFCFCF93DF93BB
:100F2000EC0110925F0310925E0310925D03109229
:100F30005C0310925B0310925A03109259031092B3
:100F4000580368E20E94320682FF0AC06DE3CE01B8
:100F50000E943206482F44606DE3CE010E945C0679
:100F600040E465E2CE010E945C06E881F9810488D4
:100F7000F589E02D63E0CE01DF91CF910994DF92F6
:100F8000EF92FF920F931F93CF93DF93EC018B01AE
:100F9000E881F9810488F589E02D61E00995011562
:100FA0001105E1F0E881F981008CF18DE02DCE0191
:100FB00009958EEB0E94AD057801D12CF701819146
:100FC0007F010E94AD05D394F0E1DF12F7CFE881F5
:100FD000F981028CF38DE02DCE0109956DE3CE01F0
:100FE0000E9432068E7F91E0012B09F490E0482F99
:100FF000492B6DE3CE01DF91CF911F910F91FF90AF
:10100000EF90DF900C945C068F929F92AF92BF920C
:10101000DF92EF92FF920F931F93CF93DF93CDB7A1
:10102000DEB7AE970FB6F894DEBF0FBECDBF7C0122
:10103000D42E8EE28E010F5F1F4FD801E82F1D9234
:10104000EA95E9F791E0998334E03A8342E04B83F3
:1010500093E09D834E833F8340E4488735E03987A2
:101060009A8796E09B8793E39C8737E03D8798E0DB
:101070009F8799E0998B99E19B8B92E49C8B55E239
:101080005D8B4E8B46E24F8B388F38E2398F30E1E3
:101090003A8F39E23B8F3CED3C8F8D8F88E88E8F05
:1010A0008FE28F8F8DE288A380E389A337E33BA390
:1010B00030E93CA338E33DA39EA39CE39FA39FE8B4
:1010C00098A79DE399A792E19AA79FE69BA78CA773
:1010D0008FEF8DA76F3131F06B3231F0663531F41F
:1010E00089ED05C08EE403C08CE601C084EE8E87D6
:1010F0006F3141F06B3221F0663521F480E003C09E
:1011000080E401C080EC888B2AA361E0D7011296AD
:101110008C910E94261561E0F70182810E94ED14F6
:101120000E940B0B0E9420144B015C014AEA6FE203
:10113000C7010E945C066FE2C7010E9432068A3A2C
:1011400059F00E942014681979098A099B096233B1
:1011500071058105910550F30E9420144B015C013B
:1011600045E56FE2C7010E945C066FE2C7010E947D
:101170003206853559F00E942014681979098A09C8
:101180009B09623371058105910550F3B12CF8017B
:10119000EB0DF11DEB0DF11D60816F3F31F04181D1
:1011A000C7010E945C06B394F2CF60E070E0C70113
:1011B0000E94BF07D701ED91FC9111970084F18542
:1011C000E02D18966C91C7010995D701ED91FC911E
:1011D0000488F589E02D61E0C70109950E9420147B
:1011E0004B015C0167E2C7010E94320687FD0BC01C
:1011F0000E942014681979098A099B0962337105D4
:101200008105910578F30E942014681979098A09EB
:101210009B09623371058105910588F443E050E034
:101220006BE575E0F70184810E946813F092570323
:10123000E0925603D7011596DC9281E001C080E070
:10124000AE960FB6F894DEBF0FBECDBFDF91CF9143
:101250001F910F91FF90EF90DF90BF90AF909F9004
:101260008F900895CF93DF93EC0161110DC064E27C
:10127000CE010E94320690E0919581959109959555
:101280008795DF91CF91089541E063E20E945C066B
:1012900063E2CE010E94320681FFFACFE8CFCF93FE
:1012A000DF93EC01809160038330A9F480915C03AB
:1012B000811111C060E0CE010E943209863A9F4F31
:1012C00054F4E881F9810488F589E02D61E0CE01CC
:1012D000099581E001C080E0DF91CF910895FF92F0
:1012E0000F931F93CF93DF93EC01809160038330C2
:1012F00001F568E2CE010E94320682FD28C019C0C5
:1013000080915F038D3330F4E0915F03F0E0EF599B
:10131000FC4F1082E881F981028CF38DE02DCE0123
:101320000995E881F9810488F589E02D63E0CE0113
:10133000099560E0CE010E94320990935903809391
:101340005803DF91CF911F910F91FF900895E8818D
:10135000F9810488F589E02D61E0CE010995E881E5
:10136000F981008CF18DE02DCE01099580E00E947D
:10137000AD0580E00E94AD0580935C0380915C0325
:101380008334D0F480915C0380935C0380E00E94FE
:10139000AD0580935D038E81811109C090915D033D
:1013A0008D81981721F080915D038F3F39F48091F2
:1013B0005C03833018F017C082E4E6CF10925C0320
:1013C000E881F981028CF38DE02DCE010995E88149
:1013D000F9810288F389E02DCE01DF91CF911F9131
:1013E0000F91FF90099480915C03835080935F0379
:1013F00080E00E94AD0580935E0380E00E94AD0511
:10140000982F907890935A03982F907490935B0341
:10141000E881F9810684F785E02D682FCE010995D2
:10142000F12C80915F03F81608F06ACF0F2D10E0C1
:1014300080E00E94AD05F801EF59FC4F8083F394E2
:10144000F0CF4F925F926F927F929F92AF92BF9236
:10145000EF920F931F93CF93DF93EC01162F5A0156
:10146000922E6DE30E943206482F44606DE3CE0158
:101470000E945C060E9420142B013C01CE010E94B8
:101480004F098823C1F0E881F9810088F189E02DB6
:10149000E12C292DA501612FCE010995DF91CF9176
:1014A0001F910F91EF90BF90AF909F907F906F90A2
:1014B0005F904F9008950E94201464197509860961
:1014C0009709683E734081059105E8F6E881F98146
:1014D0000480F581E02DCE010995D0CF4F925F9227
:1014E0006F927F929F92AF92BF92CF92DF92EF92D4
:1014F000FF920F93CF93DF93EC015B01942E109238
:101500005B03F0905E03C0905803D09059036DE3E5
:101510000E943206482F44606DE3CE010E945C06B3
:101520000E9420142B013C01CE010E944F09882308
:1015300011F1F0925E03E881F9810088F189E02DD4
:10154000EE24E39400E0292DA5016F2DCE0109952D
:10155000D0925903C0925803DF91CF910F91FF9021
:10156000EF90DF90CF90BF90AF909F907F906F9063
:101570005F904F9008950E942014641975098609A0
:101580009709683E73408105910598F6E881F981D5
:101590000480F581E02DCE010995C6CFCF93DF936E
:1015A000EC016887662311F04FE001C04AE163E176
:1015B000CE010E945C068885882341F061E1CE015E
:1015C0000E943206482F4F71406602C04F8140682A
:1015D00061E1CE01DF91CF910C945C061F93CF9314
:1015E000DF93EC01162F662311F04DE501C045E5B0
:1015F0006AE5CE010E945C06112311F04CE701C0A0
:1016000040E76CE5CE01DF91CF911F910C945C0611
:10161000FC0166830895CF93CFB7F8948091A1031E
:10162000811127C0ECE2F3E08491E8E1F3E09491CA
:10163000E82FF0E0EE0FFF1FE65BFC4FA591B491A1
:101640008C91892321F461E08AE00E94261561E0F3
:101650008AE00E94ED148CB580618CBD8CB58064ED
:101660008CBD61E08DE00E94ED1461E08BE00E9492
:10167000ED148091A1038F5F8093A103CFBFCF9121
:101680000895FC0180E5858316826083528341833F
:101690000895FC018CB583838DB5848335812681C3
:1016A0008091A003882399F09FB7F8948091A003BC
:1016B000813059F48DB380939E034DB380919F0385
:1016C000809584238DBB9FBF02C090939E033CBD39
:1016D0002DBD60E080810C942615CF93DF93EC0143
:1016E00061E088810E9426158091A003882361F023
:1016F0009FB7F8942091A00380919E03213019F4A4
:101700008DBB9FBF01C08FBF8B818CBD8C818DBD78
:10171000DF91CF9108951F93CF93DF93EC010E9447
:10172000490B85E00E94AD0580E00E94AD05182FB1
:10173000CE010E946D0B812FDF91CF911F910895F3
:101740000E948B0B817008951F93CF93DF93EC0160
:10175000162F442339F040E066E00E94A40BCE012E
:101760000E946D0BCE010E94A00B8111FBCFCE0118
:101770000E94490B812FDF91CF911F910C94AD05F1
:10178000EF92FF920F931F93CF93DF9300D0CDB7CB
:10179000DEB77C01142F062F41E062E02A835983D3
:1017A0000E94A40B802F0E94AD055981852F0E94B5
:1017B000AD05812F0E94AD052A81822F0E94AD05C3
:1017C000C7010F900F90DF91CF911F910F91FF9064
:1017D000EF900C946D0B2F923F924F925F926F920D
:1017E0007F928F929F92AF92BF92CF92DF92EF92B1
:1017F000FF920F931F93CF93DF936C012A013B015C
:101800005901CA019927C0E0D1E0C81BD90BE12CCE
:10181000F12C0115110579F10C171D0708F4E801E9
:1018200041E062E0C6010E94A40B862D0E94AD0536
:10183000852D0E94AD05842D0E94AD0515012E0C4D
:101840003F1C4101F40181914F010E94AD05C4018B
:10185000821993098C179D07A8F3C6010E946D0B8E
:101860004C0E5D1E611C711CEC0EFD1E0C1B1D0B35
:10187000C0E0D1E0CECFDF91CF911F910F91FF90CB
:10188000EF90DF90CF90BF90AF909F908F907F9020
:101890006F905F904F903F902F900895EF92FF923E
:1018A0000F931F93CF93DF931F92CDB7DEB77C01C9
:1018B000142F062F41E062E559830E94A40B802F6C
:1018C0000E94AD055981852F0E94AD05812F0E9490
:1018D000AD05C7010F90DF91CF911F910F91FF9040
:1018E000EF900C946D0BFC01DB0186E191E091839C
:1018F000808312968C911297828313968C91139702
:10190000838314968C911497848315968C911597E4
:10191000858316968C911697868317968C911797C8
:10192000878318968C911897808719968C911997B0
:1019300081871A968C9182870895CF92DF92FF92C9
:101940000F931F93CF93DF93CDB7DEB70DB71EB7BD
:10195000262F30E0220F331FA9014F5F5F4FEDB7F5
:10196000FEB7E41BF50B0FB6F894FEBF0FBEEDBF3C
:101970004DB75EB74F5F5F4FDA01F82E6C018C2DCB
:101980008F198617C8F4C601F601708172957F70B1
:1019900070637A3308F0795D7C93FFEFCF1ADF0A2A
:1019A000FC0180818F7080638A3308F0895D119615
:1019B0008C9311971296E3CFFA01E20FF31F108276
:1019C000BA018FEC93E00E9409180FB6F8941EBF7D
:1019D0000FBE0DBFDF91CF911F910F91FF90DF9050
:1019E000CF9008952F923F924F925F926F927F9285
:1019F0008F929F92AF92BF92CF92DF92EF92FF921F
:101A00000F931F93CF93DF93CDB7DEB76C970FB6CD
:101A1000F894DEBF0FBECDBF4C016B8FE98AFA8A06
:101A20000B8B1C8B2D8B3E8B4F8BAA8E46E068E474
:101A300072E00E946E0ACC2031F066E571E08FEC16
:101A400093E00E94091840E050E0BA01CE014196AF
:101A50000E944E0C07E010E028E631E040E050E044
:101A6000BA01CE0141960E94EB0B2AE349E050E017
:101A700060E070E0CE0141960E94C00B0E942014ED
:101A80001B012C015AE0E52EF12CA12CB12C9E015A
:101A90002F5F3F4F398F288FC4010E948B05882309
:101AA00001F180915E033B8D83131BC0D0905F03D7
:101AB000B3E0BD1520F4809161038634F9F061E054
:101AC0008A8D0E94ED1461E08A8D0E94261561E0E6
:101AD00070E080E090E00E944F1460E08A8D0E94E8
:101AE00026150E9420146219730984099509693B1F
:101AF0007B408105910580F280E022C180916203E4
:101B00008C34E9F6809163038835C9F680916403CB
:101B10008A3309F0AAC046E04D1508F0A6C084E05B
:101B200090E000E010E0782E2FEF280FFC01EF5935
:101B3000FC4F30813033A0F030813A3388F420817B
:101B4000AAE0A801A49F8001A59F100D11240053B5
:101B50001109020F111D01968830910521F707C068
:101B600030813A33C1F754E0751631F2722ECC2031
:101B7000C1F060E771E08FEC93E00E94FC174AE04F
:101B800050E06D2D8FEC93E00E94C91868E771E07A
:101B90008FEC93E00E94FC176D2D81E693E00E948C
:101BA0009D0CE1E0E70DF0E0EF59FC4F80818A33B6
:101BB00009F0A2CF0E9420141B012C010A151B055D
:101BC00039F0C50101970817190709F04EC029C05F
:101BD00032E0370D58018FEFA81AB80A3D1508F505
:101BE000E32FF0E0EF59FC4F208137019FEF691A96
:101BF000790AA70160E070E0CE0141963C8F0E9417
:101C0000C00BC3019F773C8D892B41F4A30160E099
:101C100070E0CE0141960E944E0C3C8D3F5F7301F7
:101C2000DDCF1F930F93ADE7B1E0BF93AF93398D35
:101C30003F93488D4F930E94101A482F0F900F909A
:101C40000F900F900F900F90CC2049F0BE016F5F66
:101C50007F4F8FEC93E04C8F0E9409184C8DBE0192
:101C60006F5F7F4FC4010E946E0A809164038F33BF
:101C700009F025CF54E0D51210C046E068E472E0C8
:101C8000C4010E946E0ACC2009F419CF67E871E004
:101C90008FEC93E00E94091812CF87E0D8120FCF83
:101CA00080916503853409F00ACF809166038F34F3
:101CB00009F005CF80916703863409F000CF8701D2
:101CC0000A5011090130BCE71B0778F0CC2031F035
:101CD00065E971E08FEC93E00E94091847E062EB40
:101CE00071E0C4010E946E0A07CF46E068E472E02A
:101CF000C4010E946E0ACC2031F068E472E08FECDF
:101D000093E00E940918212F47E050E060E070E066
:101D1000CE0141960E94C00B26EF2E0D48E050E008
:101D200060E070E0CE0141960E94C00B2AE349E0DA
:101D300050E060E070E0CE0141960E94C00B81E06F
:101D40006C960FB6F894DEBF0FBECDBFDF91CF917A
:101D50001F910F91FF90EF90DF90CF90BF90AF90C9
:101D60009F908F907F906F905F904F903F902F90BB
:101D70000895C82F882331F06AE872E08FEC93E071
:101D80000E94FC1788E028E130E00FB6F894A8958F
:101D9000209360000FBE80936000CC2331F06EE290
:101DA0008FEC93E00E94FE17FACFFFCFAF92BF9265
:101DB000CF92DF92EF92FF920F931F93CF93DF9317
:101DC000CDB7DEB762970FB6F894DEBF0FBECDBFBA
:101DD0000C871D872E873F87488B598B6A8BDE2C9B
:101DE00020915F03243008F45CC020916103263405
:101DF00009F057C0209162032C3409F052C02091A1
:101E00006303283509F04DC0209164032F3309F096
:101E100048C0B0905E0320915F032730A1F4209169
:101E20006503253481F4209166032F3461F42091F9
:101E30006703263441F400E026E048E452E06B2DCD
:101E40000E94210A2EC0BC01CE0101960E94730C93
:101E5000AC2CCD2CEC84FD840E851F852889398916
:101E60004A896B2DCE0101960E94F20C882359F00D
:101E7000DD2031F064E972E08FEC93E00E94FC1702
:101E80008D2D0E94B90EDD2061F065EB72E08FECC4
:101E900093E00E94FC176EED72E08FEC93E00E94DD
:101EA000091862960FB6F894DEBF0FBECDBFDF9162
:101EB000CF911F910F91FF90EF90DF90CF90BF9047
:101EC000AF900895FC0111821082738362831582A2
:101ED00014820895DC01ED91FC91309709F009948A
:101EE0000895DC011296ED91FC911397309709F05B
:101EF00009940895DC011496ED91FC9115973097A3
:101F000009F009940895FC0181E080837483638360
:101F10007283618315821682178210860895CF938B
:101F2000DF93EC017C836B830E9420146D837E839E
:101F30008F839887CE01DF91CF9108950F931F93E0
:101F4000CF93DF93EC018B0189819A810E947A0FF4
:101F50001C830B831A830983C8010E946A0F0E94A5
:101F600020146D837E838F839887CE01DF91CF917C
:101F70001F910F910895CF93DF93EC012881898100
:101F80009A81222321F00E946A0F18820CC06B8173
:101F90007C818617970719F0CE010E949E0F8981D8
:101FA0009A810E94710FCE01DF91CF910895EF9237
:101FB000FF920F931F93CF93DF931F92CDB7DEB79E
:101FC0007C01FC0100811181C80169830E94041C0D
:101FD0006981681719F0C8010E940C1CC7010F9095
:101FE000DF91CF911F910F91FF90EF900895262FD1
:101FF000862F6AE00E94C219923011F48EEF01C060
:1020000081E0820F0895262F862F6AE00E94C21970
:10201000911102C082E001C08FEF820F08958F926C
:102020009F92AF92BF92CF92EF920F931F93CF9355
:10203000DF93CDB7DEB72B970FB6F894DEBF0FBE98
:10204000CDBF5C014C0181E1880E911CC4010E944E
:102050008B05882309F4AFC080915E038E3F39F46D
:1020600090915D03F5018081981709F464C0809117
:102070005F03843019F58091610390916203A09110
:102080006303B0916403F50184839583A683B783CA
:1020900080915D03838390915E0392839081891385
:1020A00081C0C4010E942706882309F47BC040E058
:1020B00065EF72E0C4010E946E0A74C080915F03F4
:1020C0008230F9F48091610390916203F501918768
:1020D000808780915D03838390915E0392839081DA
:1020E000891305C0C4010E94270681115DC0F50156
:1020F00080859185039709F055C081E00E94B90E53
:1021000051C080915E038E3F09F055C080915F03FE
:102110008D3008F450C064E671E08FEC93E00E94CB
:10212000D9178FEC93E00E94051882E090E0F5014A
:102130009187808740C061E871E08FEC93E00E9456
:10214000D9178FEC93E00E94051886E191E09A83FD
:102150008983F50183898B8384898C8385898D8329
:1021600086898E8387898F83808D8887818D8987F3
:10217000828D8A87838D8B8789E0C82EE12C009120
:10218000BE031091BF032091C0033091C103409161
:10219000C2035091C3036091C403CE0101960E9413
:1021A000D60E65CF81E008C040E065EF72E0C40163
:1021B0000E946E0A9CCF80E02B960FB6F894DEBF8B
:1021C0000FBECDBFDF91CF911F910F91EF90CF90B8
:1021D000BF90AF909F908F900895CF92DF92EF9233
:1021E000FF92CF93DF93EC016AE571E08FEC93E00F
:1021F0000E94D917FB804AE050E06A818FEC93E09F
:102200000E94C91867E571E08FEC93E00E94D9172E
:102210004AE050E06F2D8FEC93E00E94C918F888D7
:1022200063E571E08FEC93E00E94D9174AE050E03B
:102230006F2D8FEC93E00E94C918CC80DD80EE807A
:10224000FF806DE471E08FEC93E00E94D91722E0EB
:1022500030E0B701A6018FEC93E00E946A18088471
:10226000D985C02D65E471E08FEC93E00E94D91709
:102270004AE050E0BE018FEC93E00E94B4188FEC6E
:1022800093E0DF91CF91FF90EF90DF90CF900C948F
:1022900005180F931F93FC01448155816681778156
:1022A000842F8370808B8A019B0192E0369527955D
:1022B000179507959A95D1F71370138702878A01AE
:1022C0009B01ACE03695279517950795AA95D1F710
:1022D000137015870487B6E17695679557954795EE
:1022E000BA95D1F7578746871F910F9108950F939D
:1022F0001F93FC0146855785537060E070E01AE03B
:10230000440F551F661F771F1A95D1F70485158551
:10231000137020E030E0402B512B622B732B0AE02E
:10232000440F551F661F771F0A95D1F70285138545
:10233000137020E030E0402B512B622B732B82E096
:10234000440F551F661F771F8A95D1F780898370C8
:10235000482B44835583668377831F910F9108959B
:10236000EF92FF920F93CF93DF931F92CDB7DEB71B
:102370007C0169830E940F106981F701638380816A
:102380008283A7014C5F5F4F00E024E0C7014196C4
:102390000E94210A0F90DF91CF910F91FF90EF9053
:1023A000089540E35FEE68E08EEB93E00E94410BFE
:1023B00086E191E09093B4038093B3038AE0809325
:1023C000B50382E08093B6031092B70381E0809357
:1023D00060031092B9038FE18093BA031092BB039C
:1023E00008959F92AF92BF92CF92DF92EF92FF92A9
:1023F0000F931F93CF93DF9300D0CDB7DEB77C014F
:10240000162F942EA22E9AE2C92ED12C69E672E0E4
:102410008FEC93E00E94D9178FEC93E00E9405188F
:102420001F3FC9F48AE290E00E94041CB82EF70115
:10243000808367E472E08FEC93E00E94D9174AE052
:1024400050E06B2D8FEC93E00E94C9188FEC93E065
:102450000E9405181AC063E272E08FEC93E00E94BC
:10246000D9174AE050E0612F8FEC93E00E94C91821
:102470008FEC93E00E940518DA82C982612FCE01A9
:1024800001960E94D70FF7011083F70140814F3F5B
:1024900041F569EF71E08FEC93E00E94D9178FEC62
:1024A00093E00E94051864ED71E08FEC93E00E94C8
:1024B000D9178FEC93E00E9405188FEC93E00E94EF
:1024C000B115892BD1F341E060E070E08FEC93E02F
:1024D0000E944119DA82C982CE0101960E94D70F6B
:1024E00095CF6701F1E1CF0ED11C292D6A2DC601D0
:1024F0000E94040861E0C6010E94CE0A61E0C601A4
:102500000E94080B602FC6010E94F3068FEF93E034
:10251000F70197878687958784879387828780814D
:102520006AE00E94C219918361E089E00E94ED1483
:1025300060E089E00E94261581E090E0F701918734
:1025400080871181008161EA71E08FEC93E00E9445
:10255000D9174AE050E0602F8FEC93E00E94C91831
:102560006AEC71E08FEC93E00E94D9174AE050E0EA
:10257000612F8FEC93E00E94C9188FEC93E00E94CA
:1025800005180F900F90DF91CF911F910F91FF9041
:10259000EF90DF90CF90BF90AF909F90089563EE43
:1025A00072E08FEC93E00E94D9178FEC93E00E94C9
:1025B000051860E087E00E94ED1460E086E00E946C
:1025C000261561E086E00E94ED1461E084E00E943F
:1025D000261561E084E00E94ED1460E083E00E9433
:1025E000261561E083E00E94ED1466EC72E08FEC4A
:1025F00093E00E94D9178FEC93E00C9405186FE9D3
:1026000072E08FEC93E00E94D9178FEC93E00E9468
:10261000051860E084E00E94261568EE73E080E013
:1026200090E00E944F1461E084E00E94261561E072
:1026300086E00E9426156EE571E080E090E00E9441
:102640004F1460E086E00E94261562E370E080E0AF
:1026500090E00E944F146BE772E08FEC93E00E94D1
:10266000D9178FEC93E00C940518CF93DF9300D02B
:1026700000D0CDB7DEB761E086E00E94261520E4E9
:1026800032E44FE050E061E087E00E9485159B0155
:10269000AC0160E086E029833A834B835C830E942F
:1026A0002615AAE0B0E029813A814B815C810E9425
:1026B000FF1923E930E040E050E00E94CE19C90143
:1026C0000F900F900F900F90DF91CF910895089584
:1026D0008230E8F4E82FF0E0EE0FFF1FE25FFE4FDC
:1026E00071836083813041F0809169008C7F842BFD
:1026F00080936900E89A089580916900440F551FFE
:10270000440F551F837F842B80936900E99A0895B5
:102710001F920F920FB60F9211242F933F934F9356
:102720005F936F937F938F939F93AF93BF93EF9339
:10273000FF93E0910E01F0910F010995FF91EF9148
:10274000BF91AF919F918F917F916F915F914F91C9
:102750003F912F910F900FBE0F901F9018951F92D1
:102760000F920FB60F9211242F933F934F935F93C5
:102770006F937F938F939F93AF93BF93EF93FF9349
:10278000E0911001F09111010995FF91EF91BF9136
:10279000AF919F918F917F916F915F914F913F91F9
:1027A0002F910F900FBE0F901F9018951F920F92B0
:1027B0000FB60F9211242F933F938F939F93AF9354
:1027C000BF938091C7039091C803A091C903B091B2
:1027D000CA033091C60323E0230F2D3720F401965E
:1027E000A11DB11D05C026E8230F0296A11DB11D34
:1027F0002093C6038093C7039093C803A093C90393
:10280000B093CA038091CB039091CC03A091CD03E8
:10281000B091CE030196A11DB11D8093CB0390937F
:10282000CC03A093CD03B093CE03BF91AF919F9102
:102830008F913F912F910F900FBE0F901F90189581
:102840002FB7F8946091C7037091C8038091C903B2
:102850009091CA032FBF08953FB7F8948091CB039E
:102860009091CC03A091CD03B091CE0326B5A89B47
:1028700005C02F3F19F00196A11DB11D3FBF66276E
:10288000782F892F9A2F620F711D811D911D42E0B3
:10289000660F771F881F991F4A95D1F708958F9269
:1028A0009F92AF92BF92CF92DF92EF92FF926B0115
:1028B0007C010E942C144B015C01C114D104E10481
:1028C000F104F1F00E94C1190E942C1468197909D1
:1028D0008A099B09683E73408105910570F321E0E8
:1028E000C21AD108E108F10888EE880E83E0981E2C
:1028F000A11CB11CC114D104E104F10429F7DDCFFE
:10290000FF90EF90DF90CF90BF90AF909F908F900F
:102910000895789484B5826084BD84B5816084BD57
:1029200085B5826085BD85B5816085BDEEE6F0E048
:10293000808181608083E1E8F0E0108280818260A4
:102940008083808181608083E0E8F0E08081816025
:102950008083E1EBF0E0808184608083E0EBF0E055
:10296000808181608083EAE7F0E0808184608083F9
:1029700080818260808380818160808380818068A3
:1029800080831092C1000895833081F028F4813053
:1029900099F08230A1F008958730A9F08830B9F01D
:1029A0008430D1F4809180008F7D03C080918000BD
:1029B0008F7780938000089584B58F7702C084B5A7
:1029C0008F7D84BD08958091B0008F7703C0809182
:1029D000B0008F7D8093B0000895CF93DF9390E097
:1029E000FC01E25FFC4F2491FC01EE5DFC4F849101
:1029F000882349F190E0880F991FFC01E65BFC4FAA
:102A0000A591B491805C9C4FFC01C591D4919FB776
:102A1000611108C0F8948C91209582238C93888151
:102A200082230AC0623051F4F8948C91322F309591
:102A300083238C938881822B888304C0F8948C91A3
:102A4000822B8C939FBFDF91CF9108950F931F939B
:102A5000CF93DF931F92CDB7DEB7282F30E0F90177
:102A6000E650FD4F8491F901E25FFC4F1491F901AA
:102A7000EE5DFC4F04910023C9F0882321F06983A7
:102A80000E94C4146981E02FF0E0EE0FFF1FE05CAC
:102A9000FC4FA591B4919FB7F8948C91611103C03C
:102AA0001095812301C0812B8C939FBF0F90DF91E4
:102AB000CF911F910F910895CF93DF93282F30E08E
:102AC000F901E650FD4F8491F901E25FFC4FD4918A
:102AD000F901EE5DFC4FC491CC2391F081110E946D
:102AE000C414EC2FF0E0EE0FFF1FEA5CFC4FA59141
:102AF000B4912C912D2381E090E021F480E002C07C
:102B000080E090E0DF91CF9108950F931F93762F8F
:102B100090E0FC01E25FFC4F6491FC01EE5DFC4F34
:102B2000E4917111762FF0E0EE0FFF1FEA5CFC4F8D
:102B30008591949189019A013F70472F0E94D70196
:102B4000611571058105910531F06F5F7F4F8F4FE2
:102B50009F4F9F7003C060E070E0CB011F910F9109
:102B60000895FC01818D228D90E0805C9F4F821B37
:102B700091098F7399270895FC01918D828D981783
:102B800031F0828DE80FF11D858D90E008958FEF73
:102B90009FEF0895FC01918D828D981761F0828DD1
:102BA000DF01A80FB11D5D968C91928D9F5F9F7381
:102BB000928F90E008958FEF9FEF08958EE497E154
:102BC000892B49F080E090E0892B29F00E944E1774
:102BD00081110C9400000895FC01848DDF01A80F81
:102BE000B11DA35ABF4F2C91848D90E001968F7335
:102BF0009927848FA689B7892C93A089B1898C9154
:102C000080648C93938D848D981306C00288F38919
:102C1000E02D80818F7D80830895CF93DF93EC0139
:102C2000888D8823C9F0EA89FB89808185FD05C0EC
:102C3000A889B9898C9186FD0FC00FB607FCF5CF26
:102C4000808185FFF2CFA889B9898C9185FFEDCF6E
:102C5000CE010E94EC15E7CFDF91CF910895CF927E
:102C6000DF92FF920F931F93CF93DF931F92CDB705
:102C7000DEB76C0181E0D60158968C9358975B962D
:102C80009C915B975C968C915C97981307C05096CB
:102C9000ED91FC915197808185FD2EC0F601038D49
:102CA00010E00F5F1F4F0F731127F02EF601848D78
:102CB000F81211C00FB607FCF9CFD6015096ED916E
:102CC000FC915197808185FFF1CFC60169830E94F5
:102CD000EC156981EBCF838DE80FF11DE35AFF4FAF
:102CE0006083D6015B960C935B975296ED91FC91B5
:102CF0005397808180620CC0D6015696ED91FC916D
:102D0000579760835096ED91FC9151978081806434
:102D1000808381E090E00F90DF91CF911F910F9120
:102D2000FF90DF90CF900895BF92CF92DF92EF9205
:102D3000FF92CF93DF93EC016A017B01B22EE88909
:102D4000F98982E08083411581EE5807610571059C
:102D5000A1F060E079E08DE390E0A70196010E9488
:102D6000CE1921503109410951095695479537959A
:102D70002795211580E1380798F0E889F9891082B4
:102D800060E874E88EE190E0A70196010E94CE19F8
:102D90002150310941095109569547953795279595
:102DA000EC85FD853083EE85FF852083188EEC89C8
:102DB000FD89B082EA89FB89808180618083EA890C
:102DC000FB89808188608083EA89FB8980818068B3
:102DD0008083EA89FB8980818F7D8083DF91CF9119
:102DE000FF90EF90DF90CF90BF9008951F920F92C9
:102DF0000FB60F9211242F938F939F93EF93FF930E
:102E0000E091DF03F091E0038081E091E503F09130
:102E1000E60382FD12C090818091E8038F5F8F737B
:102E20002091E903821751F0E091E803F0E0E153CB
:102E3000FC4F958F8093E80301C08081FF91EF9153
:102E40009F918F912F910F900FBE0F901F9018950B
:102E50001F920F920FB60F9211242F933F934F930F
:102E60005F936F937F938F939F93AF93BF93EF93F2
:102E7000FF938FEC93E00E94EC15FF91EF91BF91CF
:102E8000AF919F918F917F916F915F914F913F9102
:102E90002F910F900FBE0F901F9018958FEC93E01D
:102EA0000E94B11521E0892B09F420E0822F0895BA
:102EB0001092D2031092D10388EE93E0A0E0B0E02C
:102EC0008093D3039093D403A093D503B093D603F8
:102ED00087EE92E09093D0038093CF0385EC90E04F
:102EE0009093DC038093DB0384EC90E09093DE030B
:102EF0008093DD0380EC90E09093E0038093DF0308
:102F000081EC90E09093E2038093E10382EC90E007
:102F10009093E4038093E30386EC90E09093E603C0
:102F20008093E5031092E8031092E9031092EA03FC
:102F30001092EB030895CF92DF92EF92FF920F93DE
:102F40001F93CF93DF937C016A01EB0100E010E057
:102F50000C151D0571F06991D701ED91FC9101905F
:102F6000F081E02DC7010995892B19F00F5F1F4FE4
:102F7000EFCFC801DF91CF911F910F91FF90EF909C
:102F8000DF90CF9008956115710581F0DB010D9000
:102F90000020E9F7AD0141505109461B570BDC01F8
:102FA000ED91FC910280F381E02D099480E090E0A6
:102FB0000895EF92FF920F931F93CF93DF938C01AD
:102FC0007B01C0E0D0E0F701EC0FFD1F64916623A8
:102FD00059F0F801A081B181ED91FC91C8010995EA
:102FE000892B11F02196EFCFCE01DF91CF911F9168
:102FF0000F91FF90EF9008950C94C317DC01ED91B1
:10300000FC910190F081E02D099463EF72E00C9443
:10301000C3170F931F93CF93DF93EC010E94C31745
:103020008C01CE010E940518800F911FDF91CF9176
:103030001F910F9108958F929F92AF92BF92DF924E
:10304000EF92FF920F931F93CF93DF93CDB7DEB72D
:10305000A1970FB6F894DEBF0FBECDBF7C01F42F51
:10306000D52ECB0119A2223008F42AE08E010F5D83
:103070001F4F822E912CA12CB12C6F2F7D2DA501DD
:1030800094010E94CE19F22FD32ECA0101501109CA
:103090006A3014F4E0E301C0E7E3E60FD801EC93F3
:1030A000232B242B252B49F7B801C7010E94C317F6
:1030B000A1960FB6F894DEBF0FBECDBFDF91CF91C2
:1030C0001F910F91FF90EF90DF90BF90AF909F9076
:1030D0008F900895CF92DF92EF92FF920F931F93FC
:1030E000CF93DF93EC016A017B012115310579F45F
:1030F000E881F9810190F081E02D642FDF91CF917B
:103100001F910F91FF90EF90DF90CF9009942A309C
:103110003105E9F477FF1AC06DE20E94FE178C01B9
:1031200044275527BA014C195D096E097F092AE029
:10313000CE010E941B18800F911FDF91CF911F912C
:103140000F91FF90EF90DF90CF9008952AE0B701A4
:10315000A601CE01DF91CF911F910F91FF90EF90CB
:10316000DF90CF900C941B189A01AB01662757FD96
:103170006095762F0C946A182115310541F4DC0115
:10318000ED91FC910190F081E02D642F09940C9455
:103190001B189A01462F50E060E070E00C94BC18B8
:1031A0000F931F93CF93DF93EC010E942014688745
:1031B00079878A879B87E881F9810084F185E02DF2
:1031C000CE01099597FF15C00E9420140885198526
:1031D0002A853B85601B710B820B930B0C811D8133
:1031E0002E813F81601771078207930720F38FEFCD
:1031F0009FEFDF91CF911F910F910895FF920F9351
:103200001F93CF93DF93EC018B01F42ECE010E942C
:10321000D0189C0197FD28C08D32910519F1C097F7
:103220000A9710F1FF2019F02E323105F9F0013024
:103230001105F9F00230110569F42D30310551F016
:1032400034F4295031092230310520F012C02032E7
:10325000310579F4E881F9810680F781E02DCE010E
:103260000995D4CF8DE203C0C90105C08EE290E07C
:1032700002C08FEF9FEFDF91CF911F910F91FF90D1
:103280000895CF92DF92FF920F931F93CF93DF9316
:1032900000D000D0CDB7DEB76C01042F40E00E9413
:1032A000FE18FC0197FD4BC020E030E0A901F12C95
:1032B000112707FD1095E017F107E9F0ED32F10550
:1032C000C1F0CF01C0970A97B0F4AAE0B0E00E9425
:1032D000FF199B01AC01CF01AA2797FDA095BA2F3A
:1032E000280F391F4A1F5B1F20533109410951091B
:1032F00002C0FF24F394D601ED91FC910680F78182
:10330000E02DC60129833A834B835C830995C6016E
:103310000E94D018FC01C09729813A814B815C81C1
:103320000A9748F2E017F10731F2FF2061F06627B3
:103330007727CB01621B730B840B950B06C060E0F3
:1033400070E0CB0102C0CA01B9010F900F900F903D
:103350000F90DF91CF911F910F91FF90DF90CF9051
:10336000089508950E9489140E94B1190E94590479
:10337000CEEDD5E10E9496042097E1F30E94DE1580
:10338000F9CF0895991B79E004C0991F961708F0AA
:10339000961B881F7A95C9F780950895A1E21A2E89
:1033A000AA1BBB1BFD010DC0AA1FBB1FEE1FFF1FE9
:1033B000A217B307E407F50720F0A21BB30BE40B39
:1033C000F50B661F771F881F991F1A9469F7609580
:1033D0007095809590959B01AC01BD01CF0108953A
:1033E000A29FB001B39FC001A39F700D811D112446
:1033F000911DB29F700D811D1124911D08950E9491
:10340000F019A59F900DB49F900DA49F800D911D64
:1034100011240895EE0FFF1F0590F491E02D0994FB
:10342000AEE0B0E0E6E1FAE10C94CE1C0D891E8915
:1034300086E08C831A8309838FEF9FE79E838D83B9
:10344000AE01475E5F4F6F89788DCE0101960E9475
:10345000321AEF81F885E00FF11F10822E96E4E01A
:103460000C94EA1CACE0B0E0E8E3FAE10C94C01C78
:103470007C016B018A01FC0117821682838181FF26
:10348000BDC1CE0101964C01F7019381F60193FD78
:10349000859193FF81916F01882309F4ABC1853237
:1034A00039F493FD859193FF81916F01853229F461
:1034B000B70190E00E94301CE7CF512C312C20E066
:1034C0002032A0F48B3269F030F4803259F083322C
:1034D00069F420612CC08D3239F0803339F42160D9
:1034E00026C02260246023C0286021C027FD27C099
:1034F00030ED380F3A3078F426FF06C0FAE05F9ED0
:10350000300D1124532E13C08AE0389E300D112443
:10351000332E20620CC08E3221F426FD6BC1206454
:1035200006C08C3611F4206802C0883641F4F601DA
:1035300093FD859193FF81916F018111C1CF982FE8
:103540009F7D9554933028F40C5F1F4FFFE3F98360
:103550000DC0833631F0833771F0833509F05BC0DD
:1035600022C0F801808189830E5F1F4F4424439459
:10357000512C540115C03801F2E06F0E711CF80196
:10358000A080B18026FF03C0652D70E002C06FEF00
:103590007FEFC5012C870E94251C2C0183012C85FF
:1035A0002F77222E17C03801F2E06F0E711CF80140
:1035B000A080B18026FF03C0652D70E002C06FEFD0
:1035C0007FEFC5012C870E941A1C2C012C852068D6
:1035D000222E830123FC1BC0832D90E04816590640
:1035E000B0F4B70180E290E00E94301C3A94F4CF2E
:1035F000F50127FC859127FE81915F01B70190E0DD
:103600000E94301C31103A94F1E04F1A51084114D5
:10361000510471F7E5C0843611F0893639F5F801A7
:1036200027FF07C060817181828193810C5F1F4FEA
:1036300008C060817181882777FD8095982F0E5F83
:103640001F4F2F76B22E97FF09C0909580957095E9
:1036500061957F4F8F4F9F4F2068B22E2AE030E058
:10366000A4010E94621CA82EA81844C0853729F422
:103670002F7EB22E2AE030E025C0F22FF97FBF2E38
:103680008F36C1F018F4883579F0B4C0803719F05E
:10369000883721F0AFC02F2F2061B22EB4FE0DC0AD
:1036A0008B2D8460B82E09C024FF0AC09F2F96601E
:1036B000B92E06C028E030E005C020E130E002C0AD
:1036C00020E132E0F801B7FE07C06081718182819C
:1036D00093810C5F1F4F06C06081718180E090E094
:1036E0000E5F1F4FA4010E94621CA82EA818FB2D7C
:1036F000FF77BF2EB6FE0BC02B2D2E7FA51450F4E6
:10370000B4FE0AC0B2FC08C02B2D2E7E05C07A2C58
:103710002B2D03C07A2C01C0752C24FF0DC0FE0197
:10372000EA0DF11D8081803311F4297E09C022FF4A
:1037300006C07394739404C0822F867809F0739442
:1037400023FD13C020FF06C05A2C731418F4530C29
:103750005718732C731468F4B70180E290E02C873B
:103760000E94301C73942C85F5CF731410F4371815
:1037700001C0312C24FF12C0B70180E390E02C87F8
:103780000E94301C2C8522FF17C021FF03C088E552
:1037900090E002C088E790E0B7010CC0822F8678E5
:1037A00059F021FD02C080E201C08BE227FD8DE2CD
:1037B000B70190E00E94301CA51438F4B70180E3F3
:1037C00090E00E94301C5A94F7CFAA94F401EA0DBD
:1037D000F11D8081B70190E00E94301CA110F5CF4F
:1037E000332009F451CEB70180E290E00E94301CF2
:1037F0003A94F6CFF7018681978102C08FEF9FEF51
:103800002C96E2E10C94DC1CF999FECF92BD81BDAF
:10381000F89A992780B50895262FF999FECF1FBAF7
:1038200092BD81BD20BD0FB6F894FA9AF99A0FBEE9
:1038300001960895FC010590615070400110D8F781
:10384000809590958E0F9F1F0895FC0161507040E8
:1038500001900110D8F7809590958E0F9F1F0895C5
:103860000F931F93CF93DF93182F092FEB018B81B9
:1038700081FD03C08FEF9FEF20C082FF10C04E81FB
:103880005F812C813D81421753077CF4E881F981E7
:103890009F012F5F3F4F39832883108306C0E8853F
:1038A000F985812F0995892B29F72E813F812F5F7B
:1038B0003F4F3F832E83812F902FDF91CF911F9118
:1038C0000F910895FA01AA27283051F1203181F192
:1038D000E8946F936E7F6E5F7F4F8F4F9F4FAF4F18
:1038E000B1E03ED0B4E03CD0670F781F891F9A1F2B
:1038F000A11D680F791F8A1F911DA11D6A0F711DDF
:10390000811D911DA11D20D009F468943F912AE0EA
:10391000269F11243019305D3193DEF6CF010895D2
:10392000462F4770405D4193B3E00FD0C9F7F6CF03
:10393000462F4F70405D4A3318F0495D31FD4052CB
:10394000419302D0A9F7EACFB4E0A6959795879561
:1039500077956795BA95C9F7009761057105089540
:103960009B01AC010A2E06945795479537952795EC
:10397000BA95C9F7620F731F841F951FA01D089584
:103980002F923F924F925F926F927F928F929F926F
:10399000AF92BF92CF92DF92EF92FF920F931F935D
:1039A000CF93DF93CDB7DEB7CA1BDB0B0FB6F8940E
:1039B000DEBF0FBECDBF09942A88398848885F844E
:1039C0006E847D848C849B84AA84B984C884DF80BF
:1039D000EE80FD800C811B81AA81B981CE0FD11DA3
:1039E0000FB6F894DEBF0FBECDBFED010895F89479
:0239F000FFCF07
:1039F20000006C048000983A000014000000671375
:103A0200671300000000210AD4058B056E0ACE0A56
:103A1200F3066F095A050D078E078406EE0A75052F
:103A22006605464C583F454F4600464C583F0048B5
:103A3200616E647368616B65206661696C00464CF7
:103A4200583A25753A00464C583F4F4B202841437F
:103A52004B2073656E742900464C58494D473A0015
:103A6200726164696F205B005D203E2000464C5805
:103A72003A25753A4F4B00464C583F4F4B207265E2
:103A820073656E6400494D472065786365656473AC
:103A92002033316B2C207265667573696E672069FD
:103AA2007400464C583F4E4F4B0052465458203EED
:103AB2002000524641434B203E200054696D656F01
:103AC20075742077616974696E6720666F72207001
:103AD20061636B65742041434B2C2061626F727489
:103AE200696E6720464C415348206F70657261745D
:103AF200696F6E202E2E2E00464C583A494E5600C3
:103B020054696D656F757420726563656976696E57
:103B12006720464C41534820696D61676520667293
:103B22006F6D2053455249414C2C2061626F727473
:103B3200696E672E2E2E000A464C583F4F4B0046A8
:103B42004C41534820494D47205452414E534D4910
:103B52005353494F4E205355434345535300464C0C
:103B620041534820494D47205452414E534D4953E9
:103B720053494F4E204641494C005245424F4F5403
:103B8200494E4700464C41534820494D4720545224
:103B9200414E534D495353494F4E2053554343458C
:103BA2005353210A0054696D656F75742F45727203
:103BB2006F722C2065726173696E67207772697407
:103BC20074656E2064617461202E2E2E2000444F95
:103BD2004E4500000000002F169B17B115CA15BCF8
:103BE200150D160D0A006E616E00696E66006F7625
:023BF20066006B
:00000001FF
