:100000000C947C010C9423130C944A130C94A401BB
:100010000C94A4010C94A4010C94A4010C94A401CC
:100020000C94A4010C94A4010C94A4010C94A401BC
:100030000C94A4010C94A4010C94A4010C94A401AC
:100040000C9471130C94A4010C9491160C94C31687
:100050000C94A4010C94A4010C94A4010C94A4018C
:100060000C94A4010C94A401524543563A20005428
:10007000696D657220656C617073656420287573A5
:10008000293D006D7954696D6520287573293D00FF
:100090002076732E20726573656E642074696D65B9
:1000A000287573293D002A2A524553454E44494E2E
:1000B000472A2A090053454E443A20004469737484
:1000C000616E63653D2000426F6F7473747261707E
:1000D00020726573706F6E736962696C6974793FC1
:1000E0002000537461727475702E20206D794E6FEC
:1000F000646549443D00097265637646726F6D3DE3
:100100000009207472616E73546F3D00097374614D
:1001100074653D00096D73673D0009733D002D3E18
:10012000004E6574776F726B2E20004E6574776F8A
:10013000726B2E2050726F6772616D6D65722074E4
:100140007261666669632E004E6574776F726B2EFE
:1001500020526570726F6772616D6D696E67206D98
:100160006573736167653F004E6574776F726B2EC0
:10017000207374617274757020636F6D706C657438
:10018000652077697468206D794E6F646549443DD8
:1001900000206D79496E6465783D00456E74657226
:1001A00020746865206E6F6465206E756D6265727F
:1001B00020666F722074686973206E6F64653A0000
:1001C0004E6574776F726B2E204552524F52206EDF
:1001D0006F206E6F6465494420666F756E64206998
:1001E0006E20454550524F4D21004E6574776F7219
:1001F0006B2E202077726974696E67206E6F64655C
:10020000494420746F20454550524F4D3D004E6586
:1002100074776F726B2E2072656164206E6F6465F7
:1002200049442066726F6D20454550524F4D3D0048
:100230004E6574776F726B2E207374617274757073
:100240002E0044697374616E63652E2020646570AE
:100250006F776572696E672072616E676520666987
:100260006E6465722E0044697374616E63652E203E
:10027000207374617274757020636F6D706C657437
:10028000652E0044697374616E63652E202073745B
:1002900061727475702E00000000080002010000F9
:1002A0000304070000000000000000010204081021
:1002B00020408001020408102001020408102004DC
:1002C00004040404040404020202020202030303FD
:1002D00003030300000000230026002900000000A3
:1002E00000250028002B0000000000240027002A21
:1002F00000006C048611F31611241FBECFEFD8E066
:10030000DEBFCDBF13E0A0E0B1E0E4E3F9E302C05B
:1003100005900D92A230B107D9F724E0A2E0B3E036
:1003200001C01D92A036B207E1F712E0C8EFD2E09B
:1003300004C02297FE010E949E19C23FD107C9F74F
:100340000E9453190C94981C0C940000CF92DF92D9
:10035000EF92FF920F931F93E82FF92F05C00150E2
:1003600011092109310961F1908196239417B9F39C
:1003700005C0015011092109310911F1908196231D
:100380009413F7CFC12CD12CE12CF12C0AC08FEFA4
:10039000C81AD80AE80AF80A0C151D052E053F05EB
:1003A00079F080818623841791F36C2D7D2D8E2D1D
:1003B0009F2D1F910F91FF90EF90DF90CF900895A8
:1003C00060E070E080E090E01F910F91FF90EF906F
:1003D000DF90CF9008951F93CF93DF9360919603A2
:1003E00086E993E00E94AC0F80931403609196031A
:1003F00086E993E00E94B80FC82F80931303D09131
:1004000014031091960362EE70E083EC93E00E9477
:1004100074174AE050E0612F83EC93E00E94641867
:1004200066EF70E083EC93E00E9474174AE050E0BE
:100430006D2F83EC93E00E94641861E071E083EC1F
:1004400093E00E9474174AE050E06C2F83EC93E035
:100450000E94641883EC93E00E94A017C1E0809191
:1004600096038A3009F0C0E067EC70E083EC93E01B
:100470000E9474176C2F70E04AE050E083EC93E028
:100480000E944F1883EC93E00E94A017CC2319F030
:1004900068E373E002C062E373E08DE193E0DF9113
:1004A000CF911F910C94440F909198038091140365
:1004B000981306C062E373E08DE193E00C94440F5F
:1004C0000895CF93DF93CDB7DEB728970FB6F89492
:1004D000DEBF0FBECDBF80919E0390919F03029718
:1004E00031F06EE373E08DE193E00E94440F44EF3E
:1004F00051E060E070E0CE0101960E94B704CE01A9
:1005000001960E94BD04882359F06091060389E09A
:100510000E94C1148091060391E08927809306030D
:1005200028960FB6F894DEBF0FBECDBFDF91CF91F6
:10053000089580919E0390919F03029719F464E4BB
:1005400073E016C06091130386E993E00E94651181
:1005500065EB70E083EC93E00E94741786E993E00A
:100560000E94A21085E193E00E94030566E273E019
:100570008DE193E00C94440F8F929F92AF92BF92C3
:10058000CF92DF92EF92FF928091070381110DC00D
:100590000E94C713609302037093030380930403C4
:1005A0009093050381E0809307030E94C7134B01DA
:1005B0005C018091020390910303A0910403B09128
:1005C000050375016401C81AD90AEA0AFB0A6FE635
:1005D00070E083EC93E00E9474172AE030E0B701EA
:1005E000A60183EC93E00E94571883EC93E00E94ED
:1005F000A0178092020390920303A0920403B0928A
:100600000503C701B601FF90EF90DF90CF90BF9038
:10061000AF909F908F900895CF92DF92EF92FF92CC
:1006200061E089E00E94C11420910F033091100312
:100630004091110350911203A9E0B0E00E9491197A
:100640006B017C010E94BC026C0D7D1D8E1D9F1DE7
:100650002AE030E040E050E00E946F1920930F0341
:1006600030931003409311035093120389EB93E0EE
:100670000E94CC127C0186E993E00E94FE10E0917A
:100680009703F0E0EE0FFF1FE056FC4FF182E0828F
:100690006CEB70E083EC93E00E9474174AE050E04A
:1006A000B70183EC93E00E946B1883EC93E00E9407
:1006B000A01781E08093A60386E993E00E942C11A5
:1006C0006CE273E08DE193E0FF90EF90DF90CF90CC
:1006D0000C94440F8F929F92AF92BF92CF92DF9271
:1006E000EF92FF929091980380911303981329C081
:1006F00060E089E00E94C114209106013091070159
:100700004091080150910901A9E0B0E00E949119BF
:100710006B017C010E94BC026C0D7D1D8E1D9F1D16
:100720002AE030E040E050E00E946F19209306017B
:1007300030930701409308015093090168E373E087
:1007400045C085E193E00E94BD04882309F44AC0B6
:1007500066EA70E083EC93E00E94741720910A012E
:1007600030910B0140910C0150910D01A8EEB3E0C6
:100770000E9491196B017C01809006019090070105
:10078000A0900801B090090163E870E083EC93E069
:100790000E9474172AE030E0B501A40183EC93E0D5
:1007A0000E94571860E970E083EC93E00E94741790
:1007B0002AE030E0B701A60183EC93E00E945718CD
:1007C00083EC93E00E94A0176CE273E08DE193E06C
:1007D000FF90EF90DF90CF90BF90AF909F908F9061
:1007E0000C94440FFF90EF90DF90CF90BF90AF90AC
:1007F0009F908F9008950F93CF93DF93CDB7DEB77F
:1008000028970FB6F894DEBF0FBECDBF26E040E0BC
:1008100052EC61E070E083EC93E00E942F160FE150
:100820002BE54DE96FEF86E993E00E94A61148EEB3
:1008300053E060E070E0CE0101960E94B704CE0163
:1008400001960E94BD04811105C086E993E00E94D3
:10085000C40FF5CF89EB93E00E94841228960FB65F
:10086000F894DEBF0FBECDBFDF91CF910F910895F9
:10087000CF9386E993E00E94C40FC82F20919E0376
:1008800030919F032230310531F464E473E08DE14F
:1008900093E00E94440F20919E0330919F03232BED
:1008A00051F489EB93E00E94B41221E030E03093E0
:1008B0009F0320939E03CC2351F068E670E083EC05
:1008C00093E00E94741786E993E00E94A2108DE1E4
:1008D00093E0CF910C94700F61E672E084E493E0B2
:1008E0000E94170F6BEE71E08EE393E00E94170FEA
:1008F00064E572E088E393E00E94170F6CE073E018
:1009000082E393E00E94170F69E972E08CE293E0C2
:100910000E94170F6AE673E086E293E00E94170FC9
:100920006EE373E08DE193E00E94380F40910A017D
:1009300050910B0160910C0170910D0185E193E0E4
:100940000E94B7048091060190910701A0910801CF
:10095000B0910901880F991FAA1FBB1F80930F0335
:1009600090931003A0931103B09312030895FC0118
:10097000448355836683778308958F929F92AF92C5
:10098000BF92CF92DF92EF92FF920F931F93CF937C
:10099000DF93EC010E94BB138C809D80AE80BF80F2
:1009A00081149104A104B10429F4688379838A83B2
:1009B0009B8319C0088119812A813B816B017C01CD
:1009C000C01AD10AE20AF30AC814D904EA04FB04E3
:1009D00060F0B901A801480D591D6A1D7B1D4883AF
:1009E00059836A837B8381E001C080E0DF91CF91EE
:1009F0001F910F91FF90EF90DF90CF90BF90AF903D
:100A00009F908F900895CF93DF93EC010E94BB13CA
:100A1000688379838A839B83DF91CF9108950895BA
:100A200080914A0390914B03DC01ED91FC91048489
:100A3000F585E02D0994CF93DF93EC0161E08A8185
:100A40000E94C11489858CBD8A858DBD7894DF9103
:100A5000CF910895FC01F8948CB581878DB582877C
:100A60008CB5837F8CBD8CB58F7D8CBD8CB58C7F18
:100A70008CBD8DB58E7F8DBD60E082810C94C114DC
:100A8000F89420915403233021F420915003211134
:100A90000FC020915403233011F4789407C0DC0177
:100AA000ED91FC910288F389E02D099580E008958D
:100AB000DC01ED91FC910488F589E02D61E0099558
:100AC00081E008958EBD00000DB407FEFDCF8EB508
:100AD0000895CF93DF931F92CDB7DEB7DC01ED9180
:100AE000FC910480F581E02D698309956981882353
:100AF00059F080915203861711F06F3F29F49091BD
:100B00004E0381E0911101C080E00F90DF91CF9101
:100B100008952F923F924F925F927F928F929F9271
:100B2000AF92BF92CF92DF92EF92FF920F931F93FB
:100B3000CF93DF93EC01962E5A01722E802E10E097
:100B4000CE2CD12CE12CF12CE881F9810190F0819F
:100B5000E02D01E0272DA501692DCE0109950E9408
:100B6000BB131B012C010E94BB136219730984097A
:100B700095096C157D058E059F0540F4692DCE0104
:100B80000E946905882379F381E004C01F5F811604
:100B9000D8F680E0DF91CF911F910F91FF90EF90F9
:100BA000DF90CF90BF90AF909F908F907F905F909D
:100BB0004F903F902F90089580914F03882329F004
:100BC0009091510381E09F3F09F480E00895EF92F6
:100BD000FF921F93CF93DF931F92CDB7DEB77C01B7
:100BE000DC01ED91FC91008CF18DE02D698309957C
:100BF0006981862F8F770E94620580E00E946205DE
:100C0000182FD701ED91FC91028CF38DE02DC701D7
:100C10000995812F0F90DF91CF911F91FF90EF9059
:100C200008950F931F93CF93DF9300D0CDB7DEB716
:100C30008C01DC01ED91FC91008CF18DE02D4A835B
:100C4000698309956981862F80680E9462054A81BF
:100C5000842F0E946205D801ED91FC91028CF38DE6
:100C6000E02DC8010F900F90DF91CF911F910F9150
:100C700009941F93CF93DF93EC01162F80915403B7
:100C8000681709F461C0623009F440C070F466234B
:100C900009F444C0613009F057C061E0CE010E9400
:100CA000E705482F437E44603FC06330C1F06430A5
:100CB00009F04AC061E0CE010E94E705482F437E5B
:100CC0004C6061E0CE010E9411068885882381F185
:100CD000E881F9810688F789E02D61E014C061E0C0
:100CE000CE010E94E705482F437E406161E0CE01BE
:100CF0000E94110688858823D9F0E881F981068849
:100D0000F789E02D60E0CE01099512C061E0CE01C7
:100D10000E94E705482F437E486006C061E0CE018F
:100D20000E94E705482F437E61E0CE010E94110634
:100D300080915403811106C067E2CE010E94E7054D
:100D400087FFF6CF10935403DF91CF911F91089541
:100D5000CF93DF93EC01603208F06FE16F838885F9
:100D6000882311F066956F8361E1CE010E94E7054B
:100D7000482F407E8F81482B61E1CE01DF91CF91DA
:100D80000C941106CF92DF92EF92FF920F931F9374
:100D9000CF93DF93EC01F62ED42EC52E122FE881CF
:100DA000F9810488F589E02D61E0099567E2CE01BB
:100DB0000E94E70587FFFACF40E065E2CE010E947E
:100DC00011061E3308F01DE3E11004C0002319F0E2
:100DD00000E401C000E8E881F981008CF18DE02D8C
:100DE000CE01099580E80E94620583E0810F0E9490
:100DF00062058F2D0E9462058D810E946205802F01
:100E00000E9462050D2DED2CFC2C8E2D801B811770
:100E100030F4F70181917F010E946205F6CFE881ED
:100E2000F981028CF38DE02DCE010995E881F981DD
:100E30000488F589E02D64E0CE0109950E94BB137A
:100E40006B017C018B810E94F714892B81F0E88172
:100E5000F9810488F589E02D61E0CE01DF91CF9121
:100E60001F910F91FF90EF90DF90CF9009940E9417
:100E7000BB136C197D098E099F09683E734081057B
:100E8000910528F7DFCFCF93DF93EC011092530346
:100E900010925203109251031092500310924F037C
:100EA00010924E0310924D0310924C0368E20E9480
:100EB000E70582FF0AC06DE3CE010E94E705482FD7
:100EC00044606DE3CE010E94110640E465E2CE016C
:100ED0000E941106E881F9810488F589E02D63E01C
:100EE000CE01DF91CF910994DF92EF92FF920F93A1
:100EF0001F93CF93DF93EC018B01E881F981048884
:100F0000F589E02D61E0099501151105E1F0E88111
:100F1000F981008CF18DE02DCE0109958EEB0E94B8
:100F200062057801D12CF70181917F010E94620551
:100F3000D394F0E1DF12F7CFE881F981028CF38DD1
:100F4000E02DCE0109956DE3CE010E94E7058E7F6D
:100F500091E0012B09F490E0482F492B6DE3CE017D
:100F6000DF91CF911F910F91FF90EF90DF900C9444
:100F700011068F929F92AF92BF92DF92EF92FF92F3
:100F80000F931F93CF93DF93CDB7DEB7AE970FB616
:100F9000F894DEBF0FBECDBF7C01D42E8EE28E0151
:100FA0000F5F1F4FD801E82F1D92EA95E9F791E0F6
:100FB000998334E03A8342E04B8393E09D834E83F0
:100FC0003F8340E4488735E039879A8796E09B87DE
:100FD00093E39C8737E03D8798E09F8799E0998B62
:100FE00099E19B8B92E49C8B55E25D8B4E8B46E2A4
:100FF0004F8B388F38E2398F30E13A8F39E23B8FAF
:101000003CED3C8F8D8F88E88E8F8FE28F8F8DE245
:1010100088A380E389A337E33BA330E93CA338E30B
:101020003DA39EA39CE39FA39FE898A79DE399A758
:1010300092E19AA79FE69BA78CA78FEF8DA76F31B0
:1010400031F06B3231F0663531F489ED05C08EE454
:1010500003C08CE601C084EE8E876F3141F06B32A5
:1010600021F0663521F480E003C080E401C080EC0B
:10107000888B2AA361E0D70112968C910E94C1143B
:1010800061E0F70182810E9488140E94C00A0E94D8
:10109000BB134B015C014AEA6FE2C7010E941106D3
:1010A0006FE2C7010E94E7058A3A59F00E94BB131C
:1010B000681979098A099B096233710581059105CF
:1010C00050F30E94BB134B015C0145E56FE2C70181
:1010D0000E9411066FE2C7010E94E705853559F0AD
:1010E0000E94BB13681979098A099B09623371054B
:1010F0008105910550F3B12CF801EB0DF11DEB0DBD
:10110000F11D60816F3F31F04181C7010E941106DE
:10111000B394F2CF60E070E0C7010E947407D7017A
:10112000ED91FC9111970084F185E02D18966C915A
:10113000C7010995D701ED91FC910488F589E02D4F
:1011400061E0C70109950E94BB134B015C0167E296
:10115000C7010E94E70587FD0BC00E94BB136819F9
:1011600079098A099B09623371058105910578F334
:101170000E94BB13681979098A099B0962337105BA
:101180008105910588F443E050E060E175E0F701E6
:1011900084810E940313F0924B03E0924A03D7012B
:1011A0001596DC9281E001C080E0AE960FB6F8940F
:1011B000DEBF0FBECDBFDF91CF911F910F91FF908A
:1011C000EF90DF90BF90AF909F908F900895CF9356
:1011D000DF93EC0161110DC064E2CE010E94E705CE
:1011E00090E091958195910995958795DF91CF91A3
:1011F000089541E063E20E94110663E2CE010E947D
:10120000E70581FFFACFE8CFCF93DF93EC01809120
:1012100054038330A9F480915003811111C060E020
:10122000CE010E94E708863A9F4F54F4E881F98185
:101230000488F589E02D61E0CE01099581E001C0C7
:1012400080E0DF91CF910895FF920F931F93CF938A
:10125000DF93EC0180915403833001F568E2CE0105
:101260000E94E70582FD28C019C0809153038D3389
:1012700030F4E0915303F0E0EB5AFC4F1082E88128
:10128000F981028CF38DE02DCE010995E881F98179
:101290000488F589E02D63E0CE01099560E0CE0178
:1012A0000E94E70890934D0380934C03DF91CF9108
:1012B0001F910F91FF900895E881F9810488F589C5
:1012C000E02D61E0CE010995E881F981008CF18D76
:1012D000E02DCE01099580E00E94620580E00E9429
:1012E000620580935003809150038334D0F4809141
:1012F00050038093500380E00E9462058093510365
:101300008E81811109C0909151038D81981721F030
:10131000809151038F3F39F480915003833018F04E
:1013200017C082E4E6CF10925003E881F981028C65
:10133000F38DE02DCE010995E881F9810288F389CA
:10134000E02DCE01DF91CF911F910F91FF90099475
:101350008091500383508093530380E00E94620584
:101360008093520380E00E946205982F90789093BA
:101370004E03982F907490934F03E881F98106846F
:10138000F785E02D682FCE010995F12C809153034C
:10139000F81608F06ACF0F2D10E080E00E94620579
:1013A000F801EB5AFC4F8083F394F0CF4F925F9299
:1013B0006F927F929F92AF92BF92EF920F931F9383
:1013C000CF93DF93EC01162F5A01922E6DE30E940A
:1013D000E705482F44606DE3CE010E9411060E948C
:1013E000BB132B013C01CE010E9404098823C1F0EC
:1013F000E881F9810088F189E02DE12C292DA501F2
:10140000612FCE010995DF91CF911F910F91EF9040
:10141000BF90AF909F907F906F905F904F90089596
:101420000E94BB136419750986099709683E7340C9
:1014300081059105E8F6E881F9810480F581E02DC8
:10144000CE010995D0CF4F925F926F927F929F927B
:10145000AF92BF92CF92DF92EF92FF920F93CF9312
:10146000DF93EC015B01942E10924F03F090520336
:10147000C0904C03D0904D036DE30E94E705482FC8
:1014800044606DE3CE010E9411060E94BB132B0144
:101490003C01CE010E940409882311F1F09252030D
:1014A000E881F9810088F189E02DEE24E39400E0E1
:1014B000292DA5016F2DCE010995D0924D03C09223
:1014C0004C03DF91CF910F91FF90EF90DF90CF9081
:1014D000BF90AF909F907F906F905F904F900895D6
:1014E0000E94BB136419750986099709683E734009
:1014F0008105910598F6E881F9810480F581E02D58
:10150000CE010995C6CFCF93DF93EC0168876623A0
:1015100011F04FE001C04AE163E1CE010E941106E3
:101520008885882341F061E1CE010E94E705482FBC
:101530004F71406602C04F81406861E1CE01DF918A
:10154000CF910C9411061F93CF93DF93EC01162FCC
:10155000662311F04DE501C045E56AE5CE010E9424
:101560001106112311F04CE701C040E76CE5CE01F4
:10157000DF91CF911F910C941106FC0166830895B1
:10158000CF93CFB7F89480919503811127C0E9ECF0
:10159000F2E08491E5EBF2E09491E82FF0E0EE0FB9
:1015A000FF1FE951FD4FA591B4918C91892321F43E
:1015B00061E08AE00E94C11461E08AE00E94881420
:1015C0008CB580618CBD8CB580648CBD61E08DE094
:1015D0000E94881461E08BE00E948814809195033A
:1015E0008F5F80939503CFBFCF910895FC0180E575
:1015F000858316826083528341830895FC018CB5F4
:1016000083838DB5848335812681809194038823DB
:1016100099F09FB7F89480919403813059F48DB379
:10162000809392034DB380919303809584238DBB67
:101630009FBF02C0909392033CBD2DBD60E08081AE
:101640000C94C114CF93DF93EC0161E088810E9478
:10165000C11480919403882361F09FB7F89420917E
:10166000940380919203213019F48DBB9FBF01C078
:101670008FBF8B818CBD8C818DBDDF91CF91089503
:101680001F93CF93DF93EC010E94FE0A85E00E9436
:10169000620580E00E946205182FCE010E94220B95
:1016A000812FDF91CF911F9108950E94400B81708F
:1016B00008951F93CF93DF93EC01162F442339F045
:1016C00040E066E00E94590BCE010E94220BCE0141
:1016D0000E94550B8111FBCFCE010E94FE0A812F83
:1016E000DF91CF911F910C946205EF92FF920F93BF
:1016F0001F93CF93DF9300D0CDB7DEB77C01142FBB
:10170000062F41E062E02A8359830E94590B802F03
:101710000E9462055981852F0E946205812F0E94D7
:1017200062052A81822F0E946205C7010F900F90E7
:10173000DF91CF911F910F91FF90EF900C94220BAE
:101740002F923F924F925F926F927F928F929F92D1
:10175000AF92BF92CF92DF92EF92FF920F931F93BF
:10176000CF93DF936C012A013B015901CA019927EC
:10177000C0E0D1E0C81BD90BE12CF12C01151105FB
:1017800079F10C171D0708F4E80141E062E0C60199
:101790000E94590B862D0E946205852D0E946205CC
:1017A000842D0E94620515012E0C3F1C4101F4019D
:1017B00081914F010E946205C401821993098C171F
:1017C0009D07A8F3C6010E94220B4C0E5D1E611CF2
:1017D000711CEC0EFD1E0C1B1D0BC0E0D1E0CECF2A
:1017E000DF91CF911F910F91FF90EF90DF90CF90FD
:1017F000BF90AF909F908F907F906F905F904F9031
:101800003F902F900895EF92FF920F931F93CF93E5
:10181000DF931F92CDB7DEB77C01142F062F41E076
:1018200062E559830E94590B802F0E9462055981FD
:10183000852F0E946205812F0E946205C7010F90CB
:10184000DF91CF911F910F91FF90EF900C94220B9D
:10185000FC01DB0186E191E09183808312968C91FB
:101860001297828313968C911397838314968C918D
:101870001497848315968C911597858316968C9171
:101880001697868317968C911797878318968C9155
:101890001897808719968C91199781871A968C9141
:1018A00082870895CF92DF92FF920F931F93CF9379
:1018B000DF93CDB7DEB70DB71EB7262F30E0220F6E
:1018C000331FA9014F5F5F4FEDB7FEB7E41BF50B68
:1018D0000FB6F894FEBF0FBEEDBF4DB75EB74F5FBA
:1018E0005F4FDA01F82E6C018C2D8F198617C8F422
:1018F000C601F601708172957F7070637A3308F0CB
:10190000795D7C93FFEFCF1ADF0AFC0180818F7035
:1019100080638A3308F0895D11968C931197129633
:10192000E3CFFA01E20FF31F1082BA0183EC93E0D8
:101930000E94A4170FB6F8941EBF0FBE0DBFDF9113
:10194000CF911F910F91FF90DF90CF9008952F922C
:101950003F924F925F926F927F928F929F92AF923F
:10196000BF92CF92DF92EF92FF920F931F93CF938C
:10197000DF93CDB7DEB76C970FB6F894DEBF0FBE1E
:10198000CDBF4C016B8FE98AFA8A0B8B1C8B2D8B98
:101990003E8B4F8BAA8E46E068E472E00E94230AD9
:1019A000CC2031F066E571E083EC93E00E94A4174F
:1019B00040E050E0BA01CE0141960E94030C07E0DE
:1019C00010E028E631E040E050E0BA01CE01419657
:1019D0000E94A00B2AE349E050E060E070E0CE01F5
:1019E00041960E94750B0E94BB131B012C015AE00B
:1019F000E52EF12CA12CB12C9E012F5F3F4F398F8A
:101A0000288FC4010E944005882301F18091520370
:101A10003B8D83131BC0D0905303B3E0BD1520F45E
:101A2000809155038634F9F061E08A8D0E94881414
:101A300061E08A8D0E94C11461E070E080E090E076
:101A40000E94EA1360E08A8D0E94C1140E94BB13B9
:101A50006219730984099509693B7B4081059105E9
:101A600080F280E022C1809156038C34E9F68091A7
:101A700057038835C9F6809158038A3309F0AAC004
:101A800046E04D1508F0A6C084E090E000E010E0CC
:101A9000782E2FEF280FFC01EB5AFC4F30813033AA
:101AA000A0F030813A3388F42081AAE0A801A49FF5
:101AB0008001A59F100D112400531109020F111D63
:101AC00001968830910521F707C030813A33C1F77C
:101AD00054E0751631F2722ECC20C1F060E771E04F
:101AE00083EC93E00E9497174AE050E06D2D83EC61
:101AF00093E00E94641868E771E083EC93E00E9431
:101B000097176D2D85E593E00E94520CE1E0E70DFB
:101B1000F0E0EB5AFC4F80818A3309F0A2CF0E949B
:101B2000BB131B012C010A151B0539F0C5010197D8
:101B30000817190709F04EC029C032E0370D5801C7
:101B40008FEFA81AB80A3D1508F5E32FF0E0EB5A1D
:101B5000FC4F208137019FEF691A790AA70160E0E5
:101B600070E0CE0141963C8F0E94750BC3019F77B8
:101B70003C8D892B41F4A30160E070E0CE014196D9
:101B80000E94030C3C8D3F5F7301DDCF1F930F93C9
:101B9000ADE7B1E0BF93AF93398D3F93488D4F933D
:101BA0000E94B119482F0F900F900F900F900F9037
:101BB0000F90CC2049F0BE016F5F7F4F83EC93E024
:101BC0004C8F0E94A4174C8DBE016F5F7F4FC401E4
:101BD0000E94230A809158038F3309F025CF54E0E7
:101BE000D51210C046E068E472E0C4010E94230AE6
:101BF000CC2009F419CF67E871E083EC93E00E94F0
:101C0000A41712CF87E0D8120FCF809159038534E3
:101C100009F00ACF80915A038F3409F005CF8091E3
:101C20005B03863409F000CF87010A5011090130A7
:101C3000BCE71B0778F0CC2031F065E971E083EC5C
:101C400093E00E94A41747E062EB71E0C4010E9498
:101C5000230A07CF46E068E472E0C4010E94230A29
:101C6000CC2031F068E472E083EC93E00E94A4178A
:101C7000212F47E050E060E070E0CE0141960E94E5
:101C8000750B26EF2E0D48E050E060E070E0CE01CD
:101C900041960E94750B2AE349E050E060E070E055
:101CA000CE0141960E94750B81E06C960FB6F894B8
:101CB000DEBF0FBECDBFDF91CF911F910F91FF907F
:101CC000EF90DF90CF90BF90AF909F908F907F90DC
:101CD0006F905F904F903F902F900895C82F88236A
:101CE00031F06AE872E083EC93E00E94971788E095
:101CF00028E130E00FB6F894A895209360000FBE5D
:101D000080936000CC2331F06EE283EC93E00E947C
:101D10009917FACFFFCFAF92BF92CF92DF92EF9297
:101D2000FF920F931F93CF93DF93CDB7DEB76297E8
:101D30000FB6F894DEBF0FBECDBF0C871D872E8770
:101D40003F87488B598B6A8BDE2C209153032430BC
:101D500008F45CC020915503263409F057C0209147
:101D600056032C3409F052C020915703283509F04E
:101D70004DC0209158032F3309F048C0B090520352
:101D8000209153032730A1F420915903253481F485
:101D900020915A032F3461F420915B03263441F4DF
:101DA00000E026E048E452E06B2D0E94D6092EC0E8
:101DB000BC01CE0101960E94280CAC2CCD2CEC84E9
:101DC000FD840E851F85288939894A896B2DCE01AE
:101DD00001960E94A70C882359F0DD2031F064E9B8
:101DE00072E083EC93E00E9497178D2D0E946E0E97
:101DF000DD2061F065EB72E083EC93E00E949717C1
:101E00006EED72E083EC93E00E94A41762960FB629
:101E1000F894DEBF0FBECDBFDF91CF911F910F9120
:101E2000FF90EF90DF90CF90BF90AF900895FC01AE
:101E30001182108273836283158214820895DC01FB
:101E4000ED91FC91309709F009940895DC01129608
:101E5000ED91FC911397309709F009940895DC01F6
:101E60001496ED91FC911597309709F00994089517
:101E7000FC0181E0808374836383728361831582B4
:101E80001682178210860895CF93DF93EC017C832E
:101E90006B830E94BB136D837E838F839887CE01F3
:101EA000DF91CF9108950F931F93CF93DF93EC01B0
:101EB0008B0189819A810E942F0F1C830B831A83C7
:101EC0000983C8010E941F0F0E94BB136D837E838C
:101ED0008F839887CE01DF91CF911F910F91089545
:101EE000CF93DF93EC01288189819A81222321F00D
:101EF0000E941F0F18820CC06B817C818617970788
:101F000019F0CE010E94530F89819A810E94260FF9
:101F1000CE01DF91CF910895EF92FF920F931F931F
:101F2000CF93DF931F92CDB7DEB77C01FC01008118
:101F30001181C80169830E94A51B6981681719F086
:101F4000C8010E94AD1BC7010F90DF91CF911F9177
:101F50000F91FF90EF900895262F862F6AE00E9440
:101F60006319923011F48EEF01C081E0820F089561
:101F7000262F862F6AE00E946319911102C082E029
:101F800001C08FEF820F08958F929F92AF92BF9200
:101F9000CF92EF920F931F93CF93DF93CDB7DEB71E
:101FA0002B970FB6F894DEBF0FBECDBF5C014C017E
:101FB00081E1880E911CC4010E944005882309F428
:101FC000AFC0809152038E3F39F490915103F501D7
:101FD0008081981709F464C080915303843019F507
:101FE0008091550390915603A0915703B0915803E7
:101FF000F50184839583A683B783809151038383FE
:102000009091520392839081891381C0C4010E94F0
:10201000DC05882309F47BC040E065EF72E0C40171
:102020000E94230A74C0809153038230F9F4809196
:10203000550390915603F501918780878091510354
:1020400083839091520392839081891305C0C401C8
:102050000E94DC0581115DC0F501808591850397A3
:1020600009F055C081E00E946E0E51C0809152036C
:102070008E3F09F055C0809153038D3008F450C055
:102080006BE271E083EC93E00E94741783EC93E0C1
:102090000E94A01782E090E0F5019187808740C000
:1020A00068E471E083EC93E00E94741783EC93E0A2
:1020B0000E94A01786E191E09A838983F5018389C4
:1020C0008B8384898C8385898D8386898E83878998
:1020D0008F83808D8887818D8987828D8A87838D84
:1020E0008B8789E0C82EE12C0091B2031091B303D5
:1020F0002091B4033091B5034091B6035091B703DA
:102100006091B803CE0101960E948B0E65CF81E0ED
:1021100008C040E065EF72E0C4010E94230A9CCF32
:1021200080E02B960FB6F894DEBF0FBECDBFDF91D7
:10213000CF911F910F91EF90CF90BF90AF909F9054
:102140008F900895CF92DF92EF92FF92CF93DF931B
:10215000EC0161E271E083EC93E00E947417FB8074
:102160004AE050E06A8183EC93E00E9464186EE1DB
:1021700071E083EC93E00E9474174AE050E06F2D09
:1021800083EC93E00E946418F8886AE171E083ECC4
:1021900093E00E9474174AE050E06F2D83EC93E0C7
:1021A0000E946418CC80DD80EE80FF8064E171E0E5
:1021B00083EC93E00E94741722E030E0B701A6019F
:1021C00083EC93E00E9405180884D985C02D6CE04B
:1021D00071E083EC93E00E9474174AE050E0BE0186
:1021E00083EC93E00E944F1883EC93E0DF91CF9152
:1021F000FF90EF90DF90CF900C94A0170F931F9358
:10220000FC014481558166817781842F8370808BA6
:102210008A019B0192E036952795179507959A9527
:10222000D1F71370138702878A019B01ACE03695C2
:10223000279517950795AA95D1F7137015870487E9
:10224000B6E17695679557954795BA95D1F7578733
:1022500046871F910F9108950F931F93FC014685A8
:102260005785537060E070E01AE0440F551F661FF9
:10227000771F1A95D1F704851585137020E030E09B
:10228000402B512B622B732B0AE0440F551F661F06
:10229000771F0A95D1F702851385137020E030E08F
:1022A000402B512B622B732B82E0440F551F661F6E
:1022B000771F8A95D1F780898370482B4483558393
:1022C000668377831F910F910895EF92FF920F938A
:1022D000CF93DF931F92CDB7DEB77C0169830E9455
:1022E000C40F6981F701638380818283A7014C5FFA
:1022F0005F4F00E024E0C70141960E94D6090F908D
:10230000DF91CF910F91FF90EF90089540E35FEE42
:1023100068E082EB93E00E94F60A86E191E09093F8
:10232000A8038093A7038AE08093A90382E08093A7
:10233000AA031092AB0381E0809354031092AD0383
:102340008FE18093AE031092AF0308959F92AF92F6
:10235000BF92CF92DF92EF92FF920F931F93CF9392
:10236000DF9300D0CDB7DEB77C01162F942EA22EBE
:102370009AE2C92ED12C60E372E083EC93E00E94D4
:10238000741783EC93E00E94A0171F3FC9F48AE200
:1023900090E00E94A51BB82EF70180836EE072E0EA
:1023A00083EC93E00E9474174AE050E06B2D83ECBD
:1023B00093E00E94641883EC93E00E94A0171AC077
:1023C0006AEE71E083EC93E00E9474174AE050E0FB
:1023D000612F83EC93E00E94641883EC93E00E94E9
:1023E000A017DA82C982612FCE0101960E948C0F5C
:1023F000F7011083F70140814F3F41F560EC71E038
:1024000083EC93E00E94741783EC93E00E94A01782
:102410006BE971E083EC93E00E94741783EC93E026
:102420000E94A01783EC93E00E944C15892BD1F3F6
:1024300041E060E070E083EC93E00E94E218DA8211
:10244000C982CE0101960E948C0F95CF6701F1E100
:10245000CF0ED11C292D6A2DC6010E94B90761E05B
:10246000C6010E94830A61E0C6010E94BD0A602F76
:10247000C6010E94A80684EF91E0F701978786873E
:10248000958784879387828780816AE00E94631999
:10249000918361E089E00E94881460E089E00E94F5
:1024A000C11481E090E0F70191878087118100815C
:1024B00068E671E083EC93E00E9474174AE050E014
:1024C000602F83EC93E00E94641861E971E083EC73
:1024D00093E00E9474174AE050E0612F83EC93E090
:1024E0000E94641883EC93E00E94A0170F900F9055
:1024F000DF91CF911F910F91FF90EF90DF90CF90E0
:10250000BF90AF909F90089563E872E083EC93E0F2
:102510000E94741783EC93E00E94A01760E086E0AD
:102520000E94C11461E086E00E94881460E083E0AC
:102530000E94C11461E083E00E94881461E084E09D
:102540000E94881461E084E00E94C11460E087E08A
:102550000E94881466E672E083EC93E00E94741790
:1025600083EC93E00C94A01762E472E083EC93E0B8
:102570000E94741783EC93E00E94A01760E084E04F
:102580000E94C11460E086E00E94C11468EE73E00E
:1025900080E090E00C94EA13CF93DF9300D000D05A
:1025A000CDB7DEB761E084E00E94C11461E086E04F
:1025B0000E94C11420E432E44FE050E061E087E083
:1025C0000E9420159B01AC0160E086E029833A83DC
:1025D0004B835C830E94C114AAE0B0E029813A8158
:1025E0004B815C810E94911923E930E040E050E08A
:1025F0000E946F19C9010F900F900F900F90DF91FB
:10260000CF91089508958230E8F4E82FF0E0EE0FBE
:10261000FF1FE25FFE4F71836083813041F0809144
:1026200069008C7F842B80936900E89A08958091DB
:102630006900440F551F440F551F837F842B8093DF
:102640006900E99A08951F920F920FB60F92112414
:102650002F933F934F935F936F937F938F939F93AA
:10266000AF93BF93EF93FF93E0910E01F0910F01B1
:102670000995FF91EF91BF91AF919F918F917F91BC
:102680006F915F914F913F912F910F900FBE0F90DF
:102690001F9018951F920F920FB60F9211242F932F
:1026A0003F934F935F936F937F938F939F93AF93DA
:1026B000BF93EF93FF93E0911001F0911101099501
:1026C000FF91EF91BF91AF919F918F917F916F910A
:1026D0005F914F913F912F910F900FBE0F901F90E0
:1026E00018951F920F920FB60F9211242F933F93BC
:1026F0008F939F93AF93BF938091BB039091BC0343
:10270000A091BD03B091BE033091BA0323E0230F23
:102710002D3720F40196A11DB11D05C026E8230F19
:102720000296A11DB11D2093BA038093BB03909321
:10273000BC03A093BD03B093BE038091BF039091EF
:10274000C003A091C103B091C2030196A11DB11DA8
:102750008093BF039093C003A093C103B093C203BF
:10276000BF91AF919F918F913F912F910F900FBE8D
:102770000F901F9018952FB7F8946091BB0370913C
:10278000BC038091BD039091BE032FBF08953FB756
:10279000F8948091BF039091C003A091C103B091C0
:1027A000C20326B5A89B05C02F3F19F00196A11DB5
:1027B000B11D3FBF6627782F892F9A2F620F711D99
:1027C000811D911D42E0660F771F881F991F4A9552
:1027D000D1F708958F929F92AF92BF92CF92DF92DE
:1027E000EF92FF926B017C010E94C7134B015C01C9
:1027F000C114D104E104F104F1F00E9462190E94B5
:10280000C713681979098A099B09683E73408105D5
:10281000910570F321E0C21AD108E108F10888EEB1
:10282000880E83E0981EA11CB11CC114D104E104E0
:10283000F10429F7DDCFFF90EF90DF90CF90BF90AC
:10284000AF909F908F900895789484B5826084BDF6
:1028500084B5816084BD85B5826085BD85B58160A4
:1028600085BDEEE6F0E0808181608083E1E8F0E004
:102870001082808182608083808181608083E0E833
:10288000F0E0808181608083E1EBF0E08081846012
:102890008083E0EBF0E0808181608083EAE7F0E014
:1028A0008081846080838081826080838081816078
:1028B00080838081806880831092C1000895833076
:1028C00081F028F4813099F08230A1F008958730AA
:1028D000A9F08830B9F08430D1F4809180008F7DE8
:1028E00003C0809180008F7780938000089584B525
:1028F0008F7702C084B58F7D84BD08958091B0002C
:102900008F7703C08091B0008F7D8093B0000895D1
:10291000CF93DF9390E0FC01E555FD4F2491FC013E
:10292000E154FD4F8491882349F190E0880F991F6D
:10293000FC01E951FD4FA591B49183529D4FFC01DB
:10294000C591D4919FB7611108C0F8948C912095DE
:1029500082238C93888182230AC0623051F4F894D8
:102960008C91322F309583238C938881822B88839E
:1029700004C0F8948C91822B8C939FBFDF91CF91F0
:1029800008950F931F93CF93DF931F92CDB7DEB7B8
:10299000282F30E0F901E956FD4F8491F901E55502
:1029A000FD4F1491F901E154FD4F04910023C9F04A
:1029B000882321F069830E945F146981E02FF0E091
:1029C000EE0FFF1FE352FD4FA591B4919FB7F8940E
:1029D0008C91611103C01095812301C0812B8C93D0
:1029E0009FBF0F90DF91CF911F910F910895CF93CB
:1029F000DF93282F30E0F901E956FD4F8491F9016A
:102A0000E555FD4FD491F901E154FD4FC491CC231C
:102A100091F081110E945F14EC2FF0E0EE0FFF1F88
:102A2000ED52FD4FA591B4912C912D2381E090E0C2
:102A300021F480E002C080E090E0DF91CF91089522
:102A40000F931F93762F90E0FC01E555FD4F6491A5
:102A5000FC01E154FD4FE4917111762FF0E0EE0F8F
:102A6000FF1FED52FD4F8591949189019A013F70AE
:102A7000472F0E94A601611571058105910531F06E
:102A80006F5F7F4F8F4F9F4F9F7003C060E070E07C
:102A9000CB011F910F910895FC01818D228D90E053
:102AA000805C9F4F821B91098F7399270895FC01C9
:102AB000918D828D981731F0828DE80FF11D858DF3
:102AC00090E008958FEF9FEF0895FC01918D828D26
:102AD000981761F0828DDF01A80FB11D5D968C9172
:102AE000928D9F5F9F73928F90E008958FEF9FEF7D
:102AF000089589EE96E1892B49F080E090E0892BDA
:102B000029F00E94E91681110C9400000895FC013F
:102B1000848DDF01A80FB11DA35ABF4F2C91848D66
:102B200090E001968F739927848FA689B7892C939B
:102B3000A089B1898C9180648C93938D848D981336
:102B400006C00288F389E02D80818F7D80830895FF
:102B5000CF93DF93EC01888D8823C9F0EA89FB8944
:102B6000808185FD05C0A889B9898C9186FD0FC03B
:102B70000FB607FCF5CF808185FFF2CFA889B98910
:102B80008C9185FFEDCFCE010E948715E7CFDF91B5
:102B9000CF910895CF92DF92FF920F931F93CF931F
:102BA000DF931F92CDB7DEB76C0181E0D601589656
:102BB0008C9358975B969C915B975C968C915C97F5
:102BC000981307C05096ED91FC915197808185FD37
:102BD0002EC0F601038D10E00F5F1F4F0F731127FA
:102BE000F02EF601848DF81211C00FB607FCF9CF54
:102BF000D6015096ED91FC915197808185FFF1CFE0
:102C0000C60169830E9487156981EBCF838DE80F28
:102C1000F11DE35AFF4F6083D6015B960C935B97DF
:102C20005296ED91FC915397808180620CC0D60141
:102C30005696ED91FC91579760835096ED91FC91DB
:102C4000519780818064808381E090E00F90DF91D4
:102C5000CF911F910F91FF90DF90CF900895BF9279
:102C6000CF92DF92EF92FF92CF93DF93EC016A0154
:102C70007B01B22EE889F98982E08083411581EEDB
:102C8000580761057105A1F060E079E08DE390E0FF
:102C9000A70196010E946F1921503109410951097C
:102CA0005695479537952795211580E1380798F077
:102CB000E889F989108260E874E88EE190E0A70164
:102CC00096010E946F192150310941095109569509
:102CD000479537952795EC85FD853083EE85FF85F3
:102CE0002083188EEC89FD89B082EA89FB89808176
:102CF00080618083EA89FB89808188608083EA899A
:102D0000FB89808180688083EA89FB8980818F7D4F
:102D10008083DF91CF91FF90EF90DF90CF90BF90B5
:102D200008951F920F920FB60F9211242F938F9335
:102D30009F93EF93FF93E091D303F091D4038081AD
:102D4000E091D903F091DA0382FD12C09081809165
:102D5000DC038F5F8F732091DD03821751F0E091C8
:102D6000DC03F0E0ED53FC4F958F8093DC0301C052
:102D70008081FF91EF919F918F912F910F900FBEC6
:102D80000F901F9018951F920F920FB60F9211245B
:102D90002F933F934F935F936F937F938F939F9363
:102DA000AF93BF93EF93FF9383EC93E00E9487155B
:102DB000FF91EF91BF91AF919F918F917F916F9113
:102DC0005F914F913F912F910F900FBE0F901F90E9
:102DD000189583EC93E00E944C1521E0892B09F4AF
:102DE00020E0822F08951092C6031092C50388EE4A
:102DF00093E0A0E0B0E08093C7039093C803A09352
:102E0000C903B093CA0387EE92E09093C403809302
:102E1000C30385EC90E09093D0038093CF0384ECC0
:102E200090E09093D2038093D10380EC90E0909354
:102E3000D4038093D30381EC90E09093D6038093E6
:102E4000D50382EC90E09093D8038093D70386EC6F
:102E500090E09093DA038093D9031092DC031092F0
:102E6000DD031092DE031092DF030895CF92DF920C
:102E7000EF92FF920F931F93CF93DF937C016A0130
:102E8000EB0100E010E00C151D0571F06991D70110
:102E9000ED91FC910190F081E02DC7010995892BFE
:102EA00019F00F5F1F4FEFCFC801DF91CF911F9136
:102EB0000F91FF90EF90DF90CF900895611571050D
:102EC00081F0DB010D900020E9F7AD01415051097F
:102ED000461B570BDC01ED91FC910280F381E02D44
:102EE000099480E090E00895EF92FF920F931F9372
:102EF000CF93DF938C017B01C0E0D0E0F701EC0FB2
:102F0000FD1F6491662359F0F801A081B181ED9114
:102F1000FC91C8010995892B11F02196EFCFCE01C4
:102F2000DF91CF911F910F91FF90EF9008950C9436
:102F30005E17DC01ED91FC910190F081E02D099488
:102F400063EF72E00C945E170F931F93CF93DF93A0
:102F5000EC010E945E178C01CE010E94A017800F29
:102F6000911FDF91CF911F910F9108958F929F92A2
:102F7000AF92BF92DF92EF92FF920F931F93CF9386
:102F8000DF93CDB7DEB7A1970FB6F894DEBF0FBEC3
:102F9000CDBF7C01F42FD52ECB0119A2223008F42D
:102FA0002AE08E010F5D1F4F822E912CA12CB12C97
:102FB0006F2F7D2DA50194010E946F19F22FD32E42
:102FC000CA01015011096A3014F4E0E301C0E7E3DB
:102FD000E60FD801EC93232B242B252B49F7B801BE
:102FE000C7010E945E17A1960FB6F894DEBF0FBE10
:102FF000CDBFDF91CF911F910F91FF90EF90DF90A8
:10300000BF90AF909F908F900895CF92DF92EF92F4
:10301000FF920F931F93CF93DF93EC016A017B0123
:103020002115310579F4E881F9810190F081E02DD5
:10303000642FDF91CF911F910F91FF90EF90DF9060
:10304000CF9009942A303105E9F477FF1AC06DE278
:103050000E9499178C0144275527BA014C195D0924
:103060006E097F092AE0CE010E94B617800F911FDA
:10307000DF91CF911F910F91FF90EF90DF90CF9054
:1030800008952AE0B701A601CE01DF91CF911F91EB
:103090000F91FF90EF90DF90CF900C94B6179A01AC
:1030A000AB01662757FD6095762F0C940518211506
:1030B000310541F4DC01ED91FC910190F081E02DAE
:1030C000642F09940C94B6179A01462F50E060E0E3
:1030D00070E00C9457189A01AB0160E070E00C941A
:1030E00057180F931F93CF93DF93EC010E94BB13EC
:1030F000688779878A879B87E881F9810084F185D1
:10310000E02DCE01099597FF15C00E94BB130885DD
:1031100019852A853B85601B710B820B930B0C81F3
:103120001D812E813F81601771078207930720F36D
:103130008FEF9FEFDF91CF911F910F910895FF9235
:103140000F931F93CF93DF93EC018B01F42ECE01ED
:103150000E9471189C0197FD28C08D32910519F1CC
:10316000C0970A9710F1FF2019F02E323105F9F0BF
:1031700001301105F9F00230110569F42D303105E7
:1031800051F034F4295031092230310520F012C0B9
:103190002032310579F4E881F9810680F781E02D4C
:1031A000CE010995D4CF8DE203C0C90105C08EE2DE
:1031B00090E002C08FEF9FEFDF91CF911F910F91B1
:1031C000FF900895CF92DF92FF920F931F93CF93BA
:1031D000DF9300D000D0CDB7DEB76C01042F40E004
:1031E0000E949F18FC0197FD4BC020E030E0A90130
:1031F000F12C112707FD1095E017F107E9F0ED32EA
:10320000F105C1F0CF01C0970A97B0F4AAE0B0E091
:103210000E9491199B01AC01CF01AA2797FDA095AF
:10322000BA2F280F391F4A1F5B1F2053310941094C
:10323000510902C0FF24F394D601ED91FC91068060
:10324000F781E02DC60129833A834B835C8309957E
:10325000C6010E947118FC01C09729813A814B81F7
:103260005C810A9748F2E017F10731F2FF2061F024
:1032700066277727CB01621B730B840B950B06C067
:1032800060E070E0CB0102C0CA01B9010F900F905D
:103290000F900F90DF91CF911F910F91FF90DF90D2
:1032A000CF90089508950E9424140E9452190E94FC
:1032B000FB03C9E7D5E10E9438042097E1F30E949F
:1032C0007915F9CF0895991B79E004C0991F9617D5
:1032D00008F0961B881F7A95C9F780950895A1E29A
:1032E0001A2EAA1BBB1BFD010DC0AA1FBB1FEE1F80
:1032F000FF1FA217B307E407F50720F0A21BB30BCB
:10330000E40BF50B661F771F881F991F1A9469F746
:1033100060957095809590959B01AC01BD01CF01A2
:1033200008950E94A219A59F900DB49F900DA49F8F
:10333000800D911D11240895EE0FFF1F0590F4914B
:10334000E02D0994A29FB001B39FC001A39F700D0F
:10335000811D1124911DB29F700D811D1124911D9D
:103360000895AEE0B0E0E7EBF9E10C946F1C0D8935
:103370001E8986E08C831A8309838FEF9FE79E83E3
:103380008D83AE01475E5F4F6F89788DCE010196C8
:103390000E94D319EF81F885E00FF11F10822E965D
:1033A000E4E00C948B1CACE0B0E0E9EDF9E10C94A6
:1033B000611C7C016B018A01FC01178216828381EA
:1033C00081FFBDC1CE0101964C01F7019381F60149
:1033D00093FD859193FF81916F01882309F4ABC11F
:1033E000853239F493FD859193FF81916F01853288
:1033F00029F4B70190E00E94D11BE7CF512C312C6A
:1034000020E02032A0F48B3269F030F4803259F0A1
:10341000833269F420612CC08D3239F0803339F465
:10342000216026C02260246023C0286021C027FDBF
:1034300027C030ED380F3A3078F426FF06C0FAE0A6
:103440005F9E300D1124532E13C08AE0389E300D3C
:103450001124332E20620CC08E3221F426FD6BC164
:10346000206406C08C3611F4206802C0883641F40E
:10347000F60193FD859193FF81916F018111C1CF79
:10348000982F9F7D9554933028F40C5F1F4FFFE3D6
:10349000F9830DC0833631F0833771F0833509F03D
:1034A0005BC022C0F801808189830E5F1F4F4424D6
:1034B0004394512C540115C03801F2E06F0E711C79
:1034C000F801A080B18026FF03C0652D70E002C026
:1034D0006FEF7FEFC5012C870E94C61B2C01830173
:1034E0002C852F77222E17C03801F2E06F0E711C49
:1034F000F801A080B18026FF03C0652D70E002C0F6
:103500006FEF7FEFC5012C870E94BB1B2C012C8520
:103510002068222E830123FC1BC0832D90E04816D7
:103520005906B0F4B70180E290E00E94D11B3A94B2
:10353000F4CFF50127FC859127FE81915F01B7014A
:1035400090E00E94D11B31103A94F1E04F1A5108DB
:103550004114510471F7E5C0843611F0893639F50C
:10356000F80127FF07C060817181828193810C5F20
:103570001F4F08C060817181882777FD8095982F43
:103580000E5F1F4F2F76B22E97FF09C09095809542
:10359000709561957F4F8F4F9F4F2068B22E2AE024
:1035A00030E0A4010E94031CA82EA81844C085374F
:1035B00029F42F7EB22E2AE030E025C0F22FF97FC9
:1035C000BF2E8F36C1F018F4883579F0B4C080373B
:1035D00019F0883721F0AFC02F2F2061B22EB4FE32
:1035E0000DC08B2D8460B82E09C024FF0AC09F2F08
:1035F0009660B92E06C028E030E005C020E130E03A
:1036000002C020E132E0F801B7FE07C0608171819D
:10361000828193810C5F1F4F06C06081718180E0C1
:1036200090E00E5F1F4FA4010E94031CA82EA81853
:10363000FB2DFF77BF2EB6FE0BC02B2D2E7FA514C2
:1036400050F4B4FE0AC0B2FC08C02B2D2E7E05C07B
:103650007A2C2B2D03C07A2C01C0752C24FF0DC0B1
:10366000FE01EA0DF11D8081803311F4297E09C02D
:1036700022FF06C07394739404C0822F867809F0E9
:10368000739423FD13C020FF06C05A2C731418F442
:10369000530C5718732C731468F4B70180E290E050
:1036A0002C870E94D11B73942C85F5CF731410F4D2
:1036B000371801C0312C24FF12C0B70180E390E01D
:1036C0002C870E94D11B2C8522FF17C021FF03C02D
:1036D00088E590E002C088E790E0B7010CC0822F37
:1036E000867859F021FD02C080E201C08BE227FDFF
:1036F0008DE2B70190E00E94D11BA51438F4B70108
:1037000080E390E00E94D11B5A94F7CFAA94F40171
:10371000EA0DF11D8081B70190E00E94D11BA1103C
:10372000F5CF332009F451CEB70180E290E00E943A
:10373000D11B3A94F6CFF7018681978102C08FEFB3
:103740009FEF2C96E2E10C947D1CF999FECF92BD7F
:1037500081BDF89A992780B50895262FF999FECF53
:103760001FBA92BD81BD20BD0FB6F894FA9AF99A9E
:103770000FBE01960895FC01059061507040011044
:10378000D8F7809590958E0F9F1F0895FC0161508A
:10379000704001900110D8F7809590958E0F9F1F73
:1037A00008950F931F93CF93DF93182F092FEB01E9
:1037B0008B8181FD03C08FEF9FEF20C082FF10C07F
:1037C0004E815F812C813D81421753077CF4E88153
:1037D000F9819F012F5F3F4F39832883108306C0F3
:1037E000E885F985812F0995892B29F72E813F815D
:1037F0002F5F3F4F3F832E83812F902FDF91CF91FB
:103800001F910F910895FA01AA27283051F1203114
:1038100081F1E8946F936E7F6E5F7F4F8F4F9F4F64
:10382000AF4FB1E03ED0B4E03CD0670F781F891FA6
:103830009A1FA11D680F791F8A1F911DA11D6A0F74
:10384000711D811D911DA11D20D009F468943F9127
:103850002AE0269F11243019305D3193DEF6CF0126
:103860000895462F4770405D4193B3E00FD0C9F7EC
:10387000F6CF462F4F70405D4A3318F0495D31FD59
:103880004052419302D0A9F7EACFB4E0A6959795AC
:10389000879577956795BA95C9F700976105710582
:1038A00008959B01AC010A2E0694579547953795CC
:1038B0002795BA95C9F7620F731F841F951FA01D26
:1038C00008952F923F924F925F926F927F928F92C4
:1038D0009F92AF92BF92CF92DF92EF92FF920F939F
:1038E0001F93CF93DF93CDB7DEB7CA1BDB0B0FB6A9
:1038F000F894DEBF0FBECDBF09942A883988488866
:103900005F846E847D848C849B84AA84B984C884FB
:10391000DF80EE80FD800C811B81AA81B981CE0FF2
:10392000D11D0FB6F894DEBF0FBECDBFED010895D7
:04393000F894FFCF39
:10393400000060048000983A000032000000021386
:10394400021300000000D60989054005230A830AF2
:10395400A80624090F05C20643073906A30A2A0547
:103964001B05464C583F454F4600464C583F0048BF
:10397400616E647368616B65206661696C00464CB6
:10398400583A25753A00464C583F4F4B202841433E
:103994004B2073656E742900464C58494D473A00D4
:1039A400726164696F205B005D203E2000464C58C4
:1039B4003A25753A4F4B00464C583F4F4B207265A1
:1039C40073656E6400494D4720657863656564736B
:1039D4002033316B2C207265667573696E672069BC
:1039E4007400464C583F4E4F4B0052465458203EAC
:1039F4002000524641434B203E200054696D656FC0
:103A040075742077616974696E6720666F722070BF
:103A140061636B65742041434B2C2061626F727447
:103A2400696E6720464C415348206F70657261741B
:103A3400696F6E202E2E2E00464C583A494E560081
:103A440054696D656F757420726563656976696E16
:103A54006720464C41534820696D61676520667252
:103A64006F6D2053455249414C2C2061626F727432
:103A7400696E672E2E2E000A464C583F4F4B004667
:103A84004C41534820494D47205452414E534D49CF
:103A94005353494F4E205355434345535300464CCB
:103AA40041534820494D47205452414E534D4953A8
:103AB40053494F4E204641494C005245424F4F54C2
:103AC400494E4700464C41534820494D47205452E3
:103AD400414E534D495353494F4E2053554343454B
:103AE4005353210A0054696D656F75742F457272C2
:103AF4006F722C2065726173696E672077726974C6
:103B040074656E2064617461202E2E2E2000444F53
:103B14004E450000000000CA1536174C15651557B0
:103B240015A8150D0A006E616E00696E66006F7649
:023B3400660029
:00000001FF
