:100000000C945B010C942B1E0C94521E0C948301D7
:100010000C9483010C9483010C9483010C94830150
:100020000C9483010C9483010C9483010C94830140
:100030000C9483010C9483010C9483010C94830130
:100040000C94791E0C9483010C948A210C94BC218D
:100050000C9483010C9483010C9483010C94830110
:100060000C9483010C948301416E696D6174696F16
:100070006E2E20667073207265706F727465643DB9
:1000800000416E696D6174696F6E2E2065787465CC
:100090006E743D2000416E696D6174696F6E2E2033
:1000A000706F736974696F6E3D2000416E696D6198
:1000B00074696F6E2E204D6173746572206272696F
:1000C0006768746E6573733D2000416E696D61747D
:1000D000696F6E2E205374617274757020636F6D3A
:1000E000706C6574652E0053746174652E202069F0
:1000F000646C652D3E696E506C616E652E004E65B8
:1001000074776F726B2E2050726F6772616D6D65C0
:100110007220747261666669632E004E6574776F33
:10012000726B2E20526570726F6772616D6D696EB1
:1001300067206D6573736167653F004E6574776F07
:10014000726B2E207374617274757020636F6D70A2
:100150006C6574652077697468206D794E6F64658D
:1001600049443D00206D79496E6465783D00456ED7
:1001700074657220746865206E6F6465206E756D9D
:1001800062657220666F722074686973206E6F6496
:10019000653A004E6574776F726B2E204552524F50
:1001A00052206E6F206E6F6465494420666F756ED5
:1001B0006420696E20454550524F4D21004E6574B4
:1001C000776F726B2E202077726974696E67206E6C
:1001D0006F6465494420746F20454550524F4D3D32
:1001E000004E6574776F726B2E2072656164206EAD
:1001F0006F646549442066726F6D20454550524FCB
:100200004D3D004E6574776F726B2E207374617272
:100210007475702E004C6F636174696F6E2E20735D
:1002200074617274757020636F6D706C6574652E87
:10023000000964323D000964313D000964303D002D
:100240004C6F636174696F6E2E2073746172747584
:10025000702E0000000008000201000003040700E7
:10026000000000000000000102040810204080018E
:1002700002040810200102040810200404040404ED
:100280000404040202020202020303030303030044
:10029000000000230026002900000000002500289F
:1002A000002B0000000000240027002A0000750B2E
:1002B0008C174D1AEC2111241FBECFEFD8E0DEBF02
:1002C000CDBF13E0A0E0B1E0E0E7F0E502C00590AB
:1002D0000D92A435B107D9F726E0A4E5B3E001C03B
:1002E0001D92A835B207E1F712E0C6EBD2E004C0D8
:1002F0002297FE010E944625CE3AD107C9F70E94F7
:1003000095240C9436280C94000080E090E0089529
:10031000CF93DF9300D000D000D0CDB7DEB7AB01D4
:10032000DC01ED91FC910190F081E02D19821A829F
:100330001B821C821D821E829E012F5F3F4FBE01C9
:100340006C5F7F4F099526960FB6F894DEBF0FBEFF
:10035000CDBFDF91CF910895CF93DF9300D000D030
:1003600000D0CDB7DEB7AB01DC01ED91FC9101907F
:10037000F081E02D19821A821B821C821D821E824E
:100380009E012F5F3F4FBE016C5F7F4F0995269600
:100390000FB6F894DEBF0FBECDBFDF91CF910895A9
:1003A000FC018DE391E091838083138212828FEFB1
:1003B00086838783808781878287838781E084879C
:1003C00016861586158214828091660590916705C0
:1003D000892B21F4F0936705E0936605A0916405ED
:1003E000B0916505109721F01596FC93EE93149744
:1003F000F0936505E09364050895CF93C62F60934D
:1004000068056BEA70E08BEB95E00E946D224AE094
:1004100050E06C2F8BEB95E00E945D238BEB95E019
:10042000CF910C949922CF93DF9300D01F92CDB738
:10043000DEB7FC016083442361F019821A821B82BB
:10044000AE014F5F5F4F6EE670E08DE993E00E9472
:10045000AB170F900F900F90DF91CF910895CF932E
:10046000DF93EC0180918803811111C08FE693E046
:100470000E94D0018BE491E09093700380936F030E
:1004800010927F0310927E0381E08093880320E026
:1004900030E04EE650E06DE973E08FE693E00E94B5
:1004A0005117FC018FEF868380EB878380EF808775
:1004B00080918003811111C08EE593E00E94D001EC
:1004C00089E591E090935F0380935E0310926E0341
:1004D00010926D0381E08093800320E030E04EE6CF
:1004E00050E06DE973E08EE593E00E945117FC0146
:1004F0008FEF868380EB878380EF80878EE00E947A
:10050000671F2091130130911401280F391F309378
:100510001401209313016FEFCE010E94FD0187E3C8
:100520008B8389831C821A8241E060E0CE010E94A5
:1005300013026AEC70E08BEB95E00E946D228BEB6E
:1005400095E0DF91CF910C9499221F93CF93DF9385
:10055000EC01162F8981861791F065E970E08BEB2D
:1005600095E00E946D224AE050E0612F8BEB95E010
:100570000E945D238BEB95E00E9499221983DF9105
:10058000CF911F9108951F93CF93DF93EC01162F06
:100590008A81861791F061E870E08BEB95E00E940C
:1005A0006D224AE050E0612F8BEB95E00E945D23C5
:1005B0008BEB95E00E9499221A83DF91CF911F91D6
:1005C00008954F925F926F927F929F92AF92BF92E7
:1005D000CF92DF92EF92FF920F931F93CF93DF930F
:1005E000CDB7DEB72A970FB6F894DEBF0FBECDBFEA
:1005F000962E80E1888788E0898780919503811114
:100600000DC00E94C31E60935803709359038093DA
:100610005A0390935B0381E0809395038DEF9FEBEA
:100620009A8389838FEF9FE39C838B838091570309
:10063000E8E0F0E0EC0FFD1FE80FF11D40816EE6F1
:1006400070E08DE993E00E94E8178091570390E0F5
:10065000FC01EE0FFF1FEC0FFD1F01811281409086
:1006600058035090590360905A0370905B03E8E080
:10067000F0E0EC0FFD1FE80FF91F80818A870E94D0
:10068000C31E6B017C0120E03A85A8E1B1E00E9425
:100690002A259B01AC01C418D508E608F708C70154
:1006A000B6010E94A524080F191FC8019F739695D3
:1006B0008795969587959695879516FF06C02FEF97
:1006C00037E0A901481B590BCA01E92FEE0FEE0FC5
:1006D000F0E0E65EFE4F2081318192818695A9018E
:1006E000989F400D511D1124CA0117FF03C0919519
:1006F000819591099C01305880E090E0DC0160E038
:100700004FEF5FEF249FC001359FD001349F900DC4
:10071000A11DB61F259F900DA11DB61F1124BD015F
:10072000882799271F921F921F922EE62F93A12CA4
:10073000B12C6501EE24EA94FE2C00E010E020E0EC
:1007400030E0A9010E944B24162F0F900F900F90BC
:100750000F906D36D9F48091570381111DC00E940E
:10076000C31EC0905803D0905903E0905A03F090F4
:100770005B0354EFC50E51E0D51EE11CF11CC616FB
:10078000D706E806F90608F44DC006C0611104C09A
:1007900080915703813069F18091560391E0980F61
:1007A000909356038D838FEF8E839F82812F90E0ED
:1007B000BC01660F771F680F791F63567C4FCE010F
:1007C00005960E94F6172A960FB6F894DEBF0FBE64
:1007D000CDBFDF91CF911F910F91FF90EF90DF90F0
:1007E000CF90BF90AF909F907F906F905F904F9011
:1007F00008950E94C31EC0905803D0905903E09002
:100800005A03F0905B0324EFC20E21E0D21EE11CDC
:10081000F11CC616D706E806F90608F0BDCF1092FF
:10082000570303C081E0809357030E94C31E609367
:1008300058037093590380935A0390935B03ACCF92
:100840005F926F927F928F929F92AF92BF92CF9260
:10085000DF92EF92FF920F931F93CF93DF9300D01D
:100860001F92CDB7DEB7862E142F19821A821B82F3
:10087000AE014F5F5F4F6EE670E08DE993E00E943E
:10088000AB17809155038F5F80935503282D31E07E
:10089000230F08F42FEF282D230F08F42FEF2E3607
:1008A00038F421E0382D320F08F43FEF932E02C0C8
:1008B0007DE6972E292D210F08F42FEF292D210FEA
:1008C00008F42FEF2E3630F4292D210F08F42FEFE6
:1008D000622E02C06DE6662E282D31E0231B08F43F
:1008E00020E0282D231B08F420E02E3638F421E0E8
:1008F000382D321B08F430E0732E02C05DE6752EF1
:10090000272D211B08F420E0272D211B08F420E0CF
:100910002E3630F4272D211B08F420E0522E02C081
:100920004DE6542E183328F4612F70E080E090E0FB
:1009300004C067E370E080E090E01F921F921F9276
:1009400020E12F93A12CB12C6501AA9417E3E12E8D
:10095000F12C00E010E020E030E0A9010E944B24DF
:10096000062F0F900F900F900F90152DFF24FA94E3
:100970006116A0F0809155038983FA820B83212FA1
:1009800030E0B901660F771F620F731F63567C4F0B
:10099000CE0101960E94F6171F5FEACF19821A82D4
:1009A00010E21B83852D90E0BC01660F771F680F56
:1009B000791F63567C4FCE0101960E94F61719826B
:1009C0001A8200E80B83872D90E0BC01660F771F29
:1009D000680F791F63567C4FCE0101960E94F6176F
:1009E00019821A828FEF8B83882D90E0BC01660FED
:1009F000771F680F791F63567C4FCE0101960E94C6
:100A0000F61719821A820B83892D90E0BC01660FBC
:100A1000771F680F791F63567C4FCE0101960E94A5
:100A2000F61719821A821B83712CB301660F771F88
:100A3000660D771D63567C4FCE0101960E94F61716
:100A40000F900F900F90DF91CF911F910F91FF901A
:100A5000EF90DF90CF90BF90AF909F908F907F905E
:100A60006F905F900895CF93DF93EB014AE06EE6BD
:100A700070E08DE993E00E94E817AE016EE670E049
:100A80008DE993E0DF91CF910C94AB170F931F93F7
:100A9000CF93DF9300D01F92CDB7DEB7FC01238147
:100AA0009181921768F48FEF820F30E0291B310992
:100AB00037FF02C02F5F3F4F35952795821B0DC032
:100AC000291760F431E0320F892F90E0821B9109E1
:100AD00097FD019695958795830F83832481928155
:100AE000921768F48FEF820F30E0291B310937FF2E
:100AF00002C02F5F3F4F35952795821B0DC02917E8
:100B000060F431E0320F892F90E0821B910997FD4C
:100B1000019695958795830F84838081813079F044
:100B200048F0823091F08330D1F419821A828FEF2D
:100B30008B830FC06FEFCF010E94E10210C0448190
:100B40006381CF010E9420040AC019828FEF8A833B
:100B50001B82BE016F5F7F4FCF010E943305609102
:100B6000680588E695E00E94891680915C03909163
:100B70005D030196883E23E0920729F090935D0380
:100B800080935C0319C010925D0310925C03009186
:100B9000690510916A0568E670E08BEB95E00E94AC
:100BA0006D224AE050E0B8018BEB95E00E944823AB
:100BB0008BEB95E00E9499220F900F900F90DF91A0
:100BC000CF911F910F910895DC018D919C91009719
:100BD00039F0DC01ED91FC910190F081E02D099458
:100BE0000895DC018D919C91009739F0DC01ED9125
:100BF000FC910280F381E02D09940895579A569A4A
:100C00000F960C94F105DC018D919C91009739F0C1
:100C1000DC01ED91FC910190F081E02D09940895A3
:100C2000DC018D919C91009739F0DC01ED91FC91F4
:100C30000280F381E02D09940895549A569A0F96F4
:100C40000C94100687FF02C05F9A01C05F985E9AFD
:100C50005E9886FF02C05F9A01C05F985E9A5E98B8
:100C600085FF02C05F9A01C05F985E9A5E9884FF1C
:100C700002C05F9A01C05F985E9A5E9883FF02C0CF
:100C80005F9A01C05F985E9A5E9882FF02C05F9A89
:100C900001C05F985E9A5E9881FF02C05F9A01C0B2
:100CA0005F985E9A5E9880FF02C05F9A01C05F986D
:100CB0005E9A5E98089580E00E94220680E00E947D
:100CC000220680E00E94220680E00C942206CF9348
:100CD000DF9397FD4F96EC0185E0D595C7958A95F2
:100CE000E1F78FEF0E94220680E00E94220680E05A
:100CF0000E94220680E00E942206219790F7DF9151
:100D0000CF91089587FF02C05C9A01C05C985E9AFB
:100D10005E9886FF02C05C9A01C05C985E9A5E98FD
:100D200085FF02C05C9A01C05C985E9A5E9884FF61
:100D300002C05C9A01C05C985E9A5E9883FF02C014
:100D40005C9A01C05C985E9A5E9882FF02C05C9AD1
:100D500001C05C985E9A5E9881FF02C05C9A01C0F7
:100D60005C985E9A5E9880FF02C05C9A01C05C98B5
:100D70005E9A5E98089580E00E94820680E00E945C
:100D8000820680E00E94820680E00C948206CF9367
:100D9000DF9397FD4F96EC0195E0D595C7959A9511
:100DA000E1F78FEF0E94820680E00E94820680E0D9
:100DB0000E94820680E00E948206219790F7DF91D0
:100DC000CF910895FF920F931F93CF93DF93EC0180
:100DD000809154038F5F982F97709093540380FDF8
:100DE00002C080E001C080E891FD8064947009F049
:100DF000806220E1F22EF80E20E030E000E011E009
:100E0000FE01E20FF31F6285662331F070E0C80136
:100E10000E94D5246F5F01C060E067834F2D469F1D
:100E2000412D11244483662311F0615067832F5FA5
:100E30003F4F2330310521F7DF91CF911F910F9163
:100E4000FF900895FC01613011F40C94E2061186C4
:100E5000108617821682158214820895AF92BF926F
:100E6000CF92DF92EF92FF920F931F93CF93DF9376
:100E7000CDB7DEB72F970FB6F894DEBF0FBECDBF4C
:100E80006C01CB018A01F901D6011C966C919A8301
:100E900089835C834B8380818B8781818C8782816E
:100EA0008D87CE0101960E9422071E86BFE0CB0EE1
:100EB000D11CC6010E9403060E94BB06E12CF12C46
:100EC000E016F1060CF04EC0E981FA81228122235E
:100ED00029F03F81230F08F42FEF01C020E03D856A
:100EE000239F212D11248FEF2F870E9482062F85AB
:100EF000822F0E948206E981FA812181222329F032
:100F00003E81230F08F42FEF01C020E03C85239F92
:100F1000212D1124A22EB12CBA2CAA242081222307
:100F200029F03D81230F08F42FEF01C020E03B851D
:100F3000239F212D1124A22A8B2D0E9482068A2D07
:100F40000E94820688859D81891B8D8389859E816B
:100F5000891B8E838A859F81891B8F838FEFE81A77
:100F6000F80AAECFC8010E94C706C6010E9410064B
:100F70002F960FB6F894DEBF0FBECDBFDF91CF9195
:100F80001F910F91FF90EF90DF90CF90BF90AF90A7
:100F90000895AF92BF92CF92DF92EF92FF920F939C
:100FA0001F93CF93DF93CDB7DEB72F970FB6F8948B
:100FB000DEBF0FBECDBF6C01CB018A01F901D601A6
:100FC0001C966C919A8389835C834B8380818B8789
:100FD00081818C8782818D87CE0101960E942207B4
:100FE0001E86BFE0CB0ED11CC6010E94E4050E9404
:100FF0005B06E12CF12CE016F1060CF04EC0E98105
:10100000FA812281222329F03F81230F08F42FEF58
:1010100001C020E03D85239F212D11248FEF2F87D4
:101020000E9422062F85822F0E942206E981FA81E2
:101030002181222329F03E81230F08F42FEF01C0E4
:1010400020E03C85239F212D1124A22EB12CBA2C07
:10105000AA242081222329F03D81230F08F42FEFB9
:1010600001C020E03B85239F212D1124A22A8B2D36
:101070000E9422068A2D0E94220688859D81891B56
:101080008D8389859E81891B8E838A859F81891B9B
:101090008F838FEFE81AF80AAECFC8010E94670667
:1010A000C6010E94F1052F960FB6F894DEBF0FBE61
:1010B000CDBFDF91CF911F910F91FF90EF90DF9007
:1010C000CF90BF90AF900895AF92BF92CF92DF9232
:1010D000EF92FF920F931F93CF93DF93CDB7DEB7BD
:1010E0002F970FB6F894DEBF0FBECDBF6C01CB01BA
:1010F0008A01F901D6011C966C919A8389835C83DD
:101100004B8380818B8781818C8782818D87CE0103
:1011100001960E94220783E08E87BFE0CB0ED11C90
:10112000C6010E94E4050E945B06E12CF12CE0164A
:10113000F1060CF05BC0E981FA812281222329F0BB
:101140003F81230F08F42FEF01C020E03D85239F4E
:10115000212D11248FEF2F870E9422062F85822FA9
:101160000E942206E981FA812181222329F03E8111
:10117000230F08F42FEF01C020E03C85239F212D91
:101180001124A22EB12CBA2CAA242081222329F0CA
:101190003D81230F08F42FEF01C020E03B85239F02
:1011A000212D1124A22A8B2D0E9422068A2D0E9415
:1011B00022068E8529813A81280F311D3A832983A1
:1011C0002B813C81215031093C832B8388859D8173
:1011D000891B8D8389859E81891B8E838A859F814A
:1011E000891B8F838FEFE81AF80AA1CFC8010E94EC
:1011F0006706C6010E94F1052F960FB6F894DEBF70
:101200000FBECDBFDF91CF911F910F91FF90EF9057
:10121000DF90CF90BF90AF900895AF92BF92CF92E2
:10122000DF92EF92FF920F931F93CF93DF93CDB78F
:10123000DEB72F970FB6F894DEBF0FBECDBF6C019F
:10124000CB018A01F901D6011C966C919A8389839E
:101250005C834B8380818B8781818C8782818D87A2
:10126000CE0101960E94220783E08E87BFE0CB0E5D
:10127000D11CC6010E9403060E94BB06E12CF12C82
:10128000E016F1060CF05BC0E981FA81228122238D
:1012900029F03F81230F08F42FEF01C020E03D85A6
:1012A000239F212D11248FEF2F870E9482062F85E7
:1012B000822F0E948206E981FA812181222329F06E
:1012C0003E81230F08F42FEF01C020E03C85239FCF
:1012D000212D1124A22EB12CBA2CAA242081222344
:1012E00029F03D81230F08F42FEF01C020E03B855A
:1012F000239F212D1124A22A8B2D0E9482068A2D44
:101300000E9482068E8529813A81280F311D3A83F9
:1013100029832B813C81215031093C832B83888593
:101320009D81891B8D8389859E81891B8E838A85FA
:101330009F81891B8F838FEFE81AF80AA1CFC8011C
:101340000E94C706C6010E9410062F960FB6F89499
:10135000DEBF0FBECDBFDF91CF911F910F91FF90E8
:10136000EF90DF90CF90BF90AF900895AF92BF9273
:10137000CF92DF92EF92FF920F931F9380917705A8
:1013800090917805019709F062C060910B0170910E
:101390000C0180910D0190910E01643F22E07207D3
:1013A0008105910520F063EF72E080E090E01F92EC
:1013B0001F921F922DE62F93A12CB12C650113EFE4
:1013C000E12E12E0F12E00E010E020E030E0A90173
:1013D0000E944B2480E993E00E94A50260910F01D6
:1013E000709110018091110190911201643F22E0EF
:1013F00072078105910520F063EF72E080E090E0D4
:101400001F921F921F9227E32F93A12CB12C6501ED
:1014100013EFE12E12E0F12E00E010E020E030E0CA
:10142000A9010E944B248DB79EB708960FB6F89479
:101430009EBF0FBE8DBF80E993E01F910F91FF907B
:10144000EF90DF90CF90BF90AF900C94C3021F91AC
:101450000F91FF90EF90DF90CF90BF90AF900895E5
:101460000F93CF93DF93CDB7DEB728970FB6F894DD
:10147000DEBF0FBECDBF26E040E052EC61E070E081
:101480008BEB95E00E9428210FE12BE54DE96FEFF2
:101490008FE695E00E946D1A48EE53E060E070E040
:1014A000CE0101960E94870BCE0101960E948D0B02
:1014B000811105C08FE695E00E944119F5CF69E7DB
:1014C00075E082E995E00E944B1B80E993E00E9461
:1014D0002F0228960FB6F894DEBF0FBECDBFDF9166
:1014E000CF910F9108958091790590917A05823777
:1014F000924088F080917B0590917C0582379240E4
:1015000050F081E020917D0530917E0522373240F8
:1015100018F080E0089581E008958091770590911A
:101520007805019799F58091EF0481110BC044EF84
:1015300051E060E070E087EE94E00E94870B81E06C
:101540008093EF040E94730A811104C087EE94E037
:101550000E94D30B87EE94E00E948D0B8823B1F09C
:1015600067EE70E08BEB95E00E946D228BEB95E0CF
:101570000E94992262E075E089EF94E00E94D918F8
:1015800040E061E080E993E00C94130208958F92AB
:101590009F92AF92BF92CF92DF92EF92FF92CF9342
:1015A000DF938FE695E00E944119882309F45FC01C
:1015B0008FE695E00E941F1A82E995E00E94AD1D1A
:1015C000C0900A018C2C912C81E0881A9108AA24E1
:1015D00097FCA094BA2CC0917005D0E0D12CE12CDE
:1015E000F12C60910B0170910C0180910D01909193
:1015F0000E01A50194010E94A524FE01EE0FFF1F1C
:10160000E256FA4F20813181620F731F811D911DB7
:10161000A70196010E94E92420930B0130930C014D
:1016200040930D0150930E0160910F0170911001D4
:101630008091110190911201A50194010E94A524AD
:10164000FE01EE0FFF1FEC55FA4F20813181620F32
:10165000731F811D911DA70196010E94E92420930B
:101660000F013093100140931101509312018091AA
:101670007705909178052091F7043091F80482174E
:10168000930709F1009719F440E062E010C082303E
:10169000910519F440E063E00AC0019761F468E045
:1016A00075E089EF94E00E94D91840E060E080E99D
:1016B00093E00E94130280917705909178059093B2
:1016C000F8048093F70489EF94E00E94051980E9FB
:1016D00093E0DF91CF91FF90EF90DF90CF90BF909C
:1016E000AF909F908F900C9446056DE87AE088E06B
:1016F00095E00E94AC1866EB79E082E095E00E94EC
:10170000AC1868E075E089EF94E00C94CD18FC010A
:10171000448355836683778308958F929F92AF9217
:10172000BF92CF92DF92EF92FF920F931F93CF93CE
:10173000DF93EC010E94C31E8C809D80AE80BF8031
:1017400081149104A104B10429F4688379838A8304
:101750009B8319C0088119812A813B816B017C011F
:10176000C01AD10AE20AF30AC814D904EA04FB0435
:1017700060F0B901A801480D591D6A1D7B1D488301
:1017800059836A837B8381E001C080E0DF91CF9140
:101790001F910F91FF90EF90DF90CF90BF90AF908F
:1017A0009F908F900895CF93DF93EC010E94C31E0A
:1017B000688379838A839B83DF91CF91089508950D
:1017C00080910E0590910F05DC01ED91FC91048450
:1017D000F585E02D0994CF93DF93EC0161E08A81D8
:1017E0000E94E61F89858CBD8A858DBD7894DF9126
:1017F000CF910895FC01F8948CB581878DB58287CF
:101800008CB5837F8CBD8CB58F7D8CBD8CB58C7F6A
:101810008CBD8DB58E7F8DBD60E082810C94E61FFE
:10182000F89420911805233021F4209114052111FA
:101830000FC020911805233011F4789407C0DC0103
:10184000ED91FC910288F389E02D099580E00895DF
:10185000DC01ED91FC910488F589E02D61E00995AA
:1018600081E008958EBD00000DB407FEFDCF8EB55A
:101870000895CF93DF931F92CDB7DEB7DC01ED91D2
:10188000FC910480F581E02D6983099569818823A5
:1018900059F080911605861711F06F3F29F4909149
:1018A000120581E0911101C080E00F90DF91CF918E
:1018B00008952F923F924F925F927F928F929F92C4
:1018C000AF92BF92CF92DF92EF92FF920F931F934E
:1018D000CF93DF93EC01962E5A01722E802E10E0EA
:1018E000CE2CD12CE12CF12CE881F9810190F081F2
:1018F000E02D01E0272DA501692DCE0109950E945B
:10190000C31E1B012C010E94C31E621973098409A6
:1019100095096C157D058E059F0540F4692DCE0156
:101920000E94390C882379F381E004C01F5F81167F
:10193000D8F680E0DF91CF911F910F91FF90EF904B
:10194000DF90CF90BF90AF909F908F907F905F90EF
:101950004F903F902F90089580911305882329F090
:101960009091150581E09F3F09F480E00895EF9282
:10197000FF921F93CF93DF931F92CDB7DEB77C0109
:10198000DC01ED91FC91008CF18DE02D69830995CE
:101990006981862F8F770E94320C80E00E94320C82
:1019A000182FD701ED91FC91028CF38DE02DC7012A
:1019B0000995812F0F90DF91CF911F91FF90EF90AC
:1019C00008950F931F93CF93DF9300D0CDB7DEB769
:1019D0008C01DC01ED91FC91008CF18DE02D4A83AE
:1019E000698309956981862F80680E94320C4A813B
:1019F000842F0E94320CD801ED91FC91028CF38D62
:101A0000E02DC8010F900F90DF91CF911F910F91A2
:101A100009941F93CF93DF93EC01162F8091180543
:101A2000681709F461C0623009F440C070F466239D
:101A300009F444C0613009F057C061E0CE010E9452
:101A4000B70C482F437E44603FC06330C1F0643020
:101A500009F04AC061E0CE010E94B70C482F437ED6
:101A60004C6061E0CE010E94E10C8885882381F101
:101A7000E881F9810688F789E02D61E014C061E012
:101A8000CE010E94B70C482F437E406161E0CE0139
:101A90000E94E10C88858823D9F0E881F9810688C5
:101AA000F789E02D60E0CE01099512C061E0CE011A
:101AB0000E94B70C482F437E486006C061E0CE010B
:101AC0000E94B70C482F437E61E0CE010E94E10CDA
:101AD00080911805811106C067E2CE010E94B70C03
:101AE00087FFF6CF10931805DF91CF911F910895CE
:101AF000CF93DF93EC01603208F06FE16F8388854C
:101B0000882311F066956F8361E1CE010E94B70CC6
:101B1000482F407E8F81482B61E1CE01DF91CF912C
:101B20000C94E10CCF92DF92EF92FF920F931F93F0
:101B3000CF93DF93EC01F62ED42EC52E122FE88121
:101B4000F9810488F589E02D61E0099567E2CE010D
:101B50000E94B70C87FFFACF40E065E2CE010E94F9
:101B6000E10C1E3308F01DE3E11004C0002319F05E
:101B700000E401C000E8E881F981008CF18DE02DDE
:101B8000CE01099580E80E94320C83E0810F0E940B
:101B9000320C8F2D0E94320C8D810E94320C802FCE
:101BA0000E94320C0D2DED2CFC2C8E2D801B8117EC
:101BB00030F4F70181917F010E94320CF6CFE88169
:101BC000F981028CF38DE02DCE010995E881F98130
:101BD0000488F589E02D64E0CE0109950E94C31EBA
:101BE0006B017C018B810E941C20892B81F0E88194
:101BF000F9810488F589E02D61E0CE01DF91CF9174
:101C00001F910F91FF90EF90DF90CF9009940E9469
:101C1000C31E6C197D098E099F09683E73408105BA
:101C2000910528F7DFCFCF93DF93EC0110921705D2
:101C300010921605109215051092140510921305B6
:101C400010921205109211051092100568E20E9480
:101C5000B70C82FF0AC06DE3CE010E94B70C482F7B
:101C600044606DE3CE010E94E10C40E465E2CE01E8
:101C70000E94E10CE881F9810488F589E02D63E098
:101C8000CE01DF91CF910994DF92EF92FF920F93F3
:101C90001F93CF93DF93EC018B01E881F9810488D6
:101CA000F589E02D61E0099501151105E1F0E88164
:101CB000F981008CF18DE02DCE0109958EEB0E940B
:101CC000320C7801D12CF70181917F010E94320CF6
:101CD000D394F0E1DF12F7CFE881F981028CF38D24
:101CE000E02DCE0109956DE3CE010E94B70C8E7FE9
:101CF00091E0012B09F490E0482F492B6DE3CE01D0
:101D0000DF91CF911F910F91FF90EF90DF900C9496
:101D1000E10C8F929F92AF92BF92DF92EF92FF926F
:101D20000F931F93CF93DF93CDB7DEB7AE970FB668
:101D3000F894DEBF0FBECDBF7C01D42E8EE28E01A3
:101D40000F5F1F4FD801E82F1D92EA95E9F791E048
:101D5000998334E03A8342E04B8393E09D834E8342
:101D60003F8340E4488735E039879A8796E09B8730
:101D700093E39C8737E03D8798E09F8799E0998BB4
:101D800099E19B8B92E49C8B55E25D8B4E8B46E2F6
:101D90004F8B388F38E2398F30E13A8F39E23B8F01
:101DA0003CED3C8F8D8F88E88E8F8FE28F8F8DE298
:101DB00088A380E389A337E33BA330E93CA338E35E
:101DC0003DA39EA39CE39FA39FE898A79DE399A7AB
:101DD00092E19AA79FE69BA78CA78FEF8DA76F3103
:101DE00031F06B3231F0663531F489ED05C08EE4A7
:101DF00003C08CE601C084EE8E876F3141F06B32F8
:101E000021F0663521F480E003C080E401C080EC5D
:101E1000888B2AA361E0D70112968C910E94E61F5D
:101E200061E0F70182810E94AD1F0E9490110E9423
:101E3000C31E4B015C014AEA6FE2C7010E94E10C3C
:101E40006FE2C7010E94B70C8A3A59F00E94C31E84
:101E5000681979098A099B09623371058105910521
:101E600050F30E94C31E4B015C0145E56FE2C701C0
:101E70000E94E10C6FE2C7010E94B70C853559F052
:101E80000E94C31E681979098A099B09623371058A
:101E90008105910550F3B12CF801EB0DF11DEB0D0F
:101EA000F11D60816F3F31F04181C7010E94E10C5B
:101EB000B394F2CF60E070E0C7010E94440ED701F6
:101EC000ED91FC9111970084F185E02D18966C91AD
:101ED000C7010995D701ED91FC910488F589E02DA2
:101EE00061E0C70109950E94C31E4B015C0167E2D6
:101EF000C7010E94B70C87FD0BC00E94C31E681962
:101F000079098A099B09623371058105910578F386
:101F10000E94C31E681979098A099B0962337105F9
:101F20008105910588F443E050E060EE7BE0F70125
:101F300084810E940B1EF0920F05E0920E05D701DE
:101F40001596DC9281E001C080E0AE960FB6F89461
:101F5000DEBF0FBECDBFDF91CF911F910F91FF90DC
:101F6000EF90DF90BF90AF909F908F900895CF93A8
:101F7000DF93EC0161110DC064E2CE010E94B70C49
:101F800090E091958195910995958795DF91CF91F5
:101F9000089541E063E20E94E10C63E2CE010E94F9
:101FA000B70C81FFFACFE8CFCF93DF93EC0180919C
:101FB00018058330A9F480911405811111C060E0E7
:101FC000CE010E94B70F863A9F4F54F4E881F98101
:101FD0000488F589E02D61E0CE01099581E001C01A
:101FE00080E0DF91CF910895FF920F931F93CF93DD
:101FF000DF93EC0180911805833001F568E2CE0192
:102000000E94B70C82FD28C019C0809117058D333E
:1020100030F4E0911705F0E0E75EFA4F1082E881B6
:10202000F981028CF38DE02DCE010995E881F981CB
:102030000488F589E02D63E0CE01099560E0CE01CA
:102040000E94B70F9093110580931005DF91CF91F7
:102050001F910F91FF900895E881F9810488F58917
:10206000E02D61E0CE010995E881F981008CF18DC8
:10207000E02DCE01099580E00E94320C80E00E94A4
:10208000320C80931405809114058334D0F4809130
:1020900014058093140580E00E94320C809315058E
:1020A0008E81811109C0909115058D81981721F0BD
:1020B000809115058F3F39F480911405833018F015
:1020C00017C082E4E6CF10921405E881F981028CF2
:1020D000F38DE02DCE010995E881F9810288F3891D
:1020E000E02DCE01DF91CF911F910F91FF900994C8
:1020F0008091140583508093170580E00E94320C74
:102100008093160580E00E94320C982F907890936F
:102110001205982F907490931305E881F981068435
:10212000F785E02D682FCE010995F12C80911705D8
:10213000F81608F06ACF0F2D10E080E00E94320CF4
:10214000F801E75EFA4F8083F394F0CF4F925F92ED
:102150006F927F929F92AF92BF92EF920F931F93D5
:10216000CF93DF93EC01162F5A01922E6DE30E945C
:10217000B70C482F44606DE3CE010E94E10C0E9431
:10218000C31E2B013C01CE010E94D40F8823C1F055
:10219000E881F9810088F189E02DE12C292DA50144
:1021A000612FCE010995DF91CF911F910F91EF9093
:1021B000BF90AF909F907F906F905F904F900895E9
:1021C0000E94C31E6419750986099709683E734009
:1021D00081059105E8F6E881F9810480F581E02D1B
:1021E000CE010995D0CF4F925F926F927F929F92CE
:1021F000AF92BF92CF92DF92EF92FF920F93CF9365
:10220000DF93EC015B01942E10921305F0901605FC
:10221000C0901005D09011056DE30E94B70C482FB7
:1022200044606DE3CE010E94E10C0E94C31E2B01AD
:102230003C01CE010E94D40F882311F1F0921605C3
:10224000E881F9810088F189E02DEE24E39400E033
:10225000292DA5016F2DCE010995D0921105C092AF
:102260001005DF91CF910F91FF90EF90DF90CF900D
:10227000BF90AF909F907F906F905F904F90089528
:102280000E94C31E6419750986099709683E734048
:102290008105910598F6E881F9810480F581E02DAA
:1022A000CE010995C6CFCF93DF93EC0168876623F3
:1022B00011F04FE001C04AE163E1CE010E94E10C60
:1022C0008885882341F061E1CE010E94B70C482F38
:1022D0004F71406602C04F81406861E1CE01DF91DD
:1022E000CF910C94E10C1F93CF93DF93EC01162F49
:1022F000662311F04DE501C045E56AE5CE010E9477
:10230000E10C112311F04CE701C040E76CE5CE0170
:10231000DF91CF911F910C94E10CFC01668308952D
:10232000CF93CFB7F89480915905811127C0E5E884
:10233000F2E08491E1E7F2E09491E82FF0E0EE0F13
:10234000FF1FED55FD4FA591B4918C91892321F488
:1023500061E08AE00E94E61F61E08AE00E94AD1F12
:102360008CB580618CBD8CB580648CBD61E08DE0E6
:102370000E94AD1F61E08BE00E94AD1F8091590566
:102380008F5F80935905CFBFCF910895FC0180E501
:10239000858316826083528341830895FC018CB546
:1023A00083838DB584833581268180915805882368
:1023B00099F09FB7F89480915805813059F48DB306
:1023C000809356054DB380915705809584238DBB2E
:1023D0009FBF02C0909356053CBD2DBD60E080813B
:1023E0000C94E61FCF93DF93EC0161E088810E949B
:1023F000E61F80915805882361F09FB7F8942091DB
:10240000580580915605213019F48DBB9FBF01C03E
:102410008FBF8B818CBD8C818DBDDF91CF91089555
:102420001F93CF93DF93EC010E94CE1185E00E94B1
:10243000320C80E00E94320C182FCE010E94F21163
:10244000812FDF91CF911F9108950E94101281700A
:1024500008951F93CF93DF93EC01162F442339F097
:1024600040E066E00E942912CE010E94F211CE01E6
:102470000E9425128111FBCFCE010E94CE11812F27
:10248000DF91CF911F910C94320CEF92FF920F933A
:102490001F93CF93DF9300D0CDB7DEB77C01142F0D
:1024A000062F41E062E02A8359830E942912802F7F
:1024B0000E94320C5981852F0E94320C812F0E947C
:1024C000320C2A81822F0E94320CC7010F900F908C
:1024D000DF91CF911F910F91FF90EF900C94F2112B
:1024E0002F923F924F925F926F927F928F929F9224
:1024F000AF92BF92CF92DF92EF92FF920F931F9312
:10250000CF93DF936C012A013B015901CA0199273E
:10251000C0E0D1E0C81BD90BE12CF12C011511054D
:1025200079F10C171D0708F4E80141E062E0C601EB
:102530000E942912862D0E94320C852D0E94320C99
:10254000842D0E94320C15012E0C3F1C4101F40118
:1025500081914F010E94320CC401821993098C179A
:102560009D07A8F3C6010E94F2114C0E5D1E611C6E
:10257000711CEC0EFD1E0C1B1D0BC0E0D1E0CECF7C
:10258000DF91CF911F910F91FF90EF90DF90CF904F
:10259000BF90AF909F908F907F906F905F904F9083
:1025A0003F902F900895EF92FF920F931F93CF9338
:1025B000DF931F92CDB7DEB77C01142F062F41E0C9
:1025C00062E559830E942912802F0E94320C5981A2
:1025D000852F0E94320C812F0E94320CC7010F9070
:1025E000DF91CF911F910F91FF90EF900C94F2111A
:1025F000FC01DB0187E691E09183808312968C9148
:102600001297828313968C911397838314968C91DF
:102610001497848315968C911597858316968C91C3
:102620001697868317968C911797878318968C91A7
:102630001897808719968C91199781871A968C9193
:1026400082870895CF92DF92FF920F931F93CF93CB
:10265000DF93CDB7DEB70DB71EB7262F30E0220FC0
:10266000331FA9014F5F5F4FEDB7FEB7E41BF50BBA
:102670000FB6F894FEBF0FBEEDBF4DB75EB74F5F0C
:102680005F4FDA01F82E6C018C2D8F198617C8F474
:10269000C601F601708172957F7070637A3308F01D
:1026A000795D7C93FFEFCF1ADF0AFC0180818F7088
:1026B00080638A3308F0895D11968C931197129686
:1026C000E3CFFA01E20FF31F1082BA018BEB95E022
:1026D0000E949D220FB6F8941EBF0FBE0DBFDF9162
:1026E000CF911F910F91FF90DF90CF9008952F927F
:1026F0003F924F925F926F927F928F929F92AF9292
:10270000BF92CF92DF92EF92FF920F931F93CF93DE
:10271000DF93CDB7DEB76C970FB6F894DEBF0FBE70
:10272000CDBF4C016B8FE98AFA8A0B8B1C8B2D8BEA
:102730003E8B4F8BAA8E46E069E972E00E94F3104F
:10274000CC2031F067EA71E08BEB95E00E949D228E
:1027500040E050E0BA01CE0141960E94D31207E05A
:1027600010E029EB31E040E050E0BA01CE014196A3
:102770000E9470122AE349E050E060E070E0CE0170
:1027800041960E9445120E94C31E1B012C015AE073
:10279000E52EF12CA12CB12C9E012F5F3F4F398FDC
:1027A000288FC4010E94100C882301F18091160526
:1027B0003B8D83131BC0D0901705B3E0BD1520F4EB
:1027C000809119058634F9F061E08A8D0E94AD1F71
:1027D00061E08A8D0E94E61F61E070E080E090E099
:1027E0000E94F21E60E08A8D0E94E61F0E94C31EB6
:1027F0006219730984099509693B7B40810591053C
:1028000080F280E022C180911A058C34E9F6809133
:102810001B058835C9F680911C058A3309F0AAC0CA
:1028200046E04D1508F0A6C084E090E000E010E01E
:10283000782E2FEF280FFC01E75EFA4F30813033FE
:10284000A0F030813A3388F42081AAE0A801A49F47
:102850008001A59F100D112400531109020F111DB5
:1028600001968830910521F707C030813A33C1F7CE
:1028700054E0751631F2722ECC20C1F061EC71E09B
:102880008BEB95E00E9490224AE050E06D2D8BEB9F
:1028900095E00E945D2369EC71E08BEB95E00E946E
:1028A00090226D2D89E195E00E942213E1E0E70D71
:1028B000F0E0E75EFA4F80818A3309F0A2CF0E94F0
:1028C000C31E1B012C010A151B0539F0C501019718
:1028D0000817190709F04EC029C032E0370D58011A
:1028E0008FEFA81AB80A3D1508F5E32FF0E0E75E70
:1028F000FA4F208137019FEF691A790AA70160E03A
:1029000070E0CE0141963C8F0E944512C3019F7733
:102910003C8D892B41F4A30160E070E0CE0141962B
:102920000E94D3123C8D3F5F7301DDCF1F930F9345
:10293000AEECB1E0BF93AF93398D3F93488D4F9389
:102940000E944F25482F0F900F900F900F900F90DF
:102950000F90CC2049F0BE016F5F7F4F8BEB95E06D
:102960004C8F0E949D224C8DBE016F5F7F4FC40132
:102970000E94F31080911C058F3309F025CF54E09D
:10298000D51210C046E069E972E0C4010E94F3105C
:10299000CC2009F419CF68ED71E08BEB95E00E9433
:1029A0009D2212CF87E0D8120FCF80911D0585346C
:1029B00009F00ACF80911E058F3409F005CF809170
:1029C0001F05863409F000CF87010A501109013034
:1029D000BCE71B0778F0CC2031F066EE71E08BEBA2
:1029E00095E00E949D2247E063E072E0C4010E94EE
:1029F000F31007CF46E069E972E0C4010E94F310CA
:102A0000CC2031F069E972E08BEB95E00E949D22C9
:102A1000212F47E050E060E070E0CE0141960E9437
:102A2000451226EF2E0D48E050E060E070E0CE0148
:102A300041960E9445122AE349E050E060E070E0D0
:102A4000CE0141960E94451281E06C960FB6F89433
:102A5000DEBF0FBECDBFDF91CF911F910F91FF90D1
:102A6000EF90DF90CF90BF90AF909F908F907F902E
:102A70006F905F904F903F902F900895C82F8823BC
:102A800031F06BED72E08BEB95E00E94902288E0D4
:102A900028E130E00FB6F894A895209360000FBEAF
:102AA00080936000CC2331F06EE28BEB95E00E94C6
:102AB0009222FACFFFCFAF92BF92CF92DF92EF92E6
:102AC000FF920F931F93CF93DF93CDB7DEB762973B
:102AD0000FB6F894DEBF0FBECDBF0C871D872E87C3
:102AE0003F87488B598B6A8BDE2C20911705243049
:102AF00008F45CC020911905263409F057C02091D4
:102B00001A052C3409F052C020911B05283509F014
:102B10004DC020911C052F3309F048C0B090160518
:102B2000209117052730A1F420911D05253481F44B
:102B300020911E052F3461F420911F05263441F4A5
:102B400000E026E049E952E06B2D0E94A6102EC05D
:102B5000BC01CE0101960E94F812AC2CCD2CEC8465
:102B6000FD840E851F85288939894A896B2DCE0100
:102B700001960E947713882359F0DD2031F065EE2D
:102B800072E08BEB95E00E9490228D2D0E943E1505
:102B9000DD2061F066E073E08BEB95E00E9490220F
:102BA0006FE273E08BEB95E00E949D2262960FB678
:102BB000F894DEBF0FBECDBFDF91CF911F910F9173
:102BC000FF90EF90DF90CF90BF90AF9008958F92DD
:102BD0009F92AF92BF92EF92FF920F931F93CF936A
:102BE000DF93EC01188219821A824423B9F1E0E0E4
:102BF000F0E08B010A5F1F4F7B0189E0E80EF11CBA
:102C0000842E912CA12CB12CD801AE0FBF1F2C917A
:102C1000D701AE0FBF1F6C912223E1F06623D1F0E4
:102C200030E040E050E02F5F3F4F4F4F5F4F70E08C
:102C300080E090E06F5F7F4F8F4F9F4F0E94A524F1
:102C40009B01AC01C501B4010E94A524DE01AE0FB9
:102C5000BF1F8C933196E330F105B1F6CE01DF91C1
:102C6000CF911F910F91FF90EF90BF90AF909F90E9
:102C70008F900895CF92DF92EF92FF92CF93DF93E0
:102C8000EC0180915E0590915F059C012F5F3F4FA5
:102C900030935F0520935E05861797079CF10E948D
:102CA000C31E9B01AC01E0915E05F0915F0588EECB
:102CB00093E0E89FB001E99F700DF89F700D11241B
:102CC000882777FD8095982FC0905A05D0905B0596
:102CD000E0905C05F0905D052C193D094E095F09F7
:102CE0000E94E9243A83298310925F0510925E05C1
:102CF0000E94C31E60935A0570935B0580935C0528
:102D000090935D05DF91CF91FF90EF90DF90CF9092
:102D10000895AF92BF92CF92DF92EF92FF920F93FE
:102D20001F93CF93DF9300D01F92CDB7DEB78C01F6
:102D3000B62EF80183819481A581B681892B8A2BD7
:102D40008B2BD1F00E94CF1EC0906005D090610502
:102D5000E0906205F09063056C197D098E099F096A
:102D6000D8011396CD90DD90ED90FC9016976C15E0
:102D70007D058E059F05E8F20E94CF1E60936005D9
:102D8000709361058093620590936305E0906605FA
:102D9000F0906705E114F10451F1F701A484D80122
:102DA00011968D919C9112978436910508F41486A2
:102DB000D701ED91FC91C280D3804B2DB701CE019C
:102DC00001960E94E715F70145855685628173815A
:102DD0009E012F5F3F4FC701F6010995D7011C9651
:102DE000AC921C971496ED90FC901597D3CF69E1A7
:102DF00070E0C8010E943A160F900F900F90DF917B
:102E0000CF911F910F91FF90EF90DF90CF90BF90E7
:102E1000AF900895CF92DF92EF92FF920F931F939E
:102E2000CF93DF93EC014423F1F06115710581F13B
:102E30009B0140E050E060E472E48FE090E00E948B
:102E40000B25CB80DC80ED80FE8089019A010C157A
:102E50001D052E053F0510F4970186010B831C8389
:102E60002D833E8315C06115710571F09B0140E013
:102E700050E060E472E48FE090E00E940B252B8329
:102E80003C834D835E8304C01B821C821D821E8294
:102E9000DF91CF911F910F91FF90EF90DF90CF9036
:102EA0000895CF92DF92EF92FF920F931F93CF93EB
:102EB000DF93EC016B018A017901121613061CF0F5
:102EC0007A0100E010E0E881F9810480F581E02DCD
:102ED000CE010995C801880F991F800F911F8C0D95
:102EE0009D1D9B838A83FE86ED86E881F98100849F
:102EF000F185E02DCE01099541E0BC0188E695E021
:102F00000E940A17CE01DF91CF911F910F91FF9080
:102F1000EF90DF90CF9008958FEF80936805109227
:102F20006A0510926905089511240895CF93DF93DF
:102F3000EC012881269F212D28832981269F212D80
:102F400029832A81269F212D2A830E949417CE014E
:102F5000DF91CF910895FA0120E030E00396261723
:102F600037076CF44081DC0113974C934181119633
:102F70004C93428111964C932F5F3F4FEFCF0895B2
:102F8000CF92DF92EF92FF920F931F93CF93DF9335
:102F90001F92CDB7DEB77B018C01C12CD12CCE1492
:102FA000DF0461F0642FC80149830E9496178FEFF8
:102FB000C81AD80A0D5F1F4F4981F1CF0F90DF91DA
:102FC000CF911F910F91FF90EF90DF90CF900895D8
:102FD00040950C94C017FC012081222321F0269FEC
:102FE000212D09F02F5FFC0120830895FF920F939C
:102FF0001F93CF93DF9300D000D0CDB7DEB7FC0195
:103000008B014081F1805281842F8F71880F880F4E
:10301000880F282F35E5239F212D1124342F30745C
:10302000942F907247FD25C031110EC0911106C03A
:10303000822F80958B832A8319823FC08BEA8B83F2
:103040002B5A2A83198239C091110DC0382F4AEAB0
:10305000349F312D11249BEA931B9B8325552A8392
:10306000198280E02AC01B8280E0822F80958A83AB
:1030700012C0311112C091110BC01B82282F3AEAE5
:10308000239F212D11248BEA821B8A832B5A03C094
:103090002B831A822095298310C0911106C085E5E3
:1030A000820F8B831A828BEA06C08BEA820F8B8396
:1030B0001A8280E085E5821B89832FEFF21601F1E9
:1030C0006F2DCE0103965C830E94EB176F2DCE010E
:1030D00002960E94EB176F2DCE0101960E94EB170E
:1030E00011246F2D6095669F612D11248B81860FB1
:1030F0008B838A81860F8A838981860F89835C818D
:103100005F3FC9F0F12C2F2D552321F0559F212D24
:1031100009F02F5FF22E622FCE0103960E94EB176B
:103120006F2DCE0102960E94EB176F2DCE010196F6
:103130000E94EB1711248B81F80180838A8181839F
:10314000898182830F900F900F900F90DF91CF9124
:103150001F910F91FF900895FC01118210827383DB
:103160006283158214820895DC01ED91FC91309701
:1031700009F009940895DC011296ED91FC911397E2
:10318000309709F009940895DC011496ED91FC91B3
:103190001597309709F009940895FC0181E0808328
:1031A000748363837283618315821682178210860B
:1031B0000895CF93DF93EC017C836B830E94C31E41
:1031C0006D837E838F839887CE01DF91CF910895A1
:1031D0000F931F93CF93DF93EC018B0189819A8129
:1031E0000E94C4181C830B831A830983C8010E94A0
:1031F000B4180E94C31E6D837E838F839887CE018F
:10320000DF91CF911F910F910895CF93DF93EC0140
:10321000288189819A81222321F00E94B418188282
:103220000CC06B817C818617970719F0CE010E9434
:10323000E81889819A810E94BB18CE01DF91CF9155
:103240000895EF92FF920F931F93CF93DF931F92F6
:10325000CDB7DEB77C01FC0100811181C801698313
:103260000E9443276981681719F0C8010E944B2703
:10327000C7010F90DF91CF911F910F91FF90EF90B9
:1032800008958F929F92AF92BF92CF92EF920F9339
:103290001F93CF93DF93CDB7DEB72B970FB6F8947C
:1032A000DEBF0FBECDBF5C014C0181E1880E911CD9
:1032B000C4010E94100C882309F4AFC08091160548
:1032C0008E3F39F490911505F5018081981709F426
:1032D00064C080911705843019F58091190590918B
:1032E0001A05A0911B05B0911C05F50184839583F7
:1032F000A683B783809115058383909116059283E9
:103300009081891381C0C4010E94AC0C882309F408
:103310007BC040E066E473E0C4010E94F31074C017
:10332000809117058230F9F48091190590911A0562
:10333000F50191878087809115058383909116050B
:1033400092839081891305C0C4010E94AC0C811145
:103350005DC0F50180859185039709F055C081E036
:103360000E943E1551C0809116058E3F09F055C050
:10337000809117058D3008F450C06EEF70E08BEB34
:1033800095E00E946D228BEB95E00E94992282E0ED
:1033900090E0F5019187808740C06BE171E08BEB95
:1033A00095E00E946D228BEB95E00E94992287E6C2
:1033B00091E09A838983F50183898B8384898C8347
:1033C00085898D8386898E8387898F83808D888781
:1033D000818D8987828D8A87838D8B8789E0C82E2E
:1033E000E12C00918B0510918C0520918D05309179
:1033F0008E0540918F055091900560919105CE0109
:1034000001960E945B1565CF81E008C040E066E44C
:1034100073E0C4010E94F3109CCF80E02B960FB69E
:10342000F894DEBF0FBECDBFDF91CF911F910F91FA
:10343000EF90CF90BF90AF909F908F9008950F9393
:103440001F93FC014481558166817781842F8370AD
:10345000808B8A019B0192E03695279517950795F9
:103460009A95D1F71370138702878A019B01ACE00C
:103470003695279517950795AA95D1F71370158757
:103480000487B6E17695679557954795BA95D1F734
:10349000578746871F910F91089540E35FEE68E0DC
:1034A0008BE895E00E94C61187E691E09093810534
:1034B000809380058AE08093820582E08093830573
:1034C0001092840581E080931805109286058FE1A3
:1034D000809387051092880508959F92AF92BF92BE
:1034E000CF92DF92EF92FF920F931F93CF93DF93D0
:1034F00000D0CDB7DEB77C01162F942EA22E9AE213
:10350000C92ED12C63E072E08BEB95E00E946D2216
:103510008BEB95E00E9499221F3FC9F48AE290E06C
:103520000E944327B82EF701808361EE71E08BEB98
:1035300095E00E946D224AE050E06B2D8BEB95E008
:103540000E945D238BEB95E00E9499221AC06DEBDF
:1035500071E08BEB95E00E946D224AE050E0612F14
:103560008BEB95E00E945D238BEB95E00E94992206
:10357000DA82C982612FCE0101960E942119F701DA
:103580001083F70140814F3F41F563E971E08BEB18
:1035900095E00E946D228BEB95E00E9499226EE6E9
:1035A00071E08BEB95E00E946D228BEB95E00E9421
:1035B00099228BEB95E00E944520892BD1F341E0C5
:1035C00060E070E08BEB95E00E94DB23DA82C98239
:1035D000CE0101960E94211995CF6701F1E1CF0E2E
:1035E000D11C292D6A2DC6010E94890E61E0C601F9
:1035F0000E94531161E0C6010E948D11602FC60127
:103600000E94780D8FEF93E0F70197878687958763
:1036100084879387828780816AE00E94B5249183A2
:1036200061E089E00E94AD1F60E089E00E94E61F32
:1036300081E090E0F70191878087118100816BE341
:1036400071E08BEB95E00E946D224AE050E0602F24
:103650008BEB95E00E945D2364E671E08BEB95E0D7
:103660000E946D224AE050E0612F8BEB95E00E94B2
:103670005D238BEB95E00E9499220F900F90DF91D4
:10368000CF911F910F91FF90EF90DF90CF90BF905F
:10369000AF909F9008950F931F93CF93DF93EC010A
:1036A0008B0160E472E08BEB95E00E946D221F8F2E
:1036B0000E8FF801008111816BE372E08BEB95E0D6
:1036C0000E946D224AE050E0B8018BEB95E00E9429
:1036D0006423EE8DFF8D0281138166E372E08BEB34
:1036E00095E00E946D224AE050E0B8018BEB95E036
:1036F0000E946423EE8DFF8DC481D58161E372E069
:103700008BEB95E00E946D224AE050E0BE018BEB0E
:1037100095E00E9464238BEB95E00E94992265E17D
:1037200072E08BEB95E00E946D228BEB95E0DF91D0
:10373000CF911F910F910C949922CF92DF92EF922B
:10374000FF920F931F93CF93DF93FC018EE8C82E57
:1037500082E0D82E93E0E92EF12CC681D781208516
:103760003185A6014C1B5D0B421B530B0285138553
:10377000CA01801B910B79F1BC016E5F7F4F6530F0
:103780007105C8F4C217D30740F4C017D10728F455
:10379000C80FD91FD783C6831EC02C173D0740F41E
:1037A0002017310728F4280F391F3187208713C0CD
:1037B0005387428710C0B7010E94D524C60FD71F78
:1037C000D783C683260F371F31872087060F171F21
:1037D00013870287C2CFDF91CF911F910F91FF9086
:1037E000EF90DF90CF900895CF92DF92EF92FF920B
:1037F0000F931F9300E010E020E030E440175107E2
:103800006207730740F4A2E0369527951795079550
:10381000AA95D1F7F3CF80E090E0DC010115110506
:103820002105310509F168017901C80ED91EEA1E8A
:10383000FB1E4C155D056E057F0550F04C195D09AA
:103840006E097F09D701C601800F911FA21FB31F08
:10385000B695A79597958795F2E036952795179594
:103860000795FA95D1F7DACF84179507A607B7071A
:1038700018F40196A11DB11D1F910F91FF90EF90BB
:10388000DF90CF900895CF92DF92EF92FF92CF9387
:10389000DF93D82FC92FE82FF92FE60FF11DE60F80
:1038A000F11D84859585A081B181468157818A1754
:1038B0009B0728F09C012A1B3B0BD90103C0A81BC6
:1038C000B90B9D010E942A256B017C019A01DA0146
:1038D0000E942A25C60ED71EE81EF91EB701A601B2
:1038E0008D2F9C2FDF91CF91FF90EF90DF90CF90A5
:1038F0000C94F41B262F862F6AE00E94B524822F99
:10390000891B292F30E0280F311D223031051CF48E
:1039100081E0890F089580E00895CF92DF92EF92C1
:10392000FF92CF93DF93EC01F62E0E947A1C2E8D2E
:103930009F8DE22FF92FE80FF11DE80FF11DA081F7
:10394000B181FE01EF0DF11DEF0DF11D4681578193
:10395000A417B507C0F09D010E942A256B017C01C8
:103960009A01DA010E942A25C61AD70AE80AF90A3A
:10397000B701A601CE01DF91CF91FF90EF90DF90CC
:10398000CF900C94F41B80E090E0DF91CF91FF90FA
:10399000EF90DF90CF900895262F862F6AE00E9447
:1039A000B524822F891B292F30E0280F311D232BAE
:1039B00019F08FEF890F089582E00895EF92FF923A
:1039C0000F931F93CF93DF93EC01E62E0E8D1F8D87
:1039D0000E947A1CF82E6E2DCE010E94CC1CD801BC
:1039E000AF0DB11DAF0DB11DF801E80FF11DE80FCE
:1039F000F11D8D919C9120813181820F931F8D50FB
:103A00009D4F96958795DF91CF911F910F91FF90D4
:103A1000EF900895AF92BF92CF92DF92EF92FF9214
:103A20000F931F93CF93DF93EC01F62EDE8CEF8C78
:103A30000E947A1CED2DFE2DE80FF11DE80FF11DFF
:103A4000008111816F2DCE010E94CC1CED2DFE2D29
:103A5000E80FF11DE80FF11DA080B180C501800FB6
:103A6000911F833F9240D0F16F2DCE010E94DE1C4A
:103A70006C01E12CF12CA7019601201B310B4109AF
:103A80005109C701B6010E94A524AB01BC01CE01BA
:103A90000E94F41B8C01A70196012A193B094109D8
:103AA0005109C701B601635F7240810991090E9403
:103AB000A524AB01BC01CE010E94F41B9801DC01DE
:103AC0000E942A25660F771F881F991F23EF32E077
:103AD00040E050E00E94E924C90102C080E090E08B
:103AE000DF91CF911F910F91FF90EF90DF90CF90DA
:103AF000BF90AF900895FF920F931F93CF93DF93E2
:103B00008C01F62E0E94CC1CF801E80FF11DE80F85
:103B1000F11DC681D7816F2DC8010E947A1C482FE4
:103B20009E01A3EFB2E00E942A25F801E40FF11DE7
:103B3000E40FF11D0680F781E02D9E0140E050E08A
:103B40002E0F3F1F411D511D0E94E924C901DF9125
:103B5000CF911F910F91FF900895CF92DF92EF9236
:103B6000FF921F93CF93DF937C01C82FDF2D10E0CE
:103B7000612FC7010E940A1D9F838E831F5F2296BB
:103B80001330B1F7C7010E949D1BCE2DDF2D10E031
:103B9000612FC7010E948D1C899399931F5F133079
:103BA000B9F7CE2DDF2D10E0612FC7010E947B1DDC
:103BB0009D878C871F5F22961330B1F7CE2DDF2DA6
:103BC00010E0612FC7010E94431C9B8B8A8B1F5FF3
:103BD00022961330B1F7E70183EFC82E82E0D82E8A
:103BE000E12CF12C2E813F81AFEFBFEF0E942A25FF
:103BF000A70196010E94E924398F288F115022963F
:103C00001111F0CFDF91CF911F91FF90EF90DF90D6
:103C1000CF90089508958230E8F4E82FF0E0EE0F99
:103C2000FF1FEB5EFE4F71836083813041F0809116
:103C300069008C7F842B80936900E89A08958091B5
:103C40006900440F551F440F551F837F842B8093B9
:103C50006900E99A08951F920F920FB60F921124EE
:103C60002F933F934F935F936F937F938F939F9384
:103C7000AF93BF93EF93FF93E0911501F09116017D
:103C80000995FF91EF91BF91AF919F918F917F9196
:103C90006F915F914F913F912F910F900FBE0F90B9
:103CA0001F9018951F920F920FB60F9211242F9309
:103CB0003F934F935F936F937F938F939F93AF93B4
:103CC000BF93EF93FF93E0911701F09118010995CD
:103CD000FF91EF91BF91AF919F918F917F916F91E4
:103CE0005F914F913F912F910F900FBE0F901F90BA
:103CF00018951F920F920FB60F9211242F933F9396
:103D00008F939F93AF93BF938091B3059091B40528
:103D1000A091B505B091B6053091B20523E0230F0F
:103D20002D3720F40196A11DB11D05C026E8230FF3
:103D30000296A11DB11D2093B2058093B305909307
:103D4000B405A093B505B093B6058091B7059091E1
:103D5000B805A091B905B091BA050196A11DB11D94
:103D60008093B7059093B805A093B905B093BA05B1
:103D7000BF91AF919F918F913F912F910F900FBE67
:103D80000F901F9018952FB7F8946091B30570911C
:103D9000B4058091B5059091B6052FBF08953FB742
:103DA000F8948091B7059091B805A091B905B091AC
:103DB000BA0526B5A89B05C02F3F19F00196A11D95
:103DC000B11D3FBF6627782F892F9A2F620F711D73
:103DD000811D911D42E0660F771F881F991F4A952C
:103DE000D1F708958F929F92AF92BF92CF92DF92B8
:103DF000EF92FF926B017C010E94CF1E4B015C0190
:103E0000C114D104E104F104F1F00E94A4240E9441
:103E1000CF1E681979098A099B09683E734081059C
:103E2000910570F321E0C21AD108E108F10888EE8B
:103E3000880E83E0981EA11CB11CC114D104E104BA
:103E4000F10429F7DDCFFF90EF90DF90CF90BF9086
:103E5000AF909F908F900895789484B5826084BDD0
:103E600084B5816084BD85B5826085BD85B581607E
:103E700085BDEEE6F0E0808181608083E1E8F0E0DE
:103E80001082808182608083808181608083E0E80D
:103E9000F0E0808181608083E1EBF0E080818460EC
:103EA0008083E0EBF0E0808181608083EAE7F0E0EE
:103EB0008081846080838081826080838081816052
:103EC00080838081806880831092C10008958E3045
:103ED00008F08E5087702091190190E4299F90017D
:103EE0001124822B80937C0080917A0080648093DF
:103EF0007A0080917A0086FDFCCF80917800209135
:103F0000790090E0922B0895833081F028F481307D
:103F100099F08230A1F008958730A9F08830B9F087
:103F20008430D1F4809180008F7D03C08091800027
:103F30008F7780938000089584B58F7702C084B511
:103F40008F7D84BD08958091B0008F7703C08091EC
:103F5000B0008F7D8093B0000895CF93DF9390E001
:103F6000FC01E959FD4F2491FC01E558FD4F849176
:103F7000882349F190E0880F991FFC01ED55FD4F12
:103F8000A591B49187569D4FFC01C591D4919FB7DF
:103F9000611108C0F8948C91209582238C938881BC
:103FA00082230AC0623051F4F8948C91322F3095FC
:103FB00083238C938881822B888304C0F8948C910E
:103FC000822B8C939FBFDF91CF9108950F931F9306
:103FD000CF93DF931F92CDB7DEB7282F30E0F901E2
:103FE000ED5AFD4F8491F901E959FD4F1491F90102
:103FF000E558FD4F04910023C9F0882321F069831F
:104000000E94841F6981E02FF0E0EE0FFF1FE7564A
:10401000FD4FA591B4919FB7F8948C91611103C0A5
:104020001095812301C0812B8C939FBF0F90DF914E
:10403000CF911F910F910895CF93DF93282F30E0F8
:10404000F901ED5AFD4F8491F901E959FD4FD491E1
:10405000F901E558FD4FC491CC2391F081110E94E4
:10406000841FEC2FF0E0EE0FFF1FE157FD4FA591ED
:10407000B4912C912D2381E090E021F480E002C0E6
:1040800080E090E0DF91CF910895FC01818D228D39
:1040900090E0805C9F4F821B91098F739927089550
:1040A000FC01918D828D981731F0828DE80FF11D02
:1040B000858D90E008958FEF9FEF0895FC01918D1D
:1040C000828D981761F0828DDF01A80FB11D5D967A
:1040D0008C91928D9F5F9F73928F90E008958FEFE8
:1040E0009FEF089582EE91E2892B49F080E090E005
:1040F000892B29F00E94E22181110C94000008957F
:10410000FC01848DDF01A80FB11DA35ABF4F2C9174
:10411000848D90E001968F739927848FA689B78943
:104120002C93A089B1898C9180648C93938D848D1C
:10413000981306C00288F389E02D80818F7D8083EB
:104140000895CF93DF93EC01888D8823C9F0EA8925
:10415000FB89808185FD05C0A889B9898C9186FD80
:104160000FC00FB607FCF5CF808185FFF2CFA8897D
:10417000B9898C9185FFEDCFCE010E948020E7CFD9
:10418000DF91CF910895CF92DF92FF920F931F930B
:10419000CF93DF931F92CDB7DEB76C0181E0D601DC
:1041A00058968C9358975B969C915B975C968C91F4
:1041B0005C97981307C05096ED91FC9151978081C0
:1041C00085FD2EC0F601038D10E00F5F1F4F0F73AA
:1041D0001127F02EF601848DF81211C00FB607FCDE
:1041E000F9CFD6015096ED91FC915197808185FFD2
:1041F000F1CFC60169830E9480206981EBCF838D56
:10420000E80FF11DE35AFF4F6083D6015B960C93D4
:104210005B975296ED91FC915397808180620CC020
:10422000D6015696ED91FC91579760835096ED918B
:10423000FC91519780818064808381E090E00F90B1
:10424000DF91CF911F910F91FF90DF90CF90089554
:10425000BF92CF92DF92EF92FF92CF93DF93EC0168
:104260006A017B01B22EE889F98982E080834115D9
:1042700081EE580761057105A1F060E079E08DE3FA
:1042800090E0A70196010E94E924215031094109DB
:1042900051095695479537952795211580E138079F
:1042A00098F0E889F989108260E874E88EE190E07E
:1042B000A70196010E94E9242150310941095109C1
:1042C0005695479537952795EC85FD853083EE8586
:1042D000FF852083188EEC89FD89B082EA89FB89ED
:1042E000808180618083EA89FB8980818860808306
:1042F000EA89FB89808180688083EA89FB898081E3
:104300008F7D8083DF91CF91FF90EF90DF90CF90F2
:10431000BF9008951F920F920FB60F9211242F9302
:104320008F939F93EF93FF93E091CB05F091CC0592
:104330008081E091D105F091D20582FD12C090817B
:104340008091D4058F5F8F732091D505821751F02E
:10435000E091D405F0E0E554FA4F958F8093D405B1
:1043600001C08081FF91EF919F918F912F910F90CC
:104370000FBE0F901F9018951F920F920FB60F92BD
:1043800011242F933F934F935F936F937F938F935A
:104390009F93AF93BF93EF93FF938BEB95E00E94B6
:1043A0008020FF91EF91BF91AF919F918F917F916D
:1043B0006F915F914F913F912F910F900FBE0F9092
:1043C0001F9018958BEB95E00E94452021E0892BEA
:1043D00009F420E0822F08951092BE051092BD05C9
:1043E00088EE93E0A0E0B0E08093BF059093C00515
:1043F000A093C105B093C20588E393E09093BC05F8
:104400008093BB0585EC90E09093C8058093C70529
:1044100084EC90E09093CA058093C90580EC90E00D
:104420009093CC058093CB0581EC90E09093CE05E2
:104430008093CD0582EC90E09093D0058093CF05DA
:1044400086EC90E09093D2058093D1051092D4052C
:104450001092D5051092D6051092D7050895CF92E7
:10446000DF92EF92FF920F931F93CF93DF937C0124
:104470006A01EB0100E010E00C151D0571F0699177
:10448000D701ED91FC910190F081E02DC7010995D4
:10449000892B19F00F5F1F4FEFCFC801DF91CF912C
:1044A0001F910F91FF90EF90DF90CF9008956115CD
:1044B000710581F0DB010D900020E9F7AD0141505D
:1044C0005109461B570BDC01ED91FC910280F381F1
:1044D000E02D099480E090E00895EF92FF920F9311
:1044E0001F93CF93DF938C017B01C0E0D0E0F701F5
:1044F000EC0FFD1F6491662359F0F801A081B18192
:10450000ED91FC91C8010995892B11F02196EFCF0F
:10451000CE01DF91CF911F910F91FF90EF90089501
:104520000C945722DC01ED91FC910190F081E02D7B
:10453000099464E473E00C9457220F931F93CF9374
:10454000DF93EC010E9457228C01CE010E94992238
:10455000800F911FDF91CF911F910F9108958F923E
:104560009F92AF92BF92DF92EF92FF920F931F93B1
:10457000CF93DF93CDB7DEB7A1970FB6F894DEBF28
:104580000FBECDBF7C01F42FD52ECB0119A2223056
:1045900008F42AE08E010F5D1F4F822E912CA12C72
:1045A000B12C6F2F7D2DA50194010E94E924F22FDB
:1045B000D32ECA01015011096A3014F4E0E301C09E
:1045C000E7E3E60FD801EC93232B242B252B49F7A7
:1045D000B801C7010E945722A1960FB6F894DEBF1A
:1045E0000FBECDBFDF91CF911F910F91FF90EF9044
:1045F000DF90BF90AF909F908F900895CF92DF9201
:10460000EF92FF920F931F93CF93DF93EC016A0118
:104610007B012115310579F4E881F9810190F08160
:10462000E02D642FDF91CF911F910F91FF90EF90BC
:10463000DF90CF9009942A303105E9F477FF1AC052
:104640006DE20E9492228C0144275527BA014C1931
:104650005D096E097F092AE0CE010E94AF22800F1A
:10466000911FDF91CF911F910F91FF90EF90DF90FD
:10467000CF9008952AE0B701A601CE01DF91CF9136
:104680001F910F91FF90EF90DF90CF900C94AF228D
:104690009A01AB01662757FD6095762F0C94FE2298
:1046A0002115310541F4DC01ED91FC910190F0817F
:1046B000E02D642F09940C94AF229A01462F50E00C
:1046C00060E070E00C9450239A01AB0160E070E070
:1046D0000C9450230F931F93CF93DF93EC010E9410
:1046E000C31E688779878A879B87E881F981008460
:1046F000F185E02DCE01099597FF15C00E94C31EDC
:10470000088519852A853B85601B710B820B930BED
:104710000C811D812E813F816017710782079307ED
:1047200020F38FEF9FEFDF91CF911F910F910895AD
:10473000FF920F931F93CF93DF93EC018B01F42E25
:10474000CE010E946A239C0197FD28C08D329105FD
:1047500019F1C0970A9710F1FF2019F02E32310598
:10476000F9F001301105F9F00230110569F42D302E
:10477000310551F034F4295031092230310520F04F
:1047800012C02032310579F4E881F9810680F78181
:10479000E02DCE010995D4CF8DE203C0C90105C03B
:1047A0008EE290E002C08FEF9FEFDF91CF911F91DB
:1047B0000F91FF900895CF92DF92FF920F931F9376
:1047C000CF93DF9300D000D0CDB7DEB76C01042FBC
:1047D00040E00E949823FC0197FD4BC020E030E0B0
:1047E000A901F12C112707FD1095E017F107E9F059
:1047F000ED32F105C1F0CF01C0970A97B0F4AAE0FD
:10480000B0E00E9439259B01AC01CF01AA2797FD9A
:10481000A095BA2F280F391F4A1F5B1F205331095B
:104820004109510902C0FF24F394D601ED91FC9196
:104830000680F781E02DC60129833A834B835C8390
:104840000995C6010E946A23FC01C09729813A811B
:104850004B815C810A9748F2E017F10731F2FF20A3
:1048600061F066277727CB01621B730B840B950BD6
:1048700006C060E070E0CB0102C0CA01B9010F9030
:104880000F900F900F90DF91CF911F910F91FF909C
:10489000DF90CF9008954F925F926F927F92AF9288
:1048A000BF92CF92DF92EF92FF920F931F93CF931D
:1048B000DF93CDB7DEB729013A01621B730B840B7E
:1048C000950B29893A894B895C892A193B094C093E
:1048D0005D09298B3A8B4B8B5C8B9B01AC01698901
:1048E0007A898B899C890E94A524E418F508060919
:1048F0001709A80197010E940B252A0D3B1D4C1D8D
:104900005D1DCA01B901DF91CF911F910F91FF90F9
:10491000EF90DF90CF90BF90AF907F906F905F90BF
:104920004F9008950E944A2508950E942C1F0E94CE
:1049300094240E94300AC2E7D0E20E94C70A20975E
:10494000E1F30E947220F9CF0895DB018F939F93CA
:104950000E943925BF91AF91A29F800D911DA39F09
:10496000900DB29F900D11240895991B79E004C019
:10497000991F961708F0961B881F7A95C9F780959E
:104980000895AA1BBB1B51E107C0AA1FBB1FA61796
:10499000B70710F0A61BB70B881F991F5A95A9F7E8
:1049A00080959095BC01CD01089597FB072E16F4D4
:1049B000009407D077FD09D00E94C12407FC05D0E0
:1049C0003EF4909581959F4F0895709561957F4F26
:1049D0000895A1E21A2EAA1BBB1BFD010DC0AA1F40
:1049E000BB1FEE1FFF1FA217B307E407F50720F058
:1049F000A21BB30BE40BF50B661F771F881F991FD3
:104A00001A9469F760957095809590959B01AC011B
:104A1000BD01CF010895052E97FB1EF400940E945E
:104A2000222557FD07D00E94E92407FC03D04EF44D
:104A30000C94222550954095309521953F4F4F4F2E
:104A40005F4F089590958095709561957F4F8F4F3A
:104A50009F4F0895A29FB001B39FC001A39F700D07
:104A6000811D1124911DB29F700D811D1124911D76
:104A700008950E942A25A59F900DB49F900DA49F94
:104A8000800D911D11240895EE0FFF1F0590F491E4
:104A9000E02D099481E090E0F8940C943628AEE083
:104AA000B0E0E5E5F5E20C940D280D891E8986E05D
:104AB0008C831A8309838FEF9FE79E838D83AE01DA
:104AC000475E5F4F6F89788DCE0101960E947125F8
:104AD000EF81F885E00FF11F10822E96E4E00C9430
:104AE0002928ACE0B0E0E7E7F5E20C94FF277C0171
:104AF0006B018A01FC0117821682838181FFBDC18F
:104B0000CE0101964C01F7019381F60193FD859149
:104B100093FF81916F01882309F4ABC1853239F489
:104B200093FD859193FF81916F01853229F4B7013F
:104B300090E00E946F27E7CF512C312C20E02032EB
:104B4000A0F48B3269F030F4803259F0833269F48A
:104B500020612CC08D3239F0803339F4216026C0B9
:104B60002260246023C0286021C027FD27C030EDCB
:104B7000380F3A3078F426FF06C0FAE05F9E300D19
:104B80001124532E13C08AE0389E300D1124332E89
:104B900020620CC08E3221F426FD6BC1206406C059
:104BA0008C3611F4206802C0883641F4F60193FD7A
:104BB000859193FF81916F018111C1CF982F9F7DC6
:104BC0009554933028F40C5F1F4FFFE3F9830DC019
:104BD000833631F0833771F0833509F05BC022C032
:104BE000F801808189830E5F1F4F44244394512C28
:104BF000540115C03801F2E06F0E711CF801A0805D
:104C0000B18026FF03C0652D70E002C06FEF7FEF1B
:104C1000C5012C870E9464272C0183012C852F77E6
:104C2000222E17C03801F2E06F0E711CF801A0802F
:104C3000B18026FF03C0652D70E002C06FEF7FEFEB
:104C4000C5012C870E9459272C012C852068222E13
:104C5000830123FC1BC0832D90E048165906B0F455
:104C6000B70180E290E00E946F273A94F4CFF501FB
:104C700027FC859127FE81915F01B70190E00E949A
:104C80006F2731103A94F1E04F1A51084114510442
:104C900071F7E5C0843611F0893639F5F80127FF40
:104CA00007C060817181828193810C5F1F4F08C0B2
:104CB00060817181882777FD8095982F0E5F1F4F47
:104CC0002F76B22E97FF09C09095809570956195CB
:104CD0007F4F8F4F9F4F2068B22E2AE030E0A40113
:104CE0000E94A127A82EA81844C0853729F42F7E3A
:104CF000B22E2AE030E025C0F22FF97FBF2E8F368A
:104D0000C1F018F4883579F0B4C0803719F08837CD
:104D100021F0AFC02F2F2061B22EB4FE0DC08B2D1D
:104D20008460B82E09C024FF0AC09F2F9660B92E58
:104D300006C028E030E005C020E130E002C020E1FC
:104D400032E0F801B7FE07C06081718182819381F2
:104D50000C5F1F4F06C06081718180E090E00E5FA4
:104D60001F4FA4010E94A127A82EA818FB2DFF7792
:104D7000BF2EB6FE0BC02B2D2E7FA51450F4B4FE13
:104D80000AC0B2FC08C02B2D2E7E05C07A2C2B2D1C
:104D900003C07A2C01C0752C24FF0DC0FE01EA0D62
:104DA000F11D8081803311F4297E09C022FF06C0E5
:104DB0007394739404C0822F867809F0739423FD52
:104DC00013C020FF06C05A2C731418F4530C571844
:104DD000732C731468F4B70180E290E02C870E9472
:104DE0006F2773942C85F5CF731410F4371801C016
:104DF000312C24FF12C0B70180E390E02C870E9481
:104E00006F272C8522FF17C021FF03C088E590E0A3
:104E100002C088E790E0B7010CC0822F867859F075
:104E200021FD02C080E201C08BE227FD8DE2B701C7
:104E300090E00E946F27A51438F4B70180E390E05A
:104E40000E946F275A94F7CFAA94F401EA0DF11D3E
:104E50008081B70190E00E946F27A110F5CF332029
:104E600009F451CEB70180E290E00E946F273A9496
:104E7000F6CFF7018681978102C08FEF9FEF2C96C6
:104E8000E2E10C941B28F999FECF92BD81BDF89AFE
:104E9000992780B50895262FF999FECF1FBA92BDA4
:104EA00081BD20BD0FB6F894FA9AF99A0FBE01960B
:104EB0000895FC010590615070400110D8F780956D
:104EC00090958E0F9F1F0895FC01615070400190D6
:104ED0000110D8F7809590958E0F9F1F08950F931E
:104EE0001F93CF93DF93182F092FEB018B8181FD47
:104EF00003C08FEF9FEF20C082FF10C04E815F8103
:104F00002C813D81421753077CF4E881F9819F0190
:104F10002F5F3F4F39832883108306C0E885F985CA
:104F2000812F0995892B29F72E813F812F5F3F4FD4
:104F30003F832E83812F902FDF91CF911F910F916F
:104F40000895FA01AA27283051F1203181F1E8941F
:104F50006F936E7F6E5F7F4F8F4F9F4FAF4FB1E06C
:104F60003ED0B4E03CD0670F781F891F9A1FA11D67
:104F7000680F791F8A1F911DA11D6A0F711D811D68
:104F8000911DA11D20D009F468943F912AE0269F2D
:104F900011243019305D3193DEF6CF010895462F8C
:104FA0004770405D4193B3E00FD0C9F7F6CF462F6D
:104FB0004F70405D4A3318F0495D31FD40524193D6
:104FC00002D0A9F7EACFB4E0A69597958795779593
:104FD0006795BA95C9F700976105710508959B011A
:104FE000AC010A2E06945795479537952795BA95A3
:104FF000C9F7620F731F841F951FA01D08952F927C
:105000003F924F925F926F927F928F929F92AF9258
:10501000BF92CF92DF92EF92FF920F931F93CF93A5
:10502000DF93CDB7DEB7CA1BDB0B0FB6F894DEBF3C
:105030000FBECDBF09942A88398848885F846E8462
:105040007D848C849B84AA84B984C884DF80EE80AC
:10505000FD800C811B81AA81B981CE0FD11D0FB6B5
:10506000F894DEBF0FBECDBFED010895F894FFCFD9
:1050700000005806800001000000038E0200008E30
:1050800002000039050A1E0A1E0100003100F9184D
:105090003000FB302C001C472600825A1F006D6A2E
:1050A000170041760E00897D0400000000922492D2
:1050B00024922492248501000000002E070D091D72
:1050C00006AC01850100000000C9076408FE0588E0
:1050D00001850100000000A610590C100CF31053BC
:1050E00011780DF40FDF0B920D130E090D7311FAE9
:1050F0000BEB0B464C583F454F4600464C583F0083
:1051000048616E647368616B65206661696C004616
:105110004C583A25753A00464C583F4F4B20284191
:10512000434B2073656E742900464C58494D473AED
:1051300000726164696F205B005D203E2000464C78
:10514000583A25753A4F4B00464C583F4F4B20720A
:105150006573656E6400494D4720657863656564D5
:10516000732033316B2C207265667573696E67200E
:10517000697400464C583F4E4F4B005246545820DD
:105180003E2000524641434B203E200054696D654D
:105190006F75742077616974696E6720666F72201D
:1051A0007061636B65742041434B2C2061626F72A8
:1051B00074696E6720464C415348206F7065726178
:1051C00074696F6E202E2E2E00464C583A494E566A
:1051D0000054696D656F75742072656365697669E1
:1051E0006E6720464C41534820696D6167652066B3
:1051F000726F6D2053455249414C2C2061626F7291
:1052000074696E672E2E2E000A464C583F4F4B0095
:10521000464C41534820494D47205452414E534D2E
:10522000495353494F4E205355434345535300462A
:105230004C41534820494D47205452414E534D490B
:105240005353494F4E204641494C005245424F4F1F
:1052500054494E4700464C41534820494D4720543D
:1052600052414E534D495353494F4E20535543439A
:10527000455353210A0054696D656F75742F45724B
:10528000726F722C2065726173696E672077726924
:105290007474656E2064617461202E2E2E2000448B
:1052A0004F4E450000000000C3202F2245205E2005
:1052B0005020A1200D0A006E616E00696E66006FBD
:0452C000766600000E
:00000001FF
